:020000040000FA
:1000000000040020E90800007D050000C908000088
:1000100087050000910500009B050000000000001E
:100020000000000000000000000000000D090000BA
:10003000A505000000000000AF050000B9050000A4
:10004000C3050000CD050000D7050000E105000054
:10005000EB050000F5050000FF05000009060000A3
:10006000130600001D0600002706000031060000F0
:100070003B060000450600004F0600005906000040
:10008000630600006D060000770600008106000090
:100090008B060000950600009F060000A9060000E0
:1000A000B3060000BD060000C7060000D106000030
:1000B000DB060000E5060000EF060000F906000080
:1000C000030700000D0700001707000021070000CC
:1000D0002B070000350700003F070000490700001C
:1000E000530700005D07000067070000710700006C
:1000F0007B070000850700008F07000099070000BC
:10010000A30700001FB500F003F88DE80F001FBD26
:1001100000F0E0BB1FB56FF00100009040100390AD
:10012000029001904FF010208069000B420900F00E
:100130001F045DF822300120A04083434DF8223097
:10014000684600F045F91FBDF0B54FF6FF734FF458
:10015000B4751A466E1E11E0A94201D3344600E080
:100160000C46091B30F8027B641E3B441A44F9D14B
:100170009CB204EB134394B204EB12420029EBD17E
:1001800098B200EB134002EB124140EA0140F0BD8F
:10019000DE4992B00446D1E90001CDE91001FF2209
:1001A0004021684600F03CFB94E80F008DE80F000A
:1001B000684610A902E004C841F8042D8842FAD12B
:1001C00010216846FFF7C0FF1090AA208DF8440068
:1001D000FFF7A0FF00F0F3F84FF01024A069102201
:1001E0006946803000F002F9A069082210A900F0E9
:1001F000FDF800F0D8F84FF080510A6949690068AD
:100200004A43824201D8102070470020704710B541
:10021000D0E900214FF0805002EB8103026944696C
:100220006243934209D84FF01022536903EB8103D4
:100230000169406941438B4201D9092010BD5069D1
:10024000401C01D0002010BD0F2010BD70B501680A
:100250000446AF4D4FF01020072952D2DFE801F0DD
:10026000330419293C1E2500D4E902656468294637
:10027000304600F0CDF82A462146304600F0B6F868
:10028000AA002146304600F09FFA002800D0032043
:1002900070BD00F051FB4FF4805007E0201DFFF7C8
:1002A000AAFF0028F4D100F047FB60682860002016
:1002B00070BD241D94E80700920000F085FA002824
:1002C000F6D00E2070BD8069401C12D0201DFFF7B3
:1002D0009EFF0028F6D109E08069401C09D0201D4E
:1002E000FFF789FF0028EDD1606820B12046FFF7B5
:1002F0004FFF042070BDFFF70DFF00F060F800F025
:1003000052F8072070BD10B50C46182802D0012005
:10031000086010BD2068FFF799FF206010BD4FF006
:100320001024A069401C05D0A569A66980353079E4
:10033000AA2808D06069401C2DD060690068401C64
:1003400029D060692CE010212846FFF7FDFE3168B6
:1003500081421CD1A16901F18002C03105E030B1B8
:1003600008CA51F8040D984201D1012000E0002094
:100370008A42F4D158B1286810B1042803D0FEE7AE
:10038000284600F057F862496868086008E000F005
:1003900016F800F008F84FF480500168491C01D0AD
:1003A00000F0A4FAFEE7BFF34F8F5A4801685A4A9B
:1003B00001F4E06111430160BFF34F8FFEE74FF09E
:1003C00010208169491C02D0806900F0AEB87047E6
:1003D000524A01681160121D416811604F4A8168DC
:1003E00010321160111DC068086070472DE9F0419E
:1003F00017460D460646002406E03046296800F000
:10040000A7F8641C2D1D361DBC42F6D3BDE8F08153
:1004100070B50C4605464FF4806608E0284600F0AB
:1004200084F8B44205D3A4F5806405F58055002C0A
:10043000F4D170BD4168044609B1012500E00025F2
:100440004FF010267069A268920000F0BDF9C8B1A3
:10045000204600F01AF89DB17669A56864684FF4EB
:10046000002084420AD2854208D229463046FFF74E
:10047000CFFF2A4621463046FFF7B8FFFFF79FFF20
:10048000FFF791FFFFF746FEF8E72DE9FF414FF038
:100490001024616980680D0B01EB800000F6FF708D
:1004A000010B0020009001900290024603906846E4
:1004B00001230BE0560902F01F0C50F8267003FAD6
:1004C0000CFC47EA0C0740F82670521CAA42F1D3F4
:1004D0000AE04A0901F01F0650F8225003FA06F616
:1004E000354340F82250491C8029F2D3A169090BF9
:1004F0004A0901F01F0150F822408B409C4340F80C
:100500002240FFF765FFBDE8FF8100005C090000A5
:10051000000000200CED00E00400FA050006004099
:10052000144801680029FCD07047134A0221116069
:1005300010490B68002BFCD00F4B1B1D186008687E
:100540000028FCD00020106008680028FCD070470C
:10055000094B10B501221A60064A1468002CFCD021
:10056000016010680028FCD0002018601068002886
:10057000FCD010BD00E4014004E5014008208F4993
:1005800009680958084710208C4909680958084724
:1005900014208A49096809580847182087490968BA
:1005A0000958084730208549096809580847382004
:1005B00082490968095808473C2080490968095858
:1005C000084740207D4909680958084744207B496D
:1005D00009680958084748207849096809580847B0
:1005E0004C20764909680958084750207349096822
:1005F0000958084754207149096809580847582084
:100600006E490968095808475C206C49096809580F
:100610000847602069490968095808476420674904
:100620000968095808476820644909680958084753
:100630006C20624909680958084770205F490968B9
:100640000958084774205D49096809580847782007
:100650005A490968095808477C20584909680958C7
:10066000084780205549096809580847842053499C
:1006700009680958084788205049096809580847F7
:100680008C204E4909680958084790204B49096851
:10069000095808479420494909680958084798208B
:1006A00046490968095808479C204449096809587F
:1006B0000847A0204149096809580847A4203F4934
:1006C000096809580847A8203C490968095808479B
:1006D000AC203A49096809580847B02037490968E9
:1006E00009580847B4203549096809580847B8200F
:1006F0003249096809580847BC2030490968095837
:100700000847C0202D49096809580847C4202B49CB
:10071000096809580847C82028490968095808473E
:10072000CC202649096809580847D0202349096880
:1007300009580847D4202149096809580847D82092
:100740001E49096809580847DC201C4909680958EE
:100750000847E0201949096809580847E420174963
:10076000096809580847E8201449096809580847E2
:10077000EC201249096809580847F0200F49096818
:1007800009580847F4200D49096809580847F82016
:100790000A49096809580847FC20084909680958A6
:1007A00008475FF480700549096809580847000048
:1007B00003480449024A034B704700000000002030
:1007C000680900006809000040EA010310B59B07B2
:1007D0000FD1042A0DD310C808C9121F9C42F8D0AB
:1007E00020BA19BA884201D9012010BD4FF0FF305C
:1007F00010BD1AB1D30703D0521C07E0002010BD72
:1008000010F8013B11F8014B1B1B07D110F8013BFD
:1008100011F8014B1B1B01D1921EF1D1184610BDDE
:1008200002F0FF0343EA032242EA024200F005B865
:100830007047704770474FF000020429C0F01280E3
:1008400010F0030C00F01B80CCF1040CBCF1020F83
:1008500018BF00F8012BA8BF20F8022BA1EB0C0158
:1008600000F00DB85FEAC17C24BF00F8012B00F84E
:10087000012B48BF00F8012B70474FF0000200B574
:10088000134694469646203922BFA0E80C50A0E8B3
:100890000C50B1F12001BFF4F7AF090728BFA0E861
:1008A0000C5048BF0CC05DF804EB890028BF40F82D
:1008B000042B08BF704748BF20F8022B11F0804F6F
:1008C00018BF00F8012B7047014B1B68DB68184705
:1008D0000000002009480A497047FFF7FBFFFFF7B7
:1008E00011FC00BD20BFFDE7064B1847064A10600B
:1008F000016881F30888406800470000680900002B
:10090000680900001F030000000000201EF0040F13
:100910000CBFEFF30881EFF3098188690238007892
:10092000182803D100E00000074A1047074A126860
:100930002C3212681047000000B5054B1B68054AB1
:100940009B58984700BD00000703000000000020EE
:100950005809000004000000001000000000000022
:0809600000FFFFFF0090D0032F
:10100000900D0020A9800100AD2E00001B80010082
:10101000AD2E0000AD2E0000AD2E0000000000003F
:10102000000000000000000000000000018101003D
:10103000AD2E000000000000AD2E0000AD2E00001F
:10104000698101006F810100AD2E0000AD2E00000E
:10105000AD2E0000AD2E0000AD2E0000AD2E000024
:1010600075810100AD2E0000AD2E00007B810100D6
:10107000AD2E000081810100878101008D8101007A
:10108000AD2E0000AD2E0000AD2E0000AD2E0000F4
:10109000AD2E0000AD2E0000AD2E0000AD2E0000E4
:1010A000AD2E000093810100AD2E0000AD2E00009A
:1010B000AD2E0000AD2E0000AD2E0000AD2E0000C4
:1010C00099810100AD2E0000AD2E0000AD2E000074
:1010D000AD2E0000AD2E0000AD2E0000AD2E0000A4
:1010E000AD2E0000AD2E0000AD2E0000AD2E000094
:1010F000AD2E0000AD2E0000AD2E0000AD2E000084
:10110000AD2E0000AD2E000000F002F816F0B9FF81
:101110000AA090E8000C82448344AAF10107DA4552
:1011200001D116F0AEFFAFF2090EBAE80F0013F0CE
:10113000010F18BFFB1A43F001031847B8740100F0
:10114000D87401000A4410F8014B14F00F0508BFD1
:1011500010F8015B240908BF10F8014B6D1E05D083
:1011600010F8013B6D1E01F8013BF9D1641E03D05C
:10117000641E01F8015BFBD19142E4D3704700008B
:101180000023002400250026103A28BF78C1FBD890
:10119000520728BF30C148BF0B6070471FB500F031
:1011A00031F88DE80F001FBD8269034981614FF05E
:1011B0000100104470470000BD11000001B41EB4CE
:1011C00000B501F0FBFE01B40198864601BC01B0F8
:1011D0001EBD0000F0B44046494652465B460FB47F
:1011E00002A0013001B50648004700BF01BC864699
:1011F0000FBC8046894692469B46F0BC7047000073
:101200000911000016F03ABF70B51B4C05460920C5
:101210002070A01C00F061F85920A08029462046CB
:10122000BDE8704006F058BD06F061BD70B50C46D3
:101230001249097829B1A0F160015E2908D3012083
:1012400013E0602804D0692802D043F201000CE0CA
:1012500020CC0B4E94E80E0006EB8000A0F58050E9
:10126000241FD0F8806E2846B047206070BD012052
:101270007047062070470000080000201C00002076
:10128000C881010010B504460021012000F032F8A9
:1012900000210B2000F02EF80421192000F02AF87C
:1012A00004210D2000F026F804210E2000F022F881
:1012B00004210F2000F01EF80421C84300F01AF8A2
:1012C0000621162000F016F80621152000F012F86D
:1012D0002046FFF799FF002010BDA721018070472D
:1012E000FFF7A2BF002070470A487047FFF79EBF74
:1012F000704770474907090E002806DA00F00F0012
:1013000000F1E02080F8141D704700F1E02080F823
:101310000014704703F9004230B5FF4D0446062C17
:10132000A9780ED2DFE804F0030E0E0E0509FFDFE8
:1013300008E0022906D0FFDF04E0032902D0FFDF26
:1013400000E0FFDFAC7030BDF34810B5407E4108CF
:10135000F14800F11A0005D00AF07BFBBDE810400F
:1013600006F058BB0AF05CFBF8E730B50446A1F183
:1013700020000D460A2847D2DFE800F005070C19C7
:10138000202532373C41FFDF3FE0207820283CD148
:10139000FFDF3AE0E0488078052836D0207824281E
:1013A00033D0252831D023282FD0FFDF2DE020781F
:1013B00022282AD0232828D8FFDF26E020782228D8
:1013C00023D0FFDF21E0207822281ED024281CD043
:1013D00026281AD0272818D0292816D0FFDF14E095
:1013E0002078252811D0FFDF0FE0207825280CD0A9
:1013F000FFDF0AE02078252807D0FFDF05E020780E
:10140000282802D0FFDF00E0FFDF257030BD1FB5C8
:101410000022ADF800200C88ADF802404B88ADF8F2
:101420000430CA88ADF808208988ADF8061000217C
:10143000ADF80A10ADF80C1080B14FF6FF70062120
:10144000844201D1ADF80210834201D1ADF80410FD
:10145000824203D14FF44860ADF8080068460AF0B4
:101460002DFC06F0D7FA04B010BD70B514460D4639
:1014700006460FF00FFA60B90DB1A54201D90C2054
:1014800070BD002409E000BF56F824000FF002FAF6
:1014900008B1102070BD641CE4B2AC42F4D300204B
:1014A00070BD2DE9F04105461F4690460E460024CA
:1014B00000680FF03CFA10B11020BDE8F0812868F8
:1014C0000028A88802D0B84202D84FE00028F4D003
:1014D0000920F2E72868025DB2B1611C475C152F54
:1014E0002DD03BDC3AD2DFE807F03912222228283F
:1014F0002A2A3131393939393939393939392200DA
:10150000025D32BB641CA4B2A142F9D833E0022AC6
:10151000DED1A21C805C88F80000072801D24007B9
:1015200001D40A20C9E7307840F0010015E0D0432B
:10153000C00707E0012A07D010E00620BDE710072A
:10154000A0F180500028F5D01846B6E73078820721
:1015500001D50B20B1E740F0020030702868005D33
:10156000084484B2A888A04202D2B1E74FF448539D
:1015700081B2A142AED800209FE710B5027854088E
:1015800009D0012243F20223012C07D0022C0DD0F6
:10159000032C13D10FE00020087005E080790324AC
:1015A000B4EB901F0AD10A70002010BD8079B2EB15
:1015B000901F03D1F7E780798009F4D0184610BD59
:1015C00038B50C460546694601F089F800280DD16A
:1015D0009DF80010207861F34700207055F8010F46
:1015E000C4F80100A888A4F80500002038BD38B56B
:1015F0001378C0B1022816D048A46D462468009420
:101600004C7905EB9414247864F347031370032892
:101610000ED003F0FE0010700868C2F80100888840
:10162000A2F8050038BD23F0FE0313700228EED1A6
:10163000D8B240F00100EEE702210BF07DBC38B5D6
:101640000C460978222901D2082038BDADF80000E7
:101650008DF8022068460AF038FA06F0DBF905003A
:1016600003D121212046FFF780FE284638BD1CB556
:1016700000208DF80000CDF80100ADF805002648E7
:1016800090F82200022801D0012000E000208DF80F
:10169000070068460AF086FA002800D0FFDF1CBD6C
:1016A0002DE9FF478CB00026BDF8347082461C46F9
:1016B00090468DF81C60780703D560680FF0EAF853
:1016C00068B9154D4FF0010995F8220058B195F809
:1016D0002300022807D160680FF029F918B1102003
:1016E00010B0BDE8F087380702D5A08980281AD845
:1016F000780704D4B8F1000F01D0287E98B1E07DBE
:10170000C0F300108DF81B00617D072069B101292D
:101710000BD00229E4D003E0900100200302FF0176
:101720000429DDD118E00720DAE78DF817908DF84D
:1017300019908DF8158060684F4678B107A9FFF7BA
:101740001CFF0028CCD1606850F8011FCDF80F10A5
:101750008088ADF8130005E00620C1E7CDF80F60E2
:10176000ADF81360E07B0028F6D1207C0028F3D18F
:10177000607C0028F0D1A07C0028EDD1E07CC00680
:10178000EAD18DF800A0BDF83400ADF80200A068E1
:101790000190A0680290FEA0D0E90010CDE90A10E7
:1017A000E07C0AA901EB50101B3900788DF80C0081
:1017B00095F8220030B195F82300022818D00328AC
:1017C00004D119E0F44800F08AFF00B1FFDF9DF872
:1017D0001C008DF80E008DF818608DF816608DF8DD
:1017E0001A6009A968460AF0A5FA06F013F977E726
:1017F00003208DF80D00EAE78DF80D70E7E7F0B5EE
:101800009DB000228DF868208DF858208DF860205A
:1018100005468DF86C20129213921492159219B10C
:101820000FC912AC84E80F00DB4C193CA0780528E6
:1018300001D004280CD112986168884200D120B9E7
:101840001498E168884203D110B108201DB0F0BDA2
:101850001F26334618AA1AA912A8FFF722FE00284D
:10186000F4D133461BAA16A914A8FFF71AFE0028C4
:10187000ECD19DF85800C00701D00A20E6E7A08A05
:10188000410708D4A17D31B19DF86010890702D0CD
:1018900043F20120DAE79DF86010C90709D040073C
:1018A00007D4208818B144F25061884201D907203A
:1018B000CCE78DF8005003268DF8016001278DF8E4
:1018C0000270BDF84C208DF8032001A8129916F083
:1018D000D6FA68460AF08DFA06F09CF80028B5D1D1
:1018E0008DF824508DF825608DF82670BDF85420B1
:1018F0008DF827200AA8149916F0C1FA09A80AF051
:101900009CFA06F087F80028A0D112AD241D95E8B6
:101910000F0084E80F00002098E72DE9FE43040043
:1019200000D1FFDF20789C4E20F00F00801C20F0BB
:10193000F000703020706068193E0178C91F1229CC
:1019400029D2DFE801F04BFD2809FDFD38FB2828EE
:1019500064FBFA2828FBFBF986883046FFF76CFE0B
:101960000546304609F0B1FCB8B16068807985F869
:101970003E0021212846FFF7F8FC304603F07FFAAD
:10198000304604F0E9FB314601200EF037FFA87F16
:1019900020F01000A877BDE8FE83207820F0F0004A
:1019A0002030207006202072668060688079607226
:1019B00006F013FADDE785882846FFF73DFE00B9FB
:1019C000FFDF60688078012800D0FFDF60688179E0
:1019D00003B02846BDE8F04309F0A6BD868830462E
:1019E000FFF72AFE050000D1FFDF06F0F6F9606878
:1019F0003146C088288160680089688160684089B4
:101A0000A88101200EF0FAFE0020A875C3E78078B7
:101A1000022808D000B1FFDF06F0DFF96568A87979
:101A2000AD1C10B102E0FFDFB5E7FFDFF778B5F8D6
:101A30000290B046384605F08DFF060000D1FFDF6A
:101A40000022022148460BF06EFA040000D1FFDFAD
:101A500022212046FFF789FCA17F012060F30101CC
:101A6000A177298B2181698B6181A98BA18184F860
:101A700022708DF8080002AA032148460BF053FAA1
:101A800000B9FFDFB088ADF80400B0788DF806002B
:101A900001AA052148460BF046FA00B9FFDFB088DD
:101AA000ADF80000F0788DF802006A46042148463F
:101AB0000BF039FA00B9FFDF062105F1120000F042
:101AC0002BFE08B36879800700D5FFDF6979E07DD8
:101AD00061F34700E075D5F80600A0616889A0832E
:101AE000062105F10C0000F017FEB8B198F81910A6
:101AF0004A08617862F347016170D8F81A10C4F897
:101B00000210B8F81E0012E0E07D20F0FE00801CFC
:101B1000E075D5F81200A061E88AE0E7607820F06F
:101B2000FE00801C6070E868C4F80200288AE0802B
:101B30000320FFF7F1FB2EE707E012E00DE0FFE7DF
:101B40002046BDE8FE4301F020BD06F046F916F838
:101B5000240F40F0040030701DE7BDE8FE4306F09E
:101B60003CB9B178052908D00429E4D106F035F94B
:101B70000220BDE8FE43FFF7CFBB80780028DAD013
:101B8000F07800F093FD06F028F90320F1E700005B
:101B90000706050403020100A90100202DE9F04712
:101BA000054600780027000991460C463E4601286C
:101BB00073D0022872D0072809D00A2824D0FFDF6A
:101BC000A9F800600CB127806680002089E5D5F86F
:101BD00004C0DFF8AC874FF0010A9CF800004FF614
:101BE000FF7113287AD008DC07280ED00E281FD0EA
:101BF000112826D0122806D186E016280BD01728E7
:101C000059D018286CD02146FBE012271026BCF8CA
:101C100004002146B8E01C270A26ECB3BCF80200F9
:101C2000A080686800792072686840796072C7E7B0
:101C30001B27092684B30320207268684088A0808F
:101C4000BEE79CF802003C28BAD010272C260CF1E5
:101C5000020C0CB3BCF80200A080BCF81800608233
:101C6000BCF818002082BCF81A00A082BCF81C0046
:101C7000E0829CF8050004F108020CF10601FFF770
:101C8000B6FC9CF8040001289AD184F80FA000202B
:101C9000207608F1040002E00AE06DE077E090E8C9
:101CA0000E00D8F81000C4E90930C4E9071287E72C
:101CB000A9F8006089E720271126002CF8D0A18020
:101CC000686804F10A02807820726868807A60721D
:101CD0006968C878091DFFF78AFC71E729E0FFE70A
:101CE00021270A26002CE3D0BCF80200A0806868F7
:101CF0000079207268684079607298F8241021F0A9
:101D0000040188F824105BE722270B26002CCFD093
:101D1000BCF80400A08068688078207268688079C8
:101D200000F009FD60726868C07900F004FDA072DF
:101D300046E726271C26002CBAD0A1806868C07808
:101D4000607268688079A07208F1040090E80E0063
:101D5000D8F81000C4E90530C4E903126868807837
:101D60003C2803D0432804D0FFDF29E784F808A0EB
:101D700026E70220207223E7287A022801D0FFDF1D
:101D80001EE712271026688800F0B3FC18E7287AAF
:101D9000032836D0042834D0052832D0062801D0B4
:101DA000FFDF0DE711270926002C81D0B5F802804E
:101DB0004046FFF741FC90F822A0A4F80480687A1E
:101DC0002072042140460BF0C9F8052140460BF073
:101DD000C5F8002140460BF0C1F8012140460BF048
:101DE000BDF8032140460BF0B9F8022140460BF044
:101DF000B5F8062140460BF0B1F8504600F056FC0D
:101E0000DEE62846BDE8F04701F0F6BC70B50128D3
:101E100001D0FFDF70BD8DB22846FFF70DFC040036
:101E200000D1FFDF20782128F4D005F0D3FF80B166
:101E3000017821F00F01891C21F0F00110310170AF
:101E40000221017245800020A075BDE8704005F0B8
:101E5000C4BF21462846BDE870401322FFF7EFBB00
:101E60002DE9F04116460C00804600D1FFDF3078A6
:101E700020F00F00801C20F0F0001030307020782F
:101E8000022802D0FFDFBDE8F0814046FFF7D4FB17
:101E9000050000D1FFDF61884FF6FF700027814207
:101EA00002D1A288824203D0814201D1A08848B1E8
:101EB00005F093FF2068B0606068F0602089308290
:101EC000AF75E0E7A87D0128DDD1782300224146E7
:101ED0000EF0EAFB0220A875D5E738B505460C469A
:101EE00008460EF0D7FC68B9203D062D30D2DFE859
:101EF00005F00305222F271B062038BD60680EF071
:101F00000DFD08B1102038BD618820886A460AF0AE
:101F1000D5F805F07FFD0028F5D161680029F2D0E1
:101F2000BDF800200A8038BDA07800F001012088AB
:101F30000AF0F5F808E02068BDE8384001F092BEEC
:101F4000618820880AF053F8BDE8384005F062BD8A
:101F5000072038BD70B505460C4608460EF0C0FC9B
:101F600008B1102070BD202D07D0212D0DD0222DBD
:101F70000BD0252D09D0072070BD2088A11C09F0A9
:101F8000F7FDBDE8704005F045BD062070BDFC487A
:101F90001930704708B52821F94816F011F80120CA
:101FA000FFF7BAF9F64968461A3105F0A9FEF44878
:101FB0009DF80020417E62F3470121F00101417646
:101FC000002180F822104FF461710184022180F811
:101FD0002310FFF7B9F900B1FFDF00F0DDFB01F0DE
:101FE000A7FA08BD10B50C464021204615F0C6FFE3
:101FF000A07F20F00300A077202020700020A07593
:1020000084F8230010BD70472DE9FC4107460EF00F
:1020100041FC10B11020BDE8FC81D94E06F1190138
:10202000D6F819000090B6F81D50ADF80450F47FB2
:102030008DF806403846FFF7C3FA0028EBD1FFF7CA
:1020400083F90028E7D0009946F8191FB580B471CC
:10205000E1E710B504460EF043FC08B1102010BDB6
:10206000C748C7492246407E1A314008FFF7BFFAE9
:10207000002010BDFEB50D4604004FF0000712D041
:102080000822FFF7F2F9002812D1002609E000BF6C
:1020900054F826006946FFF770FA002808D1761C2C
:1020A000F6B2AE42F4D309F012FC10B143F20320B1
:1020B000FEBDB34E3776FCB100271AE054F8270076
:1020C00002A9FFF75AFA00B1FFDF9DF808008DF86A
:1020D000000054F8270050F8011FCDF80110808847
:1020E000ADF80500684609F017FC00B1FFDF7F1C62
:1020F000FFB2AF42E2D335760020FEBD2DE9F047B6
:102100008AB01546894604001DD00F46082229468C
:10211000FFF7ABF9002810D1002612E054F8260092
:102120006946103000F0DBFA002806D13FB157F8BD
:1021300026000EF0AFFB10B110200AB046E5761C69
:10214000F6B2AE42EAD30026A5F101081CE000BFBA
:1021500006F1010A0AF0FF0712E000BF54F826005A
:10216000017C4A0854F827100B7CB2EB530F05D1C1
:1021700006221130113115F056FE58B17F1CFFB206
:10218000AF42EBD30AF0FF064645E1DB4E4624B1F1
:10219000012003E043F20520CFE7002009F0DCFB3B
:1021A00010B909F0E5FB10B143F20420C5E75CB3B8
:1021B00000270DF1170825E054F827006946103074
:1021C00000F08DFA00B1FFDF54F82700102250F81C
:1021D000111FCDF801108088ADF8050054F82710C4
:1021E0000DF1070015F04BFE96B156F8271010229E
:1021F000404615F044FE684609F073FB00B1FFDF6E
:102200007F1CFFB2AF42D7D3FFF731FA002094E72B
:10221000404601F01BFDEEE730B585B004460EF0F8
:1022200039FB18B960680EF082FB10B1102005B0C0
:1022300030BD60884AF2B811884206D82078504DE7
:1022400028B1012806D0022804D00720EFE7FFF7C5
:102250007BF818E06078022804D0032802D043F20B
:102260000220E4E785F82300C1B200200090ADF819
:10227000040002292CD0032927D0FFDF684609F08B
:10228000E8FB05F0C7FB0028D1D1606801F0D1FC64
:10229000207858B101208DF800000DF1010001F007
:1022A000D5FC684609F08EFF00B1FFDF207885F885
:1022B0002200FFF7DCF9608860B1288480B209F061
:1022C00043FB00B1FFDF0020B1E78DF80500D5E743
:1022D0004020FAE74FF46170EFE710B504460EF0C6
:1022E000FFFA20B9606838B10EF018FB08B1102071
:1022F00010BD606801F0AAFC214830F8201F618001
:10230000C178617080782070002010BD2DE9F843FD
:102310001446894606460EF0E3FAA0B948460EF088
:1023200006FB80B920460EF002FB60B9144DA87878
:10233000012800D13CB13178FF2906D049B143F2E0
:102340000400BDE8F8831020FBE7012801D0042039
:10235000F7E74FF00008B4B3052813D0042811D0D4
:102360006946204600F0F2F90028EAD1207D58B1F4
:1023700001280BD002280BD003280BD00720E0E760
:10238000900100200820DCE7424604E0012202E040
:10239000022200E003222346174600200099FFF79F
:1023A0007FF90028CDD1A0892880A07BE875BDF8F1
:1023B0000000A882AF75BDF80000000701D5A08914
:1023C00088B1A089288049460020FFF718FA002824
:1023D000B7D1A87805280BD0042809D0287DC007DC
:1023E00003D0032002E08020ECE70220FEF794FFF8
:1023F00086F800800020A4E72DE9FC41E54C064664
:102400000D46A078022803D0032801D0082002E658
:1024100016B143F20400FEE506200AF041FD10B9B2
:10242000A078032845D00CF093FC07460DF027FE5A
:10243000381A00F0FF0806200AF02AFD0746062099
:102440000AF02EFD391AA078042809D00022114480
:10245000A8EB010111F0FF0F04D0032804D00DE018
:102460000122F4E71320D6E5284605F073FAF0B10F
:102470004078F0B1284605F054FDE57001208DF854
:1024800000008DF801008DF802602088ADF804008E
:10249000E07D8DF80600684609F06CFD05F0BAFA9B
:1024A0000028B4D1A078032805D0042010E005202E
:1024B000B1E51220AFE5E07805F04CFA040000D158
:1024C000FFDF607800B9FFDF6078401E6070052094
:1024D000FEF722FF00209EE51CB510B143F2040078
:1024E0001CBDAC4CA078042803D0052801D00820DE
:1024F0001CBD00208DF8000001218DF801108DF821
:102500000200684609F036FD05F084FA0028EFD194
:10251000A078052804D00220FEF7FEFE00201CBD96
:10252000E07800F0C3F80320F6E72DE9FC4180468F
:102530000D46032608460EF0FAF908B110206AE5A8
:102540004046FFF779F8040004D02078222804D20E
:10255000082060E543F202005DE5A07F00F003077C
:102560003DB1012F0AD000202946FEF750FF06009A
:10257000E5D1012F04D0FFDF30464CE50120F3E721
:10258000A07D2946022801D011B107E0112042E5C3
:10259000684600F00EFA0028D1D16946404608F09E
:1025A000A3FF0600E8D10120A075E5E770B50C4651
:1025B0000546FFF741F8010005D022462846BDE850
:1025C0007040FFF73CB843F2020070BD10B501281F
:1025D00007D1704B9B78012B00D011B143F204005E
:1025E00010BD09F0E3F9BDE8104005F013BA01236E
:1025F00000F066B800231A46194600F061B870B5BD
:10260000064615460C4608460EF06AF918B92846E3
:102610000EF066F908B1102070BD2A4621463046FA
:1026200009F034FD05F0F6F90028F5D121787F296D
:10263000F2D1052070BD7CB505460C4608460EF06B
:1026400029F908B110207CBD2846FEF7F5FF20B11E
:102650000078222804D208207CBD43F202007CBD11
:102660004C4890F82400400701D511207CBD21780A
:10267000C80802D16078C20801D007207CBD890853
:1026800001D1800801D006207CBDADF80050207833
:102690008DF8020060788DF803000220ADF8040088
:1026A000684609F0DCFA05F0B5F97CBD10B505F017
:1026B00051F9040000D1FFDF6078401C607010BD4C
:1026C0001CB5ADF800008DF802308DF803108DF8C0
:1026D0000420684609F0A9FC05F09CF91CBD0278AD
:1026E000520804D0012A02D043F202207047FEF7BC
:1026F00044BF70B50C0006460DD0FEF79DFF0500E7
:1027000000D1FFDFA680288920812889608168891F
:10271000A081A889E08170BD10B500231A4603E0AE
:10272000845C2343521CD2B28A42F9D30BB10020FD
:1027300010BD012010BD00B530B1012803D0022822
:1027400001D0FFDF002000BDFF2000BD00220A8075
:1027500092B222F060020A800078062817D2DFE8E1
:1027600000F0160306090C1142F0110007E042F0D8
:102770001D0009E042F0150006E042F0100040F0B4
:10278000020001E042F0100008800020704707209E
:102790007047000090010020FE4800210160416068
:1027A000018170472DE9F743044692B09146406895
:1027B0000EF0B4F840B160680EF0B9F820B9607856
:1027C00000F00300022801D0012000E00020F14EBB
:1027D000307248460EF05EF818B1102015B0BDE812
:1027E000F08349460120FEF712FE0028F6D10125AC
:1027F0008DF842504FF4C050ADF84000002210A9AF
:10280000284603F06FFF0028E8D18DF842504FF4BE
:1028100028504FF00008ADF8400047461C2168469C
:10282000CDF81C8015F0CCFB9DF81C0008AA20F008
:102830000F00401C20F0F00010308DF81C002078B4
:102840008DF81D0061789DF81E0061F3420040F094
:1028500001008DF81E009DF800000AA940F002005A
:102860008DF800002089ADF83000ADF83270608935
:1028700007AFADF834000B97606810AC0E900A9467
:10288000684603F024FD0028A8D1BDF82000308060
:102890008DF8425042F60120ADF840009DF81E0030
:1028A00008AA20F00600801C20F001008DF81E0010
:1028B0000220ADF83000ADF8340013A80E900AA93C
:1028C000684603F004FD002888D1BDF82000708020
:1028D000311D484600F033F9002887D18DF8425069
:1028E00042F6A620ADF840001C216846CDF81C80B9
:1028F00015F066FB9DF81C00ADF8345020F00F0079
:10290000401C20F0F00010308DF81C009DF81D00D8
:1029100008AA20F0FF008DF81D009DF81E000AA9EE
:1029200020F0060040F00100801C8DF81E009DF88C
:1029300000008DF8445040F002008DF80000CDE911
:102940000A4711A80E90ADF83050684603F0BFFC5E
:10295000002899D1BDF82000F08000203EE73EB568
:1029600004460820ADF8000020460DF093FF08B1A2
:1029700010203EBD21460120FEF749FD0028F8D178
:102980002088ADF804006088ADF80600A088ADF896
:102990000800E088ADF80A007E4801AB6A468088EE
:1029A000002104F099F8BDF800100829E1D00320B7
:1029B0003EBD1FB50446002002900820ADF8080077
:1029C000CDF80CD020460DF065FF10B1102004B0FA
:1029D00010BD704802AA81884FF6FF7004F0BEFA5D
:1029E0000028F4D1BDF80810082901D00320EEE733
:1029F000BDF800102180BDF802106180BDF8041000
:102A0000A180BDF80610E180E1E701B582B00220A7
:102A1000ADF800005F4802AB6A464088002104F030
:102A20005BF8BDF80010022900D003200EBD1CB5D4
:102A3000002100910221ADF8001001900DF050FF2F
:102A400008B110201CBD53486A4641884FF6FF70FC
:102A500004F084FABDF800100229F3D003201CBD55
:102A6000FEB54C4C06461546207A0F46C00705D0E9
:102A700008460DF00FFF18B11020FEBD0F20FEBD5F
:102A8000F82D01D90C20FEBD30460DF003FF18BB18
:102A9000208801A903F064F90028F4D130788DF87A
:102AA0000500208801A903F0F6FF0028EBD1009073
:102AB0009DF800009DF8051040F002008DF8000020
:102AC000090703D040F008008DF80000208869460F
:102AD00003F07EFF0028D6D1ADF8085020883B4691
:102AE00002AA002103F0F8FFBDF80810A942CAD0DD
:102AF0000320FEBD7CB505460020009001900888AB
:102B0000ADF800000C46284601950DF007FF18B9F6
:102B100020460DF0E5FE08B110207CBD15B1BDF8D2
:102B2000000050B11B486A4601884FF6FF7004F060
:102B300015FABDF8001021807CBD0C207CBD30B59D
:102B400093B0044600200D460090142101A815F012
:102B500037FA1C2108A815F033FA9DF80000CDF8CB
:102B600008D020F00F00401C20F0F00010308DF84D
:102B700000009DF8010020F0FF008DF801009DF895
:102B8000200040F002008DF8200001208DF8460062
:102B900002E00000B801002042F60420ADF8440035
:102BA00011A801902088ADF83C006088ADF83E0087
:102BB000A088ADF84000E088ADF842009DF8020022
:102BC00006AA20F00600801C20F001008DF802000B
:102BD0000820ADF80C00ADF810000FA8059001A971
:102BE00008A803F074FB002803D1BDF81800288062
:102BF000002013B030BD00004FF0E0224FF4004140
:102C00000020C2F880111D4908701D49900208601B
:102C1000704770B5194D04462878A04202D00CB117
:102C200000B1FFDF2878A0420DD01649144A2C705D
:102C30000020CCB1134E144B1436151F012C03D0B9
:102C4000022C08D0FFDF70BD0860022008603360EE
:102C50004FF0407005E008600320086033604FF4D7
:102C600000001060286070BD086008604FF0607060
:102C7000106070BD00B5FFDF00BD0000180000202F
:102C800008F5014000F50040380200200CF04DBF6F
:102C90000449002008604FF0E0210220C1F88002C2
:102CA00070470000FC1F004010B50D2000F067F8D1
:102CB000C4B26FF0040000F062F8C0B2844200D0E9
:102CC000FFDF36490120086010BD70B50D2000F00F
:102CD00040F8334C0020C4F800010125C4F8045327
:102CE0000D2000F041F825604FF0E0216014C1F89C
:102CF000000170BD10B50D2000F02BF8284801210F
:102D000041600021C0F80011BDE810400D2000F026
:102D10002BB8234910B5D1F80001012801D0FFDFFD
:102D200010BD1E48001D00680022C0B2C1F800217D
:102D3000BDE810400DF0D6BA10B51948D0F8001112
:102D40000029FBD0FFF7E5FFBDE810400D2000F0A3
:102D50000BB800F01F02012191404009800000F1F2
:102D6000E020C0F88011704700F01F02012191405F
:102D70004009800000F1E020C0F880127047002870
:102D800006DA00F00F0000F1E02090F8140D03E0E7
:102D900000F1E02090F800044009704704D500409D
:102DA00000D00040704770477047704770477047C9
:102DB000704700004FF0E0214FF00070C1F8800133
:102DC000C1F88002334B802283F80024C1F800014F
:102DD000704700B5024604202F4903E001EBC00311
:102DE0001B792BB1401EC0B2F8D2FFDFFF2000BD1F
:102DF00041F8302001EBC00100224A718A710122A2
:102E00000A7100BD244A002102EBC0000171704725
:102E100010B50446042800D3FFDF1F4800EBC404AC
:102E20002079012800D0FFDF6079A179401CC0B271
:102E3000814200D060714FF0E0214FF00070C1F886
:102E4000000210BD70B51348042590F80004124E1E
:102E50004009124C042818D0FFDF16E0217806EB59
:102E6000C1000279012A08D1427983799A4204D0BB
:102E70004279827156F8310080472078401CC0B2F8
:102E80002070042801D3002020706D1EEDB2E5D221
:102E900070BD000019E000E0880400204800002018
:102EA0000F4A12680D498A420CD118470C4A126821
:102EB0000A4B9A4206D101B500F074F8FFF774FF8F
:102EC000BDE801400749096809580847064807490D
:102ED000054A064B7047000000000000BEBAFECA5B
:102EE000A400002004000020900D0020900D002080
:102EF00070B50C46054606F021FB21462846BDE884
:102F0000704007F006BC10B50DF07DFEFFF774FEB3
:102F10000DF038FDBDE810400DF0CABD70B5034698
:102F2000002002466FF02F050EE09C5CA4F13006F5
:102F30000A2E02D34FF0FF3070BD00EB800005EB8E
:102F40004000521C2044D2B28A42EED370BD30B54C
:102F50000A240AE0B0FBF4F304FB13008D183030B0
:102F600005F8010C521E1846D2B2002AF2D130BD2B
:102F700030B500234FF6FF7510E0040A44EA002044
:102F800084B2C85C6040C0F30314604005EA0034BA
:102F90004440E0B25B1C84EA40109BB29342ECD305
:102FA00030BD000070B5154D2878401CC4B268785B
:102FB000844202D0FFF7FBFE2C7070BD2DE9F0417A
:102FC0000E4C4FF0E02600BFFFF7EFFE20BF40BFE2
:102FD00020BF677820786070D6F80052FEF784F939
:102FE000854305D1D6F8040210B92078B842EBD059
:102FF000FFF7DAFE0020BDE8F0810000A00000200D
:103000002CFFFFFFDBE5B15100900100A700FFFF9F
:1030100070000000808D5B0016425791AD5F58BC78
:103020008E702F5A0FAA100DBCD52BFD10B504467B
:103030000DF030FC08B1102010BD2078C0F3021054
:10304000042807D86078072804D3A178102901D86C
:10305000814201D2072010BDE078410706D42179D2
:103060004A0703D4000701D4080701D5062010BD84
:10307000002010BD70B514460D46064604F0AAFEA9
:1030800080B10178182221F00F01891C21F0F00194
:10309000A03100F8081B214614F036FFBDE870404F
:1030A00004F09BBE29463046BDE870401322FEF76F
:1030B000C6BA2DE9F047064608A8894690E83004CC
:1030C0001F4690461421284614F07AFF0021CAF8C2
:1030D0000010B8F1000F03D0B9F1000F03D114E0D4
:1030E0003878C00711D020680DF0FAFBC0BBB8F1EA
:1030F000000F07D120681230286020681430686003
:103100002068A8602168CAF800103878800724D5A4
:1031100060680DF003FC18BBB9F1000F21D0FEF779
:1031200036FF0168C6F868118188A6F86C118079AD
:1031300086F86E0101F03BFAF84FEF60626862B109
:1031400096F8680106F2691140081032FEF74FFA4E
:1031500010223946606814F092FE0020BDE8F08726
:1031600006E0606820B1E8606068C6F86401F4E7D2
:103170001020F3E730B5054608780C4620F00F0024
:10318000401C20F0F001103121700020607095F893
:10319000230030B104280FD0052811D0062814D000
:1031A000FFDF20780121B1EB101F04D295F8200039
:1031B00000F01F00607030BD21F0F000203002E010
:1031C00021F0F00030302070EBE721F0F0004030CB
:1031D000F9E7F0B591B0022715460C4606463A4687
:1031E000ADF80870082103AB07F074FF04900028C5
:1031F00010D004208DF804008DF80170E034099699
:1032000005948DF818500AA968460BF087FB00B1A9
:10321000FFDF012011B0F0BD2DE9F84F0646808A8E
:103220000C4680B28246FEF707FA0546BB4F30785F
:10323000203F4FF005094FF000080F287CD2DFE84F
:1032400000F07BA39D082C5B6A7CBADAFD97489757
:1032500097000121504609F06FFE040000D1FFDF06
:1032600097F85C00C00701D0386E0BE0032104F131
:103270001D000DF018F8D4F81D00A949B0FBF1F2BB
:1032800001FB1200C4F81D0070686067B068A06799
:103290002878252872D0FFDF70E00121504609F020
:1032A0004BFE060000D1FFDF3078810702D5297878
:1032B000252904D040F001003070BDE8F88F0220CD
:1032C0002070307F207106F11D002D36C4E9020602
:1032D000F3E70121504609F02FFE050000D1FFDF82
:1032E0002878C10604D5072020703D356560E4E7E5
:1032F00040F008002870E0E7E87F000700D5FFDF16
:10330000307CB28800F0010301B05046BDE8F04FB8
:10331000082108F014B805B9FFDF716821B1102247
:1033200005F1240014F0ABFD28212846FEF71DF816
:10333000307A85F82000C0E7F8E00121504609F016
:10334000FBFD050000D1FFDF022105F185000CF037
:10335000AAFF0420207005F5B4706060B5F8850000
:1033600020826E4810387C356561C4E90270A4E79C
:103370000121504609F0E0FD00B9FFDF3246294641
:103380005046BDE8F84F75E605B9FFDF28782128DB
:1033900093D93079012803D1E87F40F00800E8771D
:1033A000324629465046FFF765FE2846BDE8F84FED
:1033B0002321FDF7DABF3279A28004F10803082146
:1033C000504607F087FEE06010B184F8009074E783
:1033D00045460121504609F0AFFD040000D1FFDF52
:1033E00004F1620102231022081F09F04AFC057053
:1033F0003179417061E70121504609F09DFD0400DB
:1034000000D1FFDF94F8840000F00300012859D1B7
:10341000E87F10F0010003D194F8A010C9072AD06A
:10342000D4F8602132B394F88330117C63F38701C0
:103430001174AA7FD30963F3410100E072E0D4F86C
:1034400060211174D4F8602160F30001117490B10F
:10345000D4F86001102205F12401883414F00FFD26
:10346000207E40F001002076207820F0010004F852
:10347000880919E0C0B994F88810C90714D0D4F8A5
:103480005C218AB194F88330117C63F38701117455
:10349000AA7FD309D4F85C2163F341011174D4F8F5
:1034A0005C2160F30001117494F88800800709D54D
:1034B00094F87C00D4F86421400804F17D011032B6
:1034C000FEF795F88DF8009094F884006A4600F0B5
:1034D00003008DF8010094F888108DF8021094F81C
:1034E000A0008DF803002946504601F049F82878DD
:1034F000252805D0212807D0FFDF2878222803D9E6
:1035000022212846FDF731FF0121504609F026FD12
:1035100000283FF4DDAEFFDFCFE60000E40100202D
:1035200040420F00716881F80180C6E6FFDFC4E603
:1035300070B5FE4C002584F85C5025660BF0BBF995
:1035400004F11001204604F001FC84F8305070BDF5
:1035500070B50D46FEF770F8040000D1FFDF4FF4A0
:10356000B871284614F02CFD2434012105F1E00047
:103570002C610BF0A1F9002800D0FFDF70BD0A46D6
:10358000014602F1E0000BF0B7B970B5054640689E
:1035900086B00178082906D00B2933D00C292FD00A
:1035A000FFDF06B070BD46883046FEF745F80400E0
:1035B00000D1FFDF20782128F3D028281BD16868AC
:1035C00002210C3000F0A6FFA8B168680821001D98
:1035D00000F0A0FF78B104F12401304608F0CCFCE3
:1035E00004F018FA00B1FFDF06B02046BDE87040D5
:1035F0002921FDF7BABE06B0BDE8704004F0EDBB6E
:1036000001218171686886883046FEF715F804004C
:1036100000D1FFDF20782128C3D06868817909B103
:10362000807808B1FFDFBCE704F0D7FBA07F00067D
:1036300023D5E07FC00705D094F8200000F01F00DC
:10364000102818D05FF0050084F82300207829287E
:1036500015D02428A5D1314604200DF0CFF8222121
:103660002046FDF782FE0121304609F077FC002854
:1036700097D0FFDF95E70620E6E70420E4E7012185
:10368000304609F059FC050000D1FFDF2521204616
:10369000FDF76BFE03208DF80000694605F1E000A0
:1036A0000BF021F90228BED00028BCD0FFDF78E75C
:1036B0002DE9F04788B09A46164688468146FDF7C0
:1036C000BBFF05003AD02878222837D3232835D0ED
:1036D000E87F000732D400270121484609F02CFC7E
:1036E000040005D101210022484609F01CFC0446D3
:1036F000694600F06CFF009800B9FFDF00983CB10C
:10370000E03404612878222804D0242802D005E07F
:10371000076103E025212846FDF727FE00980121D7
:103720004170C0F824908680C0E9028A01A90BF09C
:10373000F5F8022802D0002800D0FFDF08B00DE520
:1037400070B586B00546FDF777FF0078222814D9BA
:103750000121284609F0F0FB04002CD1FFDF2AE00C
:10376000B4F85E0004F1620630440178427829B171
:1037700021462846FFF72DFDB0B912E7ADF8042029
:103780000821284602AB07F0A5FC03900028F4D0DE
:1037900005208DF80000694604F1E0000BF0A3F865
:1037A000022801D000B1FFDF02231022314604F1CC
:1037B0005E0009F09CFAB4F860000028D0D1F0E671
:1037C00010B586B00446FDF737FF0078222811D9DE
:1037D0000121204609F0B0FB040000D1FFDF0620E4
:1037E0008DF80000694604F1E0000BF07CF8002839
:1037F00000D0FFDF06B010BD2DE9F84F0546007878
:103800000C460027010904F1080090463E46BA46DE
:10381000009002297ED0072902D00A2909D142E06E
:1038200068680178082905D00B292CD00C292AD0EA
:10383000FFDF73E114271C26002C6CD04088A08089
:10384000FDF7FAFE5FEA000900D1FFDF99F81700E3
:1038500009F118014008009AFDF7C9FE68688089DF
:10386000208268684168C4F812108068C4F81600A5
:10387000A07E20F0060040F00100A07699F81E001E
:1038800040F020014FE01A270A26002CD5D080886E
:10389000A080FDF7D1FE050000D1FFDF284600998A
:1038A000FFF768FC3AE10CB1A88BA080287A4FF0B2
:1038B000010B0B287ED006DC01287CD0022808D022
:1038C000032804D137E00D2876D00E2875D0FFDF0D
:1038D00024E11E270926002CAFD0A088FDF7ACFEFE
:1038E0005FEA000900D1FFDF287B00F00300012818
:1038F000207A1DD020F001002072297B890861F315
:1039000041002072297BC90861F382002072297B63
:10391000090901E0F7E0AEE061F3C300207299F815
:103920001E0040F0400189F81E10F7E0C40100209D
:1039300040F00100E0E713270D26002CA6D0A08858
:10394000FDF77AFE81460121A08809F0F5FA05000D
:1039500000D1FFDF686F817801F003010129217A2E
:1039600050D021F00101217283789B0863F341015B
:1039700021728378DB0863F38201217283781B094B
:1039800063F3C3012172037863F306112172437854
:1039900063F3C711217284F809A0C178A17202797A
:1039A000E17A62F30001E1720279520862F34101A7
:1039B000E17203E029E067E04EE05FE002799208FF
:1039C00062F38201E1720279D20862F3C301E1720B
:1039D0004279217B62F3000121734279520862F33C
:1039E000410121734279920862F382012173407987
:1039F000C00860F3C301217399F8000023282AD975
:103A0000262139E041F00101ADE71827102694B3D3
:103A1000A088FDF711FE00900121A08809F08CFA22
:103A20005FEA000900D1FFDFE868A06099F80000B4
:103A300040F0040189F8001099F80100800708D5CA
:103A400084F80CB000980078232867D927210098C3
:103A500052E084F80CA061E015270F265CB1A08825
:103A6000FDF7EAFD81460622E8680099FFF76FFA44
:103A700084F80EB086E042E048463DE0162709266D
:103A8000ECB3287B207249E0287B19270E26B4B3BB
:103A9000C4F808A0A4F80CA0012807D0022808D078
:103AA00003280CD004280AD0FFDF15E084F808B002
:103AB00001E002202072607A20F003000BE0697BB5
:103AC000042801F00F0141F080012172F3D1607AE6
:103AD00020F00300401C6072A088FDF7ADFD054694
:103AE000007821281AD0232800D0FFDF0121A088E8
:103AF00009F034FA22212846FDF737FC0EE0FFE7F3
:103B0000A8F800600FE00CB16888A080287A03282C
:103B100022D0042809D005283AD0FFDFA8F8006099
:103B20000CB127806680002005E415270F26002CA5
:103B3000E6D0A088FDF780FD0121A08809F0FCF9FE
:103B4000050000D1FFDFD5F81D0006220099FFF720
:103B5000FEF984F80EA0E1E717270926002CCFD044
:103B6000A088FDF769FD81460121A08809F0E4F9EC
:103B7000050000D1FFDF6878800701D5022000E052
:103B80000120207299F800002328C7D9272173E764
:103B900019270E26002CB3D0A088FDF74DFD5FEA53
:103BA000000900D1FFDFC4F808A0A4F80CA084F835
:103BB00008A0A07A40F00300A07299F81E10C9096D
:103BC00061F38200A07299F81F2099F81E1012EA82
:103BD000D11F05D099F8201001F01F01102925D020
:103BE00020F00800A07299F81F10607A61F3C300FA
:103BF0006072697A01F0030101298FD140F004005D
:103C00006072E87A217B60F300012173AA7A607BFD
:103C100062F300006073EA7A520862F34101217393
:103C2000A97A490861F34100607377E740F0080022
:103C3000D8E710B5FA4C30B10146102204F120004B
:103C400014F01DF9012084F8300010BD10B50446B1
:103C500000F0ADFCF24920461022BDE810402031B2
:103C600014F00DB970B5EE4D06004FF0000413D0FE
:103C70000CF010FE08B110240CE006213046FFF7CE
:103C80004DF9411C05D028665FF0010085F85C0005
:103C900000E00724204670BD0020F7E7007810F010
:103CA0000F0204D0012A05D0022A0CD110E000092D
:103CB00009D10AE00009012807D0022805D003280D
:103CC00003D0042801D007207047087000207047F7
:103CD0000620704705282AD2DFE800F003070F17F7
:103CE0001F00087820F0FF001EE0087820F00F0089
:103CF000401C20F0F000103016E0087820F00F0093
:103D0000401C20F0F00020300EE0087820F00F007A
:103D1000401C20F0F000303006E0087820F00F0062
:103D2000401C20F0F0004030087000207047072051
:103D300070472DE9F043804687B00D464FF00009EB
:103D400008460CF0F4FDA8B94046FDF775FC0600E6
:103D500003D0307822280BD104E043F2020007B0F0
:103D6000BDE8F08335B1B07FC10601D4000703D5AB
:103D70000820F4E71020F2E7F07F000701D50D20BE
:103D8000EDE700270121404609F0D6F8040006D1EE
:103D900001210022404609F0C6F8040005D069461A
:103DA00000F015FC009818B901E00420D7E7FFDF08
:103DB00000980221E0344170C0F8248044610781FA
:103DC00001210171297801F00102017E62F30101F4
:103DD00001762A78520862F3820101762A789208E5
:103DE00062F3C30101762A78D20862F304110176E6
:103DF00024213046FDF7B9FA01A900980AF08EFD9A
:103E0000022801D000B1FFDF4846A8E72DE9FF4FA7
:103E10009046844A0E4697B09A4607CA14AB4FF0B4
:103E2000000983E807001798FDF706FC050006D097
:103E30002878262806D008201BB0BDE8F08F43F272
:103E40000200F9E726B94046FFF7F0F80028F3D161
:103E50000121179809F070F8040000D1FFDF852ECA
:103E600027D007DCEEB1812E1DD0822E1DD0832EEF
:103E700008D11CE0862E1ED0882E1ED0892E1ED082
:103E80008A2E1ED00F2020710F281CD003F0A2FF15
:103E9000D8B101208DF82C00201D0C902079B0B1F4
:103EA00032E10020EFE70120EDE70220EBE70320FD
:103EB000E9E70520E7E70620E5E70820E3E7092032
:103EC000E1E70A20DFE70720B6E71120B4E798F81A
:103ED0000000D4E91D764208A87F002162F3C710D4
:103EE000A87798F800008208E87F62F30000E8777E
:103EF00098F80000C209607862F34100607098F899
:103F000000000209207862F34710207098F8000042
:103F1000C208607862F30000607098F80100607178
:103F200098F8000000F00102B07862F30100B07070
:103F3000AA7FD20962F38200B070EA7F62F3C30005
:103F4000B070627862F30410B0702278C0F3C000E1
:103F5000520932706278C2F34002727098F80220FF
:103F6000F27071713171B978C1F3C00108405FEA34
:103F7000000B2ED050460CF08DFC98BBDAF80C00EC
:103F80000CF088FC70BBDAF81C000CF083FC48BB1A
:103F9000DAF80C00A060DAF81C00E060797860784C
:103FA00001F0010140EA41006070B978C0B2C1F38C
:103FB0000011891E084060700020207705F117006D
:103FC0006061681CA061B07800F0030001280AD08D
:103FD0004AE07978607801F00101FD2242EA41016E
:103FE0000840E1E719E0B87800F0030001283BD170
:103FF000321D711D404600F099FA30793979084038
:104000008DF8480071797A7911408DF828100843AD
:104010002AD050460CF03EFC30B110200CE70000D6
:10402000C40100203C8301000AF1100004F5AE73C6
:1040300004F18C028DE80D00002112AB5A46204697
:10404000FFF737F80028E9D104F5B07204F1A403B2
:10405000CDF800A0CDE9013201210AAB5A46204635
:10406000FFF727F80028D9D16078800722D4B078EC
:10407000B978C0F38000C1F3800108431AD03078CA
:1040800014AA397832F810204B00DA4002F0030904
:10409000B9F1030F01D14FF00209BBF1000F09D0B4
:1040A000012801D0042805D1012901D0042901D11A
:1040B0004FF00409A87F40F08000A877E87F6BF3F9
:1040C0000000E877607881074FF003000CD5A071FD
:1040D000BBF1000F18D100BF8DF84C0013AA294680
:1040E000179800F04DFA0FE00221B9F1020F1AD033
:1040F000B9F1010F19D0B9F1040F22D00020A0713D
:10410000A87F20F08000A87725212846FDF72DF90B
:104110000BA904F1E0000AF0E6FB10B1022800D080
:10412000FFDF002088E6A171D6E7A1710D2104F11F
:10413000200013F045FF207840F00200207004209A
:10414000CAE70120A071DFE72DE9F04387B0904670
:10415000894604460025FDF76FFA070004D0387839
:10416000272804D00820FAE543F20200F7E50121F0
:10417000204608F0E1FE040000D1FFDFA6795FEAE7
:10418000090005D0012821D0B9F1020F26D110E095
:10419000B8F1000F22D1012E05D0022E05D0032E3A
:1041A00005D0FFDF2DE00C252BE0012529E00225BD
:1041B00027E040460CF06EFBB0B9032E0ED1102262
:1041C000414604F11D0013F05AFE1AE0012E02D000
:1041D000022E03D104E0B8F1000F12D00720BEE593
:1041E00040460CF057FB08B11020B8E5102104F14F
:1041F0001D0013F0C3FE06214046FEF78FFEC4F8F3
:104200001D002078252140F0020020703846FDF77F
:10421000ACF82078C10713D020F0010020700220F4
:104220008DF8000004F11D0002908DF804506946DD
:10423000C3300AF058FB022803D010B1FFDF00E0C2
:10424000257700208BE530B587B00D460446FDF795
:10425000F3F960B10121204608F06EFE04000CD095
:1042600028460CF017FB28B1102007B030BD43F2F0
:104270000200FAE72078400701D40820F5E7294634
:1042800004F13D002022054613F0F9FD207840F0AE
:104290001000207001070FD520F0080020700720C3
:1042A0008DF80000694604F1E00001950AF01BFB5F
:1042B000022801D000B1FFDF0020D6E770B50D461F
:1042C0000646FDF7B9F918B10078272817D102E0A2
:1042D00043F2020070BD0121304608F02DFE0400BB
:1042E00000D1FFDFA079022809D16078C00706D08D
:1042F0002A4621463046FEF76CFF10B10FE0082039
:1043000070BDB4F860000E280BD204F162010223E4
:104310001022081F08F0B5FC012101704570002033
:1043200070BD112070BD70B5064614460D46084696
:104330000CF0B0FA18B920460CF0D2FA08B11020EF
:1043400070BDA6F57F40FF380ED03046FDF774F9FA
:1043500038B1417822464B08811C1846FDF747F9D1
:1043600007E043F2020070BD2046FDF772FE002810
:10437000F9D11021E01D0BF096FFE21D294604F152
:10438000170000F034F9002070BD2DE9F04104461B
:104390008AB015460E46002708460CF0C8FA18B930
:1043A00028460CF0C4FA18B110200AB0BDE8F0811C
:1043B0002046FDF741F95FEA000804D098F80000B4
:1043C000272810D102E043F20200EEE70121204647
:1043D00008F0B2FD040000D1FFDF2078400702D5CD
:1043E0006078800701D40820DFE7D4E91D0149780F
:1043F00001B18DB1407800B176B1ADB1EA1D06A82A
:10440000E16800F0F4F8102206A905F1170013F096
:104410000AFD18B1042707E00720C6E71022E91DAE
:1044200004F12D0013F02BFD2EB11022F11D04F12B
:104430001D0013F024FD2078252140F0020020709B
:104440004046FCF792FF2078C10715D020F001000C
:10445000207002208DF8000004F11D000290103041
:1044600003908DF804706946B3300AF03CFA0228D4
:1044700003D010B1FFDF00E02777002095E770B58B
:104480000D4606460BB1072070BDFDF7D5F80400B8
:1044900007D02078222802D3A07F800604D40820E9
:1044A00070BD43F2020070BDADB12946304607F041
:1044B00063FD03F0AFFA297C4A08A17F62F3C711BC
:1044C000A177297CE27F61F30002E277297C8908E9
:1044D00084F8201004E0304607F071FD03F09AFAEA
:1044E000A17F21F02001A17770BD70B50D46FDF7C9
:1044F000A3F8040005D028460CF0F2F920B11020F2
:1045000070BD43F2020070BD29462046FEF732FE20
:10451000002070BD05E000BF10F8012B0AB100209B
:104520007047491E89B2F7D20120704710B5C47890
:104530000B7864F300030B70C478640864F34103E0
:104540000B70C478A40864F382030B70C478E40889
:1045500064F3C3030B700379117863F300011170E6
:1045600003795B0863F34101117003799B0863F3DE
:10457000820111700079C00860F3C301117010BD91
:1045800070B51546064603F025FC040000D1FFDF98
:10459000207820F00F00801C20F0F00020302070E8
:1045A00066802868A060BDE8704003F016BC10B5B6
:1045B000134C94F83000002808D104F12001A1F137
:1045C00010000AF0D2F9012084F8300010BD10B1BB
:1045D00090F8B9202AB10A4890F8350018B10020A7
:1045E00003E0B83001E0064834300860704708B591
:1045F0000023009313460A4608F099FE08BD000008
:10460000C4010020F0B5007B059F1E4614460D46F0
:10461000012800D0FFDF0C2030803A203880002CA9
:1046200008D0287A032806D0287B012800D0FFDF95
:1046300017206081F0BDA889FBE72DE9F04786B01F
:10464000144691F80C900E9A0D46B9F1010F0BD05B
:104650001021007B2E8A8846052807D0062833D0F3
:10466000FFDF06B0BDE8F0870221F2E7E8890C2100
:1046700000EB400001EB4000188033201080002C3C
:10468000EFD0E889608100271AE00096688808F179
:10469000020301AA696900F084FF06EB0800801C90
:1046A00007EB470186B204EB4102BDF8040090819C
:1046B0000DF1060140460E320AF0C0F97F1CBFB270
:1046C0006089B842E1D8CCE734201080E889B9F19C
:1046D000010F11D0122148430E301880002CC0D099
:1046E000E88960814846B9F1010F00D002202073AB
:1046F00000270DF1040A1FE00621ECE70096688808
:1047000008F1020301AA696900F04BFF06EB0800FB
:10471000801C86B2B9F1010F12D007EBC70004EB81
:104720004000BDF80410C18110220AF102011030CE
:1047300013F0A5FB7F1CBFB26089B842DED890E7BA
:1047400007EB470104EB4102BDF80400D0810AF1F8
:104750000201404610320AF071F9EBE72DE9F0470B
:104760000E4688B090F80CC096F80C80378AF58910
:104770000C20109902F10C044FF0000ABCF1030F59
:1047800008D0BCF1040F3ED0BCF1070F7DD0FFDF95
:1047900008B067E705EB850C00EB4C001880312072
:1047A0000880002AF4D0A8F1060000F0FF09558126
:1047B00025E0182101A813F003FC009770884346F8
:1047C00001AA716900F0EDFEBDF804002080BDF87B
:1047D0000600E080BDF808002081A21C0DF10A014E
:1047E00048460AF02BF9B9F1000F00D018B184F84F
:1047F00004A0A4F802A007EB080087B20A346D1EDB
:10480000ADB2D6D2C4E705EB850C00EB4C001880A6
:1048100032200880002ABBD0A8F1050000F0FF0973
:10482000558137E000977088434601AA716900F00E
:10483000B8FE9DF80600BDF80410E1802179420819
:1048400060F3000162F34101820862F38201C20851
:1048500062F3C301020962F30411420962F34511D4
:10486000820962F386112171C0096071BDF80700E9
:10487000208122460DF1090148460AF0DFF818B1FF
:1048800084F802A0A4F800A000E007E007EB08000D
:1048900087B20A346D1EADB2C4D279E7A8F1020026
:1048A00084B205FB08F000F10E0CA3F800C035231C
:1048B0000B80002AA6D055819481009783B270881E
:1048C0000E32716900F06DFE62E72DE9F84F1E4669
:1048D0000A9D0C4681462AB1607A00F58070D0802E
:1048E000E089108199F80C000C274FF000084FF078
:1048F0000E0A0D2873D2DFE800F09E070E1C283048
:104900003846556A73737300214648460095FFF791
:1049100079FEBDE8F88F207B9146082802D0032855
:1049200000D0FFDF378030200AE000BFA9F80A80FE
:10493000EFE7207B9146042800D0FFDF378031204D
:104940002880B9F1000FF1D1E3E7207B91460428DC
:1049500000D0FFDF37803220F2E7207B914602282B
:1049600000D0FFDF37803320EAE7207B174602289C
:1049700000D0FFDF3420A6F800A02880002FC8D088
:10498000A7F80A80C5E7207B1746042800D0FFDF80
:104990003520A6F800A02880002FBAD04046A7F8FE
:1049A0000A8012E0207B1746052802D0062800D096
:1049B000FFDF1020308036202880002FA9D0E0892A
:1049C0007881A7F80E80B9F80E00B881A1E7207BA6
:1049D0009146072800D0FFDF37803720B0E72AE074
:1049E0004FF0120018804FF038001700288090D048
:1049F000E0897881A7F80E80A7F8108099F80C005C
:104A00000A2805D00B2809D00C280DD0FFDF80E73D
:104A1000207B0A2800D0FFDF01200AE0207B0B2842
:104A200000D0FFDF042004E0207B0C2800D0FFDF53
:104A3000052038736DE7FFDF6BE770B50C46054660
:104A4000FCF7FAFD20B10078222804D2082070BDBE
:104A500043F2020070BD0521284608F06DFA20607F
:104A600008B1002070BD032070BD30B448800878C4
:104A700020F00F00C01C20F0F000903001F8080B6F
:104A80001DCA81E81D0030BC03F0A7B92DE9FF471E
:104A900084B00027824602970798904689461230D4
:104AA00004F03CFA401D20F00306079828B907A936
:104AB0005046FFF7C2FF002854D1B9F1000F05D0CE
:104AC0000798017B19BB052504681BE098F80000D6
:104AD000092803D00D2812D0FFDF46E007990325EF
:104AE0004868B0B3497B42887143914239D98AB250
:104AF000B3B2011D08F0B1F80446078002E0079C3C
:104B0000042508340CB1208810B1032D29D02CE0E5
:104B100007980121123004F033FAADF80C00024678
:104B200002AB2946504606F0D5FA070001D1A01C79
:104B3000029007983A461230C8F80400A8F802A07C
:104B400003A94046029B04F028FAD8B10A2817D2DC
:104B500000E006E0DFE800F007091414100B0D1464
:104B60001412132014E6002012E6112010E608208B
:104B70000EE643F203000BE6072009E60D2007E6E8
:104B8000032005E6BDF80C002346CDE900702A4657
:104B90005046079900F015FD57B9032D08D1079825
:104BA000B3B2417B406871438AB2011D08F069F8D5
:104BB000B9F1000FD7D0079981F80C90D3E72DE910
:104BC000FE4F91461A881C468A468046FAB102ABCF
:104BD000494606F07FFA050019D04046A61C2788F2
:104BE00008F0EEFA3246072629463B46009607F0C3
:104BF0001AFF20882346CDE900504A4651464046D8
:104C000000F0DFFC002020800120BDE8FE8F0020A6
:104C1000FBE710B586B01C46AAB104238DF800301E
:104C20001388ADF808305288ADF80A208A788DF8DC
:104C30000E200988ADF80C1000236A462146FFF7C4
:104C400025FF06B010BD1020FBE770B50D4605210D
:104C500008F072F9040000D1FFDF294604F11200C8
:104C6000BDE8704004F075B92DE9F8430D46804663
:104C7000002603F0AFF804462878102878D2DFE841
:104C800000F0773B34533131123131310831313159
:104C900031312879001FC0B2022801D0102810D16C
:104CA00014BBFFDF35E004B9FFDF0521404608F003
:104CB00043F9007B032806D004280BD0072828D00E
:104CC000FFDF072655E02879801FC0B2022820D0D8
:104CD00050B1F6E72879401FC0B2022819D0102839
:104CE00017D0EEE704B9FFDF13E004B9FFDF28793E
:104CF00001280ED1172137E00521404608F01CF9A4
:104D0000070000D1FFDF07F11201404604F0FEF872
:104D10002CB12A4621464046FFF7A7FE29E0132181
:104D20004046FDF743FC24E004B9FFDF052140467F
:104D300008F002F9060000D1FFDF694606F1120013
:104D400004F0EEF8060000D0FFDFA988172901D291
:104D5000172200E00A46BDF80000824202D901464F
:104D600002E005E01729C5D3404600F03AFCD0E741
:104D7000FFDF3046BDE8F883401D20F0030219B183
:104D800002FB01F0001D00E000201044704713B545
:104D9000009848B10024684607F009FF002C02D1B2
:104DA000F74A009911601CBD01240020F4E72DE9A9
:104DB000F0470C4615462421204613F001F905B9A9
:104DC000FFDFA87860732888DFF8B4A3401D20F0C7
:104DD0000301AF788946DAF8000007F006FF060005
:104DE00000D1FFDF4FF000082660A6F8008077B101
:104DF00009FB07F1091D0AD0DAF8000007F0F5FEFB
:104E0000060000D1FFDF6660C6F8008001E0C4F84C
:104E10000480298804F11200BDE8F04704F068B866
:104E20002DE9F047804601F112000D46814604F05D
:104E300075F8401DD24F20F003026E7B144629689E
:104E4000386807F0FDFE3EB104FB06F2121D03D0E8
:104E50006968386807F0F4FE052008F019F8044680
:104E6000052008F01DF8201A012802D1386807F043
:104E7000B1FE49464046BDE8F04704F04EB870B573
:104E80000546052108F058F8040000D1FFDF04F1C1
:104E900012012846BDE8704004F038B82DE9F04F03
:104EA00091B04FF0000BADF834B0ADF804B04788C6
:104EB0000C46054692460521384608F03DF80600A6
:104EC00000D1FFDF24B1A780A4F806B0A4F808B091
:104ED000297809220B20B2EB111F7DD12A7A04F127
:104EE000100138274FF00C084FF001090391102AE8
:104EF00073D2DFE802F072F2F1F07F08D2888D9F62
:104F00003DDBF3EEB6B6307B022800D0FFDFA88988
:104F100008EBC001ADF804103021ADF83410002CBE
:104F200025D06081B5F80E9000271DE004EBC7087E
:104F3000317C88F80E10F189A8F80C10CDF800909B
:104F40006888042304AA296900F02BFBBDF810101F
:104F5000A8F8101009F10400BDF812107F1C1FFA08
:104F600080F9A8F81210BFB26089B842DED80DE10E
:104F7000307B022800D0FFDFE98908EBC100ADF8E3
:104F800004003020ADF83400287B0A90001FC0B226
:104F90000F90002CEBD06181B5F81090002725E030
:104FA000CDF800906888696903AA0A9B00F0F9FAB5
:104FB0000A9804EBC70848441FFA80F908F10C026C
:104FC00004A90F9809F03AFD18B188F80EB0A8F8B6
:104FD0000CB0BDF80C1001E0D4E0CFE0A8F8101040
:104FE000BDF80E107F1CA8F81210BFB26089B8423D
:104FF000D6D8CBE00DA8009001AB2246294630461A
:10500000FFF71BFBC2E0307B082805D0FFDF03E081
:10501000307B082800D0FFDFE8891030ADF80400AD
:105020003620ADF83400002C3FD0A9896181F18988
:10503000A18127E0307B092800D0FFDFA88900F19B
:105040000C01ADF804103721ADF83410002C2CD031
:105050006081E8890090AB89688804F10C022969B5
:1050600056E0E8893921103080B2ADF80400ADF87F
:105070003410002C74D0A9896181287A0E280AD0B6
:1050800002212173E989E181288A0090EB896888EF
:105090006969039A3CE00121F3E70DA8009001AB98
:1050A000224629463046FFF759FB6FE0307B0A283D
:1050B00000D0FFDF1220ADF80400ADF834704CB31F
:1050C000A9896181A4F810B0A4F80EB084F80C90FE
:1050D0005CE020E002E031E039E042E0307B0B2888
:1050E00000D0FFDF288AADF834701230ADF804002C
:1050F00084B104212173A9896181E989E181298A27
:105100002182688A00902B8A688804F112026969FA
:1051100000F047FA3AE0307B0C2800D0FFDF122085
:10512000ADF80400ADF834703CB305212173A4F848
:105130000AB0A4F80EB0A4F810B027E00DA80090B3
:1051400001AB224629463046FFF75CFA1EE00DA867
:10515000009001AB224629463046FFF7B6FB15E02A
:1051600034E03B21ADF80400ADF8341074B3A4F87A
:105170000690A4F808B084F80AB007E0FFDF05E065
:1051800010000020297A012917D0FFDFBDF80400A4
:10519000AAF800006CB1BDF834002080BDF804000E
:1051A0006080BDF83400392803D03C2801D086F84F
:1051B0000CB011B00020BDE8F08F3C21ADF8040028
:1051C000ADF8341014B1697AA172DFE7AAF80000D3
:1051D000EFE72DE9F84356880F468046154605212E
:1051E000304607F0A9FE040000D1FFDF123400941E
:1051F0003B46414630466A6804F003F8BAE570B5AC
:105200000D46052107F098FE040000D1FFDF294676
:1052100004F11200BDE8704003F08DBE70B50D467C
:10522000052107F089FE040000D1FFDF294604F1C3
:105230001200BDE8704003F0ABBE70B50546052115
:1052400007F07AFE040000D1FFDF04F108032146D5
:105250002846BDE870400422B1E470B5054605213A
:1052600007F06AFE040000D1FFDF214628462368CC
:10527000BDE870400522A2E470B50646052107F09E
:105280005BFE040000D1FFDF04F1120003F046FED4
:10529000401D20F0030511E0011D00880322431882
:1052A00021463046FFF78BFC00280BD0607BABB269
:1052B000684382B26068011D07F019FD606841888B
:1052C0000029E9D170BD70B50E46054602F082FD99
:1052D000040000D1FFDF0120207266726580207813
:1052E00020F00F00C01C20F0F00030302070BDE82E
:1052F000704002F072BD2DE9F0438BB00D461446AC
:10530000814606A9FFF799FB002814D14FF6FF76D6
:1053100001274FF420588CB103208DF80000102095
:10532000ADF8100007A8059007AA204604A909F0C7
:10533000A4FB78B107200BB0BDE8F0830820ADF8DE
:1053400008508DF80E708DF80000ADF80A60ADF8C9
:105350000C800CE00698A17801742188C1818DF839
:105360000E70ADF80850ADF80C80ADF80A606A46D2
:1053700002214846069BFFF789FBDCE708B50122BE
:105380008DF8022042F60202ADF800200A460323FF
:105390006946FFF73EFC08BD08B501228DF80220E2
:1053A00042F60302ADF800200A4604236946FFF7DF
:1053B00030FC08BD00B587B079B102228DF800201D
:1053C0000A88ADF808204988ADF80A1000236A461B
:1053D0000521FFF75BFB07B000BD1020FBE709B11B
:1053E000072316E40720704770B588B00D461446B1
:1053F000064606A9FFF721FB00280ED17CB1062046
:10540000ADF808508DF80000ADF80A40069B6A46DA
:105410000821DC813046FFF739FB08B070BD05205C
:105420008DF80000ADF80850F0E700B587B059B12D
:1054300007238DF80030ADF80820039100236A4659
:105440000921FFF723FBC6E71020C4E770B588B039
:105450000C460646002506A9FFF7EFFA0028DCD126
:1054600006980121123003F08BFD9CB121780629AA
:1054700021D2DFE801F0200505160318801E80B256
:10548000C01EE28880B20AB1A3681BB1824203D970
:105490000C20C2E71020C0E7042904D0A08850B92E
:1054A00001E00620B9E7012913D0022905D004291B
:1054B0001CD005292AD00720AFE709208DF800006D
:1054C0006088ADF80800E088ADF80A00A068039095
:1054D00023E00A208DF800006088ADF80800E0881D
:1054E000ADF80A00A0680A25039016E00B208DF89D
:1054F00000006088ADF80800A088ADF80A00E088D8
:10550000ADF80C00A0680B25049006E00C208DF887
:10551000000060788DF808000C256A462946304660
:10552000069BFFF7B3FA78E700B587B00D228DF838
:105530000020ADF8081000236A461946FFF7A6FAC6
:1055400049E700B587B071B102228DF800200A88C2
:10555000ADF808204988ADF80A1000236A460621F4
:10556000FFF794FA37E7102035E770B586B00646A6
:1055700001200D46ADF808108DF80000014600230B
:105580006A463046FFF782FA040008D129463046C1
:1055900001F0BCFA0021304601F0D6FA204606B0F0
:1055A00070BDF8B51C4615460E46069F07F0F6FD81
:1055B0002346FF1DBCB231462A46009407F0FFF98E
:1055C000F8BD30B41146DDE902423CB1032903D0F5
:1055D000002330BC05F0B3BE0123FAE71A8030BCCB
:1055E000704770B50C460546FFF72FFB214628464D
:1055F00001F09BFA2846BDE87040012101F0A4BAF1
:1056000018B18178012938D101E010207047018854
:1056100042F60112881A914231D018DC42F601029A
:10562000A1EB020091422AD00CDC41B3B1F5C05F7E
:1056300025D06FF4C050081821D0A0F57060FF3855
:105640001BD11CE001281AD002280AD117E0B0F5BE
:10565000807F14D008DC012811D002280FD0032845
:105660000DD0FF2809D10AE0B0F5817F07D0A0F561
:105670008070033803D0012801D0002070470F202C
:1056800070470A281ED007DC18D2DFE800F0191B8B
:105690001F1F171F231D1F21102815D008DC0B28E2
:1056A00012D00C2810D00D2816D00F2806D10DE0EE
:1056B00011280BD084280BD087280FD003207047E7
:1056C0000020704705207047072070470F20704763
:1056D00004207047062070470C20704743F20200F8
:1056E000704738B50C46050041D06946FEF7D6FA3A
:1056F000002819D19DF80010607861F302006070F5
:105700006946681CFEF7CAFA00280DD19DF8001002
:10571000607861F3C5006070A978C1F34101012987
:1057200003D0022905D0072038BD217821F02001BF
:1057300002E0217841F020012170410704D0A978CE
:10574000C90861F386106070607810F0380F07D0D8
:10575000A978090961F3C710607010F0380F02D101
:105760006078400603D5207840F04000207000208B
:1057700038BD70B504460020088015466068FFF704
:10578000B0FF002816D12089A189884211D860680D
:105790008078C0070AD0B1F5007F0AD840F2012016
:1057A000B1FBF0F200FB1210288007E0B1F5FF7F9B
:1057B00001D90C2070BD01F201212980002070BDAB
:1057C00010B50478137864F3000313700478640848
:1057D00064F3410313700478A40864F38203137024
:1057E0000478E40864F3C30313700478240964F3B1
:1057F000041313700478640964F34513137000787C
:10580000800960F38613137031B10878C10701D1A4
:10581000800701D5012000E0002060F3C71313705A
:1058200010BD4278530702D002F0070306E012F0E1
:10583000380F02D0C2F3C20300E001234A7863F3B9
:1058400002024A70407810F0380F02D0C0F3C20054
:1058500005E0430702D000F0070000E0012060F3FC
:10586000C5024A7070472DE9F04F95B00D00824691
:1058700012D01221284612F081FB4FF6FF7B05AAB9
:105880000121584605F021FA0024264637464FF4F8
:1058900020586FF4205972E0102015B0BDE8F08F49
:1058A0009DF81E0001280AD1BDF81C1041450BD0FF
:1058B00011EB09000AD001280CD002280CD0042CCE
:1058C0000ED0052C0FD10DE0012400E00224BDF81C
:1058D0001A6008E0032406E00424BDF81A7002E010
:1058E000052400E00624BDF81A10514547D12C7458
:1058F000BEB34FF0000810AA4FF0070ACDE90282AC
:10590000CDE900A80DF13C091023CDF810904246D6
:105910003146584605F08CFA08BBBDF83C002A46D3
:10592000C0B210A909F08AF8C8B9AE81CFB1CDE9EB
:1059300000A80DF1080C0AAE40468CE84102132382
:1059400000223946584605F073FA40B9BDF83C00CC
:10595000F11CC01EC0B22A1D09F070F810B103205E
:105960009BE70AE0BDF82900E881062C05D19DF8E7
:105970001E00A872BDF81C00288100208DE705A834
:1059800005F0AFF900288BD0FFF77BFE85E72DE906
:10599000F0471C46DDE90978DDF8209015460E0039
:1059A000824600D1FFDF0CB1208818B1D5B111209B
:1059B000BDE8F087022D01D0012100E0002106F1B1
:1059C000140004F071F8A8F8000002463B4629468E
:1059D000504605F07FFBC9F8000008B9A41C3C60E4
:1059E0000020E5E71320E3E7F0B41446DDE90452B4
:1059F0008DB1002314B1022C09D101E0012306E08E
:105A00000D7CEE0703D025F0010501230D7421461E
:105A1000F0BC05F094BC1A80F0BC70472DE9FE4F35
:105A200091461A881C468A468046FAB102AB49461E
:105A300005F050FB050019D04046A61C278807F04A
:105A4000BFFB3246072629463B46009606F0EBFF91
:105A500020882346CDE900504A4651464046FFF78C
:105A6000C3FF002020800120BDE8FE8F0020FBE75F
:105A70002DE9F04786B09146DDE90E460F46824695
:105A800003AA05A904A8109D8DE807009846324690
:105A900021465046FFF77BFF049909B1012200E03F
:105AA00000222A70002818D1F94A03AB1060059A29
:105AB000009104F11400CDE901204A4639465046D0
:105AC00004F0A9FBA8B1092811D2DFE800F005080D
:105AD0000510100A0C0C0E00002006B068E711201B
:105AE000FBE70720F9E70820F7E70D20F5E703209B
:105AF000F3E7BDF80C100498CDE9000143463246A7
:105B000021465046FFF770FFE6E72DE9F04389B0E4
:105B10000D46DDE9108781461C461646142103A870
:105B200012F04EFA012002218DF810108DF80C00B1
:105B30008DF81170ADF8146064B1A278D20709D065
:105B40008DF81600E088ADF81A00A088ADF81800AE
:105B5000A068079008A80095CDE90110424603A966
:105B600048466B68FFF784FF09B0BDE8F083F0B5E5
:105B70008BB000240646069407940727089405A8CE
:105B80000994019400970294CDE903400D46102337
:105B90002246304605F04CF978B90AA806A90194C6
:105BA00000970294CDE90310BDF814300022294675
:105BB000304604F013FF002801D0FFF762FD0BB060
:105BC000F0BD04F0B3BD2DE9FC410C468046002633
:105BD00002F000F9054620780D287DD2DFE800F0BC
:105BE000BC0713B325BD49496383AF959B00A84803
:105BF000006820B1417841F010014170ADE04046AD
:105C000002F018F9A9E00421404607F095F90700D1
:105C100000D1FFDF07F11401404603F0D9FEA5BB18
:105C200013214046FCF7C2FC97E00421404607F0F0
:105C300083F9070000D1FFDFE088ADF80000002005
:105C4000B8819DF80000010704D5C00602D5A088E0
:105C5000B88105E09DF8010040067ED5A088F88156
:105C600005B9FFDF22462946404601F063FC0226C3
:105C700073E0E188ADF800109DF8011009060FD51A
:105C8000072803D006280AD00AE024E00421404671
:105C900007F052F9060000D1FFDFA088F08102264C
:105CA000CDB9FFDF17E00421404607F045F90700B2
:105CB00000D1FFDF07F1140004F06FFD90F0010F39
:105CC00002D1E079000648D5387C022640F0020077
:105CD000387405B9FFDF00E03EE022462946404621
:105CE00001F028FC39E00421404607F025F9017C49
:105CF000002D01F00206C1F340016171017C21F029
:105D000002010174E7D1FFDFE5E7022601214046E9
:105D100002F0C2F821E00421404607F00DF90546E3
:105D2000606800902089ADF8040001226946404671
:105D300002F0D3F8287C20F0020028740DE0002D3A
:105D4000C9D1FFDFC7E7022600214046FFF766FA08
:105D5000002DC0D1FFDFBEE7FFDF3046BDE8FC818C
:105D60003EB50C0009D001466B4601AA002005F0A3
:105D7000E1F820B1FFF785FC3EBD10203EBD0020BC
:105D80002080A0709DF8050002A900F00700FDF733
:105D9000A1FF50B99DF8080020709DF8050002A9E8
:105DA000C0F3C200FDF796FF08B103203EBD9DF889
:105DB000080060709DF80500C109A07861F3041027
:105DC000A0709DF80510890961F3C300A0709DF8CB
:105DD0000410890601D5022100E0012161F342008F
:105DE0009DF8001061F30000A07000203EBD70B56A
:105DF000144606460D4651EA040005D075B1084622
:105E00000AF08CFD78B901E0072070BD29463046C4
:105E100005F0F1F810B1BDE8704032E454B120460D
:105E20000AF07CFD08B1102070BD21463046BDE867
:105E3000704095E7002070BD2DE9FC5F0C46904650
:105E40000546002701780822007A3E46B2EB111F72
:105E50007ED104F10A0100910A31821E4FF0020A3C
:105E600004F1080B0191092A73D2DFE802F0ECDF9C
:105E700005F427277AA9CD006888042107F05CF88B
:105E8000060000D1FFDFB08920B152270726C2E00B
:105E90002802002051271026002C7DD06888A08081
:105EA0000120A071A88900220099FFF7A0FF002817
:105EB00073D1A8892081288AE081D1E0B5F81290B9
:105EC000072824D1E87B000621D5512709F11400C9
:105ED00086B2002CE1D0A88900220099FFF787FF45
:105EE00000285AD16888A08084F806A0A88920815B
:105EF0000120A073288A2082A4F81290A88A00901A
:105F000068884B46A969019A01F0F1FAA8E0502788
:105F100009F1120086B2002C3ED0A8890022594611
:105F2000FFF765FF002838D16888A080A889E08045
:105F3000287A072813D002202073288AE081E87B82
:105F4000C0096073A4F81090A88A0090688801E0E6
:105F500083E080E04B4604F11202A969D4E70120F6
:105F6000EAE7B5F81290512709F1140086B2002C27
:105F700066D06888042106F0DFFF83466888A08029
:105F8000A88900220099FFF732FF00286ED184F81B
:105F900006A0A889208101E052E067E00420A073F8
:105FA000288A2082A4F81290A88A009068884B461C
:105FB000A969019A01F09BFAA989ABF80E104FE08C
:105FC0006888FBF739FB07466888042106F0B4FFB0
:105FD000064607B9FFDF06B9FFDF687BC00702D0BE
:105FE0005127142601E0502712264CB36888A08060
:105FF000502F06D084F806A0287B594601F087FA76
:106000002EE0287BA11DF9E7FE49A8894989814234
:1060100005D1542706269CB16888A08020E053272C
:106020000BE06888A080A889E08019E068880421D6
:1060300006F082FF00B9FFDF55270826002CF0D1BB
:10604000A8F8006011E056270726002CF8D06888D1
:10605000A080002013E0FFDF02E0012808D0FFDF6E
:10606000A8F800600CB1278066800020BDE8FC9F86
:1060700057270726002CE3D06888A080687AA07193
:10608000EEE7401D20F0030009B14143091D01EB7B
:106090004000704713B5DB4A00201071009848B1EA
:1060A0000024684606F083FD002C02D1D64A0099F0
:1060B00011601CBD01240020F4E770B50D460646B2
:1060C00086B014465C21284611F07AFF04B9FFDF40
:1060D000A0786874A2782188284601F042FA00204E
:1060E000A881E881228805F11401304603F055FCAF
:1060F0006A460121304604F0E8FD19E09DF80300EE
:10610000000715D5BDF806103046FFF730FD9DF8A5
:106110000300BDF8061040F010008DF80300BDF834
:106120000300ADF81400FF233046059A04F02EFF5B
:10613000684604F0D6FD0028E0D006B070BD10B56A
:106140000C4601F1140003F05FFC0146627C20461E
:10615000BDE8104001F03ABA70B50546042106F0DA
:10616000EBFE040000D1FFDF04F114010C462846C9
:1061700003F02EFC21462846BDE8704003F02FBCFA
:1061800070B58AB00C460646FBF756FA050014D0E7
:106190002878222827D30CB1A08890B101208DF84F
:1061A0000C0003208DF8100000208DF8110054B170
:1061B000A088ADF81800206807E043F202000AB09A
:1061C00070BD0920FBE7ADF81800059004213046AA
:1061D00006F0B2FE040000D1FFDF04F1140003F06A
:1061E0002AFC000701D40820E9E701F0F3FD60B1C3
:1061F00008A802210094CDE9011095F8232003A9F5
:1062000030466368FFF734FCD9E71120D7E72DE962
:10621000F04FB2F802A0834689B015468946504631
:10622000FBF70AFA07460421504606F085FE0026D1
:10623000044605964FF002080696ADF81C6007B9B3
:10624000FFDF04B9FFDF4146504605F0F7F950B9CA
:1062500007AA06A905A88DE8070042462146504630
:106260006368FFF794FB674807AB0660DDE905123A
:1062700004F11400CDF80090CDE90320CDE90131FF
:1062800097F82320594650466B6803F01DFC060022
:106290000AD0022E04D0032E14D0042E00D0FFDF2B
:1062A00009B03046BDE8F08FBDF81C000028F7D0DB
:1062B0000599CDE900104246214650466368FFF734
:1062C00093FBEDE7687840F008006870E8E72DE997
:1062D000F04F9BB004464FF000084A48ADF8548098
:1062E000ADF83080ADF85080A0F80880ADF814808B
:1062F000ADF81880ADF82080ADF81C800079164606
:106300000D464746012808D0022806D0032804D0AD
:10631000042802D008201BB0C4E720460AF0BAFACD
:10632000D0BB28460AF0B6FAB0BB60680AF0FFFAA4
:1063300090BB606848B160892189884202D8B1F574
:10634000007F01D90C20E6E780460BAA06A9284663
:10635000FFF70FFA0028DED168688078C0F34100AB
:10636000022808D19DF8190010F0380F03D02869D1
:106370000AF0D4FA80B905A92069FFF7B2F900281C
:10638000C9D1206950B1607880079DF8150000F0F0
:10639000380002D5D0B301E011E0B8BB9DF814007D
:1063A00080060ED59DF8150010F0380F03D06068F8
:1063B0000AF0B4FA18B960680AF0B9FA08B1102006
:1063C000A9E707A96069FFF78CF90028A3D16069E4
:1063D00040B19DF81D0000F0070101293FD110F0E8
:1063E000380F3CD008A9A069FFF77BF9002892D1AB
:1063F0009DF81C00800632D49DF8200080062ED423
:10640000A06904E0280200201400002027E040B129
:106410009DF8210000F00701012920D110F0380F6C
:106420001DD0E06818B10078C8B11C2817D20EAA98
:10643000611C2046FFF7C4F90120B94660F30F271D
:10644000BA4607468DF84E0042F60300ADF84C0000
:106450000DF13B0217A9286808F00FFB08B10720CF
:1064600059E79DF85C0016A9CDF80090C01CCDE955
:10647000019100F0FF0B00230BF20122514613A8FB
:1064800004F066FBF0BBBDF858000990FE482A896D
:1064900029690092CDE901106B89BDF82C2028688C
:1064A000069904F055FB01007ED120784FF0020AD6
:1064B000C10601D480062BD5ADF80C90606950B9A7
:1064C00007A906A8FFF7ADF99DF81D0020F0070009
:1064D000401C8DF81D009DF81C008DF84E7040F09A
:1064E000C8008DF81C0042F60210ADF84C000CA953
:1064F00003AACDF800A0CDE90121002340F2032238
:1065000013A800E01EE0079904F022FB01004BD124
:10651000DD484D4608385B460089ADF839000EA8C5
:10652000CDE90290CDF80490CDF810904FF0070916
:106530000022CDF80090BDF858104FF6FF7004F01F
:106540004DFA10B1FFF79DF8E5E69DF8380000061A
:1065500025D52946012060F30F218DF84E704FF4A8
:106560002450ADF84C00ADF8105062789DF8100042
:10657000002362F300008DF810006278CDF800A0CF
:10658000520862F341008DF8100004AACDE90125FC
:1065900040F2032213A804F0DBFA010004D1606882
:1065A00088B32069A8B900E086E005A906A8FFF72E
:1065B00038F96078800706D49DF8150020F038007F
:1065C0008DF8150005E09DF8140040F040008DF8AE
:1065D00014008DF84E7042F60110ADF84C00208981
:1065E00040F20121B0FBF1F201FB1202606814AB32
:1065F000CDF80080CDE90103002313A8059904F02C
:10660000A7FA010058D12078C00729D0ADF80C5066
:10661000A06950B908A906A8FFF703F99DF8210061
:1066200020F00700401C8DF821009DF820008DF817
:106630004E7040F040008DF8200042F60310ADF897
:106640004C0015A903AACDF800A0CDE90121002333
:1066500040F2032213A8089904F07AFA01002BD122
:10666000E06868B32946012060F30F218DF84E7071
:1066700042F60410ADF84C00E068002302788DF873
:10668000602040788DF86100E06818AA4088ADF875
:106690006200E06800798DF86400E068C088ADF8B9
:1066A0006500CDF80090CDE901254FF4027213A8E2
:1066B00004F04EFA010003D0099800F0B3FF2AE677
:1066C000714803210838017156B100893080BDF846
:1066D00050007080BDF83000B080BDF85400F080EC
:1066E000002018E670B501258AB016460B46012831
:1066F00002D0022816D104E08DF80E504FF420503D
:1067000003E08DF80E5042F60100ADF80C005BB1CD
:106710000024601C60F30F2404AA08A9184608F09E
:10672000ACF918B107204AE5102048E504A99DF806
:1067300020205548CDE90021801E029000232146EB
:1067400003A802F2012204F003FA10B1FEF799FF48
:1067500035E54D4808380EB1C188318005710020FB
:106760002DE5F0B593B0074601268DF83E6041F661
:106770000100ADF83C0012AA0FA93046FFF7B2FFA6
:10678000002848D1404C0025083CE7B31C2102A852
:1067900011F016FC9DF808008DF83E6040F02000D6
:1067A0008DF8080042F60520ADF83C000E959DF8E6
:1067B0003A00119520F00600801C8DF83A009DF8F3
:1067C00038006A4620F0FF008DF838009DF8390047
:1067D00009A920F0FF008DF839000420ADF82C0045
:1067E000ADF830000EA80A9011A80D900FA80990DE
:1067F000ADF82E5002A8FFF76AFD00280BD1BDF8B6
:106800000000608100E008E0BDF80400A081401CA9
:10681000E0812571002013B0F0BD6581A581BDF830
:106820004800F4E72DE9F74F1749A0B000240839D4
:1068300017940A79A146012A04D0022A02D008201E
:1068400023B02FE5CA88824201D00620F8E72198BC
:106850008A46824201D10720F2E701202146ADF8A5
:1068600048004FF6FF7860F30F21ADF84A808DF8AD
:106870006E0042F6020B06918DF87240ADF86CB0D6
:10688000ADF870401CA901E0300200201391ADF872
:10689000508012A804F049FA00252E462F460DAB71
:1068A000072212A9404604F043FA78B10A285DD1C4
:1068B00095B38EB3ADF86450ADF866609DF85E0098
:1068C0008DF8144019AC012864D06BE09DF83A00B3
:1068D0001FB3012859D1BDF8381059451FD118A848
:1068E00009A901940294CDE9031007200090BDF896
:1068F000361010230022404604F09AFAB0BBBDF8CF
:106900006000042801D006284AD1BDF8241021983F
:1069100081423AD10F2093E73AE0012835D1BDF802
:106920003800B0F5205F03D042F6010188422CD137
:10693000BAF80600BDF83610884201D1012700E000
:10694000002705B19EB1219881421ED118A809AA3D
:1069500001940294CDE90320072000900D461023F6
:106960000022404604F064FA00B902E02DE04E46F1
:106970000BE0BDF86000022801D0102810D1C0B291
:1069800017AA09A908F05AF850B9BDF8369086E759
:10699000052055E705A917A8221D08F06EF808B1D3
:1069A00003204DE79DF814000023001DC2B28DF8AE
:1069B000142022980092CDE901401BA8069904F00A
:1069C000C7F810B902228AF80420FEF75AFE37E70A
:1069D00010B50B46401E88B084B205AA00211846A7
:1069E000FEF7EEFE00200DF1080C06AA05A90190A5
:1069F0008CE80700072000900123002221464FF673
:106A0000FF7003F0EBFF0446BDF81800012800D02A
:106A1000FFDF2046FEF735FE08B010BDF0B5FF4F92
:106A2000044687B038790E46032804D0042802D0E3
:106A3000082007B0F0BD04AA03A92046FEF799FE7E
:106A40000500F6D160688078C0F3410002280AD1C1
:106A50009DF80D0010F0380F05D0206909F05EFF99
:106A600008B11020E5E7208905AA21698DE8070013
:106A70006389BDF810202068039904F069F810B10B
:106A8000FEF7FFFDD5E716B1BDF8140030800420F5
:106A900038712846CDE7F8B50C0006460BD0014604
:106AA0004FF6FF7500236A46284604F043FA20B1EA
:106AB000FEF7E7FDF8BD1020F8BD69462046FEF759
:106AC00010FE0028F8D1A078314600F001032846D6
:106AD000009A04F05BFAEBE730B587B01446002269
:106AE0000DF1080C05AD01928CE82C0007220092F4
:106AF0000A46014623884FF6FF7003F06FFFBDF88A
:106B000014102180FEF7BDFD07B030BD70B50D46F5
:106B1000042106F011FA040000D1FFDF294604F138
:106B20001400BDE8704002F07FBF70B50D4604212F
:106B300006F002FA040000D1FFDF294604F1140038
:106B4000BDE8704002F093BF70B50D46042106F019
:106B5000F3F9040000D1FFDF294604F11400BDE879
:106B6000704002F0ABBF70B50546042106F0E4F9B1
:106B7000040000D1FFDF214628462368BDE87040AD
:106B80000122FEF74BBF70B50646042106F0D4F98A
:106B9000040000D1FFDF04F1140002F035FF401DB6
:106BA00020F0030511E0011D008800224318214652
:106BB0003046FEF733FF00280BD0607CABB2684351
:106BC00082B2A068011D06F092F8A06841880029F1
:106BD000E9D170BD70B50546042106F0ADF9040099
:106BE00000D1FFDF214628466368BDE870400222DD
:106BF000FEF714BF70B50E46054601F0EBF8040031
:106C000000D1FFDF0120207266726580207820F0BD
:106C10000F00001D20F0F00040302070BDE87040F3
:106C200001F0DBB810B50446012900D0FFDF204693
:106C3000BDE810400121FEF7F1BA2DE9F04F97B001
:106C40004FF0000A0C008346ADF814A0D04619D0CE
:106C5000E06830B1A068A8B10188ADF81410A0F8C0
:106C600000A05846FAF7E8FC070043F2020961D099
:106C7000387822285CD30421584606F05DF90500D7
:106C800005D103E0102017B0BDE8F08FFFDF05F15C
:106C9000140002F0B9FE401D20F00306A078012880
:106CA00003D0022801D00720EDE7218807AA584623
:106CB00004F00BF830BB07A804F013F810BB07A8CA
:106CC00004F00FF848B99DF82600012805D1BDF859
:106CD0002400A0F52451023902D04FF45050D2E7DD
:106CE000E068B0B1CDE902A00720009005AACDF878
:106CF00004A00492A2882188BDF81430584603F0FD
:106D00006DFE10B1FEF7BDFCBDE7A168BDF8140033
:106D100008809DF81F00C00602D543F20140B2E78B
:106D20000B9838B1A1780078012905D080071AD4D2
:106D30000820A8E74846A6E7C007F9D002208DF84A
:106D40003C00A8684FF00009A0B1697C42887143FB
:106D500091420FD98AB2B3B2011D05F07EFF804681
:106D6000A0F800A006E003208DF83C00D5F80080D4
:106D70004FF001099DF8200010F0380F00D1FFDF1F
:106D80009DF820002649C0F3C200084497F823105C
:106D900010F8010C884201D90F2074E72088ADF863
:106DA000400014A90095CDE90191434607220FA99F
:106DB0005846FEF75DFE002891D19DF8500050B96D
:106DC000A078012807D1687CB3B2704382B2A8686A
:106DD000011D05F056FF002055E770B50646154623
:106DE0000C460846FEF70CFC002805D12A46214631
:106DF0003046BDE8704075E470BD13E570B51E46C1
:106E000014460D000ED06CB1616859B160B10349F0
:106E1000C988814208D0072070BD000028020020E8
:106E2000468301001020F7E72068FEF7E9FB002801
:106E3000F2D1324621462846BDE87040FFF747BAF6
:106E400070B515460C0006D038B1FE49098981425B
:106E500003D00720E0E71020DEE72068FEF7D0FB34
:106E60000028D9D129462046BDE87040D6E570B546
:106E7000064686B00D461446104609F031FDD0BBDB
:106E8000606809F054FDB0BBA6F57F40FF3803D021
:106E90003046FAF7D1FB80B128466946FEF7E3FC9D
:106EA00000280CD19DF810100F2008293CD2DFE8F3
:106EB00001F008060606060A0A0843F2020006B0B8
:106EC000AAE70320FBE79DF80210012908D1BDF8CD
:106ED0000010B1F5C05FF2D06FF4C052D142EED0D5
:106EE0009DF8061001290DD1BDF80410A1F5285117
:106EF000062907D200E028E0DFE801F003030403DD
:106F00000303DCE79DF80A1001290ED1BDF8081033
:106F1000B1F5245FD3D0A1F524510239CFD0012996
:106F2000CDD0022901D1CAE7FFDF606878B900231C
:106F300005AA2946304603F0FDFF10B1FEF7A1FB7C
:106F4000BDE79DF81400800601D41020B7E76188E2
:106F5000224628466368FFF7BFFDB0E72DE9F043FE
:106F6000814687B088461446104609F0B9FC18B12E
:106F7000102007B0BDE8F083002306AA414648462A
:106F800003F0D8FF18B100BFFEF77BFBF1E79DF8D7
:106F90001800C00602D543F20140EAE700250727A2
:106FA00005A8019500970295CDE9035062884FF638
:106FB000FF734146484603F03BFF060013D160686B
:106FC00009F08EFC60B960680195CDE90250009728
:106FD0000495238862884146484603F029FF064607
:106FE000BDF8140020803046CEE739B1954B0A88B1
:106FF0009B899A4202D843F2030070471DE610B500
:1070000086B0904C0423ADF81430638943B1A48951
:107010008C4201D2914205D943F2030006B010BD63
:107020000620FBE7ADF81010002100910191ADF8AA
:10703000003002218DF8021005A9029104A90391E4
:10704000ADF812206946FFF7F8FDE7E72DE9FC47A8
:1070500081460E46084609F01DFC88BB4846FAF7F3
:10706000EBFA5FEA00080AD098F80000222829D33A
:107070000421484605F060FF070005D103E043F214
:107080000200BDE8FC87FFDF07F1140002F0D3FC2B
:1070900005463078012803D0022804D00720F0E705
:1070A000A8070FD502E015F01C0F0BD0B079341DE6
:1070B000C00709D0E08838B1A06809F0EBFB18B12F
:1070C0001020DEE70820DCE732782088002628B38D
:1070D000A0F201130721112B18D20CD2DFE803F024
:1070E0000B090D0B1D0B121D100B0B1D1D1D1D0B78
:1070F0001D00022A11D10846C3E7012AFBD00CE08B
:107100002A0700E0EA06002AF5DA06E0A0F5C072D8
:107110001F2A02D97D3A022AEDD8C6B200F05AFEE3
:1071200050B198F82300CDE90006FA892346394684
:107130004846FEF7EAFCA4E71120A2E72DE9F04F4C
:107140008BB01F4615460C4683460026FAF774FAA4
:1071500028B10078222805D208200BB094E543F22C
:107160000200FAE7B80801D00720F6E7032F00D1A4
:1071700000274FF6FF79CCB1022D73D3204609F0DA
:10718000D6FB30B904EB0508A8F1010009F0CFFBEC
:1071900008B11020E1E7AD1EAAB221464846FBF730
:1071A000E7FE38F8021C88425CD1ADB22549B80729
:1071B00002D58889401C00E001201FFA80F8F807FA
:1071C00001D08F8900E04F4605AA4146584603F09A
:1071D0007CFD4FF0070A4FF00009ACB3204608E0F1
:1071E000408810283ED8361D304486B2AE4239D28F
:1071F000A01902884245F3D354E000BF9DF8170060
:1072000002074FD584B304EB0608361DB8F80230E8
:10721000B6B2102B26D89A19AA4223D8B8F8002063
:1072200091421FD1C00620D5CDE900A90DF1080C6F
:107230000AAAA11948468CE80700B8F800100022F5
:10724000584603E0280200202CE00BE003F0C6FBC8
:1072500010B1FEF716FA80E7B8F80200BDF8281062
:10726000884202D00B2078E704E0B8F802003044EE
:1072700086B206E0C00604D55846FEF778FC002822
:1072800088D19DF81700BDF81A1020F010008DF875
:107290001700BDF81700ADF80000FF235846009A0C
:1072A00003F074FE05A803F01CFD18B9BDF81A1010
:1072B000B942A3D90421584605F03EFE040000D18E
:1072C000FFDFA2895AB1CDE900A94D46002321462E
:1072D0005846FEF71AFC0028BDD1A5813DE70020E5
:1072E0003BE72DE9FF4F8BB01E4617000D464FF0D0
:1072F000000412D0B00802D007200FB0C4E4032E5F
:1073000000D100265DB1084609F008FB28B938888D
:10731000691E084409F002FB08B11020EDE7C74AD6
:10732000B00701D5D18900E00121F0074FF6FF78C1
:1073300002D0D089401E00E0404686B206AA0B98D3
:1073400003F0C3FC4FF000094FF0070B0DF1140AD6
:1073500039E000BF9DF81B00000734D5CDF804903C
:10736000CDF800B0CDF80890CDE9039A434600224D
:107370000B9803F05DFD60BB05B3BDF814103A88AF
:1073800021442819091D8A4230D3BDF81E2020F857
:10739000022BBDF8142020F8022BCDE900B9CDE96D
:1073A0000290CDF810A0BDF81E10BDF814300022D8
:1073B0000B9803F03DFD08B103209EE7BDF81400D3
:1073C0002044001D84B206A803F08BFC20B10A28DB
:1073D00006D0FEF756F990E7BDF81E10B142B9D9B4
:1073E00034B17DB13888A11C884203D20C2084E7D7
:1073F000052082E7224629464046FBF7B9FD0146B3
:1074000028190180A41C3C80002076E710B50446B2
:1074100009F066FA08B1102010BD8848C0892080A4
:10742000002010BDF0B58BB00D460646142103A810
:1074300010F0C6FD01208DF80C008DF81000002022
:107440008DF81100ADF814503046FAF7F5F848B150
:107450000078222812D30421304605F06DFD040087
:1074600005D103E043F202000BB0F0BDFFDF04F1F1
:107470001400074602F0DFFA800601D40820F3E783
:10748000207C022140F00100207409A80094CDE97D
:107490000110072203A930466368FEF7E9FA20B11C
:1074A000217C21F001012174DEE729463046FDF7F9
:1074B000A6FE08A9384602F0ADFA00B1FFDFBDF81C
:1074C0002040172C01D2172000E02046A84201D905
:1074D0002C4602E0172C00D2172421463046FFF735
:1074E00024FB21463046FDF7B0FB0020BCE7F8B591
:1074F0001C4615460E46069F05F050FE2346FF1D0E
:10750000BCB231462A46009405F059FAF8BD70B570
:107510000C4605460E21204610F030FD002020804C
:107520002DB1012D01D0FFDF76E4062000E005201B
:10753000A07171E410B548800878134620F00F0060
:10754000001D20F0F00080300C460870142219460F
:1075500004F1080010F0D8FC00F03FFC374804604C
:1075600010BD2DE9F047DFF8D890491D064621F0FF
:10757000030117460C46D9F8000005F036FB05005C
:1075800000D1FFDF4FF000083560A5F800802146EC
:10759000D9F8000005F029FB050000D1FFDF756078
:1075A000A5F800807FB104FB07F1091D0BD0D9F8C5
:1075B000000005F01AFB040000D1FFDFB460C4F83E
:1075C0000080BDE8F087C6F80880FAE72DE9F041B1
:1075D0001746491D21F00302194D0646016814465D
:1075E000286805F02DFB22467168286805F028FB05
:1075F0003FB104FB07F2121D03D0B168286805F003
:107600001FFB042005F044FC0446042005F048FC60
:10761000201A012804D12868BDE8F04105F0DABA43
:10762000BDE8F08110B50C4603F01BFB00B1FFDF95
:107630002046BDE81040FEF724B8000028020020D4
:107640001400002038B582880A800C46C188121DBB
:1076500090B26A4604F091FDBDF80000032800D303
:107660000320C1B2208800F077FF38BD38B582888A
:107670000A800C46C188121D90B26A4604F07DFD56
:10768000BDF80000022800D30220C1B2208800F01B
:1076900063FF401CC0B238BD2DE9FE4F0C46F849CF
:1076A00081464022D1E90201CDE9010109F103003F
:1076B00020F00301C91C21F0030100916846114626
:1076C00005F075FAEF4E002C02D1EF4A0099916057
:1076D000009901440091357E05F1010504D1E8B21D
:1076E00007F052F900B1FFDF009800EB0510C01C55
:1076F00020F00301009144B9727A00200870B08B29
:1077000080B203F036F900B1FFDF0098F169084458
:1077100000902146684600F0E6FE0098C01C20F06C
:1077200003000090717A04B1002005F02AFB009953
:10773000084400902146684600F019FF00273D46A6
:10774000B24696F801800CE0284600F0AFFE0646EF
:1077500081788088FDF710FB71786D1C00FB017744
:10776000EDB24545F0D10098C01C20F00300009018
:1077700004B100203946FDF70AFB009900270844B0
:1077800000903D469AF801800CE0284600F08EFEFD
:107790000646C1788088FEF774FC71786D1C00FB8A
:1077A0000177EDB24545F0D10098C01C20F00300F0
:1077B000009004B100203946FEF76CFC00990844A3
:1077C00000210090084603F064FD2146684600F061
:1077D00050FE0098C01D20F0070200922CBBAB4960
:1077E0000020FBF7E3FAFAF7D5FBA64801AA00212F
:1077F0000C30FAF7D7FF00B1FFDF9AF81900FEF757
:10780000B0FF00B1FFDF9F484FF4F671383010F041
:10781000D7FB9C480421383080F8E91180F8EA1140
:10782000062180F8EB11032101710099A1EB0900F9
:10783000BDE8FE8F70B5934C06463834207804EBD3
:107840004015E078083590B9A01990F8E8010028B3
:107850000ED0A0780F2800D3FFDF2021284610F09B
:10786000AFFB687866F3020068700120E07028467C
:1078700070BD2DE9F04105460C4600270078052132
:1078800090463E46B1EB101F00D0FFDF287A58B17A
:1078900001280FD0FFDF00BFA8F800600CB12780DF
:1078A00066800020BDE8F0810127092674B1688850
:1078B000A08008E00227142644B16888A0802869C7
:1078C000E060A88A2082287B2072E5E7A8F80060A3
:1078D000E7E710B56C4C6068C11D21F007018142DB
:1078E00000D0FFDF67480121002201704270017261
:1078F00041720273052282821F22C282417364A2F6
:1079000002610A22027641764FF4B061C16161687A
:10791000416010BD30B55C4C1568636808339D420A
:1079200002D20420136030BD564B5D785A6802EBDA
:10793000C502107051700320D08017209080012064
:10794000D07090705878401C587060680830606043
:10795000002030BD70B506464A480024457807E04F
:10796000204600F0A3FD0178B14204D0641CE4B2CB
:10797000AC42F5D1002070BDF7B5064608780C463C
:10798000F8B1FFF7E7FF0546202E06D0212E1AD0CA
:10799000222E18D0232E14D110E000F092FD0DB14C
:1079A000697800E00021401A81B2A0780144FF29E3
:1079B00007D830B1A088022805D202E060881728D5
:1079C00001D20720FEBD65B9207802AA0121FFF788
:1079D000A1FF0028F6D12078FFF7BCFF050000D1F9
:1079E000FFDF202E08D0212E0ED0222E0FD0232EE6
:1079F00007D0FFDF0020FEBDA0786870A088E88077
:107A0000F8E76088A880F5E7A078A870F2E7A0788A
:107A1000E870EFE71A2841D00DDC13283ED2DFE8EA
:107A200000F01B3D203D3D272723252D3D3D293DD1
:107A30003D3D3D3B0F00302802D003DC1E282DD1F8
:107A4000072070473A38092828D2DFE800F01527C8
:107A50000F272727272707000020704743F204003D
:107A6000704743F202007047042070470D207047B2
:107A70000F2070470820704711207047132070476F
:107A80004C830100640200201C0000200000002044
:107A90006E524635780000000620F0E70320EEE73E
:107AA00010B5007800F0010004F062FBBDE8104062
:107AB000B0E70EB5017801F001018DF800104178B2
:107AC00001F001018DF801100178C1F340018DF83A
:107AD00002104178C1F340018DF803100178890844
:107AE0008DF80410417889088DF8051081788DF89B
:107AF0000610C1788DF8071000798DF808006846E7
:107B000003F0B4FFFFF786FF0EBD2DE9F84FDFF855
:107B1000F883FE4C00261FE0012000F06BFD0120E1
:107B2000FFF788FE054640214746D8F8080005F0D3
:107B30005CF8686000B9FFDF686803F084FEA8B1F4
:107B40002846F9F7EAFE284600F05AFD20B94022FF
:107B50006968B86805F074F894F9E9010428DBDA7B
:107B6000022005F095F907460025A6E04022696845
:107B7000D8F8080005F064F8F2E7B8F802104046BB
:107B8000491C89B2A8F80210B94201D300214180F2
:107B90000221B8F8020005F0CFF9002865D0B8F846
:107BA0000200694604F063FAFFF734FF00B1FFDF1B
:107BB0009DF8000078B1B8F8020005F001FB5FEA1B
:107BC000000900D1FFDF484604F08DFD18B1B8F878
:107BD000020003F022FDB8F8020005F0DFFA5FEAC8
:107BE000000900D1FFDF484604F075FDE8BB032122
:107BF000B8F8020005F0A0F95FEA000B48D1FFDFFA
:107C000046E000BFDBF80C0010B10078FF2849D037
:107C1000022000F0EFFC0220FFF70CFE82464846EF
:107C200004F065FECAF8040000B9FFDFDAF80400CA
:107C300004F02DFF002100900170B8F802105046AA
:107C4000AAF8021003F0C2FB484604F022FF00B974
:107C5000FFDF504600F0D4FC18B99AF80100000785
:107C600004D50099CBF80C1012E024E0DBF80C00EE
:107C700038B10178491C11F0FF01017008D1FFDF14
:107C800006E000221146484600F0F1FB00B9FFDF94
:107C900094F9EA01022805DBB8F8020003F071FB51
:107CA0000028AFD194F9E901042804DB484604F028
:107CB00054FF00B101266D1CEDB2BD4204D294F90F
:107CC000EA010228BFF659AF002E7FF423AFBDE8CA
:107CD000F84F032000F08EBC10B58B4CE0600868B4
:107CE0002061AFF2D910FBF774F8607010BD8748BF
:107CF0000021383801708448017085494160BEE632
:107D000070B505464FF080500C46D0F8A410491CC1
:107D100005D1D0F8A810C9430904090C0BD050F8BC
:107D2000A01F01F001012970416821608068A080D6
:107D3000287830B970BD0621204608F0B4FA012039
:107D40002870607940F0C000607170BD70B54FF070
:107D500080540D46D4F88010491C0BD1D4F88410FF
:107D6000491C07D1D4F88810491C03D1D4F88C10D1
:107D7000491C0CD0D4F880100160D4F88410416004
:107D8000D4F888108160D4F88C10C16002E0102112
:107D900008F089FAD4F89000401C0BD1D4F8940074
:107DA000401C07D1D4F89800401C03D1D4F89C00A3
:107DB000401C09D054F8900F286060686860A06883
:107DC000A860E068E86070BD2846BDE870401021FA
:107DD00008F069BA4D4800792CE570B54B4CE07855
:107DE00030B3207804EB4010407A00F007002044C4
:107DF00090F9E801002800DCFFDF2078002504EB83
:107E00004010407A00F00700011991F8E801401E87
:107E100081F8E8012078401CC0B220700F2800D102
:107E20002570A078401CA07008F070F9E57070BD56
:107E3000FFDF70BD3EB50546032105F07DF8044621
:107E4000284605F0ABF9054604B9FFDFE06818B134
:107E50000078FF2800D1FFDF01AA6946284600F01C
:107E600006FB60B9FFDF0AE0002202A9284600F005
:107E7000FEFA00B9FFDF9DF8080000B1FFDF9DF8B2
:107E80000000411E8DF80010EED2E0680199884292
:107E900001D10020E0603EBD70B50546A0F57F40F1
:107EA0000C46FF3800D1FFDF012C01D0FFDF70BD91
:107EB000FFF790FF040000D1FFDF207820F00F00D3
:107EC000401D20F0F00050302070658000202072AE
:107ED00001202073BDE870407FE72DE9F041164690
:107EE0000D460746FFF776FF040000D1FFDF20783C
:107EF00020F00F00401D20F0F0005030207067800F
:107F000001202072286805E01C0000209C0200204F
:107F1000100E00202061A888A0822673BDE8F041E1
:107F20005BE77FB5FFF716FD040000D1FFDF02A974
:107F30002046FFF787FB054603A92046FFF796FB7F
:107F40008DF800508DF80100BDF80800001DADF857
:107F50000200BDF80C00001DADF80400E088ADF88B
:107F60000600684604F0EDF8002800D0FFDF7FBD72
:107F70002DE9F05FFA4E04464FF00008307810B15A
:107F80000820BDE8F09F204608F0AAFC08B11020A8
:107F9000F7E7F44D287808B9FFF79BFC6D7A00F0FD
:107FA00090FAA84208D2281AC1B222460020FFF750
:107FB000B1FC5FEA0008E4D1E9484168C91C21F03E
:107FC000030100274160E7483E46BA46BB463D46AE
:107FD00090F8019007E0284600F068FA40786D1CA0
:107FE0000644EDB27F1C4D45F5D1DE4D0BEB87000D
:107FF000C6EBC60100EB8100697ADFF8649300EB01
:108000008A0000EBC100D9F8041047180121384656
:10801000FFF742FB064621683844884202D8B6F58D
:10802000803F15D320600020FFF794FC04000DD0A2
:1080300004F10B00D9F8041020F003004E468842EA
:1080400000D0FFDF6878401E68707460042098E7F5
:1080500000213846FFF720FB0546AE4200D0FFDF87
:10806000E919C9F8041021604FF6FF71A9F8021050
:10807000012189F80010404683E72DE9F0410446CC
:10808000B74817460D46007808B108200AE40846AC
:1080900008F000FC08B1102004E4B24E307808B9B2
:1080A000FFF717FC601E1E2807D8012C3DD1287849
:1080B000FE283AD830760020E8E7A4F120001F28F7
:1080C00005D8E0B23A462946BDE8F04154E4A4F1AF
:1080D00040004FF000081F281FD8402C02D0412C30
:1080E00023D115E028786C78012801D91320CDE739
:1080F000FF2C08D806F02CFE074607F0C0FF381A00
:10810000401EA04201DA1220C0E72888308124E016
:108110002846BDE8F04100F09BBAA4F1A0001F285A
:1081200003D8A02C03D0A12C06D00720AEE72878D6
:1081300000F00100707610E029680920F829A5D325
:108140008A07A3D1727B02F00302012A04D1F28ACA
:10815000D73293B28B4299D8F161404696E72DE928
:10816000F04781460E46084608F0BAFB48B9484633
:1081700008F0D4FB28B909F1030020F003014945B8
:1081800002D01020BDE8F08776484FF0000A383062
:10819000817869B14178804600EB41140834378812
:1081A00032460021204600F039FA050004D027E0CD
:1081B000A6F800A00520E5E7B9F1000F24D030882B
:1081C000B84201D90C251FE0607800F00705284669
:1081D00000F010FA08EB0507324697F8E801494627
:1081E000401C87F8E801204607F5F47700F016FAFE
:1081F00005463878401E3870032000F0FBF92DB199
:108200000C2D01D0A6F800A02846BBE76078544E9C
:1082100000F00701012923D002290CD0032933D013
:10822000FFDF98F801104046491CC9B288F80110D8
:108230000F2934D035E0616821B1000702D460888D
:10824000FFF7F8FD98F8EA014746012802D1707857
:10825000FAF7DEFD97F9EA010428E2DBFFDFE0E749
:10826000616819B14022B06804F0EAFC98F8E901AD
:108270004746032802D17078FAF7CAFD97F9E90159
:108280000428CEDBFFDFCCE7C00602D56088FFF70D
:10829000D1FD98F9EB010628C3DBFFDFC1E780F8C9
:1082A00001A08178491E8170617801F0070101EB1E
:1082B000080090F8E811491C80F8E811A4E770B5AF
:1082C0000D46044608F0E6FA18B9284608F008FBFF
:1082D00008B1102070BD29462046BDE8704006F068
:1082E0008ABB70B5044615460E46084608F0D2FA19
:1082F00018B9284608F0F4FA08B1102070BD022C15
:1083000003D0102C01D0092070BD2A4631462046EA
:1083100006F094FB0028F7D0052070BD70B5144618
:108320000D46064608F0B6FA38B9284608F0D8FADD
:1083300018B9204608F0F2FA08B1102070BD2246A4
:108340002946304606F099FB0028F7D0072070BD7B
:108350003EB5044608F0C4FA30B110203EBD00001E
:108360001C00002064020020684603F00EFBFFF7AB
:1083700051FB0028F2D19DF806002070BDF80800DE
:108380006080BDF80A00A0800020E7E770B50546D0
:108390000C46084608F0C2FA20B93CB1206808F043
:1083A0009FFA08B1102070BDA08828B12146284648
:1083B000BDE87040FDF7E4BE092070BD70B504460D
:1083C0000D46084608F066FA30B9601E1E2814D81B
:1083D000284608F05FFA08B1102070BD022C01D9C0
:1083E000072070BD04B9FFDFBF4800EB840050F8E0
:1083F000041C2846BDE870400847A4F120001F284F
:1084000005D829462046BDE87040F9F766BDF02C36
:10841000E6D1A86808F03EFA0028DDD1284603F02E
:10842000E2FEBDE87040FFF7F5BA70B504460D46B0
:10843000084608F055FA30B9601E1E280DD82846A7
:1084400008F028FA08B1102070BD012C01D0022CD0
:1084500001D1062070BD072070BDA4F120001F28A7
:10846000F9D829462046BDE87040F9F773BD04F0FD
:1084700001B908B5002918D1FAF745FD9B4800223B
:108480004178C06803F0B5F998481030C0788DF88D
:10849000000010B1012802D004E0012000E000201B
:1084A0008DF80000684603F0C8FA08BD30B5904D5D
:1084B00004466878A04200D8FFDF686800EBC4007B
:1084C00030BD70B58A4800252C46467807E0204626
:1084D000FFF7ECFF4078641C2844C5B2E4B2B44214
:1084E000F5D1284670BD2DE9F041054680480C467F
:1084F000427A9600761CFF2E00D9FFDF2868F6B27C
:10850000C01C20F003022A600CBB794833460621C8
:10851000203008F099F8002408E0062C0FD2DFE89C
:1085200004F0050307070903724804E0724802E0FB
:10853000724800E0724808F0A7F8074600E0FFDF45
:10854000A74200D0FFDF641CE4B2062CE5D3286804
:1085500000EB0610286099E5021D5143452900D221
:1085600045210844C01CB0FBF2F0C0B270472DE9B1
:10857000FC5F06465E484FF000088B46474644467F
:1085800090F8019022E02046FFF790FF050000D10F
:10859000FFDF687869463844C7B22846FFF752F8CB
:1085A000824601A92846FFF761F80346BDF804009A
:1085B0005246001D81B2BDF80000001D80B204F0DB
:1085C00039FD6A78641C00FB0288E4B24C45DAD1BC
:1085D0003068C01C20F003003060BBF1000F00D0F9
:1085E00000204246394604F033FD316808443060CB
:1085F000BDE8FC9F3E49383108710020C8707047C3
:108600003B493831CA782AB10A7801EB4211083166
:10861000814201D001207047002070472DE9F041D0
:1086200006460078154600F00F0400201080601EFA
:108630000F46052800D3FFDF2B482A46103000EBF9
:108640008400394650F8043C3046BDE8F0411847F4
:1086500038B50446407800F00300012803D0022812
:108660000BD0072038BD606858B108F060F9D0B968
:10867000606808F053F920B915E0606808F00AF95D
:1086800088B969462046FBF709FB0028EAD16078E3
:1086900000F00300022808D19DF8000028B16068AE
:1086A00008F03CF908B1102038BD6189F8290DD8CF
:1086B000208988420AD8607800F003020C48012A19
:1086C00006D1D731C26989B28A4201D2092038BDA8
:1086D00094E80E0000F10C0585E80E000AB90021AF
:1086E0008182002038BD00004C8301001C00002066
:1086F000640200200D1E0000DDB20000F12E00001B
:108700007BE7000070B50B2000F0AFF9082000F007
:10871000ACF900210B2000F0BEF90021082000F088
:10872000BAF9E54C01256560A5600020C4F8400158
:10873000C4F84401C4F848010B2000F0A1F9082056
:1087400000F09EF90B2000F085F9256070BD10B592
:108750000B2000F08AF9082000F087F9D6480121A3
:1087600041608160D5490A68002AFCD10021C0F827
:108770004011C0F84411C0F848110B2000F080F9F6
:10878000BDE81040082000F07BB910B50B2000F0C8
:1087900077F9BDE81040082000F072B900B530B19B
:1087A000012806D0022806D0FFDF002000BDC44803
:1087B00000BDC44800BDC348001D00BD70B5C2491E
:1087C0004FF000400860C14DC00BC5F80803C04819
:1087D00000240460C5F840410820C43500F045F984
:1087E000C5F83C41BB48047070BD08B5B24A0021D1
:1087F00028B1012811D002281CD0FFDF08BD4FF49A
:108800008030C2F80803C2F84803AC483C3001602D
:10881000C2F84011BDE80840D0E74FF40030C2F87C
:108820000803C2F84803A54840300160C2F844116B
:10883000A4480CE04FF48020C2F80803C2F84803B3
:108840009E4844300160C2F848119E48001D0068EF
:10885000009008BD70B516460D460446022800D9A2
:10886000FFDF00229448012304F110018B4000EB4C
:108870008401C1F8405526B1C1F84021C0F8043345
:1088800003E0C0F80833C1F84021C0F8443370BD9C
:108890002DE9F0411C46154630B1012834D002289C
:1088A00039D0FFDFBDE8F081891E002221F07F4131
:1088B0001046FFF7CFFF012C24D00020854E834FB8
:1088C000012470703C61824900203C39086002201C
:1088D000091D08607E490420303908607C483D3518
:1088E0000560C7F80042082000F0CAF82004C7F865
:1088F0000403082000F0AEF87349E007091F086080
:108900003470CFE70120D9E7012B02D000220120EB
:1089100005E00122FBE7012B04D000220220BDE884
:10892000F04197E70122F9E764480068704770B5A5
:10893000614CD4F840010025012809D1D4F808037E
:10894000C00305D54FF48030C4F80803C4F8405183
:10895000D4F8440101280CD1D4F80803800308D5C9
:108960004FF40030C4F80803C4F84451012007F064
:1089700048F8D4F8480101280ED1D4F80803400380
:108980000AD54FF48020C4F80803C4F84851BDE864
:108990007040022007F035B870BD10B54D4C2078FE
:1089A00050B1FFF70BFF6078002807D000206070FF
:1089B000BDE8104007F025B80320F9E710BD4FF0DF
:1089C000E0214FF40010C1F800027047152000F0BC
:1089D00057B83E4901200861082000F051B83B49D2
:1089E0004FF47C10C1F808030020024601EB80031D
:1089F000C3F84025C3F84021401CC0B20628F5D377
:108A00007047410A43F609525143C0F3080010FB76
:108A100002F000F5807001EB5020704710B5430B59
:108A200048F2376463431B0C5C020C602A4C03FB66
:108A300004002A4B4CF2F72443435B0D13FB04F470
:108A400004EB402000F58070401210700868184454
:108A5000086010BD00F01F02012191404009800014
:108A600000F1E020C0F80011704700F01F02012162
:108A700091404009800000F1E020C0F8801170476B
:108A800000F01F02012191404009800000F1E02028
:108A9000C0F8801270474907090E002806DA00F076
:108AA0000F0000F1E02080F8141D704700F1E02075
:108AB00080F800147047000000B0004004B500408A
:108AC0004081004044B1004008F501400080004072
:108AD0004085004030000020F7C2FFFF6F0C01000E
:108AE00010B5EFF3108000F0010472B6F048417841
:108AF000491C41704078012801D107F02FFB002C60
:108B000000D162B610BD70B5E94CE07848B90125D6
:108B1000E570FFF7E5FF07F029FB20B1002007F023
:108B2000FCFA002070BD4FF080406571C0F804531E
:108B3000F7E770B5EFF3108000F0010572B6DC4C7A
:108B4000607800B9FFDF6078401E6070607808B917
:108B500007F008FB002D00D162B670BDD44810B5F7
:108B6000C17821B100214171C170FFF7E2FF0020FF
:108B700010BD10B5044607F0F9FACD49C978084090
:108B800000D001202060002010BD2DE9F05FDFF84B
:108B900020934278817889F80620002589F807100B
:108BA000064689F8085000782F4620B101280FD0DA
:108BB00002280FD0FFDF07F0E6FA98B107F0EAFAD3
:108BC000A8420FD1284607F0E9FA0028FAD047E07A
:108BD0000125F0E7FFF784FF07F0C8FA0028FBD073
:108BE0000225E8E701208407E060C4F80471B14978
:108BF0000D600107D1F84412AE4AC1F3423124326C
:108C00001160AC49343108604FF0020BC4F804B372
:108C1000A060DFF8A4A2DAF80010C94341F3001104
:108C200001F10108DAF8001041F01001CAF8001053
:108C300000E020BFD4F804010028FAD0284607F04D
:108C4000ADFA0028FAD0B8F1000F05D1DAF800101B
:108C500021F01001CAF80010C4F808B3C4F8047178
:108C600099F807004C4670B1307860B907F07EFA89
:108C7000064607F0B1FB6FF0004116B1C4E90310DE
:108C800001E0C4E9030115B12771BDE8F09F01209F
:108C90002071BDE8F05F00F0AFB870B5050000D1FD
:108CA000FFDF4FF080424FF0FF30C2F80803002191
:108CB000C2F80011C2F80411C2F80C11C2F8101168
:108CC0007B4C617007F058FA10B10120E0706070C1
:108CD0002846BDE8704058E72DE9F05F4FF080442A
:108CE000D4F8080110B14FF0010801E04FF000087E
:108CF000D4F8000100B101208146D4F8040108B184
:108D0000012700E00027D4F80C0100B101208246C1
:108D1000D4F8100108B1012600E0002648EA090154
:108D200027EA010020EA0A00B04300D0FFDF002557
:108D3000B8F1000F04D0C4F80851012007F0EDF994
:108D40005FEA0900DFF87491DFF864814FF0010BEE
:108D500015D0C4F8005198F8050020B188F80550E6
:108D6000002007F0DAF998F80010404639B1057094
:108D700088F802B00222C9F80020C4F810B00FB180
:108D8000C4F80451BAF1000F0DD0C4F80C5198F892
:108D90000200474600B9FFDFC9F80050BD70C4F8B3
:108DA00014B0FFF7C6FE002E09D0C4F8105198F891
:108DB0000400002803D0BDE8F05F00F041B864E78C
:108DC00070B53B4DE87808B907F0CCF9012084076D
:108DD000A061A87858B100BFD4F80C0120B90020D8
:108DE00007F0DCF90028F7D10020C4F80C014FF09F
:108DF000FF30C4F8080370BD2DE9F0411926B4070F
:108E0000C4F808630125A5610020C4F80001C4F876
:108E10000C01C4F8100107F0A9F9254F28B1274922
:108E2000BD7002200860256100E03D70FFF758FE2C
:108E30002049B87920310860C4F80463BDE8F081A6
:108E40002DE9F0411A4C4FF080470125E079F0B14F
:108E5000012803D0217A401E814218DA07F086F9F2
:108E6000064607F0B9FAE179012902D9217A491CAD
:108E700021720EB1216900E0E168411A022902DA8B
:108E800011F1020F0EDC0EB1206100E0E060FFF78F
:108E900027FE07F06BF938B10849022008603D61F0
:108EA000A57002E07D61C9E7257000202072C5E74A
:108EB000340000201805004010ED00E0340C0040A4
:108EC000F8B51D46DDE906470E000AD004F078F932
:108ED0002346FF1DBCB231462A46009403F0A3FD91
:108EE000F8BDD019224619460EF0C9FF2046F8BD3C
:108EF00070B50D46044610210FF040F8258117206B
:108F00006081A07B40F00A00A07370BD4FF6FF7235
:108F10000A800146022007F071BC70470089704743
:108F2000827BD30701D1920703D480890880002077
:108F3000704705207047827B920700D5818170477A
:108F400001460020098841F6FE52114200D001205E
:108F5000704700B50346807BC00701D0052000BDE7
:108F600059811846FFF7ECFFC00703D0987B40F00B
:108F700004009873987B40F001009873002000BDB6
:108F8000827B520700D509B140897047172070478E
:108F9000827B61F3C302827370472DE9FC5F0E464A
:108FA000044601789646012000FA01F14DF6FF5281
:108FB00001EA020962684FF6FF7B1188594502D128
:108FC0000920BDE8FC9FB9F1000F05D041F6FE5520
:108FD000294201D00120F4E741EA090111801D0076
:108FE00014D04FF0000C85F800C02378052103222F
:108FF00067464FF0020A0E2B74D2DFE803F0F8093F
:10900000252F47626974479092B3D0D70420D8E7E0
:10901000616820898B7B9B077DD5172848D30B89F6
:10902000834245D38989172901D3814240D185F8EC
:1090300000A0A5F801003280616888816068817BAA
:1090400021F002018173C5E0042028702089A5F871
:1090500001006089A5F803003180BBE0208A3188D7
:10906000C01D1FFA80F8414522D3062028702089B0
:10907000A5F801006089A5F80300A089A5F80500FE
:109080000721208ACDE9000163693EE0082B10D05A
:10909000082028702089A5F801006089A5F8030040
:1090A00031806A1D694604F10C0005F0E6FC10B140
:1090B0005FE01020EDE730889DF800100844308014
:1090C00088E00A2028702089A5F80100328045E058
:1090D0000C2028702089A5F801006089A5F80300FC
:1090E00031803BE083E02189338800EB41021FFAA5
:1090F00082F843453DD3B8F1050F3AD30E222A70CA
:109100000BEA4101CDE90010E36860882A46714608
:10911000FFF7D6FE00E04DE0A6F800805AE04020C0
:10912000287060893188C01C1FFA80F8414520D31F
:109130002878714620F03F00123028702089A5F869
:1091400001006089CDE9000260882A46E368FFF7E4
:10915000B7FEA6F80080287840063BD461682089D5
:10916000888037E0A0893288401D1FFA80F8424588
:1091700001D204273EE0162028702089A5F80100BE
:109180006089A5F80300A089CDE9000160882A461E
:1091900071462369FFF794FEA6F80080DEE71820E9
:1091A0002870207A6870A6F800A013E061680A8829
:1091B000920401D405271DE0C9882289914201D07B
:1091C000062717E01E21297030806068018821F48D
:1091D00000510180B9F1000F0CD061887823002282
:1091E000022007F061FA61682078887007E0A6F82D
:1091F00000C003276068018821EA09010180384620
:10920000DFE62DE9FF4F85B01746129C0D001E4684
:109210001CD03078C10703D000F03F00192801D9D5
:10922000012100E000212046FFF7AAFEA8420DD34D
:109230002088A0F57F41FF3908D03078410601D45D
:10924000000605D5082009B0BDE8F08F0720FAE731
:1092500000208DF800008DF8010030786B1E00F0C2
:109260003F0C0121A81E4FF0050A4FF002094FF0F4
:10927000030B9AB2BCF1200F75D2DFE80CF08B1013
:10928000745E7468748C749C74B674BB74C974D541
:1092900074E2747474F274F074EF74EE748B052DD0
:1092A00078D18DF80090A0788DF804007088ADF822
:1092B000060030798DF80100707800F03F000C282E
:1092C00029D00ADCA0F10200092863D2DFE800F00F
:1092D000126215621A621D622000122824D004DC7A
:1092E0000E281BD01028DBD11BE016281FD0182811
:1092F000D6D11FE02078800701E0207840070028C1
:1093000048DAEFE020780007F9E72078C006F6E7B2
:1093100020788006F3E720784006F0E72078000602
:10932000EDE72088C005EAE720884005E7E72088C8
:109330000005E4E72088C004E1E72078800729D50C
:10934000032D27D18DF800B0B6F8010082E0217816
:1093500049071FD5062D1DD381B27078012803D08F
:10936000022817D102E0CAE0022000E01020042207
:109370008DF8002072788DF80420801CB1FBF0F28B
:10938000ADF8062092B242438A4203D10397ADF86A
:109390000890A7E07AE02078000777D598B2820895
:1093A0008DF800A0ADF80420B0EB820F6ED10297CB
:1093B000ADF8061096E02178C90667D5022D65D371
:1093C00081B206208DF80000707802285ED300BFBD
:1093D000B1FBF0F28DF80400ADF8062092B24243E2
:1093E0008A4253D1ADF808907BE0207880064DD5B5
:1093F000072003E0207840067FD508208DF8000084
:10940000A088ADF80400ADF80620ADF8081068E0BB
:109410002078000671D50920ADF804208DF80000F1
:10942000ADF8061002975DE02188C90565D5022DCB
:1094300063D381B20A208DF80000707804285CD3D1
:10944000C6E72088400558D5012D56D10B208DF850
:109450000000A088ADF8040044E021E026E016E01A
:10946000FFE72088000548D5052D46D30C208DF850
:109470000000A088ADF80400B6F803006D1FADF839
:109480000850ADF80600ADF80AA02AE035E02088C3
:10949000C00432D5012D30D10D208DF8000021E01F
:1094A0002088800429D4B6F80100E080A07B000762
:1094B00023D5032D21D3307800F03F001B2818D08E
:1094C0000F208DF80000208840F40050A4F8000020
:1094D000B6F80100ADF80400ED1EADF80650ADF889
:1094E00008B0039769460598FBF7BEFB050008D056
:1094F00016E00E208DF80000EAE7072510E00825A9
:109500000EE0307800F03F001B2809D01D2807D05E
:109510000220059907F072F9208800F4005020809D
:10952000A07B400708D52046FFF70AFDC00703D1FE
:10953000A07B20F00400A073284684E61FB5022813
:1095400006D101208DF8000088B26946FBF78CFB3C
:109550001FBD0000F8B51D46DDE906470E000AD024
:1095600003F02EFE2346FF1DBCB231462A4600946E
:1095700003F059FAF8BDD019224619460EF07FFCC7
:109580002046F8BD2DE9FF4F8DB09B46DDE91B5706
:10959000DDF87CA00C46082B05D0E06901F002F94B
:1095A00050B11020D2E02888092140F01000288016
:1095B0008AF80010022617E0E16901208871E2694B
:1095C0004FF420519180E1698872E06942F601010F
:1095D0000181E069002181732888112140F0200079
:1095E00028808AF80010042638780A900A203870FB
:1095F0004FF0020904F118004D460C9001F095FB64
:10960000B04681E0BBF1100F0ED1022D0CD0A9EBBA
:109610000800801C80B20221CDE9001005AB524643
:109620001E990D98FFF796FFBDF816101A98814203
:1096300003D9F74800790F9004E003D10A9808B1E4
:1096400038702FE04FF00201CDE900190DF116033B
:1096500052461E990D98FFF77DFF1D980088401B0C
:10966000801B83B2C6F1FF00984200D203461E99C8
:109670000BA8D9B15FF00002DDF878C0CDE9032076
:1096800009EB060189B2CDE901C10F980090BDF840
:10969000161000220D9801F0CBFB387070B1C0B2EB
:1096A000832807D0BDF8160020833AE00AEB0901B1
:1096B0008A19E1E7022011B0BDE8F08FBDF82C0057
:1096C000811901F0FF08022D0DD09AF801204245C2
:1096D00006D1BDF82010814207D0B8F1FF0F04D0A9
:1096E0009AF801801FE08AF80180C9480068017873
:1096F000052902D1BDF81610818009EB08001FFA78
:1097000080F905EB080085B2DDE90C1005AB0F9A76
:1097100001F00EFB28B91D980088411B4145BFF69A
:1097200071AF022D13D0BBF1100F0CD1A9EB0800C3
:10973000801C81B20220CDE9000105AB52461E9982
:109740000D98FFF707FF1D98058000203870002056
:10975000B1E72DE9F8439C46089E13460027B26BFB
:109760009AB3491F8CB2F18FA1F57F45FF3D05D01B
:109770005518AD882944891D8DB200E000252919AE
:10978000B6F83C800831414520D82A44BCF8011085
:1097900022F8021BBCF8031022F8021B984622F89C
:1097A000024B914603F0FAFC4FF00C0C41464A463E
:1097B0002346CDF800C003F002F9F587B16B002015
:1097C0002944A41D2144088003E001E0092700E0AA
:1097D00083273846BDE8F88310B50B88848F9C42F8
:1097E0000CD9846BE018048844B1848824F40044C4
:1097F000A41D23440B801060002010BD0A2010BD62
:109800002DE9F0478AB00025904689468246ADF89A
:10981000185007274BE0059806888088000446D436
:10982000A8F8006007A8019500970295CDE90350BC
:109830004FF4007300223146504601F0F9FA04005B
:109840003CD1BDF81800ADF8200005980488818847
:10985000B44216D10A0414D401950295039521F45B
:1098600000410097049541F48043428821465046C8
:1098700001F0B4F804000BD10598818841F400414F
:10988000818005AA08A94846FFF7A6FF0400DCD09E
:109890000097059802950195039504950188BDF8F8
:1098A0001C300022504601F099F80A2C06D105AA76
:1098B00006A94846FFF790FF0400ACD0ADF8185059
:1098C00004E00598818821F40041818005AA06A959
:1098D0004846FFF781FF0028F3D00A2C03D020462A
:1098E0000AB0BDE8F0870020FAE710B50C46896B96
:1098F00086B051B10C218DF80010A18FADF8081081
:10990000A16B01916946FCF75EF900204FF6FF71EB
:10991000A063E187A08706B010BD2DE9F0410D4698
:109920000746896B0020069E1446002911D0012BA2
:109930000FD1324629463846FFF762FF002808D18A
:10994000002C06D0324629463846BDE8F04100F0EA
:1099500038BFBDE8F0812DE9FC411446DDE9087C03
:109960000E46DDE90A15521DBCF800E092B296459C
:1099700002D20720BDE8FC81ACF8002017222A7033
:10998000A5F80160A5F803300522CDE900423B4669
:109990002A46FFF7DFFD0020ECE770B50C461546C0
:1099A000482120460EF00CFB04F1080044F81C0F7F
:1099B00000204FF6FF71E06161842084A5841720A8
:1099C000E08494F82A0040F00A0084F82A0070BD70
:1099D0004FF6FF720A800146032006F00FBF30B534
:1099E00085B00C460546FFF780FFA18E284629B1B9
:1099F00001218DF800106946FCF7E5F80020E062CF
:109A00002063606305B030BDB0F8400070470000CF
:109A10004C00002090F84620920703D4408808802C
:109A20000020F3E70620F1E790F846209207EDD5F5
:109A3000A0F84410EAE70146002009880A0700D58B
:109A4000012011F0F00F01D040F00200CA0501D54D
:109A500040F004008A0501D540F008004A0501D510
:109A600040F010000905D1D540F02000CEE700B548
:109A7000034690F84600C00701D0062000BDA3F8B9
:109A800042101846FFF7D7FF10F03E0F05D093F8AD
:109A9000460040F0040083F8460013F8460F40F0FB
:109AA00001001870002000BD90F84620520700D534
:109AB00011B1B0F84200A9E71720A7E710F8462F28
:109AC00061F3C3020270A1E72DE9FF4F9BB00E00C6
:109AD000DDE92B34DDE92978289D24D02878C107D9
:109AE00003D000F03F00192801D9012100E0002136
:109AF0002046FFF7D9FFB04215D32878410600F081
:109B00003F010CD41E290CD0218811F47F6F0AD19B
:109B10003A8842B1A1F57F42FF3A04D001E0122910
:109B200001D1000602D504201FB0C5E5F9491D98F2
:109B30004FF0000A08718DF818A08DF83CA00FAA0C
:109B40000A60ADF81CA0ADF850A02978994601F044
:109B50003F02701F5B1C04F1180C4FF0060E4FF013
:109B6000040BCDF858C01F2A7ED2DFE802F07D7DBD
:109B7000107D267DAC7DF47DF37DF27DF17DF47D5D
:109B8000F07D7D7DEF7DEE7D7D7D7D7DED0094F82A
:109B90004610B5F80100890701D5032E02D08DF8D3
:109BA00018B022E34FF40061ADF85010608003213B
:109BB0008DF83C10ADF84000D8E2052EEFD1B5F895
:109BC00001002083ADF81C00B5F80310618308B1D3
:109BD000884201D901207FE10020A07220814FF648
:109BE000FF702084169801F0A0F8052089F8000085
:109BF0000220029083460AAB1D9A16991B9801F029
:109C000097F890BB9DF82E00012804D0022089F817
:109C10000100102003E0012089F8010002200590D6
:109C2000002203A90BA804F028FFE8BB9DF80C0054
:109C3000059981423DD13A88801CA2EB0B018142FB
:109C400037DB02990220CDE900010DF12A034A46D3
:109C500041461B98FFF77EFC02980BF1020B801C1B
:109C600080B217AA03A901E0A0E228E002900BA8A5
:109C700004F003FF02999DF80C00CDE9000117AB39
:109C80004A4641461B98FFF765FC9DF80C100AAB4D
:109C90000BEB01001FFA80FB02981D9A084480B26A
:109CA000029016991B9800E003E001F041F80028AB
:109CB000B6D0BBF1020F02D0A7F800B053E20A20E1
:109CC0008DF818004FE200210391072EFFF467AFD3
:109CD000B5F801002083ADF81C00B5F803206283BD
:109CE00000283FF477AF90423FF674AF0120A07296
:109CF000B5F8050020810020A073E06900F052FD56
:109D000078B9E16901208871E2694FF420519180AE
:109D1000E1698872E06942F601010181E069002190
:109D20008173F01F20841E9860620720608416985B
:109D300000F0FBFF072089F800000120049002904A
:109D40000020ADF82A0028E01DE2A3E13AE1EAE0B4
:109D500016E2AEE086E049E00298012814D0E069FE
:109D60008079012803D1BDF82800ADF80E000498D1
:109D700003ABCDE900B04A4641461B98FFF7EAFB2A
:109D80000498001D80B20490BDF82A00ADF80C00C4
:109D9000ADF80E00059880B202900AAB1D9A169994
:109DA0001B9800F0C5FF28B902983988001D05905E
:109DB0008142D1D20298012881D0E06980790128BE
:109DC00005D0BDF82810A1F57F40FF3803D1BDF8BC
:109DD0002800ADF80E00049803ABCDE900B04A4668
:109DE00041461B98FFF7B6FB0298BBE1072E02D055
:109DF000152E7FF4D4AEB5F801102183ADF81C10F8
:109E0000B5F80320628300293FF4E4AE91423FF6A7
:109E1000E1AE0121A1724FF0000BA4F808B084F864
:109E20000EB0052E07D0C0B2691DE26904F006FE2F
:109E300000287FF444AF4FF6FF70208401A906AAE2
:109E400014A8CDF800B081E885032878214600F0F9
:109E50003F031D9A1B98FFF795FB8246208BADF8B8
:109E60001C0080E10120032EC3D14021ADF8501029
:109E7000B5F801102183ADF81C100AAAB8F1000F43
:109E800000D00023CDE9020304921D98CDF8048090
:109E9000009038880022401E83B21B9800F0C8FF53
:109EA0008DF8180090BB0B2089F80000BDF8280041
:109EB00037E04FF0010C052E9BD18020ADF850000B
:109EC000B5F801102183B5F803002084ADF81C100B
:109ED000B0F5007F03D907208DF8180085E140F424
:109EE0007C4222840CA8B8F1000F00D00023CDE9F9
:109EF0000330CDE9018C1D9800903888401E83B254
:109F00001B9800F095FF8DF8180028B18328A8D180
:109F10000220BDE04C0000200D2189F80010BDF8A2
:109F20003000401C1EE1032E04D248067FF537AEF8
:109F3000002017E1B5F80110ADF81C102878400694
:109F400002D58DF83CE002E007208DF83C004FF090
:109F500000080320CDE902081E9BCDF810801D9853
:109F60000193A6F1030B00901FFA8BF342461B9856
:109F700000F034FD8DF818008DF83C8029784906F2
:109F80000DD52088C00506D5208BBDF81C10884251
:109F900001D1C4F8248040468DF81880E2E083287F
:109FA00001D14FF0020A4FF48070ADF85000BDF8B7
:109FB0001C002083A4F820B01E98606203206084F7
:109FC0001321CCE0052EFFF4EAADB5F80110ADF891
:109FD0001C10A28F62B3A2F57F43FE3B28D008225B
:109FE0008DF83C204FF0000B0523CDE9023BDDF856
:109FF00078C0CDF810B01D9A80B2CDF804C040F4FE
:10A0000000430092B5F803201B9800F0E7FC8DF8A0
:10A010003CB04FF400718DF81800ADF85010832853
:10A0200010D0F8B1A18FA1F57F40FE3807D0DCE059
:10A030000B228DF83C204FF6FE72A287D2E7A4F8DF
:10A040003CB0D2E000942B4631461E9A1B98FFF795
:10A0500080FB8DF8180008B183284BD1BDF81C0097
:10A06000208355E700942B4631461E9A1B98FFF734
:10A0700070FB8DF81800E8BBE18FA06B0844811DD0
:10A080008DE882034388828801881B98FFF763FC70
:10A09000824668E095F80180022E70D15FEA0800E0
:10A0A00002D0B8F1010F6AD109208DF83C0007A851
:10A0B00000908DF840804346002221461B98FFF710
:10A0C0002CFC8DF842004FF0000B8DF843B050B9D6
:10A0D000B8F1010F12D0B8F1000F04D1A18FA1F592
:10A0E0007F40FF380AD0A08F40B18DF83CB04FF4CC
:10A0F000806000E037E0ADF850000DE00FA91B983C
:10A10000FBF761FD82468DF83CB04FF48060ADF8FE
:10A110005000BAF1020F06D0FC480068C07928B19F
:10A120008DF8180027E0A4F8188044E0BAF1000F79
:10A1300003D081208DF818003DE007A80090434629
:10A14000012221461B98FFF7E8FB8DF818002146F5
:10A150001B98FFF7CAFB9DF8180020B9192189F850
:10A160000010012038809DF83C0020B10FA91B98F9
:10A17000FBF729FD8246BAF1000F33D01BE018E04F
:10A180008DF818E031E02078000712D5012E10D1AB
:10A190000A208DF83C00E088ADF8400003201B99B0
:10A1A00006F02CFB0820ADF85000C1E648067FF50C
:10A1B000F6AC4FF0040A2088BDF850100843208008
:10A1C000BDF8500080050BD5A18FA1F57F40FE386A
:10A1D00006D11E98E06228982063A6864FF0030AF5
:10A1E0005046A1E49DF8180078B1012089F80000DC
:10A1F000297889F80110BDF81C10A9F802109DF803
:10A20000181089F80410052038802088BDF85010F7
:10A2100088432080E4E72DE9FF4F8846087895B011
:10A22000012181404FF20900249C0140ADF820102B
:10A230002088DDF88890A0F57F424FF0000AFF3AB1
:10A2400006D039B1000705D5012019B0BDE8F08F5F
:10A250000820FAE7239E4FF0000B0EA886F800B006
:10A2600018995D460988ADF83410A8498DF81CB0DE
:10A27000179A0A718DF838B0086098F80000012824
:10A280003BD0022809D003286FD1307820F03F005E
:10A290001D303070B8F80400E08098F800100320FA
:10A2A000022904D1317821F03F011B31317094F83B
:10A2B0004610090759D505ABB9F1000F13D000219D
:10A2C00002AA82E80B000720CDE90009BDF834009E
:10A2D000B8F80410C01E83B20022159800F0A8FD43
:10A2E0000028D1D101E0F11CEAE7B8F80400A6F893
:10A2F0000100BDF81400C01C04E198F805108DF8A9
:10A300001C1098F80400012806D04FF4007A0228A7
:10A310002CD00328B8D16CE12188B8F8080011F4DA
:10A320000061ADF8201020D017281CD3B4F84010DD
:10A33000814218D3B4F84410172901D3814212D1B5
:10A34000317821F03F01C91C3170A6F801000321CA
:10A35000ADF83410A4F8440094F8460020F0020050
:10A3600084F8460065E105257EE177E1208808F163
:10A37000080700F4FE60ADF8200010F0F00F1BD0CD
:10A3800010F0C00F03D03888228B9042EBD199B9DE
:10A39000B878C00710D0B9680720CDE902B1CDF870
:10A3A00004B00090CDF810B0FB88BA8839881598B1
:10A3B00000F014FB0028D6D12398BDF82010401CD3
:10A3C00080294ED006DC10290DD020290BD0402941
:10A3D00087D124E0B1F5807F6ED051457ED0B1F5B4
:10A3E000806F97D1DEE0C80601D5082000E010207C
:10A3F00082460DA907AA0520CDE902218DF8380073
:10A40000ADF83CB0CDE9049608A93888CDE9000143
:10A410005346072221461598FFF7B4F8A8E09DF8A7
:10A420001C2001214FF00A0A002A9BD105ABB9F18B
:10A43000000F00D00020CDE902100720CDE900096F
:10A44000BDF834000493401E83B2218B002215987E
:10A4500000F0EEFC8DF81C000B203070BDF81400ED
:10A4600020E09DF81C2001214FF00C0A002A22D187
:10A4700013ABB9F1000F00D00020CDE90210072086
:10A48000CDE900090493BDF83400228C401E83B24C
:10A49000218B159800F0CCFC8DF81C000D2030703D
:10A4A000BDF84C00401CADF8340005208DF8380094
:10A4B000208BADF83C00BCE03888218B88427FF4CB
:10A4C00052AF9DF81C004FF0120A00281CD1606AA0
:10A4D000A8B1B878C0073FF446AF00E018E0BA680A
:10A4E0000720CDE902B2CDF804B00090CDF810B04D
:10A4F000FB88BA88159800F071FA8DF81C001320BB
:10A5000030700120ADF8340093E000004C000020D2
:10A510003988208B8142D2D19DF81C004FF0160A59
:10A520000028A06B08D0E0B34FF6FF7000215F4613
:10A53000ADF808B0019027E068B1B978C907BED17D
:10A54000E18F0DAB0844821D03968DE80C02438811
:10A550008288018809E0B878C007BCD0BA680DAB22
:10A5600003968DE80C02BB88FA881598FFF7F3F97B
:10A5700005005ED0072D72D076E0019005AA02A9F1
:10A580002046FFF729F90146E28FBDF80800824214
:10A5900001D00029F1D0E08FA16B08440780019819
:10A5A000E08746E09DF81C004FF0180A40B1208B70
:10A5B000C8B13888208321461598FFF796F938E00E
:10A5C00004F118000090237E012221461598FFF720
:10A5D000A4F98DF81C000028EDD11920307001205D
:10A5E000ADF83400E7E7052521461598FFF77DF91A
:10A5F0003AE0208800F40070ADF8200050452DD1DD
:10A60000A08FA0F57F41FE3901D006252CE0D8F8B7
:10A6100008004FF0160A48B1A063B8F80C10A187E3
:10A620004FF6FF71E187A0F800B002E04FF6FF702F
:10A63000A087BDF8200030F47F611AD07823002273
:10A640000320159906F030F898F800002071208852
:10A65000BDF82010084320800EE000E00725208888
:10A66000BDF8201088432080208810F47F6F1CD014
:10A670003AE02188814321809DF8380020B10EA95D
:10A680001598FBF7A0FA05469DF81C000028EBD0B2
:10A6900086F801A001203070208B70809DF81C008E
:10A6A00030710520ADF83400DEE7A18EE1B11898D5
:10A6B0000DAB0088ADF834002398CDE90304CDE953
:10A6C0000139206B0090E36A179A1598FFF7FCF99F
:10A6D000054601208DF838000EA91598FBF773FA8E
:10A6E00000B10546A4F834B094F8460040070AD5F6
:10A6F0002046FFF7A0F910F03E0F04D114F8460FE2
:10A7000020F0040020701898BDF83410018028460D
:10A710009BE500B585B0032806D102208DF8000026
:10A7200088B26946FBF74FFA05B000BD10B5384C4A
:10A730000B782268012B02D0022B2AD111E013786A
:10A740000BB1052B01D10423137023688A889A80EA
:10A750002268CB88D38022680B8913814989518173
:10A760000DE08B8893802268CB88D38022680B8988
:10A7700013814B8953818B89938109691161216808
:10A78000FBF721FA226800210228117003D000286B
:10A7900000D0812010BD832010BD806B002800D028
:10A7A000012070478178012909D10088B0F5205F28
:10A7B00003D042F60101884201D1002070470720F2
:10A7C0007047F0B587B0002415460E460746ADF831
:10A7D000144010E0069801882980811DCDE90241CE
:10A7E00007210194049400918388428801883846A7
:10A7F00000F0F4F830B906AA05A93046FEF7ECFFE0
:10A800000028E7D00A2800D1002007B0F0BD0000E2
:10A810004C00002010B58B7883B102789A4205D1A4
:10A820000B885BB102E08B79091D4BB18B789A42A2
:10A83000F9D1B0F801300C88A342F4D1002010BD4A
:10A84000812010BD072826D012B1012A27D103E0AC
:10A85000497801F0070102E04978C1F3C2010529F6
:10A860001DD2DFE801F00318080C12000AB1032022
:10A8700070470220704704280DD250B10DE0052822
:10A8800009D2801E022808D303E0062803D003283B
:10A8900003D005207047002070470F2070478120AB
:10A8A0007047C0B282060BD4000607D5FE48807AF6
:10A8B0004143C01D01EBD00080B27047084670478D
:10A8C0000020704770B513880B800B781C0625D5C7
:10A8D000F54CA47A844204D843F01000087000209C
:10A8E00070BD956800F0070605EBD0052D78F540A2
:10A8F00065F304130B701378D17803F0030341EA76
:10A90000032140F20123B1FBF3F503FB151192681B
:10A91000E41D00FB012000EBD40070BD906870BD09
:10A9200037B51446BDF8041011809DF804100A06CE
:10A930001ED5C1F30013DC49A568897A814208D885
:10A94000FE2811D1C91DC9085A4228460DF00EFB38
:10A950000AE005EBD00100F00702012508789540D8
:10A96000A843934018430870207820F0100020700E
:10A970003EBD2DE9F0410746C81C0E4620F00300FD
:10A98000B04202D08620BDE8F081C74D0020344699
:10A990002E60AF802881AA72E8801AE0E988491CFD
:10A9A000E980810614D4E17800F0030041EA002038
:10A9B00040F20121B0FBF1F201FB12012068FFF728
:10A9C00070FF2989084480B22881381A3044A06079
:10A9D0000C3420784107E1D40020D4E72DE9FF4F63
:10A9E00089B01646DDE9168A0F46994623F440459C
:10A9F000084600F00DFB04000FD0099802F066FA3B
:10AA00000290207800060AD5A748817A02988142F0
:10AA100005D887200DB0BDE8F08F0120FAE7224667
:10AA200001A90298FFF74EFF834600208DF80C0025
:10AA30004046B8F1070F1AD001222146FFF702FF66
:10AA40000028E7D12078400611D502208DF80C00AF
:10AA5000ADF81070BDF80400ADF81200ADF8146048
:10AA60001898ADF81650CDF81CA0ADF818005FEAA4
:10AA7000094004D500252E46A84601270CE0217880
:10AA8000E07801F0030140EA012040F20121B0FB2F
:10AA9000F1F2804601FB12875FEA494009D5B845CB
:10AAA00007D1A178207901F0030140EA0120B042EA
:10AAB00001D3BE4201D90720ACE7A8191FFA80F9DB
:10AAC000B94501D90D20A5E79DF80C0028B103A9CF
:10AAD0000998FBF776F800289CD1B84507D1A078F3
:10AAE0004FEA192161F30100A07084F804901A98CC
:10AAF00000B10580199850EA0A0027D0199830B1A2
:10AB00000BEB06002A4619990DF0B9F90EE00BEB94
:10AB100006085746189E099802F040FB2B46F61D82
:10AB2000B5B239464246009501F049FF224601A9D7
:10AB30000298FFF7C7FE9DF80400224620F010009F
:10AB40008DF80400DDE90110FFF7EAFE002061E75F
:10AB50002DE9FF4FDFF8509182461746B9F80610ED
:10AB6000D9F8000001EB410100EB810440F2012023
:10AB7000B2FBF0F185B000FB11764D46DDF84C805C
:10AB800031460698FFF78DFE29682A898B46611A9F
:10AB90000C3101441144AB8889B28B4202D8842025
:10ABA00009B038E70699CDB2290603D5A90601D523
:10ABB0000620F5E7B9F806C00CF1010C1FFA8CFC71
:10ABC000A9F806C0149909B1A1F800C0A90602D5D8
:10ABD000C4F8088007E0104480B2A9F80800191AE8
:10ABE00001EB0B00A0602246FE200699FFF798FEBD
:10ABF000E77026712078390A61F30100320AA178E2
:10AC000040F0040062F30101A17020709AF8020084
:10AC10006071BAF80000E08000262673280602D58D
:10AC200099F80A7000E00127A80601D54FF0000846
:10AC30004D4600244FF007090FE0CDE90268019668
:10AC4000CDF800900496E9882046129B089AFFF7F9
:10AC5000C5FE0028A4D1641CE4B2BC42EDD30020A0
:10AC60009EE72DE9F047804600F0D2F9070005D0B5
:10AC7000002644460C4D40F2012919E00120BDE8B0
:10AC8000F087204600F0C4F90278C17802F0030290
:10AC900041EA0222B2FBF9F309FB13210068FFF736
:10ACA00000FE304486B201E0A8040020641CA4B277
:10ACB000E988601E8142E4DCA8F10100E88028896F
:10ACC000801B288100203870D9E710B5144631B1B7
:10ACD000491E218002F0FAF8A070002010BD01206A
:10ACE00010BD10B5D24904460088CA88904201D3ED
:10ACF0000A2010BD096800EB400001EB800250798A
:10AD0000A072D08820819178107901F0030140EA87
:10AD10000120A081A078E11CFFF7D4FD20612088EC
:10AD2000401C2080E080002010BD0121018270477E
:10AD30002DE9FF4F85B04FF6FF788246A3F80080DB
:10AD400048681F460D4680788DF8060048680088E0
:10AD5000ADF8040000208DF80A00088A0C88A04293
:10AD600000D304462C8241E0288A401C2882701DB2
:10AD70006968FFF74FFDB8BB3988414501D1601EB6
:10AD800038806888A04236D3B178307901F0030169
:10AD900040EA012901A9701DFFF73CFD20BB29896C
:10ADA00041452CD0002231460798FFF74BFDD8B91A
:10ADB0002989494518D1E9680391B5F80AC0D6F840
:10ADC00008B05046CDF800C002F0E8F9DDF800C048
:10ADD0005A460CF1070C1FFA8CFC4B460399CDF830
:10ADE00000C001F0B6FD50B1641CA4B2204600F0D2
:10ADF0000FF90600B8D1641E2C820A20D0E67C80B0
:10AE00007079B871F088B8803178F07801F003017A
:10AE100040EA01207881A7F80C90504602F056F8DD
:10AE2000324607F10801FFF74DFD38610020B7E613
:10AE30002DE9FF4F87B081461C469246DDF860B091
:10AE4000DDF85480089800F0E3F805000CD048467F
:10AE500002F03CF82978090608D57549897A8142BB
:10AE600004D887200BB0D6E50120FBE7CAF309061A
:10AE70002A4601A9FFF726FD0746149807281CD08B
:10AE800000222946FFF7DEFC0028EBD12878400697
:10AE900013D501208DF808000898ADF80C00BDF816
:10AEA0000400ADF80E00ADF81060ADF8124002A934
:10AEB0004846FAF786FE0028D4D12978E87801F0D0
:10AEC000030140EA0121AA78287902F0030240EA4E
:10AED0000220564507D0B1F5007F04D9611E81429A
:10AEE00001DD0B20BEE7864201D90720BAE7801BAF
:10AEF00085B2A54200D92546BBF1000F01D0ABF8C1
:10AF00000050179818B1B9192A460CF0B8FFB8F1DB
:10AF1000000F0DD03E4448464446169F02F050F9BB
:10AF20002146FF1DBCB232462B46009401F07BFD4A
:10AF3000002097E72DE9F04107461D4616460846D2
:10AF400000F066F804000BD0384601F0BFFF21780E
:10AF5000090607D53649897A814203D8872012E548
:10AF6000012010E522463146FFF7ACFC65B121789F
:10AF7000E07801F0030140EA0120B0F5007F01D83C
:10AF8000012000E0002028700020FCE42DE9F041C1
:10AF900007461D461646084600F03AF804000BD056
:10AFA000384601F093FF2178090607D52049897AB0
:10AFB000814203D88720E6E40120E4E422463146BA
:10AFC000FFF7AEFCFF2D14D02178E07801F00302EA
:10AFD00040EA022040F20122B0FBF2F302FB130030
:10AFE00015B900F2012080B2E070000A60F301019F
:10AFF00021700020C7E410B50C4600F009F828B114
:10B00000C18821804079A070002010BD012010BDB2
:10B010000749CA88824209D340B1096800EB400061
:10B020006FF00B0202EB800008447047002070476D
:10B03000A804002070B514460B880122A2401342D8
:10B0400007D113430B8001230922011D01F019FED2
:10B05000047070BD2DE9FF4F81B00878DDE90E7BEB
:10B060009A4691460E4640072CD4019802F0A8F863
:10B07000040000D1FFDF07F1040820461FFA88F121
:10B0800001F005FA050000D1FFDF204629466A4697
:10B0900001F04FFC0098A0F80370A0F805A0284626
:10B0A00001F0F5FC017869F306016BF3C71101703B
:10B0B00020461FFA88F101F02DFA00B9FFDF019850
:10B0C00000F048FB06EB0900017E491C017605B043
:10B0D000BDE8F08F2DE9F84F0E469A469146074697
:10B0E000032101F029FF0446808CDFF888850025C4
:10B0F00018B198F80000B0421ED1384602F060F84E
:10B10000070000D1FFDF09F10401384689B201F0E0
:10B11000BEF9050010D0384629466A4601F009FC00
:10B12000009800210A460180817000F07DFB0098A4
:10B13000C01DCAF8000021E098F80000B04216D106
:10B1400004F1220734F8301F012000FA06F911EA51
:10B15000090F00D0FFDF2088012340EA090020808A
:10B160000922391D384601F0A7FD067006E0324677
:10B1700004F1300104F12200FFF75CFF092188F897
:10B1800000102846BDE8F88FFEB514460D46064669
:10B1900002AB0C220621FFF79DFF002826D0029962
:10B1A000687812220A70801C487008224A80A870B1
:10B1B000208888806088C880A0880881E0884881CD
:10B1C00000240C20CDE90004052306222946304640
:10B1D000FFF740FF2146002266F31F41F02310468F
:10B1E00005F062FA6878801C68700120FEBD10B519
:10B1F0000446032101F0A0FE014600F110022046A2
:10B20000BDE81040C0E72DE9FE4381465078164660
:10B21000884640B1FFDF3168C8F804107168C8F88B
:10B220000810BDE8FE83B778022417B1022F13D0AF
:10B23000FFDF251D2A4602AB07214846FFF74AFFDC
:10B240000028E8D002980121022F01703178417066
:10B250004480878002D005E00624EAE7B188C180F7
:10B26000F18801810024CDE90054052307224146DD
:10B270004846FFF7EFFE88F80440D2E710B50446D1
:10B28000032101F059FE0146021D2046BDE8104091
:10B29000B9E7F84A002009211170704770B50C46D3
:10B2A0001546342120460CF08BFE012060700921E8
:10B2B00004F118000CF084FE05B9FFDF297820782E
:10B2C00061F30100207070BD7047002110B560F37C
:10B2D0001F41002005F092FA002010BDFEB5064681
:10B2E0000F0CFCF777FD050007D06F80032138466F
:10B2F00001F022FE040008D106E003B03846BDE8A4
:10B30000F0401321F7F752B9FFDF0EB1FFDFFEBDAA
:10B3100020782A4620F00800207002208DF80000D6
:10B320004FF6FF70ADF80200ADF8040069463846EC
:10B33000F6F796FDFEBD00B5FFDF002000BD2DE94C
:10B34000FC410C461E4617468046032101F0F4FDE1
:10B350000546092C0AD2DFE804F0050505050505B8
:10B3600009090700042303E0062301E0FFDF0023AF
:10B37000CDE90076224629464046FFF76BFEBDE840
:10B38000FC8138B50546A0F57F40FF381CD0284623
:10B3900001F004FF040000D1FFDF204601F0A7FA0E
:10B3A000002810D001466A46204601F0C2FA0098F3
:10B3B0000321B0F80540284601F0BEFD052C03D15D
:10B3C000007908B1002038BD012038BD2DE9F041D9
:10B3D000044686B0408801F0E1FE050000D1FFDFA1
:10B3E00003AA2846616800F034F9039D001F80B26B
:10B3F00035F8032F698882420AD104290BD0052928
:10B4000018D0062904D16088291D6368F8F750F91F
:10B4100006B0BDE8F08116462D1D2246294630466D
:10B42000F9F7D7FE0828F3D1224629463046FAF725
:10B43000EEFEEDE716466088032101F07DFD002158
:10B440008DF80010042EE3D36A79002AE0D02B791E
:10B4500002274FF6FF78012B28D0122B01D0132B97
:10B460000BD00491059169798DF81010638801461D
:10B4700004AA1846FFF7C7FECAE783789342C7D1EC
:10B4800002781307C4D5062EC2D122F0080202703A
:10B49000608860F31F41002005F0B0F98DF800705E
:10B4A000ADF802802889ADF8040017E0062EAFD36E
:10B4B00083789342ACD102781307A9D522F0080211
:10B4C0000270608860F31F41002005F097F98DF845
:10B4D00000702889ADF80200ADF80480608822462B
:10B4E0006946F6F7BDFC93E770B50D4606460321A5
:10B4F00001F022FD040004D02078000704D51120BB
:10B5000070BD43F2020070BD2A4621463046FFF767
:10B510003BFE18B92868206168686061207840F0B7
:10B5200008002070002070BD2DE9F04F0E4691B04C
:10B530008046032101F000FD0446404601F040FE34
:10B5400007460020079008900990ADF830000A9057
:10B5500002900390049004B9FFDF0DF10809FFB9D0
:10B56000FFDF1DE038460BA9002201F083F89DF8AB
:10B570002C0000F07F05092D00D3FFDF6019017E4C
:10B58000491E01769DF82C00000609D52A460CA913
:10B5900007A8FFF74FFD19F80510491C09F8051019
:10B5A000761EF6B2DED204F13000324D04F1220BE9
:10B5B000DFF8C4A004F12607069010E0584606996B
:10B5C00000F049F806462870092800D3FFDF5AF832
:10B5D000261040468847608CC05DB04202D0A08CE7
:10B5E0000028EBD109202870234D4E4624350EE06B
:10B5F0000CA907A800F02FF80446375D55F8240081
:10B6000000B9FFDF55F82420394640469047BDF881
:10B610001E000028ECD111B05AE510B5032101F04D
:10B620008BFC040000D1FFDF092104F118000CF0AD
:10B63000C7FC207840F00400207010BD10B50C4607
:10B64000032101F079FC2044007E002800D0012075
:10B6500010BD01F06EB910B50C4601230922011D81
:10B6600001F045FB0078218801228240914321802E
:10B6700010BD000054000020748301002DE9FC4738
:10B680000C460646694600F006FE002860D106F02A
:10B6900009FAB0425CD02146304609F0C4F828BB14
:10B6A000019D95F8EC00383518B9E87E08B1012005
:10B6B00000E00020814695F837004FF000084FF079
:10B6C000010AA0B195F83800800710D584F80180F0
:10B6D00084F800A084F80280A68095F83910A17142
:10B6E000698F2181A98F618185F837802DE03046EF
:10B6F00001F066FD070000D1FFDF384600F094FF3F
:10B7000040B184F801800D212170A680E08084F88A
:10B7100002A01AE0304601F041FD070000D1FFDF32
:10B72000B9F1000F14D0384600F0D5FF80B1304693
:10B7300006F05DF884F801800A21217084F8028007
:10B74000A680297FA17185F81B800120BDE8FC87B8
:10B750000020FBE71CB5694600F09DFD00B1FFDF4E
:10B76000684600F0A5FDFC4900208968A1F8B200F8
:10B770001CBD2DE9FC4104460E46062001F088FB65
:10B7800000250746A846064417E02088401C80B2E2
:10B790002080B04202D34046A4F8008080B2B84274
:10B7A00004D3B04202D20020BDE8FC81694600F01B
:10B7B00072FD0028F8D06D1CEDB2AE42E5D84FF610
:10B7C000FF7020801220EFE710B506F081F80AF034
:10B7D000A0FBE2484FF6FF710422418181810021E4
:10B7E000017003218170C2701B228280C28001819E
:10B7F00010BD70B5D84C0D466060217005F0F5FFA6
:10B8000000F066FDFFF7E0FF207809F057FE2846BC
:10B8100007F092FC06F082F92178606809F0C5F81B
:10B82000BDE870400AF075BB10B501240AB10020D4
:10B8300010BD21B1012903D00024204610BD0221F2
:10B840000BF0D7F8F9E72DE9F041040000D1FFDF54
:10B85000C24802210C308046FFF78BFF00B1FFDFAA
:10B86000BE4D0620AF8901F013FB0646A889B04201
:10B870001CD1204606F0BBF8F8B106F051FBC8B168
:10B880002078132816D1A078A0B1A088062101F055
:10B8900053FB050000D1FFDF288805F0A8FFA08832
:10B8A000062101F05BFB28B1FFDF03E02146FFF733
:10B8B000E5FE10B10120BDE8F08102214046FFF70E
:10B8C00058FF10B9A889B842D0D10020F3E710B5CD
:10B8D00000F0C2FC08B10C2010BD0AF053FB0020A0
:10B8E00010BD10B50446007818B1012801D012200F
:10B8F00010BD00F0BCFC20B10AF0A1FB08B10C2087
:10B9000010BD207800F092FCE21D04F11703611CC9
:10B91000BDE810400AF04ABB10B50446007818B1E3
:10B92000012801D0122010BD00F096FC08B10C20B7
:10B9300010BD207800F07AFC611C0AF0FDFA08B115
:10B94000002010BD072010BD10B50AF07CFB08B127
:10B95000002010BD302010BD10B5044600F087FC5B
:10B9600008B10C2010BD20460AF065FB002010BD78
:10B9700010B500F07CFC20B10AF061FB08B10C208E
:10B9800010BD0AF04AFB002010BDFF2181704FF668
:10B99000FF718180704949680A7882718A880281C2
:10B9A0004988418101214170002070471CB5002465
:10B9B00012F1080F15D00CDC12F1280F11D012F182
:10B9C000140F0ED012F1100F0BD012F10C0F0CD17E
:10B9D00007E012F1040F04D01AB1032A01D0042A9F
:10B9E00003D1012804D0032806D0122420461CBD10
:10B9F000104606F090FAF9E708461446694600F04A
:10BA00004AFC08B10224F1E7019880F8374000248D
:10BA1000ECE710B5134601220AF047FD002010BDE7
:10BA200010B5044600F023FC08B10C2010BD2146DF
:10BA3000002005F04EFF002010BD10B5044607F0B1
:10BA4000B3FD20B1207807F09DFB002010BD0C2035
:10BA500010BD10B5044600F00AFC08B10C2010BD62
:10BA60002146012005F035FF002010BD38B5044601
:10BA70004FF6FF70ADF80000A079E179884213D04D
:10BA800021791F2910D861791F290DD8002211466C
:10BA90000BF0DCFB40B90022E07911460BF0D6FB3D
:10BAA00010B9207A072801D9122038BD07F088FD87
:10BAB00048B900216846FFF75CFE20B1204605F03A
:10BAC000E1F8002038BD0C2038BD2DE9FC4181781B
:10BAD00004461A2925D00EDC16292DD2DFE801F004
:10BAE0002C2C2C2C2C212C2C2C2C2C2C2C2C2C2CA1
:10BAF0002C2C2C2121212A291ED00BDCA1F11E0186
:10BB00000C2919D2DFE801F018181818181818189D
:10BB10001818180D3A3904290ED2DFE801F00D0289
:10BB20000D022088B0F5706F06D20127694600F03B
:10BB3000B2FB18B1022037E6122035E6019D6846B7
:10BB40002E4605F5A87506F2511600F097FB08B1D0
:10BB5000287828B10C2027E658000020B4040020E3
:10BB60002F70A0783070684600F0A2FB00201BE622
:10BB70001CB50C46694600F08EFB002118B121600F
:10BB8000217102201CBD01980246383080F8401017
:10BB900093682360137B237190F84030002BF5D11C
:10BBA00000201CBD10B5044600F061FB20B10AF076
:10BBB00046FA08B10C2010BD207800F037FBE2797E
:10BBC000611C0AF018FB08B1002010BD022010BD56
:10BBD000887800B90320C97801B903211070197061
:10BBE000002070471FB50446008801A900F053FBF0
:10BBF000002806D1A08830B1012804D0022802D044
:10BC0000122004B010BD6B4603AA214601A8FFF71D
:10BC1000DFFF0028F5D1029A012182F87B11029AF8
:10BC200092F8AE213AB9029A92F87A211AB9029A98
:10BC300092F85D200AB13A200CE0029A82F87A115B
:10BC4000029A9DF80C1082F87C11029A9DF800105F
:10BC500082F87D11029A002182F87B11D1E7817868
:10BC6000CA0802D1C278D30801D012207047490710
:10BC700001D4510701D511207047B3E7F0B5871FF4
:10BC8000DDE9056540F67B44A74213D28F1FA7422A
:10BC900010D288420ED8B2F5FA7F0BD2A3F10A0077
:10BCA000241FA04206D2521C4A43B2EB830F01DA92
:10BCB000AE4201D90020F0BD0120F0BD1CB5828943
:10BCC0004189CDE900120389C28881884088FFF745
:10BCD000D5FF08B100201CBD30201CBDF8B51546AD
:10BCE0000E46044607F06CFC08B10C20F8BD204657
:10BCF00000F002FB0028F9D161884FF01100CA065C
:10BD0000F4D5E27D032AF1D04906EFD4002030704B
:10BD1000A07555B9FF208DF800006946002006F097
:10BD2000E6F86946002006F0CCF82046BDE8F84069
:10BD300006F00FB80022D1E770B514460D4606464E
:10BD4000FB2919D813B11F2916D81BE006F001F9F9
:10BD500020B11F2D10D8032C0ED104E0032C02D0EB
:10BD6000042C00D045B107F02BFC38B1032C05D0D2
:10BD7000042C03D00C2070BD122070BD304605F09D
:10BD8000DBFE08B1002070BD422070BD70B50446D6
:10BD9000C0780E46122510B106F03FF818B1607851
:10BDA000042802D010E0284670BD07F009FC0028E6
:10BDB000F9D006F07DF80028F5D106F0CAF8002881
:10BDC000F1D1E0780028EED16278E178207833462E
:10BDD000FFF7B2FF0028E7D16178E07800F0D7FAEA
:10BDE00028B1E078211D06F082F8002070BD1120F6
:10BDF00070BD0021CAE770B50446C0780D46122612
:10BE000010B106F094F8A0B16278042A11D0E1785C
:10BE100020782B46FFF790FF002809D16178E07861
:10BE200000F0B5FA38B1E078211D06F04AF800209C
:10BE300070BD304670BD112070BD0021DBE77CB5C0
:10BE4000044640784225012808D8A07805F074FE01
:10BE500020B120781225012802D090B128467CBD5F
:10BE600006F06EF820B1A0880028F7D08028F5D819
:10BE700006F06DF860B160780028EFD020780128D6
:10BE800008D006F047FD044607F01FF9002865D0EA
:10BE90000C207CBD05F091FE10B906F04FF868B398
:10BEA00007F08EFB0028F3D105F0FCFDA0F57F41E3
:10BEB000FF39EDD105F002FFA68842F2107046432B
:10BEC000A079314605F0B3FF06F02AF8C0B1002290
:10BED000062101A801F002F8040018D0FA48032155
:10BEE000846020460AF035FA204606F0D3F906F0C1
:10BEF00030F8F64D68B1288901210EE012207CBD92
:10BF00003146002007F041F938B3FFDF30E0092067
:10BF10007CBD06F020F80146288907F0FAF90146B1
:10BF2000A0620022204606F01CFD06F012F808B9B7
:10BF300006F011F8E8780090AB78EA88A9882088A4
:10BF400001F0B5F800B1FFDF208805F04FFC314665
:10BF5000204607F01AF900B1FFDF09E044B120885C
:10BF600005F045FC2088062100F0F8FF00B1FFDF56
:10BF700000207CBD002162E770B50D46062100F06F
:10BF8000DBFF040003D094F8530110B10AE0022053
:10BF900070BD94F84500142801D0152802D194F8FA
:10BFA000940108B10C2070BD1022294604F5AA7036
:10BFB0000BF065FF012084F85301002070BD10B51F
:10BFC000062100F0B9FF18B190F8531111B107E044
:10BFD000022010BD90F84510142903D0152901D076
:10BFE0000C2010BD022180F85311002010BD2DE956
:10BFF000FC410D464BF680321221954213D895B183
:10C00000694600F048F900280CD1019EB41C38366E
:10C0100027882A46394630460AF091F92088B842E6
:10C02000F6D1002087E5084685E51CB50446008862
:10C03000694600F030F9002808D10199A378084634
:10C0400091F82C2038319A4201D10C201CBD7F225E
:10C050000A728A720022CA72E17880F82D10217962
:10C0600080F82E10A17880F82C1010461CBD1CB54D
:10C070000C46694600F00FF9002806D1019890F8A7
:10C08000530000B10120207000201CBD7CB50D467E
:10C090001446694600F0FFF8002805D1019890F891
:10C0A0002C00012801D00C207CBD019890F8401094
:10C0B000297090F84100207000207CBD70B50D46BD
:10C0C0001646062100F038FF18B381880124C38882
:10C0D000428804EB4104AC4217D842F21074634327
:10C0E000A4106243B3FBF2F2521E94B24FF4FA7200
:10C0F000944200D91446A54200D22C46491C641C27
:10C10000B4FBF1F24A43521E91B290F880211AB961
:10C1100001E0022070BD01843180002070BD10B5A7
:10C120000C46062100F008FF48B180F8BF4024B15A
:10C1300090F8BD1009B107F011F9002010BD0220E0
:10C1400010BD017891B1417881B141881B290DD38F
:10C1500081881B290AD3C188022907D35B49026859
:10C1600041F8022F40684860002070471220704755
:10C1700010B507F09CF8002010BD70B514460A46B3
:10C18000064600250121104607F0C3F8002800D814
:10C19000284605460121304600F04FF806460121A9
:10C1A000002000F04AF83118012296318D4206D95C
:10C1B00001F19600691AB1FBF0F0401C82B22280B6
:10C1C000002070BD10B5044600F051F808B10C20F5
:10C1D00010BD601C09F0FCFF207800F0010005F0A4
:10C1E00006FD002010BD10B50446062000F042FEFA
:10C1F00008B10C2010BD2078C00711D00022607853
:10C2000011460BF023F808B1122010BDA06808F009
:10C2100020FF6078D4F8041008F024FF002010BD3F
:10C22000002008F016FF00210846F5E718B10228A3
:10C2300001D0012070470020704710B5012904D0BB
:10C24000022905D0FFDF204610BDC000503001E0BC
:10C2500080002C3084B2F6E710B507F0B1F920B1B8
:10C2600005F0A3FC08B1012010BD002010BD10B5E1
:10C2700007F0A6F9002800D0012010BD416891F810
:10C28000EC0091F8531021B918B1042801D0012015
:10C2900070470020704710B50C46062100F04CFE98
:10C2A000606018B101202070002010BD022010BD78
:10C2B000416891F8BD20002A05D0002281F8BD20F8
:10C2C000406807F04BB8704758000020B4040020C5
:10C2D00008B54FF6FF70ADF8000006E00621BDF886
:10C2E000000000F03BFE00B1FFDF00216846FFF7D1
:10C2F00040FA0028F2D008BD38B504460078EF288F
:10C3000041D86088ADF80000009800F048F888B384
:10C310006188080708D4D4E90120824233D8202A52
:10C3200031D3B0F1807F2ED2207B18B307282AD8D2
:10C33000607B28B1012803D0022801D0032822D134
:10C340004A0703D4022801D0032805D1A07B08B1F5
:10C35000012818D1480707D4607D28B1012803D0EF
:10C36000022801D003280ED1C806E07D03D501289C
:10C3700009D104E007E0012801D0032803D1E07EC1
:10C3800018B1012801D0122038BD002038BD1F2867
:10C3900001D8032901D0002095E7012093E780B25E
:10C3A000C1060CD401071AD481064FEAC07103D527
:10C3B000A9B9800713D410E079B180070BE0C10759
:10C3C0004FEA807104D0002902DB400705D406E063
:10C3D000010704D44007002801DB012073E7002097
:10C3E00071E7000030B5058825F4004421448CB283
:10C3F0004FF4004194420AD2121B92B21B339A426C
:10C4000001D2A94307E005F40041214303E0A21A49
:10C4100092B2A9431143018030BD08440830504313
:10C420004A31084480B2704770B51D4616460B4627
:10C43000044629463046049AFFF7EFFF0646B3420A
:10C4400000D2FFDF282120460BF0BAFD4FF6FF7027
:10C45000A082283EB0B265776080B0F5004F00D969
:10C46000FFDF618805F13C00814200D2FFDF608878
:10C470000835401B343880B220801B2800D21B2096
:10C4800020800020A07770BD8161886170472DE910
:10C49000F05F0D46C188044600F12809008921F4A7
:10C4A000004620F4004800F062FB10B10020BDE817
:10C4B000F09F4FF0000A4FF0010BB0450CD9617F9F
:10C4C000A8EB0600401A0838854219DC09EB060083
:10C4D0000021058041801AE06088617F801B471A37
:10C4E000083F0DD41B2F00DAFFDFBD4201DC2946D7
:10C4F00000E0B9B2681A0204120C04D0424502DD11
:10C5000084F817A0D2E709EB06000180428084F886
:10C5100017B0CCE770B5044600F12802C088E37D6F
:10C5200020F400402BB110440288438813448B420E
:10C5300001D2002070BD00258A4202D301804580CF
:10C5400008E0891A0904090C418003D0A01D00F0FD
:10C550001EFB08E0637F00880833184481B26288BC
:10C56000A01DFFF73FFFE575012070BD70B50346C4
:10C5700000F12804C588808820F400462644A8429B
:10C5800002D10020188270BD98893588A84206D350
:10C59000401B75882D1A2044ADB2C01E05E02C1A30
:10C5A000A5B25C7F20443044401D0C88AC4200D9C9
:10C5B0000D809C8924B1002414700988198270BDF3
:10C5C0000124F9E770B5044600F12801808820F4C1
:10C5D00000404518208A002825D0A189084480B24F
:10C5E000A08129886A881144814200D2FFDF28880F
:10C5F000698800260844A189884212D1A069807FF9
:10C600002871698819B1201D00F0C1FA08E0637F24
:10C6100028880833184481B26288201DFFF7E2FEA3
:10C62000A6812682012070BD2DE9F04141898788CD
:10C630000026044600F12805B94218D004F10A0882
:10C6400021F400402844418819B1404600F09FFA87
:10C6500008E0637F00880833184481B2628840464E
:10C66000FFF7C0FE761C6189B6B2B942E8D1304608
:10C67000BDE8F0812DE9F04104460B4627892830BA
:10C68000A68827F40041B4F80A8001440D46B74259
:10C6900001D10020ECE70AB1481D106023B1627F90
:10C6A000691D18460BF0EBFB2E88698804F1080021
:10C6B00021B18A1996B200F06AFA06E0637F6288B7
:10C6C0000833991989B2FFF78DFE474501D12089BA
:10C6D00060813046CCE78188C088814201D1012049
:10C6E00070470020704701898088814201D1012074
:10C6F00070470020704770B58588C38800F1280412
:10C7000025F4004223F4004114449D421AD0838949
:10C71000058A5E1925886388EC18A64214D313B1E4
:10C720008B4211D30EE0437F08325C1922444088CB
:10C7300092B2801A80B22333984201D211B103E041
:10C740008A4201D1002070BD012070BD2DE9F04763
:10C750008846C1880446008921F4004604F1280770
:10C7600020F4004507EB060900F001FA002178BB30
:10C77000B54204D9627FA81B801A002503E06088B7
:10C78000627F801B801A083823D4E28962B1B9F82D
:10C790000020B9F802303BB1E81A2177404518DB98
:10C7A000E0893844801A09E0801A217740450ADB85
:10C7B000607FE1890830304439440844C01EA4F841
:10C7C0001280BDE8F087454503DB01202077E7E7CD
:10C7D000FFE761820020F4E72DE9F74F044600F1FE
:10C7E0002805C088884620F4004A608A05EB0A06BE
:10C7F00008B1404502D20020BDE8FE8FE08978B143
:10C800003788B6F8029007EB0901884200D0FFDFB5
:10C81000207F4FF0000B50EA090106D088B33BE0BF
:10C820000027A07FB9463071F2E7E18959B1607FF6
:10C830002944083050440844B4F81F1020F8031D60
:10C8400094F821108170E28907EB080002EB0801DF
:10C85000E1813080A6F802B002985F4650B1637F54
:10C8600030880833184481B26288A01DFFF7BAFDF2
:10C87000E78121E0607FE189083050442944084481
:10C880002DE0FFE7E089B4F81F102844C01B20F812
:10C89000031D94F82110817009EB0800E28981B230
:10C8A00002EB0800E081378071800298A0B1A01DE2
:10C8B00000F06DF9A4F80EB0A07F401CA077A07D19
:10C8C00008B1E088A08284F816B000BFA4F812B0C6
:10C8D00084F817B001208FE7E0892844C01B30F8A6
:10C8E000031DA4F81F10807884F82100EEE710B52E
:10C8F000818800F1280321F400442344848AC288FB
:10C90000A14212D0914210D0818971B9826972B16D
:10C910001046FFF7E8FE50B91089283220F4004095
:10C92000104419790079884201D1002010BD1846C1
:10C9300010BD00F12803407F08300844C01E10607D
:10C94000088808B9DB1E136008884988084480B24B
:10C9500070472DE9F04100F12806407F1C46083061
:10C960009046431808884D88069ADB1EA0B1C01C6B
:10C9700080B2904214D9801AA04200DB204687B2D0
:10C9800098183A4641460BF04EFA002816D1E01BA3
:10C9900084B2B844002005E0ED1CADB2F61EE8E715
:10C9A000101A80B20119A94206D8304422464146E5
:10C9B000BDE8F0410BF037BA4FF0FF3058E62DE9F3
:10C9C000F04100F12804407F1E460830904643188D
:10C9D000002508884F88069ADB1E90B1C01C80B2E3
:10C9E000904212D9801AB04200DB304685B29918C5
:10C9F0002A4640460BF043FA701B86B2A84400203A
:10CA000005E0FF1CBFB2E41EEAE7101A80B28119EC
:10CA1000B94206D82118324640460BF030FAA81920
:10CA200085B2284624E62DE9F04100F12804407F34
:10CA30001E46083090464318002508884F88069AFD
:10CA4000DB1E90B1C01C80B2904212D9801AB04255
:10CA500000DB304685B298182A4641460BF00FFAA3
:10CA6000701B86B2A844002005E0FF1CBFB2E41E84
:10CA7000EAE7101A80B28119B94206D8204432463A
:10CA800041460BF0FCF9A81985B22846F0E5401D97
:10CA9000704710B5044600F12801C288808820F450
:10CAA00000431944904206D0A28922B9228A12B9C1
:10CAB000A28A904201D1002010BD0888498831B176
:10CAC000201D00F064F800202082012010BD637F4B
:10CAD00062880833184481B2201DFFF783FCF2E717
:10CAE0000021C18101774182C1758175704703883A
:10CAF0001380C28942B1C28822F4004300F12802A7
:10CB00001A440A60C08970470020704710B5044677
:10CB1000808AA0F57F41FF3900D0FFDFE088A08246
:10CB2000E08900B10120A07510BD4FF6FF71818230
:10CB300000218175704710B50446808AA0F57F41B9
:10CB4000FF3900D1FFDFA07D28B9A088A18A8842E3
:10CB500001D1002010BD012010BD8188828A914240
:10CB600001D1807D08B1002070470120704720F47A
:10CB7000004221F400439A4207D100F4004001F43E
:10CB80000041884201D0012070470020704730B535
:10CB9000044600880D4620F40040A84200D2FFDF82
:10CBA00021884FF4004088432843208030BD70B571
:10CBB0000C00054609D0082C00D2FFDF1DB1A1B240
:10CBC000286800F044F8201D70BD0DB100202860D9
:10CBD000002070BD0021026803E0938812681944A8
:10CBE00089B2002AF9D100F032B870B500260D469E
:10CBF0000446082900D2FFDF206808B91EE0044679
:10CC000020688188A94202D001680029F7D1818873
:10CC10000646A94201D100680DE005F1080293B271
:10CC20000022994209D32844491B0260818021686F
:10CC3000096821600160206000E00026304670BD78
:10CC400000230B608A8002680A600160704700233D
:10CC50004360021D018102607047F0B50F460188F4
:10CC6000408815460C181E46AC4200D3641B304465
:10CC7000A84200D9FFDFA019A84200D9FFDF381968
:10CC8000F0BD2DE9F04188460646018840881546EA
:10CC90000C181F46AC4200D3641B3844A84200D98C
:10CCA000FFDFE019A84200D9FFDF708838447080A8
:10CCB00008EB0400BDE8F0812DE9F041054600884D
:10CCC0001E461746841B8846BC4200D33C442C8039
:10CCD00068883044B84200D9FFDFA019B84200D9B3
:10CCE000FFDF68883044688008EB0400E2E72DE944
:10CCF000F04106881D460446701980B217468846E2
:10CD00002080B84201D3C01B20806088A84200D296
:10CD1000FFDF7019B84200D9FFDF6088401B6080D8
:10CD200008EB0600C6E700002DE9F041BF4D0446C0
:10CD30009046A8780E46A04200D8FFDF05EB860794
:10CD4000786A50F8240000B1FFDFB868002816D0D8
:10CD5000304600F032F90146B868FFF746FF05009B
:10CD60000CD0786A072E40F8245000D3FFDFB0487B
:10CD70004246294650F82630204698472846BDE8C6
:10CD8000F0812DE9F84305000C46009524D00026DB
:10CD9000E81C20F00300A84200D0FFDFDFF88C82FF
:10CDA0000027314688F8007088F8014088F8024072
:10CDB00088F8034088F8044088F8054088F8064061
:10CDC000684600F003F9002042460099C91C21F092
:10CDD0000301009116B10FE00126D9E702EB8003B1
:10CDE0005962002106E000BFD3F824C04CF821703E
:10CDF000491CC9B2A142F7D30099401C01EB840140
:10CE0000C0B200910728E0D3481BBDE8F88310B5F5
:10CE1000044603F065FD08B1102010BD2078834A58
:10CE2000618802EB800092780EE0436A53F821306B
:10CE300043B14A1C6280A180406A50F82100A06082
:10CE4000002010BD491C89B28A42EED861800520BD
:10CE500010BD70B505460C46084603F041FD08B10B
:10CE6000102070BD072D01D3072070BD2570002054
:10CE7000608070BD0EB56946FFF7EBFF00B1FFDFC4
:10CE80006846FFF7C4FF08B100200EBD01200EBDAB
:10CE900010B50446072800D3FFDF6448005D10BDCD
:10CEA0003EB5054600246946FFF7D3FF18B1FFDF02
:10CEB00001E0641CE4B26846FFF7A9FF0028F8D03F
:10CEC0002846FFF7E5FF001BC0B23EBD57498978F1
:10CED000814201D9C0B27047FF2070472DE9F0416F
:10CEE00006291BD1514C00273B464FF6FF7604EB39
:10CEF000810514F801C00AE0DC19D5F824E0A4B2D9
:10CF00005EF824E0BEF1000F04D05B1C9BB29C4590
:10CF1000F2D8344604802046B44201D100202EE7E6
:10CF2000BDE8F04100E7A0F57F43FF3B01D00729B2
:10CF300001D300207047F7E6A0F57F42FF3A0BD0FF
:10CF4000072909D2394A9378834205D902EB810136
:10CF5000496A51F820007047002070472DE9F041E0
:10CF600004460D46A4F57F4143F20200FF3902D08A
:10CF7000072D01D3072002E72C494FF000088A78DB
:10CF8000A242F8D901EB8506726A52F82470002F8C
:10CF9000F1D0274839461C3050F8252020469047CC
:10CFA000716A284641F8248000F007F802463946A5
:10CFB000B068FFF745FE0020E1E61D49383131F841
:10CFC00010004FF6FC71C01C084070472DE9F84373
:10CFD000164E8846054600242868C01C20F0030031
:10CFE00028602046FFF7E9FF315D4843B8F1000FA4
:10CFF00001D0002200E02A680146009232B10027E9
:10D000004FEA0D00FFF7D3FD1FB106E00127002016
:10D01000F8E706EB8401009A8A602968641C0844DA
:10D02000E4B22860072CD7D3EFE60000C404002048
:10D03000BC83010070B50E461D46114600F0D4F8C1
:10D0400004462946304600F0D8F82044001D70BD43
:10D050002DE9F04190460D4604004FF0000610D037
:10D060000027E01C20F00300A04200D0FFDFDDB16C
:10D0700041460020FFF79BFD0C3000EB850617B101
:10D0800012E00127EDE7614F04F10C00A9003C60BC
:10D090002572606000EB8500206060680AF090FFF8
:10D0A00041463868FFF783FD3046BDE8F0812DE941
:10D0B000FF4F564C804681B020689A46934600B98F
:10D0C000FFDF2068027A424503D9416851F8280001
:10D0D00020B143F2020005B0BDE8F08F514602983E
:10D0E00000F082F886B258460E9900F086F885B2B4
:10D0F0007019001D87B22068A14639460068FFF705
:10D1000074FD04001FD0678025802946201D0E9DD8
:10D1100007465A4601230095FFF786F920883146D5
:10D1200038440123029ACDF800A0FFF77DF920884A
:10D13000C1193846FFF7A8F9D9F800004168002066
:10D1400041F82840C7E70420C5E770B52F4C0546D5
:10D15000206800B9FFDF2068017AA9420ED9426831
:10D1600052F8251051B1002342F825304A88006852
:10D17000FFF766FD216800200A7A08E043F202000A
:10D1800070BD4B6853F8203033B9401CC0B28242A6
:10D19000F7D80868FFF71EFD002070BD70B51B4E64
:10D1A00005460024306800B9FFDF3068017AA942E3
:10D1B00004D9406850F8250000B1041D204670BD18
:10D1C00070B5124E05460024306800B9FFDF3068A4
:10D1D000017AA94206D9406850F8251011B131F8FA
:10D1E000040B4418204670BD10B50A460121FFF714
:10D1F00014F9C01C20F0030010BD10B50A4601212F
:10D20000FFF70BF9C01C20F0030010BD64000020E4
:10D2100070B50446C2F1100528190AF030FE15F069
:10D22000FF0108D0491EC9B2802060542046BDE8E5
:10D2300070400AF0A3BE70BD30B505E05B1EDBB2E6
:10D24000CC5CD55C6C40C454002BF7D130BD10B51C
:10D25000002409E00B78521E44EA430300F8013B26
:10D2600011F8013BD2B2DC09002AF3D110BD2DE93F
:10D27000F04389B01E46DDE9107990460D00044662
:10D2800022D002460846F949FEF7C3FB1022214688
:10D290003846FFF7DCFFE07B000606D5F34A394647
:10D2A000102310320846FFF7C7FF102239464846C0
:10D2B000FFF7CDFFF87B000606D5EC4A4946102360
:10D2C00010320846FFF7B8FF102120460AF056FE3C
:10D2D0000DE0103EB6B208EB060110232246684668
:10D2E000FFF7AAFF224628466946FEF792FB102E5A
:10D2F000EFD818D0F2B241466846FFF789FF1023F5
:10D300004A46694604A8FFF797FF1023224604A95E
:10D310006846FFF791FF224628466946FEF779FBEB
:10D3200009B0BDE8F08310233A464146EAE770B5FC
:10D330009CB01E460546134620980C468DF8080002
:10D34000202219460DF109000AF099FD20222146FC
:10D350000DF129000AF093FD17A913A8CDE90001EA
:10D36000412302AA31462846FFF781FF1CB070BD59
:10D370002DE9FF4F9FB014AEDDE92D5410AFBB492E
:10D38000CDE90076202320311AA8FFF770FF4FF077
:10D3900000088DF808804FF001098DF8099054F8C5
:10D3A000010FCDF80A00A088ADF80E0014F8010CAA
:10D3B0001022C0F340008DF8100055F8010FCDF891
:10D3C0001100A888ADF8150015F8010C2C99C0F3D0
:10D3D00040008DF8170006A882460AF050FD0AA802
:10D3E0008346102222990AF04AFDA04835230838C6
:10D3F00002AA40688DF83C80CDE900760E901AA90B
:10D400001F98FFF734FF8DF808808DF80990206889
:10D41000CDF80A00A088ADF80E0014F8010C102217
:10D42000C0F340008DF810002868CDF81100A888DE
:10D43000ADF8150015F8010C2C99C0F340008DF8DB
:10D44000170050460AF01BFD5846102222990AF098
:10D4500016FD86483523083802AA40688DF83C90AE
:10D46000CDE900760E901AA92098FFF700FF23B0AF
:10D47000BDE8F08FF0B59BB00C460546DDE9221003
:10D480001E461746DDE92032D0F801C0CDF808C0AD
:10D49000B0F805C0ADF80CC00078C0F340008DF8BE
:10D4A0000E00D1F80100CDF80F00B1F80500ADF87D
:10D4B000130008781946C0F340008DF81500108855
:10D4C000ADF8160090788DF818000DF119001022B3
:10D4D0000AF0D5FC0DF12900102231460AF0CFFCEC
:10D4E0000DF13900102239460AF0C9FC17A913A81A
:10D4F000CDE90001412302AA21462846FFF7B7FEE5
:10D500001BB0F0BDF0B5A3B017460D4604461E464D
:10D51000102202A828990AF0B2FC06A82022394657
:10D520000AF0ADFC0EA8202229460AF0A8FC1EA98C
:10D530001AA8CDE90001502302AA314616A8FFF728
:10D5400096FE1698206023B0F0BDF0B589B0044671
:10D55000DDE90E070D463978109EC1F340018DF8C4
:10D56000001031789446C1F340018DF8011019681C
:10D57000CDF802109988ADF8061099798DF8081049
:10D580000168CDF809108188ADF80D1080798DF80B
:10D590000F0010236A46614604A8FFF74DFE22469D
:10D5A000284604A9FEF735FAD6F801000090B6F82F
:10D5B0000500ADF80400D7F80100CDF80600B7F873
:10D5C0000500ADF80A000020039010236A462146AA
:10D5D00004A8FFF731FE2246284604A9FEF719FAEF
:10D5E00009B0F0BD1FB51C6800945B680193136817
:10D5F000029352680392024608466946FEF709FA0A
:10D600001FBD10B588B0044610680490506805909E
:10D6100000200690079008466A4604A9FEF7F9F92B
:10D62000BDF80000208008B010BD1FB51288ADF80D
:10D6300000201A88ADF80220002201920292039283
:10D64000024608466946FEF7E4F91FBD7FB5074B61
:10D6500014460546083B9A1C6846FFF7E6FF22463B
:10D6600069462846FFF7CDFF7FBD00000A84010010
:10D6700070B5044600780E46012813D0052802D064
:10D68000092813D10EE0A06861690578042003F031
:10D69000B5F8052D0AD0782300220420616903F033
:10D6A00003F803E00420616903F0A8F8314620463E
:10D6B000BDE8704001F086B810B500F12D02C379C5
:10D6C0009478411D64F003042340C371DB070DD03F
:10D6D0004B79547923404B710B79127913400B71BC
:10D6E0008278C9788A4200D9817010BD00224A71BF
:10D6F0000A71F5E74178012900D00C2101707047CB
:10D700002DE9F04F93B04FF0000B0C690D468DF8EA
:10D7100020B0097801260C2017464FF00D084FF075
:10D72000110A4FF008091B2975D2DFE811F01B0020
:10D73000C30206031E035D037003A203B703F803CD
:10D74000190461049304A004EC042A05340552056D
:10D750005D05EE053106340663067F06F9061D07F2
:10D76000E606EB0614B120781D282AD0D5F80880EB
:10D770005FEA08004FD001208DF82000686A02227D
:10D780000D908DF824200A208DF82500A8690A90B4
:10D79000A8880028EED098F8001091B10F2910D277
:10D7A0007ED2DFE801F07D1349DEFEFDFCFBFAF9D5
:10D7B00038089CF8F70002282DD124B120780C28D5
:10D7C00001D00026EFE38DF82020CBE10420696A28
:10D7D00003F014F8A8880728EED1204600F0EDFFEA
:10D7E000022809D0204600F0E8FF032807D9204688
:10D7F00000F0E3FF072802D20120207004E0002C93
:10D80000B8D020780128D7D198F80400C11F0A2980
:10D8100002D30A2061E0C4E1A070D8F80010E162F0
:10D82000B8F80410218698F8060084F83200012028
:10D8300028700320207044E00728BDD1002C99D027
:10D8400020780D28B8D198F8031094F82F20C1F350
:10D85000C000C2F3C002104201D0062000E0072041
:10D86000890707D198F805100142D2D198F806101F
:10D870000142CED194F8312098F8051020EA020236
:10D880001142C6D194F8322098F806109043014214
:10D89000BFD198F80400C11F0A29BAD2617D00E007
:10D8A00006E281427ED8D8F800106160B8F8041012
:10D8B000218198F80600A072012028700E202070A7
:10D8C00003208DF82000686A0D9004F12D00099066
:10D8D000601D0A900F300B9022E12875FDE341286E
:10D8E00091D1204600F069FF042802D1E078C007FA
:10D8F00004D1204600F061FF0F2884D1A88CD5F810
:10D900000C8080B24FF0400BE669FFF747FC3246CF
:10D9100041465B464E46CDF80090FFF750F80B208D
:10D920008DF82000686A0D90E0690990002108A830
:10D93000FFF79EFE2078042806D0A07D58B101286C
:10D9400009D003280AD049E305202070032028705D
:10D950008DF82060CDE184F800A032E7122020701D
:10D96000E9E11128BCD1204600F027FF042802D1AC
:10D97000E078C00719D0204600F01FFF062805D127
:10D98000E078C00711D1A07D02280ED0204600F01B
:10D9900014FF08E0CAE081E06FE14EE121E101E11E
:10D9A000E7E017E0ADE111289AD1102208F101015A
:10D9B00004F13C000AF063FA607801287ED012205E
:10D9C0002070E078C00760D0A07D0028C8D0012872
:10D9D000C6D05AE0112890D1204600F0EEFE08286B
:10D9E00004D0204600F0E9FE132886D104F16C0033
:10D9F000102208F1010106460AF041FA20780828B1
:10DA00000DD014202070E178C8070DD0A07D022829
:10DA10000AD06278022A04D00328A1D035E0092078
:10DA2000F0E708B1012837D1C80713D0A07D02283C
:10DA30001DD000200090D4E9062133460EA8FFF740
:10DA400076FC10220EA904F13C000AF0ECF9C8B1F2
:10DA5000042042E7D4E90912201D8DE8070004F1F3
:10DA60002C0332460EA8616BFFF76FFDE9E7606B90
:10DA7000C1F34401491E0068C84000F0010040F0B5
:10DA80008000D7E72078092806D185F800908DF826
:10DA9000209033E32870ECE30920FBE711289AD1AA
:10DAA000204600F08AFE0A2802D1E078C00704D19F
:10DAB000204600F082FE15288DD100E08DE104F1B2
:10DAC0003C00102208F1010106460AF0D8F920783E
:10DAD0000A2816D016202070D4E90932606B611D27
:10DAE0008DE80F0004F15C0304F16C0247310EA8CD
:10DAF000FFF7C0FC10220EA930460AF094F918B1C5
:10DB0000F5E20B20207071E22046FFF7D5FDA078EA
:10DB1000216A0A18C0F1100110460AF02FFA23E317
:10DB2000394608A8FFF7A4FD06463BE20228B6D115
:10DB3000204600F042FE042804D3204600F03DFEBB
:10DB4000082809D3204600F038FE0E2829D32046A5
:10DB500000F033FE122824D2A07D02289FD10E208F
:10DB60008DF82000686A0D9098F801008DF8240067
:10DB7000F0E3022893D1204600F01FFE002810D0C9
:10DB8000204600F01AFE0128F9D0204600F015FECC
:10DB90000C28F4D004208DF8240098F801008DF8AA
:10DBA00025005EE21128FCD1002CFAD0207817283D
:10DBB000F7D16178606A022911D0002101EB41019F
:10DBC000182606EBC1011022405808F101010AF0A5
:10DBD00056F90420696A00F0E3FD2670F1E50121A1
:10DBE000ECE70B28DDD1002CDBD020781828D8D129
:10DBF0006078616A02281CD05FF0000000EB4002F0
:10DC0000102000EBC2000958B8F8010008806078C5
:10DC1000616A02280FD0002000EB4002142000EBC4
:10DC2000C2000958404650F8032F0A604068486017
:10DC300039E00120E2E70120EEE71128B1D1002C04
:10DC4000AFD020781928ACD16178606A022912D04F
:10DC50005FF0000101EB41011C2202EBC101102227
:10DC6000405808F101010AF00AF90420696A00F03D
:10DC700097FD1A20B6E00121ECE7082891D1002C8D
:10DC80008FD020781A288CD1606A98F8012001780A
:10DC900062F347010170616AD8F8022041F8012F50
:10DCA000B8F8060088800420696A00F079FD8EE2E9
:10DCB000072012E63878012894D1182204F11400C4
:10DCC00079680AF021F9E079C10894F82F0001EA97
:10DCD000D001E07861F30000E070217D002974D16B
:10DCE0002178032909D0C00725D0032028708DF89A
:10DCF0002090686A0D90412004E3607DA1788842FD
:10DD000001D90620E9E502262671E179204621F0B5
:10DD1000E001E171617A21F0F0016172A17A21F0F4
:10DD2000F001A172FFF7C8FC2E708DF82090686A90
:10DD30000D900720E6E20420ACE6387805289DD156
:10DD40008DF82000686A0D90B8680A900720ADF839
:10DD500024000A988DF830B06168016021898180C3
:10DD6000A17A817104202070F4E23978052985D1E7
:10DD70008DF82010696A0D91391D09AE0EC986E82B
:10DD80000E004121ADF824108DF830B01070A88C31
:10DD9000D7F80C8080B24026A769FFF711FA4146F8
:10DDA0003A463346C846CDF80090FEF73CFE0021C7
:10DDB00008A8FFF75DFCE07820F03E00801CE070D2
:10DDC0002078052802D00F200CE049E1A07D20B189
:10DDD000012802D0032802D002E10720BFE584F821
:10DDE0000080EEE42070ECE4102104F15C0002F00D
:10DDF0005AFA606BB0BBA07D18B1012801D0052094
:10DE0000FDE006202870F7486063A063BEE2387822
:10DE1000022894D1387908B12875B3E3A07D02288F
:10DE200002D0032805D022E0B8680028F5D060634E
:10DE30001CE06078012806D0A07994F82E10012803
:10DE400005D0E84806E0A17994F82E00F7E7B86815
:10DE50000028E2D06063E078C00701D0012902D039
:10DE6000E04803E003E0F8680028D6D0A06306206D
:10DE700010E68DF82090696A0D91E1784846C9074F
:10DE800009D06178022903D1A17D29B1012903D0EC
:10DE9000A17D032900D00720287031E138780528BA
:10DEA000BBD1207807281ED084F800A005208DF86B
:10DEB0002000686A0D90B8680A90ADF824A08DF82B
:10DEC00030B003210170E178CA070FD0A27D022A89
:10DED0001AD000210091D4E9061204F15C03401C21
:10DEE000FFF725FA67E384F80090DFE7D4E9092318
:10DEF000211D8DE80E0004F12C0304F15C02401C8E
:10DF0000616BFFF722FB56E3626BC1F34401491ECC
:10DF10001268CA4002F0010141F08001DAE7387866
:10DF20000528BDD18DF82000686A0D90B8680A9068
:10DF3000ADF824A08DF830B0042100F8011B1022A8
:10DF400004F15C0109F09BFF002108A8FFF790FB9A
:10DF50002078092801D0132044E70A2020709BE58F
:10DF6000E078C10742D0A17D012902D0022927D043
:10DF700038E0617808A8012916D004F16C010091FD
:10DF8000D4E9061204F15C03001DFFF7BBFA0A2076
:10DF9000287003268DF82080686A0D90002108A85B
:10DFA000FFF766FBDDE2C3E204F15C010091D4E916
:10DFB000062104F16C03001DFFF7A4FA0026E9E72F
:10DFC000C0F3440114290DD24FF0006101EBB010F1
:10DFD0004FEAB060E0706078012801D01020BEE404
:10DFE0000620FFE6607801283FF4B7AC0A2051E52F
:10DFF000E178C90708D0A17D012903D10B20287041
:10E0000004202FE028702DE00E2028706078616BCE
:10E01000012817D004F15C0304F16C020EA8FFF78D
:10E02000E1FA2046FFF748FBA0780EAEC0F11001E0
:10E03000304409F0A3FF06208DF82000686A099695
:10E040000D909AE004F16C0304F15C020EA8FFF756
:10E05000C9FAE9E73978022903D139790029D1D001
:10E0600029758FE28DF82000686A0D9058E53878A0
:10E070000728F6D1D4E909216078012808D004F1F5
:10E080006C00CDE90002029105D104F16C0304E0BB
:10E0900004F15C00F5E704F15C0304F14C007A68DC
:10E0A0000646216AFFF764F96078012821D1A0783B
:10E0B000216A0A18C0F11001104609F05FFFD4E987
:10E0C0000923606B04F12D018DE80F0004F15C035E
:10E0D00004F16C0231460EA800E055E2FFF7CAF9E0
:10E0E00010220EA904F13C0009F09DFE08B10B209E
:10E0F000AFE485F8008000BF8DF82090686A0D902D
:10E100008DF824A00CE538780528AAD18DF82000D8
:10E11000686A0D90B8680A90ADF824A08DF830B008
:10E1200080F80080617801291AD0D4E9093204F11D
:10E130002D01A66B03920096CDE9011304F16C0347
:10E1400004F15C0204F14C01401CFFF793F900213B
:10E1500008A8FFF78DFA6078012805D0152041E660
:10E16000D4E90923611DE4E70E20287006208DF80C
:10E170002000686ACDF824B00D90A0788DF82800B2
:10E18000CEE438780328C0D1E079C00770D00F20E2
:10E190002870072066E7387804286BD11422391DCF
:10E1A00004F1140009F0B0FE616A208CA1F80900A6
:10E1B000616AA078C871E179626A01F003011172A5
:10E1C000616A627A0A73616AA07A81F82400162073
:10E1D00060E485F800A08DF82090696A50460D91A2
:10E1E00090E000000A8401003878052842D1B86820
:10E1F000A8616178606A022901D0012100E0002154
:10E2000001EB4101142606EBC1014058082102F040
:10E210004AF86178606A022901D0012100E00021FA
:10E2200001EB410106EBC101425802A8E169FFF789
:10E230000DFA6078626A022801D0012000E0002017
:10E2400000EB4001102000EBC1000223105802A98E
:10E250000932FEF7F1FF626AFD4B0EA80932A1698F
:10E26000FFF7E3F96178606A022904D0012103E035
:10E2700042E18BE0BDE0002101EB4101182606EBF5
:10E28000C101A27840580EA909F0F9FD6178606AD1
:10E29000022901D0012100E0002101EB410106EB40
:10E2A000C1014058A1780844C1F1100109F066FE8F
:10E2B00005208DF82000686A0D90A8690A90ADF8D5
:10E2C00024A08DF830B0062101706278616A022ABC
:10E2D00001D0012200E0002202EB420206EBC20262
:10E2E000401C8958102209F0CAFD002108A8FFF738
:10E2F000BFF91220C5F818B028708DF82090686A10
:10E300000D900B208DF824000AE43878052870D190
:10E310008DF82000686A0D90B8680A900B20ADF85F
:10E3200024000A98072101706178626A022901D0ED
:10E33000012100E0002101EB4103102101EBC301A9
:10E3400051580988A0F801106178626A022902D048
:10E35000012101E02FE1002101EB4103142101EB38
:10E36000C30151580A6840F8032F4968416059E0D9
:10E370001920287001208DF8300077E616202870CB
:10E380008DF830B0002108A8FFF772F9032617E1D5
:10E3900014202870B0E6387805282AD18DF820009E
:10E3A000686A0D90B8680A90ADF824A08DF830B076
:10E3B00080F800906278616A4E46022A01D00122FC
:10E3C00000E0002202EB42021C2303EBC202401CCD
:10E3D0008958102209F053FD002108A8FFF748F9D9
:10E3E000152028708DF82060686A0D908DF82460E3
:10E3F0003CE680E0387805287DD18DF82000686AF9
:10E400000D90B8680A90ADF82490092101706169F7
:10E41000097849084170616951F8012FC0F802205C
:10E420008988C18020781C28A8D1A1E7E078C0079E
:10E4300002D04FF0060C01E04FF0070C6078022884
:10E440000AD04FF0000000BF00EB040101F1090108
:10E4500005D04FF0010004E04FF00100F4E74FF069
:10E4600000000B78204413EA0C030B7010F8092FFE
:10E4700002EA0C02027004D14FF01B0C84F800C0B9
:10E48000D2B394F801C0BCF1010F00D09BB990F851
:10E4900000C0E0465FEACC7C04D028F0010606709C
:10E4A000102606E05FEA887C05D528F00206067093
:10E4B00013262E70032694F801C0BCF1020F00D081
:10E4C00092B991F800C05FEACC7804D02CF0010634
:10E4D0000E70172106E05FEA8C7805D52CF0020655
:10E4E0000E701921217000260078D0BBCAB3C3BBBF
:10E4F0001C20207035E012E002E03878062841D177
:10E500001A2019E4207801283CD00C283AD0204663
:10E51000FFF7F0F809208DF82000686A0D9031E0CF
:10E520003878052805D00620387003261820287072
:10E5300046E005218DF82010686A0D90B8680A90B1
:10E540000220ADF8240001208DF830000A980170F7
:10E55000297D4170394608A8FFF78AF80646182039
:10E560002870012E0ED02BE001208DF82000686A63
:10E570000D9003208DF82400287D8DF8250085F866
:10E5800014B012E0287D80B11D2020701720287063
:10E590008DF82090686A0D9002208DF8240039468D
:10E5A00008A8FFF765F806460AE00CB1FE202070C7
:10E5B0009DF8200020B1002108A8FFF759F810E4C9
:10E5C00013B03046BDE8F08F2DE9F04387B00C461C
:10E5D0004E6900218DF8041001202578034602279A
:10E5E0004FF007094FF0050C85B1012D53D0022DD6
:10E5F00039D1FE2030708DF80030606A059003201C
:10E600008DF80400207E8DF8050063E02179012952
:10E6100025D002292DD0032928D0042923D1B17D6A
:10E62000022920D131780D1F042D04D30A3D032D7A
:10E6300001D31D2917D12189022914D38DF8047023
:10E64000237020899DF8041088421BD2082001E025
:10E65000028401008DF80000606A059057E0707830
:10E660000128EBD0052007B0BDE8F0831D203070F5
:10E67000E4E771780229F5D131780C29F3D18DF8CE
:10E680000490DDE7083402F804CB94E80B0082E83C
:10E690000B000320E7E71578052DE4D18DF800C0C5
:10E6A000656A0595956802958DF8101094F80480B8
:10E6B000B8F1010F13D0B8F1020F2DD0B8F1030F4C
:10E6C0001CD0B8F1040FCED1ADF804700E20287024
:10E6D000207E687000216846FEF7CAFF0CE0ADF8A6
:10E6E00004700B202870207E002100F01F0068704D
:10E6F0006846FEF7BDFF37700020B4E7ADF8047040
:10E700008DF8103085F800C0207E687027701146A3
:10E710006846FEF7ADFFA6E7ADF804902B70207FAA
:10E720006870607F00F00100A870A07F00F01F00FB
:10E73000E870E27F2A71C0071CD094F8200000F036
:10E740000700687194F8210000F00700A87100210B
:10E750006846FEF78DFF2868F062A8883086A879A1
:10E7600086F83200A069407870752879B0700D2065
:10E770003070C1E7A9716971E9E700B587B0042875
:10E780000CD101208DF800008DF8040000200591C7
:10E790008DF8050001466846FEF76AFF07B000BD28
:10E7A00070B50C46054602F029F821462846BDE81A
:10E7B00070407823002201F077BF08B100787047DD
:10E7C0000C20704770B50C0005784FF000010CD09C
:10E7D00021702146F4F720FD69482178405D884288
:10E7E00001D1032070BD022070BDF4F715FD00209B
:10E7F00070BD0279012A05D000220A704B78012BE6
:10E8000002D003E0042070470A758A610279930000
:10E81000521C0271C15003207047F0B587B00F46FB
:10E8200005460124287905EB800050F8046C7078C7
:10E83000411E02290AD252493A46083901EB8000AA
:10E84000314650F8043C2846984704460CB1012C48
:10E8500011D12879401E10F0FF00287101D0032447
:10E86000E0E70A208DF80000706A0590002101960B
:10E870006846FFF7A7FF032CD4D007B02046F0BDB1
:10E8800070B515460A46044629461046FFF7C5FFEF
:10E89000064674B12078FE280BD1207C30B10020D0
:10E8A0002870294604F10C00FFF7B7FF2046FEF759
:10E8B00021FF304670BD704770B50E4604467C217E
:10E8C00009F07EFB0225012E03D0022E04D0052084
:10E8D00070BD0120607000E065702046FEF70AFF01
:10E8E000A575002070BD28B1027C1AB10A4600F15E
:10E8F0000C01C5E70120704710B5044686B004201E
:10E9000001F07CFF2078FE2806D000208DF8000062
:10E9100069462046FFF7E7FF06B010BD7CB50E46FE
:10E9200000218DF804104178012903D0022903D079
:10E93000002405E0046900E044690CB1217C89B140
:10E940006D4601462846FFF754FF032809D1324699
:10E9500029462046FFF794FF9DF80410002900D0B7
:10E9600004207CBD04F10C05EBE730B40C460146F5
:10E97000034A204630BC034B0C3AFEF756BE00005B
:10E98000488401000284010070B50D46040011D0D6
:10E9900085B12101284609F0F1FA10224E49284696
:10E9A00009F06DFA4C480121083801804480456027
:10E9B000002070BD012070BD70B5474E0024054693
:10E9C000083E10E07068AA7B00EB0410817B914246
:10E9D00008D1C17BEA7B914204D10C22294609F07F
:10E9E00022FA30B1641C30888442EBDB4FF0FF30F8
:10E9F00070BD204670BD70B50D46060006D02DB125
:10EA0000FFF7DAFF002803DB401C14E0102070BD84
:10EA1000314C083C20886288411C914201D9042075
:10EA200070BD6168102201EB0010314609F027FA31
:10EA30002088401C20802870002070BD70B51446CE
:10EA40000D0018D0BCB10021A170022802D01028FE
:10EA500011D105E0288870B10121A170108008E073
:10EA60002846FFF7A9FF002805DB401CA070A889F5
:10EA70002080002070BD012070BD70B50546144691
:10EA80000E000BD000203070A878012808D005D9DE
:10EA90001149A1F108010A8890420AD9012070BDEC
:10EAA00024B1287820702888000A5070022008704D
:10EAB0000FE064B14968102201EB001120461039C3
:10EAC00009F0DDF9287820732888000A6073102087
:10EAD0003070002070BD0000700000202DE9F04172
:10EAE00090460C4607460025FE48072F00EB881687
:10EAF00007D2DFE807F00707070704040400012531
:10EB000000E0FFDF06F81470002D13D0F5488030C8
:10EB100000EB880191F82700202803D006EB400085
:10EB2000447001E081F8264006EB4402202050703A
:10EB300081F82740BDE8F081F0B51F4614460E4627
:10EB40000546202A00D1FFDFE649E648803100EB88
:10EB5000871C0CEB440001EB8702202E07D00CEB46
:10EB6000460140784B784870184620210AE092F818
:10EB70002530407882F82500F6E701460CEB41008D
:10EB800005704078A142F8D192F82740202C03D09C
:10EB90000CEB4404637001E082F826300CEB410476
:10EBA0002023637082F82710F0BD30B50D46CE4BA0
:10EBB00044190022181A72EB020100D2FFDFCB4881
:10EBC000854200DDFFDFC9484042854200DAFFDFB1
:10EBD000C548401C844207DA002C01DB204630BDCA
:10EBE000C148401C201830BDBF48C043FAE710B5EB
:10EBF00004460168407ABE4A52F82020114450B1C0
:10EC00000220084420F07F40F9F7FBFE94F9081039
:10EC1000BDE81040C9E70420F3E72DE9F047B14E05
:10EC2000803696F82D50DFF8BC9206EB850090F800
:10EC3000264034E009EB85174FF0070817F8140059
:10EC4000012806D004282ED005282ED0062800D072
:10EC5000FFDF01F0E3F8014607EB4400427806EBE2
:10EC6000850080F8262090F82720A24202D1202299
:10EC700080F82720084601F0DCF82A4621460120CA
:10EC8000FFF72CFF9B48414600EB0410026820462A
:10EC9000904796F82D5006EB850090F82640202CE2
:10ECA000C8D1BDE8F087022000E003208046D0E70D
:10ECB00010B58C4C2021803484F8251084F826105F
:10ECC00084F82710002084F8280084F82D0084F8A8
:10ECD0002E10411EA16044F8100B20746074207344
:10ECE0006073A0738449E077207508704870002134
:10ECF0007C4A103C02F81100491CC9B22029F9D302
:10ED00000120F9F772FD0020F9F76FFD012084F86A
:10ED10002200F4F74FF87948F4F75BF8764CA41E1C
:10ED200020707748F4F755F86070BDE81040F9F7A7
:10ED3000E9BC10B5F9F70BFD6F4CA41E2078F4F771
:10ED400061F86078F4F75EF8BDE8104001F09EB815
:10ED5000202070472DE9F34F624E0025803606EBE8
:10ED6000810A89B09AF82500202822D0691E0291D4
:10ED70006049009501EB00108146D0E90112C0689E
:10ED80000391CDE90420B08BADF81C00B07F8DF865
:10ED90001E009DF81500C8B10227554951F82040C2
:10EDA0000399E219114421F07F41019184B10221BC
:10EDB0000FE00120F9F719FD0020F9F716FDF9F72A
:10EDC000E4FC01F063F886F82F50A0E00427E4E7A4
:10EDD00000218DF81810022801D0012820D10398B5
:10EDE000391901440998081A9DF81C1020F07F4039
:10EDF00001B10221333181420BD203208DF815007D
:10EE00000398C4F13201401A20F07F40322403906D
:10EE10000CE096F8240018B901F0A8F900284CD0AD
:10EE2000322C03D214B101F025F801E001F02EF8E4
:10EE3000314A107818B393465278039B121B002175
:10EE40009DF81840984601281AD0032818D00020B1
:10EE50008DF81E00002A04DD981A039001208DF819
:10EE600018009DF81C0000B102210398254A20F0EB
:10EE70007F40039003AB099801F014F810B110E043
:10EE80000120E5E79DF81D0018B99BF80000032854
:10EE900012D08DF81C50CDF80C808DF818408DF8EC
:10EEA0001E509DF8180058B103980123C119002283
:10EEB0001846F9F7EDFC06E000200BB0BDE8F08F36
:10EEC0000120F9F792FC99F90C2001230020019907
:10EED000F9F7DEFC012086F82F008AF8285020225E
:10EEE000694611E004070020FF7F841E0020A1076F
:10EEF000588401000405002082000020570501000D
:10EF00001BEC0000FFFF3F00F94808F0FDFF012067
:10EF1000D3E72DE9F05FDFF8D883064608EB8600DB
:10EF200090F82550202D1FD0A8F180002C4600EB32
:10EF30008617A0F50079DFF8BCB305E0A24607EB21
:10EF40004A004478202C0AD0F9F7EEFC09EB0413B0
:10EF50005A4601211B1D00F0A5FF0028EED0AC424F
:10EF600002D0334652461EE0E34808B1AFF30080BA
:10EF7000F9F7DAFC98F82F206AB1D8F80C20411C78
:10EF8000891A0902CA1701EB12610912002902DD70
:10EF90000020BDE8F09F3146FFF7DCFE08B10120FC
:10EFA000F7E733462A4620210420FFF7C5FDEFE7A7
:10EFB0002DE9F041CE4C2569F9F7B6FC401B000263
:10EFC000C11700EB1160001200D4FFDF94F822009B
:10EFD00000B1FFDF012784F8227094F82E0020286A
:10EFE00000D1FFDF94F82E60202084F82E00002549
:10EFF00084F82F5084F8205084F82150BF482560B1
:10F000000078022833D0032831D000202077A06870
:10F01000401C05D04FF0FF30A0600120F9F7E5FB60
:10F020000020F9F7E2FBF9F7DAFCF9F7D2FCF9F77F
:10F03000ACFB08F0A7F9B248056005604FF0E0218D
:10F040004FF40040B846C1F88002F3F721FE94F86F
:10F050002D703846FFF75DFF0028FAD0A4488038AD
:10F0600000EB871010F81600022802D006E00120FD
:10F07000CCE73A4631460620FFF730FD84F823807E
:10F0800004EB870090F82600202804D09B48801EBF
:10F090004078F3F7BDFE207F002803D0F9F78FFCFE
:10F0A0002577657746E50146914810B590F82D2003
:10F0B0000024803800EB821010F814302BB1641C4F
:10F0C000E4B2202CF8D3202010BD8E4800EB0410B1
:10F0D000016021460120FFF701FD204610BD10B55B
:10F0E000012801D0032800D171B3814A92F82D3054
:10F0F0007F4C0022803C04EB831300BF13F81240C6
:10F100000CB1082010BD521CD2B2202AF6D37B4A83
:10F1100048B1022807D0072916D2DFE801F015060A
:10F12000080A0C0E100000210AE01B2108E03A2119
:10F1300006E0582104E0772102E0962100E0B521A5
:10F1400051701070002010BD072010BD6B4810B525
:10F150004078F9F756FC80B210BD10B5202811D2C6
:10F16000634991F82D30A1F1800202EB831414F869
:10F1700010303BB191F82D3002EB831212F81020C1
:10F18000012A01D0002010BD91F82D200146002059
:10F19000FFF7A4FC012010BD10B5F9F7C5FBBDE8D1
:10F1A0001040F9F72EBC2DE9F0410E46504F017882
:10F1B0002025803F0C4607EB831303E0254603EB35
:10F1C00045046478944202D0202CF7D108E0202C2A
:10F1D00006D0A14206D103EB41014978017007E056
:10F1E0000020A7E403EB440003EB4501407848709E
:10F1F000454F7EB127B1002140F2DA30AFF30080F5
:10F200003078A04206D127B1002140F2DD30AFF3C3
:10F210000080357027B1002140F2E230AFF300806A
:10F22000012087E410B542680B689A1A1202D417BD
:10F2300002EB1462121216D4497A91B1427A82B961
:10F24000324A006852F82110126819441044001D17
:10F25000891C081A0002C11700EB11600012322845
:10F2600001DB012010BD002010BD2DE9F0478146D3
:10F270001F48244E00EB8100984690F8254020203E
:10F28000107006F50070154600EB81170BE000BF0B
:10F2900006EB04104946001DFFF7C4FF28B107EB39
:10F2A00044002C704478202CF2D1297888F8001082
:10F2B00013E000BF06EB0415291D4846FFF7B2FF17
:10F2C00068B988F80040A97B99F80A00814201D802
:10F2D0000020E6E407EB44004478202CEAD101202A
:10F2E000DFE42DE9FC410E4607460024054D18E0F9
:10F2F00084070020FFFF3F00000000008200002084
:10F3000000F50040040500200000000058840100C2
:10F310009DF8000005EB00108168384600F0D6FD2E
:10F3200001246B4601AA31463846FFF79EFF0028AC
:10F33000EED02046BDE8FC8170B50446FF480125AB
:10F34000A54300EB841100EB8510402208F097FDE7
:10F35000FB4E26B1002140F25C40AFF30080F7483D
:10F36000803000EB850100EB8400D0F82500C1F867
:10F37000250026B100214FF48C60AFF300802846B1
:10F3800070BD2DE9FC418446EC481546089C00EB15
:10F3900085170E4617F81400012803D0022801D063
:10F3A0000020C7E70B46E74A0121604600F07AFDDE
:10F3B000A8B101AB6A4629463046FFF756FF70B147
:10F3C000DE489DF804209DF80010803000EB850693
:10F3D0008A4208D02B460520FFF7AEFB0BE02A46F9
:10F3E0002146042014E0202903D007EB4100407897
:10F3F00001E096F8250007EB440148709DF80000F5
:10F40000202809D007EB400044702A4621460320FB
:10F41000FFF764FB01208DE706F8254F0120F0700F
:10F42000F3E7C94901EB0010001DFFF7E0BB7CB515
:10F430001D46134604460E4600F1080221461846B2
:10F44000F9F7ECFA94F908000F2804DD1F38207250
:10F450002068401C206096B10220BC4951F826105B
:10F46000461820686946801B20F07F40206094F990
:10F4700008002844C01C1F2803DA012009E00420EA
:10F48000EBE701AAF9F7CAFA9DF8040010B1009859
:10F49000401C00900099206831440844C01C20F0B2
:10F4A0007F4060607CBD2DE9FE430C46064609782E
:10F4B00060799072207998461546507241B19F4804
:10F4C000803090F82E1020290AD00069401D0BE0F2
:10F4D000D4E90223217903B02846BDE8F043A6E72A
:10F4E0009B484178701D084420F07F472179002215
:10F4F0002846A368FFF79BFF3946284600F0E6FC44
:10F50000D4E9023221796846FFF791FF4146284647
:10F51000019CFFF7E6FE2B4622460021304600F014
:10F52000C1FC002803D13146284600F0CFFCBDE8DD
:10F53000FE832DE9FE4F814600F084FC30B10027A8
:10F5400099F8000020B10020BDE8FE8F0127F7E701
:10F550007A4D7B4C4FF0000A803524B1002140F2F7
:10F56000D340AFF3008095F82D8085F823A00026C6
:10F5700024B100214FF49B60AFF300801FB94046D7
:10F58000FFF7DAFE804624B100214FF49C60AFF310
:10F590000080F9F7C9F943466A464946FFF783FFF9
:10F5A00024B1002140F2E640AFF3008095F82E0030
:10F5B00020280CD029690098401A0002C21700EBDD
:10F5C0001260001203D5684600F080FC012624B1C9
:10F5D00000214FF49E60AFF3008095F823000028CF
:10F5E000BBD124B1002140F2F640AFF30080F9F71F
:10F5F0009BF96B46534A002100F054FC0028A3D02D
:10F6000027B941466846FFF76CFE064326B16846B7
:10F61000FFF7EDFAC9F8080024B1002140F20950C3
:10F62000AFF3008001208FE72DE9FF5F8A46814616
:10F6300000F008FC414C803410B39AF80000002719
:10F6400010B1012800D0FFDF3D4D25B1002140F26F
:10F650007F50AFF300800120A84600905FEA0806C3
:10F6600004D0002140F28750AFF30080009800F0F2
:10F67000E0FB94F82D50002084F8230067B119E0D6
:10F6800094F82E000127202800D1FFDF9AF800000F
:10F690000028D9D0FFDFD7E72846FFF74DFE054603
:10F6A00026B1002140F29150AFF3008094F823007E
:10F6B0000028D3D126B1002140F29B50AFF3008047
:10F6C000F9F732F983462B4601AA5146FFF7EBFEC4
:10F6D0005FEA060804D0002140F2A250AFF3008098
:10F6E0003B462A4601A95846CDF80090FFF749FE4F
:10F6F000064604EB850090F828B0B8F1000F04D05E
:10F70000002140F2A950AFF3008000F087FB009089
:10F71000B8F1000F04D0002140F2AF50AFF30080E9
:10F7200094F82300002899D1B8F1000F04D00021EB
:10F7300040F2B750AFF3008003490BE0040700200C
:10F7400000000000FFFF3F00040500205884010076
:10F750008200002001EB09100DF1040C00F10400FF
:10F760009CE80E0080E80E004EB35FEA080604D065
:10F77000002140F2C450AFF300803BEA070012D0F2
:10F7800094F82E0020280ED126B1002140F2C95055
:10F79000AFF300802846FFF7BCFB20B99AF80000C1
:10F7A000D8B3012849D0B8F1000F04D0002140F2AD
:10F7B000E650AFF30080284600F029FB01265FEAFF
:10F7C000080504D0002140F2EF50AFF3008000980C
:10F7D00000F02FFB25B1002140F2F350AFF3008081
:10F7E0008EB194F82D0004EB800090F826002028BC
:10F7F00009D025B1002140F2FA50AFF30080F9485A
:10F800004078F3F705FB25B1002140F2FF50AFF33C
:10F81000008004B03046BDE8F09FFFE7B8F1000F6C
:10F8200004D0002140F2D150AFF3008094F82D2095
:10F8300049460420FFF752F9C0E7002E3FF40EAF0F
:10F84000002140F2DC50AFF3008007E72DE9F84FCC
:10F85000E54D814695F82D004FF00008E34C4FF040
:10F86000010B474624B1002140F20D60AFF3008048
:10F87000584600F0DEFA85F8237024B1002140F2EA
:10F880001260AFF3008095F82D00FFF755FD064696
:10F8900095F8230028B1002CE4D000214FF4C36078
:10F8A0004BE024B1002140F21C60AFF30080CE4851
:10F8B000803800EB861111F81900032856D1334621
:10F8C00005EB830A4A469AF82500904201D10120AF
:10F8D00000E0002000900AF125000021FFF763FC02
:10F8E00001460098014203D001228AF82820AF7710
:10F8F000E1B324B1002140F22160AFF30080324631
:10F9000049460120FFF7EAF89AF828A024B100211F
:10F9100040F22C60AFF3008000F080FA834624B1FF
:10F92000002140F23160AFF3008095F8230038B138
:10F93000002C97D0002140F23560AFF3008091E7B2
:10F94000BAF1000F07D095F82E00202803D13046D9
:10F95000FFF7DFFAE0B124B1002140F24960AFF3D4
:10F960000080304600F053FA4FF0010824B1002126
:10F9700040F25260AFF30080584600F05AFA24B1CA
:10F98000002140F25660AFF300804046BDE8F88F9A
:10F99000002CF1D0002140F24460AFF30080E6E794
:10F9A0000020F8F7FBBE0120F8F7F8BE8D4800787C
:10F9B00070472DE9F0418C4C94F82E0020281FD17F
:10F9C00094F82D6004EB860797F82550202D00D180
:10F9D000FFDF8549803901EB861000EB4500407858
:10F9E00007F8250F0120F87084F82300294684F8D1
:10F9F0002E50324602202234FFF770F8002020708B
:10FA00000FE42DE9F0417A4E774C012538B10128F9
:10FA100021D0022879D003287DD0FFDFF0E700F065
:10FA200029FAFFF7C6FF207E00B1FFDF84F82150DE
:10FA30000020F8F7DAFEA168481C04D00123002258
:10FA40001846F8F725FF14F82E0F217806EB011160
:10FA50000A68012154E0FFF7ACFF0120F8F7C5FE6A
:10FA600094F8210050B1A068401C07D014F82E0F64
:10FA7000217806EB01110A68062141E0207EDFF8BB
:10FA80006481002708F10208012803D002281ED053
:10FA9000FFDFB5E7A777F8F792FF98F80000032893
:10FAA00001D165772577607D524951F8200094F89F
:10FAB000201051B948B161680123091A0022184683
:10FAC000F8F7E6FE022020769AE7277698E784F892
:10FAD000205000F0CFF9A07F50B198F80100616884
:10FAE0000123091A00221846F8F7D2FE257600E015
:10FAF000277614F82E0F217806EB01110A680021F1
:10FB0000BDE8F041104700E005E036480078BDE868
:10FB1000F041F3F77DB9FFF74CFF14F82E0F217871
:10FB200006EB01110A680521EAE710B52E4C94F89E
:10FB30002E00202800D1FFDF14F82E0F21782C4A48
:10FB400002EB01110A68BDE81040042110477CB5A2
:10FB5000254C054694F82E00202800D1FFDFA06830
:10FB6000401C00D0FFDF94F82E00214901AA01EBD0
:10FB70000010694690F90C002844F8F74FFF9DF9F2
:10FB800004000F2801DD012000E000200099084456
:10FB90006168084420F07F41A16094F821000028AA
:10FBA00007D002B00123BDE8704000221846F8F7E4
:10FBB0006FBE7CBD30B5104A0B1A541CB3EB940FCA
:10FBC0001ED3451AB5EB940F1AD3934203D9101ADA
:10FBD00043185B1C14E0954210D9511A0844401C8C
:10FBE00043420DE080000020840700200000000058
:10FBF0000405002058840100FF7F841EFFDF0023DE
:10FC0000184630BD0123002201460220F8F740BE0D
:10FC10000220F8F7EABDF8F787BE2DE9FC47B14CA2
:10FC2000054694F82E00202800D1FFDF642D58D31C
:10FC3000AD4A0021521B71EB010052D394F82E20E3
:10FC4000A0462046DFF8A49290F82D7009EB02142C
:10FC5000D8F8000001AA28446946F8F7DFFE9DF9AC
:10FC60000400002802DD0098401C0090A068009964
:10FC700062684618B21A22F07F42B2F5800F30D285
:10FC800008EB8702444692F82520202A0AD009EB87
:10FC900002125268101A0002C21700EB1260001222
:10FCA00088421EDBA068401C10D0F8F73DFEA1681A
:10FCB000081A0002C11700EB11600012022810DDC3
:10FCC0000120F8F792FD4FF0FF30A0602068284433
:10FCD000206026F07F402061012084F82300BDE8E9
:10FCE000FC870020FBE72DE9F0477E4C074694F89F
:10FCF0002D00A4F1800606EB801010F8170000B963
:10FD0000FFDF94F82D50A046794C24B1002140F635
:10FD10006500AFF3008040F6710940F67A0A06EB01
:10FD2000851600BF16F81700012818D0042810D037
:10FD300005280ED006280CD01CB100214846AFF390
:10FD4000008020BF002CEDD000215046AFF3008092
:10FD5000E8E72A4639460120FEF7C0FEF2E74FF0F9
:10FD6000010A4FF00009454624B1002140F6810008
:10FD7000AFF30080504600F05CF885F8239024B182
:10FD8000002140F68600AFF3008095F82D00FFF7C4
:10FD9000D3FA064695F8230028B1002CE4D00021C0
:10FDA00040F68C001FE024B100214FF40960AFF34E
:10FDB000008005EB860000F1270133463A462630E5
:10FDC000FFF7F1F924B1002140F69400AFF3008071
:10FDD00000F024F8824695F8230038B1002CC3D0F7
:10FDE000002140F69A00AFF30080BDE785F82D6052
:10FDF000012085F82300504600F01BF8002C04D0A9
:10FE0000002140F6A700AFF30080BDE8F087354938
:10FE100081F82D00012081F82300704710B5354886
:10FE200008B1AFF30080EFF3108000F0010072B66C
:10FE300010BD10B5002804D12F4808B1AFF30080E1
:10FE400062B610BD2D480068C005C00D10D0103836
:10FE500040B2002806DA00F00F0000F1E02090F830
:10FE6000140D03E000F1E02090F800044009704711
:10FE70000820704710B51B4C94F82400002804D1CA
:10FE8000F8F72EFE012084F8240010BD10B5154CA3
:10FE900094F82400002804D0F8F74BFE002084F8E2
:10FEA000240010BD10B51C685B68241A181A24F0D1
:10FEB0007F4420F07F40A14206D8B4F5800F03D2E2
:10FEC000904201D8012010BD002010BDD0E90032C1
:10FED000D21A21F07F43114421F07F41C0E9003163
:10FEE0007047000084070020FF1FA10704050020C1
:10FEF00000000000000000000000000004ED00E031
:10FF00002DE9F041044680074FF000054FF001064F
:10FF100004D55C480560066024F00204E0044FF05C
:10FF2000FF3705D558484660C0F8087324F480545C
:10FF3000600003D55548056024F08044E0050FD5E6
:10FF40005348C0F80052C0F8087352490D60091DAB
:10FF50000D60504A04210C321160066124F4807453
:10FF6000A00409D54C484660C0F80052C0F8087398
:10FF70004A48056024F40054C4F38030C4F3C0310F
:10FF8000884200D0FFDF14F4404F14D0444846604C
:10FF9000C0F8087343488660C0F80052C0F8087380
:10FFA00041490D600A1D16608660C0F808730D6037
:10FFB000166024F4404420050AD53C48466086601B
:10FFC000C0F80873C0F848733948056024F4006429
:10FFD00007F0B2F93748044200D0FFDFBDE8F081F6
:10FFE00070B520250022134620FA02F1C90719D066
:10FFF00051B201F01F060124B4404E09B60006F1CB
:020000040001F9
:10000000E026C6F88041C6F88042002906DA01F0F1
:100010000F0101F1E02181F8143D03E001F1E0213D
:1000200081F80034521CAA42DED370BD70B5224C58
:100030000D462060FFF764FF2068FFF7D1FF2846D8
:10004000F8F72BFE06F0EEFD00F0DDF807F074F98E
:1000500007F0BFF8F2F7AEFEBDE8704006F090BEC4
:1000600010B5154C2068FFF74BFF2068FFF7B8FF6D
:1000700007F062F9F8F7A4FE0020206010BD0A2006
:1000800070470000FC1F004000C0004004E5014034
:10009000008000400485004000D0004004D50040AE
:1000A00000E0004000F0004000F5004000B00040DB
:1000B00008B50040FEFF0FFD8400002070B5264902
:1000C0000A680AB30022154601244B685B1C4B608A
:1000D000092B00D34D600E7904FA06F30E681E4218
:1000E0000FD0EFF3108212F0010272B600D001229D
:1000F0000C689C430C6002B962B64968016000203C
:1001000070BD521C092AE0D3052070BD4FF0E021DC
:100110004FF48000C1F800027047EFF3108111F036
:10012000010F72B64FF0010202FA00F20A480368AA
:1001300042EA0302026000D162B6E7E70648002106
:100140000160416070470121814003480068084018
:1001500000D00120704700008800002001208107A6
:1001600008607047012081074860704712480068A6
:10017000C00700D0012070470F48001F0068C0076B
:1001800000D0012070470C4808300068C00700D03C
:1001900001207047084810300068704706490C314C
:1001A0000A68D20306D5096801F00301814201D132
:1001B00001207047002070470C0400402DE9F041F9
:1001C00015460E460446002700F0E7F8A84215D36E
:1001D000002341200FE000BF94F84220A25CF254BB
:1001E00094F84210491CB1FBF0F200FB12115B1CA9
:1001F00084F84210DBB2AB42EED3012700F0D9F80D
:100200003846BDE8F081704910B5802081F80004BF
:100210006E49002081F8420081F84100433181F8A5
:10022000420081F84100433181F8420081F84100E9
:10023000674806F017FF6648401C06F013FFF2F708
:1002400033FDBDE8104000F0B4B8402070475F486F
:1002500000F0A3B80A4601465C48AFE7402070476B
:100260005A48433000F099B80A460146574843308F
:10027000A4E7402101700020704710B504465348A0
:10028000863000F08AF82070002010BD0A46014632
:100290004E4810B58630FFF791FF08B1002010BD21
:1002A00042F2070010BD70B50C460546412900D941
:1002B000FFDF48480068103840B200F050F8C6B27E
:1002C0000D2000F04CF8C0B2864203D2FFDF01E0FF
:1002D000F2F732FD224629463C48FFF76FFF00281F
:1002E000F6D070BD2DE9F041394F002506463F1D7F
:1002F00057F82540204600F041F810B36D1CEDB2D0
:10030000032DF5D33148433000F038F8002825D0CC
:100310002E4800F033F8002820D02C48863000F01A
:100320002DF800281AD0F2F7E5FC294806F0A2FEC5
:10033000B0F5005F00D0FFDFBDE8F041244806F0D3
:10034000AFBE94F841004121265414F8410F401CDF
:10035000B0FBF1F201FB12002070D3E751E7002857
:1003600006DA00F00F0000F1E02090F8140D03E031
:1003700000F1E02090F800044009704710F8411F98
:100380004122491CB1FBF2F302FB13114078814278
:1003900001D1012070470020704710F8411F4078BC
:1003A000814201D3081A02E0C0F141000844C0B202
:1003B000704710B5064806F05DFE002803D1BDE881
:1003C0001040F2F782BC10BD0DE000E0B407002041
:1003D0009000002004ED00E02DE9F0410125280304
:1003E0004FF0E0210026C1F880011E4CC4F80061E6
:1003F0000C2000F02CF81C4801680268C94341F346
:10040000001142F010020260C4F804532560491C38
:1004100000E020BFD4F80021002AFAD019B9016801
:1004200021F010010160114807686560C4F80853A5
:10043000C4F800610C2000F00AF83846BDE8F081ED
:1004400010B50446FFF7C8FF2060002010BD00F083
:100450001F02012191404009800000F1E020C0F816
:100460008012704700C0004010ED00E008C5004059
:100470002DE9F047FF4C0646FF21A06800EB06126D
:1004800011702178FF2910D04FF0080909EB0111F4
:1004900009EB06174158C05900F0F4F9002807DDB0
:1004A000A168207801EB061108702670BDE8F0877E
:1004B00094F8008045460DE0A06809EB051141580D
:1004C000C05900F0DFF9002806DCA068A84600EB60
:1004D00008100578FF2DEFD1A06800EB061100EBA6
:1004E00008100D700670E1E7F0B5E24B04460020FD
:1004F00001259A680C269B780CE000BF05EB0017DD
:10050000D75DA74204D106EB0017D7598F4204D01C
:10051000401CC0B28342F1D8FF20F0BD70B5FFF798
:100520007AFBD44C08252278A16805EB0212895881
:1005300000F0A8F9012808DD2178A06805EB011179
:100540004058BDE87040FFF75DBBFFF72FFABDE8EC
:100550007040F2F75DBC2DE9F041C64C2578FFF7FD
:100560005AFBFF2D6ED04FF00808A26808EB051665
:10057000915900F087F90228A06801DD80595DE0FB
:1005800000EB051109782170022101EB0511425C95
:100590005AB1521E4254815901F5800121F07F4128
:1005A00081512846FFF764FF34E00423012203EB66
:1005B000051302EB051250F803C0875CBCF1000F75
:1005C00010D0BCF5007F10D9CCF3080250F806C05B
:1005D0000CEB423C2CF07F4C40F806C0C3589A1AF2
:1005E000520A09E0FF2181540AE0825902EB4C32A1
:1005F00022F07F428251002242542846FFF738FF02
:100600000C21A06801EB05114158E06850F8272043
:10061000384690472078FF2814D0FFF7FCFA22785C
:10062000A16808EB02124546895800F02BF9012811
:1006300093DD2178A06805EB01114058BDE8F04139
:10064000FFF7E0BABDE8F081F0B51D4614460E464E
:100650000746FF2B00D3FFDFA00700D0FFDF854850
:10066000FF210022C0E90247C57006710170427087
:1006700082701046012204E002EB0013401CE1549A
:10068000C0B2A842F8D3F0BD70B57A4C0646657882
:100690002079854200D3FFDFE06840F8256060786C
:1006A000401C6070284670BD2DE9FF5F1D468B46DB
:1006B0000746FF24FFF7AFFADFF8B891064699F82E
:1006C0000100B84200D8FFDF00214FF001084FF0D1
:1006D0000C0A99F80220D9F808000EE008EB011383
:1006E000C35CFF2B0ED0BB4205D10AEB011350F8BF
:1006F00003C0DC450CD0491CC9B28A42EED8FF2C9D
:1007000002D00DE00C46F6E799F803108A4203D1B7
:10071000FF2004B0BDE8F09F1446521C89F8022067
:1007200008EB04110AEB0412475440F802B004210C
:10073000029B0022012B01EB04110CD040F8012098
:100740004FF4007808234FF0020C454513D9E90512
:10075000C90D02D002E04550F2E7414606EB4132B6
:1007600003EB041322F07F42C250691A0CEB04120F
:10077000490A81540BE005B9012506EB453103EB2D
:10078000041321F07F41C1500CEB0411425499F83D
:1007900000502046FFF76CFE99F80000A84201D0F7
:1007A000FFF7BCFE3846B4E770B50C460546FFF7C8
:1007B00032FA064621462846FFF796FE0446FF28F1
:1007C0001AD02C4D082101EB0411A868415830467D
:1007D00000F058F800F58050C11700EBD1404013ED
:1007E0000221AA6801EB0411515C09B100EB412020
:1007F000002800DC012070BD002070BD2DE9F0470D
:1008000088468146FFF770FE0746FF281BD0194D2A
:100810002E78A8683146344605E0BC4206D026460C
:1008200000EB06121478FF2CF7D10CE0FF2C0AD055
:10083000A6420CD100EB011000782870FF2804D0EC
:10084000FFF76CFE03E0002030E6FFF7E1F94146D8
:100850004846FFF7A9FF0123A968024603EB0413EA
:10086000FF20C854A878401EB84200D1A87001EB00
:10087000041001E08008002001EB061100780870E8
:10088000104613E6081A0002C11700EB11600012AF
:100890007047000070B50446A0F500002D4EB0F181
:1008A000786F02D23444A4F500042B48844201D26C
:1008B000012500E0002500F043F848B125B9B44215
:1008C00004D32648006808E0012070BD002070BDF8
:1008D000002DF9D1B442F9D321488442F6D2F3E78E
:1008E00010B50446A0F50000B0F1786F03D21948A6
:1008F0000444A4F5000400F023F84FF0804130B127
:100900001648006804E08C4204D2012003E0144839
:100910008442F8D2002080F0010010BD10B520B153
:10092000FFF7DEFF08B1012010BD002010BD10B59B
:1009300020B1FFF7AFFF08B1012010BD002010BDAE
:10094000084809490068884201D101207047002009
:1009500070470000000000200090010020000020EF
:1009600008000020A4000020BEBAFECA0348044AC2
:100970000168914201D1002101607047A40000206C
:10098000BEBAFECA45480021017041701021817035
:10099000704770B5054616460C460220F2F739F945
:1009A0003E490120F61E08703D4806603C48083864
:1009B0000560001F046070BD10B50220F2F729F930
:1009C00036490120087000F051F836494FF4000014
:1009D000086010BD10B5314C207888B131494FF412
:1009E0000000091D086000F04AF8002120B1012034
:1009F00060702D48006801E061701020A0702170C7
:100A0000BDE810400020F2F704B9244810B5017881
:100A100059B12648D0F8000128B100F030F800287C
:100A200000D0012010BD022010BD407810BD10B5CF
:100A3000C824641EE4B2FFF7E8FF022803D00128AF
:100A400000D0002010BD002CF3D1FFDFF9E71348E0
:100A500010B5017841B100F012F818B112480068E1
:100A6000C0B210BD102010BD807810BD0F4800210D
:100A7000C0F80011C0F80411C0F8081170470B4805
:100A8000D0F8001129B1D0F8041111B1D0F8080143
:100A900008B100207047012070470000A800002026
:100AA00010F5004004F5014000F4004000F0004063
:100AB0004548002101704170704770B506461446E4
:100AC0000D460120F2F7A5F840480660001D0460BD
:100AD000001D056070BD70B53B4B012540EA024228
:100AE0001D703A4B1B1F1A60384A10321160384C87
:100AF0000026C4F80461374A4FF04071116058B1C4
:100B0000012800D0FFDFC4F80062256031494FF0B2
:100B10000070091F086070BDC4F80052256070BDE8
:100B20002948017871B12B4A4FF040711160284972
:100B3000D1F8042100211AB1274A1268427000E05E
:100B4000417001700020F2F764B81F48017841B18C
:100B50001F48D0F80401002802D01F480068C0B226
:100B600070474078704770B5002827D01648007845
:100B700000B9FFDF1648D0F8041100291ED1022366
:100B8000C0F8043315490A680C68D24342F30012D6
:100B900044F010040C609C034FF0E025521C02E06E
:100BA000C5F8804220BFD0F80461002EF8D01AB9F1
:100BB0000A6822F010020A60C0F8083370BD0449C8
:100BC0000120886070470000AB00002008F500405D
:100BD00000F0004008F5014000F4004010ED00E096
:100BE000FA4808B50021C0F80011C0F80C11C0F88F
:100BF0001011C0F80411C0F81411C0F81811F4480D
:100C00000068009008BD70B5F24D00246C702C7027
:100C100000F02FFD85F82140AC62092105F1140098
:100C20006C6307F0CDF9EC49601E0860091D08608F
:100C3000091D0C60091D0860091D0C60091D086074
:100C4000091D0860091D0860091D0860091D08606C
:100C5000091D0860091D0860091D0860091D08605C
:100C600070BDDE4800B5016801F00F01032905D011
:100C7000006800F00F00042802D0FFDF012000BD53
:100C8000022000BD70B5D3490268D54C4A61426864
:100C90008A61007A08770C3C0A7DD14B251F012020
:100CA00042B10E7E00FA06F21A608E7D0EB122600D
:100CB00000E02A604A7D002A05D04A7E90401860F4
:100CC000C97D09B1206070BD286070BD00F0D8BC3E
:100CD00010B500F0D5FCBD48D0F80001002800D0C8
:100CE000FFDF10BD10B5012000F0ADFCBD480024B1
:100CF000046001210160B94A40F25B602832106053
:100D0000121F40F203101060101F0160B34903204E
:100D10000860B249962034310860B449B24808608E
:100D2000B249B3489C310860A9480838091F0860D7
:100D3000012000F093FCA5491020C1F80403A54848
:100D400080F82D4010BDA34A0368C2F802308088A5
:100D5000D080117270479F4890F8210070479D4ADB
:100D6000517010707047F0B50546840097488B8825
:100D70002044C0F820360B78D1F8011043EA012155
:100D8000C0F8001605F1080001279A4C07FA00F692
:100D900052B1012A00D0FFDF206830432060206874
:100DA000AF4038432060F0BD2068B043F6E706F05E
:100DB000FBBB884890F82E007047884AC1781432EF
:100DC00011600068854900020C31086070472528D1
:100DD00007D0262807D0272807D00A2807D80422BA
:100DE00006E0022107E01A2105E0502103E0062277
:100DF00002EB4001C9B2794A083A1160774944319F
:100E0000086070477348817A012915D0022912D1F0
:100E1000417D00290FD0827E0121C37E01FA02F2BA
:100E200099400A4371490A60007F734A002102EB2E
:100E30008000C0F810157047017DEAE72DE9F04702
:100E400082466448847A012C10D0022C7DD1437DE7
:100E5000002B7AD0694BDFF8A8914FF47A77012CF8
:100E600006D0467EC47D7CB3012535E0037DEFE7E7
:100E7000067E847D0CB1012500E000254FF4C86496
:100E800040F6980C40F6E44801290ED0022A1CD006
:100E9000012A03D0042A1BD05A4B4446191901F5E4
:100EA000FA7100BFB1FBF7F123E0022A08D0012A52
:100EB00002D0042A06D0444649F6FC612144F1E7F9
:100EC0003C46F9E76446F7E705E04F4B3C46E5E76B
:100ED0004B466446E2E70025012940D0022A40D073
:100EE000012A02D0042A3FD0484B03F2E143B3FB6E
:100EF000F7F1474A491F514411603D4A0021403AE9
:100F0000C2F84C11310285F0010241EA025141F070
:100F10000313027F384901EB8204C4F81035847E44
:100F20003C4D01EB820305EBC401C1F814353A4A8C
:100F3000C1F81025C27E05EBC200C0F81435244963
:100F40000839C0F81015012000E006E000FA04F1AD
:100F5000904001432548001F0160BDE8F08729212A
:100F6000C7E7294B643BC0E74B46BEE72DE9F0419C
:100F70000F461649054603201646C1F800021B4CD1
:100F80002648241F2060384606F046FB304606F00F
:100F900035FB104815B1012D09D011E001218172F6
:100FA000416B41F4801141634FF4801007E002214E
:100FB0008172416B41F4001141634FF400102060D5
:100FC00032463946BDE8F041002037E700100040C6
:100FD0001811004090080020000E0040101500403D
:100FE00018050050FC1F004000000C0408F50140EB
:100FF000408000404016004000600040A2240200F3
:10100000D0FB010030D3010068360200C0D40100DB
:101010004C85004000F001404C8100400000040479
:1010200008B5FF208DF80000F8480021C0F8101125
:101030000121016105E000BF9DF80010491E8DF8F7
:1010400000109DF8001019B1D0F810110029F3D04C
:101050009DF80000002800D1FFDF08BD2DE9FF5FEB
:10106000EA4E0746002503209B468946C6F8000243
:10107000DFF8A083E649C8F80010029806F0CCFA21
:10108000584606F0BBFAE348E34CA8304FF0010A9B
:1010900017B1012F1DD02EE0066094F82D00012815
:1010A00005D002280BD0FFDF84F80AA023E094F8D3
:1010B0002C205B464846029906F02CFB06E094F88B
:1010C0002C305A464846029906F0B3FAA16A4518F0
:1010D000EAE7CE49091D016094F82D0094F82C2010
:1010E000012802995B4648463BD006F05CFBA16AAA
:1010F00045180220A072C9480560C649C848A431F5
:101100000860606B40F400206063D6F80072102421
:10111000C6F808430020C6F80002BE494FF48029F3
:10112000091DC1F8009006F50076FFF779FFFFF77B
:1011300057FD3760C8F80090C6F80441E103C8F8CD
:101140000010B849C1F84CA0B448001D0068A8427E
:1011500000D3FFDF029904B05A462846BDE8F05F8D
:101160006CE606F0A3FAC2E72DE9F041A74CD4F8EB
:10117000000220F00B06D4F804031027C0F300157A
:10118000C4F808734FF00008C4F80082A149A648CB
:10119000091D086004F50074FFF734FEFFF740FFF7
:1011A00044F8F08C00F065FA2660A4F50074002D78
:1011B00001D0C4F80473BDE8F08100689B4920F0B9
:1011C0007F400860704710B5012000F03CFABDE890
:1011D0001040012000F042BA4FF0E0210220C1F897
:1011E000000170479249087070479049383908608B
:1011F000704770B5884D0446A86AA04200D3FFDF4F
:1012000001202873874900202C61C1F844018348DC
:10121000001F0460BDE8704000F048BA70B57E4C15
:10122000064602200D462073FFF71BFD024694F888
:101230002D0094F82C1001280ED0304606F00BFB40
:10124000784920610020C1F844012169A06A08445E
:101250007249091F086070BD2B46304606F0CBFA74
:10126000EEE76C494FF48000091D08606A48416B45
:1012700021F4800141630021017370476E4A10B56B
:1012800002EBC0026B4BC2F81035C2F814150121F5
:101290008140604801606048426B0A43426310BD70
:1012A000604801214160C1600021C0F844115B48E1
:1012B000001F01605848816270475C492431086012
:1012C0005248D0F8001241F04001C0F800127047B7
:1012D0004E48D0F8001221F04001C0F800125349E6
:1012E00000202431086070474848D0F8001221F0EF
:1012F0001001C0F8001201218161704743480021AC
:10130000C0F81C11D0F8001241F01001C0F8001212
:1013100070473E4908B5D1F81C21012A01D00020B0
:1013200008BD424A0C32126802F07F02524202703B
:101330000020C1F81C013F481830006800900120CF
:1013400008BD30B50C00054600D1FFDFE00702D034
:10135000012C00D0FFDF55B102212F480129417235
:10136000C4722A4805D0022908D0FFDF30BD012110
:10137000F3E7D0F8001241F0040103E0D0F80012C6
:1013800041F00801C0F8001230BD70B5224C1F4B6F
:101390002246E17A527A8D074FF0010603D5850780
:1013A00001D5450713D4CD0605D594F82F5015B1B6
:1013B00094F831505DB10D0702D594F8205035B93D
:1013C000490702D594F8211009B1C00703D082B1B2
:1013D000BDE87040C8E662B10025012A2ED0022A7D
:1013E0003CD0FFDFA06A01222844BDE87040002104
:1013F00024E508490648091D0860D3F8000220F0DA
:101400000300C3F80002E67270BD00000010004047
:101410000000040404F501409008002048850040C5
:10142000488100400080004000000C043C15004052
:10143000AD0000200411004000F00140D3F800028C
:1014400020F00400C3F8000200F013F90123A67293
:101450001A460021962006F0ECF80FE0D3F80002BF
:1014600020F00800C3F8000200F003F90220A07287
:1014700001231A460021962006F018F90546B1E727
:101480002DE9F047BF4F3878042800D3FFDFDFF89D
:10149000F8A2DAF84C0108B1FFF7B4FCBB4CBC4928
:1014A000606B08600026666300F00BF9DFF8E482E9
:1014B0000546D8F800006062A8F104000068A06248
:1014C000FFF7CFFB84F82C00A07ADFF8CC9284F8E9
:1014D0002D00022808D1607830B1D9F800100978C1
:1014E0000140207888430ED084F82060A80706D5F4
:1014F0003978AA4A4908606A52F821108847E807F3
:1015000005D000210AE0012084F82000EEE7A807BA
:1015100001D5012102E0280707D502219F4A3B7827
:101520004832A06A52F8232090473878C0071DD16E
:10153000D9F800104846097801F00F01072913D2A5
:1015400001680622A01C093106F06DFC40B9217A21
:10155000D9F800000078B1EBD01F01D1012000E0E4
:10156000002084F8210001E084F821602846FFF77C
:101570000CFFE80702D08948083014E0A80709D515
:1015800086483978183050F8211045F38000401C07
:1015900088470EE0280702D58048283003E0E80697
:1015A00006D57E483830397850F82100804700E071
:1015B000FFDFA07A022819D1207B002816D0CAF8B4
:1015C000446102280ED0012800D0FFDFA16A206903
:1015D000884200D8FFDF2169C8F80010BDE8F04755
:1015E00000F064B82169A06A0144F5E7B5E400B5EC
:1015F000012802D0022802D0FFDF282000BD1820D9
:1016000000BD10B541F6A474012802D0022802D012
:10161000FFDF204610BD41F2883010BD10B541F209
:10162000D474012802D0022802D0FFDF204610BD6A
:1016300041F2040010BD00B5012802D0022800D0FC
:10164000FFDF002000BD00F01F0201219140400992
:10165000800000F1E020C0F88011704700F01F0208
:10166000012191404009800000F1E020C0F8801283
:10167000704746480021417281720121C172704752
:1016800030B500240546012902D002290BD0FFDF26
:1016900043480443404810300460424805433E48F4
:1016A0001430056030BD4FF08074F1E73748416B6E
:1016B00041F48001416336494FF48000091F0860FE
:1016C0007047F8B5314C304E0020217B19B1D6F867
:1016D0004411012907D00023A27A3349012A04D0FA
:1016E000022A0AD019E00123F6E7D1F80C010128FB
:1016F00001D0002011E008200FE0D1F80C010128F2
:1017000006D0002229480068012803D0042002E006
:101710000222F7E7002010431843D1F81021012AD4
:101720002ED0002505432248026812F0FF0F03D097
:10173000D1F81421012A00D0002284F82E2000685C
:1017400010F0FF0F03D0D1F81801012800D00020BD
:1017500084F82F0015481030006884F83000FFF737
:1017600054F9012800D0002084F83100FFF738FA3E
:101770000020C6F844010F48006800902846F8BDD4
:101780001025CFE7AD000020008000409008002029
:1017900008F50140448500400415004070840100B4
:1017A0000801100000000302001000400014004077
:1017B000401600404481004010B54348222106F005
:1017C000DDFB41480024017821F010010170012166
:1017D00005F00FF93C494FF6FF70263981F8224099
:1017E00088843A490880488010BDE5E7704700F0DA
:1017F0005FB8354901607047344908807047324905
:1018000026398A8CA2F57F43FF3B02D0002101607C
:1018100008E091F822202C492639012A02D00160E3
:1018200001207047002070472748263810F8221FF3
:10183000012908D001210170244823492639008854
:1018400088840120704700207047204948807047F5
:101850001D491E4B26398A8C5B889A4205D191F826
:10186000222012B101600120704700207047164805
:10187000164A2638818C5288914209D14FF6FF7161
:10188000818410F8221F19B10021017001207047D6
:10189000002070470C480D4A2638818C52889142AE
:1018A00004D190F8220008B1002070470120704751
:1018B000054926398A8C824205D1002081F8220010
:1018C0004FF6FF7088847047EE080020AE000020BD
:1018D00070473C4A012338B1012804D113700868CD
:1018E000906088889081704753700868C2F8020041
:1018F0008888D0807047334A10B1012807D00EE0A5
:10190000507860B1D2F802000860D08804E0107806
:1019100028B1906808609089888001207047002075
:101920007047284910B1012802D005E0487800E04E
:10193000087808B1012070470020704730B50C4688
:1019400005468DB04FF0030104F1030012B1FEF71C
:101950008BFC01E0FEF7A7FC60790D2120F0C000B0
:1019600040F04000607104A806F02AFBE0788DF892
:101970001F0020798DF81E0060798DF81D0010225F
:101980002946684606F07BFA684605F0E5F99DF8B9
:101990002F0020709DF82E0060709DF82D00A07023
:1019A0000DB030BD10B5002904464FF0060102D03D
:1019B000FEF75AFC01E0FEF776FC607920F0C000EB
:1019C000607110BDB2000020FE4A137882F8EF303B
:1019D000A2F8F00082F8EE10012082F8EC0092F8F4
:1019E000C00008B192F8BC0082F8F200704770B5F0
:1019F000F54E0446316891F8FA00002501280DD013
:101A000091F8F400012818D091F8CA0001281ED0DE
:101A100091F8EC00012838D0002070BD65701720C7
:101A2000207051F8FB0FC4F802004868C4F80600A3
:101A3000087AA07201F8015C32E065700520207020
:101A4000D1F8F600C4F8020081F8F45028E065707F
:101A5000112020702022A01CCC3106F010FA0121A8
:101A6000A171306880F8CA50D648B0F8CE20A0F8EE
:101A7000F6207268537B80F8F83080F8F4101088F4
:101A8000FBF78CFBFBF751F80AE065701320207020
:101A900051F8EE0FC4F802008888E08001F8025C7B
:101AA000012070BDC848006890F8CA1011B1B0F8A4
:101AB000CE0070474FF6FF70704770B5C24C20687B
:101AC00000B9FFDF2068417811B10C25284670BDB0
:101AD00000254FF4827106F073FA2168FF20087028
:101AE0007F2081F8360013204884282081F8C80020
:101AF000012081F8B800002081F8BB00FFF7E8FB67
:101B0000FEF768FFB14804F0E1FEB048283004F069
:101B1000DDFEAE48503004F0D9FED7E710B5AA4C30
:101B2000206800B9FFDF216800204870FFF7C5FF7B
:101B3000002800D0FFDF10BDA34909680978814261
:101B400001D101207047002070479F4800B501680F
:101B500091F82400498CC0F38002C0F340031A447A
:101B600000F001001044132915D004DC102909D01D
:101B7000122904D10FE0152908D01D2904D0FFDF58
:101B8000002000BD924903E0924800BD9049083111
:101B900031F8100000BD8E490839F9E78A4840F253
:101BA00071210068806A484370478748006890F850
:101BB0003500002800D00120704710B5814C207BF3
:101BC00000F024FE40B1207D04F1150104F04BFA31
:101BD000082801D0012010BD207B30B1022804D09C
:101BE0000120BDE81040FFF79CBE0020F9E77649D0
:101BF000096881F83000704770B50546714890F863
:101C00002D0004F045FA040018D0102104F031FC36
:101C1000002813D16C4E01202A463168C876204630
:101C20001C31FFF78BFE316868481C3104F07BFEE5
:101C3000BDE870400121654804F084BE70BD2DE907
:101C4000F041604C074694F82D0004F017FA064660
:101C500094F82F0004F10E0528B126B1102130466A
:101C600004F007FCA0B194F83000002824D094F8C8
:101C70002E00002820D0607B294600F0D8FDA8B1B6
:101C800004F0ABFA3A462946BDE8F041FFF756BEEC
:101C9000012060733A4629463046FFF74FFE94F81C
:101CA0002D102846BDE8F04104F081BA3946284697
:101CB000BDE8F041FFF776BEBDE8F08170B5424C5B
:101CC0002168087BB0B1022814D0012048730E317E
:101CD000FFF711FE2068007B00F098FD216881F875
:101CE0002F00082081F82D00487B0E3100F096FD72
:101CF00040B901E00020E9E72168487B0E3100F09F
:101D000096FD00B10120216881F82E0091F82F0086
:101D100018B991F82200400706D5087D153104F066
:101D2000A2F9216881F82D00206800254560FDF7A3
:101D300033FA216888600020FFF781FF2068C576AC
:101D400090F82200400703D5BDE87040002053E71B
:101D500070BD78B51B4904461B4D407B08732A684B
:101D6000207810706088ADF8000080B200F00101AA
:101D7000C0F3400341EA4301C0F3800341EA830119
:101D8000C0F3C00341EAC301C0F3001341EA0311E9
:101D9000C0F3401341EA4311C0F3801041EA8010C0
:101DA0005084E07D012830D0022830D0FFDF286841
:101DB00080F8BA60217B80F82410418C1D2928D03E
:101DC000616809E010090020C0000020140A00200A
:101DD000D8840100F18913008162617D80F835109B
:101DE000A17BC1B1022916D00121017554F80F1F42
:101DF000C0F81510A188A0F81910217B012900D086
:101E0000002180F83410002078BD0126CFE702269B
:101E1000CDE70021D5E70021E7E7FE48006890F80C
:101E20002200400701D50020704701207047F94A81
:101E300010B512680023C2F8BC30548C1D2C0BD096
:101E400079B1936A40F2712463431944491EB1FB8E
:101E5000F3F1C2F8C41006E0C2F8C43082F8C03012
:101E600010BDC2F8C43082F8C00010BD0346E94876
:101E700010B50168D1F8C4204AB1D1F8BC4034B1E2
:101E80009A4206D90124D01AC1F8C4000EE00124F8
:101E90000CE091F822100024C90703D040684321C8
:101EA000008801E043210020FFF78EFD204610BD91
:101EB000D848006890F8B70008B1002070470120AA
:101EC000704770B51F2801D2044600E01F24D14D91
:101ED0000022286880F8B9202246783005F0CFFF2C
:101EE0002868012180F8974080F8B91070BD10B5BE
:101EF0001F2800D31F20C74CC2B20023206880F8DF
:101F0000B83080F8B720983005F0B9FF216801207B
:101F100081F8B80010BDBF49096881F8BB0070475F
:101F2000BC48006890F8220000F001007047B948F2
:101F3000006890F82200C0F340007047002070470E
:101F4000B448006890F82200C0F3C0007047012038
:101F50007047012070470120704770B500F085FC84
:101F6000AC4C206850F8BC1F491C016010F8890C6B
:101F7000002530B1FFF7ACF9FEF72CFD206880F8A2
:101F800033502068457090F8C01089B1D0F8BC205B
:101F900091420DD8022001F09DFA206890F82200AD
:101FA000C00703D060684321008816E043211BE08E
:101FB000D0F8C41019B1D0F8BC20914202D990F8E1
:101FC0003700A8B1022001F085FA206890F82200BD
:101FD000C00708D060683C210088FFF7F5FCBDE829
:101FE000704000F038BC3C21BDE870400020EBE4BC
:101FF000BDE87040002001F06DBA10B501280DD089
:1020000002280DD004280FD0FFDF8248006890F826
:10201000BA10BDE810402520FEF758BE252000E08C
:102020002620FEF7D4FEF0E72720FAE7024600203C
:10203000D30701D0CB0705D0930705D58B0703D471
:1020400002207047012070475207FCD54907FAD497
:10205000042070472DE9F0416E4C206800B9FFDF85
:1020600020684178B1BB0178FF2934D0002580F881
:102070003150857080F837502846FFF7B3F8FEF7E7
:1020800031FE206890F9BB00FEF791FE6248FEF732
:1020900094FE6148C01EFFF790F82068002190F878
:1020A0002400FFF7C3FFFFF7A8FF206880F82C503B
:1020B000FFF792F82068002190F8BA200846FEF752
:1020C00055FF0F210520FEF74AFE206890F82E10DC
:1020D00051B902E0FFE70C20EEE590F82F1019B996
:1020E00090F8220040072AD5FDF756F806462068EA
:1020F00031468068FDF75EFD484990FBF1F701FB32
:10210000170041423046FCF750FD014620688160CF
:1021100041683944416003F0A2FF014620684268EB
:1021200091420CD8C0E901560120FFF788FD2068D4
:1021300090F82200400702D50120FFF75DFD2068DE
:10214000417B0E30FEF7FFFD206890F8B81059B1C2
:1021500090F8B72080F8772000F19801583005F00A
:10216000D3FE206880F8B850206890F8B91059B1B3
:1021700090F8972080F8572000F17801383005F06A
:10218000C3FE206880F8B9502068254E0021C77E24
:102190003580304600F056FB2068408C13284FD025
:1021A00004DC102871D0122804D16BE0152850D01F
:1021B0001D284ED0FFDF1A491948F639884604F029
:1021C000ACFB184F1648797B04F0B3FB2168488CB0
:1021D0001D2807D0152805D091F8772030465831B2
:1021E00004F0B7FB0E4E042150363046358004F023
:1021F00070FB4146304604F090FB797B304604F09A
:1022000098FB2168304691F85720383104F0B1FB33
:102210000AE00000C0000020CB84010040420F0013
:10222000140A00201009002003F079FF032106F1B1
:10223000280003F0AAFF216881F8330000203BE565
:102240000021304604F045FB0121304600F0FAFA47
:10225000B1E70121304604F03CFB0121304600F09B
:10226000F1FA2168304627B11C3104F05CFB0121F2
:1022700004E0153104F057FB2068017D304604F07E
:1022800061FB98E7062101E0FFE70221304604F0F8
:1022900020FB90E7FE494860704770B5FC4C06464D
