:020000040000FA
:1000000000040020990900002D0600007909000075
:1000100037060000410600004B060000000000000B
:10002000000000000000000000000000BD0900000A
:1000300055060000000000005F0600006906000091
:10004000730600007D060000870600009106000090
:100050009B060000A5060000AF060000B9060000E0
:10006000C3060000CD060000D7060000E106000030
:10007000EB060000F5060000FF060000090700007F
:10008000130700001D0700002707000031070000CC
:100090003B070000450700004F070000590700001C
:1000A000630700006D07000077070000810700006C
:1000B0008B070000950700009F070000A9070000BC
:1000C000B3070000BD070000C7070000D10700000C
:1000D000DB070000E5070000EF070000F90700005C
:1000E000030800000D0800001708000021080000A8
:1000F0002B080000350800003F08000049080000F8
:10010000530800001FB500F003F88DE80F001FBD75
:1001100000F038BC70B50B46010B184400F6FF70B8
:10012000040B4FF080500022090303692403406947
:1001300043431D1B104600F0E9F929462046BDE85F
:10014000704000F0E3B9F0B54FF6FF734FF4B475AB
:100150001A466E1E12E0A94201D3344600E00C4656
:10016000B1EB040130F8027B641E3B441A44F9D120
:100170009CB204EB134394B204EB12420029EAD17F
:1001800098B200EB134002EB124140EA0140F0BD8F
:10019000C34992B00446D1E90001CDE91001FF2224
:1001A0004021684600F094FB94E80F008DE80F00B2
:1001B000684610A902E004C841F8042D8842FAD12B
:1001C00010216846FFF7BFFF1090AA208DF8440069
:1001D00000F0FAF800F0DDF84FF01024A0691022CA
:1001E0006946803000F0DEF8A069082210A900F00E
:1001F000D9F800F0C2F870B504460068A94D072888
:1002000069D2DFE800F033041929561E2500D4E92D
:10021000026564682946304600F0FDF82A4621460A
:10022000304600F0BFF8AA002146304600F024FB1B
:10023000002800D0032070BD00F0D6FB4FF48050A2
:1002400007E0201D00F0C6F80028F4D100F0CCFB38
:1002500060682860002070BD241D94E807009200AB
:1002600000F00AFB0028F6D00E2070BD00F0BEF8AA
:100270000028FAD1D4E9010100EB81034FF080504E
:10028000026945696A43934209D84FF010225369C5
:1002900003EB81030169406941438B4201D9092085
:1002A00070BD5069401C01D10F2070BD2046FFF782
:1002B0006FFF00F09BF80028F7D1201D00F08AF8AE
:1002C0000028F2D160680028F0D100F07DF800F03D
:1002D00060F800F052F8072070BD10B50C461828E1
:1002E00002D00120086010BD2068FFF784FF206065
:1002F00010BD4FF01024A069401C05D0A569A66967
:1003000080353079AA2808D06069401C2DD06069FA
:100310000068401C29D060692CE010212846FFF7B6
:1003200012FF316881421CD1A16901F18002C03104
:1003300005E030B108CA51F8040D984201D10120FE
:1003400000E000208A42F4D158B1286810B1042896
:1003500003D0FEE7284600F070F85249686808604C
:1003600008E000F016F800F008F84FF4805001683B
:10037000491C01D000F012FBFEE7BFF34F8F4A4843
:1003800001684A4A01F4E06111430160BFF34F8FF5
:10039000FEE74FF010208169491C02D0806900F00F
:1003A0008CB870472DE9F04117460D4606460024EB
:1003B00006E03046296800F093F8641C2D1D361DB8
:1003C000BC42F6D3BDE8F0814FF0102080694FF4B5
:1003D00080519FE64FF080510A69496900684A439D
:1003E000824201D810207047002070474FF08050A3
:1003F0000169406941434FF01020826902F5805243
:10040000914201D2092070478069401C01D0002030
:1004100070470420704770B50C4605464FF480665F
:1004200008E0284600F049F8B44205D3A4F58064FA
:1004300005F58055002CF4D170BD4168044609B122
:10044000012600E000264FF010256869A26892009E
:1004500000F012FAF8B1A06881006869FFF75AFE4F
:10046000BEB16E694FF08050A56864680169426949
:100470005143A1420DD9016940694143A94208D9BC
:1004800029463046FFF7C7FF2A4621463046FFF788
:1004900089FFFFF772FFFFF797FFFFF77AFFF8E793
:1004A0000C0A0000000000200CED00E00400FA053A
:1004B000144801680029FCD07047134A02211160DA
:1004C00010490B68002BFCD00F4B1B1D18600868EF
:1004D0000028FCD00020106008680028FCD070477D
:1004E000094B10B501221A60064A1468002CFCD092
:1004F000016010680028FCD00020186010680028F7
:10050000FCD010BD00E4014004E5014070B50C468C
:10051000054600F073F810B900F07EF828B12146C6
:100520002846BDE8704000F007B821462846BDE8DF
:10053000704000F037B800007FB5002200920192B1
:10054000029203920A0B000B6946012302440AE05F
:10055000440900F01F0651F8245003FA06F635430B
:1005600041F82450401C8242F2D80D490868009A94
:1005700010430860081D0168019A1143016000F0F2
:100580003DF800280AD0064910310868029A104345
:100590000860091D0868039A104308607FBD0000C9
:1005A0000006004030B50F4C002200BF04EB0213E0
:1005B000D3F800582DB9D3F8045815B9D3F8085812
:1005C0001DB1521C082AF1D330BD082AFCD204EB1D
:1005D0000212C2F80008C3F804180220C3F8080881
:1005E00030BD000000E001404FF08050D0F83001F5
:1005F000082801D000207047012070474FF080503C
:10060000D0F83011062905D0D0F83001401C01D0B7
:1006100000207047012070474FF08050D0F8300123
:100620000A2801D0002070470120704708208F4918
:1006300009680958084710208C4909680958084773
:1006400014208A4909680958084718208749096809
:100650000958084730208549096809580847382053
:1006600082490968095808473C20804909680958A7
:10067000084740207D4909680958084744207B49BC
:1006800009680958084748207849096809580847FF
:100690004C20764909680958084750207349096871
:1006A00009580847542071490968095808475820D3
:1006B0006E490968095808475C206C49096809585F
:1006C0000847602069490968095808476420674954
:1006D00009680958084768206449096809580847A3
:1006E0006C20624909680958084770205F49096809
:1006F0000958084774205D49096809580847782057
:100700005A490968095808477C2058490968095816
:1007100008478020554909680958084784205349EB
:100720000968095808478820504909680958084746
:100730008C204E4909680958084790204B490968A0
:1007400009580847942049490968095808479820DA
:1007500046490968095808479C20444909680958CE
:100760000847A0204149096809580847A4203F4983
:10077000096809580847A8203C49096809580847EA
:10078000AC203A49096809580847B0203749096838
:1007900009580847B4203549096809580847B8205E
:1007A0003249096809580847BC2030490968095886
:1007B0000847C0202D49096809580847C4202B491B
:1007C000096809580847C82028490968095808478E
:1007D000CC202649096809580847D02023490968D0
:1007E00009580847D4202149096809580847D820E2
:1007F0001E49096809580847DC201C49096809583E
:100800000847E0201949096809580847E4201749B2
:10081000096809580847E820144909680958084731
:10082000EC201249096809580847F0200F49096867
:1008300009580847F4200D49096809580847F82065
:100840000A49096809580847FC20084909680958F5
:1008500008475FF480700549096809580847000097
:1008600003480449024A034B70470000000000207F
:10087000180A0000180A000040EA010310B59B079F
:100880000FD1042A0DD310C808C9121F9C42F8D0FA
:1008900020BA19BA884201D9012010BD4FF0FF30AB
:1008A00010BD1AB1D30703D0521C07E0002010BDC1
:1008B00010F8013B11F8014B1B1B07D110F8013B4D
:1008C00011F8014B1B1B01D1921EF1D1184610BD2E
:1008D00002F0FF0343EA032242EA024200F005B8B5
:1008E0007047704770474FF000020429C0F0128033
:1008F00010F0030C00F01B80CCF1040CBCF1020FD3
:1009000018BF00F8012BA8BF20F8022BA1EB0C01A7
:1009100000F00DB85FEAC17C24BF00F8012B00F89D
:10092000012B48BF00F8012B70474FF0000200B5C3
:10093000134694469646203922BFA0E80C50A0E802
:100940000C50B1F12001BFF4F7AF090728BFA0E8B0
:100950000C5048BF0CC05DF804EB890028BF40F87C
:10096000042B08BF704748BF20F8022B11F0804FBE
:1009700018BF00F8012B7047014B1B68DB68184754
:100980000000002009480A497047FFF7FBFFFFF706
:10099000B9FB00BD20BFFDE7064B1847064A1060B3
:1009A000016881F30888406800470000180A0000C9
:1009B000180A0000F3020000000000201EF0040FDF
:1009C0000CBFEFF30881EFF30981886902380078E2
:1009D000182803D100E00000074A1047074A1268B0
:1009E0002C3212681047000000B5054B1B68054A01
:1009F0009B58984700BD0000DB020000000000206B
:100A0000080A0000040000000010000000000000C0
:080A100000FFFFFF0090D0037E
:10100000E0120020754D0200192F0000E74C02008D
:10101000192F0000192F0000192F000000000000F8
:10102000000000000000000000000000CD4D0200A4
:10103000192F000000000000192F0000192F0000D8
:10104000354E02003B4E0200192F0000192F000000
:10105000192F0000192F0000192F0000192F000070
:10106000414E0200192F0000192F0000474E0200C8
:10107000192F00004D4E0200534E0200594E02003F
:10108000192F0000192F0000192F0000192F000040
:10109000192F0000192F0000192F0000192F000030
:1010A000192F00005F4E0200192F0000192F0000B9
:1010B000192F0000192F0000192F0000192F000010
:1010C000654E0200192F0000192F0000192F000093
:1010D000192F0000192F0000192F0000192F0000F0
:1010E000192F0000192F0000192F0000192F0000E0
:1010F000192F0000192F0000192F0000192F0000D0
:10110000192F0000192F000000F002F823F01FFE35
:101110000AA090E8000C82448344AAF10107DA4552
:1011200001D123F014FEAFF2090EBAE80F0013F05C
:10113000010F18BFFB1A43F00103184734420200A5
:10114000544202000A444FF0000C10F8013B13F027
:10115000070408BF10F8014B1D1108BF10F8015B10
:10116000641E05D010F8016B641E01F8016BF9D103
:1011700013F0080F1EBF10F8014BAD1C0C1B09D15A
:101180006D1E58BF01F801CBFAD505E014F8016BCC
:1011900001F8016B6D1EF9D59142D6D3704700005E
:1011A0000023002400250026103A28BF78C1FBD870
:1011B000520728BF30C148BF0B6070471FB500F011
:1011C0003DF88DE80F001FBD1EF0040F0CBFEFF3BC
:1011D0000880EFF30980014A10470000752E0000D7
:1011E0008269034981614FF001001044704700009B
:1011F000F511000001B41EB400B512F061FF01B496
:101200000198864601BC01B01EBD0000F0B4404606
:10121000494652465B460FB402A0013001B506486C
:10122000004700BF01BC86460FBC804689469246F7
:101230009B46F0BC704700000911000023F084BDFC
:1012400070B51A4C054609202070A01C00F05FF80C
:101250005920A08029462046BDE8704008F060B8BB
:1012600008F069B870B50C461149097829B1A0F1A8
:1012700060015E2908D3012013E0602804D06928AA
:1012800002D043F201000CE020CC0A4E94E80E009C
:1012900006EB8000A0F58050241FD0F8806E284611
:1012A000B047206070BD012070470000080000209A
:1012B0001C000020CC4E020010B504460021012085
:1012C00000F03DF800210B2000F039F8042119202E
:1012D00000F035F804210D2000F031F804210E2033
:1012E00000F02DF804210F2000F029F80421C84354
:1012F00000F025F80621162000F021F8062115201F
:1013000000F01DF82046FFF79BFF002010BDA9212B
:1013100001807047FFF7A4BF11487047104870471D
:10132000104A10B514680F4B0F4A08331A60FFF7C4
:1013300099FF0C48001D046010BD704770474907B5
:10134000090E002806DA00F00F0000F1E02080F816
:10135000141D704700F1E02080F800147047000071
:1013600003F900421005024001000001FE4800217F
:1013700001604160018170472DE9F743044692B056
:101380009146406813F060F940B1606813F065F968
:1013900020B9607800F00300022801D0012000E0AD
:1013A0000020F14E3072484613F00AF918B11020AF
:1013B00015B0BDE8F0834946012001F018FF002870
:1013C000F6D101258DF842504FF4C050ADF84000E1
:1013D000002210A9284606F04BFC0028E8D18DF821
:1013E00042504FF428504FF00008ADF840004746F7
:1013F0001C216846CDF81C8023F04DFC9DF81C0094
:1014000008AA20F00F00401C20F0F00010308DF8EA
:101410001C0020788DF81D0061789DF81E0061F396
:10142000420040F001008DF81E009DF800000AA95E
:1014300040F002008DF800002089ADF83000ADF8D2
:101440003270608907AFADF834000B97606810AC5C
:101450000E900A94684606F000FA0028A8D1BDF85C
:10146000200030808DF8425042F60120ADF8400057
:101470009DF81E0008AA20F00600801C20F0010044
:101480008DF81E000220ADF83000ADF8340013A82E
:101490000E900AA9684606F0E0F9002888D1BDF848
:1014A00020007080311D484600F033F9002887D1B4
:1014B0008DF8425042F6A620ADF840001C21684647
:1014C000CDF81C8023F0E7FB9DF81C00ADF83450EC
:1014D00020F00F00401C20F0F00010308DF81C00B0
:1014E0009DF81D0008AA20F0FF008DF81D009DF852
:1014F0001E000AA920F0060040F00100801C8DF8B3
:101500001E009DF800008DF8445040F002008DF858
:101510000000CDE90A4711A80E90ADF8305068469A
:1015200006F09BF9002899D1BDF82000F08000203A
:101530003EE73EB504460820ADF80000204613F013
:101540003FF808B110203EBD2146012001F04FFEBA
:101550000028F8D12088ADF804006088ADF80600B6
:10156000A088ADF80800E088ADF80A007E4801AB1D
:101570006A468088002106F075FDBDF80010082934
:10158000E1D003203EBD1FB5044600200290082094
:10159000ADF80800CDF80CD0204613F011F810B1CA
:1015A000102004B010BD704802AA81884FF6FF7069
:1015B00006F09AFF0028F4D1BDF80810082901D0E0
:1015C0000320EEE7BDF800102180BDF80210618015
:1015D000BDF80410A180BDF80610E180E1E701B577
:1015E00082B00220ADF800005F4802AB6A46408836
:1015F000002106F037FDBDF80010022900D00320BD
:101600000EBD1CB5002100910221ADF80010019023
:1016100012F0FCFF08B110201CBD53486A464188F7
:101620004FF6FF7006F060FFBDF800100229F3D0FE
:1016300003201CBDFEB54C4C06461546207A0F46CD
:10164000C00705D0084612F0BBFF18B11020FEBD40
:101650000F20FEBDF82D01D90C20FEBD304612F042
:10166000AFFF18BB208801A905F040FE0028F4D187
:1016700030788DF80500208801A906F0D2FC0028FA
:10168000EBD100909DF800009DF8051040F002009D
:101690008DF80000090703D040F008008DF8000025
:1016A0002088694606F05AFC0028D6D1ADF80850CB
:1016B00020883B4602AA002106F0D4FCBDF80810A1
:1016C000A942CAD00320FEBD7CB50546002000908B
:1016D00001900888ADF800000C462846019512F0EC
:1016E000B3FF18B9204612F091FF08B110207CBD5D
:1016F00015B1BDF8000050B11B486A4601884FF68D
:10170000FF7006F0F1FEBDF8001021807CBD0C20BA
:101710007CBD30B593B0044600200D4600901421E6
:1017200001A823F0B8FA1C2108A823F0B4FA9DF808
:101730000000CDF808D020F00F00401C20F0F00091
:1017400010308DF800009DF8010020F0FF008DF8AA
:1017500001009DF8200040F002008DF820000120DB
:101760008DF8460002E000000C02002042F6042042
:10177000ADF8440011A801902088ADF83C006088C5
:10178000ADF83E00A088ADF84000E088ADF842001A
:101790009DF8020006AA20F00600801C20F001003F
:1017A0008DF802000820ADF80C00ADF810000FA86D
:1017B000059001A908A806F050F8002803D1BDF84B
:1017C00018002880002013B030BD0000F0B5007B69
:1017D000059F1E4614460D46012800D0FFDF0C2051
:1017E00030803A203880002C08D0287A032806D090
:1017F000287B012800D0FFDF17206081F0BDA88979
:10180000FBE72DE9F04786B0144691F80C900E9A4C
:101810000D46B9F1010F0BD01021007B2E8A8846AE
:10182000052807D0062833D0FFDF06B0BDE8F087D3
:101830000221F2E7E8890C2100EB400001EB4000B7
:10184000188033201080002CEFD0E88960810027B9
:101850001AE00096688808F1020301AA696900F09D
:1018600084FF06EB0800801C07EB470186B204EBFF
:101870004102BDF8040090810DF1060140460E3290
:1018800010F074FF7F1CBFB26089B842E1D8CCE78A
:1018900034201080E889B9F1010F11D0122148439A
:1018A0000E301880002CC0D0E88960814846B9F11C
:1018B000010F00D00220207300270DF1040A1FE061
:1018C0000621ECE70096688808F1020301AA69691D
:1018D00000F04BFF06EB0800801C86B2B9F1010F47
:1018E00012D007EBC70004EB4000BDF80410C18123
:1018F00010220AF10201103023F02CF97F1CBFB234
:101900006089B842DED890E707EB470104EB41025B
:10191000BDF80400D0810AF102014046103210F0F7
:1019200025FFEBE72DE9F0470E4688B090F80CC094
:1019300096F80C80378AF5890C20109902F10C0476
:101940004FF0000ABCF1030F08D0BCF1040F3ED0E9
:10195000BCF1070F7DD0FFDF08B067E705EB850C12
:1019600000EB4C00188031200880002AF4D0A8F148
:10197000060000F0FF09558125E0182101A823F099
:101980008AF900977088434601AA716900F0EDFE5C
:10199000BDF804002080BDF80600E080BDF8080016
:1019A0002081A21C0DF10A01484610F0DFFEB9F1BA
:1019B000000F00D018B184F804A0A4F802A007EB2F
:1019C000080087B20A346D1EADB2D6D2C4E705EB6B
:1019D000850C00EB4C00188032200880002ABBD018
:1019E000A8F1050000F0FF09558137E000977088E5
:1019F000434601AA716900F0B8FE9DF80600BDF8E3
:101A00000410E1802179420860F3000162F3410192
:101A1000820862F38201C20862F3C301020962F321
:101A20000411420962F34511820962F386112171A2
:101A3000C0096071BDF80700208122460DF109013F
:101A4000484610F093FE18B184F802A0A4F800A054
:101A500000E007E007EB080087B20A346D1EADB264
:101A6000C4D279E7A8F1020084B205FB08F000F1C6
:101A70000E0CA3F800C035230B80002AA6D0558198
:101A80009481009783B270880E32716900F06DFE08
:101A900062E72DE9F84F1E460A9D0C4681462AB1A1
:101AA000607A00F58070D080E089108199F80C0090
:101AB0000C274FF000084FF00E0A0D2873D2DFE814
:101AC00000F09E070E1C28303846556A7373730069
:101AD000214648460095FFF779FEBDE8F88F207B48
:101AE0009146082802D0032800D0FFDF378030203D
:101AF0000AE000BFA9F80A80EFE7207B914604289E
:101B000000D0FFDF378031202880B9F1000FF1D1FC
:101B1000E3E7207B9146042800D0FFDF37803220A6
:101B2000F2E7207B9146022800D0FFDF3780332088
:101B3000EAE7207B1746022800D0FFDF3420A6F812
:101B400000A02880002FC8D0A7F80A80C5E7207B16
:101B50001746042800D0FFDF3520A6F800A0288013
:101B6000002FBAD04046A7F80A8012E0207B174623
:101B7000052802D0062800D0FFDF10203080362054
:101B80002880002FA9D0E0897881A7F80E80B9F8C5
:101B90000E00B881A1E7207B9146072800D0FFDF27
:101BA00037803720B0E72AE04FF0120018804FF05E
:101BB00038001700288090D0E0897881A7F80E803F
:101BC000A7F8108099F80C000A2805D00B2809D036
:101BD0000C280DD0FFDF80E7207B0A2800D0FFDF34
:101BE00001200AE0207B0B2800D0FFDF042004E066
:101BF000207B0C2800D0FFDF052038736DE7FFDF66
:101C00006BE770B50C46054601F025FC20B1007865
:101C1000222804D2082070BD43F2020070BD0521C5
:101C200028460FF021F8206008B1002070BD032085
:101C300070BD30B44880087820F00F00C01C20F040
:101C4000F000903001F8080B1DCA81E81D0030BC7F
:101C500007F0E7BB2DE9FF4784B0002782460297D3
:101C600007989046894612300AF048F9401D20F046
:101C70000306079828B907A95046FFF7C2FF0028B6
:101C800054D1B9F1000F05D00798017B19BB052588
:101C900004681BE098F80000092803D00D2812D032
:101CA000FFDF46E0079903254868B0B3497B4288C7
:101CB0007143914239D98AB2B3B2011D0EF047FE89
:101CC0000446078002E0079C042508340CB12088F4
:101CD00010B1032D29D02CE00798012112300AF011
:101CE0003FF9ADF80C00024602AB2946504608F019
:101CF000F4F9070001D1A01C029007983A4612306F
:101D0000C8F80400A8F802A003A94046029B0AF004
:101D100034F9D8B10A2817D200E006E0DFE800F075
:101D200007091414100B0D141412132014E60020CC
:101D300012E6112010E608200EE643F203000BE63F
:101D4000072009E60D2007E6032005E6BDF80C0094
:101D50002346CDE900702A465046079900F015FD4C
:101D600057B9032D08D10798B3B2417B406871433E
:101D70008AB2011D0EF0FFFDB9F1000FD7D007990F
:101D800081F80C90D3E72DE9FE4F91461A881C4646
:101D90008A468046FAB102AB494608F09EF9050032
:101DA00019D04046A61C27880FF0A2F83246072615
:101DB00029463B4600960EF0B0FC20882346CDE92C
:101DC00000504A465146404600F0DFFC002020808B
:101DD0000120BDE8FE8F0020FBE710B586B01C4651
:101DE000AAB104238DF800301388ADF8083052886A
:101DF000ADF80A208A788DF80E200988ADF80C100D
:101E000000236A462146FFF725FF06B010BD1020CB
:101E1000FBE770B50D4605210EF026FF040000D14A
:101E2000FFDF294604F11200BDE870400AF081B8D6
:101E30002DE9F8430D468046002607F0EFFA0446E8
:101E40002878102878D2DFE800F0773B345331311E
:101E5000123131310831313131312879001FC0B2AE
:101E6000022801D0102810D114BBFFDF35E004B9DF
:101E7000FFDF052140460EF0F7FE007B032806D069
:101E800004280BD0072828D0FFDF072655E0287943
:101E9000801FC0B2022820D050B1F6E72879401F39
:101EA000C0B2022819D0102817D0EEE704B9FFDF1E
:101EB00013E004B9FFDF287901280ED1172137E09C
:101EC000052140460EF0D0FE070000D1FFDF07F1EC
:101ED000120140460AF00AF82CB12A462146404633
:101EE000FFF7A7FE29E01321404602F0A9FD24E0F8
:101EF00004B9FFDF052140460EF0B6FE060000D112
:101F0000FFDF694606F1120009F0FAFF060000D073
:101F1000FFDFA988172901D2172200E00A46BDF881
:101F20000000824202D9014602E005E01729C5D32C
:101F3000404600F03AFCD0E7FFDF3046BDE8F883CA
:101F4000401D20F0030219B102FB01F0001D00E06A
:101F500000201044704713B5009848B1002468462B
:101F60000EF09FFC002C02D1F74A009911601CBDB5
:101F700001240020F4E72DE9F0470C461546242102
:101F8000204622F088FE05B9FFDFA8786073288814
:101F9000DFF8B4A3401D20F00301AF788946DAF8DA
:101FA00000000EF09CFC060000D1FFDF4FF000089F
:101FB0002660A6F8008077B109FB07F1091D0AD059
:101FC000DAF800000EF08BFC060000D1FFDF66603F
:101FD000C6F8008001E0C4F80480298804F11200EA
:101FE000BDE8F04709F074BF2DE9F047804601F1E4
:101FF00012000D46814609F081FF401DD24F20F0AE
:1020000003026E7B1446296838680EF093FC3EB1DB
:1020100004FB06F2121D03D0696838680EF08AFCD2
:1020200005200EF0C9FD044605200EF0CDFD201A56
:10203000012802D138680EF047FC49464046BDE809
:10204000F04709F05ABF70B5054605210EF00CFEA9
:10205000040000D1FFDF04F112012846BDE8704002
:1020600009F044BF2DE9F04F91B04FF0000BADF8EF
:1020700034B0ADF804B047880C46054692460521B9
:1020800038460EF0F1FD060000D1FFDF24B1A78035
:10209000A4F806B0A4F808B0297809220B20B2EB06
:1020A000111F7DD12A7A04F1100138274FF00C0856
:1020B0004FF001090391102A73D2DFE802F072F2A7
:1020C000F1F07F08D2888D9F3DDBF3EEB6B6307B12
:1020D000022800D0FFDFA88908EBC001ADF804108A
:1020E0003021ADF83410002C25D06081B5F80E9069
:1020F00000271DE004EBC708317C88F80E10F18939
:10210000A8F80C10CDF800906888042304AA296967
:1021100000F02BFBBDF81010A8F8101009F1040016
:10212000BDF812107F1C1FFA80F9A8F81210BFB278
:102130006089B842DED80DE1307B022800D0FFDF95
:10214000E98908EBC100ADF804003020ADF8340097
:10215000287B0A90001FC0B20F90002CEBD0618149
:10216000B5F81090002725E0CDF8009068886969DF
:1021700003AA0A9B00F0F9FA0A9804EBC70848443E
:102180001FFA80F908F10C0204A90F9810F0EEFA7A
:1021900018B188F80EB0A8F80CB0BDF80C1001E02A
:1021A000D4E0CFE0A8F81010BDF80E107F1CA8F8FE
:1021B0001210BFB26089B842D6D8CBE00DA800900B
:1021C00001AB224629463046FFF71BFBC2E0307BBD
:1021D000082805D0FFDF03E0307B082800D0FFDFB0
:1021E000E8891030ADF804003620ADF83400002C3A
:1021F0003FD0A9896181F189A18127E0307B09283D
:1022000000D0FFDFA88900F10C01ADF804103721E0
:10221000ADF83410002C2CD06081E8890090AB8997
:10222000688804F10C02296956E0E88939211030E8
:1022300080B2ADF80400ADF83410002C74D0A98938
:102240006181287A0E280AD002212173E989E1816F
:10225000288A0090EB8968886969039A3CE001212B
:10226000F3E70DA8009001AB224629463046FFF760
:1022700059FB6FE0307B0A2800D0FFDF1220ADF859
:102280000400ADF834704CB3A9896181A4F810B092
:10229000A4F80EB084F80C905CE020E002E031E09D
:1022A00039E042E0307B0B2800D0FFDF288AADF810
:1022B00034701230ADF8040084B104212173A9896F
:1022C0006181E989E181298A2182688A00902B8ACB
:1022D000688804F11202696900F047FA3AE0307B3D
:1022E0000C2800D0FFDF1220ADF80400ADF83470E8
:1022F0003CB305212173A4F80AB0A4F80EB0A4F8E9
:1023000010B027E00DA8009001AB224629463046C8
:10231000FFF75CFA1EE00DA8009001AB22462946AB
:102320003046FFF7B6FB15E034E03B21ADF8040082
:10233000ADF8341074B3A4F80690A4F808B084F88B
:102340000AB007E0FFDF05E010000020297A01292C
:1023500017D0FFDFBDF80400AAF800006CB1BDF88B
:1023600034002080BDF804006080BDF834003928B6
:1023700003D03C2801D086F80CB011B00020BDE895
:10238000F08F3C21ADF80400ADF8341014B1697A37
:10239000A172DFE7AAF80000EFE72DE9F8435688BD
:1023A0000F4680461546052130460EF05DFC0400C0
:1023B00000D1FFDF123400943B46414630466A6844
:1023C00009F00FFFBAE570B50D4605210EF04CFC83
:1023D000040000D1FFDF294604F11200BDE870407F
:1023E00009F099BD70B50D4605210EF03DFC0400C5
:1023F00000D1FFDF294604F11200BDE8704009F06A
:10240000B7BD70B5054605210EF02EFC040000D1C5
:10241000FFDF04F1080321462846BDE8704004228E
:10242000B1E470B5054605210EF01EFC040000D194
:10243000FFDF214628462368BDE870400522A2E45C
:1024400070B5064605210EF00FFC040000D1FFDF39
:1024500004F1120009F052FD401D20F0030511E0C7
:10246000011D00880322431821463046FFF78BFCEC
:1024700000280BD0607BABB2684382B26068011D5C
:102480000EF0AFFA606841880029E9D170BD70B5DF
:102490000E46054606F0C2FF040000D1FFDF012012
:1024A000207266726580207820F00F00C01C20F03A
:1024B000F00030302070BDE8704006F0B2BF2DE96A
:1024C000F0438BB00D461446814606A9FFF799FBF1
:1024D000002814D14FF6FF7601274FF420588CB115
:1024E00003208DF800001020ADF8100007A805901B
:1024F00007AA204604A910F058F978B107200BB0BC
:10250000BDE8F0830820ADF808508DF80E708DF806
:102510000000ADF80A60ADF80C800CE00698A178D8
:1025200001742188C1818DF80E70ADF80850ADF8A6
:102530000C80ADF80A606A4602214846069BFFF708
:1025400089FBDCE708B501228DF8022042F6020281
:10255000ADF800200A4603236946FFF73EFC08BD9C
:1025600008B501228DF8022042F60302ADF80020E2
:102570000A4604236946FFF730FC08BD00B587B062
:1025800079B102228DF800200A88ADF80820498828
:10259000ADF80A1000236A460521FFF75BFB07B080
:1025A00000BD1020FBE709B1072316E407207047A0
:1025B00070B588B00D461446064606A9FFF721FB04
:1025C00000280ED17CB10620ADF808508DF800002F
:1025D000ADF80A40069B6A460821DC813046FFF7C9
:1025E00039FB08B070BD05208DF80000ADF808502B
:1025F000F0E700B587B059B107238DF80030ADF88A
:102600000820039100236A460921FFF723FBC6E750
:102610001020C4E770B588B00C460646002506A910
:10262000FFF7EFFA0028DCD106980121123009F0FB
:1026300097FC9CB12178062921D2DFE801F0200522
:1026400005160318801E80B2C01EE28880B20AB14F
:10265000A3681BB1824203D90C20C2E71020C0E757
:10266000042904D0A08850B901E00620B9E7012967
:1026700013D0022905D004291CD005292AD007200F
:10268000AFE709208DF800006088ADF80800E08809
:10269000ADF80A00A068039023E00A208DF800003E
:1026A0006088ADF80800E088ADF80A00A0680A2547
:1026B000039016E00B208DF800006088ADF808004C
:1026C000A088ADF80A00E088ADF80C00A0680B25E2
:1026D000049006E00C208DF8000060788DF808006A
:1026E0000C256A4629463046069BFFF7B3FA78E781
:1026F00000B587B00D228DF80020ADF8081000233A
:102700006A461946FFF7A6FA49E700B587B071B1E6
:1027100002228DF800200A88ADF808204988ADF81B
:102720000A1000236A460621FFF794FA37E71020C3
:1027300035E770B586B0064601200D46ADF80810A5
:102740008DF80000014600236A463046FFF782FA02
:10275000040008D12946304605F09EFC0021304691
:1027600005F0B8FC204606B070BDF8B51C4615460D
:102770000E46069F0EF0AAFB2346FF1DBCB2314653
:102780002A4600940DF095FFF8BD30B41146DDE9FE
:1027900002423CB1032903D0002330BC08F026BB21
:1027A0000123FAE71A8030BC704770B50C46054625
:1027B000FFF72FFB2146284605F07DFC2846BDE8A3
:1027C0007040012105F086BC4FF0E0224FF400413B
:1027D0000020C2F88011204908702049900208604A
:1027E000704730B51C4D04462878A04218BF002C15
:1027F00002D0002818BFFFDF2878A04208BF30BDF4
:102800002C701749154A0020ECB1164DDFF858C05E
:10281000131F012C0DD0022C1CBFFFDF30BD086040
:1028200003200860CCF800504FF4000010601860DE
:1028300030BD086002200860CCF800504FF04070B6
:102840001060186030BD086008604FF06070106064
:1028500030BD00B5FFDF00BD1800002008F50140C5
:1028600000F500408C02002014F5004070B50B20EC
:1028700000F0B5F9082000F0B2F900210B2000F0BB
:10288000C4F90021082000F0C0F9EC4C0125656076
:10289000A5600020C4F84001C4F84401C4F8480110
:1028A0000B2000F0A7F9082000F0A4F90B2000F09D
:1028B0008BF9256070BD10B50B2000F090F9082051
:1028C00000F08DF9DD48012141608160DC490A6832
:1028D000002AFCD10021C0F84011C0F84411C0F812
:1028E00048110B2000F086F9BDE81040082000F0E8
:1028F00081B910B50B2000F07DF9BDE8104008202B
:1029000000F078B900B530B1012806D0022806D011
:10291000FFDF002000BDCB4800BDCB4800BDCA484A
:10292000001D00BD70B5C9494FF000400860C84D9A
:10293000C00BC5F80803C74800240460C5F840412F
:102940000820C43500F04BF9C5F83C41C24804707A
:1029500070BD08B5B94A002128B1012811D002285C
:102960001CD0FFDF08BD4FF48030C2F80803C2F866
:102970004803B3483C300160C2F84011BDE808404C
:10298000D0E74FF40030C2F80803C2F84803AC485F
:1029900040300160C2F84411AB480CE04FF4802095
:1029A000C2F80803C2F84803A54844300160C2F8E1
:1029B0004811A548001D0068009008BD70B5164676
:1029C0000D460446022800D9FFDF00229B48012360
:1029D00004F110018B4000EB8401C1F8405526B191
:1029E000C1F84021C0F8043303E0C0F80833C1F84F
:1029F0004021C0F8443370BD2DE9F0411C46154616
:102A000030B1012834D0022839D0FFDFBDE8F08191
:102A1000891E002221F07F411046FFF7CFFF012CD5
:102A200024D000208C4E8A4F012470703C6189496B
:102A300000203C3908600220091D086085490420F7
:102A40003039086083483D350560C7F800420820EA
:102A500000F0D0F82004C7F80403082000F0B4F810
:102A60007A49E007091F08603470CFE70120D9E7F1
:102A7000012B02D00022012005E00122FBE7012BFF
:102A800004D000220220BDE8F04197E70122F9E7D7
:102A90006B480068704770B500F0C7F8674C054692
:102AA000D4F840010026012809D1D4F80803C00356
:102AB00005D54FF48030C4F80803C4F84061D4F859
:102AC000440101280CD1D4F80803800308D54FF441
:102AD0000030C4F80803C4F84461012010F029FE56
:102AE000D4F8480101280CD1D4F80803400308D5D4
:102AF0004FF48020C4F80803C4F84861022010F0A5
:102B000018FE5648056070BD70B500F08EF8524D45
:102B10000446287858B1FFF705FF687820B10020F7
:102B200085F8010010F005FE4C48046070BD0320DC
:102B3000F8E74FF0E0214FF40010C1F800027047B1
:102B4000152000F057B8424901200861082000F024
:102B500051B83F494FF47C10C1F8080300200246E9
:102B600001EB8003C3F84025C3F84021401CC0B2EC
:102B70000628F5D37047410A43F609525143C0F382
:102B8000080010FB02F000F5807001EB5020704748
:102B900010B5430B48F2376463431B0C5C020C60B6
:102BA0002F4C03FB04002F4B4CF2F72443435B0DE7
:102BB00013FB04F404EB402000F580704012107009
:102BC00008681844086010BD00F01F020121914000
:102BD0004009800000F1E020C0F80011704700F0CB
:102BE0001F02012191404009800000F1E020C0F85F
:102BF0008011704700F01F020121914040098000C0
:102C000000F1E020C0F8801270474907090E002843
:102C100006DA00F00F0000F1E02080F8141D704784
:102C200000F1E02080F8001470470C48001F006895
:102C30000A4A0D49121D11607047000000B00040A3
:102C400004B500404081004044B1004008F5014017
:102C500000800040408500403800002014050240FC
:102C6000F7C2FFFF6F0C0100010000010A4810B518
:102C70000468094909480831086010F0EEFD06486B
:102C8000001D046010BD0649002008604FF0E021DF
:102C90000220C1F8800270471005024001000001C7
:102CA000FC1F004010B50D2000F06FF8C4B26FF0AB
:102CB000040000F06AF8C0B2844200D0FFDF3A4955
:102CC0000120086010BD70B50D2000F048F8374CA9
:102CD0000020C4F800010125C4F804530D2000F0C1
:102CE00049F825604FF0E0216014C1F8000170BD83
:102CF00010B50D2000F033F82C480121416000216F
:102D0000C0F80011BDE810400D2000F033B828488D
:102D100010B5046826492748083108602349D1F8CE
:102D20000001012804D0FFDF2148001D046010BD10
:102D30001D48001D00680022C0B2C1F8002111F03A
:102D400039F9F1E710B51948D0F800110029FBD086
:102D5000FFF7DDFFBDE810400D2000F00BB800F0DC
:102D60001F02012191404009800000F1E020C0F8DD
:102D70008011704700F01F0201219140400980003E
:102D800000F1E020C0F880127047002806DA00F059
:102D90000F0000F1E02090F8140D03E000F1E020B6
:102DA00090F800044009704704D5004000D000406E
:102DB000100502400100000110B5202000F082F84B
:102DC000202000F08AF84A49202081F8000449496F
:102DD00000060860091D48480860FEF79DFA45494D
:102DE000C83108604548D0F8041341F00101C0F82B
:102DF0000413D0F8041341F08071C0F804133C4967
:102E000001201C39C1F8000110BD10B5202000F0D0
:102E100059F8384800210160001D0160354A481EFC
:102E2000E83A1060354AC2F80803324BC8331960DB
:102E3000C2F80001C2F8600131490860BDE81040E5
:102E4000202000F04AB82B492E48EC390860704722
:102E500028492C48E8390860704726480160001D61
:102E6000521E0260704723490120E8390860BFF311
:102E70004F8F704770B51F4A8069E83A2149116049
:102E80001E49D1F8006100231F4D1D4A5C1E1EB172
:102E9000A84206D300210FE0D1F8606186B1A842B4
:102EA00009D2C1F80031C1F860311460BDE870404A
:102EB000202000F012B81168BDE8704021F012BF68
:102EC000FFDF70BD00F01F0201219140400980002A
:102ED00000F1E020C0F88011704700F01F020121CE
:102EE00091404009800000F1E020C0F88012704756
:102EF00020E000E000060240C41400200000024070
:102F00000004024001000001006002000F4A126844
:102F10000D498A420CD118470C4A12680A4B9A4252
:102F200006D101B511F0C0F8FFF78DFFBDE80140F3
:102F3000074909680958084706480749054A064BE2
:102F40007047000000000000BEBAFECAB0000020BA
:102F500004000020E0120020E012002070B50C46B2
:102F6000054609F0DBFA21462846BDE870400AF024
:102F7000C0BB10B511F01EFDFFF726FC11F09EFB43
:102F8000BDE8104011F050BC012081070860704777
:102F9000012081074860704712480068C00700D0D0
:102FA000012070470F48001F0068C00700D00120B3
:102FB00070470C4808300068C00700D001207047F7
:102FC000084810300068704706490C310A68D2037F
:102FD00006D5096801F00301814201D10120704743
:102FE000002070470C0400407047704770477047DE
:102FF000704770477047704770470004050600002F
:103000002CFFFFFFDBE5B15100600200A900FFFFCC
:103010008C000000808D5B0016425791AD5F58BC5C
:103020008E702F5A0FAA100DBCD52BFD30B5FC4D5C
:103030000446062CA9780ED2DFE804F0030E0E0E2B
:103040000509FFDF08E0022906D0FFDF04E00329BD
:1030500002D0FFDF00E0FFDFAC7030BD30B50446CA
:103060001038EF4D07280CD2DFE800F0040C060CF6
:103070000C0C0C00FFDF05E0287E112802D0FFDFDA
:1030800000E0FFDF2C7630BD2DE9F0410FF0F8FCB9
:10309000044610F08CFE201AC5B206200DF08CFDFF
:1030A000044606200DF090FD211ADD4C207E1228EA
:1030B00018D000200F1807200DF07EFD06460720CF
:1030C0000DF082FD301A3918207E13280CD0002014
:1030D0000144A078042809D000200844281AC0B26E
:1030E000BDE8F0810120E5E70120F1E70120F4E7E8
:1030F000CB4810B590F825004108C94800F12600DA
:1031000005D00BF0EBFABDE8104005F0B3BF0BF0B3
:10311000BEFAF8E730B50446A1F120000D460A28B2
:103120004AD2DFE800F005070C1C2328353A3F445B
:10313000FFDF42E0207820283FD1FFDF3DE0B848A4
:103140008178052939D0007E122836D020782428AD
:1031500033D0252831D023282FD0FFDF2DE0207851
:1031600022282AD0232828D8FFDF26E0207822280A
:1031700023D0FFDF21E0207822281ED024281CD075
:1031800026281AD0272818D0292816D0FFDF14E0C7
:103190002078252811D0FFDF0FE0207825280CD0DB
:1031A000FFDF0AE02078252807D0FFDF05E0207840
:1031B000282802D0FFDF00E0FFDF257030BD10B50A
:1031C000012803D0022805D0FFDF10BDBDE8104064
:1031D00003202BE79248007E122800D0FFDF002159
:1031E000052011F0A1F9BDE81040112036E71FB508
:1031F00004466A46002001F01FFEB4B1BDF802206B
:103200004FF6FF700621824201D1ADF80210BDF8E1
:103210000420824201D1ADF80410BDF808108142AB
:1032200003D14FF44860ADF8080068460CF06AF925
:1032300005F020FF04B010BD70B514460D460646DB
:1032400011F0BEF958B90DB1A54201D90C2070BDDD
:10325000002408E056F8240011F0B2F908B110205B
:1032600070BD641CE4B2AC42F4D3002070BD2DE903
:10327000F04105461F4690460E460024006811F0B6
:10328000ECF908B110202BE728680028A88802D0A4
:10329000B84202D84FE00028F5D0092020E728687E
:1032A000025DB2B1611C475C152F2DD03BDC3AD2D8
:1032B000DFE807F03912222228282A2A3131393949
:1032C00039393939393939392200025D32BB641C48
:1032D000A4B2A142F9D833E0022ADED1A21C805C5C
:1032E00088F80000072801D2400701D40A20F7E639
:1032F000307840F0010015E0D043C00707E0012A14
:1033000007D010E00620EBE61007A0F1805000285F
:10331000F5D01846E4E63078820701D50B20DFE6C9
:1033200040F0020030702868005D084484B2A8882C
:10333000A04202D2B1E74FF4485381B2A142AED8C5
:103340000020CDE610B5027843F202235408012292
:10335000022C12D003DC3CB1012C16D106E0032C68
:1033600010D07F2C11D112E0002011E080790324CD
:10337000B4EB901F09D10A700BE08079B2EB901F7B
:1033800003D1F8E780798009F5D0184610BDFF20F9
:103390000870002010BD224991F82E2042B191F80A
:1033A0002F10022909D0032909D043F202207047C7
:1033B00001461B48253001F092BD032100E00121A8
:1033C00001700020704738B50C460546694601F08B
:1033D00086FD00280DD19DF80010207861F347008C
:1033E000207055F8010FC4F80100A888A4F8050062
:1033F000002038BD38B51378B0B1022814D0FF28AA
:103400001BD008A46D46246800944C7905EB9414F5
:10341000247864F34703137003280AD010E00000F7
:10342000D80100200302FF0123F0FE0313700228DD
:10343000F2D1D8B240F0010005E043F0FE00107078
:10344000107820F0010010700868C2F80100888828
:10345000A2F8050038BD02210DF006BC38B50C46B7
:103460000978222901D2082038BDADF800008DF876
:10347000022068460BF079F905F0FCFD050003D148
:1034800021212046FFF746FE284638BD1CB5002006
:103490008DF80000CDF80100ADF80500FE4890F869
:1034A0002E00022801D0012000E000208DF8070046
:1034B00068460BF092FB002800D0FFDF1CBD002205
:1034C0000A80437892B263F345120A8043785B081E
:1034D00063F386120A8000780C282BD2DFE800F014
:1034E0002A06090E1116191C1F220C2742F0110082
:1034F00009E042F01D0008800020704742F01100F2
:1035000012E042F0100040F00200F4E742F0100038
:10351000F1E742F00100EEE742F0010004E042F082
:103520000200E8E742F0020040F00400E3E742F066
:103530000400E0E7072070472DE9FF478AB0002527
:10354000BDF82C6082461C4691468DF81C507007D1
:1035500003D5606811F034F868B9CF4F4FF0010817
:1035600097F82E0058B197F82F00022807D160680D
:1035700011F073F818B110200EB0BDE8F0873007D5
:1035800002D5A08980283DD8700705D4B9F1000F75
:1035900002D097F8240098B3E07DC0F300108DF8B6
:1035A0001B00627D072003215AB3012A2CD0022A76
:1035B000E2D0042AE0D18DF81710F00627D4A27DBE
:1035C000072022B3012A22D0022A23D0042AD3D1F1
:1035D0008DF819108DF81590606810B307A9FFF7E2
:1035E000B1FE0028C8D19DF81C00FF2816D06068E5
:1035F00050F8011FCDF80F108088ADF8130014E0CB
:1036000000E001E00720B7E78DF81780D5E78DF8D7
:103610001980DFE702208DF81900DBE743F2022072
:10362000AAE7CDF80F50ADF81350E07B40B9207CED
:1036300030B9607C20B9A07C10B9E07CC00601D014
:10364000062099E78DF800A0BDF82C00ADF8020027
:10365000A0680190A068029004F10F0001F033FC13
:103660008DF80C000DF10D00FFF795FE00B1FFDFA6
:103670009DF81C008DF80E008DF816508DF818502E
:10368000E07D08A900F00F008DF81A0068460CF0E4
:10369000F8F805F0EFFC6FE7F0B59DB000228DF86B
:1036A00068208DF858208DF8602005468DF86C2034
:1036B000129213921492159219B10FC912AC84E8A8
:1036C0000F00754CA078052801D004280CD1129861
:1036D0006168884200D120B91498E168884203D11A
:1036E00010B108201DB0F0BD1F26334618AA1AA934
:1036F00012A8FFF7BCFD0028F4D133461BAA16A977
:1037000014A8FFF7B4FD0028ECD19DF85800C007BD
:1037100001D00A20E6E7A08A410708D4A17D31B193
:103720009DF86010890702D043F20120DAE79DF886
:103730006010C90709D0400707D4208818B144F2A7
:103740005061884201D90720CCE78DF8005003264C
:103750008DF8016001278DF80270BDF84C208DF8BE
:10376000032001A8129921F0F5F968460CF0F0F851
:1037700005F080FC0028B5D18DF824508DF8256027
:103780008DF82670BDF854208DF827200AA81499CA
:1037900021F0E0F909A80CF028F905F06BFC0028ED
:1037A000A0D112AD241D95E80F0084E80F00002081
:1037B00098E770B586B00D46040005D010F04DFFB7
:1037C00020B1102006B070BD0820FBE72078C107AB
:1037D000A98802D0FF2902D303E01F2901D20920C2
:1037E000F0E7800761D4FFF74FFC38B12078C0F3D1
:1037F000C101012904D0032902D005E01320E1E72B
:10380000254991F8241041B1C0074FF000054FF051
:10381000010604D08DF80F6003E00720D2E78DF891
:103820000F506846FFF7B7FD00B1FFDF2078C0F307
:10383000C1008DF801008DF80250607808B98DF84C
:1038400002606078C00705D09DF8020040F00100DA
:103850008DF802006078800705D59DF8020040F0E1
:1038600002008DF802006078400705D59DF802003F
:1038700040F004008DF802002078C0F380008DF83D
:1038800003006088ADF80600A088ADF80A00207A31
:1038900058B9607A48B901E0D8010020A07A20B96F
:1038A000E07A10B9207BC00601D006208AE704F137
:1038B000080001F008FB8DF80E0068460BF090FA46
:1038C00005F0D8FB00288BD18DF810608DF81150D1
:1038D000ADF81250ADF8145004A80BF0CBFA05F077
:1038E000C9FB00288BD1E08864280AD248B10120A6
:1038F00001F0FFFA002891D12078C00705D01520EB
:1039000004E06421B0FBF1F0F2E71320FFF7A6FB1F
:10391000002057E72DE9FF470220FF4E8DF80400F5
:103920000027708EADF80600B84643F202094CE05D
:1039300001A80DF000F9050006D0708EA8B3A6F816
:103940003280ADF806803EE0039CA07F01072DD5B4
:1039500004F124000090A28EBDF80800214604F175
:10396000360301F056FC050005D04D452AD0112D37
:103970003CD0FFDF3AE0A07F20F00801E07F420862
:1039800062F3C711A177810861F30000E07794F832
:10399000210000F01F0084F820002078282826D17C
:1039A00029212046FFF7B6FB21E014E040070AD5A5
:1039B000BDF8080004F10E0101F0A9FA05000DD0D0
:1039C0004D4510D100257F1CFFB202200DF0F4F808
:1039D000401CB842ACD8052D11D008E0A07F20F0E3
:1039E0000400A07703E0112D00D0FFDF0025BDF813
:1039F00006007086052D04D0284604B0BDE5A6F863
:103A000032800020F9E770B50646FFF724FD054631
:103A100005F004FD040000D1FFDF6680207820F06F
:103A20000F00801C20F0F000203020700620207253
:103A300095F83E006072BDE8704005F0F2BC2DE9DB
:103A4000F04786B0040000D1FFDF2078B24D20F0AF
:103A50000F00801C20F0F00070302070606801784A
:103A6000491F1B2933D2DFE801F0FE32323255FD07
:103A7000320EFDFD42FC32323278FCFCFB32323237
:103A8000FCFCFAF9FC00C6883046FFF7E4FC05466A
:103A9000304607F0A9F8E0B16068007A85F83E008A
:103AA00021212846FFF736FB3046FEF7CCFA304698
:103AB00003F018FE3146012010F036FDA87F20F0FB
:103AC0001000A877FFF726FF002800D0FFDF06B020
:103AD00053E5207820F0F00020302070062020727E
:103AE00066806068007A607205F09BFCD8E7C58844
:103AF0002846FFF7B0FC00B9FFDF606800790128B5
:103B000000D0FFDF6068017A06B02846BDE8F047C4
:103B100007F046BCC6883046FFF79DFC050000D183
:103B2000FFDF05F07EFC606831460089288160680F
:103B30004089688160688089A881012010F0F4FCC8
:103B40000020A875A87F00F003000228BFD1FFF76E
:103B5000E1FE0028BBD0FFDFB9E70079022811D0D1
:103B600000B1FFDF05F05DFC6668B6F806A0307AAC
:103B7000361D01280CD0687E814605F0E7F9070064
:103B800009D107E006B00220BDE8F047FFF717BBF8
:103B9000E878F1E7FFDF0022022150460DF05BF8E4
:103BA000040000D1FFDF22212046FFF7B3FA30796D
:103BB000012800D00220A17F804668F30101A1778F
:103BC000308B2081708B6081B08BA08184F8229033
:103BD0008DF80880B8680090F86801906A46032163
:103BE00050460DF038F800B9FFDFB888ADF8100086
:103BF000B8788DF8120004AA052150460DF02BF874
:103C000000B9FFDFB888ADF80C00F8788DF80E0029
:103C100003AA042150460DF01EF800B9FFDF06216B
:103C200006F1120001F091F938B37079800700D5E0
:103C3000FFDF7179E07D61F34700E075D6F806009B
:103C4000A0617089A083062106F10C0001F07DF9C6
:103C5000E8B195F825004108607805E032E02AE0F7
:103C600047E03FE021E035E061F347006070D5F8C0
:103C70002600C4F80200688D12E0E07D20F0FE000E
:103C8000801CE075D6F81200A061F08ADAE760784F
:103C900020F0FE00801C6070F068C4F80200308ADA
:103CA000E0804046FFF78BFA11E706B02046BDE8FA
:103CB000F04701F037BD05F0B4FB15F8300F40F0C8
:103CC000020005E005F0ADFB15F8300F40F00400F0
:103CD0002870FCE6287E132809D01528E4D1162088
:103CE000FFF7BCF906B0BDE8F04705F09ABB142019
:103CF000F6E7A978052909D00429D5D105F091FB6B
:103D0000022006B0BDE8F047FFF790B9007900281F
:103D1000CAD0E87802E00000D801002001F0BAF82B
:103D200005F07FFB0320ECE72DE9F05F0546007806
:103D30004FF000080009DFF820A891460C464646DF
:103D400001287AD001274FF0020C4FF6FF730228AA
:103D500074D007280BD00A2871D0FFDFA9F80060C3
:103D600014B1A4F8008066800020BDE8F09F696867
:103D700004F108000A78172A70D010DC4FF0000B0D
:103D8000142A31D006DC052A6DD0092A0FD0102A5A
:103D90007ED11FE0152A7CD0162AF9D1F0E01B3A1B
:103DA000052A75D2DFE802F009C5FDDAFC00C888F3
:103DB0004FF012081026214675E14FF01C080A2624
:103DC000D4B38888A0806868807920726868C079D8
:103DD0006072C3E74FF01B0814266CB303202072F7
:103DE00068688088A080B9E70A793C2AB6D00D1DA2
:103DF0004FF010082C26FCB16988A180298B6182C4
:103E0000298B2182698BA182A98BE1826B79024681
:103E1000A91D1846FFF7EEFA2879012810D084F87A
:103E20000FC0FF202076C4F81CB0C4F820B0C4F83E
:103E300024B0C4F828B091E712E013E13BE135E18A
:103E4000E7730AF1040084F818B090E80E00DAF87D
:103E50001000C4E90930C4E907127FE7A8E002E0D6
:103E6000A9F8006080E72C264FF01D08002CF7D041
:103E70000546A380887B2A880F1D60F300022A80F4
:103E8000887B400860F341022A80887B800801E03B
:103E9000E6E0ADE060F382022A80887BB91CC008AE
:103EA00060F3C3022A80B87A0011401C60F3041248
:103EB00002F07F0028807878AA1CFFF79BFA387DF3
:103EC00005F1090207F11501FFF794FA387B01F0BB
:103ED0004BF82874787B01F047F86874F87EA87472
:103EE000787AE87497F83B002875B87B6875A5F870
:103EF00016B0DAF81C00A861397ABAF820008842B6
:103F000001D2014610E0B87AC0F3411002280BD06C
:103F1000012809D0288820F060002880A1840A4662
:103F200007F11C01A86998E0288820F06000403063
:103F3000F3E711264FF02008002C91D0A380686889
:103F400004F10A02007920726868007B6072696877
:103F50008B1D48791946FFF74DFAFFE60A264FF008
:103F60002108002CE9D08888A080686880792072B8
:103F70006868C07960729AF8301021F004018BE013
:103F80000B264FF02208002CD7D0C888A080686884
:103F9000007920726868007A00F0E6FF607201E044
:103FA00052E039E06868407A00F0DEFFA072D5E6A2
:103FB0001C264FF02608002CBFD0A38068684079EB
:103FC00060726868007AA0720AF1040090E80E003E
:103FD000DAF81000C4E90530C4E903126868007912
:103FE0003C2803D043287DD0FFDFB7E62772B5E633
:103FF00010264FF02408002C9FD08888A080686885
:10400000807920816868807A608168680089A081F1
:1040100068688089E081A1E610264FF02308002C13
:104020008BD08888A0806868C088208168680089F3
:10403000608168684089A08168688089E0819AF819
:10404000301021F0020127E030264FF02508002C27
:1040500088D0A38069682822496820F07BFD7DE62E
:104060004A4677E0287A012803D0022817D0FFDFDC
:1040700074E610264FF01F08002C85D06888A080B9
:10408000A8892081E8896081288AA081688AE081E6
:104090009AF8301021F001018AF830105EE64FF0F6
:1040A00012081026688800F03DFF57E62846BDE854
:1040B000F05F01F0C1BC287A07284DD2DFE800F09C
:1040C0004C38384A4A4A040009264FF01108002C9F
:1040D00092D06F883846FFF7BEF990F822A0A780EB
:1040E000687A00E02DE02072042138460CF0CEFD05
:1040F000052138460CF0CAFD002138460CF0C6FDFB
:10410000012138460CF0C2FD032138460CF0BEFDFB
:10411000022138460CF0BAFD062138460CF0B6FDF7
:10412000072138460CF0B2FD504600F0B3FE15E60C
:1041300014264FF01B08002C8AD0A380287A01286F
:1041400002D084F808C009E62772DAE90710C4E94A
:10415000031003E62146A9E7FFDFFFE570B5FE4D3A
:10416000287E122801D0082070BD0BF094F904F0CD
:1041700081FF040002D1687E00F08CFE0021052042
:1041800010F0D2F9204670BD1CB5F348007E13280C
:1041900001D208201CBD00208DF8000068460AF0FE
:1041A00069FE04F067FF0028F4D10021052010F01B
:1041B000BBF91120FEF752FF00201CBD70B501288D
:1041C00005D0052825D0062800D0FFDF70BD8DB2B0
:1041D0002846FFF740F9040000D1FFDF20782128AE
:1041E000F4D005F01BF968B1017821F00F01891CAA
:1041F00021F0F00110310170022101724580002090
:10420000A07528E021462846BDE870401322FFF73C
:1042100025B9D148047EA4F1120005281FD2DFE899
:1042200000F0060303030300FFF7AEFF01E0FFF712
:1042300095FF0028CAD105F0F1F80028C6D0017812
:1042400021F00F01891C21F0F00120310170132CA5
:1042500007D002210172BDE8704005F0E2B8FFDF2F
:1042600070BD0121F6E72DE9F04116460C008046AD
:1042700000D1FFDF307820F00F00801C20F0F0002C
:10428000103030702078012804D0022818D0FFDFC9
:10429000BDE8F0814046FFF7DEF8050000D1FFDF02
:1042A0000320A87505F0BDF894E80F00083686E8ED
:1042B0000F00A94810F8301F41F001010170E7E735
:1042C0004046FFF7C8F8050000D1FFDFA1884FF690
:1042D000FF700027814202D1E288824203D08142EE
:1042E00001D1E08840B105F09CF894E80F00083651
:1042F00086E80F00AF75CBE7A87D0128C8D17823E9
:104300000022414610F066F80220A875C0E738B5D3
:1043100005460C46084610F053F918BB203D062D03
:104320004AD2DFE805F0031B373C4230002106206B
:1043300010F0D0F808B1112038BDA01C0BF07EF9A8
:1043400004F098FE050038D100220823114606200B
:1043500010F040F8062830D0FFDF2EE0606810F043
:1043600073F908B1102038BD618820886A460BF0C7
:104370003BFD04F07FFE05001FD16068E8B1BDF889
:104380000010018019E0A07800F0010120880BF0F6
:1043900061FD0EE0206801F0FDFD05460DE020788E
:1043A00000F001000AF066F903E0618820880BF054
:1043B000A0FC04F05FFEF0E70725284638BD70B585
:1043C00005460C46084610F021F908B1102070BDD2
:1043D000202D07D0212D0DD0222D0BD0252D09D039
:1043E000072070BD2088A11C0AF039FABDE8704092
:1043F00004F040BE062070BD57482530704708B510
:104400003421554820F047FC0120FEF70FFE112013
:10441000FEF724FE50496846263104F095FF4E48C9
:104420009DF8002010F8251F62F3470121F00101DB
:104430000170002141724FF46171A0F80710022150
:104440008172FEF755FE00B1FFDFFCF78FFF01F030
:1044500034F908BD10B50C464021204620F0F9FB88
:10446000A07F20F00300A077202020700020A075FE
:1044700084F8230010BD70472DE9FC41074610F079
:104480009FF810B11020BDE8FC81334E06F12501E4
:10449000D6F825000090B6F82950ADF8045096F8EB
:1044A0002B408DF806403846FEF78DFF0028EAD1F4
:1044B000FEF71EFE0028E6D0009946F8251FB580BD
:1044C000B471E0E710B5044610F0A0F808B1102070
:1044D00010BD21482049224690F825002631400889
:1044E000FEF788FF002010BDFEB50D4604004FF01A
:1044F000000712D00822FEF79FFE002812D10026E6
:1045000009E000BF54F826006946FEF71BFF0028AB
:1045100008D1761CF6B2AE42F4D309F0AEFF10B16A
:1045200043F20320FEBD0C4E86F8247024B300270E
:104530001EE000BF54F8270002A9FEF703FF00B1F8
:10454000FFDF9DF808008DF8000054F8270050F8B0
:10455000011FCDF8011001E0D80100208088ADF8DE
:104560000500684609F0D3FF00B1FFDF7F1CFFB2F2
:10457000AF42DFD386F824500020FEBD2DE9F0477E
:104580008AB01546894604001ED00F4608222946E7
:10459000FEF752FE002810D1002613E054F8260042
:1045A0006946103000F09BFC002806D147B157F84F
:1045B000260010F005F818B110200AB0BDE8F08709
:1045C000761CF6B2AE42E9D30026A5F101081BE045
:1045D00006F1010A0AF0FF0712E000BF54F82600B6
:1045E000017C4A0854F827100B7CB2EB530F05D11D
:1045F00006221130113120F081FA58B17F1CFFB230
:10460000AF42EBD30AF0FF064645E1DB4E4624B14C
:10461000012003E043F20520CFE7002009F0A8FFC6
:1046200010B909F0B9FF10B143F20420C5E75CB33B
:1046300000270DF1170825E054F8270069461030CF
:1046400000F04DFC00B1FFDF54F82700102250F8B5
:10465000111FCDF801108088ADF8050054F827101F
:104660000DF1070020F076FA96B156F827101022C7
:10467000404620F06FFA684609F022FF00B1FFDFE4
:104680007F1CFFB2AF42D7D3FEF700FF002094E7B4
:10469000404601F073FCEEE730B585B004460FF0FC
:1046A0008FFF18B960680FF0D8FF10B1102005B067
:1046B00030BD60884AF2B811884206D82078FB4D98
:1046C00028B1012806D0022804D00720EFE7FEF722
:1046D0000FFD18E06078022804D0032802D043F2CE
:1046E0000220E4E785F82F00C1B200200090ADF869
:1046F000040002292CD0032927D0FFDF684609F0E7
:10470000EDFF04F0B7FC0028D1D1606801F029FC6E
:10471000207858B101208DF800000DF1010001F062
:104720002DFC68460BF0F5FB00B1FFDF207885F823
:104730002E00FEF7ABFE608860B1A88580B209F05C
:104740000FFF00B1FFDF0020B1E78DF80500D5E7CE
:104750004020FAE74FF46170EFE710B504460FF020
:1047600055FF20B9606838B10FF06EFF08B1102016
:1047700010BD606801F002FCCC4830F82C1F61804D
:10478000C178617080782070002010BD2DE9F84359
:104790001446894606460FF039FFA0B948460FF087
:1047A0005CFF80B920460FF058FF60B9BF4DA87874
:1047B000012800D13CB13178FF2906D049B143F23C
:1047C0000400BDE8F8831020FBE7012801D0042095
:1047D000F7E74FF00008A4B3052811D004280FD044
:1047E00069462046FEF76BFE0028EAD1207D48B1DD
:1047F000012809D0022809D0032809D00720E0E7C2
:104800000820DEE7424604E0012202E0022200E046
:1048100003222346174600200099FEF78DFE00284C
:10482000CFD1A0892880A07BE875BDF80000A882C0
:10483000AF75BDF80000000701D5A08988B1A08937
:10484000288049460020FEF727FF0028B9D1A87824
:1048500005280BD0042809D0287DC00703D00320E9
:1048600002E08020ECE70220FEF7E0FB86F8008003
:104870000020A6E77CB58D4C05460E46A0780228A0
:1048800003D0032801D008207CBD15B143F20400F9
:104890007CBD07200CF098F910B9A078032806D049
:1048A000FEF7F2FB28B1A078032804D009E012201B
:1048B0007CBD13207CBD304600F0CBFA0028F9D136
:1048C000E67001208DF800008DF801008DF802508F
:1048D0002088ADF80400E07D8DF8060068460BF0F6
:1048E000C6F904F0C7FB0028E4D1A078032805D05E
:1048F0005FF00400FEF79AFB00207CBDE07800F03A
:10490000B8FA0520F6E71CB510B143F204001CBD4F
:10491000664CA078042803D0052801D008201CBDCF
:1049200000208DF8000001218DF801108DF80200A3
:1049300068460BF09CF904F09DFB0028EFD1A078AD
:10494000052805D05FF00200FEF770FB00201CBDBB
:10495000E07800F09FFA0320F6E72DE9FC4180465D
:104960000E46032508460FF078FE002866D1404623
:10497000FEF771FD040004D02078222804D208201C
:1049800081E543F202007EE5A07F00F003073EB11F
:10499000012F0CD000203146FEF729FC0500EFD195
:1049A000012F06D0022F1AD0FFDF28466BE5012029
:1049B000F1E7A07D3146022801D011B107E01120B6
:1049C00061E56846FCF7DFFD0028D9D1694640461D
:1049D00006F0A9FC0500E8D10120A075E5E7A07D5F
:1049E000032804D1314890F83000C00701D02EB31D
:1049F0000EE026B1A07F40071ED4002100E0012177
:104A0000404606F0B0FC0500CFD1A075002ECCD0FA
:104A10003146404600F07BFA05461128C5D1A07FFB
:104A20004107C2D4316844F80E1F7168616040F0DC
:104A3000040020740025B8E71125B6E7102022E510
:104A400070B50C460546FEF706FD010005D022466E
:104A50002846BDE87040FEF701BD43F2020070BD7C
:104A600010B5012807D1114B9B78012B00D011B153
:104A700043F2040010BD09F0B6FDBDE8104004F09B
:104A8000F9BA012300F010BA00231A46194600F0C3
:104A90000BBA70B506460C4608460FF091FD18B9E2
:104AA00020680FF0B3FD18B1102070BDD8010020B0
:104AB000F64D2A7E112A04D0132A00D33EB10820D5
:104AC000F3E721463046FEF774FE60B1EDE70920BA
:104AD000132A0DD0142A0BD0A188FF29E5D3152065
:104AE000FEF7BCFA0020D4E90012C5E90712DCE7A2
:104AF000A1881F29D9D31320F2E72DE9F047DFF869
:104B00008C93804690B099F818009A4615460C464A
:104B1000132803D3FFF738FB002836D120460FF0C7
:104B20004FFD88BB28460FF04BFD68BB20784FF047
:104B30000107C0074FF0000602D08DF83A7001E07F
:104B40008DF83A602078C0F3C1008DF800006178DC
:104B50000720E1B101291AD0022916D0042914D165
:104B600004208DF809006088ADF80A00A088ADF82F
:104B700010002078C0F3C100012825D0032823D0DD
:104B800040460FF01DFD28B1102010B016E58DF83D
:104B90000970E8E798F80000400808D0012809D01B
:104BA000022807D0032805D043F20220EDE78DF854
:104BB000026001E08DF80270404650F8011FCDF808
:104BC00003108088ADF807000DF10100FEF7E3FB4C
:104BD00008B10320D9E72888ADF816006888ADF839
:104BE0001C00A888ADF82200E888ADF82800ADF8D0
:104BF0002E60ADF8346068460AF057FAE8B999F8C3
:104C000018004D46112801D00820BEE706200BF001
:104C1000DBFF38B12078C0F3C100012804D003289D
:104C200002D004E01220B0E795F8240028B1FEF786
:104C30002BFA022803D21320A7E70720A5E7504646
:104C400000F007F90028A0D185F819A068460AF0FD
:104C50001FFC04F00FFA002897D1687E00F009F9D4
:104C6000E08864280BD250B15FF0010000F041F9F8
:104C700004008AD11220FEF7F1F9204685E764216D
:104C8000B0FBF1F0F2E770B5064615460C46084653
:104C90000FF0BCFC18B928460FF0B8FC08B1102082
:104CA00003E72A46214630460BF081F804F0E2F98A
:104CB0000028F5D121787F29F2D10520F5E67CB5D1
:104CC00005460C4608460FF07BFC08B110207CBD61
:104CD0002846FEF7C0FB20B10078222804D2082025
:104CE0007CBD43F202007CBD684890F8300040076C
:104CF00001D511207CBD2078C00802D16078C008A1
:104D000001D007207CBDADF8005020788DF802005E
:104D100060788DF803000220ADF8040068460AF0C0
:104D200055F804F0A7F97CBD70B586B014460D4661
:104D30000646FEF790FB28B10078222805D208200D
:104D400006B0B2E643F20200FAE728460FF085FC0F
:104D500020B944B120460FF077FC08B11020EFE7EE
:104D600000202060A080494890F83000800701D5DD
:104D70001120E5E703A9304609F0F7FD18B100BF9F
:104D800004F078F9DCE7ADF80060BDF81400ADF888
:104D90000200BDF81600ADF80400BDF81000BDF823
:104DA0001210ADF80600ADF808107DB1298809B1E0
:104DB000ADF80610698809B1ADF80210A98809B1EB
:104DC000ADF80810E98809B1ADF80410DCB1BDF800
:104DD0000610814201D9081A2080BDF80210BDF8E2
:104DE0001400814201D9081A6080BDF80800BDF89E
:104DF0000410BDF816200144BDF812001044814291
:104E000001D9081AA080684609F0E6FEB8E71CB58B
:104E10001F490968CDE9001068460AF048F904F016
:104E200029F91CBD1CB500200090019068460AF0CD
:104E30003EF904F01FF91CBD108008885080488896
:104E40009080C88810818888D0800020508190810F
:104E5000704710B5044604F079F830B1407830B1AD
:104E6000204604F082FB002010BD052010BD12205A
:104E700010BD10B504F06AF8040000D1FFDF6078BF
:104E800000B9FFDF6078401E607010BDD8010020BF
:104E90004050020010B504F059F8040000D1FFDFC3
:104EA0006078401C607010BD1CB5ADF800008DF836
:104EB00002308DF803108DF8042068460AF03CFF9C
:104EC00004F0D8F81CBD0CB52FA2D2E90012CDE930
:104ED00000120079694601EB501000780CBD027891
:104EE000520804D0012A02D043F202207047FEF794
:104EF00029BA10B548B183000022114605200FF0F1
:104F000069FA052801D0032010BD002010BD1FB58F
:104F10006A46FFF791FF68460AF01DFB04F0AAF805
:104F200004B010BD70B50C0006460DD0FEF793FA24
:104F3000050000D1FFDFA6802889208128896081B3
:104F40006889A081A889E081AFE510B500231A46E1
:104F500003E0845C2343521CD2B28A42F9D30BB1E2
:104F6000002010BD012010BD00B540B1012805D0C2
:104F7000022803D0032804D0FFDF002000BDFF205B
:104F800000BD042000BD0000070605040302010067
:104F900010B504460FF014FB08B1102010BD2078A6
:104FA000C0F30210042807D86078072804D3A1783A
:104FB000102901D8814201D2072010BDE0784107B5
:104FC00006D421794A0703D4000701D4080701D584
:104FD000062010BD002010BD10B513785C08837F3B
:104FE00064F3C713837713789C08C37F64F30003CB
:104FF000C3771078C309487863F341004870137889
:105000001C090B7864F347130B701378DB0863F308
:10501000000048705078487110BD10B5C4780B7806
:1050200064F300030B70C478640864F341030B70ED
:10503000C478A40864F382030B70C478E40864F3B2
:10504000C3030B700379117863F3000111700379C6
:105050005B0863F34101117003799B0863F38201DC
:1050600011700079C00860F3C301117010BD70B5F4
:1050700014460D46064604F0D1F980B10178182295
:1050800021F00F01891C21F0F001A03100F8081B6C
:1050900021461FF0A4FDBDE8704004F0C2B92946C6
:1050A0003046BDE870401322FEF7D8B92DE9F0472D
:1050B000064608A8894690E830041F469046142109
:1050C00028461FF0E8FD0021CAF80010B8F1000FD3
:1050D00003D0B9F1000F03D114E03878C00711D024
:1050E00020680FF093FAC0BBB8F1000F07D1206819
:1050F000123028602068143068602068A860216839
:10510000CAF800103878800724D560680FF09CFA40
:1051100018BBB9F1000F21D0FFF76EF90168C6F88E
:1051200068118188A6F86C11807986F86E0101F00B
:1051300002FDF94FEF60626862B196F8680106F20D
:10514000691140081032FEF755F91022394660689F
:105150001FF000FD0020BDE8F08706E0606820B188
:10516000E8606068C6F86401F4E71020F3E730B542
:10517000054608780C4620F00F00401C20F0F00196
:10518000103121700020607095F8230030B10428A0
:105190000FD0052811D0062814D0FFDF2078012178
:1051A000B1EB101F04D295F8200000F01F006070D2
:1051B00030BD21F0F000203002E021F0F00030306E
:1051C0002070EBE721F0F0004030F9E7F0B591B046
:1051D000022715460C4606463A46ADF808700921E6
:1051E00003AB04F07AFF0490002810D004208DF85F
:1051F00004008DF80170E034099605948DF818507C
:105200000AA968460DF022FA00B1FFDF012011B0B3
:10521000F0BD10B588B00C460A99ADF80000C3B1D6
:105220001868CDF802005868CDF80600ADF80A20DD
:10523000102203A81FF08EFC68460AF02FFA03F034
:1052400019FF002803D1A17F41F01001A17708B018
:1052500010BD0020CDF80200E6E72DE9F84F064624
:10526000808A0D4680B28246FEF7F5F80446307813
:10527000DFF8A48200274FF00509A8F120080F28C5
:1052800070D2DFE800F06FF23708387D8CC8F1F09B
:10529000EFF35FF3F300A07F00F00300022809D0D2
:1052A0005FF0000080F0010150460BF0DDFC0500CE
:1052B00003D101E00120F5E7FFDF98F85C10C90792
:1052C00002D0D8F860000BE0032105F11D000EF0BC
:1052D00052FED5F81D009149B0FBF1F201FB12001E
:1052E000C5F81D0070686867B068A8672078252831
:1052F00000D0FFDFCAE0A07F00F00300022809D041
:105300005FF0000080F0010150460BF0ADFC06009C
:1053100003D101E00120F5E7FFDF3078810702D5F6
:105320002178252904D040F001003070BDE8F88FC5
:1053300002202870307F287106F11D002D36C5E946
:105340000206F3E7A07F00F00300022808D0002047
:1053500080F0010150460BF087FC040004D102E00C
:105360000120F5E7A7E1FFDF2078C10604D507207B
:1053700028703D346C60D9E740F008002070D5E714
:10538000E07F000700D5FFDF307CB28800F001032A
:1053900001B05046BDE8F04F092105F027BD04B922
:1053A000FFDF716821B1102204F124001FF0D2FB4D
:1053B00028212046FDF7AEFEA07F00F00300022862
:1053C0000ED104F12400002300901A4621465046D5
:1053D000FFF71FFF112807D029212046FDF79AFE6D
:1053E000307A84F82000A1E7A07F000700D5FFDF16
:1053F00014F81E0F40F008002070E782A761E761F3
:10540000C109607861F34100014660F38201617077
:10541000307AE0708AE7A07F00F00300022809D00C
:105420005FF0000080F0010150460BF01DFC04000D
:1054300003D101E00120F5E7FFDF022104F185003F
:105440000EF099FD0420287004F5B4706860B4F87B
:1054500085002882304810387C346C61C5E90280B0
:1054600064E703E024E15BE02DE015E0A07F00F0BD
:105470000300022807D0002080F0010150460BF005
:10548000F3FB18B901E00120F6E7FFDF32462146C1
:105490005046BDE8F84FEAE504B9FFDF207821283F
:1054A000A1D93079012803D1E07F40F00800E077EE
:1054B000324621465046FFF7DAFD2046BDE8F84F58
:1054C0002321FDF727BE3279AA8005F108030921BF
:1054D000504604F002FEE86010B185F8009025E720
:1054E000A07F00F00300022808D0002080F0010116
:1054F00050460BF0B9FB040003D101E00120F5E7B1
:10550000FFDF04F1620102231022081F0BF033FABF
:1055100007703179417009E73802002040420F00DE
:10552000A07F00F00300022808D0002080F00101D5
:1055300050460BF099FB050003D101E00120F5E78F
:10554000FFDF95F8840000F0030001287AD1A07FE6
:1055500000F00307E07F10F0010602D0022F04D113
:1055600033E095F8A000C0072BD0D5F8601121B327
:1055700095F88320087C62F387000874A17FCA092C
:10558000D5F8601162F341000874D5F8601166F334
:1055900000000874AEB1D5F86001102204F12401B6
:1055A00088351FF0D7FA287E40F001002876287849
:1055B00020F0010005F8880900E016B1022F04D0A0
:1055C0002DE095F88800C00727D0D5F85C1121B3ED
:1055D00095F88320087C62F387000874A17FCA09CC
:1055E000D5F85C1162F341000874D5F85C1166F3DC
:1055F000000008748EB1D5F85C01102204F124017A
:1056000088351FF0A7FA287840F0010005F8180B3C
:10561000287820F0010005F8A009022F44D00020CE
:1056200000EB400005EBC00090F88800800709D52A
:1056300095F87C00D5F86421400805F17D01103211
:10564000FDF7D8FE8DF8009095F884006A4600F0CA
:1056500003008DF8010095F888108DF8021095F878
:10566000A0008DF803002146504601F04DFA207845
:10567000252805D0212807D0FFDF2078222803D94C
:1056800022212046FDF746FDA07F00F003000228FE
:105690000CD0002080F0010150460BF0F7FA0028F2
:1056A0003FF44FAEFFDF41E60120B9E70120F1E70B
:1056B000706847703AE6FFDF38E670B5FE4C0025AB
:1056C00084F85C5025660CF08EFF04F11001204632
:1056D00003F060FE84F8305070BD70B50D46FDF7E4
:1056E000BAFE040000D1FFDF4FF4B87128461FF066
:1056F000D2FA04F124002861A07F00F00300022800
:1057000008D0012105F1E0000CF06EFF002800D068
:10571000FFDF70BD0221F5E70A46014602F1E00015
:105720000CF082BF70B50546406886B001780A2942
:1057300006D00D2933D00E292FD0FFDF06B070BD63
:1057400086883046FDF787FE040000D1FFDF207811
:105750002128F3D028281BD1686802210E3001F0DF
:10576000C8F9A8B168680821801D01F0C2F978B1B4
:1057700004F1240130460AF07CFA03F07BFC00B10E
:10578000FFDF06B02046BDE870402921FDF7C2BC0E
:1057900006B0BDE8704003F044BE012101726868A4
:1057A000C6883046FDF757FE040000D1FFDFA07F1A
:1057B00000F00301022902D120F01000A077207828
:1057C00021280AD06868017A09B1007980B1A07FE8
:1057D00000F00300022862D0FFDFA07F00F003008A
:1057E0000228ABD1FEF796F80028A7D0FFDFA5E787
:1057F00003F017FEA17F08062BD5E07FC00705D078
:1058000094F8200000F01F00102820D05FF0050061
:1058100084F82300207829281DD02428DDD13146A2
:1058200004200EF081FE22212046FDF773FCA07FAC
:1058300000F00300022830D05FF0000080F001018A
:1058400030460BF023FA0028C7D0FFDFC5E706205B
:10585000DEE70420DCE701F00300022808D0002086
:1058600080F0010130460BF0FFF9050003D101E0A3
:105870000120F5E7FFDF25212046FDF74BFC032043
:105880008DF80000694605F1E0000CF0C4FE022826
:10589000A3D00028A1D0FFDF9FE70120CEE703F0CF
:1058A000C0FD9AE72DE9F04387B099461646884631
:1058B0000746FDF7D0FD04004BD02078222848D3BE
:1058C000232846D0E07F000743D4A07F00F00300E8
:1058D000022809D05FF0000080F0010138460BF08B
:1058E000C3F9050002D00CE00120F5E7A07F00F02D
:1058F0000300022805D00121002238460BF0ABF945
:1059000005466946284601F026F9009800B9FFDFF0
:1059100045B10098E03505612078222806D024287A
:1059200004D007E000990020086103E0252120460B
:10593000FDF7F0FB0098012141704762868001A9C4
:10594000C0E902890CF082FE022802D0002800D0B3
:10595000FFDF07B0BDE8F08370B586B00546FDF700
:105960007AFD017822291ED9807F00F003000228E9
:1059700008D0002080F0010128460BF075F90400E2
:105980002FD101E00120F5E7FFDF2AE0B4F85E0047
:1059900004F1620630440178427829B12146284654
:1059A000FFF714FCB0B9C9E6ADF804200921284678
:1059B00002AB04F092FB03900028F4D005208DF890
:1059C0000000694604F1E0000CF025FE022801D039
:1059D00000B1FFDF02231022314604F15E000BF01C
:1059E00000F8B4F860000028D0D1A7E610B586B062
:1059F0000446FDF730FD017822291BD9807F00F095
:105A00000300022808D0002080F0010120460BF09E
:105A10002BF9040003D101E00120F5E7FFDF0620A8
:105A20008DF80000694604F1E0000CF0F4FD002858
:105A300000D0FFDF06B010BD2DE9F05F05460C4633
:105A400000270078904601093E4604F1080BBA464B
:105A500002297DD0072902D00A2909D146E06868C9
:105A600001780A2905D00D2930D00E292ED0FFDF6C
:105A7000BCE114271C26002C6BD08088A080FDF789
:105A8000EAFC5FEA000900D1FFDF99F817005A46E7
:105A9000400809F11801FDF7ADFC6868C089208253
:105AA000696851F8060FC4F812004868C4F8160077
:105AB000A07E20F0060001E01802002040F0010066
:105AC000A07699F81E0040F020014DE01A270A2622
:105AD000002CD1D0C088A080FDF7BDFC050000D10E
:105AE000FFDF59462846FFF742FB7FE10CB1A88B48
:105AF000A080287A0B287DD006DC01287BD00228E4
:105B000008D0032804D135E00D2875D00E2874D0B4
:105B1000FFDF6BE11E270926002CADD0A088FDF722
:105B20009AFC5FEA000900D1FFDF287B00F0030048
:105B30000128207A1BD020F001002072297B8908DF
:105B400061F341002072297BC90861F3820001E002
:105B500041E1F2E02072297B090961F3C300207260
:105B600099F81E0040F0400189F81E103EE140F017
:105B70000100E2E713270D26002CAAD0A088FDF72C
:105B80006AFC8146807F00F00300022808D00020D4
:105B900080F00101A0880BF067F8050003D101E057
:105BA0000120F5E7FFDF99F81E0000F00302022A4A
:105BB00050D0686F817801F003010129217A4BD020
:105BC00021F00101217283789B0863F34101217266
:105BD0008378DB0863F38201217283781B0963F306
:105BE000C3012172037863F306112172437863F3D2
:105BF000C71103E061E0A9E090E0A1E0217284F820
:105C000009A0C178A172022A29D00279E17A62F34F
:105C10000001E1720279520862F34101E1720279F6
:105C2000920862F38201E1720279D20862F3C30141
:105C3000E1724279217B62F30001217342795208BB
:105C400062F3410121734279920862F38201217368
:105C5000407928E0A86FADE741F00101B2E7427951
:105C6000E17A62F30001E1724279520862F3410184
:105C7000E1724279920862F38201E1724279D208BC
:105C800062F3C301E1720279217B62F300012173A7
:105C90000279520862F3410121730279920862F39A
:105CA000820121730079C00860F3C301217399F860
:105CB0000000232831D9262140E018271026E4B31C
:105CC000A088FDF7C8FB8346807F00F00300022810
:105CD00009D0002080F00101A0880AF0C5FF5FEA2A
:105CE000000903D101E00120F4E7FFDFE868A060CC
:105CF00099F8000040F0040189F8001099F80100BB
:105D0000800708D5012020739BF8000023286DD957
:105D10002721584651E084F80CA067E015270F268C
:105D20005CB1A088FDF797FB814606225946E868DA
:105D300008F089F90120A073A2E041E048463CE068
:105D400016270926E4B3287B20724FE0287B192709
:105D50000E26ACB3C4F808A0A4F80CA0012807D004
:105D6000022805D0032805D0042803D0FFDF0DE06A
:105D7000207207E0697B042801F00F0141F08001E7
:105D800021721ED0607A20F003006072A088FDF7B7
:105D900062FB05460078212828D0232800D0FFDFA9
:105DA000A87F00F00300022813D0002080F001013A
:105DB000A0880AF06BFF22212846FDF7ABF915E019
:105DC00004E0607A20F00300401CDEE7A8F80060E1
:105DD00011E00120EAE70CB16888A080287A032846
:105DE0002ED004280AD0052850D0FFDFA8F8006084
:105DF0000CB1278066800020BDE8F09F15270F2694
:105E0000002CE3D0A088FDF726FB807F00F0030084
:105E1000022809D05FF0000080F00101A0880AF09C
:105E200023FF050003D101E00120F5E7FFDFD5F8EE
:105E30001D000622594608F006F984F80EA0D5E7A1
:105E400017270926002CC1D0A088FDF704FB814646
:105E5000807F00F00300022808D0002080F00101BC
:105E6000A0880AF001FF050003D101E00120F5E759
:105E7000FFDF6878800701D5022000E00120207252
:105E800099F800002328B1D9272157E719270E26B2
:105E9000002C9BD0A088FDF7DEFA5FEA000900D154
:105EA000FFDFC4F808A0A4F80CA084F808A0A07A2A
:105EB00040F00300A07299F81E10C90961F3820036
:105EC000A07299F81F2099F81E1012EAD11F05D070
:105ED00099F8201001F01F0110292BD020F00800A4
:105EE000A07299F81F10607A61F3C3006072697A3A
:105EF00001F003010129A2D140F00400607299F879
:105F00001E0000F003000228E87A16D0217B60F31F
:105F100000012173AA7A607B62F300006073EA7A61
:105F2000520862F341012173A97A490861F34100E3
:105F300060735BE740F00800D2E7617B60F300012B
:105F40006173AA7A207B62F300002073EA7A520818
:105F500062F341016173A97A490861F3410020733A
:105F600044E710B5FE4C30B10146102204F1200088
:105F70001EF0F0FD012084F8300010BD10B504467D
:105F800000F0D9FDF64920461022BDE8104020312E
:105F90001EF0E0BD70B5F24D06004FF0000413D0C6
:105FA0000EF00EFB08B110240CE00621304608F07C
:105FB00031F8411C05D028665FF0010085F85C00CF
:105FC00000E00724204670BD0020F7E7007810F0BD
:105FD0000F0204D0012A05D0022A0CD110E00009DA
:105FE00009D10AE00009012807D0022805D00328BA
:105FF00003D0042801D007207047087000207047A4
:106000000620704705282AD2DFE800F003070F17A3
:106010001F00087820F0FF001EE0087820F00F0035
:10602000401C20F0F000103016E0087820F00F003F
:10603000401C20F0F00020300EE0087820F00F0027
:10604000401C20F0F000303006E0087820F00F000F
:10605000401C20F0F00040300870002070470720FE
:1060600070472DE9F041804688B00D46002708466C
:106070000EF0F3FAA8B94046FDF7EDF9040003D09D
:106080002078222815D104E043F2020008B0BDE8D0
:10609000F08145B9A07F410603D500F00300022836
:1060A00001D01020F2E7A07FC10601D4010702D57C
:1060B0000DB10820EAE7E17F090701D50D20E5E7EA
:1060C00000F00300022805D125B12846FEF760FF45
:1060D0000700DBD1A07F00F00300022808D00020D9
:1060E00080F0010140460AF0BFFD060002D00FE03B
:1060F0000120F5E7A07F00F0030002280ED0002069
:1061000080F00101002240460AF0A5FD060007D0FC
:10611000A07F00F00300022804D009E00120EFE78F
:106120000420B3E725B12A4631462046FEF754FF46
:106130006946304600F00FFD009800B9FFDF009976
:10614000022006F1E0024870C1F824804A61002272
:106150000A81A27F02F00302022A1CD001200871EA
:10616000287800F00102087E62F3010008762A78A0
:10617000520862F3820008762A78920862F3C3001C
:1061800008762A78D20862F3041008762421204683
:10619000FCF7C0FF33E035B30871301D88613078FB
:1061A000400908777078C0F340004877287800F0FD
:1061B0000102887F62F301008877A27FD20962F32F
:1061C00082008877E27F62F3C3008877727862F397
:1061D00004108877A878C87701F121022846203179
:1061E000FEF71BFF03E00320087105200876252138
:1061F0002046FCF78FFFA07F20F04000A07701A988
:1062000000980CF023FA022801D000B1FFDF3846D5
:106210003CE72DE9FF4F534A0D4699B09A4607CA0D
:106220000BAB002783E807001998FDF714F9060067
:1062300006D03078262806D008201DB0BDE8F08FA3
:1062400043F20200F9E7B07F00F00309B9F1020F51
:1062500003D00020284302D006E00120FAE71B9873
:10626000FEF796FE0028E8D1B07F00F00300022878
:1062700001D11B9979BB022808D0002080F00101D0
:1062800019980AF0F1FC040003D101E00120F5E7C0
:10629000FFDF852D28D007DCF5B1812D1ED0822DA2
:1062A0001ED0832D08D11DE0862D1FD0882D1FD034
:1062B000892D1FD08A2D1FD00F2020710F281DD0AF
:1062C00003F0ACF8E0B101208DF84000201D1190E2
:1062D0002079B8B167E111E00020EEE70120ECE79A
:1062E0000220EAE70320E8E70520E6E70620E4E7E6
:1062F0000820E2E70920E0E70A20DEE707209CE724
:1063000011209AE7B9F1020F03D0A56F03D1A06F56
:1063100002E0656FFAE7606F804632D04FF001000F
:1063200000904FF002000190214630461B9AFEF784
:1063300053FE1B98007800F00101A87861F301007A
:10634000A870B17FC90961F38200A870F17F61F381
:10635000C300A870617861F30410A870207803E08E
:106360001802002048500200400928706078C0F3ED
:10637000400068701B988078E87000206871287170
:1063800003E00220009001200190A87898F8021004
:10639000C0F3C000C1F3C00108405FEA000B2CD07D
:1063A00050460EF00DF990BBDAF80C000EF008F92B
:1063B00068BBDAF81C000EF003F940BBDAF80C00F9
:1063C000A060DAF81C00E06098F80100617800F045
:1063D000010041EA4000607098F80210C0B2C1F3B9
:1063E0000011891E0840607000202077019906F195
:1063F000170002290CD001210BE098F801106078F9
:1064000001F00101FD2242EA41010840E3E732E0E8
:10641000002104EB810148610099701C022901D020
:10642000012100E0002104EB81014861A87800F01F
:106430000300012858D198F8020000F00300012859
:1064400052D1B9F1020F04D02A1D691D1B98FEF725
:10645000E4FD297998F8040001408DF83810687936
:1064600098F8052010408DF83C0001433CD0504680
:106470000EF0A6F808B11020DFE60AF11001049131
:10648000B9F1020F18D008465FF0000104F18C0347
:10649000CDE9000304F5AE7202920EAB5A462046D7
:1064A000FEF704FE0028E7D1B9F1020F08D05046EC
:1064B00008D14FF0010107E050464FF00101E5E738
:1064C0000498F5E74FF0000104F1A403CDE90003BF
:1064D00004F5B072029281F001010FAB5A462046DA
:1064E000FEF7E4FD0028C7D16078800734D4A8788F
:1064F00098F80210C0F38000C1F3800108432BD04C
:10650000297898F800000BAAB9F1020F06D032F8EA
:1065100011204300DA4002F003070AE032F81020AD
:106520004B00DA4012F0030705D0012F0BD0022FE9
:106530000BD0032F07D0BBF1000F0DD0012906D0DF
:10654000042904D008E00227F5E70127F3E7012832
:1065500001D0042800D10427B07F40F08000B0773C
:10656000F17F6BF30001F177607881074FF0030052
:106570000CD5A071BBF1000F15D100BF8DF85C00E8
:1065800017AA3146199800F0BFFA0CE00221022F39
:1065900018D0012F18D0042F22D00020A071B07F76
:1065A00020F08000B07725213046FCF7B3FD10A91C
:1065B00004F1E0000CF02FF810B1022800D0FFDF4A
:1065C00000203AE6A171D9E7A1710D2104F1200064
:1065D0001EF061FB207840F0020020700420CDE71F
:1065E0000120A071DFE72DE9F04387B0904689468E
:1065F00004460025FCF72FFF060006D03078272838
:1066000006D0082007B0BDE8F08343F20200F9E7A6
:10661000B07F00F00300022808D0002080F00101C4
:1066200020460AF021FB040003D101E00120F5E738
:10663000FFDFA7795FEA090005D0012821D0B9F171
:10664000020F26D110E0B8F1000F22D1012F05D0A2
:10665000022F05D0032F05D0FFDF2DE00C252BE006
:10666000012529E0022527E040460DF0A9FFB0B939
:10667000032F0ED11022414604F11D001EF06AFACC
:106680001AE0012F02D0022F03D104E0B8F1000F6D
:1066900012D00720B6E740460DF092FF08B1102057
:1066A000B0E7102104F11D001EF0D3FA0621404688
:1066B00007F0B0FCC4F81D002078252140F002004E
:1066C00020703046FCF726FD2078C10713D020F05B
:1066D0000100207002208DF8000004F11D000290DE
:1066E0008DF804506946C3300BF095FF022803D0A3
:1066F00010B1FFDF00E02577002083E730B587B0D9
:106700000D460446FCF7A7FEA0B1807F00F0030011
:10671000022812D05FF0000080F0010120460AF04C
:10672000A3FA04000ED028460DF04AFF38B110201D
:1067300007B030BD43F20200FAE70120ECE7207811
:10674000400701D40820F3E7294604F13D00202248
:1067500005461EF0FFF9207840F010002070010778
:106760000FD520F00800207007208DF80000694642
:1067700004F1E00001950BF04EFF022801D000B1BA
:10678000FFDF0020D4E770B50D460646FCF763FE38
:1067900018B10178272921D102E043F2020070BD2F
:1067A000807F00F00300022808D0002080F0010163
:1067B00030460AF059FA040003D101E00120F5E760
:1067C000FFDFA079022809D16078C00706D02A46E9
:1067D00021463046FEF7FAFC10B10FE0082070BDEC
:1067E000B4F860000E280BD204F1620102231022DB
:1067F000081F0AF0C0F8012101704570002070BD2B
:10680000112070BD70B5064614460D4608460DF0C1
:10681000D7FE18B920460DF0F9FE08B1102070BD62
:10682000A6F57F40FF380ED03046FCF714FE38B195
:10683000417822464B08811C1846FCF7DBFD07E037
:1068400043F2020070BD2046FDF73CFE0028F9D15E
:106850001021E01D0DF08FFBE21D294604F1170009
:1068600000F089F9002070BD2DE9F04104468AB09E
:1068700015468846002708460DF0EFFE18B9284651
:106880000DF0EBFE18B110200AB0BDE8F0812046F3
:10689000FCF7E1FD060003D0307827281BD102E089
:1068A00043F20200F0E7B07F00F00300022809D0B5
:1068B0005FF0000080F0010120460AF0D5F90400E5
:1068C00003D101E00120F5E7FFDF2078400702D582
:1068D0006078800701D40820D6E7B07F00F003007D
:1068E000022803D0A06F03D1A16F02E0606FFAE726
:1068F000616F407800B19DB1487810B1B8F1000FD8
:106900000ED0ADB1EA1D06A8E16800F034F91022FE
:1069100006A905F117001EF0F1F818B1042707E0E9
:106920000720B1E71022E91D04F12D001EF012F935
:10693000B8F1000F06D0102208F1070104F11D0084
:106940001EF008F92078252140F002002070304622
:10695000FCF7E0FB2078C10715D020F00100207083
:1069600002208DF8000004F11D0002901030039009
:106970008DF804706946B3300BF04DFE022803D049
:1069800010B1FFDF00E0277700207DE7F8B515465E
:106990000E460746FCF75FFD040004D0207822284D
:1069A00004D00820F8BD43F20200F8BDA07F00F03B
:1069B0000300022802D043F20500F8BD30460DF076
:1069C000FFFD18B928460DF0FBFD08B11020F8BDF9
:1069D00000953288B31C21463846FEF71AFC112870
:1069E00015D00028F3D1297C4A08A17F62F3C71192
:1069F000A177297CE27F61F30002E277297C890894
:106A000084F82010A17F21F04001A177F8BDA17F7B
:106A10000907FBD4D6F80200C4F83600D6F8060001
:106A2000C4F83A003088A0861022294604F12400D8
:106A30001EF090F8287C4108E07F61F34100E07788
:106A4000297C61F38200E077287C800884F82100AB
:106A5000A07F40F00800A0770020D3E770B50D4676
:106A600006460BB1072070BDFCF7F5FC040007D00B
:106A70002078222802D3A07F800604D4082070BD8D
:106A800043F2020070BDADB12946304609F0F1F87D
:106A900002F0F0FA297C4A08A17F62F3C711A177BE
:106AA000297CE27F61F30002E277297C890884F87F
:106AB000201004E0304609F004F902F0DBFAA17F6F
:106AC00021F02001A17770BD70B50D46FCF7C3FC25
:106AD000040005D028460DF099FD20B1102070BDAE
:106AE00043F2020070BD29462046FEF740FB00201D
:106AF00070BD04E010F8012B0AB100207047491E58
:106B000089B2F7D20120704770B51546064602F0EB
:106B100085FC040000D1FFDF207820F00F00801CEE
:106B200020F0F0002030207066802868A060BDE86A
:106B3000704002F076BC10B5134C94F83000002879
:106B400008D104F12001A1F110000BF0A6FD0120F5
:106B500084F8300010BD10B190F8B9202AB10A486D
:106B600090F8350018B1002003E0B83001E0064885
:106B700034300860704708B50023009313460A4676
:106B80000AF06DFA08BD00001802002018B18178E3
:106B9000012938D101E010207047018842F6011226
:106BA000881A914231D018DC42F60102A1EB0200B2
:106BB00091422AD00CDC41B3B1F5C05F25D06FF40F
:106BC000C050081821D0A0F57060FF381BD11CE020
:106BD00001281AD002280AD117E0B0F5807F14D01E
:106BE00008DC012811D002280FD003280DD0FF287F
:106BF00009D10AE0B0F5817F07D0A0F58070033895
:106C000003D0012801D0002070470F2070470A28C8
:106C10001ED007DC18D2DFE800F0191B1F1F171F5A
:106C2000231D1F21102815D008DC0B2812D00C289A
:106C300010D00D2816D00F2806D10DE011280BD04A
:106C400084280BD087280FD003207047002070477E
:106C500005207047072070470F20704704207047B9
:106C6000062070470C20704743F20200704738B589
:106C70000C46050041D06946FFF7A8F9002819D154
:106C80009DF80010607861F3020060706946681C2E
:106C9000FFF79CF900280DD19DF80010607861F392
:106CA000C5006070A978C1F34101012903D0022910
:106CB00005D0072038BD217821F0200102E021789D
:106CC00041F020012170410704D0A978C90861F37F
:106CD00086106070607810F0380F07D0A978090925
:106CE00061F3C710607010F0380F02D16078400671
:106CF00003D5207840F040002070002038BD70B5EA
:106D000004460020088015466068FFF7B0FF0028A1
:106D100016D12089A189884211D860688078C0077F
:106D20000AD0B1F5007F0AD840F20120B1FBF0F2A1
:106D300000FB1210288007E0B1F5FF7F01D90C207D
:106D400070BD01F201212980002070BD10B50478CA
:106D5000137864F3000313700478640864F3410348
:106D600013700478A40864F3820313700478E408B1
:106D700064F3C30313700478240964F304131370D9
:106D80000478640964F3451313700078800960F394
:106D90008613137031B10878C10701D1800701D57E
:106DA000012000E0002060F3C713137010BD42788B
:106DB000530702D002F0070306E012F0380F02D0AA
:106DC000C2F3C20300E001234A7863F302024A706F
:106DD000407810F0380F02D0C0F3C20005E043073E
:106DE00002D000F0070000E0012060F3C5024A7005
:106DF00070472DE9F04F95B00D00824612D0122158
:106E000028461DF026FF4FF6FF7B05AA01215846B4
:106E100006F04BFF0024264637464FF420586FF407
:106E2000205972E0102015B0BDE8F08F9DF81E00CB
:106E300001280AD1BDF81C1041450BD011EB090007
:106E40000AD001280CD002280CD0042C0ED0052C1E
:106E50000FD10DE0012400E00224BDF81A6008E023
:106E6000032406E00424BDF81A7002E0052400E0C3
:106E70000624BDF81A10514547D12C74BEB34FF00B
:106E8000000810AA4FF0070ACDE90282CDE900A858
:106E90000DF13C091023CDF810904246314658467A
:106EA00006F0B6FF08BBBDF83C002A46C0B210A9E8
:106EB0000BF05CFCC8B9AE81CFB1CDE900A80DF1F3
:106EC000080C0AAE40468CE84102132300223946E2
:106ED000584606F09DFF40B9BDF83C00F11CC01EAD
:106EE000C0B22A1D0BF042FC10B103209BE70AE060
:106EF000BDF82900E881062C05D19DF81E00A87276
:106F0000BDF81C00288100208DE705A806F0D9FEF9
:106F100000288BD0FFF77BFE85E72DE9F0471C4664
:106F2000DDE90978DDF8209015460E00824600D193
:106F3000FFDF0CB1208818B1D5B11120BDE8F08772
:106F4000022D01D0012100E0002106F1140005F01E
:106F50009BFDA8F8000002463B462946504603F038
:106F6000BCF8C9F8000008B9A41C3C600020E5E7A3
:106F70001320E3E7F0B41446DDE904528DB1002399
:106F800014B1022C09D101E0012306E00D7CEE07CB
:106F900003D025F0010501230D742146F0BC03F058
:106FA00025BF1A80F0BC70472DE9FE4F91461A8824
:106FB0001C468A468046FAB102AB494603F08DF87A
:106FC000050019D04046A61C278809F091FF3246DB
:106FD000072629463B46009609F09FFB208823465A
:106FE000CDE900504A4651464046FFF7C3FF002016
:106FF00020800120BDE8FE8F0020FBE72DE9F0474F
:1070000086B09146DDE90E460F46824603AA05A9E1
:1070100004A8109D8DE80700984632462146504648
:10702000FFF77BFF049909B1012200E000222A70DA
:10703000002818D1F94A03AB1060059A009104F1B9
:107040001400CDE901204A463946504606F0D3F8EF
:10705000A8B1092811D2DFE800F005080510100AD0
:107060000C0C0E00002006B068E71120FBE707209B
:10707000F9E70820F7E70D20F5E70320F3E7BDF86F
:107080000C100498CDE90001434632462146504693
:10709000FFF770FFE6E72DE9F04389B00D46DDE923
:1070A000108781461C461646142103A81DF0F3FDE7
:1070B000012002218DF810108DF80C008DF8117050
:1070C000ADF8146064B1A278D20709D08DF816002B
:1070D000E088ADF81A00A088ADF81800A068079005
:1070E00008A80095CDE90110424603A948466B68FF
:1070F000FFF784FF09B0BDE8F083F0B58BB0002442
:107100000646069407940727089405A80994019455
:1071100000970294CDE903400D46102322463046E5
:1071200006F076FE78B90AA806A9019400970294A1
:10713000CDE90310BDF8143000222946304606F090
:107140003DFC002801D0FFF762FD0BB0F0BD06F05A
:10715000DDBA2DE9FC410C468046002602F05EF9BE
:10716000054620780D287DD2DFE800F0BC0713B378
:1071700025BD49496383AF959B00A848006820B1AD
:10718000417841F010014170ADE0404602F076F9DF
:10719000A9E00421404609F067FD070000D1FFDFA8
:1071A00007F11401404605F003FCA5BB132140463E
:1071B000FDF746FC97E00421404609F055FD070025
:1071C00000D1FFDFE088ADF800000020B8819DF815
:1071D0000000010704D5C00602D5A088B88105E0EB
:1071E0009DF8010040067ED5A088F88105B9FFDF33
:1071F00022462946404601F063FC022673E0E188FE
:10720000ADF800109DF8011009060FD5072803D02E
:1072100006280AD00AE024E00421404609F024FDB3
:10722000060000D1FFDFA088F0810226CDB9FFDF84
:1072300017E00421404609F017FD070000D1FFDFE9
:1072400007F1140006F099FA90F0010F02D1E079ED
:10725000000648D5387C022640F00200387405B993
:10726000FFDF00E03EE022462946404601F028FCD0
:1072700039E00421404609F0F7FC017C002D01F0C3
:107280000206C1F340016171017C21F00201017429
:10729000E7D1FFDFE5E702260121404602F020F9B1
:1072A00021E00421404609F0DFFC054660680090BB
:1072B0002089ADF8040001226946404602F031F908
:1072C000287C20F0020028740DE0002DC9D1FFDFDA
:1072D000C7E7022600214046FBF784F8002DC0D105
:1072E000FFDFBEE7FFDF3046BDE8FC813EB50C00A6
:1072F00009D001466B4601AA002006F00BFE20B122
:10730000FFF785FC3EBD10203EBD00202080A07010
:107310009DF8050002A900F00700FEF773FE50B9C2
:107320009DF8080020709DF8050002A9C0F3C20076
:10733000FEF768FE08B103203EBD9DF808006070AE
:107340009DF80500C109A07861F30410A0709DF8B4
:107350000510890961F3C300A0709DF80410890627
:1073600001D5022100E0012161F342009DF80010E7
:1073700061F30000A07000203EBD70B514460646C3
:107380000D4651EA040005D075B108460DF05CF9D0
:1073900078B901E0072070BD2946304606F01BFE93
:1073A00010B1BDE8704032E454B120460DF04CF904
:1073B00008B1102070BD21463046BDE8704095E709
:1073C000002070BD2DE9FC5F0C4690460546002765
:1073D00001780822007A3E46B2EB111F7ED104F1FB
:1073E0000A0100910A31821E4FF0020A04F1080BD3
:1073F0000191092A73D2DFE802F0ECDF05F42727B8
:107400007AA9CD006888042109F02EFC060000D17D
:10741000FFDFB08920B152270726C2E07C0200209E
:1074200051271026002C7DD06888A0800120A071F3
:10743000A88900220099FFF7A0FF002873D1A8892E
:107440002081288AE081D1E0B5F81290072824D164
:10745000E87B000621D5512709F1140086B2002CE3
:10746000E1D0A88900220099FFF787FF00285AD1B0
:107470006888A08084F806A0A88920810120A073D4
:10748000288A2082A4F81290A88A009068884B4627
:10749000A969019A01F0F1FAA8E0502709F1120058
:1074A00086B2002C3ED0A88900225946FFF765FF1E
:1074B000002838D16888A080A889E080287A072829
:1074C00013D002202073288AE081E87BC009607312
:1074D000A4F81090A88A0090688801E083E080E01A
:1074E0004B4604F11202A969D4E70120EAE7B5F896
:1074F0001290512709F1140086B2002C66D06888DA
:10750000042109F0B1FB83466888A080A889002285
:107510000099FFF732FF00286ED184F806A0A889F1
:10752000208101E052E067E00420A073288A2082D5
:10753000A4F81290A88A009068884B46A969019A1D
:1075400001F09BFAA989ABF80E104FE06888FBF7B1
:1075500082FF07466888042109F086FB064607B9C2
:10756000FFDF06B9FFDF687BC00702D05127142672
:1075700001E0502712264CB36888A080502F06D017
:1075800084F806A0287B594601F087FA2EE0287B74
:10759000A11DF9E7FE49A8894989814205D15427EF
:1075A00006269CB16888A08020E053270BE06888FD
:1075B000A080A889E08019E06888042109F054FBC4
:1075C00000B9FFDF55270826002CF0D1A8F800608D
:1075D00011E056270726002CF8D06888A0800020EC
:1075E00013E0FFDF02E0012808D0FFDFA8F8006009
:1075F0000CB1278066800020BDE8FC9F5727072636
:10760000002CE3D06888A080687AA071EEE7401D66
:1076100020F0030009B14143091D01EB4000704710
:1076200013B5DB4A00201071009848B10024684669
:1076300009F037F9002C02D1D64A009911601CBD1F
:1076400001240020F4E770B50D46064686B01446C6
:107650005C2128461DF01FFB04B9FFDFA078687489
:10766000A2782188284601F042FA0020A881E8810A
:10767000228805F11401304605F07FF96A460121A0
:10768000304606F012FB19E09DF80300000715D5FF
:10769000BDF806103046FFF730FD9DF80300BDF839
:1076A000061040F010008DF80300BDF80300ADF89F
:1076B0001400FF233046059A06F058FC684606F091
:1076C00000FB0028E0D006B070BD10B50C4601F1FB
:1076D000140005F089F90146627C2046BDE810409F
:1076E00001F03ABA70B50546042109F0BDFA04006C
:1076F00000D1FFDF04F114010C46284605F058F9CB
:1077000021462846BDE8704005F059B970B58AB0E9
:107710000C460646FBF79FFE050014D02878222869
:1077200027D30CB1A08890B101208DF80C00032064
:107730008DF8100000208DF8110054B1A088ADF82C
:107740001800206807E043F202000AB070BD09206B
:10775000FBE7ADF8180005900421304609F084FAE3
:10776000040000D1FFDF04F1140005F054F9000714
:1077700001D40820E9E701F051FE60B108A8022118
:107780000094CDE9011095F8232003A930466368E1
:10779000FFF734FCD9E71120D7E72DE9F04FB2F815
:1077A00002A0834689B0154689465046FBF753FE32
:1077B00007460421504609F057FA0026044605966C
:1077C0004FF002080696ADF81C6007B9FFDF04B958
:1077D000FFDF4146504603F070FE50B907AA06A9E4
:1077E00005A88DE807004246214650466368FFF72A
:1077F00094FB674807AB0660DDE9051204F114004D
:10780000CDF80090CDE90320CDE9013197F8232090
:10781000594650466B6805F047F906000AD0022E1B
:1078200004D0032E14D0042E00D0FFDF09B0304660
:10783000BDE8F08FBDF81C000028F7D00599CDE910
:1078400000104246214650466368FFF793FBEDE780
:10785000687840F008006870E8E72DE9F04F9BB0C9
:1078600004464FF000084A48ADF85480ADF8308027
:10787000ADF85080A0F80880ADF81480ADF81880FD
:10788000ADF82080ADF81C80007916460D464746BD
:10789000012808D0022806D0032804D0042802D0EA
:1078A00008201BB0C4E720460CF08AFED0BB284657
:1078B0000CF086FEB0BB60680CF0CFFE90BB606839
:1078C00048B160892189884202D8B1F5007F01D989
:1078D0000C20E6E780460BAA06A92846FFF70FFA18
:1078E0000028DED168688078C0F34100022808D102
:1078F0009DF8190010F0380F03D028690CF0A4FE91
:1079000080B905A92069FFF7B2F90028C9D120691B
:1079100050B1607880079DF8150000F0380002D55E
:10792000D0B301E011E0B8BB9DF8140080060ED57D
:107930009DF8150010F0380F03D060680CF084FE3D
:1079400018B960680CF089FE08B11020A9E707A9F2
:107950006069FFF78CF90028A3D1606940B19DF8F8
:107960001D0000F0070101293FD110F0380F3CD075
:1079700008A9A069FFF77BF9002892D19DF81C00A7
:10798000800632D49DF8200080062ED4A06904E041
:107990007C0200201400002027E040B19DF8210067
:1079A00000F00701012920D110F0380F1DD0E06848
:1079B00018B10078C8B11C2817D20EAA611C204645
:1079C000FFF7C4F90120B94660F30F27BA4607460E
:1079D0008DF84E0042F60300ADF84C000DF13B026D
:1079E00017A928680AF0E1FE08B1072059E79DF8B9
:1079F0005C0016A9CDF80090C01CCDE9019100F003
:107A0000FF0B00230BF20122514613A806F090F859
:107A1000F0BBBDF858000990FE482A8929690092F8
:107A2000CDE901106B89BDF82C202868069906F075
:107A30007FF801007ED120784FF0020AC10601D400
:107A400080062BD5ADF80C90606950B907A906A83F
:107A5000FFF7ADF99DF81D0020F00700401C8DF8E0
:107A60001D009DF81C008DF84E7040F0C8008DF888
:107A70001C0042F60210ADF84C000CA903AACDF888
:107A800000A0CDE90121002340F2032213A800E069
:107A90001EE0079906F04CF801004BD1DD484D4639
:107AA00008385B460089ADF839000EA8CDE9029090
:107AB000CDF80490CDF810904FF007090022CDF8D2
:107AC0000090BDF858104FF6FF7005F077FF10B129
:107AD000FFF79DF8E5E69DF83800000625D5294614
:107AE000012060F30F218DF84E704FF42450ADF853
:107AF0004C00ADF8105062789DF81000002362F33E
:107B000000008DF810006278CDF800A0520862F3F2
:107B100041008DF8100004AACDE9012540F20322AE
:107B200013A806F005F8010004D1606888B3206945
:107B3000A8B900E086E005A906A8FFF738F9607843
:107B4000800706D49DF8150020F038008DF8150048
:107B500005E09DF8140040F040008DF814008DF809
:107B60004E7042F60110ADF84C00208940F2012120
:107B7000B0FBF1F201FB1202606814ABCDF800809B
:107B8000CDE90103002313A8059905F0D1FF0100F9
:107B900058D12078C00729D0ADF80C50A06950B951
:107BA00008A906A8FFF703F99DF8210020F00700B7
:107BB000401C8DF821009DF820008DF84E7040F09B
:107BC00040008DF8200042F60310ADF84C0015A9D6
:107BD00003AACDF800A0CDE90121002340F2032241
:107BE00013A8089905F0A4FF01002BD1E06868B341
:107BF0002946012060F30F218DF84E7042F60410E3
:107C0000ADF84C00E068002302788DF860204078E1
:107C10008DF86100E06818AA4088ADF86200E0685D
:107C200000798DF86400E068C088ADF86500CDF893
:107C30000090CDE901254FF4027213A805F078FFFA
:107C4000010003D0099800F0B3FF2AE67148032130
:107C50000838017156B100893080BDF8500070803D
:107C6000BDF83000B080BDF85400F080002018E668
:107C700070B501258AB016460B46012802D00228AD
:107C800016D104E08DF80E504FF4205003E08DF82B
:107C90000E5042F60100ADF80C005BB10024601CF0
:107CA00060F30F2404AA08A918460AF07EFD18B153
:107CB00007204AE5102048E504A99DF820205548F2
:107CC000CDE90021801E02900023214603A802F284
:107CD000012205F02DFF10B1FEF799FF35E54D4863
:107CE00008380EB1C1883180057100202DE5F0B54E
:107CF00093B0074601268DF83E6041F60100ADF8CD
:107D00003C0012AA0FA93046FFF7B2FF002848D165
:107D1000404C0025083CE7B31C2102A81CF0BBFF27
:107D20009DF808008DF83E6040F020008DF80800B6
:107D300042F60520ADF83C000E959DF83A001195ED
:107D400020F00600801C8DF83A009DF838006A4645
:107D500020F0FF008DF838009DF8390009A920F0C7
:107D6000FF008DF839000420ADF82C00ADF830008C
:107D70000EA80A9011A80D900FA80990ADF82E50EA
:107D800002A8FFF76AFD00280BD1BDF80000608152
:107D900000E008E0BDF80400A081401CE0812571EE
:107DA000002013B0F0BD6581A581BDF84800F4E75F
:107DB0002DE9F74F1749A0B00024083917940A7924
:107DC000A146012A04D0022A02D0082023B02FE5C0
:107DD000CA88824201D00620F8E721988A4682426A
:107DE00001D10720F2E701202146ADF848004FF607
:107DF000FF7860F30F21ADF84A808DF86E0042F6EF
:107E0000020B06918DF87240ADF86CB0ADF8704081
:107E10001CA901E0840200201391ADF8508012A843
:107E200005F073FF00252E462F460DAB072212A941
:107E3000404605F06DFF78B10A285DD195B38EB349
:107E4000ADF86450ADF866609DF85E008DF81440A2
:107E500019AC012864D06BE09DF83A001FB30128EB
:107E600059D1BDF8381059451FD118A809A9019456
:107E70000294CDE9031007200090BDF836101023BE
:107E80000022404605F0C4FFB0BBBDF860000428E6
:107E900001D006284AD1BDF82410219881423AD158
:107EA0000F2093E73AE0012835D1BDF83800B0F54E
:107EB000205F03D042F6010188422CD1BAF80600B7
:107EC000BDF83610884201D1012700E0002705B136
:107ED0009EB1219881421ED118A809AA019402944A
:107EE000CDE90320072000900D46102300224046D4
:107EF00005F08EFF00B902E02DE04E460BE0BDF824
:107F00006000022801D0102810D1C0B217AA09A918
:107F10000AF02CFC50B9BDF8369086E7052055E7ED
:107F200005A917A8221D0AF040FC08B103204DE75F
:107F30009DF814000023001DC2B28DF81420229871
:107F40000092CDE901401BA8069905F0F1FD10B99A
:107F500002228AF80420FEF75AFE37E710B50B46D6
:107F6000401E88B084B205AA00211846FEF7EEFE36
:107F700000200DF1080C06AA05A901908CE8070065
:107F8000072000900123002221464FF6FF7005F0E4
:107F900015FD0446BDF81800012800D0FFDF20467B
:107FA000FEF735FE08B010BDF0B5FF4F044687B0B0
:107FB00038790E46032804D0042802D0082007B0E0
:107FC000F0BD04AA03A92046FEF799FE0500F6D1EC
:107FD00060688078C0F3410002280AD19DF80D0046
:107FE00010F0380F05D020690CF02EFB08B11020DE
:107FF000E5E7208905AA21698DE807006389BDF8B6
:1080000010202068039905F093FD10B1FEF7FFFDE5
:10801000D5E716B1BDF81400308004203871284629
:10802000CDE7F8B50C0006460BD001464FF6FF75BC
:1080300000236A46284605F06DFF20B1FEF7E7FDF4
:10804000F8BD1020F8BD69462046FEF710FE002856
:10805000F8D1A078314600F001032846009A05F0D7
:1080600085FFEBE730B587B0144600220DF1080C10
:1080700005AD01928CE82C00072200920A460146C9
:1080800023884FF6FF7005F099FCBDF8141021808D
:10809000FEF7BDFD07B030BD70B50D46042108F0F8
:1080A000E3FD040000D1FFDF294604F11400BDE820
:1080B000704004F0A9BC70B50D46042108F0D4FD51
:1080C000040000D1FFDF294604F11400BDE8704030
:1080D00004F0BDBC70B50D46042108F0C5FD0400D8
:1080E00000D1FFDF294604F11400BDE8704004F020
:1080F000D5BC70B50546042108F0B6FD040000D1DA
:10810000FFDF214628462368BDE870400122FEF7C4
:108110004BBF70B50646042108F0A6FD040000D14F
:10812000FFDF04F1140004F05FFC401D20F00305A4
:1081300011E0011D00880022431821463046FEF759
:1081400033FF00280BD0607CABB2684382B2A068DA
:10815000011D08F046FCA06841880029E9D170BDE6
:1081600070B50546042108F07FFD040000D1FFDF53
:10817000214628466368BDE870400222FEF714BF1E
:1081800070B50E46054601F049F9040000D1FFDF45
:108190000120207266726580207820F00F00001D9B
:1081A00020F0F00040302070BDE8704001F039B997
:1081B00010B50446012900D0FFDF2046BDE810407D
:1081C0000121FAF70FB92DE9F04F97B04FF0000AEF
:1081D0000C008346ADF814A0D04619D0E06830B149
:1081E000A068A8B10188ADF81410A0F800A0584606
:1081F000FBF731F9070043F2020961D038782228F1
:108200005CD30421584608F02FFD050005D103E09A
:10821000102017B0BDE8F08FFFDF05F1140004F067
:10822000E3FB401D20F00306A078012803D00228BC
:1082300001D00720EDE7218807AA584605F035FD53
:1082400030BB07A805F03DFD10BB07A805F039FDC0
:1082500048B99DF82600012805D1BDF82400A0F5F5
:108260002451023902D04FF45050D2E7E068B0B147
:10827000CDE902A00720009005AACDF804A0049241
:10828000A2882188BDF81430584605F097FB10B13C
:10829000FEF7BDFCBDE7A168BDF8140008809DF89D
:1082A0001F00C00602D543F20140B2E70B9838B177
:1082B000A1780078012905D080071AD40820A8E702
:1082C0004846A6E7C007F9D002208DF83C00A86810
:1082D0004FF00009A0B1697C4288714391420FD9E7
:1082E0008AB2B3B2011D08F032FB8046A0F800A0AC
:1082F00006E003208DF83C00D5F800804FF001091E
:108300009DF8200010F0380F00D1FFDF9DF820000D
:108310002649C0F3C200084497F8231010F8010C56
:10832000884201D90F2074E72088ADF8400014A9D5
:108330000095CDE90191434607220FA95846FEF763
:108340005DFE002891D19DF8500050B9A078012819
:1083500007D1687CB3B2704382B2A868011D08F0EF
:108360000AFB002055E770B5064615460C46084640
:10837000FEF70CFC002805D12A4621463046BDE810
:10838000704075E470BD13E570B51E4614460D00CF
:108390000ED06CB1616859B160B10349C98881429E
:1083A00008D0072070BD00007C020020FA2F0000DA
:1083B0001020F7E72068FEF7E9FB0028F2D13246EB
:1083C00021462846BDE87040FFF747BA70B515460C
:1083D0000C0006D038B1FE490989814203D007203C
:1083E000E0E71020DEE72068FEF7D0FB0028D9D1B7
:1083F00029462046BDE87040D6E570B5064686B0F1
:108400000D46144610460CF001F9D0BB60680CF024
:1084100024F9B0BBA6F57F40FF3803D03046FBF708
:108420001AF880B128466946FEF7E3FC00280CD113
:108430009DF810100F2008293CD2DFE801F0080653
:108440000606060A0A0843F2020006B0AAE703205D
:10845000FBE79DF80210012908D1BDF80010B1F525
:10846000C05FF2D06FF4C052D142EED09DF806103A
:1084700001290DD1BDF80410A1F52851062907D214
:1084800000E028E0DFE801F0030304030303DCE776
:108490009DF80A1001290ED1BDF80810B1F5245F2E
:1084A000D3D0A1F524510239CFD00129CDD0022952
:1084B00001D1CAE7FFDF606878B9002305AA294621
:1084C000304605F027FD10B1FEF7A1FBBDE79DF892
:1084D0001400800601D41020B7E7618822462846A0
:1084E0006368FFF7BFFDB0E72DE9F043814687B031
:1084F0008846144610460CF089F818B1102007B0D1
:10850000BDE8F083002306AA4146484605F002FD77
:1085100018B100BFFEF77BFBF1E79DF81800C0061D
:1085200002D543F20140EAE70025072705A8019597
:1085300000970295CDE9035062884FF6FF734146DC
:10854000484605F065FC060013D160680CF05EF843
:1085500060B960680195CDE90250009704952388C1
:1085600062884146484605F053FC0646BDF81400B3
:1085700020803046CEE739B1954B0A889B899A42D4
:1085800002D843F2030070471DE610B586B0904C48
:108590000423ADF81430638943B1A4898C4201D21D
:1085A000914205D943F2030006B010BD0620FBE757
:1085B000ADF81010002100910191ADF800300221BA
:1085C0008DF8021005A9029104A90391ADF81220BB
:1085D0006946FFF7F8FDE7E72DE9FC4781460E46BF
:1085E00008460BF0EDFF88BB4846FAF734FF5FEA18
:1085F00000080AD098F80000222829D30421484610
:1086000008F032FB070005D103E043F20200BDE8A9
:10861000FC87FFDF07F1140004F0FDF90546307810
:10862000012803D0022804D00720F0E7A8070FD5BF
:1086300002E015F01C0F0BD0B079341DC00709D033
:10864000E08838B1A0680BF0BBFF18B11020DEE75E
:108650000820DCE732782088002628B3A0F2011336
:108660000721112B18D20CD2DFE803F00B090D0BF8
:108670001D0B121D100B0B1D1D1D1D0B1D00022AB5
:1086800011D10846C3E7012AFBD00CE02A0700E01D
:10869000EA06002AF5DA06E0A0F5C0721F2A02D920
:1086A0007D3A022AEDD8C6B200F0B8FE50B198F873
:1086B0002300CDE90006FA89234639464846FEF7ED
:1086C000EAFCA4E71120A2E72DE9F04F8BB01F468A
:1086D00015460C4683460026FAF7BDFE28B1007801
:1086E000222805D208200BB094E543F20200FAE7F5
:1086F000B80801D00720F6E7032F00D100274FF676
:10870000FF79CCB1022D73D320460BF0A6FF30B910
:1087100004EB0508A8F101000BF09FFF08B1102041
:10872000E1E7AD1EAAB22146484605F09DFC38F8A7
:10873000021C88425CD1ADB22549B80702D58889B0
:10874000401C00E001201FFA80F8F80701D08F8953
:1087500000E04F4605AA4146584605F0A6FA4FF0FC
:10876000070A4FF00009ACB3204608E04088102803
:108770003ED8361D304486B2AE4239D2A0190288A6
:108780004245F3D354E000BF9DF8170002074FD5D0
:1087900084B304EB0608361DB8F80230B6B2102BCD
:1087A00026D89A19AA4223D8B8F8002091421FD19E
:1087B000C00620D5CDE900A90DF1080C0AAAA1191F
:1087C00048468CE80700B8F800100022584603E03D
:1087D0007C0200202CE00BE005F0F0F810B1FEF771
:1087E00016FA80E7B8F80200BDF82810884202D0D7
:1087F0000B2078E704E0B8F80200304486B206E0C7
:10880000C00604D55846FEF778FC002888D19DF8AC
:108810001700BDF81A1020F010008DF81700BDF8F1
:108820001700ADF80000FF235846009A05F09EFBA4
:1088300005A805F046FA18B9BDF81A10B942A3D92F
:108840000421584608F010FA040000D1FFDFA28985
:108850005AB1CDE900A94D46002321465846FEF7FE
:108860001AFC0028BDD1A5813DE700203BE72DE99A
:10887000FF4F8BB01E4617000D464FF0000412D07C
:10888000B00802D007200FB0C4E4032E00D10026A8
:108890005DB108460BF0D8FE28B93888691E084437
:1088A0000BF0D2FE08B11020EDE7C74AB00701D5A2
:1088B000D18900E00121F0074FF6FF7802D0D0897E
:1088C000401E00E0404686B206AA0B9805F0EDF97E
:1088D0004FF000094FF0070B0DF1140A39E000BF0B
:1088E0009DF81B00000734D5CDF80490CDF800B0FA
:1088F000CDF80890CDE9039A434600220B9805F085
:1089000087FA60BB05B3BDF814103A8821442819D2
:10891000091D8A4230D3BDF81E2020F8022BBDF875
:10892000142020F8022BCDE900B9CDE90290CDF852
:1089300010A0BDF81E10BDF8143000220B9805F0F1
:1089400067FA08B103209EE7BDF814002044001D1B
:1089500084B206A805F0B5F920B10A2806D0FEF7C2
:1089600056F990E7BDF81E10B142B9D934B17DB1C6
:108970003888A11C884203D20C2084E7052082E7B6
:1089800022462946404605F06FFB01462819018022
:10899000A41C3C80002076E710B504460BF036FEA0
:1089A00008B1102010BD8848C0892080002010BD6B
:1089B000F0B58BB00D460646142103A81CF06BF9E8
:1089C00001208DF80C008DF8100000208DF81100AA
:1089D000ADF814503046FAF73EFD48B10078222831
:1089E00012D30421304608F03FF9040005D103E01A
:1089F00043F202000BB0F0BDFFDF04F114000746A4
:108A000004F009F8800601D40820F3E7207C022155
:108A100040F00100207409A80094CDE9011007225C
:108A200003A930466368FEF7E9FA20B1217C21F002
:108A300001012174DEE729463046F9F7C4FC08A994
:108A4000384603F0D7FF00B1FFDFBDF82040172CF8
:108A500001D2172000E02046A84201D92C4602E0AE
:108A6000172C00D2172421463046FFF724FB21465D
:108A70003046F9F7CEF90020BCE7F8B51C4615469C
:108A80000E46069F08F022FA2346FF1DBCB231466F
:108A90002A46009407F00DFEF8BD70B50C46054659
:108AA0000E2120461CF0D5F8002020802DB1012D8C
:108AB00001D0FFDF76E4062000E00520A07171E41C
:108AC00010B548800878134620F00F00001D20F0F4
:108AD000F00080300C4608701422194604F108009A
:108AE0001CF07DF800F09DFC3748046010BD2DE9B6
:108AF000F047DFF8D890491D064621F003011746DC
:108B00000C46D9F8000007F0EAFE050000D1FFDFAF
:108B10004FF000083560A5F800802146D9F8000024
:108B200007F0DDFE050000D1FFDF7560A5F80080CD
:108B30007FB104FB07F1091D0BD0D9F8000007F045
:108B4000CEFE040000D1FFDFB460C4F80080BDE8B1
:108B5000F087C6F80880FAE72DE9F0411746491D6D
:108B600021F00302194D064601681446286807F0F3
:108B7000E1FE22467168286807F0DCFE3FB104FB85
:108B800007F2121D03D0B168286807F0D3FE042055
:108B900008F012F80446042008F016F8201A0128FC
:108BA00004D12868BDE8F04107F08EBEBDE8F08131
:108BB00010B50C4605F045F800B1FFDF2046BDE8D2
:108BC0001040FEF724B800007C02002014000020B2
:108BD00038B50C468288817B19B14189914200D910
:108BE0000A462280C188121D90B26A4607F06DF9CC
:108BF000BDF80000032800D30320C1B2208800F094
:108C0000A3FF38BD38B50C468288817B19B1018934
:108C1000914200D90A462280C188121D90B26A464C
:108C200007F053F9BDF80000022800D30220C1B2BA
:108C3000208800F089FF401CC0B238BD2DE9FE4FEE
:108C40000C46FD4981464022D1E90201CDE90101EE
:108C500009F1030020F00301C91C21F00301009178
:108C60006846114607F01DFEF44E002C02D1F44A6E
:108C700000999160009901440091357F05F101054B
:108C800004D1E8B209F018FD00B1FFDF009800EB55
:108C90000510C01C20F0030100915CB9707AB27A13
:108CA0001044C2B200200870308C80B204F051FE33
:108CB00000B1FFDF0098316A084400902146684601
:108CC00000F00DFF0098C01C20F003000090B37A64
:108CD000F27A717A04B1002007F0D9FE00990844B5
:108CE00000902146684600F03AFF00273D46B24614
:108CF00096F801800CE0284600F0D4FE0646817804
:108D00008088F9F71DF971786D1C00FB0177EDB2D1
:108D10004545F0D10098C01C20F00300009004B13C
:108D200000203946F9F717F9009900270844009008
:108D30003D469AF801800CE0284600F0B3FE064656
:108D4000C1788088FEF763FC71786D1C00FB0177A9
:108D5000EDB24545F0D10098C01C20F00300009012
:108D600004B100203946FEF75BFC00994FF0000883
:108D70000844009045469AF801700EE0284600F03D
:108D800091FE0646807B30B106F1080001F0DDFE61
:108D9000727800FB02886D1CEDB2BD42EED10098E6
:108DA000C01C20F00300009004B10020414601F0F7
:108DB000D0FE0099084400902146684600F049FE24
:108DC0000098C01D20F0070200922CBB9D49002096
:108DD000FAF743F8FBF713FB984801AA002110307B
:108DE000F8F7CAFA00B1FFDF9AF81D00FEF77FFF1F
:108DF00000B1FFDF91484FF4F67144301BF04BFF98
:108E00008E480421443080F8E91180F8EA110621E7
:108E100080F8EB11032101710099A1EB0900BDE875
:108E2000FE8F70B5854C06464434207804EB40151F
:108E3000E078083590B9A01990F8E80100280ED024
:108E4000A0780F2800D3FFDF202128461BF023FF46
:108E5000687866F3020068700120E070284670BDF3
:108E60002DE9F04105460C46002700780521904683
:108E70003E46B1EB101F00D0FFDF287A50B1012829
:108E80000ED0FFDFA8F800600CB1278066800020BC
:108E9000BDE8F0810127092674B16888A08008E048
:108EA0000227142644B16888A0802869E060A88A57
:108EB0002082287B2072E5E7A8F80060E7E710B57C
:108EC0005F4C6068C11D21F00701814200D0FFDFC7
:108ED0005A4801210022017042700172417203233D
:108EE0008372C17202730274052202831F224283BD
:108EF000417455A242610A22027741774FF4B06172
:108F000001626168416010BD30B54D4C1568636801
:108F100010339D4202D20420136030BD474B5D7870
:108F20005A6802EB0512107051700320D080172090
:108F300090800120D0709070002090735878401C71
:108F40005870606810306060002030BD70B5064613
:108F50003A480024457807E0204600F0A3FD017858
:108F6000B14204D0641CE4B2AC42F5D1002070BD23
:108F7000F7B5074608780C4610B3FFF7E7FF05463C
:108F8000A7F12006202F06D0052E19D2DFE806F023
:108F90000F2B2B151A0000F090FD0DB1697800E041
:108FA0000021401AA17880B20844FF2808D8A07890
:108FB00030B1A088022824D202E06088172820D28D
:108FC0000720FEBD207AE0B161881729F8D3A18877
:108FD0001729F5D3A1790029F2D0E1790029EFD042
:108FE000402804D9ECE7242F0BD1207A48B16188BE
:108FF0004FF6FB70814202D8A188814201D904203A
:10900000FEBD65B9207802AA0121FFF77DFF002887
:10901000F6D12078FFF79AFF050000D1FFDF052E7B
:1090200025D2DFE806F003181B151E00A078687033
:10903000A088E8801CE00000545002009803002043
:109040001C000020000000206E5246357800000011
:109050006088A8800CE0A078A87009E0A078E8708B
:1090600006E054F8020FA8606068E86000E0FFDFE7
:109070000020FEBD1A2835D00DDC132832D2DFE8DF
:1090800000F01B31203131272723252D31312931A3
:109090003131312F0F00302802D003DC1E2821D1BE
:1090A000072070473A3809281CD2DFE800F0151B6A
:1090B0000F1B1B1B1B1B07000020704743F2040003
:1090C000704743F202007047042070470D2070473C
:1090D0000F207047082070471120704713207047F9
:1090E000062070470320704710B5007800F001009B
:1090F00006F0E2FEBDE81040BCE70EB5017801F0D5
:1091000001018DF80010417801F001018DF8011086
:109110000178C1F340018DF802104178C1F340019C
:109120008DF80310017889088DF8041041788908BA
:109130008DF8051081788DF80610C1788DF807102C
:1091400000798DF80800684605F0DDFAFFF792FF18
:109150000EBD2DE9F84FDFF8F883FE4C00261FE026
:10916000012000F03FFD0120FFF75BFE0546402196
:109170004746D8F8080007F0B2FB686000B9FFDF87
:10918000686805F06EF8A8B12846FAF758FC28463A
:1091900000F02EFD20B940226968B86807F0CAFBCC
:1091A00094F9E9010428DBDA022007F005FD0746FF
:1091B0000025A6E040226968D8F8080007F0BAFB4D
:1091C000F2E7B8F802104046491C89B2A8F802102C
:1091D000B94201D3002141800221B8F8020007F012
:1091E00043FD002865D0B8F80200694606F0CBFDC3
:1091F000FFF740FF00B1FFDF9DF8000078B1B8F83D
:10920000020007F075FE5FEA000900D1FFDF484663
:1092100007F0E3F818B1B8F8020002F03DF9B8F829
:10922000020007F053FE5FEA000900D1FFDF484665
:1092300007F0CBF8E8BB0321B8F8020007F014FDF3
:109240005FEA000B48D1FFDF46E000BFDBF810000B
:1092500010B10078FF2849D0022000F0C3FC0220A2
:10926000FFF7DFFD8246484607F0BBF9CAF8040065
:1092700000B9FFDFDAF8040007F083FA002100905C
:109280000170B8F802105046AAF8021001F00AFE68
:10929000484607F078FA00B9FFDF504600F0A8FC16
:1092A00018B99AF80100000704D50099CBF81010FE
:1092B00012E024E0DBF8100038B10178491C11F00D
:1092C000FF01017008D1FFDF06E000221146484689
:1092D00000F0BDFB00B9FFDF94F9EA01022805DBCD
:1092E000B8F8020001F0A3FD0028AFD194F9E9011C
:1092F000042804DB484607F0AAFA00B101266D1CD9
:10930000EDB2BD4204D294F9EA010228BFF659AF8A
:10931000002E7FF423AFBDE8F84F032000F062BCBD
:1093200010B58B4CE06008682061AFF2D91002F0F4
:1093300042FD607010BD87480021443801708448A8
:10934000017085494160704770B505464FF0805007
:109350000C46D0F8A410491C05D1D0F8A810C94378
:109360000904090C0BD050F8A01F01F0010129706D
:10937000416821608068A080287830B970BD0621DE
:1093800020460AF0F8FD01202870607940F0C00006
:10939000607170BD70B54FF080540D46D4F88010E8
:1093A000491C0BD1D4F88410491C07D1D4F888107B
:1093B000491C03D1D4F88C10491C0CD0D4F880106F
:1093C0000160D4F884104160D4F888108160D4F82A
:1093D0008C10C16002E010210AF0CDFDD4F890009D
:1093E000401C0BD1D4F89400401C07D1D4F898004D
:1093F000401C03D1D4F89C00401C09D054F8900FB5
:10940000286060686860A068A860E068E86070BD77
:109410002846BDE8704010210AF0ADBD4D480079E6
:10942000FFE470B54B4CE07830B3207804EB40108B
:10943000407A00F00700204490F9E801002800DCA1
:10944000FFDF2078002504EB4010407A00F0070091
:10945000011991F8E801401E81F8E8012078401CCC
:10946000C0B220700F2800D12570A078401CA070D9
:109470000AF0E4FCE57070BDFFDF70BD3EB5054647
:10948000032107F0F1FB0446284607F01FFD0546BF
:1094900004B9FFDF206918B10078FF2800D1FFDF91
:1094A00001AA6946284600F0D2FA60B9FFDF0AE057
:1094B000002202A9284600F0CAFA00B9FFDF9DF891
:1094C000080000B1FFDF9DF80000411E8DF800107C
:1094D000EED220690199884201D1002020613EBD71
:1094E00070B50546A0F57F400C46FF3800D1FFDF80
:1094F000012C01D0FFDF70BDFFF790FF040000D109
:10950000FFDF207820F00F00401D20F0F0005030E9
:10951000207065800020207201202073BDE870401B
:109520007FE72DE9F04116460D460746FFF776FF27
:10953000040000D1FFDF207820F00F00401D20F054
:10954000F00050302070678001202072286805E00C
:109550001C000020DC030020C81400202061A88823
:10956000A0822673BDE8F0415BE77FB5FFF7EEFC14
:10957000040000D1FFDF02A92046FFF729FB0546C2
:1095800003A92046FFF73EFB8DF800508DF801003F
:10959000BDF80800001DADF80200BDF80C00001D6C
:1095A000ADF80400E088ADF80600684606F066FCF9
:1095B000002800D0FFDF7FBD2DE9F047DFF8FC93E6
:1095C0000546002799F8000010B10820BDE8F08793
:1095D00028460BF01BF808B11020F7E7F84C20786C
:1095E00008B9FFF76CFCA07A617A0844C6B200F0B3
:1095F00064FAB04207D2301AC1B22A460020FFF7FF
:1096000083FC0700E2D1D9F804004E46C01C20F0CC
:109610000300C9F8040000F040FB716800EB01088A
:1096200001214046FFF70AFB06462968404488426C
:1096300002D8B6F5803F15D328600020FFF786FCDE
:1096400005000DD005F11300D9F8041020F0030037
:109650004E46884200D0FFDF6078401E6070756023
:109660000420B3E700214046FFF7E8FA0446A6428B
:1096700000D0FFDF04EB0801C9F8041029604FF6A1
:10968000FF71A9F80210012189F8001038469DE702
:109690002DE9F0410446C94817460E46007810B13E
:1096A0000820BDE8F08108460AF08AFF08B11020C2
:1096B000F7E7C34D287808B9FFF701FC601E1E28A4
:1096C00007D8012C22D13078FE281FD82877002017
:1096D000E7E7A4F120001F2805D8E0B23A4631465A
:1096E000BDE8F04144E4A4F140001F2805D831460C
:1096F0002046BDE8F04100F0A3BAA4F1A0001F2865
:1097000004D80020A02C03D0A12C06D00720C8E745
:10971000317801F001016977C3E731680922F8293E
:1097200001D38B0701D01046BBE76B7C03F003032A
:10973000012B04D16B8BD7339CB28C42F3D82962B6
:10974000AFE72DE9F04781460E4608460AF05EFF76
:1097500048B948460AF078FF28B909F1030020F01B
:109760000301494501D0102030E795484FF0000A29
:109770004430817869B14178804600EB4114083467
:10978000378832460021204600F040FA050004D018
:1097900027E0A6F800A0052018E7B9F1000F24D0B3
:1097A0003088B84201D90C251FE0607800F0070529
:1097B000284600F017FA08EB0507324697F8E8014B
:1097C0004946401C87F8E801204607F5F47700F089
:1097D0001DFA05463878401E3870032000F002FA62
:1097E0002DB10C2D01D0A6F800A02846EEE6607839
:1097F000724E00F00701012923D002290CD0032961
:1098000033D0FFDF98F801104046491CC9B288F8F0
:1098100001100F2934D035E0616821B1000702D46E
:109820006088FFF72BFE98F8EA014746012802D12D
:10983000707802F0DFFA97F9EA010428E2DBFFDF33
:10984000E0E7616819B14022B06807F073F898F852
:10985000E9014746032802D1707802F0CBFA97F964
:10986000E9010428CEDBFFDFCCE7C00602D5608823
:10987000FFF704FE98F9EB010628C3DBFFDFC1E721
:1098800080F801A08178491E8170617801F007019C
:1098900001EB080090F8E811491C80F8E811A4E7F2
:1098A00070B50D4604460AF08BFE18B928460AF03A
:1098B000ADFE08B1102070BD29462046BDE87040BD
:1098C00008F031BF70B5044615460E4608460AF04A
:1098D00077FE18B928460AF099FE08B1102070BD2D
:1098E000022C03D0102C01D0092070BD2A4631462D
:1098F000204608F03BFF0028F7D0052070BD70B56A
:1099000014460D4606460AF05BFE38B928460AF0B2
:109910007DFE18B920460AF097FE08B1102070BDF0
:1099200022462946304608F040FF0028F7D007209D
:1099300070BD3EB504460AF069FE08B110203EBD78
:10994000684604F03FFEFFF795FB0028F7D19DF82D
:1099500006002070BDF808006080BDF80A00A080F5
:1099600000203EBD70B505460C4608460AF06CFE68
:1099700020B93CB120680AF049FE08B1102070BD42
:10998000A08828B121462846BDE87040FDF7BEBE3C
:10999000092070BD70B504460D4608460AF010FE59
:1099A00030B9601E1E2818D828460AF009FE08B1F2
:1099B000102070BD022C05D9072070BD1C000020AE
:1099C0009803002004B9FFDFF94800EB840050F849
:1099D000041C2846BDE870400847A4F120001F2859
:1099E00005D829462046BDE87040FAF790BCF02C17
:1099F000E2D1A8680AF0E4FD0028D9D1284606F093
:109A0000A6FABDE87040FFF735BB70B504460D46B9
:109A100008460AF0FBFD30B9601E1E280DD8284606
:109A20000AF0CEFD08B11020C7E7012C01D0022CAE
:109A300001D10620C1E70720BFE7A4F120001F28BD
:109A4000F9D829462046BDE87040FAF7B8BC06F0C0
:109A50008BBC38B50446D748007B00F00105D9B966
:109A6000F9F787FA0DB1226800E00022D248417868
:109A7000C06804F09EFBD0481030C0788DF800001C
:109A800010B1012802D004E0012000E000208DF890
:109A90000000684604F010FE002D02D02068283037
:109AA000206038BD30B5C34D04466878A04200D868
:109AB000FFDF686800EB041030BD70B5BD480025BD
:109AC0002C46467807E02046FFF7ECFF4078641C00
:109AD0002844C5B2E4B2B442F5D128466DE72DE979
:109AE000F0410C46064600F006F907463068C01CF7
:109AF00020F00302326014BBAE483B4608212430FC
:109B00000AF038FC002409E0082C10D2DFE804F049
:109B1000060408080A040406A84804E0A84802E06D
:109B2000A84800E0A8480AF045FC054600E0FFDF31
:109B3000A54200D0FFDF641CE4B2082CE4D33068F7
:109B400000EB07103060ACE5021D5143452900D2FF
:109B500045210844C01CB0FBF2F0C0B270472DE9AB
:109B6000FC5F064693484FF000088B464746444644
:109B700090F8019022E02046FFF794FF050000D105
:109B8000FFDF687869463844C7B22846FFF720F8F7
:109B9000824601A92846FFF735F80346BDF80400C0
:109BA0005246001D81B2BDF80000001D80B207F0D2
:109BB000D9F86A78641C00FB0288E4B24C45DAD11B
:109BC0003068C01C20F003003060BBF1000F00D0F3
:109BD00000204246394607F0D3F831680844306027
:109BE000BDE8FC9F7349443108710020C87070477C
:109BF00070494431CA782AB10A7801EB4211083120
:109C0000814201D001207047002070472DE9F041CA
:109C100006460078154600F00F0400201080601EF4
:109C20000F46052800D3FFDF61482A46103000EBBD
:109C30008400394650F8043C3046BDE8F0411847EE
:109C400070B50C46402802D0412806D120E0A0780B
:109C500061780D18E178814201D90720ADE62078BE
:109C6000012801D91320A8E6FF2D08D808F008FF25
:109C700006460AF09CF8301A801EA84201DA12202B
:109C80009BE64C482168816021790173002094E6AD
:109C9000BDE87040084600F05EB82DE9F0470027A7
:109CA000DFF810A13E463D46B9463C469AF8018091
:109CB0000AE02046FFF7F6FE4178807B0E4410FB59
:109CC0000155641CE4B27F1C4445F2D109EB8700C6
:109CD000C6EBC60100EB81009AF8092000EB850174
:109CE00001EBC2019AF80A209AF80B0001EBC201BD
:109CF00001EB80006AE42DE9F047DFF8B890002618
:109D0000344699F8090099F80A2099F8017002443C
:109D1000D5B299F80B20104400F0FF0808E0204667
:109D2000FFF7C0FE817B407811FB0066641CE4B243
:109D3000BC42F4D199F8090099F80A102844284443
:109D40004044401C01B1012108448419FF2C00D972
:109D5000FFDFE0B23AE438B50446407800F0030093
:109D6000012803D002280BD0072038BD606858B105
:109D70000AF073FCD0B960680AF066FC20B915E0FF
:109D800060680AF01DFC88B969462046FCF71EF998
:109D90000028EAD1607800F00300022816D19DF86F
:109DA000000098B160680AF04FFC78B1102038BD0F
:109DB00054500200980300201C000020BD41000008
:109DC0001FAC00005D2F0000AB2401006189F82961
:109DD0000DD8208988420AD8607800F003020A482A
:109DE000012A06D1D731026A89B28A4201D20920FA
:109DF000DDE794E80E0000F1100585E80E000AB9D1
:109E0000002101830020D2E7980300202DE9F041D2
:109E1000074614468846084601F01CFD064608EB36
:109E200088001C22796802EBC0000D18688C58B1BC
:109E30004146384601F016FD014678680078C200B8
:109E4000082305F120000CE0E88CA8B14146384613
:109E500001F00FFD0146786808234078C20005F143
:109E6000240006F0BEFD38B1062121726681D0E9DA
:109E70000010C4E9031009E0287809280BD0052058
:109E8000207266816868E060002028702046BDE886
:109E9000F04101F0D5BC072020726681F4E72DE97E
:109EA000F04116460D460746406801EB85011C222D
:109EB00002EBC1014418204601F0FDFC40B1002135
:109EC000708865F30F2160F31F4107200AF02CFB17
:109ED00009202070324629463846BDE8F04195E712
:109EE0002DE9F0410E46074600241C21F07816E0CB
:109EF00004EB8403726801EBC303D25C6AB1FFF721
:109F00008DFA050000D1FFDF6F802A4621463046DA
:109F1000FFF7C5FF0120BDE8F081641CE4B2A04258
:109F2000E6D80020F7E770B5064600241C21C0786B
:109F30000AE000BF04EB8403726801EBC303D51889
:109F40002A782AB1641CE4B2A042F3D8402070BD44
:109F5000282128461AF07DFE7068808928812046D5
:109F600070BD70B5034600201C25DC780DE000BFF5
:109F700000EB80065A6805EBC6063244167816B127
:109F8000128A8A4204D0401CC0B28442F0D84020D9
:109F900070BDF0B5044600201C26E5780EE000BF39
:109FA00000EB8007636806EBC7073B441F788F42CE
:109FB00002D15B78934204D0401CC0B28542EFD8F6
:109FC0004020F0BD0078032801D000207047012018
:109FD00070470078022801D00020704701207047A8
:109FE0000078072801D000207047012070472DE934
:109FF000F041064688461078F1781546884200D32D
:10A00000FFDF2C781C27641CF078E4B2A04201D852
:10A01000201AC4B204EB8401706807EBC101084444
:10A02000017821B14146884708B12C7073E7287840
:10A03000A042E8D1402028706DE770B514460B8827
:10A040000122A240134207D113430B8001230A22AD
:10A05000011D06F090FC047070BD2DE9FF4F81B02A
:10A060000878DDE90E7B9A4691460E4640072CD4CF
:10A07000019806F03DFF040000D1FFDF07F104085E
:10A0800020461FFA88F106F07CF8050000D1FFDFBA
:10A09000204629466A4606F0C6FA0098A0F80370E2
:10A0A000A0F805A0284606F06CFB017869F30601CC
:10A0B0006BF3C711017020461FFA88F106F0A4F86F
:10A0C00000B9FFDF019803F0E9FF06EB0900017F0B
:10A0D000491C017705B0BDE8F08F2DE9F84F0E4619
:10A0E0009A4691460746032106F0BEFD0446008DC0
:10A0F000DFF8B485002518B198F80000B0421ED1F1
:10A10000384606F0F5FE070000D1FFDF09F1040133
:10A11000384689B206F035F8050010D03846294691
:10A120006A4606F080FA009800210A460180817094
:10A1300004F084F80098C01DCAF8000021E098F8E7
:10A140000000B04216D104F1260734F8341F012074
:10A1500000FA06F911EA090F00D0FFDF2088012379
:10A1600040EA090020800A22391D384606F01EFC0C
:10A17000067006E0324604F1340104F12600FFF7D0
:10A180005CFF0A2188F800102846BDE8F88FFEB56C
:10A1900014460D46064602AB0C220621FFF79DFF32
:10A1A000002826D00299687812220A70801C487014
:10A1B00008224A80A870208888806088C880A0888B
:10A1C0000881E088488100240C20CDE900040523A3
:10A1D000062229463046FFF740FF2146002266F35B
:10A1E0001F41F02310460AF0F5F86878801C68706B
:10A1F0000120FEBDFEB514460D460622064602AB02
:10A200001146FFF76AFF002812D0029B132000219D
:10A210001870A8785870022058809C800620CDE9DC
:10A2200000010246052329463046FFF716FF0120AC
:10A23000FEBD2DE9FE430C46804644E002AB0E22F3
:10A2400007214046FFF749FF002841D060681C22E3
:10A2500067788678BF1C06EB860102EBC1014518C2
:10A2600002981421017047700A214180698A018196
:10A27000E98A4181A9888180A9898181304601F0DC
:10A28000E9FA029905230722C8806F70042028701C
:10A2900000250E20CDE9000521464046FFF7DDFEF2
:10A2A000294666F30F2168F31F41F023002207209F
:10A2B0000AF090F86078FD49801C60706268204662
:10A2C000921CFFF794FE606880784028B6D1012088
:10A2D000BDE8FE83FEB50D46064638E002AB0E2211
:10A2E00007213046FFF7F9FE002835D068681C23A7
:10A2F000C17801EB810203EBC20284180298152297
:10A300000270627842700A224280A2894281A28849
:10A310008281084601F09EFA014602988180618A96
:10A32000C180E18A0181A088B8B10020207000219D
:10A330000E20CDE900010523072229463046FFF70C
:10A340008CFE6A68DA492846D21CFFF750FE68681E
:10A35000C0784028C2D10120FEBD0620E6E72DE9E5
:10A36000FE430C46814644E0204601F08EFAD0B30D
:10A3700002AB082207214846FFF7AFFE0028A7D00E
:10A3800060681C2265780679AD1C06EB860102EB3D
:10A39000C10147180298B7F8108006210170457076
:10A3A00004214180304601F055FA01460298052308
:10A3B0000722C180A0F804807D7008203870002535
:10A3C000CDE9000521464846FFF747FE294666F3DA
:10A3D0000F2169F31F41F0230022072009F0FAFF43
:10A3E0006078801C60706268B2492046121DFFF7D9
:10A3F000FEFD606801794029B6D1012068E72DE9AA
:10A40000F34F83B00E4680E0304601F03EFA00285C
:10A4100075D071681C2091F8068008EB880200EB6B
:10A42000C2000C184146304601F023FA0146A078DC
:10A43000C30070684078C20004F1240006F0EDFA11
:10A4400007468088E18B401A80B2002581B3AA4676
:10A45000218B814200D808468146024602AB072183
:10A460000398FFF73AFE010028D0BAF1000F03D09D
:10A47000029AB888022510808B46E28B3968A9EBD6
:10A4800005001FFA80FA0A440398009206F030FD96
:10A49000ED1D009A59465346009506F03EF9E08BB3
:10A4A000504480B2E083B988884209D1012508E090
:10A4B000FFE7801C4FF0010A80B2C9E7002009E6DF
:10A4C0000025CDE90095238A072231460398FFF73E
:10A4D000C4FDE089401EE0818DB1A078401CA070D1
:10A4E0007068F178427811FB02F1CAB281690123E8
:10A4F0000E3006F040FA80F800800020E083726899
:10A500006D493046921DFFF772FD706881794029D0
:10A510007FF47AAF0120DDE570B5064648680D4648
:10A5200014468179402910D104EB84011C2202EBEE
:10A53000C101084401F0E0F9002806D06868294606
:10A5400084713046BDE8704059E770BDFEB50C46D9
:10A550000746002645E0204601F097F9D8B3606829
:10A560001C22417901EB810102EBC1014518688988
:10A5700000B9FFDF02AB082207213846FFF7ADFD27
:10A58000002833D00299607816220A70801C487027
:10A59000042048806068407901F05CF90146029827
:10A5A0000523072281806989C1800820CDE9000642
:10A5B00021463846FFF751FD6078801C6070A889FD
:10A5C00069890844B0F5803F00D3FFDFA889698915
:10A5D0000844A8816E81626838492046521DFFF701
:10A5E00006FD606841794029B5D10120FEBD30B536
:10A5F000438C458BC3F3C704002345B1838B641E92
:10A60000ED1AC38A6D1E1D4495FBF3F3E4B22CB121
:10A61000008918B1A04200D8204603444FF6FF70CD
:10A62000834200D3034613800C7030BD2DE9FC41FA
:10A63000074616460D46486802EB86011C2202EBCF
:10A64000C10144186A4601A92046FFF7D0FFA0893E
:10A65000618901448AB2BDF80010914212D0081AF3
:10A6600000D5002060816868407940280AD12046E2
:10A6700001F038F9002805D0686829464671384647
:10A68000FFF764FFBDE8FC812DE9FE4F8946804657
:10A6900015465088032106F0E7FA8346B8F8020011
:10A6A00040280DD240200CE030000020C59F000063
:10A6B000D39F0000E19F0000F9B80000E5B800005A
:10A6C000403880B282460146584601F0DEF8002844
:10A6D0007ED00AEB8A001C22DBF8041002EBC000DB
:10A6E0000C18204601F0E7F8002877D1B8F80000F0
:10A6F000E18A88423CD8A189D1B348456ED1002671
:10A700005146584601F0AEF8218C0F18608B48B9BD
:10A71000B9F1020F62D3B8F804006083618A8842FD
:10A7200026D80226A9EB06001FFA80F9B888A28B6A
:10A73000801A002814DD4946814500DA084683B2B4
:10A7400068886968029139680A44CDE9003206F0E8
:10A75000BDFBDDE90121F61D009B009605F0A9FF78
:10A76000A18B01EB090080B2A083618B884207D9DD
:10A77000688803B052465946BDE8F04F01F0D9B899
:10A780001FD14FF009002872B8F802006881D7E99C
:10A790000001C5E90401608BA881284601F050F84A
:10A7A0005146584601F05EF80146DBF804000823E4
:10A7B0000078C20004F1200006F013F90020A08305
:10A7C0006083A0890AF0FF02401EA081688800E033
:10A7D00004E003B05946BDE8F04F27E7BDE8FE8F1F
:10A7E0002DE9F041064615460F461C46184609F06D
:10A7F000E7FE18B9206809F009FF08B1102015E438
:10A800007168688C0978B0EBC10F01D313200DE497
:10A810003946304601F026F8014670680823007872
:10A82000C20005F1200006F0A6F8D4E90012C0E944
:10A8300000120020E3E710B50446032106F014FAE5
:10A840000146007800F00300022805D02046BDE84C
:10A85000104001F114029AE48A8A2046BDE81040B3
:10A86000C8E470B50446032106F0FEF9054601462A
:10A870002046FFF774FD002816D029462046FFF732
:10A8800065FE002810D029462046FFF723FD00284A
:10A890000AD029462046FFF7CCFC002804D02946E0
:10A8A0002046BDE87040AAE570BD2DE9F0410C4698
:10A8B00080461EE0E178427811FB02F1CAB281695C
:10A8C00001230E3006F08DF8077860681C22C179EC
:10A8D000491EC17107EB8701606802EBC101461890
:10A8E0003946204600F0D1FF18B1304600F0DCFFB9
:10A8F00020B16068C1790029DCD180E7FEF78EFDC8
:10A90000050000D1FFDF0A202872384600F0A2FFC0
:10A9100068813946204600F0ACFF01466068082394
:10A920004078C20006F1240006F05BF8D0E9001080
:10A93000C5E90310A5F80280284600F081FFB07831
:10A9400000B9FFDFB078401EB07058E770B50C4614
:10A950000546032106F088F901464068C279224481
:10A96000C2712846BDE870409FE72DE9FE4F824640
:10A97000507814460F464FF0000800284FD00128A9
:10A9800007D0022822D0FFDF2068B8606068F86036
:10A9900024E702AB0E2208215046FFF79EFB002859
:10A9A000F2D00298152105230170217841700A2107
:10A9B0004180C0F80480C0F80880A0F80C8062884C
:10A9C00082810E20CDE90008082221E0A6783046D9
:10A9D00000F040FF054606EB86012C22786802EB6A
:10A9E000C1010822465A02AB11465046FFF775FBDB
:10A9F0000028C9D0029807210170217841700421F4
:10AA0000418008218580C680CDE9001805230A46CB
:10AA100039465046FFF721FB87F80880DEE6A67826
:10AA2000022516B1022E13D0FFDF2A1D914602AB7C
:10AA300008215046FFF751FB0028A5D002980121BC
:10AA4000022E0170217841704580868002D005E099
:10AA50000625EAE7A188C180E1880181CDE9009857
:10AA60000523082239465046D4E710B50446032191
:10AA700006F0FAF8014600F108022046BDE8104051
:10AA800073E72DE9F05F0C4601281DD0957992F807
:10AA90000480567905EB85011F2202EBC10121F0EC
:10AAA000030B08EB060111FB05F14FF6FF7202EAFA
:10AAB000C10909F1030115FB0611F94F21F0031A31
:10AAC00040B101283DD124E06168E57891F800802B
:10AAD0004E78DFE75946786805F001FF606000B9FD
:10AAE000FFDF594660681AF0D6F8E570514678687D
:10AAF00005F0F5FE6168486100B9FFDF60684269F2
:10AB000002EB09018161606880F80080606846702E
:10AB100017E0606852464169786805F00BFF5A46B5
:10AB20006168786805F006FF032006F045F80446E2
:10AB3000032006F049F8201A012802D1786805F0B0
:10AB4000C3FE0BEB0A00BDE8F09F02460021022085
:10AB500097E773B5D24D0A202870009848B10024B9
:10AB60004FEA0D0005F09DFE002C01D100996960AF
:10AB70007CBD01240020F5E770B50C461546382150
:10AB800020461AF088F8012666700A2104F11C009C
:10AB90001AF081F805B9FFDF297A207861F3010006
:10ABA0002070A879002817D02A4621460020FFF7F8
:10ABB00068FF6168402088706168C87061680871CA
:10ABC0006168487161688871616828880881616876
:10ABD000688848816068868170BDC878002802D086
:10ABE000002201204DE7704770B50546002165F34E
:10ABF0001F41002009F098FC0321284606F034F894
:10AC0000040000D1FFDF21462846FFF769F900283C
:10AC100004D0207840F010002070012070BD2DE994
:10AC2000FF4180460E460F0CFEF7F8FB050007D0EB
:10AC30006F800321384606F017F8040008D106E0BB
:10AC400004B03846BDE8F0411321F9F7F9BEFFDF43
:10AC50005FEA080005D0B8F1070F18D0FFDFBDE8A4
:10AC6000FF8120782A4620F0080020700020ADF8EF
:10AC7000020002208DF800004FF6FF70ADF80400CE
:10AC8000ADF8060069463846F9F7EDFAE7E7C6F38E
:10AC9000072101EB81021C23606803EBC202805C88
:10ACA000042803D008280AD0FFDFD8E7012000904D
:10ACB0004FF440432A46204600F004FECFE704B09C
:10ACC0002A462046BDE8F041FFF7E9B82DE9F05FDC
:10ACD0000027B0F80A9090460C4605463E46B9F16A
:10ACE000400F01D2402001E0A9F140001FFA80FA94
:10ACF000287AC01E08286BD2DFE800F00D04192066
:10AD000058363C4772271026002C6CD0D5E9030139
:10AD1000C4E902015CE070271226002C63D00A22ED
:10AD200005F10C0104F1080019F059FF50E07127FA
:10AD30000C26002C57D0E868A06049E07427102644
:10AD40009CB3D5E90301C4E902016888032105F039
:10AD50008BFF8346FEF762FB0246688850805146AF
:10AD60005846FFF753F833E075270A26ECB1A88957
:10AD700020812DE076271426BCB105F10C0004F1EA
:10AD8000080307C883E8070022E07727102664B18C
:10AD9000D5E90301C4E902016888032105F064FFD5
:10ADA00001466888FFF781FD12E01CE07327082642
:10ADB000CCB16888032105F057FF01460078C00632
:10ADC00006D56888FFF78CF810B96888F8F71BFE7D
:10ADD000A8F800602CB12780A4F8069066806888E7
:10ADE000A0800020AFE6A8F80060FAE72DE9FC415A
:10ADF0000C461E4617468046032105F035FF0546E2
:10AE00000A2C0AD2DFE804F0050505050505090945
:10AE10000907042303E0062301E0FFDF0023CDE957
:10AE20000076224629464046FFF717F92AE438B54E
:10AE30000546A0F57F40FF3830D0284606F046F89A
:10AE4000040000D1FFDF204605F0CBFB002815D021
:10AE500001466A46204605F0E6FB00980321B0F85B
:10AE60000540284605F000FF0546052C03D0402C80
:10AE700005D2402404E0007A80B1002038BD403C77
:10AE8000A4B2214600F001FD40B1686804EB8401E2
:10AE90003E2202EBC101405A0028EFD0012038BD0C
:10AEA000300000202DE9F04F044689B0408806F0BC
:10AEB0000DF8050000D1FFDF06AA2846616800F002
:10AEC000BDFC069D001F81B235F8032F6B888A42B6
:10AED00005D1042B0AD0052B1DD0062B15D02246F8
:10AEE0002846FFF7D1FB09B0BDE8F08F16462D1DAF
:10AEF000224629463046F7F750FA0828F3D1224671
:10AF000029463046FCF749FCEDE76088291D636857
:10AF1000FAF7C8FCE7E717466088032105F0A4FEAE
:10AF20004FF000088DF804800646ADF80680042F27
:10AF3000D9D36A79002AD6D028794FF6FF794FF015
:10AF40001C0A13282CD008DC012878D0062847D00A
:10AF5000072875D0122874D106E0142872D015285D
:10AF600071D016286DD1ACE10C2F6AD1307800F089
:10AF70000301022965D140F0080030706879B07093
:10AF800001208DF804002889ADF808006889ADF823
:10AF90000A00A889ADF80C00E889ADF80E0019E0A8
:10AFA000B07890429FD1307801079CD5062F9AD176
:10AFB00020F0080030706088414660F31F41002097
:10AFC00009F0B2FA02208DF80400ADF80890288943
:10AFD000ADF80A006088224601A9F9F744F982E732
:10AFE000082F80D12F89B5F80A90402F01D2402038
:10AFF00001E0A7F1400080B280460146304600F0F3
:10B0000044FC08B3716808EB88002C2202EBC000F6
:10B01000095A4945E3D1FE4807AAD0E90210CDE913
:10B02000071068798DF81C0008F0FF058DF81E5098
:10B0300060883146FFF799FC2246294639E0B6E0A0
:10B0400014E03CE039E0E6E0F148D0E90010CDE959
:10B0500007106879ADF820708DF81C00ADF82290CB
:10B06000608807AA3146FFF780FC3CE7082FB6D17D
:10B070006889B5F80880402801D2402000E04038B7
:10B0800087B23946304600F000FC0028A7D007EB15
:10B09000870271680AEBC2000844028A42459ED1C9
:10B0A000017808299BD140786979884297D1F9B213
:10B0B00022463046FEF7F3FE15E70E2F07D0CDF8F7
:10B0C0001C80CDF8208068798DF81C00C8E769895C
:10B0D000EF898B46B5F80C903046FEF742FFABF196
:10B0E0004001402901D309204AE0B9F1170F01D3EB
:10B0F000172F01D20B2043E040280ED000EB800236
:10B1000071680AEBC20008440178012903D1407834
:10B1100069798842A9D00A2032E03046FEF703FF61
:10B12000014640282BD001EB810372680AEBC30073
:10B1300002EB0008012288F800206A7988F80120D3
:10B1400070682A894089B84200D938462D8A03237D
:10B150002372A282E7812082A4F80C9065820846BF
:10B1600000F078FB6081A8F81490A8F81870A8F88F
:10B170000E50A8F810B0204600F062FBB3E60420A1
:10B1800005212172A4F80A80E08101212173A049E0
:10B19000D1E90421CDE9072169798DF81C10ADF8BA
:10B1A0001E00608807AA3146FFF7DFFBE3E7062FA2
:10B1B000E4D3B078904215D13078010712D520F051
:10B1C000080030706088414660F31F41002009F09C
:10B1D000ABF902208DF804002889ADF80800ADF81D
:10B1E0000A90F7E604213046FEF7D3FE05464028D4
:10B1F000C4D002208303009022462946304600F046
:10B2000061FB4146608865F30F2160F31F41072011
:10B2100009F08AF967E60E2FB0D104213046FEF717
:10B22000B8FE81464028A9D04146608869F30F21C5
:10B2300060F31F41072009F077F9288A0790E88911
:10B2400000907068AF894089B84200D9384683467B
:10B25000B5F80A8028890590484600F0FBFA60811D
:10B26000079840B10220079B00902246494630468D
:10B2700000F028FB37E6B8F1170F1ED3172F1CD3A9
:10B280000420207200986082E781A4F810B0A4F82E
:10B290000C8009EB890271680AEBC2000D18009955
:10B2A0000598A5F81480A5F818B0E98128822046F1
:10B2B00000F0C6FA0620287015E601200B23009046
:10B2C000D3E7082FA6D129893046FEF74AFE074664
:10B2D00040289FD007EB870271680AEBC200084440
:10B2E000804600F0E8FA002894D16D89B8F80E0085
:10B2F0002844B0F5803F05D360883A46314600F0D7
:10B3000018FBF0E5002D85D0A8F80E0060883A46BD
:10B310003146FFF701F908202072384600F09AFA0A
:10B320006081A58127E770B50D460646032105F02B
:10B330009BFC040004D02078000704D5112070BDC8
:10B3400043F2020070BD2A4621463046FEF71FFF39
:10B3500018B9286860616868A061207840F008002A
:10B360002070002070BD70B50D460646032105F023
:10B370007BFC040004D02078000704D4082070BDB2
:10B3800043F2020070BD2A4621463046FEF732FFE6
:10B3900000B9A582207820F008002070002070BD40
:10B3A0002DE9F04F0E4691B08046032105F05CFC7C
:10B3B0000446404605F09CFD074600200790089093
:10B3C0000990ADF830000A9002900390049004B9FF
:10B3D000FFDF0DF1080917BBFFDF20E038460BA99E
:10B3E000002204F0C1FF9DF82C0000F07F050A2D1B
:10B3F00000D3FFDF6019017F491E01779DF82C0003
:10B4000000060CD52A460CA907A8FEF716FE01E097
:10B410007C50020019F80510491C09F80510761E29
:10B42000F6B2DBD204F13400FA4D04F1260BDFF85A
:10B43000E8A304F12A07069010E05846069900F0A8
:10B440006AFA064628700A2800D3FFDF5AF8261049
:10B4500040468847E08CC05DB04202D0208D002875
:10B46000EBD10A202870EC4D4E4628350EE00CA991
:10B4700007A800F050FA0446375D55F8240000B9DB
:10B48000FFDF55F82420394640469047BDF81E009E
:10B490000028ECD111B027E510B5032105F0E4FB3D
:10B4A000040000D1FFDF0A2104F11C0019F0F3FBB6
:10B4B000207840F00400207010BD10B50C46032128
:10B4C00005F0D2FB2044007F002800D0012010BDF1
:10B4D0002DE9F84F894615468246032105F0C4FB45
:10B4E000070004D0284609F06BF840B903E043F2A6
:10B4F0000200BDE8F88F484609F088F808B110202E
:10B50000F7E7786828B169880089814201D9092064
:10B51000EFE7B9F800001C2418B1402809D24020F8
:10B5200008E03846FEF7FFFC8046402819D113207A
:10B53000DFE7403880B280460146384600F0A5F982
:10B5400048B108EB8800796804EBC000085C01286A
:10B5500003D00820CDE70520CBE7FDF75FFF06000D
:10B560000BD008EB8800796804EBC0000C18B9F820
:10B57000000020B1E88910B113E01120B9E7288854
:10B58000172802D36888172801D20720B1E7686816
:10B5900038B12B1D224641463846FFF721F90028D5
:10B5A000A7D104F10C0269462046FFF720F828884D
:10B5B00060826888E082B9F8000030B10220207013
:10B5C000E889A080E889A0B12BE003202070A88939
:10B5D000A08078688178402905D180F802803946BA
:10B5E0005046FEF726FE404600F034F9A9F8000068
:10B5F00021E07868218B4089884200D90846208361
:10B60000A6F802A004203072B9F800007081E08929
:10B610007082F181208B3082A08AB081304600F0A8
:10B620000FF97868C178402905D180F80380394640
:10B630005046FEF74FFE00205BE770B50D4606460C
:10B64000032105F011FB040003D0402D04D2402556
:10B6500003E043F2020070BD403DADB2294600F068
:10B6600014F958B105EB85011C22606802EBC10199
:10B67000084400F020F918B1082070BD052070BD05
:10B680002A462146304600F054F9002070BD2DE9CD
:10B69000F0410D4616468046032105F0E5FA0446C2
:10B6A000402D01D2402500E0403DADB28CB129468D
:10B6B00000F0EBF880B105EB85011C22606802EB1D
:10B6C000C1014718384600F0F6F838B10820BDE847
:10B6D000F08143F20200FAE70520F8E733463A46E4
:10B6E00029462046FFF77CF80028F0D1EAB221462F
:10B6F0004046FEF79BFF0020E9E72DE9F0410D46AB
:10B7000016468046032105F0AFFA0446402D01D2CB
:10B71000402500E0403DAFB224B1304608F050FF74
:10B7200038B902E043F20200D1E7306808F048FF80
:10B7300008B11020CBE73946204600F0A6F860B1EA
:10B7400007EB87011C22606802EBC10145182846FF
:10B7500000F0B1F818B10820B9E70520B7E7B088C4
:10B76000A98A884201D90C20B1E76168E88C497840
:10B77000B0EBC10F01D31320A9E73946204600F0F2
:10B7800078F80146606808234078C20005F124007B
:10B7900005F0F1F8D6E90012C0E90012FAB221462C
:10B7A0004046FEF7B9FE002091E72DE9F0470D462F
:10B7B0001F4690468146032105F056FA0446402D67
:10B7C00001D2402001E0A5F1400086B23CB14DB16C
:10B7D000384608F039FF50B11020BDE8F08743F239
:10B7E0000200FAE76068C8B1A0F80C8024E0314696
:10B7F000204600F04AF888B106EB86011C226068FA
:10B8000002EBC1014518284600F055F840B1082068
:10B81000E3E7000030000020945002000520DCE740
:10B82000A5F80880F2B221464846FEF7FFFE1FB198
:10B83000A8896989084438800020CEE704F0F3BE67
:10B84000017821F00F01491C21F0F0011031017045
:10B85000FDF7E7BD10B50446402800D9FFDF4034AE
:10B86000A0B210BD406842690078484302EBC000B6
:10B870007047C2784068037812FB03F2437840694E
:10B8800001FB032100EBC1007047C2788A4209D94D
:10B89000406801EB81011C2202EBC101405C08B150
:10B8A00001207047002070470078062801D9012048
:10B8B0007047002070470078062801D001207047AB
:10B8C00000207047F0B401EB81061C27446807EBA9
:10B8D000C6063444049D05262670E3802571F0BC1D
:10B8E000FEF794BA10B5418911B1FFF7DDFF08B139
:10B8F000002010BD012010BD10B5C18C8278B1EBC5
:10B90000C20F04D9C18911B1FFF7CEFF08B10020E1
:10B9100010BD012010BD10B50C4601230A22011DE7
:10B9200005F05FF800782188012282409143218050
:10B9300010BDF0B402EB82051C264C6806EBC50571
:10B94000072363554B681C79402C03D11A71F0BC56
:10B95000FEF705BDF0BC704710B5EFF3108000F0A6
:10B96000010472B6F7484178491C417040780128BB
:10B9700001D1F7F709FB002C00D162B610BD70B5FC
:10B98000F04CE07848B90125E570FFF7E5FFF7F7DF
:10B9900003FB20B1002008F058FA002070BD4FF0E2
:10B9A00080406571C0F80453F7E770B5EFF310807D
:10B9B00000F0010572B6E34C607800B9FFDF6078F3
:10B9C000401E6070607808B9F7F7E2FA002D00D1E8
:10B9D00062B670BDDB4810B5C17821B1002141715C
:10B9E000C170FFF7E2FF002010BD10B50446F7F765
:10B9F000D3FAD449C978084000D001202060002043
:10BA000010BD2DE9F05FDFF83C934278817889F82A
:10BA10000620002589F80710064689F808500078A6
:10BA20002F4620B101280FD002280FD0FFDFF7F7F3
:10BA3000C0FA98B1F7F7C4FAA8420FD12846F7F731
:10BA4000C3FA0028FAD047E00125F0E7FFF784FFAA
:10BA5000F7F7A2FA0028FBD00225E8E701208407C7
:10BA6000E060C4F80471B8490D600107D1F84412D0
:10BA7000B54AC1F3423124321160B3493431086010
:10BA80004FF0020BC4F804B3A060DFF8C0A2DAF8EC
:10BA90000010C94341F3001101F10108DAF8001068
:10BAA00041F01001CAF8001000E020BFD4F80401F2
:10BAB0000028FAD02846F7F787FA0028FAD0B8F11C
:10BAC000000F05D1DAF8001021F01001CAF80010BB
:10BAD000C4F808B3C4F8047199F807004C4670B173
:10BAE000307860B9F7F758FA064608F00BFB6FF0AC
:10BAF000004116B1C4E9031001E0C4E9030115B126
:10BB00002771BDE8F09F01202071BDE8F05F00F0D3
:10BB1000D9B870B5050000D1FFDF4FF080424FF07B
:10BB2000FF30C2F808030021C2F80011C2F8041166
:10BB3000C2F80C11C2F81011824C6170F7F732FA9A
:10BB400010B10120E07060702846BDE8704058E7F1
:10BB50002DE9FE4F7E4800687D4A7E49083211601B
:10BB60008C070290D4F8080108B1012600E00026F5
:10BB7000D4F8240100B101208146D4F81C0100B1A1
:10BB800001208346D4F8200100B101200190D4F8AF
:10BB9000000110B14FF0010801E04FF00008D4F8A7
:10BBA000040108B1012700E00027D4F80C0100B11E
:10BBB00001200090D4F8100108B1012100E000211B
:10BBC0008A4646EA080127EA01000099884320EAEC
:10BBD0000A0020EA090030EA0B0000D0FFDF002550
:10BBE00026B1C4F80851012008F02FF9B9F1000F6F
:10BBF00004D0C4F82451092008F027F9BBF1000F44
:10BC000004D0C4F81C510A2008F01FF9019820B193
:10BC1000C4F820510B2008F018F9DFF83C91494E88
:10BC20004FF0010BB8F1000F11D0C4F8005170793A
:10BC300018B17571002008F008F9307838B1357006
:10BC400086F802B00222C9F80020C4F810B00FB183
:10BC5000C4F80451009858B1C4F80C51B07800B938
:10BC6000FFDFC9F80050B570C4F814B0FFF79DFEAF
:10BC7000BAF1000F05D0C4F81051307908B100F0C6
:10BC800045F833490298091D0860BDE8FE8F70B57C
:10BC90002C4DE87808B9F7F77BF901208407A061FB
:10BCA000A87850B1D4F80C0120B90020F7F78CF92E
:10BCB0000028F7D10020C4F80C014FF0FF30C4F881
:10BCC000080370BD2DE9F0411926B407C4F80863D4
:10BCD0000125A5610020C4F80001C4F80C01C4F8D6
:10BCE0001001F7F759F9174F28B11B49BD70022011
:10BCF0000860256100E03D70FFF72EFE1249B8791B
:10BD000020310860C4F80463BDE8F0812DE9F041FA
:10BD10000C4C4FF080470125E07940B3012803D057
:10BD2000217A401E814224DAF7F736F9064608F0F8
:10BD3000E9F9E179012902D9217A491C21726EB110
:10BD400021690CE03C0000201805004010ED00E0E7
:10BD50001005024001000001340C0040E168411A66
:10BD6000022902DA11F1020F0EDC0EB1206100E0AF
:10BD7000E060FFF7F1FDF7F70FF938B10549022050
:10BD800008603D61A57002E07D61BDE7257000207F
:10BD90002072B9E7340C00404FF0E0214FF0007002
:10BDA000C1F88001C1F88002384B802283F800245A
:10BDB000C1F80001704700B502460420344903E091
:10BDC00001EBC0031B792BB1401EC0B2F8D2FFDFDC
:10BDD000FF2000BD41F8302001EBC00100224A7174
:10BDE0008A7101220A7100BD294A002102EBC000BC
:10BDF0000171704710B50446042800D3FFDF2448C2
:10BE000000EBC4042079012800D0FFDF6079A1791C
:10BE1000401CC0B2814200D060714FF0E0214FF071
:10BE20000070C1F8000210BD2DE9F0411948056805
:10BE300018491948083108601448042690F800048D
:10BE4000134F4009154C042818D0FFDF16E0217865
:10BE500007EBC1000279012A08D1427983799A421D
:10BE600004D04279827157F8310080472078401C15
:10BE7000C0B22070042801D300202070761EF6B2D4
:10BE8000E5D20448001D0560BDE8F08119E000E03E
:10BE9000C8050020100502400100000150000020EC
:10BEA000F8B51D46DDE906470E000AD005F020F87A
:10BEB0002346FF1DBCB231462A46009404F02DFCF7
:10BEC000F8BDD0192246194618F044FE2046F8BDA8
:10BED00070B50D460446102118F0BBFE25811720D1
:10BEE0006081A07B40F00A00A07370BD4FF6FF7226
:10BEF0000A800146022008F017BB7047008970478E
:10BF0000827BD30701D1920703D480890880002067
:10BF1000704705207047827B920700D5818170476A
:10BF200001460020098841F6FE52114200D001204E
:10BF3000704700B50346807BC00701D0052000BDD7
:10BF400059811846FFF7ECFFC00703D0987B40F0FB
:10BF500004009873987B40F001009873002000BDA6
:10BF6000827B520700D509B140897047172070477E
:10BF7000827B61F3C302827370472DE9FC5F0E463A
:10BF8000044601789646012000FA01F14DF6FF5271
:10BF900001EA020962684FF6FF7B1188594502D118
:10BFA0000920BDE8FC9FB9F1000F05D041F6FE5510
:10BFB000294201D00120F4E741EA090111801D0066
:10BFC00014D04FF0000C85F800C02378052103221F
:10BFD00067464FF0020A0E2B74D2DFE803F0F8092F
:10BFE000252F47626974479092B3D0D70420D8E7D1
:10BFF000616820898B7B9B077DD5172848D30B89E7
:10C00000834245D38989172901D3814240D185F8DC
:10C0100000A0A5F801003280616888816068817B9A
:10C0200021F002018173C5E0042028702089A5F861
:10C0300001006089A5F803003180BBE0208A3188C7
:10C04000C01D1FFA80F8414522D3062028702089A0
:10C05000A5F801006089A5F80300A089A5F80500EE
:10C060000721208ACDE9000163693EE0082B10D04A
:10C07000082028702089A5F801006089A5F8030030
:10C0800031806A1D694604F10C0006F08EFB10B188
:10C090005FE01020EDE730889DF800100844308004
:10C0A00088E00A2028702089A5F80100328045E048
:10C0B0000C2028702089A5F801006089A5F80300EC
:10C0C00031803BE083E02189338800EB41021FFA95
:10C0D00082F843453DD3B8F1050F3AD30E222A70BA
:10C0E0000BEA4101CDE90010E36860882A467146F9
:10C0F000FFF7D6FE00E04DE0A6F800805AE04020B1
:10C10000287060893188C01C1FFA80F8414520D30F
:10C110002878714620F03F00123028702089A5F859
:10C1200001006089CDE9000260882A46E368FFF7D4
:10C13000B7FEA6F80080287840063BD461682089C5
:10C14000888037E0A0893288401D1FFA80F8424578
:10C1500001D204273EE0162028702089A5F80100AE
:10C160006089A5F80300A089CDE9000160882A460E
:10C1700071462369FFF794FEA6F80080DEE71820D9
:10C180002870207A6870A6F800A013E061680A8819
:10C19000920401D405271DE0C9882289914201D06B
:10C1A000062717E01E21297030806068018821F47D
:10C1B00000510180B9F1000F0CD061887823002272
:10C1C000022008F007F961682078887007E0A6F877
:10C1D00000C003276068018821EA09010180384610
:10C1E000DFE62DE9FF4F85B01746129C0D001E4675
:10C1F0001CD03078C10703D000F03F00192801D9C6
:10C20000012100E000212046FFF7AAFEA8420DD33D
:10C210002088A0F57F41FF3908D03078410601D44D
:10C22000000605D5082009B0BDE8F08F0720FAE721
:10C2300000208DF800008DF8010030786B1E00F0B2
:10C240003F0C0121A81E4FF0050A4FF002094FF0E4
:10C25000030B9AB2BCF1200F75D2DFE80CF08B1003
:10C26000745E7468748C749C74B674BB74C974D531
:10C2700074E2747474F274F074EF74EE748B052DC0
:10C2800078D18DF80090A0788DF804007088ADF812
:10C29000060030798DF80100707800F03F000C281E
:10C2A00029D00ADCA0F10200092863D2DFE800F0FF
:10C2B000126215621A621D622000122824D004DC6A
:10C2C0000E281BD01028DBD11BE016281FD0182801
:10C2D000D6D11FE02078800701E0207840070028B1
:10C2E00048DAEFE020780007F9E72078C006F6E7A3
:10C2F00020788006F3E720784006F0E720780006F3
:10C30000EDE72088C005EAE720884005E7E72088B8
:10C310000005E4E72088C004E1E72078800729D5FC
:10C32000032D27D18DF800B0B6F8010082E0217806
:10C3300049071FD5062D1DD381B27078012803D07F
:10C34000022817D102E0CAE0022000E010200422F7
:10C350008DF8002072788DF80420801CB1FBF0F27B
:10C36000ADF8062092B242438A4203D10397ADF85A
:10C370000890A7E07AE02078000777D598B2820885
:10C380008DF800A0ADF80420B0EB820F6ED10297BB
:10C39000ADF8061096E02178C90667D5022D65D361
:10C3A00081B206208DF80000707802285ED300BFAD
:10C3B000B1FBF0F28DF80400ADF8062092B24243D2
:10C3C0008A4253D1ADF808907BE0207880064DD5A5
:10C3D000072003E0207840067FD508208DF8000074
:10C3E000A088ADF80400ADF80620ADF8081068E0AC
:10C3F0002078000671D50920ADF804208DF80000E2
:10C40000ADF8061002975DE02188C90565D5022DBB
:10C4100063D381B20A208DF80000707804285CD3C1
:10C42000C6E72088400558D5012D56D10B208DF840
:10C430000000A088ADF8040044E021E026E016E00A
:10C44000FFE72088000548D5052D46D30C208DF840
:10C450000000A088ADF80400B6F803006D1FADF829
:10C460000850ADF80600ADF80AA02AE035E02088B3
:10C47000C00432D5012D30D10D208DF8000021E00F
:10C480002088800429D4B6F80100E080A07B000752
:10C4900023D5032D21D3307800F03F001B2818D07E
:10C4A0000F208DF80000208840F40050A4F8000010
:10C4B000B6F80100ADF80400ED1EADF80650ADF879
:10C4C00008B0039769460598F5F7B2FC050008D057
:10C4D00016E00E208DF80000EAE7072510E0082599
:10C4E0000EE0307800F03F001B2809D01D2807D04F
:10C4F0000220059908F018F8208800F400502080E8
:10C50000A07B400708D52046FFF70AFDC00703D1EE
:10C51000A07B20F00400A073284684E61FB5022803
:10C5200006D101208DF8000088B26946F5F780FC3D
:10C530001FBD0000F8B51D46DDE906470E000AD014
:10C5400004F0D6FC2346FF1DBCB231462A460094B7
:10C5500004F0E3F8F8BDD0192246194618F0FAFAAB
:10C560002046F8BD2DE9FF4F8DB09B46DDE91B57F6
:10C57000DDF87CA00C46082B05D0E06901F002F93B
:10C5800050B11020D2E02888092140F01000288006
:10C590008AF80010022617E0E16901208871E2693B
:10C5A0004FF420519180E1698872E06942F60101FF
:10C5B0000181E069002181732888112140F0200069
:10C5C00028808AF80010042638780A900A203870EB
:10C5D0004FF0020904F118004D460C9001F095FB54
:10C5E000B04681E0BBF1100F0ED1022D0CD0A9EBAB
:10C5F0000800801C80B20221CDE9001005AB524634
:10C600001E990D98FFF796FFBDF816101A988142F3
:10C6100003D9F74800790F9004E003D10A9808B1D4
:10C6200038702FE04FF00201CDE900190DF116032B
:10C6300052461E990D98FFF77DFF1D980088401BFC
:10C64000801B83B2C6F1FF00984200D203461E99B8
:10C650000BA8D9B15FF00002DDF878C0CDE9032066
:10C6600009EB060189B2CDE901C10F980090BDF830
:10C67000161000220D9801F0CBFB387070B1C0B2DB
:10C68000832807D0BDF8160020833AE00AEB0901A1
:10C690008A19E1E7022011B0BDE8F08FBDF82C0047
:10C6A000811901F0FF08022D0DD09AF801204245B2
:10C6B00006D1BDF82010814207D0B8F1FF0F04D099
:10C6C0009AF801801FE08AF80180C9480068017863
:10C6D000052902D1BDF81610818009EB08001FFA68
:10C6E00080F905EB080085B2DDE90C1005AB0F9A67
:10C6F00001F00EFB28B91D980088411B4145BFF68B
:10C7000071AF022D13D0BBF1100F0CD1A9EB0800B3
:10C71000801C81B20220CDE9000105AB52461E9972
:10C720000D98FFF707FF1D98058000203870002046
:10C73000B1E72DE9F8439C46089E13460027B26BEB
:10C740009AB3491F8CB2F18FA1F57F45FF3D05D00B
:10C750005518AD882944891D8DB200E0002529199E
:10C76000B6F83C800831414520D82A44BCF8011075
:10C7700022F8021BBCF8031022F8021B984622F88C
:10C78000024B914604F0A2FB4FF00C0C41464A4686
:10C790002346CDF800C003F08CFFF587B16B002075
:10C7A0002944A41D2144088003E001E0092700E09A
:10C7B00083273846BDE8F88310B50B88848F9C42E8
:10C7C0000CD9846BE018048844B1848824F40044B4
:10C7D000A41D23440B801060002010BD0A2010BD52
:10C7E0002DE9F0478AB00025904689468246ADF88B
:10C7F000185007274BE0059806888088000446D427
:10C80000A8F8006007A8019500970295CDE90350AC
:10C810004FF4007300223146504601F0F9FA04004B
:10C820003CD1BDF81800ADF8200005980488818837
:10C83000B44216D10A0414D401950295039521F44B
:10C8400000410097049541F48043428821465046B8
:10C8500001F0B4F804000BD10598818841F400413F
:10C86000818005AA08A94846FFF7A6FF0400DCD08E
:10C870000097059802950195039504950188BDF8E8
:10C880001C300022504601F099F80A2C06D105AA66
:10C8900006A94846FFF790FF0400ACD0ADF8185049
:10C8A00004E00598818821F40041818005AA06A949
:10C8B0004846FFF781FF0028F3D00A2C03D020461A
:10C8C0000AB0BDE8F0870020FAE710B50C46896B86
:10C8D00086B051B10C218DF80010A18FADF8081071
:10C8E000A16B01916946FAF734FC00204FF6FF7105
:10C8F000A063E187A08706B010BD2DE9F0410D4689
:10C900000746896B0020069E1446002911D0012B92
:10C910000FD1324629463846FFF762FF002808D17A
:10C92000002C06D0324629463846BDE8F04100F0DA
:10C9300038BFBDE8F0812DE9FC411446DDE9087CF3
:10C940000E46DDE90A15521DBCF800E092B296458C
:10C9500002D20720BDE8FC81ACF8002017222A7023
:10C96000A5F80160A5F803300522CDE900423B4659
:10C970002A46FFF7DFFD0020ECE770B50C461546B0
:10C980004821204618F087F904F1080044F81C0FEC
:10C9900000204FF6FF71E06161842084A584172098
:10C9A000E08494F82A0040F00A0084F82A0070BD60
:10C9B0004FF6FF720A800146032007F0B5BD30B57F
:10C9C00085B00C460546FFF780FFA18E284629B1A9
:10C9D00001218DF800106946FAF7BBFB0020E062E8
:10C9E0002063606305B030BDB0F8400070470000C0
:10C9F0005400002090F84620920703D44088088015
:10CA00000020F3E70620F1E790F846209207EDD5E5
:10CA1000A0F84410EAE70146002009880A0700D57B
:10CA2000012011F0F00F01D040F00200CA0501D53D
:10CA300040F004008A0501D540F008004A0501D500
:10CA400040F010000905D1D540F02000CEE700B538
:10CA5000034690F84600C00701D0062000BDA3F8A9
:10CA600042101846FFF7D7FF10F03E0F05D093F89D
:10CA7000460040F0040083F8460013F8460F40F0EB
:10CA800001001870002000BD90F84620520700D524
:10CA900011B1B0F84200A9E71720A7E710F8462F18
:10CAA00061F3C3020270A1E72DE9FF4F9BB00E00B6
:10CAB000DDE92B34DDE92978289D24D02878C107C9
:10CAC00003D000F03F00192801D9012100E0002126
:10CAD0002046FFF7D9FFB04215D32878410600F071
:10CAE0003F010CD41E290CD0218811F47F6F0AD18C
:10CAF0003A8842B1A1F57F42FF3A04D001E0122901
:10CB000001D1000602D504201FB0C5E5F9491D98E2
:10CB10004FF0000A08718DF818A08DF83CA00FAAFC
:10CB20000A60ADF81CA0ADF850A02978994601F034
:10CB30003F02701F5B1C04F1180C4FF0060E4FF003
:10CB4000040BCDF858C01F2A7ED2DFE802F07D7DAD
:10CB5000107D267DAC7DF47DF37DF27DF17DF47D4D
:10CB6000F07D7D7DEF7DEE7D7D7D7D7DED0094F81A
:10CB70004610B5F80100890701D5032E02D08DF8C3
:10CB800018B022E34FF40061ADF85010608003212B
:10CB90008DF83C10ADF84000D8E2052EEFD1B5F885
:10CBA00001002083ADF81C00B5F80310618308B1C3
:10CBB000884201D901207FE10020A07220814FF638
:10CBC000FF702084169801F0A0F8052089F8000075
:10CBD0000220029083460AAB1D9A16991B9801F019
:10CBE00097F890BB9DF82E00012804D0022089F808
:10CBF0000100102003E0012089F8010002200590C7
:10CC0000002203A90BA805F0D0FDE8BB9DF80C009D
:10CC1000059981423DD13A88801CA2EB0B018142EB
:10CC200037DB02990220CDE900010DF12A034A46C3
:10CC300041461B98FFF77EFC02980BF1020B801C0B
:10CC400080B217AA03A901E0A0E228E002900BA895
:10CC500005F0ABFD02999DF80C00CDE9000117AB82
:10CC60004A4641461B98FFF765FC9DF80C100AAB3D
:10CC70000BEB01001FFA80FB02981D9A084480B25A
:10CC8000029016991B9800E003E001F041F800289B
:10CC9000B6D0BBF1020F02D0A7F800B053E20A20D1
:10CCA0008DF818004FE200210391072EFFF467AFC3
:10CCB000B5F801002083ADF81C00B5F803206283AD
:10CCC00000283FF477AF90423FF674AF0120A07286
:10CCD000B5F8050020810020A073E06900F052FD46
:10CCE00078B9E16901208871E2694FF4205191809F
:10CCF000E1698872E06942F601010181E069002181
:10CD00008173F01F20841E9860620720608416984B
:10CD100000F0FBFF072089F800000120049002903A
:10CD20000020ADF82A0028E01DE2A3E13AE1EAE0A4
:10CD300016E2AEE086E049E00298012814D0E069EE
:10CD40008079012803D1BDF82800ADF80E000498C1
:10CD500003ABCDE900B04A4641461B98FFF7EAFB1A
:10CD60000498001D80B20490BDF82A00ADF80C00B4
:10CD7000ADF80E00059880B202900AAB1D9A169984
:10CD80001B9800F0C5FF28B902983988001D05904E
:10CD90008142D1D20298012881D0E06980790128AE
:10CDA00005D0BDF82810A1F57F40FF3803D1BDF8AC
:10CDB0002800ADF80E00049803ABCDE900B04A4658
:10CDC00041461B98FFF7B6FB0298BBE1072E02D045
:10CDD000152E7FF4D4AEB5F801102183ADF81C10E8
:10CDE000B5F80320628300293FF4E4AE91423FF698
:10CDF000E1AE0121A1724FF0000BA4F808B084F855
:10CE00000EB0052E07D0C0B2691DE26905F0AEFC78
:10CE100000287FF444AF4FF6FF70208401A906AAD2
:10CE200014A8CDF800B081E885032878214600F0E9
:10CE30003F031D9A1B98FFF795FB8246208BADF8A8
:10CE40001C0080E10120032EC3D14021ADF8501019
:10CE5000B5F801102183ADF81C100AAAB8F1000F33
:10CE600000D00023CDE9020304921D98CDF8048080
:10CE7000009038880022401E83B21B9800F0C8FF43
:10CE80008DF8180090BB0B2089F80000BDF8280031
:10CE900037E04FF0010C052E9BD18020ADF85000FB
:10CEA000B5F801102183B5F803002084ADF81C10FB
:10CEB000B0F5007F03D907208DF8180085E140F414
:10CEC0007C4222840CA8B8F1000F00D00023CDE9E9
:10CED0000330CDE9018C1D9800903888401E83B244
:10CEE0001B9800F095FF8DF8180028B18328A8D171
:10CEF0000220BDE0540000200D2189F80010BDF88B
:10CF00003000401C1EE1032E04D248067FF537AEE8
:10CF1000002017E1B5F80110ADF81C102878400684
:10CF200002D58DF83CE002E007208DF83C004FF080
:10CF300000080320CDE902081E9BCDF810801D9843
:10CF40000193A6F1030B00901FFA8BF342461B9846
:10CF500000F034FD8DF818008DF83C8029784906E2
:10CF60000DD52088C00506D5208BBDF81C10884241
:10CF700001D1C4F8248040468DF81880E2E083286F
:10CF800001D14FF0020A4FF48070ADF85000BDF8A7
:10CF90001C002083A4F820B01E98606203206084E7
:10CFA0001321CCE0052EFFF4EAADB5F80110ADF881
:10CFB0001C10A28F62B3A2F57F43FE3B28D008224B
:10CFC0008DF83C204FF0000B0523CDE9023BDDF846
:10CFD00078C0CDF810B01D9A80B2CDF804C040F4EE
:10CFE00000430092B5F803201B9800F0E7FC8DF891
:10CFF0003CB04FF400718DF81800ADF85010832844
:10D0000010D0F8B1A18FA1F57F40FE3807D0DCE049
:10D010000B228DF83C204FF6FE72A287D2E7A4F8CF
:10D020003CB0D2E000942B4631461E9A1B98FFF785
:10D0300080FB8DF8180008B183284BD1BDF81C0087
:10D04000208355E700942B4631461E9A1B98FFF724
:10D0500070FB8DF81800E8BBE18FA06B0844811DC0
:10D060008DE882034388828801881B98FFF763FC60
:10D07000824668E095F80180022E70D15FEA0800D0
:10D0800002D0B8F1010F6AD109208DF83C0007A841
:10D0900000908DF840804346002221461B98FFF700
:10D0A0002CFC8DF842004FF0000B8DF843B050B9C6
:10D0B000B8F1010F12D0B8F1000F04D1A18FA1F582
:10D0C0007F40FF380AD0A08F40B18DF83CB04FF4BC
:10D0D000806000E037E0ADF850000DE00FA91B982C
:10D0E000FAF737F882468DF83CB04FF48060ADF81F
:10D0F0005000BAF1020F06D0FC480068C07928B190
:10D100008DF8180027E0A4F8188044E0BAF1000F69
:10D1100003D081208DF818003DE007A80090434619
:10D12000012221461B98FFF7E8FB8DF818002146E5
:10D130001B98FFF7CAFB9DF8180020B9192189F840
:10D140000010012038809DF83C0020B10FA91B98E9
:10D15000F9F7FFFF8246BAF1000F33D01BE018E069
:10D160008DF818E031E02078000712D5012E10D19B
:10D170000A208DF83C00E088ADF8400003201B99A0
:10D1800007F0D2F90820ADF85000C1E648067FF557
:10D19000F6AC4FF0040A2088BDF8501008432080F8
:10D1A000BDF8500080050BD5A18FA1F57F40FE385A
:10D1B00006D11E98E06228982063A6864FF0030AE5
:10D1C0005046A1E49DF8180078B1012089F80000CC
:10D1D000297889F80110BDF81C10A9F802109DF8F3
:10D1E000181089F80410052038802088BDF85010E8
:10D1F00088432080E4E72DE9FF4F8846087895B002
:10D20000012181404FF20900249C0140ADF820101B
:10D210002088DDF88890A0F57F424FF0000AFF3AA1
:10D2200006D039B1000705D5012019B0BDE8F08F4F
:10D230000820FAE7239E4FF0000B0EA886F800B0F6
:10D2400018995D460988ADF83410A8498DF81CB0CE
:10D25000179A0A718DF838B0086098F80000012814
:10D260003BD0022809D003286FD1307820F03F004E
:10D270001D303070B8F80400E08098F800100320EA
:10D28000022904D1317821F03F011B31317094F82B
:10D290004610090759D505ABB9F1000F13D000218D
:10D2A00002AA82E80B000720CDE90009BDF834008E
:10D2B000B8F80410C01E83B20022159800F0A8FD33
:10D2C0000028D1D101E0F11CEAE7B8F80400A6F883
:10D2D0000100BDF81400C01C04E198F805108DF899
:10D2E0001C1098F80400012806D04FF4007A022898
:10D2F0002CD00328B8D16CE12188B8F8080011F4CB
:10D300000061ADF8201020D017281CD3B4F84010CD
:10D31000814218D3B4F84410172901D3814212D1A5
:10D32000317821F03F01C91C3170A6F801000321BA
:10D33000ADF83410A4F8440094F8460020F0020040
:10D3400084F8460065E105257EE177E1208808F153
:10D35000080700F4FE60ADF8200010F0F00F1BD0BD
:10D3600010F0C00F03D03888228B9042EBD199B9CE
:10D37000B878C00710D0B9680720CDE902B1CDF860
:10D3800004B00090CDF810B0FB88BA8839881598A1
:10D3900000F014FB0028D6D12398BDF82010401CC3
:10D3A00080294ED006DC10290DD020290BD0402931
:10D3B00087D124E0B1F5807F6ED051457ED0B1F5A4
:10D3C000806F97D1DEE0C80601D5082000E010206C
:10D3D00082460DA907AA0520CDE902218DF8380063
:10D3E000ADF83CB0CDE9049608A93888CDE9000134
:10D3F0005346072221461598FFF7B4F8A8E09DF898
:10D400001C2001214FF00A0A002A9BD105ABB9F17B
:10D41000000F00D00020CDE902100720CDE900095F
:10D42000BDF834000493401E83B2218B002215986E
:10D4300000F0EEFC8DF81C000B203070BDF81400DD
:10D4400020E09DF81C2001214FF00C0A002A22D177
:10D4500013ABB9F1000F00D00020CDE90210072076
:10D46000CDE900090493BDF83400228C401E83B23C
:10D47000218B159800F0CCFC8DF81C000D2030702D
:10D48000BDF84C00401CADF8340005208DF8380084
:10D49000208BADF83C00BCE03888218B88427FF4BB
:10D4A00052AF9DF81C004FF0120A00281CD1606A90
:10D4B000A8B1B878C0073FF446AF00E018E0BA68FA
:10D4C0000720CDE902B2CDF804B00090CDF810B03D
:10D4D000FB88BA88159800F071FA8DF81C001320AB
:10D4E00030700120ADF8340093E0000054000020BB
:10D4F0003988208B8142D2D19DF81C004FF0160A4A
:10D500000028A06B08D0E0B34FF6FF7000215F4603
:10D51000ADF808B0019027E068B1B978C907BED16D
:10D52000E18F0DAB0844821D03968DE80C02438801
:10D530008288018809E0B878C007BCD0BA680DAB12
:10D5400003968DE80C02BB88FA881598FFF7F3F96B
:10D5500005005ED0072D72D076E0019005AA02A9E1
:10D560002046FFF729F90146E28FBDF80800824204
:10D5700001D00029F1D0E08FA16B08440780019809
:10D58000E08746E09DF81C004FF0180A40B1208B60
:10D59000C8B13888208321461598FFF796F938E0FE
:10D5A00004F118000090237E012221461598FFF710
:10D5B000A4F98DF81C000028EDD11920307001204D
:10D5C000ADF83400E7E7052521461598FFF77DF90A
:10D5D0003AE0208800F40070ADF8200050452DD1CD
:10D5E000A08FA0F57F41FE3901D006252CE0D8F8A8
:10D5F00008004FF0160A48B1A063B8F80C10A187D4
:10D600004FF6FF71E187A0F800B002E04FF6FF701F
:10D61000A087BDF8200030F47F611AD07823002263
:10D620000320159906F0D6FE98F800002071208896
:10D63000BDF82010084320800EE000E00725208878
:10D64000BDF8201088432080208810F47F6F1CD004
:10D650003AE02188814321809DF8380020B10EA94D
:10D660001598F9F776FD05469DF81C000028EBD0CB
:10D6700086F801A001203070208B70809DF81C007E
:10D6800030710520ADF83400DEE7A18EE1B11898C5
:10D690000DAB0088ADF834002398CDE90304CDE943
:10D6A0000139206B0090E36A179A1598FFF7FCF98F
:10D6B000054601208DF838000EA91598F9F749FDA7
:10D6C00000B10546A4F834B094F8460040070AD5E6
:10D6D0002046FFF7A0F910F03E0F04D114F8460FD2
:10D6E00020F0040020701898BDF8341001802846FE
:10D6F0009BE500B585B0032806D102208DF8000017
:10D7000088B26946F9F725FD05B000BD10B5384C63
:10D710000B782268012B02D0022B2AD111E013785A
:10D720000BB1052B01D10423137023688A889A80DA
:10D730002268CB88D38022680B8913814989518163
:10D740000DE08B8893802268CB88D38022680B8978
:10D7500013814B8953818B899381096911612168F8
:10D76000F9F7F7FC226800210228117003D0002885
:10D7700000D0812010BD832010BD806B002800D018
:10D78000012070478178012909D10088B0F5205F18
:10D7900003D042F60101884201D1002070470720E2
:10D7A0007047F0B587B0002415460E460746ADF821
:10D7B000144010E0069801882980811DCDE90241BE
:10D7C0000721019404940091838842880188384697
:10D7D00000F0F4F830B906AA05A93046FEF7ECFFD0
:10D7E0000028E7D00A2800D1002007B0F0BD0000D3
:10D7F0005400002010B58B7883B102789A4205D18D
:10D800000B885BB102E08B79091D4BB18B789A4292
:10D81000F9D1B0F801300C88A342F4D1002010BD3A
:10D82000812010BD072826D012B1012A27D103E09C
:10D83000497801F0070102E04978C1F3C2010529E6
:10D840001DD2DFE801F00318080C12000AB1032012
:10D8500070470220704704280DD250B10DE0052812
:10D8600009D2801E022808D303E0062803D003282B
:10D8700003D005207047002070470F20704781209B
:10D880007047C0B282060BD4000607D5FE48807AE6
:10D890004143C01D01EBD00080B27047084670477D
:10D8A0000020704770B513880B800B781C0625D5B7
:10D8B000F54CA47A844204D843F01000087000208C
:10D8C00070BD956800F0070605EBD0052D78F54092
:10D8D00065F304130B701378D17803F0030341EA66
:10D8E000032140F20123B1FBF3F503FB151192680C
:10D8F000E41D00FB012000EBD40070BD906870BDFA
:10D9000037B51446BDF8041011809DF804100A06BE
:10D910001ED5C1F30013DC49A568897A814208D875
:10D92000FE2811D1C91DC9085A42284617F089F9A5
:10D930000AE005EBD00100F00702012508789540C8
:10D94000A843934018430870207820F010002070FE
:10D950003EBD2DE9F0410746C81C0E4620F00300ED
:10D96000B04202D08620BDE8F081C74D0020344689
:10D970002E60AF802881AA72E8801AE0E988491CED
:10D98000E980810614D4E17800F0030041EA002028
:10D9900040F20121B0FBF1F201FB12012068FFF718
:10D9A00070FF2989084480B22881381A3044A06069
:10D9B0000C3420784107E1D40020D4E72DE9FF4F53
:10D9C00089B01646DDE9168A0F46994623F440458C
:10D9D000084600F00DFB04000FD0099803F00AF987
:10D9E0000290207800060AD5A748817A02988142E1
:10D9F00005D887200DB0BDE8F08F0120FAE7224658
:10DA000001A90298FFF74EFF834600208DF80C0015
:10DA10004046B8F1070F1AD001222146FFF702FF56
:10DA20000028E7D12078400611D502208DF80C009F
:10DA3000ADF81070BDF80400ADF81200ADF8146038
:10DA40001898ADF81650CDF81CA0ADF818005FEA94
:10DA5000094004D500252E46A84601270CE0217870
:10DA6000E07801F0030140EA012040F20121B0FB1F
:10DA7000F1F2804601FB12875FEA494009D5B845BB
:10DA800007D1A178207901F0030140EA0120B042DA
:10DA900001D3BE4201D90720ACE7A8191FFA80F9CB
:10DAA000B94501D90D20A5E79DF80C0028B103A9BF
:10DAB0000998F9F74CFB00289CD1B84507D1A0780C
:10DAC0004FEA192161F30100A07084F804901A98BC
:10DAD00000B10580199850EA0A0027D0199830B192
:10DAE0000BEB06002A46199917F034F80EE00BEB01
:10DAF00006085746189E099803F0E8F92B46F61DCC
:10DB0000B5B239464246009502F0D3FD224601A93E
:10DB10000298FFF7C7FE9DF80400224620F010008F
:10DB20008DF80400DDE90110FFF7EAFE002061E74F
:10DB30002DE9FF4FDFF8509182461746B9F80610DD
:10DB4000D9F8000001EB410100EB810440F2012013
:10DB5000B2FBF0F185B000FB11764D46DDF84C804C
:10DB600031460698FFF78DFE29682A898B46611A8F
:10DB70000C3101441144AB8889B28B4202D8842015
:10DB800009B038E70699CDB2290603D5A90601D513
:10DB90000620F5E7B9F806C00CF1010C1FFA8CFC61
:10DBA000A9F806C0149909B1A1F800C0A90602D5C8
:10DBB000C4F8088007E0104480B2A9F80800191AD8
:10DBC00001EB0B00A0602246FE200699FFF798FEAD
:10DBD000E77026712078390A61F30100320AA178D2
:10DBE00040F0040062F30101A17020709AF8020075
:10DBF0006071BAF80000E08000262673280602D57E
:10DC000099F80A7000E00127A80601D54FF0000836
:10DC10004D4600244FF007090FE0CDE90268019658
:10DC2000CDF800900496E9882046129B089AFFF7E9
:10DC3000C5FE0028A4D1641CE4B2BC42EDD3002090
:10DC40009EE72DE9F047804600F0D2F9070005D0A5
:10DC5000002644460C4D40F2012919E00120BDE8A0
:10DC6000F087204600F0C4F90278C17802F0030280
:10DC700041EA0222B2FBF9F309FB13210068FFF726
:10DC800000FE304486B201E0E8050020641CA4B226
:10DC9000E988601E8142E4DCA8F10100E88028895F
:10DCA000801B288100203870D9E710B5144631B1A7
:10DCB000491E218002F09EFFA070002010BD0120AF
:10DCC00010BD10B5D24904460088CA88904201D3DD
:10DCD0000A2010BD096800EB400001EB800250797A
:10DCE000A072D08820819178107901F0030140EA78
:10DCF0000120A081A078E11CFFF7D4FD20612088DD
:10DD0000401C2080E080002010BD0121018270476E
:10DD10002DE9FF4F85B04FF6FF788246A3F80080CB
:10DD200048681F460D4680788DF8060048680088D0
:10DD3000ADF8040000208DF80A00088A0C88A04283
:10DD400000D304462C8241E0288A401C2882701DA2
:10DD50006968FFF74FFDB8BB3988414501D1601EA6
:10DD600038806888A04236D3B178307901F0030159
:10DD700040EA012901A9701DFFF73CFD20BB29895C
:10DD800041452CD0002231460798FFF74BFDD8B90A
:10DD90002989494518D1E9680391B5F80AC0D6F830
:10DDA00008B05046CDF800C003F090F8DDF800C090
:10DDB0005A460CF1070C1FFA8CFC4B460399CDF820
:10DDC00000C002F040FC50B1641CA4B2204600F038
:10DDD0000FF90600B8D1641E2C820A20D0E67C80A0
:10DDE0007079B871F088B8803178F07801F003016B
:10DDF00040EA01207881A7F80C90504602F0FAFE24
:10DE0000324607F10801FFF74DFD38610020B7E603
:10DE10002DE9FF4F87B081461C469246DDF860B081
:10DE2000DDF85480089800F0E3F805000CD048466F
:10DE300002F0E0FE2978090608D57549897A814201
:10DE400004D887200BB0D6E50120FBE7CAF309060A
:10DE50002A4601A9FFF726FD0746149807281CD07B
:10DE600000222946FFF7DEFC0028EBD12878400687
:10DE700013D501208DF808000898ADF80C00BDF806
:10DE80000400ADF80E00ADF81060ADF8124002A924
:10DE90004846F9F75CF90028D4D12978E87801F0F0
:10DEA000030140EA0121AA78287902F0030240EA3E
:10DEB0000220564507D0B1F5007F04D9611E81428A
:10DEC00001DD0B20BEE7864201D90720BAE7801B9F
:10DED00085B2A54200D92546BBF1000F01D0ABF8B1
:10DEE0000050179818B1B9192A4616F033FEB8F148
:10DEF000000F0DD03E4448464446169F02F0F8FFFE
:10DF00002146FF1DBCB232462B46009402F005FCB0
:10DF1000002097E72DE9F04107461D4616460846C2
:10DF200000F066F804000BD0384602F063FE21785A
:10DF3000090607D53649897A814203D8872012E538
:10DF4000012010E522463146FFF7ACFC65B121788F
:10DF5000E07801F0030140EA0120B0F5007F01D82C
:10DF6000012000E0002028700020FCE42DE9F041B1
:10DF700007461D461646084600F03AF804000BD046
:10DF8000384602F037FE2178090607D52049897AFC
:10DF9000814203D88720E6E40120E4E422463146AA
:10DFA000FFF7AEFCFF2D14D02178E07801F00302DA
:10DFB00040EA022040F20122B0FBF2F302FB130020
:10DFC00015B900F2012080B2E070000A60F301018F
:10DFD00021700020C7E410B50C4600F009F828B104
:10DFE000C18821804079A070002010BD012010BDA3
:10DFF0000749CA88824209D340B1096800EB400052
:10E000006FF00B0202EB800008447047002070475D
:10E01000E805002070B50346002002466FF02F058A
:10E020000EE09C5CA4F130060A2E02D34FF0FF30C4
:10E0300070BD00EB800005EB4000521C2044D2B2C2
:10E040008A42EED370BD30B50A240AE0B0FBF4F387
:10E0500004FB13008D18303005F8010C521E1846D1
:10E06000D2B2002AF2D130BD30B500234FF6FF7591
:10E0700010E0040A44EA002084B2C85C6040C0F3A7
:10E080000314604005EA00344440E0B25B1C84EABB
:10E0900040109BB29342ECD330BD000010B582B06B
:10E0A000694601F07CFF002818BFFFDF9DF80000E3
:10E0B000002448B1019890F8DD0028B1019880F85B
:10E0C000DD4001980AF0F1FAF8488068A0F8D240E3
:10E0D00002B010BD2DE9F04704460D46062002F0BF
:10E0E0006BFD0646072002F067FD304400F0FF0894
:10E0F000002718EB050618BF4FF000091DD0208837
:10E10000401C80B22080B04228BFA4F8009025882F
:10E11000454501D3B54209D30621284602F0A4FDA6
:10E1200020B90721284602F09FFD10B10020BDE86C
:10E13000F087781CC7B2BE42E1D84FF6FF7020804E
:10E140001220BDE8F08770B582B007F057FC0DF0E3
:10E150007FFBD74C4FF6FF7600256683A683D5A1BB
:10E160002570D1E90001CDE9000165706946A01C68
:10E1700016F0A6FEA11C601C14F073FC25721B2077
:10E1800060814FF4A471A181E08121820321A174F7
:10E190000422E274A082E082A4F13E002183057093
:10E1A0004680C6480570A4F110000570468002B094
:10E1B00070BDF8B5BD4D17460E466860297007F072
:10E1C00097FB4FF6FF70ADF8000000216846FFF79F
:10E1D00081FFA0B90621BDF8000002F057FD0446FA
:10E1E0000721BDF8000002F051FD002C1CBF0028E3
:10E1F000FFDF00216846FFF76DFF0028EAD0FFF738
:10E20000A2FF287812F03CFC10F034F829786868F6
:10E2100014F039FB28780CF01FFD30460AF051F954
:10E2200007F004FD297868680BF094FB39462878DC
:10E2300015F0F5F9BDE8F8400DF00ABB10B5012462
:10E24000002A1CBF002010BD002908BF022105D0F4
:10E25000012918BF002401D0204610BD0FF02EF96F
:10E26000FAE72DE9F04F8BB0040008BFFFDF022171
:10E270008F4E06F11C00FFF72DFF002818BFFFDFAF
:10E28000B6F81CA0062002F097FC0546072002F015
:10E2900093FC284400F0FF0808F1010000F0FF099A
:10E2A0004FF0000BB78B474525D120460FF0C8FA39
:10E2B000002840F0CE803078002800F0CE8084F82E
:10E2C00001B014202070C4F804B0C4F808B0C4F839
:10E2D0000CB0C4F810B0C4F814B0C4F818B0C4F846
:10E2E0001CB00220C4F820B0207186F800B00BB03A
:10E2F0000120BDE8F08F4F4520D1204607F030FCCB
:10E3000000287DD008F032F8002859D0207817284E
:10E3100056D12079002853D0E088072102F0A4FCD0
:10E32000050008BFFFDF288807F0FBFAE088072117
:10E3300002F0ACFC002818BFFFDF8AE004A93846D1
:10E3400001F02DFE00285BD19DF8100048B107F0C8
:10E3500062FCB84254D0214638460BF004FA80B330
:10E3600077E00FF000FBB84277D02146384614F032
:10E37000ABF900286DD1059800F1580590F8D00050
:10E3800018B9E87E08B1012000E00020079095F858
:10E39000370000281CBF95F8380010F0020F1CD081
:10E3A00084F801B00120207084F804B0E78095F86B
:10E3B00039002072688F6081A88FA08185F837B0FE
:10E3C00047E0FFE7059800F1580590F80C01002898
:10E3D000DBD1E87E0028D8D0D5E7384602F088FDAA
:10E3E0000290002808BFFFDF029801F097FF50B1AC
:10E3F00084F801B00F212170E7802081012000E026
:10E400002BE0207125E0384602F060FD02900028E4
:10E4100008BFFFDF079800B3029801F0D6FFE0B114
:10E420009DF8100038B90598D0F8F8004188B94235
:10E4300008BF80F800B0384607F073FA84F801B0DE
:10E440000C20207084F804B0E780287F207285F8C3
:10E450001BB00BB00120BDE8F08F022106F11C00BB
:10E46000FFF738FE18B9B08B50457FF41BAF0BB0E7
:10E470002046BDE8F04F15F018B910B513F08CF830
:10E48000042803D013F088F8052802D110F00FF902
:10E4900028B90AF0EBFA20B107F08AFD08B10C2088
:10E4A00010BD0DF021FA002010BD00005C0000201E
:10E4B00032060020FFFFFFFF1F0000006800002061
:10E4C00010B50446007800281EBF0128122010BD98
:10E4D00013F062F8042806D013F05EF8052802D085
:10E4E0000AF0C4FA28B10DF04EFB00281CBF0C2026
:10E4F00010BD2078002816BF02280020012004F15A
:10E500001703E21D611CBDE810400DF045BA10B5BF
:10E510000446007800281EBF0128122010BD13F009
:10E520003BF8042803D013F037F8052802D110F087
:10E53000BEF828B90AF09AFA20B107F039FD08B1FF
:10E540000C2010BD2078002816BF022800200120D2
:10E55000611C0DF08FF9002814BF0020072010BDAA
:10E5600010B50DF013FB002814BF0020302010BDA3
:10E5700010B5044613F010F8042806D013F00CF878
:10E58000052802D00AF072FA08B10C2010BD20460E
:10E590000DF0F6FA002010BD10B512F0FDFF0428B2
:10E5A00006D012F0F9FF052802D00AF05FFA28B170
:10E5B0000DF0E9FA00281CBF0C2010BD0DF045FA43
:10E5C000002010BDFF2181704FF6FF718180FE4950
:10E5D00049680A7882718A880281498841810121CB
:10E5E00041700020704710B5002482B0022A18D074
:10E5F00014DC12F10C0F14D008DC12F1280F1CBF30
:10E6000012F1140F12F1100F11D10AE012F1080FDC
:10E610001CBF12F1040F002A09D102E0D31E052B02
:10E6200005D8012807D0022809D003280BD01224CE
:10E6300002B0204610BD104607F093FEF8E71046E2
:10E640000FF0D4FDF4E708461446694601F0A7FC34
:10E65000002818BF0224EBD19DF80000019880F833
:10E6600057400024E4E710B5134601220EF029F9C3
:10E67000002010BD10B5044612F08EFF052804BF1F
:10E680000C2010BD204612F0E9F9002010BD10B595
:10E69000044612F081FF042806D012F07DFF052801
:10E6A00002D00AF0E3F908B10C2010BD2146002089
:10E6B00007F0A5F9002010BD10B5044612F078FA55
:10E6C00050B10AF0C6F938B1207809F01EFF207861
:10E6D00010F026F8002010BD0C2010BD10B5044627
:10E6E00012F05AFF042806D012F056FF052802D077
:10E6F0000AF0BCF908B10C2010BD2146012007F03A
:10E700007EF9002010BD38B504464FF6FF70ADF815
:10E710000000A079E179884213D021791F299CBF9C
:10E7200061791F290DD80022114615F0B1FB40B9BF
:10E730000022E079114615F0ABFB10B9207A0728CA
:10E7400001D9122038BD0AF091F960B912F024FF06
:10E7500048B900216846FFF7BDFC20B1204606F00D
:10E760007CF9002038BD0C2038BD70B50446807897
:10E77000002582B01A2825D00EDC162844D2DFE806
:10E7800000F0434343434321434343434343434311
:10E7900043434343432121212A2835D00BDCA0F1F8
:10E7A0001E000C2830D2DFE800F02F2F2F2F2F2F44
:10E7B0002F2F2F2F2F0D3A38042825D2DFE800F015
:10E7C000240224022088B0F5706F1DD2012669460C
:10E7D00001F0E5FB00281EBF022002B070BD9DF8CD
:10E7E0000000002801980BBF00F1F40100F5B8719A
:10E7F00000F1F50300F27113024612D192F8D00035
:10E8000092F8732052B903E002B04FF0120070BDCD
:10E81000002818BF042801D0087868B102B00C2085
:10E8200070BD92F80C0192F87320002AF6D10028EE
:10E8300018BF0428F0D1F1E70E70A07818709DF889
:10E84000000048B1019890F8DD0028B1019880F8E7
:10E85000DD50019809F029FF02B0002070BDF0B52D
:10E8600083B00C46694601F09AFB28B1204616F0A9
:10E8700011FB03B00220F0BD0198002700F15805FC
:10E8800000F1080685F840703146204616F018FB66
:10E8900095F840000028F5D103B0F0BD2DE9F04116
:10E8A000044691F8550091F856300D4610F00C0FC3
:10E8B0004FF0000608BF00232189A0880EF068F9F8
:10E8C000696A814228BFBDE8F081401A401C4108B6
:10E8D000A0886FF00E07401A80B2A08022896FF0E6
:10E8E0000D0C511A8BB2238195F85410628811F0E7
:10E8F0000C0F28D0B0F5747F38BF304606D350389F
:10E90000C11700EB91600CEBA01080B2824238BFBF
:10E910001046608095F85510E08811F00C0F1BD060
:10E92000B3F5747F38BF324607D3A3F15001CA173D
:10E9300001EB92610CEBA1118AB2904228BF104604
:10E94000E080BDE8F08102291ABF0CEBD00080B254
:10E9500007EB9000DAD1D8E702291ABF0CEBD301FC
:10E960008AB207EB9301E8D1E6E7F0B587B00C4631
:10E97000054604A901F013FB00281CBF07B0F0BD39
:10E980009DF81000002814BF002201220599B1F85B
:10E990004A30FB2B28BFFB23B1F84CC0BCF1FB0F66
:10E9A00028BF4FF0FB0C094FD7E90006BF68009065
:10E9B00001960297ADF80230ADF806C06846FFF741
:10E9C0006DFF658004E000005C000020E450020060
:10E9D000BDF80400E080BDF808006081BDF80200C9
:10E9E000A080BDF80600208107B00020F0BD2DE911
:10E9F000F04788B004460088694601F0D0FA070065
:10EA00001CBF08B0BDE8F087B4F806C02289ACF19D
:10EA10001B011220E12924BF08B0BDE8F087B2F540
:10EA2000A47F3CBF08B0BDE8F08744F29025AA421D
:10EA300084BF08B0BDE8F08700266388A188A3F1F1
:10EA40001B08B8F1E10F24BF08B0BDE8F087B1F5AD
:10EA5000A47F27BF8846454508B0BDE8F087112050
:10EA6000BCF1FB0F92BFB2F5296F08B0BDE8F0878B
:10EA7000FB2B92BFB1F5296F08B0BDE8F087208865
:10EA800006A901F08CFA002818BFFFDF35D19DF8E8
:10EA9000180000280CBF012200220799B1F84A0093
:10EAA000FB2828BFFB20B1F84C30FB2B28BFFB23F1
:10EAB000DFF834AADAF800C0DAF80490DAF808A02F
:10EAC000CDF808C0CDF80C90CDF810A0ADF80A0034
:10EAD000ADF80E3002A8FFF7E1FEBDF80C0060F3C0
:10EAE0001F45BDF8100060F31F48BDF80A0060F331
:10EAF0000F05BDF80E0060F30F0862881FFA88F159
:10EB0000092091423CBF08B0BDE8F087A9B2E28875
:10EB100091423CBF08B0BDE8F0874FEA1841A28897
:10EB2000238901EB15411A4491423CBF08B0BDE86E
:10EB3000F0879DF800004FF001090028019840F689
:10EB4000480808D000F5CD7580F89B91019890F8A1
:10EB5000DE0140B307E000F5827580F80591019869
:10EB600090F8280108B13A2718E0E08868806088AA
:10EB7000E8802089A880A088288101222846019960
:10EB8000FFF78CFEA888404528BF40F64800A880C3
:10EB9000288940451DD2288185F800906E7008B004
:10EBA0003846BDE8F087E08868806088E880208982
:10EBB000A880A0882881002228460199FFF76EFED0
:10EBC000A888404528BF40F64800A88028894045CD
:10EBD000E1D340F64800DEE709E710B5044612F03D
:10EBE000DBFC042806D012F0D7FC052802D009F07F
:10EBF0003DFF28B10CF0C7FF00281CBF0C2010BD42
:10EC00002078002816BF022800200120E279611C2C
:10EC10000DF03DF9002814BF0020022010BD2DE9A1
:10EC2000F04383B006460088694601F0B8F9070052
:10EC30001CBF03B0BDE8F083B088002818BF0128CE
:10EC400005D002281EBF122003B0BDE8F083E946BC
:10EC5000B17800290CBF07250D46F07800280CBFBD
:10EC60000724044615F0040F16BF002900210121D6
:10EC700014F0040F16BF00280020012001424FF0BD
:10EC800009080AD001221146484601F0A0F90028DF
:10EC900038D003B04046BDE8F08381B100220121A5
:10ECA000484601F094F90028F3D114F0040F29D05C
:10ECB00001221146484601F08AF918B343E080B1B9
:10ECC00001220021484601F082F90028E1D115F027
:10ECD000040F17D001221146484601F078F988B197
:10ECE00025E015F0040F04F0040023D0C0B1012288
:10ECF0001146484601F06BF900281CBF25F00405B9
:10ED000024F0040400219DF800200120002A019A2B
:10ED10001CD082F8A501019A92F8F221BAB33FE023
:10ED200000220121484601F052F90028EAD025F0DE
:10ED30000405E7E70028E5D001220021484601F05C
:10ED400046F90028DED024F00404DBE782F80F0146
:10ED5000019A92F834213AB9019A92F80E211AB91F
:10ED6000019A92F87D200AB13A270CE0019A82F8C4
:10ED70000E01019880F81051019880F81141019A14
:10ED8000B088A2F81201019880F80F111AE0FFE78D
:10ED9000019A92F8A4211AB9019A92F87D200AB139
:10EDA0003A270CE0019A82F8A401019880F8A65154
:10EDB000019880F8A741019AB088A2F8A8010198AB
:10EDC00080F8A51103B03846BDE8F083817831F0B2
:10EDD000070107BFC17831F00701122070471EE715
:10EDE00002781221012A18BF002A05D0022A18BF72
:10EDF000032A01D0084670474278002A18BF012A2A
:10EE000003D0022A18BF032AF4D1C27B12B9827838
:10EE1000012AEFD1837833F00502EBD113F0050F0F
:10EE2000E8D030B4C278C488B0F80AC0002A18BF4D
:10EE3000012A04D1042C28BFBCF1040F02D230BC3B
:10EE400008467047052B07D0827B002AF7D0072A97
:10EE5000F5D830BC01F0D6B80279B0F808C0838983
:10EE6000002A18BF012AEAD1BCF1040F28BF042BE5
:10EE7000E5D3E9E710B5044602781220012A0FD045
:10EE8000002A18BF10BD012A26D012F085FB0528E4
:10EE900004D011F01AFD002808BF10BD0C2010BDD1
:10EEA0006178002918BF012906D0022918BF10BDBA
:10EEB000A188002908BF10BD6388002B1CBFA18852
:10EEC0000029E0D003EB83035B0001EB8101B3EB8E
:10EED000012F28BF10BDD6E70FF015FB002804BF97
:10EEE000122010BD0FF035FB00200FF0CEFB0028E4
:10EEF00018BF10BD60780FF0BAFB002818BF10BD16
:10EF0000A1886088BDE8104011F0A0BE427A12F0DE
:10EF1000070F0FD032F007030CD1012A18BF022AC5
:10EF200003D0042A1CBF1120704790F83A301BB957
:10EF3000012A01D0122070472DE9F00F4FF0000C8C
:10EF400012F0010F40F6774640F67B4337D069B1A7
:10EF50004489B0F810C0271F43F6FD75AF423CBF8F
:10EF6000ACF10407AF4226D2644524D3C78AB0F877
:10EF70001CC0458C048DB0F82E80B0F83490A7F1F9
:10EF8000060A9A453CBFACF1060A9A4513D267457A
:10EF900098BFB5F5FA7F3CBFA4F10A07B7420AD281
:10EFA0006D1C05FB0CFCBCEB840F04DAC84598BF54
:10EFB0004FF0010C03D9BDE8F00F3020704712F07C
:10EFC000020F27D000EB4C04B4F81690A58BB4F8D0
:10EFD0002280278DB4F82EA0A48EA9F1060B5B45E4
:10EFE00084BFA5F1060B5B45E5D9A94598BFB8F5E7
:10EFF000FA7F3CBFA7F10A09B145DCD208F101084C
:10F0000008FB05F5B5EB870FD5DAA24598BF0CF1E3
:10F01000010CD0D812F0040F22D000EB4C02D78A9A
:10F02000B2F81CC0558C148DB2F82E80928EA7F1C8
:10F0300006094B4584BFACF106094B45BBD9674572
:10F0400098BFB5F5FA7F3CBFA4F10A03B342B2D230
:10F050006B1C03FB0CF3B3EB840FACDA9045AAD81E
:10F0600002782AB1012A13D0BDE8F00F12207047B0
:10F070000029817808D0002918BF012908D0022969
:10F0800018BF032904D0EFE7002918BF0129EBD1ED
:10F090004078002818BF012803D0022818BF032891
:10F0A000E2D1BDE8F00F0020704700212EE7017883
:10F0B00011F0010F02D0406814F0CABA14F097BAE8
:10F0C0002DE9F04F91B00D460246AFF61841D1E957
:10F0D0000001CDE90E0111462846FFF717FF060093
:10F0E0001CBF11B0BDE8F08F12F056FA04280CD006
:10F0F00012F052FA052808D0FC4F387828B90EF0E3
:10F1000032FCA0F57F41FF3903D011B00C20BDE8DF
:10F11000F08FF7480B90F7480C90F7480D900BAA2A
:10F12000062110A801F06EFD040002BF092011B0F5
:10F13000BDE8F08F03210DF02EF9EC48818AA4F888
:10F140004A10C28AA4F84C20C37C0093837C208898
:10F1500001F045FE002818BFFFDF208806F0E0FB25
:10F16000278804F10E094FF0000B4FF00A0A042122
:10F17000484604F000FF48460DF0DFFA062001F093
:10F180001BFD80461DE005A9062001F0F6FC05A840
:10F1900001F0D1FC5FEA000B11D100BFBDF81800EF
:10F1A000B84206D00798042249460E3015F0A6FC56
:10F1B00070B105A801F0BFFC5FEA000BEED0A8F12A
:10F1C0000108B8F1000F07DDBBF1000FDBD007E04D
:10F1D00048460DF0BBFAF2E7BBF1000F08BFFFDFB6
:10F1E000D9F800000DF0CDFABAF1010A01D00028DB
:10F1F000BDD0C2A004F1120700680190032101A84C
:10F2000004F090FE002001A90A5C3A54401CC0B2F0
:10F210000328F9D3A88B6080688CA080288DE080BB
:10F22000687A10F0040F18BF08277CD0DFF8BC8282
:10F230003A461146B8F8180011F071FD0146A06277
:10F24000204611F0AFFD17F00C0F09D001231A462C
:10F25000214600200DF0A5FC616A884288BF09267E
:10F260004FF0000984F85E9084F85F90A878002839
:10F2700016BF0228002001206076D5F80300C4F8EC
:10F280001A00B5F80700E0830EA904F1080015F094
:10F2900017FE4FF0010A84F800A1CDF81CA0B4F8C5
:10F2A0004C0004F58277FB2828BFFB20B8F80A1031
:10F2B000814238BF084694F855104FF4747C11F021
:10F2C0000C0F1CBF0CEB80118AB26BD0B8F80C107D
:10F2D000914238BF0A46B4F84A10FB2928BFFB21E7
:10F2E000B8F80E308B4238BF194694F854B01BF072
:10F2F0000C0F1CBF0CEB81139BB25BD0B8F810C095
:10F300009C4538BF63461B2918BFB3F5A47F5AD06C
:10F31000F8803A817980BB8021463846079AFFF70A
:10F32000BDFAB88800E031E040F64801884228BFC5
:10F3300040F64800B8803889884228BF40F6480027
:10F34000388187F800A000BF8DF800900121684641
:10F3500004F0E8FD9DF8000000F00701C0F3C102D1
:10F360001144C0F3401008448DF80000401D207681
:10F3700009283CBF08302076002120460DF00BF80C
:10F3800068780FF0CBF8002E74D122E010F0010F56
:10F3900018BF01277FF44AAF10F0020F14BF0227F5
:10F3A000002743E7022907BF81003C31C1007031CB
:10F3B0008AB28BE7BBF1020F07BF8B003C33CB0057
:10F3C00070339BB29AE71B2818BFB2F5A47F9FD178
:10F3D000BAE7A9782878EA1C0FF073F8002808BF6C
:10F3E000122647D00FF0B5F8A9782878EA1C0FF05C
:10F3F00018F906003ED1687A10F0040F14BF0820F7
:10F4000001200FF053F8060034D1214603200FF0FD
:10F4100032F906002ED1697A8DF80010697A11F060
:10F42000010F06D06889ADF80200288AADF8040003
:10F430000120697A11F0020F18BF401C11F0040F6F
:10F4400007D005EB40004189ADF80610008AADF801
:10F450000800684611F0B9FB064695F83A00002806
:10F4600018BF01200FF028F826B9204611F047FBFD
:10F47000060009D0208806F054FA2088062101F001
:10F4800005FC002818BFFFDF304611B0BDE8F08F43
:10F490000146002014E638B5144C207870B912F0FB
:10F4A0007BF8052805D00EF05EFAA0F57F41FF3904
:10F4B00004D0684611F005FC10B113E00C2038BDF3
:10F4C0000098008806F02DFA00980621008801F0C7
:10F4D000DDFB002818BFFFDF0120207008480078FE
:10F4E000FCF788FC002038BDE45002003206002002
:10F4F000F4050020680000202206002011223300BD
:10F500005C00002070B4B0F802C08188C388028912
:10F5100044898089ACF1060640F67B45AE423CBF8B
:10F520008E1FAE4214D28C4598BFB3F5FA7F3EBF12
:10F53000A2F10A0CFE4D15EB0C0509D25B1C5943D8
:10F54000B1EB820F04DA84429EBF002070BC70478A
:10F55000302070BC70472DE9F047B0F802C0044677
:10F560008188C388028947898689ACF1060940F6FB
:10F570007B4830200025C1453ABFA1F10609C145AD
:10F58000BDE8F0878C4598BFB3F5FA7F3DBFA2F187
:10F590000A0CDFF89C8318EB0C08BDE8F0875B1CB5
:10F5A0005943B1EB820FA8BFBDE8F087B74288BFCF
:10F5B000BDE8F0872088062101F056FB68B190F87D
:10F5C000D01090F8732042B9002918BF042904D044
:10F5D000D0F8F8100A781AB106E00220BDE8F087EA
:10F5E000D0F84421127812B13A20BDE8F087052204
:10F5F0008A71D0F8F8100D81D0F8F820A1885181D7
:10F60000D0F8F820E1889181D0F8F8202189D181C3
:10F61000D0F8F8100A894B899A429EBF8A79082A45
:10F620009A4224BF1220BDE8F08722884A80D0F891
:10F63000F800022101700020BDE8F087F0B583B02A
:10F6400005460DF0D9F8002802BF122003B0F0BD26
:10F650000026B84F012429467C70B81C15F030FCF8
:10F660007E706946062001F088FA002818BFFFDF87
:10F67000684601F060FA002808BFBDF804500AD1BE
:10F68000029880F80041684601F055FA18B9BDF8B3
:10F690000400A842F4D103B00020F0BD10B5044628
:10F6A0000088062101F0E0FA68B190F8D01090F8D7
:10F6B000732042B9002918BF042904D0D0F8F810EB
:10F6C0000A7812B105E0022010BDD0F8442112786A
:10F6D0000AB13A2010BD90F8962012F0010F04BF35
:10F6E0000C2010BDD4F80220D4F806304A608B609C
:10F6F000D0F8F81062898A81D0F8F810E268C1F871
:10F700000E202269C1F812206269C1F81620A26990
:10F71000C1F81A20D0F8F82003211170D0F8F800B1
:10F7200021884180002010BDF8B516460F460446DA
:10F7300009F09CF900281CBF0C20F8BD207812238A
:10F74000EF2801D91846F8BD6088ADF8000010F028
:10F75000100F4FF000050CD010F0010F00F0020167
:10F760001BD0B1B110F0080F08BF10F0040F1ED06D
:10F770001AE010F0080FE5D110F0200F18BF10F0BC
:10F78000030FDFD110F0010F18BF10F0020FD9D115
:10F790000DE010F0040F0AD106E029B110F0080FB7
:10F7A00008BF10F0040F02D010F00F0FCAD1B4F848
:10F7B00002C01CF0080F08D1D4E90110884228BF0C
:10F7C0002029BFD3B0F1807FBCD2207B0028B9D0E4
:10F7D0000728B7D8607B002818BF012803D002286B
:10F7E00018BF0328AED11CF0040F03D1022818BFA4
:10F7F000032807D1A07B002818BF0128A2D11CF044
:10F80000040F08D1607D002818BF012803D002280A
:10F8100018BF032896D1E07D1CF0100F02D00128FC
:10F8200011D08FE7012818BF03288BD11CF0100FCF
:10F8300009D1607E01281CBF0228032882D1A07E46
:10F840000F283FF67FAFE07E002818BF01287FF425
:10F8500079AF1CF0400F1CBF1120F8BD3D70A5759D
:10F8600056B9FF208DF800006946002006F065FDBE
:10F870006946002006F04CFD2046BDE8F84006F041
:10F8800074BC002250E72DE9F0470446C0780F46CB
:10F89000122510B106F0DBFC50B1607804280AD0C4
:10F8A00094F8038094F800906678B8F1FB0F12D9B1
:10F8B0002846BDE8F08709F0D9F80028F8D006F00E
:10F8C0001EFD0028F4D106F0EEF9002804BFE07810
:10F8D0000028EDD1E4E71FB1B8F11F0F23D9E7E706
:10F8E00006F0E1F928B1B8F11F0F98BF032E07D039
:10F8F000DEE7032E18BF042E02D0B8F1000FD7D0D8
:10F9000009F0B4F8002818BF032E04D0042E1CBF41
:10F910000C20BDE8F087484606F0BDF9002804BF7A
:10F920004220BDE8F087E07861781F2804E00000FD
:10F9300089F3FFFF3206002098BF03291CBF112066
:10F94000BDE8F087211D06F0F8FC0020BDE8F08737
:10F95000002198E72DE9F0470446C0788846122731
:10F9600010B106F00AFD38B16578042D04D0E678B0
:10F9700094F80090FB2E02D93846BDE8F087B8F124
:10F98000000F02D01F2E21D9F6E706F08CF920B126
:10F990001F2E98BF032D06D0EEE7032D18BF042DB0
:10F9A00001D0002EE8D009F061F8002818BF032D1F
:10F9B00004D0042D1CBF0C20BDE8F087484606F09B
:10F9C0006AF9002804BF4220BDE8F087E07861783A
:10F9D0001F2898BF03291CBF1120BDE8F087211DF7
:10F9E00006F096FC0020BDE8F0870021B2E72DE983
:10F9F000F04304464078422583B0012808D8A07817
:10FA000006F049F920B120781225012804D0A0B1D0
:10FA100003B02846BDE8F08306F0C3FC20B1A088FF
:10FA20000028F5D08028F3D806F0C2FC68B16078D1
:10FA30000028EDD0207801280BD007F077FE04468F
:10FA400008F08CFC002800F0038103B00C20BDE816
:10FA5000F08306F0B5FA38B906F09CFC002802BF26
:10FA6000122003B0BDE8F08309F000F80028ECD1C3
:10FA700006F0D1F8A0F57F41FF39E6D106F0BFFAD4
:10FA8000A08842F2107100FB01F6A079314606F021
:10FA9000EFFB06F06BFCF8B10022072101A801F092
:10FAA000B1F8040049D0FE480321846020460CF0E0
:10FAB00079FB204607F067F8FA4DA88AA4F84A00B7
:10FAC000E88AA4F84C0006F0EEF870B1288B01210A
:10FAD00008F0C8FDA06210E03146002008F018FDD3
:10FAE000002818BFFFDF00F0BEB806F063FC2A8BC9
:10FAF0000146104608F0B6FDA062014600222046ED
:10FB000007F017FE06F0CFF84FF00108C8B906F06D
:10FB100051FC10F00C0F14D001231A462146184650
:10FB20000DF03FF8616A88420BD90721BDF8040047
:10FB300001F0ACF8002818BFFFDF092003B0BDE8D2
:10FB4000F083E87C0090AB7CEA8AA98A208801F0E7
:10FB500046F9002818BFFFDF208805F0E1FE314696
:10FB6000204608F0D5FC002818BFFFDF2146B4F876
:10FB70004C00002204F5CD76FB2828BFFB206B89C2
:10FB8000834238BF184691F855304FF4747413F01F
:10FB90000C0F1CBF04EB80131FFA83FC3BD000BF8B
:10FBA000B5F80C90E14528BFE146B1F84A30FB2B8F
:10FBB00028BFFB23B5F80EC09C4538BF634691F8BB
:10FBC00054C01CF00C0F1CBF04EB831C1FFA8CF7F5
:10FBD0002AD02C8ABC4228BF3C461B2B18BFB4F548
:10FBE000A47F2FD0F080A6F808907380B4803046B0
:10FBF000FEF754FEB08840F64801884228BF40F620
:10FC00004800B0803089884228BF40F648003081E3
:10FC100086F8008027E0022B07BF83003C33C30037
:10FC200070331FFA83FCBBE7BCF1020F07BF4FEA3A
:10FC3000830C0CF13C0C4FEAC30C0CF1700C1FFA56
:10FC40008CF7C6E71B2818BFB9F5A47FCAD10AE014
:10FC50004CB1208805F065FE2088072101F016F8D8
:10FC6000002818BFFFDF002003B0BDE8F0830021AB
:10FC7000BDE610B50C46072100F0F6FF002804BFD2
:10FC8000022010BD90F8731109B10C2010BD90F83E
:10FC90006510142912BF152990F8C0110029F4D15C
:10FCA0002168C0F874116168C0F87811A168C0F8C3
:10FCB0007C11E168C0F88011012180F873110020E7
:10FCC00010BD10B5072100F0CFFF002804BF0220AF
:10FCD00010BD90F8731109B10C2010BD90F865109B
:10FCE000142918BF1529F7D1022180F873110020BB
:10FCF00010BDF0B50E464BF68032122183B096420D
:10FD000017D8B6B1694600F04AF900281CBF03B005
:10FD1000F0BD019800F15807841C25883246294619
:10FD200038460CF035FA2088A842F6D103B00020FE
:10FD3000F0BD03B00846F0BD10B582B0044600889F
:10FD4000694600F02CF900281CBF02B010BD0198D4
:10FD5000A37800F1580190F82C209A4202BF0C20A1
:10FD600002B010BD7F220A728A720022CA72E17844
:10FD700080F82D10217980F82E10A17880F82C10B1
:10FD800002B0104610BD10B582B00C46694600F0B6
:10FD900006F900281CBF02B010BD019890F873004E
:10FDA000002818BF0120207002B0002010BD30B51F
:10FDB00083B00D461446694600F0F1F800281CBFD8
:10FDC00003B030BD019890F82C0001281EBF0C2014
:10FDD00003B030BD019890F86010297090F8610070
:10FDE000207003B0002030BD70B50D4616460721C7
:10FDF00000F03AFF002804BF022070BD83884FF056
:10FE0000010CC28841880CEB430C65451AD342F2C1
:10FE1000107C02FB0CF240F6C41C01FB0CF1B2FB9F
:10FE2000F1F1491E8CB2B4F5FA7F88BF4FF4FA7431
:10FE3000A54238BF2C46621C591CB2FBF1F251435B
:10FE4000491E8BB290F8AC11002908BF038433809F
:10FE5000002070BD10B50C46072100F005FF0028FA
:10FE600004BF022010BD80F8DF40002C1EBF90F8B8
:10FE7000DD10002908F019FC002010BD01780029D0
:10FE80001CBF4178002915D041881B2921BF8188DA
:10FE90001B29C18802290DD302680349406805E087
:10FEA0005C00002032060020F40500200A65486549
:10FEB000002070471220704710B5044610F02CFF48
:10FEC000204608F09AFB002010BD2DE9F0411646AF
:10FED0000F46044601221146384610F020FF054621
:10FEE0000121384608F0BEFB854228BF2846012381
:10FEF000E100503189B2E631884206D901F196021B
:10FF0000401AB0FBF2F0401C83B233800020BDE801
:10FF1000F08110B5044611F03FFB042806D011F023
:10FF20003BFB052802D008F0A1FD08B10C2010BD54
:10FF3000601C0BF082FF207800F0010006F05AF8F8
:10FF4000207800F001000EF0FFFA002010BD10B57F
:10FF50000446072000F022FE00281CBF0C2010BD24
:10FF6000207810F0010F11D000226078114613F0B4
:10FF70008FFF00281CBF122010BDA0680AF0E9F90D
:10FF8000607861680AF0EEF9002010BD00200AF0E8
:10FF9000E0F9002108460AF0E5F9002010BD70B52F
:10FFA0000C460546062100F05FFE606010B100209F
:10FFB000207070BD0721284600F056FE60600028C2
:10FFC00004BF022070BD01202070002070BD10B55C
:10FFD00004468C46007813466168624638B10120B9
:10FFE0000CF0DFFD6168496A884209D906E000200B
:10FFF0000CF0D7FD6168496A884201D9012010BD23
:020000040001F9
:10000000002010BD10B586B0044611F0C5FA0428D2
:1000100041D011F0C1FA05283DD0A0788DF8080034
:10002000A0788DF8000060788DF8040020788DF8B5
:100030000300A07B8DF80500E07B002818BF01209D
:100040008DF80600A07810F0010F27D0E078012885
:1000500008BF022003D000280CBF012000208DF82B
:100060000100E088ADF80A006089ADF80C00A078C6
:1000700010F0040F26D02079012808BF022003D0F9
:1000800000280CBF012000208DF802002089ADF867
:100090000E00A08914E006B00C2010BD10F0040F73
:1000A00010D0E078012808BF022003D000280CBF40
:1000B000012000208DF80200E088ADF80E00608974
:1000C000ADF8100002A810F080FD002804BF6846BB
:1000D0000EF02BFB06B010BD30B5058825F40044AA
:1000E00021448CB24FF4004194420AD2121B92B2C6
:1000F0001B339A4201D2A94307E005F40041214392
:1001000003E0A21A92B2A9431143018030BD084412
:10011000083050434A31084480B2704770B51D46DC
:1001200016460B46044629463046049AFFF7EFFF71
:100130000646B34200D2FFDF2821204614F0ABFD73
:100140004FF6FF70A082283EB0B265776080B0F5B0
:10015000004F00D9FFDF618805F13C00814200D2E9
:10016000FFDF60880835401B343880B220801B28B0
:1001700000D21B2020800020A07770BD81618861A3
:1001800070472DE9F05F0D46C188044600F128094B
:10019000008921F4004620F4004800F062FB10B111
:1001A0000020BDE8F09F4FF0000A4FF0010BB04572
:1001B0000CD9617FA8EB0600401A0838854219DC8B
:1001C00009EB06000021058041801AE06088617F0C
:1001D000801B471A083F0DD41B2F00DAFFDFBD42FA
:1001E00001DC294600E0B9B2681A0204120C04D0FE
:1001F000424502DD84F817A0D2E709EB0600018032
:10020000428084F817B0CCE770B5044600F12802AC
:10021000C088E37D20F400402BB11044028843885D
:1002200013448B4201D2002070BD00258A4202D3C4
:100230000180458008E0891A0904090C418003D037
:10024000A01D00F01EFB08E0637F008808331844FF
:1002500081B26288A01DFFF73FFFE575012070BDE8
:1002600070B5034600F12804C588808820F4004654
:100270002644A84202D10020188270BD9889358892
:10028000A84206D3401B75882D1A2044ADB2C01E6B
:1002900005E02C1AA5B25C7F20443044401D0C8838
:1002A000AC4200D90D809C8924B1002414700988C7
:1002B000198270BD0124F9E770B5044600F12801E8
:1002C000808820F400404518208A002825D0A18984
:1002D000084480B2A08129886A881144814200D2F2
:1002E000FFDF2888698800260844A189884212D146
:1002F000A069807F2871698819B1201D00F0C1FABA
:1003000008E0637F28880833184481B26288201D82
:10031000FFF7E2FEA6812682012070BD2DE9F041A3
:10032000418987880026044600F12805B94218D083
:1003300004F10A0821F400402844418819B14046DC
:1003400000F09FFA08E0637F00880833184481B208
:1003500062884046FFF7C0FE761C6189B6B2B9429A
:10036000E8D13046BDE8F0812DE9F04104460B4666
:1003700027892830A68827F40041B4F80A80014470
:100380000D46B74201D10020ECE70AB1481D1060CC
:1003900023B1627F691D184614F0DCFB2E88698842
:1003A00004F1080021B18A1996B200F06AFA06E059
:1003B000637F62880833991989B2FFF78DFE47453C
:1003C00001D1208960813046CCE78188C088814294
:1003D00001D1012070470020704701898088814247
:1003E00001D1012070470020704770B58588C3880F
:1003F00000F1280425F4004223F4004114449D42F6
:100400001AD08389058A5E1925886388EC18A6426C
:1004100014D313B18B4211D30EE0437F08325C1921
:100420002244408892B2801A80B22333984201D28B
:1004300011B103E08A4201D1002070BD012070BDDE
:100440002DE9F0478846C1880446008921F400461A
:1004500004F1280720F4004507EB060900F001FA33
:10046000002178BBB54204D9627FA81B801A002501
:1004700003E06088627F801B801A083823D4E289F9
:1004800062B1B9F80020B9F802303BB1E81A21771F
:10049000404518DBE0893844801A09E0801A21774A
:1004A00040450ADB607FE189083030443944084424
:1004B000C01EA4F81280BDE8F087454503DB01208B
:1004C0002077E7E7FFE761820020F4E72DE9F74FA7
:1004D000044600F12805C088884620F4004A608A56
:1004E00005EB0A0608B1404502D20020BDE8FE8FA8
:1004F000E08978B13788B6F8029007EB09018842A5
:1005000000D0FFDF207F4FF0000B50EA090106D03A
:1005100088B33BE00027A07FB9463071F2E7E1895C
:1005200059B1607F2944083050440844B4F81F1082
:1005300020F8031D94F821108170E28907EB080070
:1005400002EB0801E1813080A6F802B002985F4614
:1005500050B1637F30880833184481B26288A01D8F
:10056000FFF7BAFDE78121E0607FE1890830504460
:10057000294408442DE0FFE7E089B4F81F1028441F
:10058000C01B20F8031D94F82110817009EB0800AE
:10059000E28981B202EB0800E08137807180029825
:1005A000A0B1A01D00F06DF9A4F80EB0A07F401C12
:1005B000A077A07D08B1E088A08284F816B000BFC3
:1005C000A4F812B084F817B001208FE7E08928441E
:1005D000C01B30F8031DA4F81F10807884F8210098
:1005E000EEE710B5818800F1280321F4004423448C
:1005F000848AC288A14212D0914210D0818971B9F7
:10060000826972B11046FFF7E8FE50B910892832AE
:1006100020F40040104419790079884201D100206B
:1006200010BD184610BD00F12803407F0830084473
:10063000C01E1060088808B9DB1E1360088849884E
:10064000084480B270472DE9F04100F12806407F50
:100650001C4608309046431808884D88069ADB1ED1
:10066000A0B1C01C80B2904214D9801AA04200DB15
:10067000204687B298183A46414614F03FFA0028BF
:1006800016D1E01B84B2B844002005E0ED1CADB2E9
:10069000F61EE8E7101A80B20119A94206D83044C4
:1006A00022464146BDE8F04114F028BA4FF0FF3031
:1006B00058E62DE9F04100F12804407F1E4608303D
:1006C00090464318002508884F88069ADB1E90B193
:1006D000C01C80B2904212D9801AB04200DB304672
:1006E00085B299182A46404614F034FA701B86B237
:1006F000A844002005E0FF1CBFB2E41EEAE7101A80
:1007000080B28119B94206D821183246404614F009
:1007100021FAA81985B2284624E62DE9F04100F116
:100720002804407F1E46083090464318002508885C
:100730004F88069ADB1E90B1C01C80B2904212D93D
:10074000801AB04200DB304685B298182A464146EE
:1007500014F000FA701B86B2A844002005E0FF1CCC
:10076000BFB2E41EEAE7101A80B28119B94206D876
:1007700020443246414614F0EDF9A81985B22846C6
:10078000F0E5401D704710B5044600F12801C2880D
:10079000808820F400431944904206D0A28922B9EF
:1007A000228A12B9A28A904201D1002010BD088885
:1007B000498831B1201D00F064F80020208201201A
:1007C00010BD637F62880833184481B2201DFFF793
:1007D00083FCF2E70021C18101774182C1758175F7
:1007E000704703881380C28942B1C28822F4004353
:1007F00000F128021A440A60C0897047002070473F
:1008000010B50446808AA0F57F41FF3900D0FFDF94
:10081000E088A082E08900B10120A07510BD4FF6EC
:10082000FF71818200218175704710B50446808A6E
:10083000A0F57F41FF3900D1FFDFA07D28B9A08856
:10084000A18A884201D1002010BD012010BD8188FD
:10085000828A914201D1807D08B100207047012039
:10086000704720F4004221F400439A4207D100F47B
:10087000004001F40041884201D00120704700206F
:10088000704730B5044600880D4620F40040A84269
:1008900000D2FFDF21884FF40040884328432080A6
:1008A00030BD70B50C00054609D0082C00D2FFDF22
:1008B0001DB1A1B2286800F044F8201D70BD0DB133
:1008C00000202860002070BD0021026803E09388AA
:1008D0001268194489B2002AF9D100F032B870B513
:1008E00000260D460446082900D2FFDF206808B91B
:1008F0001EE0044620688188A94202D001680029D0
:10090000F7D181880646A94201D100680DE005F1C2
:10091000080293B20022994209D32844491B02607D
:1009200081802168096821600160206000E0002664
:10093000304670BD00230B608A8002680A60016047
:10094000704700234360021D018102607047F0B5CB
:100950000F460188408815460C181E46AC4200D34D
:10096000641B3044A84200D9FFDFA019A84200D977
:10097000FFDF3819F0BD2DE9F041884606460188B1
:10098000408815460C181F46AC4200D3641B3844FF
:10099000A84200D9FFDFE019A84200D9FFDF708824
:1009A0003844708008EB0400BDE8F0812DE9F04187
:1009B000054600881E461746841B8846BC4200D365
:1009C0003C442C8068883044B84200D9FFDFA0192D
:1009D000B84200D9FFDF68883044688008EB040023
:1009E000E2E72DE9F04106881D460446701980B201
:1009F000174688462080B84201D3C01B20806088FB
:100A0000A84200D2FFDF7019B84200D9FFDF60882A
:100A1000401B608008EB0600C6E730B50D46018834
:100A2000CC18944200D3A41A4088984200D8FFDF23
:100A3000281930BD2DE9F041C84D04469046A878EC
:100A40000E46A04200D8FFDF05EB8607B86A50F8D3
:100A5000240000B1FFDFB868002816D0304600F04F
:100A600044F90146B868FFF73AFF05000CD0B86AB0
:100A7000082E40F8245000D3FFDFB94842462946EB
:100A800050F82630204698472846BDE8F0812DE9E9
:100A9000F8431E468C1991460F460546FF2C00D997
:100AA000FFDFB14500D9FFDFE4B200954DB3002070
:100AB0008046E81C20F00300A84200D0FFDF494632
:100AC000DFF89892684689F8001089F8017089F873
:100AD000024089F8034089F8044089F8054089F804
:100AE000066089F80770414600F008F90021424687
:100AF0000F464B460098C01C20F00300009012B136
:100B00000EE00120D4E703EB8106B062002005E08F
:100B1000D6F828C04CF82070401CC0B2A042F7D3D1
:100B20000098491C00EB8400C9B200900829E1D369
:100B3000401BBDE8F88310B5044603F067FD08B11B
:100B4000102010BD2078854A618802EB80009278E1
:100B50000EE0836A53F8213043B14A1C6280A180C1
:100B6000806A50F82100A060002010BD491C89B2A5
:100B70008A42EED86180052010BD70B505460C464E
:100B8000084603F043FD08B1102070BD082D01D3C5
:100B9000072070BD25700020608070BD0EB56946CD
:100BA000FFF7EBFF00B1FFDF6846FFF7C4FF08B1B6
:100BB00000200EBD01200EBD10B50446082800D34C
:100BC000FFDF6648005D10BD3EB50546002469465E
:100BD000FFF7D3FF18B1FFDF01E0641CE4B2684601
:100BE000FFF7A9FF0028F8D02846FFF7E5FF001B14
:100BF000C0B23EBD59498978814201D9C0B270471F
:100C0000FF2070472DE9F041544B062903D00729F6
:100C10001CD19D7900E0002500244FF6FF7603EB00
:100C2000810713F801C00AE06319D7F828E09BB2E6
:100C30005EF823E0BEF1000F04D0641CA4B2A4450A
:100C4000F2D8334603801846B34201D100201CE796
:100C5000BDE8F041EEE6A0F57F43FF3B01D0082957
:100C600001D300207047E5E6A0F57F42FF3A0BD0A4
:100C7000082909D2394A9378834205D902EB8101C8
:100C8000896A51F820007047002070472DE9F04133
:100C900004460D46A4F57F4143F20200FF3902D01D
:100CA000082D01D30720F0E62C494FF000088A7880
:100CB000A242F8D901EB8506B26A52F82470002FDF
:100CC000F1D027483946203050F82520204690475B
:100CD000B16A284641F8248000F007F802463946F8
:100CE000B068FFF727FE0020CFE61D49403131F8FC
:100CF00010004FF6FC71C01C084070472DE9F84306
:100D0000164E8846054600242868C01C20F00300C3
:100D100028602046FFF7E9FF315D4843B8F1000F36
:100D200001D0002200E02A680146009232B100277B
:100D30004FEA0D00FFF7B5FD1FB106E001270020C7
:100D4000F8E706EB8401009A8A602968641C08446D
:100D5000E4B22860082CD7D3EBE600005006002050
:100D6000F050020070B50E461D46114600F0D4F852
:100D700004462946304600F0D8F82044001D70BDD6
:100D80002DE9F04190460D4604004FF0000610D0CA
:100D90000027E01C20F00300A04200D0FFDFDDB1FF
:100DA00041460020FFF77DFD0C3000EB850617B1B2
:100DB00012E00127EDE7614F04F10C00A9003C604F
:100DC0002572606000EB85002060606813F063FFAF
:100DD00041463868FFF765FD3046BDE8F0812DE9F2
:100DE000FF4F564C804681B020689A46934600B922
:100DF000FFDF2068027A424503D9416851F8280094
:100E000020B143F2020005B0BDE8F08F51460298D0
:100E100000F082F886B258460E9900F086F885B246
:100E20007019001D87B22068A14639460068FFF797
:100E300056FD04001FD0678025802946201D0E9D89
:100E400007465A4601230095FFF768F92088314686
:100E500038440123029ACDF800A0FFF75FF92088FB
:100E6000C1193846FFF78AF9D9F800004168002017
:100E700041F82840C7E70420C5E770B52F4C054668
:100E8000206800B9FFDF2068017AA9420ED94268C4
:100E900052F8251051B1002342F825304A880068E5
:100EA000FFF748FD216800200A7A08E043F20200BB
:100EB00070BD4B6853F8203033B9401CC0B2824239
:100EC000F7D80868FFF700FD002070BD70B51B4E15
:100ED00005460024306800B9FFDF3068017AA94276
:100EE00004D9406850F8250000B1041D204670BDAB
:100EF00070B5124E05460024306800B9FFDF306837
:100F0000017AA94206D9406850F8251011B131F88C
:100F1000040B4418204670BD10B50A460121FFF7A6
:100F2000F6F8C01C20F0030010BD10B50A460121E0
:100F3000FFF7EDF8C01C20F0030010BD700000208A
:100F400070B50446C2F11005281913F003FE15F020
:100F5000FF0108D0491EC9B2802060542046BDE878
:100F6000704013F076BE70BD30B505E05B1EDBB29D
:100F7000CC5CD55C6C40C454002BF7D130BD10B5AF
:100F8000002409E00B78521E44EA430300F8013BB9
:100F900011F8013BD2B2DC09002AF3D110BD2DE9D2
:100FA000F04389B01E46DDE9107990460D000446F5
:100FB00022D002460846F949FDF755FB102221468A
:100FC0003846FFF7DCFFE07B000606D5F34A3946DA
:100FD000102310320846FFF7C7FF10223946484653
:100FE000FFF7CDFFF87B000606D5EC4A49461023F3
:100FF00010320846FFF7B8FF1021204613F029FEF3
:101000000DE0103EB6B208EB0601102322466846FA
:10101000FFF7AAFF224628466946FDF724FB102E5B
:10102000EFD818D0F2B241466846FFF789FF102387
:101030004A46694604A8FFF797FF1023224604A9F1
:101040006846FFF791FF224628466946FDF70BFBED
:1010500009B0BDE8F08310233A464146EAE770B58F
:101060009CB01E460546134620980C468DF8080095
:10107000202219460DF1090013F06CFD20222146B3
:101080000DF1290013F066FD17A913A8CDE90001A1
:10109000412302AA31462846FFF781FF1CB070BDEC
:1010A0002DE9FF4F9FB014AEDDE92D5410AFBB49C1
:1010B000CDE90076202320311AA8FFF770FF4FF00A
:1010C00000088DF808804FF001098DF8099054F858
:1010D000010FCDF80A00A088ADF80E0014F8010C3D
:1010E0001022C0F340008DF8100055F8010FCDF824
:1010F0001100A888ADF8150015F8010C2C99C0F363
:1011000040008DF8170006A8824613F023FD0AA8B8
:1011100083461022229913F01DFDA048352308387C
:1011200002AA40688DF83C80CDE900760E901AA99D
:101130001F98FFF734FF8DF808808DF8099020681C
:10114000CDF80A00A088ADF80E0014F8010C1022AA
:10115000C0F340008DF810002868CDF81100A88871
:10116000ADF8150015F8010C2C99C0F340008DF86E
:101170001700504613F0EEFC58461022229913F047
:10118000E9FC86483523083802AA40688DF83C906F
:10119000CDE900760E901AA92098FFF700FF23B042
:1011A000BDE8F08FF0B59BB00C460546DDE9221096
:1011B0001E461746DDE92032D0F801C0CDF808C040
:1011C000B0F805C0ADF80CC00078C0F340008DF851
:1011D0000E00D1F80100CDF80F00B1F80500ADF810
:1011E000130008781946C0F340008DF815001088E8
:1011F000ADF8160090788DF818000DF11900102246
:1012000013F0A8FC0DF129001022314613F0A2FCC6
:101210000DF139001022394613F09CFC17A913A8D0
:10122000CDE90001412302AA21462846FFF7B7FE77
:101230001BB0F0BDF0B5A3B017460D4604461E46E0
:10124000102202A8289913F085FC06A8202239460E
:1012500013F080FC0EA82022294613F07BFC1EA967
:101260001AA8CDE90001502302AA314616A8FFF7BB
:1012700096FE1698206023B0F0BDF0B589B0044604
:10128000DDE90E070D463978109EC1F340018DF857
:10129000001031789446C1F340018DF801101968AF
:1012A000CDF802109988ADF8061099798DF80810DC
:1012B0000168CDF809108188ADF80D1080798DF89E
:1012C0000F0010236A46614604A8FFF74DFE224630
:1012D000284604A9FDF7C7F9D6F801000090B6F832
:1012E0000500ADF80400D7F80100CDF80600B7F806
:1012F0000500ADF80A000020039010236A4621463D
:1013000004A8FFF731FE2246284604A9FDF7ABF9F1
:1013100009B0F0BD1FB51C6800945B6801931368A9
:10132000029352680392024608466946FDF79BF90C
:101330001FBD10B588B00446106804905068059031
:1013400000200690079008466A4604A9FDF78BF92D
:10135000BDF80000208008B010BD1FB51288ADF8A0
:1013600000201A88ADF80220002201920292039216
:10137000024608466946FDF776F91FBD7FB5074B63
:1013800014460546083B9A1C6846FFF7E6FF2246CE
:1013900069462846FFF7CDFF7FBD00004851020097
:1013A00070B5044600780E46012813D0052802D0F7
:1013B000092813D10EE0A06861690578042003F0C4
:1013C000B3F8052D0AD0782300220420616903F0C8
:1013D00001F803E00420616903F0A6F831462046D5
:1013E000BDE8704001F086B810B500F12D02C37958
:1013F0009478411D64F003042340C371DB070DD0D2
:101400004B79547923404B710B79127913400B714E
:101410008278C9788A4200D9817010BD00224A7151
:101420000A71F5E74178012900D00C21017070475D
:101430002DE9F04F93B04FF0000B0C690D468DF87D
:1014400020B0097801260C2017464FF00D084FF008
:10145000110A4FF008091B2975D2DFE811F01B00B3
:10146000C30206031E035D037003A203B703F80360
:10147000190461049304A004EC042A053405520500
:101480005D05EE053106340663067F06F9061D0785
:10149000E606EB0614B120781D282AD0D5F808807E
:1014A0005FEA08004FD001208DF82000686A022210
:1014B0000D908DF824200A208DF82500A8690A9047
:1014C000A8880028EED098F8001091B10F2910D20A
:1014D0007ED2DFE801F07D1349DEFEFDFCFBFAF968
:1014E00038089CF8F70002282DD124B120780C2868
:1014F00001D00026EFE38DF82020CBE10420696ABB
:1015000003F012F8A8880728EED1204600F0EDFF7E
:10151000022809D0204600F0E8FF032807D920461A
:1015200000F0E3FF072802D20120207004E0002C25
:10153000B8D020780128D7D198F80400C11F0A2913
:1015400002D30A2061E0C4E1A070D8F80010E16283
:10155000B8F80410218698F8060084F832000120BB
:1015600028700320207044E00728BDD1002C99D0BA
:1015700020780D28B8D198F8031094F82F20C1F3E3
:10158000C000C2F3C002104201D0062000E00720D4
:10159000890707D198F805100142D2D198F80610B2
:1015A0000142CED194F8312098F8051020EA0202C9
:1015B0001142C6D194F8322098F8061090430142A7
:1015C000BFD198F80400C11F0A29BAD2617D00E09A
:1015D00006E281427ED8D8F800106160B8F80410A5
:1015E000218198F80600A072012028700E2020703A
:1015F00003208DF82000686A0D9004F12D000990F9
:10160000601D0A900F300B9022E12875FDE3412800
:1016100091D1204600F069FF042802D1E078C0078C
:1016200004D1204600F061FF0F2884D1A88CD5F8A2
:101630000C8080B24FF0400BE669FFF747FC324662
:1016400041465B464E46CDF80090FFF732F80B203E
:101650008DF82000686A0D90E0690990002108A8C3
:10166000FFF79EFE2078042806D0A07D58B10128FF
:1016700009D003280AD049E30520207003202870F0
:101680008DF82060CDE184F800A032E712202070B0
:10169000E9E11128BCD1204600F027FF042802D13F
:1016A000E078C00719D0204600F01FFF062805D1BA
:1016B000E078C00711D1A07D02280ED0204600F0AE
:1016C00014FF08E0CAE081E06FE14EE121E101E1B1
:1016D000E7E017E0ADE111289AD1102208F10101ED
:1016E00004F13C0013F036FA607801287ED0122015
:1016F0002070E078C00760D0A07D0028C8D0012805
:10170000C6D05AE0112890D1204600F0EEFE0828FD
:1017100004D0204600F0E9FE132886D104F16C00C5
:10172000102208F10101064613F014FA2078082867
:101730000DD014202070E178C8070DD0A07D0228BC
:101740000AD06278022A04D00328A1D035E009200B
:10175000F0E708B1012837D1C80713D0A07D0228CF
:101760001DD000200090D4E9062133460EA8FFF7D3
:1017700076FC10220EA904F13C0013F0BFF9C8B1A9
:10178000042042E7D4E90912201D8DE8070004F186
:101790002C0332460EA8616BFFF76FFDE9E7606B23
:1017A000C1F34401491E0068C84000F0010040F048
:1017B0008000D7E72078092806D185F800908DF8B9
:1017C000209033E32870ECE30920FBE711289AD13D
:1017D000204600F08AFE0A2802D1E078C00704D132
:1017E000204600F082FE15288DD100E08DE104F145
:1017F0003C00102208F10101064613F0ABF92078F5
:101800000A2816D016202070D4E90932606B611DB9
:101810008DE80F0004F15C0304F16C0247310EA85F
:10182000FFF7C0FC10220EA9304613F067F918B17B
:10183000F5E20B20207071E22046FFF7D5FDA0787D
:10184000216A0A18C0F11001104613F002FA23E3CE
:10185000394608A8FFF7A4FD06463BE20228B6D1A8
:10186000204600F042FE042804D3204600F03DFE4E
:10187000082809D3204600F038FE0E2829D3204638
:1018800000F033FE122824D2A07D02289FD10E2022
:101890008DF82000686A0D9098F801008DF82400FA
:1018A000F0E3022893D1204600F01FFE002810D05C
:1018B000204600F01AFE0128F9D0204600F015FE5F
:1018C0000C28F4D004208DF8240098F801008DF83D
:1018D00025005EE21128FCD1002CFAD020781728D0
:1018E000F7D16178606A022911D0002101EB410132
:1018F000182606EBC1011022405808F1010113F02F
:1019000029F90420696A00F0E3FD2670F1E5012160
:10191000ECE70B28DDD1002CDBD020781828D8D1BB
:101920006078616A02281CD05FF0000000EB400282
:10193000102000EBC2000958B8F801000880607858
:10194000616A02280FD0002000EB4002142000EB57
:10195000C2000958404650F8032F0A6040684860AA
:1019600039E00120E2E70120EEE71128B1D1002C97
:10197000AFD020781928ACD16178606A022912D0E2
:101980005FF0000101EB41011C2202EBC1011022BA
:10199000405808F1010113F0DDF80420696A00F0F5
:1019A00097FD1A20B6E00121ECE7082891D1002C20
:1019B0008FD020781A288CD1606A98F8012001789D
:1019C00062F347010170616AD8F8022041F8012FE3
:1019D000B8F8060088800420696A00F079FD8EE27C
:1019E000072012E63878012894D1182204F1140057
:1019F000796813F0F4F8E079C10894F82F0001EA4F
:101A0000D001E07861F30000E070217D002974D1FD
:101A10002178032909D0C00725D0032028708DF82C
:101A20002090686A0D90412004E3607DA17888428F
:101A300001D90620E9E502262671E179204621F048
:101A4000E001E171617A21F0F0016172A17A21F087
:101A5000F001A172FFF7C8FC2E708DF82090686A23
:101A60000D900720E6E20420ACE6387805289DD1E9
:101A70008DF82000686A0D90B8680A900720ADF8CC
:101A800024000A988DF830B0616801602189818056
:101A9000A17A817104202070F4E23978052985D17A
:101AA0008DF82010696A0D91391D09AE0EC986E8BE
:101AB0000E004121ADF824108DF830B01070A88CC4
:101AC000D7F80C8080B24026A769FFF711FA41468B
:101AD0003A463346C846CDF80090FEF71EFE002178
:101AE00008A8FFF75DFCE07820F03E00801CE07065
:101AF0002078052802D00F200CE049E1A07D20B11C
:101B0000012802D0032802D002E10720BFE584F8B3
:101B10000080EEE42070ECE4102104F15C0002F09F
:101B20002AFA606BB0BBA07D18B1012801D0052056
:101B3000FDE006202870F7486063A063BEE23878B5
:101B4000022894D1387908B12875B3E3A07D022822
:101B500002D0032805D022E0B8680028F5D06063E1
:101B60001CE06078012806D0A07994F82E10012896
:101B700005D0E84806E0A17994F82E00F7E7B868A8
:101B80000028E2D06063E078C00701D0012902D0CC
:101B9000E04803E003E0F8680028D6D0A063062000
:101BA00010E68DF82090696A0D91E1784846C907E2
:101BB00009D06178022903D1A17D29B1012903D07F
:101BC000A17D032900D00720287031E1387805284D
:101BD000BBD1207807281ED084F800A005208DF8FE
:101BE0002000686A0D90B8680A90ADF824A08DF8BE
:101BF00030B003210170E178CA070FD0A27D022A1C
:101C00001AD000210091D4E9061204F15C03401CB3
:101C1000FFF725FA67E384F80090DFE7D4E90923AA
:101C2000211D8DE80E0004F12C0304F15C02401C20
:101C3000616BFFF722FB56E3626BC1F34401491E5F
:101C40001268CA4002F0010141F08001DAE73878F9
:101C50000528BDD18DF82000686A0D90B8680A90FB
:101C6000ADF824A08DF830B0042100F8011B10223B
:101C700004F15C0112F06EFF002108A8FFF790FB51
:101C80002078092801D0132044E70A2020709BE522
:101C9000E078C10742D0A17D012902D0022927D0D6
:101CA00038E0617808A8012916D004F16C01009190
:101CB000D4E9061204F15C03001DFFF7BBFA0A2009
:101CC000287003268DF82080686A0D90002108A8EE
:101CD000FFF766FBDDE2C3E204F15C010091D4E9A9
:101CE000062104F16C03001DFFF7A4FA0026E9E7C2
:101CF000C0F3440114290DD24FF0006101EBB01084
:101D00004FEAB060E0706078012801D01020BEE496
:101D10000620FFE6607801283FF4B7AC0A2051E5C1
:101D2000E178C90708D0A17D012903D10B202870D3
:101D300004202FE028702DE00E2028706078616B61
:101D4000012817D004F15C0304F16C020EA8FFF720
:101D5000E1FA2046FFF748FBA0780EAEC0F1100173
:101D6000304412F076FF06208DF82000686A09964C
:101D70000D909AE004F16C0304F15C020EA8FFF7E9
:101D8000C9FAE9E73978022903D139790029D1D094
:101D900029758FE28DF82000686A0D9058E5387833
:101DA0000728F6D1D4E909216078012808D004F188
:101DB0006C00CDE90002029105D104F16C0304E04E
:101DC00004F15C00F5E704F15C0304F14C007A686F
:101DD0000646216AFFF764F96078012821D1A078CE
:101DE000216A0A18C0F11001104612F032FFD4E93E
:101DF0000923606B04F12D018DE80F0004F15C03F1
:101E000004F16C0231460EA800E055E2FFF7CAF972
:101E100010220EA904F13C0012F070FE08B10B2054
:101E2000AFE485F8008000BF8DF82090686A0D90BF
:101E30008DF824A00CE538780528AAD18DF820006B
:101E4000686A0D90B8680A90ADF824A08DF830B09B
:101E500080F80080617801291AD0D4E9093204F1B0
:101E60002D01A66B03920096CDE9011304F16C03DA
:101E700004F15C0204F14C01401CFFF793F90021CE
:101E800008A8FFF78DFA6078012805D0152041E6F3
:101E9000D4E90923611DE4E70E20287006208DF89F
:101EA0002000686ACDF824B00D90A0788DF8280045
:101EB000CEE438780328C0D1E079C00770D00F2075
:101EC0002870072066E7387804286BD11422391D62
:101ED00004F1140012F083FE616A208CA1F809005D
:101EE000616AA078C871E179626A01F00301117238
:101EF000616A627A0A73616AA07A81F82400162006
:101F000060E485F800A08DF82090696A50460D9134
:101F100090E00000485102003878052842D1B868A6
:101F2000A8616178606A022901D0012100E00021E6
:101F300001EB4101142606EBC1014058082102F0D3
:101F40001AF86178606A022901D0012100E00021BD
:101F500001EB410106EBC101425802A8E169FFF71C
:101F60000DFA6078626A022801D0012000E00020AA
:101F700000EB4001102000EBC1000223105802A921
:101F80000932FEF7F1FF626AFD4B0EA80932A16922
:101F9000FFF7E3F96178606A022904D0012103E0C8
:101FA00042E18BE0BDE0002101EB4101182606EB88
:101FB000C101A27840580EA912F0CCFD6178606A88
:101FC000022901D0012100E0002101EB410106EBD3
:101FD000C1014058A1780844C1F1100112F039FE46
:101FE00005208DF82000686A0D90A8690A90ADF868
:101FF00024A08DF830B0062101706278616A022A4F
:1020000001D0012200E0002202EB420206EBC202F4
:10201000401C8958102212F09DFD002108A8FFF7EE
:10202000BFF91220C5F818B028708DF82090686AA2
:102030000D900B208DF824000AE43878052870D123
:102040008DF82000686A0D90B8680A900B20ADF8F2
:1020500024000A98072101706178626A022901D080
:10206000012100E0002101EB4103102101EBC3013C
:1020700051580988A0F801106178626A022902D0DB
:10208000012101E02FE1002101EB4103142101EBCB
:10209000C30151580A6840F8032F4968416059E06C
:1020A0001920287001208DF8300077E6162028705E
:1020B0008DF830B0002108A8FFF772F9032617E168
:1020C00014202870B0E6387805282AD18DF8200031
:1020D000686A0D90B8680A90ADF824A08DF830B009
:1020E00080F800906278616A4E46022A01D001228F
:1020F00000E0002202EB42021C2303EBC202401C60
:102100008958102212F026FD002108A8FFF748F98F
:10211000152028708DF82060686A0D908DF8246075
:102120003CE680E0387805287DD18DF82000686A8B
:102130000D90B8680A90ADF824900921017061698A
:10214000097849084170616951F8012FC0F80220EF
:102150008988C18020781C28A8D1A1E7E078C00731
:1021600002D04FF0060C01E04FF0070C6078022817
:102170000AD04FF0000000BF00EB040101F109019B
:1021800005D04FF0010004E04FF00100F4E74FF0FC
:1021900000000B78204413EA0C030B7010F8092F91
:1021A00002EA0C02027004D14FF01B0C84F800C04C
:1021B000D2B394F801C0BCF1010F00D09BB990F8E4
:1021C00000C0E0465FEACC7C04D028F0010606702F
:1021D000102606E05FEA887C05D528F00206067026
:1021E00013262E70032694F801C0BCF1020F00D014
