:020000040000FA
:10000000682C0220F902000001030000FF03000039
:1000100005030000070300000903000000000000C2
:100020000000000000000000000000000B030000C2
:100030000D030000000000004B030000110300004E
:10004000650F0000130300004D14000013030000AF
:100050001303000013030000150700001303000042
:100060001303000013030000130300001303000038
:100070001303000013030000130300001303000028
:1000800013030000491000001303000013030000D5
:100090001303000013030000130300001303000008
:1000A00013030000130300001303000013030000F8
:1000B0001303000013030000000000000000000014
:1000C00013030000130300001303000013030000D8
:1000D00013030000130300001303000013030000C8
:1000E00013030000BD0F0000130300000000000018
:1000F000000000001303000000000000C111000018
:1001000000000000000000000000000000000000EF
:1001100000000000000000000000000000000000DF
:1001200000000000000000000000000000000000CF
:1001300000000000000000000000000000000000BF
:1001400000000000000000000000000000000000AF
:10015000000000000000000000000000000000009F
:10016000000000000000000000000000000000008F
:10017000000000000000000000000000000000007F
:10018000000000000000000000000000000000006F
:10019000000000000000000000000000000000005F
:1001A000000000000000000000000000000000004F
:1001B000000000000000000000000000000000003F
:1001C000000000000000000000000000000000002F
:1001D000000000000000000000000000000000001F
:1001E000000000000000000000000000000000000F
:1001F00000000000000000000000000000000000FF
:10020000DFF80CD000F0E4F90048004705070000D3
:10021000682C022030B4044654E8000F0D4644E830
:100220000053002BF8D1156030BC704730B4044641
:1002300054E8000F40EA010544E80053002BF7D1D1
:10024000156030BC704730B4044654E8000F00EA33
:10025000010544E80053002BF7D1156030BC70470E
:1002600030B4044654E8000F80EA010544E8005326
:10027000002BF7D1156030BC704730B4044654E809
:10028000000F00EB010544E80053002BF7D1156087
:1002900030BC704730B4044654E8000FA0EB0105B1
:1002A00044E80053002BF7D1156030BC704770B4A0
:1002B00004464FF0000054E8006F0D68AE4207BFDF
:1002C00044E80023012044E800630E60002B1CBFBB
:1002D0000020F0E770BC704730B4044654E8000FCB
:1002E00088422CBF451A054644E80053002BF5D13F
:1002F000156030BC7047000006488047064800473C
:10030000FEE7FEE7FEE7FEE7FEE7FEE7FEE7FEE7C5
:10031000FEE7FEE77112000001020000EFF310801B
:1003200072B6704780F310887047434A1368012BF8
:1003300004D04FF001031360404A1060404A11603E
:1003400040484FF0805101607047EFF3108272B661
:100350003948016851B34FF0000101603748016826
:1003600091B1EFF309811EF0100F08BF21ED108B42
:1003700021E9F00F4FF000041EF0100F08BF012418
:1003800041F8044D006801602D490968096808C9F1
:10039000B1E8F00F002B18BFB1EC108B81F3098886
:1003A0004EF0100E002B18BF2EF0100E82F31088A6
:1003B0004EF0040E704722490860EFF3148222F0D9
:1003C000040282F314881D494FF0000008601A49A6
:1003D0004FF0010008601C484FF47F01D0F8002066
:1003E00041EA0201016017484FF08051016017484F
:1003F0000068006880F3088861B662B670471EF036
:10040000040F0CBFEFF30880EFF3098020E9F00F31
:1004100040F804ED40F804ED1EF0040F0CBF80F32B
:10042000088880F3098800B508F0B8F85DF804EB97
:100430004EF0040E70470000C8000020C0000020ED
:10044000C400002004ED00E020ED00E008ED00E035
:1004500000487047C067010040EA01039B0703D0D2
:1004600009E008C9121F08C0042AFAD203E011F8F3
:10047000013B00F8013B521EF9D27047D2B201E0B5
:1004800000F8012B491EFBD270470022F6E710B599
:1004900013460A4604461946FFF7F0FF204610BDF2
:1004A000421E12F8013F002BFBD111F8013B02F86C
:1004B000013B002BF9D1704710B5044604E00B78DE
:1004C00000F8013B03B1491C521EF8D2204610BD72
:1004D000421C10F8011B0029FBD1801A704710B58F
:1004E000002200E0521C835C8C5CA34201D1002BF3
:1004F000F8D1D8B2E1B2401A10BD30B504460020A0
:10050000034600E05B1C934203D2E05CCD5C401BE1
:10051000F8D030BD034611F8012B00F8012B002A5A
:10052000F9D11846704730B505460020034600E073
:100530005B1C934205D2EC5CC85C201A01D1002CF4
:10054000F6D130BD70B5064601F07AF8046805466C
:100550000A220021304600F002F82C6070BD2DE91F
:10056000F04791460F4680460446002614F8015B8A
:100570002DB1FFF76DFF0068405DC007F6D12B2D50
:1005800002D02D2D18D0641E4A463946204600F070
:1005900031F827B13968A14201D1C7F8008071054F
:1005A0004FF002040BD54042002803DD01F048F86B
:1005B0000460A007BDE8F08746F48066E4E7002801
:1005C000F8DA01F03DF804606FF00040F2E7000057
:1005D000064C074D06E0E06840F0010394E8070090
:1005E00098471034AC42F6D3FFF70EFEFC7A0100B8
:1005F0001C7B01002DE9F05F82460078002715463C
:100600008B460AF10104B946302801D09DB113E0B0
:1006100014F8010B0127782803D0582801D045B1E0
:100620000AE00DB1102D07D10027102514F8010B99
:1006300002E0082500E00A250026B0460EE005FB92
:10064000080005FB06F1012701EB10461FFA80F8B0
:10065000B6F5803F00D3B94614F8010B294600F0E7
:1006600018F80028EBDABBF1000F05D00FB1641EBB
:1006700000E05446CBF80040B9F1000F06D000F07E
:10068000DFFF02210160C81EBDE8F09F48EA064076
:10069000FAE73A2800D2303820F02002412A01D36C
:1006A000A2F13700884201D34FF0FF30704770B598
:1006B0008C1810F8015B15F0070301D110F8013B0D
:1006C0002A1106D110F8012B03E010F8016B01F894
:1006D000016B5B1EF9D12B0705D40023521E0DD4EC
:1006E00001F8013BFAE710F8013BCB1A921C03E03A
:1006F00013F8015B01F8015B521EF9D5A142D8D372
:10070000002070BD10B5FFF709FE09F037FF00208B
:1007100010BD00002DE9F04F8FB000245B4900941C
:10072000019409684FF4BE7001297DD105F07EFD6A
:100730006A460221002005F063FD0020544B0A9414
:10074000421EEB4608A90B9441F82020401C8A4623
:100750000228F9D3994600254FEA050606EB460123
:1007600009EB810839F9214098F80270601C5AD0D1
:1007700008A9204605F0ECFA60B3D8F80400C7F3E6
:1007800081075FEA000802D0032F02D00DE0032F9B
:1007900049D10DF1280CE00804F007011CF80030E5
:1007A00001228A4013430CF8003005A8059405F097
:1007B000F9FC059900EB8100D0F800076946C0F309
:1007C00001400590204605F0C3FA0028059802D0A4
:1007D000022802D027E0032825D1032F1CD10228AC
:1007E0004DD002200D90059405A805F0DBFC05997D
:1007F00000EB8101D1F8002722F44032C1F8002734
:10080000059900EB8101D1F800270D9842EA0040DC
:10081000C1F800076D1CEDB2B8F1000F03D044EA37
:1008200087104146884700E026E0761CF6B2302E5D
:1008300094D3002D20D003AA0221002005F0E0FC73
:1008400000205A460DF10C0152F8204051F820309A
:10085000A34216D000200AAC4FEA0A0351F82060E8
:1008600042F8206054F8206043F82060401C0228C1
:10087000F4D3002D7FF46FAF0FB0BDE8F08F0320ED
:10088000B0E7401C0228DFD3F6E700007C6100409F
:10089000700200200549086810F8082D10F8043F80
:1008A0001A4400F8042C086070470000140200206D
:1008B0000349086870E902231A4404C008607047BD
:1008C000140200200549086830F8082D30F8043F6C
:1008D0001A4420F8042C086070470000140200201D
:1008E0000549086810F8082D10F8043F1A4000F870
:1008F000042C0860704700001402002003490868B7
:1009000070E902231A4004C00860704714020020F6
:100910000549086830F8082D30F8043F1A4020F8DF
:10092000042C08607047000014020020034800688F
:1009300010F8041DC9430170704700001402002024
:100940000348006850F8041DC94301607047000067
:10095000140200200348006830F8041DC9430180D8
:10096000704700001402002070B57A4A9CB07A4D9E
:1009700011680CAB11F8010B11602A680021121FDD
:100980002A6008E0461A03EB860652F8044946F846
:10099000044C491C2A608142F4D3146811287DD28A
:1009A000DFE800F0090B0E12171C232C36404D5CBB
:1009B0006C7D90A5BB00002000E00C98A047C3E030
:1009C000DDE90C01A047BFE00CAB93E80700A047AE
:1009D000BAE00CAE96E80F00A047B5E010980CAE58
:1009E000009096E80F00A047AEE0DDE910010CAEE4
:1009F000CDE9000196E80F00A047A5E010AB0CAED2
:100A000093E807008DE8070096E80F00A0479BE0F9
:100A100010AE96E80F008DE80F000CAE96E80F00C0
:100A2000A04791E011AE96E80F0001AE86E80F00F6
:100A300010980CAE009096E80F00A04784E012AE2C
:100A400096E80F0002AE86E80F00DDE910010CAE5B
:100A5000CDE9000196E80F00A04775E013AE96E8D7
:100A60000F0003AE86E80F0010AB0CAE93E8070052
:100A70008DE8070096E80F00A04765E014AE96E801
:100A80000F0004AE86E80F0010AE96E80F008DE868
:100A90000F000CAE96E80F00A04755E053E015AEEE
:100AA00096E80F0005AE86E80F0011AE96E80F003D
:100AB00001AE86E80F0010980CAE009096E80F008B
:100AC000A04741E016AE96E80F0006AE86E80F009C
:100AD00012AE96E80F0002AE86E80F00DDE91001C5
:100AE0000CAECDE9000196E80F00A0472CE017AE50
:100AF00096E80F0007AE86E80F0013AE96E80F00E9
:100B000003AE86E80F0010AB0CAE93E807008DE84B
:100B1000070096E80F00A04716E018AE96E80F0011
:100B200008AE86E80F0014AE96E80F0004AE86E823
:100B30000F0010AE96E80F008DE80F000CAE96E89F
:100B40000F00A04700E00020296801C129601CB007
:100B500070BD00001802002014020020054908683A
:100B600010F8082D10F8043FB2FBF3F200F8042C43
:100B700008607047140200200449086870E90223E5
:100B800092FBF3F204C008607047000014020020DA
:100B90000549086830F9082D30F9043F92FBF3F25B
:100BA00020F8042C08607047140200200548064A0B
:100BB00001680B78116801F8043B11600168491C59
:100BC00001607047180200201402002006480168E6
:100BD000CA780B6862F31F63044A116808C1116088
:100BE0000168091D016070471802002014020020EE
:100BF00007480168CA78096862F31F61054A0B78E3
:100C0000116801F8043B11600168091D016070471B
:100C100018020020140200200348006850F8041D48
:100C2000097801707047000014020020074801682D
:100C3000CA78096862F31F61054A0B68116808C128
:100C400011600168091D0160704700001802002052
:100C5000140200200348006850F8041D0968016070
:100C6000704700001402002007480168CA7809682C
:100C700062F31F61054A0B88116821F8043B11607B
:100C80000168091D0160704718020020140200204D
:100C90000348006850F8041D09880180704700006F
:100CA000140200200548064A01680B88116821F8E3
:100CB000043B11600168891C016070471802002024
:100CC00014020020074910B5086810F8082D10F824
:100CD000043FB2FBF3F403FB142200F8042C086079
:100CE00010BD000014020020054910B5086870E925
:100CF000022392FBF3F403FB142204C0086010BD2E
:100D000014020020074910B5086830F9082D30F9A1
:100D1000043F92FBF3F403FB142220F8042C086038
:100D200010BD0000140200200549086810F8082DC5
:100D300010F8043F12FB03F200F8042C086070471F
:100D4000140200200349086870E902235A4304C0D2
:100D500008607047140200200549086830F8082D23
:100D600030F8043F12FB03F220F8042C08607047AF
:100D700014020020704700000549086810F8082D8B
:100D800010F8043F1A4300F8042C08607047000074
:100D9000140200200349086870E902231A4304C0C2
:100DA00008607047140200200549086830F8082DD3
:100DB00030F8043F1A4320F8042C08607047000004
:100DC0001402002002480168091F016070470000FA
:100DD000140200200549086810F8082D10F8043F97
:100DE0009A4000F8042C08607047000014020020AC
:100DF0000549086850F8082D10F8043F9A4040F85B
:100E0000042C08607047000014020020054908689F
:100E100030F8082D10F8043F9A4020F8042C0860A0
:100E200070470000140200200549086810F8082DDA
:100E300010F8043FDA4000F8042C08607047000006
:100E4000140200200549086850F8082D10F8043FE6
:100E50001A4140F8042C086070470000140200207A
:100E60000549086830F9082D10F8043F1A4120F8A8
:100E7000042C086070470000140200200548016837
:100E800011F8042C51F8081C0A700168091F016050
:100E9000704700001402002004480168083906C9A0
:100EA0000A600168091F01607047000014020020F9
:100EB0000548016831F8042C51F8081C0A800168C3
:100EC000091F0160704700001402002005490868EE
:100ED00010F8082D10F8043FD21A00F8042C08600E
:100EE00070470000140200200349086870E90223DB
:100EF000D21A04C00860704714020020054908682F
:100F000030F8082D30F8043FD21A20F8042C08607D
:100F100070470000140200200549086810F8082DE9
:100F200010F8043F5A4000F8042C08607047000095
:100F3000140200200349086870E902235A4004C0E3
:100F400008607047140200200549086830F8082D31
:100F500030F8043F5A4020F8042C08607047000025
:100F60001402002070B54FF48076304604F0F8FE8D
:100F7000114CB50560B1304604F0F9FE0120C5F80A
:100F80000803607920B9012060712168002088473A
:100F90004FF48276304604F0E3FE00280AD0304653
:100FA00004F0E5FE0220C5F808032168BDE87040A2
:100FB0000120084770BD0000A000002010B50A4CB9
:100FC0004FF48071204605F0A9FC00280AD007489C
:100FD00000214171C4F8001102688168BDE8104029
:100FE0000020104710BD0000009002408CEE012050
:100FF000F0B50024461822E010F8011B01F07F052F
:1010000067199F4202D94FF0FF30F0BD09064FF03B
:10101000000106D411E007781755641C491CA4B2DE
:1010200089B2A942F7D3401C09E000BF10F8017B48
:101030001755641C491CA4B289B2A942F6D3864252
:10104000DAD82046F0BD000070B5104D4FF4A07105
:10105000284605F068FC07F0CBFCD5F80445A91537
:10106000284605F060FC09F003F8201A20F07F44C0
:1010700005E000BF08F056FF08B108F0FFFF641E4E
:10108000F8D2BDE8704007F0D1BC0000001001406C
:1010900000F024BA2DE9F84304461C48007808B94A
:1010A00000F01CFAFF2000258DF800004FF0FF38FB
:1010B000102C27D21648154E005D8DF80100183609
:1010C000002002F0E1F8307D114F00F003007F1E98
:1010D00002280BD0304600F035FA02280DD33C70C0
:1010E00002226946304600F082FA07E03C70022294
:1010F0006946304600F04EFA00E04546002002F016
:10110000C5F800E045462846BDE8F883BCEE01205E
:10111000A900002070B50B4B0646144618780D4602
:1011200008B900F0DBF9002002F0AEF822462946AB
:10113000304600F009F80446002002F0A7F82046E7
:1011400070BD0000BCEE012070B50E46144900EBE6
:10115000400001EBC0051446E86A183520B10128AB
:101160000FD0022805D113E0284600F0EBF9A04289
:1011700001D2002411E022463146284600F037FA19
:101180000BE0284600F0DEF9A042F4D20446F2E774
:101190003146284600F0FEF90446204670BD0000A6
:1011A000BCEE012070B505460C460846FFF790F9E5
:1011B000024621462846BDE87040FFF7ABBF00005D
:1011C000F8B51448144E04464FF48C7105F0B1FB89
:1011D00000281DD00025C4F81851D4F8180100903B
:1011E00096F820003446FF2808D0A17F31B9E17F6E
:1011F00011B104F08AFF01E004F0F7FF6577257272
:10120000D4E9002101B004F10800BDE8F040104726
:10121000F8BD000000F0024098EE012010B500205B
:1012200004F0C8FD104C2020C4F80805C100204679
:1012300005F079FB0120C4F804034FF482712046C5
:1012400005F071FB0220C4F804030120A0602060B7
:101250000649E02081F800044FF0E0214FF400300F
:10126000C1F8000110BD00000010014011E000E0D5
:1012700030B54FF0805000228300D0F83011C3F811
:101280000C21C3F81021624B1A60624B1B68624C40
:101290002360604B1B1D1B68241D23605D4B0833BE
:1012A0001B68241D23605B4B0C331B68241D2360CB
:1012B000584B10331B68241D2360564B14331B6896
:1012C000241D2360534B18331B68534C2034236078
:1012D000504B1C331B68241D23604E4B20331B686E
:1012E000241D23604B4B24331B68241D2360494B72
:1012F00028331B68241D2360464B2C331B68241D98
:101300002360444B30331B68434C40342360414BD3
:1013100034331B68241D23603E4B38331B68241D67
:1013200023603C4B3C331B68241D2360394B403306
:101330001B68241D23600124082902D1D0F8343110
:1013400013B1082904D006E0354B3449196005E093
:10135000D0F8343113B1082904D006E0314BFB2119
:10136000196005E0D0F8343113B1082908D00EE037
:1013700090F858322C48016863F30301016002E0E1
:10138000D0F834311BB929494FF40070086028485F
:101390000168C90702D06FF00101016025480168AA
:1013A00041F470010160BFF34F8FBFF36F8F4FF0B7
:1013B0001021D1F80002002803DBD1F80402002834
:1013C00022DA1D4B1C601D480468002CFCD012243E
:1013D000C1F800420568002DFCD0C1F80442016844
:1013E0000029FCD01A6001680029FCD0BFF34F8FA0
:1013F00010487C380168124A01F4E0611143016031
:10140000BFF34F8F00BFFDE70F490E48086030BDA6
:10141000380500400404001020C500404881030046
:101420008C56004018F50040E40E00404096024003
:101430000004004088ED00E004E5014000E40140C4
:101440000400FA050090D0032C00002070B5214D57
:101450004FF40071284605F07CFA50B14FF49274B5
:101460002146284605F06AFA18B12146284605F0BB
:101470006AFA0421284605F06CFA174C50B14FF473
:101480008471284605F05AFA20B1206801210068CD
:1014900007F09CF98021284605F05BFA50B14FF423
:1014A0008E71284605F04AFA20B1206802210068B2
:1014B00007F08CF94FF4A271284605F03FFA002896
:1014C00006D0206805210068BDE8704007F07EB9AD
:1014D00070BD0000002000403802002010B5124C02
:1014E00002202061606111A0A06104F17800E06138
:1014F0004FF4007020620020A06260620BA1A16422
:10150000E06204F51E71E1641021A065C4E91410C5
:10151000E06509A1E01DFEF7FDFF08A12046FEF7EA
:10152000F9FF2020A07110BDBCEE01205465726D42
:10153000696E616C000000005254540053454747E7
:10154000455200000269C1688A4203D88068401A87
:10155000104400E0501A401E704700F01F020121A5
:1015600091404009800000F1E020C0F88012C0F8EE
:10157000001170474907090E002806DA00F00F0035
:1015800000F1E02080F8141D704700F1E02080F8A1
:10159000001470472DE9F047C4681746894606468F
:1015A0004FF000083069A04201D9051B02E0B16884
:1015B000201A0D1AB0686D1E001BA84200D80546FF
:1015C000BD4200D33D4670682A4620444946FEF796
:1015D00043FFB0687F1B2C44A844A944A04200D11B
:1015E0000024F460002FDDD14046BDE8F0872DE9EE
:1015F000F04104468846D4E90207C51BE1686068EB
:1016000016460844B54206D94146FEF725FFB819EB
:10161000E060BDE8F0812A464146FEF71DFF761BDB
:1016200008EB050132466068FEF716FFE660F0E75A
:10163000014A024901F0C7B8194C000020050020FA
:1016400000487047240500202DE9F0470D46202969
:101650003FD3A5F10A0045F2DA31244CA5F56046E6
:101660004FF4C85845F2E33788420FD301F022FD0A
:10167000426861688A422ED046452CD2294602E053
:101680001A4862683946BDE8F04710472A46642187
:10169000174803F007FB00B2411CE7D000EB400104
:1016A000134841F2AF1300EB8101486809894218E1
:1016B0009A420ED8104ADFF83C9010444FF48063F1
:1016C0004A46801DFFF794FC401CCFD04846BDE839
:1016D000F0870020FBE701F0CDFC426861688A4298
:1016E000CED029469047BD42CAD0F0E7D4040020AE
:1016F000E4C100000C00022094C600002DE9F05F58
:101700009B4616460D46202A02D20020BDE8F09FD7
:10171000A6F10A0045F2DA31284CA6F560474FF4ED
:10172000C85845F2E3394FF0FF3A88422AD2642183
:10173000234803F0B7FA00B2411C23D0204900EB44
:10174000400001EB800001F5966140680844017893
:101750002980417869808178A98090F90310E98017
:1017600090F9040028810220A8721AE001F082FC9E
:10177000076821688F4216D0534632462946B8473B
:1017800078B910E001F096FCD0F800C021688C45D3
:10179000ECD04745EAD2534632462946E047002876
:1017A000E4D00120B2E724685B464A462946A446B5
:1017B000BDE8F04F01485DF804EB6047D404002019
:1017C000E4C100002DE9F04194468846040059D058
:1017D00020792D4D032630B128882CA106EB00403E
:1017E00004F0FEFE41E0206808B93448206000277C
:1017F00053B10146142260469847142809D028881E
:101800002FA106EB004021E0288832A106EB004022
:101810001CE0206801784A2914D141786F2911D140
:10182000817868290ED1C1786E290BD101795F29A1
:1018300008D141794C2905D18179492902D1C17951
:10184000422906D028882AA106EB004004F0C8FEF1
:1018500015E0816841450BD10127677128882AA1CD
:1018600006EB004004F0BCFE27710120BDE8F081CA
:1018700028882BA106EB004004F0B2FE67712068B7
:1018800000B127600020F1E72C050020466F6E7440
:10189000206C696220696E697469616C65642C20D2
:1018A0004E4F206E65656420746F20696E697420E8
:1018B000616E796D6F72650A000000008404022079
:1018C000526561642064617461206572726F720A8E
:1018D00000000000705F6765745F646174615F663B
:1018E000756E6320696E76616C69646174650A0067
:1018F000496E76616C696461746520666F6E7420F0
:1019000066696C650A000000466F6E74206C69623F
:1019100020696E697420737563636573730A0000D0
:10192000212121466F6E74206C6962207665727386
:10193000696F6E206572726F720A00007CB50E4688
:10194000010029484FF00302CC68008802EB0040F8
:1019500005D024B1A168B14203D1E0687CBD23A1C8
:101960001FE02568E5B16969B14219D32A69B2421D
:1019700016D86368A3B1A98B91B1286AA0B16B791D
:10198000012B2AD0324603F08DF900B2411C28D039
:10199000A660296A00EB400001EB8000E0607CBD9E
:1019A0001BA104F01DFE1CE06879012819D1B01AB2
:1019B00080B2A96900EB400001EB400006226946B5
:1019C000984706280DD11848066000994160BDF877
:1019D00004100181C4E902607CBDB01A80B281426A
:1019E000D6D800207CBD00002C05002070466F6E0C
:1019F0007420726F20705F666F6E745F75736572AE
:101A00005F64617461206973204E554C4C00000086
:101A1000706172616D65746572206572726F72209B
:101A20006F72204E554C4C0000FC012070B52029EF
:101A300029D3A1F1090049F61F32174C45F2E335CD
:101A4000904222D20A46F321144803F02BF900B247
:101A5000411C1AD000EB4001104843F6963300EBCE
:101A600081014868098942189A420CD80D4A0C4EE7
:101A700010444FF480633246801DFFF7B9FA401CD2
:101A800003D0304670BD002070BD29466268BDE8B5
:101A90007040014810470000D4040020101E0100CF
:101AA0000C000220742901002DE9F0411F460C466C
:101AB000202A02D20020BDE8F081A2F1090049F6F7
:101AC0001F31184D45F2E336884201D32D6821E0DD
:101AD000F321154803F0E6F800B2411C18D0124972
:101AE00000EB400001EB800001F6643140680844DF
:101AF00001782180417861808178A18090F903107C
:101B0000E18090F9040020810220A0720120D2E738
:101B10002D683B4632462146AC46BDE8F0410148BF
:101B200060470000D4040020101E0100002807D0E8
:101B30000E4910F0FF0F04D051FA80F00078401CDD
:101B4000704710F47F4F04D0C0F30720085C0930C1
:101B5000704710F47F0F04D0C0F30740085C1130C9
:101B6000704701EB10600078193070475FB30000D8
:101B700002E008C8121F08C1002AFAD17047704756
:101B8000002001E001C1121F002AFBD170470000B4
:101B90002DE9F047314E02004FF003073088D56839
:101BA000884607EB004006D02DB1B8F1200F04D2D3
:101BB0000020BDE8F0872AA14DE0DFF8C890546806
:101BC000D9F804309C4209D0296861B16C6864B1CD
:101BD0004869404502D30869404508D94146BDE8F7
:101BE000F0472848184728A135E02CA133E04146AA
:101BF0001046FFF7A3FE60B1048943684CB14FF46F
:101C00008068A41F44450BD930882FA107EB004002
:101C100021E04146D9F80420BDE8F04719481047B3
:101C20006D6822462E49981DA847A04204D03088EE
:101C30002CA107EB00400EE0304AA1B24346144607
:101C40002748FFF7D5F9401C01D02046B1E730887E
:101C50002BA107EB004004F0C3FCA9E72C050020F2
:101C600070466F6E74206F7220705F666F6E745F67
:101C7000757365725F64617461206973204E554CA1
:101C80004C000000D4040020705F666F6E745F69C2
:101C90006E666F206973204E554C4C00705F666F06
:101CA0006E745F757365725F646174612D3E705F01
:101CB0006765745F646174615F66756E63206973E4
:101CC000204E554C4C000000676C7970685F646171
:101CD00074615F73697A6520746F6F206269670051
:101CE0000CFC0120676C7970682064617461206766
:101CF0006574206661696C65640000000C00022058
:101D0000524C45206465636F6465206661696C654B
:101D1000640000002DE9FC5F5FEA00094FF000005D
:101D2000DFF868A10C4698461546009001900CD04B
:101D3000202D6ED35648D9F800100668B1420BD159
:101D400021465348B047BDE8FC9FBAF80010032075
:101D500000EB01404FA13EE0484601F09BF9DFF85F
:101D600044B1002101EB81035BF82360AE4210D146
:101D70000BEB8302127982420BD101EB81010BEB59
:101D8000810050F8061F2160416861608068A06092
:101D90007AE0491C6429E5DBD9F80C70AFB13E68E4
:101DA000E6B1786808B3B8F1FF3F05D07069A84282
:101DB00031D33069A8422ED829464846FFF7BEFDE8
:101DC000B8F1FF3F18D030B318E0BAF80010032084
:101DD00000EB014034A104F003FC1AE0BAF8001053
:101DE000032000EB014037A1F5E7BAF8001003200B
:101DF00000EB014038A1EEE70028A4D04068B8F11C
:101E0000FF3F00D038B17B68062269469847062814
:101E100006D0002097E71E4843462A4606688FE70B
:101E2000002020606060A0603079A0729DF80010F2
:101E300021809DF80510C900B1FBF0F060809DF88D
:101E40000200A0809DF90300E0809DF9040020813C
:101E5000484601F01FF9062816D02A4B196801EBF5
:101E600081060BEB860738714BF82650206847F83F
:101E7000060F60687860A068B8606420491CB1FBF8
:101E8000F0F200FB1210186001205CE72C05002026
:101E9000D404002070466F6E74206973204E554C38
:101EA0004C00000098040220705F666F6E745F75CE
:101EB0007365725F64617461206973204E554C4C88
:101EC00000000000705F666F6E745F696E666F2061
:101ED0006973204E554C4C00705F666F6E745F7571
:101EE0007365725F646174612D3E705F6765745FD6
:101EF000646174615F66756E63206973204E554C32
:101F00004C000000C804002010B504460548406895
:101F1000FFF70CFE0449401E51F830102060A1F17B
:101F2000140010BD78010020ECF301200348016883
:101F3000814201D0012070470020704788010020B5
:101F4000F0B597B005465022174902A8FEF784FA6B
:101F500016A42946204604F0BBFF07460146224648
:101F600014A006F0A7FD384604F0CEFF1BA006F033
:101F7000A1FD02AE2C6811E0207AA17BA4F10C0334
:101F8000132802D856F8200000E01598CDE900018A
:101F9000082239461AA006F08DFD2468AC42EBD128
:101FA00017B00020F0BD000084B4000064657669BD
:101FB00063650000252D2A2E73202020202020205C
:101FC000202074797065202020202020202020727D
:101FD000656620636F756E740A000000202D2D2D3C
:101FE0002D2D2D2D2D2D2D2D2D2D2D2D2D2D2D2D21
:101FF0002D202D2D2D2D2D2D2D2D2D2D0A000000C8
:10200000252D2A2E2A7320252D32307320252D3898
:10201000640A00002DE9FC4106461FA40146204643
:1020200004F056FF8046014622461EA006F042FDFF
:10203000404604F069FF22A006F03CFD356825E02B
:10204000A96805F10800A5F10C04814212D00746E9
:1020500006F077FDA18CCDE9001023460822414609
:102060001DA006F027FD384608F03EFB1F4806F08D
:1020700021FD0AE006F065FDA18CCDE900102346A4
:10208000082241461AA006F015FD2D68B542D7D1A9
:102090000020BDE8FC8100006D7367717565756592
:1020A00000000000252D2A2E7320656E74727920A1
:1020B00073757370656E64207468726561640A007C
:1020C000202D2D2D2D20202D2D2D2D2D2D2D2D2D67
:1020D0002D2D2D2D2D0A0000252D2A2E2A73202589
:1020E000303464202025643A00000000742200008F
:1020F000252D2A2E2A732025303464202025640AB9
:10210000000000002DE9FF41054617A401462046C6
:1021100004F0DEFE80460146224615A006F0CAFC09
:10212000404604F0F1FE1BA006F0C4FC08262C6813
:1021300013E000BFA4F10C0704F1080006F001FD54
:10214000F97F3A6A03900096CDE901213B460822C7
:10215000414618A006F0AEFC2468AC42EAD104B0B7
:102160000020BDE8F08100006D7574657800000006
:10217000252D2A2E732020206F776E65722020680F
:102180006F6C642073757370656E6420746872651B
:1021900061640A00202D2D2D2D2D2D2D2D202D2D6E
:1021A0002D2D202D2D2D2D2D2D2D2D2D2D2D2D2D6C
:1021B0002D0A0000252D2A2E2A7320252D382E2A9F
:1021C0007320253034642025640A00002DE9FC4189
:1021D00006461FA40146204604F07AFE80460146CA
:1021E00022461EA006F066FC404604F08DFE22A0AA
:1021F00006F060FC356825E0A96805F10800A5F146
:102200000C04814212D0074606F09BFCA18BCDE95D
:1022100000102346082241461DA006F04BFC38461C
:1022200008F062FA13A006F045FC0AE006F089FC0B
:10223000A18BCDE9001023460822414618A006F0E4
:1022400039FC2D68B542D7D10020BDE8FC810000E3
:1022500073656D6170686F7265000000252D2A2E10
:1022600073207620202073757370656E6420746807
:10227000726561640A000000202D2D2D202D2D2D6A
:102280002D2D2D2D2D2D2D2D2D2D2D0A0000000055
:10229000252D2A2E2A7320253033642025643A0008
:1022A000252D2A2E2A7320253033642025640A0028
:1022B0002DE9FC41064629A40146204604F008FE0B
:1022C000074601462246274806F0F4FB384604F04C
:1022D0001BFE25A006F0EEFB356839E095F82900D5
:1022E000A5F10C0400902346082239462EA006F0E2
:1022F000E1FB94F8340000F00F00012805D002281B
:1023000005D030B1042806D008E02AA004E02CA0B3
:1023100002E02EA000E030A006F0CCFBA06A01464F
:1023200000E0401C0278232AFBD0E26A401A101A0F
:1023300064235843B0FBF2F3D4F830C0206CCDE9ED
:10234000000CE069081A811826A006F0B3FB2D687E
:10235000B542C3D10020BDE8FC81000074687265FD
:1023600061640000CC680100202D2D2D20202D2D32
:102370002D2D2D2D2D202D2D2D2D2D2D2D2D2D2D9A
:10238000202D2D2D2D2D2D2D2D2D2D20202D2D2DA4
:102390002D2D2D20202D2D2D2D2D2D2D2D2D2D2094
:1023A0002D2D2D0A00000000252D2A2E2A73202510
:1023B00033642000207265616479202000000000F1
:1023C0002073757370656E640000000020696E698B
:1023D000742020200000000020636C6F73652020B3
:1023E0000000000020307825303878203078253003
:1023F00038782020202025303264252520202030E8
:10240000782530387820253033640A002DE9FC41E6
:10241000054619A40146204604F05AFD0646014629
:10242000224617A006F046FB304604F06DFD1EA0C4
:1024300006F040FB2C6814E0A4F10C031F460822B0
:10244000D7E90901CDE90001314620A006F032FBB1
:10245000787AC00701D023A000E025A006F02AFB6F
:102460002468AC42E8D107F003FE014624A006F040
:1024700021FB0020BDE8FC8174696D6572000000DD
:10248000252D2A2E732020706572696F6469632080
:10249000202074696D656F75742020202020202015
:1024A000666C61670A000000202D2D2D2D2D2D2D2D
:1024B0002D2D2D202D2D2D2D2D2D2D2D2D2D202D66
:1024C0002D2D2D2D2D2D2D2D2D2D0A00252D2A2E96
:1024D0002A732030782530387820307825303878C5
:1024E000200000006163746976617465640A00000D
:1024F00064656163746976617465640A0000000054
:1025000063757272656E74207469636B3A307825F6
:102510003038780A000000002DE9F04F89B092466B
:102520008B460646002400E0641C305D202803D062
:10253000092801D05C45F7D34FF0FF387CB3194828
:1025400004F10609184F056811E0062217A1286852
:10255000FDF7E9FF50B9286822463146801DFDF796
:10256000E2FF18B9296811F8090020B10C35386864
:102570008542EAD314E0AC688CB120216846FDF7AF
:1025800084FF6A465946304603F00CFB38B1694671
:10259000A047CAF80000002009B0BDE8F08FFFE7AF
:1025A0004046F9E7280200202C0200205F5F636D9F
:1025B000645F00002DE9F0411E4615460C46069F5B
:1025C000FDF7ACFEDFF850E004EB440271463EF943
:1025D000223001EB8201A34211D1D1F804C0B445ED
:1025E0000DD1B1F802C0AC4509D1D1F808C0BC4545
:1025F00005D100BFFDF796FE0020BDE8F0815B1C11
:1026000003D0FDF78FFE0720F7E72EF822404E603B
:102610004D808F60EEE700007002002010B50C4680
:10262000FDF77CFE0A4904EB440331F92320521CD8
:1026300009D04FF0FF3221F8232001EB8301002263
:102640004A604A808A60FDF76DFE002010BD0000E0
:10265000700200202DE9FC5FDFF8A8B00C464FF0B7
:1026600040094FF0E02A4FF00048012A01D0EAB3B8
:1026700018E0FDF753FE0746234904EB440031F907
:102680002020521C0BD001EB80008078C0F3810029
:10269000012811D002280CD003280FD105E03846BC
:1026A000FDF740FE0620BDE8FC9F204603F088FDB4
:1026B00010B103252E4601E0022501260021CDE9B7
:1026C0000015204633460A4603F0E9FC0F49A020D6
:1026D00081F80004CAF800914FF4BE7003F0A6FD23
:1026E000CBF804833846FDF71DFE08E0FFE74FF402
:1026F000BE7003F09BFDCBF80883CAF880910020E0
:10270000D1E70000006000407002002006E000E019
:102710001CB50846042A0BD2DFE802F0020B0D0FAD
:10272000002100910B4601220191114603F0B7FCF4
:102730001CBD002102E0032100E00121BDE81C4096
:1027400003F0C6BC084603F03BBD38B5012468461B
:10275000009132B103F026FD00998C40C0F8084585
:1027600038BD03F01FFD00998C40C0F80C4538BD02
:1027700010B5110006D0036C4A8809881B68984779
:10278000002010BD4FF0FF3010BD70B51D46140085
:1027900001D0042D01D0002070BD026C2188926808
:1027A00090476080284670BD10B51C46110001D0CE
:1027B000042C01D0002010BD036C4A8809885B6896
:1027C0009847204610BD2DE9F04116460F460446B5
:1027D000002503E03946B047641C6D1C20780028B2
:1027E000F8D12846BDE8F0812DE9FC411F4604469A
:1027F000DDE90831DDE90A65143040600060C4E9B4
:102800000827C4E90A310A46232118461C3406F079
:1028100071FAD4E903014218D4E90101124B121FE5
:1028200006F092F844F81A0B002004F801690F4AE8
:1028300004F8036BE4E8020544F8105901C404F8F5
:102840003C0B01C444F874090090234601901946DA
:1028500004F1440007F0A5FC0548816809B1204651
:1028600088470020BDE8FC81E19C0000ED9F00004E
:102870009001002010B5029C24F001044472C0E9CC
:1028800007120021C0E9093114304060006010BD1A
:10289000F0E905124A60D0E9001211604060006062
:1028A000704700002DE9F041144688460546FDF7C3
:1028B00035FD07462C49A86C08420DD1E86C01682B
:1028C00001291CD001210160286C0B4622460669B3
:1028D00041462846B04742E02846EE6C05F038FDF8
:1028E000844200D30446F088A96C0219C1F38F21F9
:1028F0008A420FD2316822460144404619E06FF007
:1029000006043846FDF70EFD204606F0C7FF0020FE
:10291000BDE8F0810A1A31680144404606F0AAF980
:10292000F088A96C0219C1F38F21521A4144081A88
:10293000316806F09FF9E86C816811B10CB1002193
:102940008160C288111989B2C180AA6CC2F38F223A
:10295000914204D3B1FBF2F302FB1311C18038465C
:10296000FDF7E0FC2046D3E700FCFF0370B5054609
:102970001848854200D9054605F03AFD164CD4F8B2
:1029800004050121284420F07F40C4F80813C4F84E
:1029900040054FF4A0763146204603F0C4FF4FF4C3
:1029A0008035C4F8045307F063FBBFF34F8F20BF9B
:1029B00020BFC4F808533146204603F0B4FFA115E8
:1029C000204603F0B0FF0120C4F80403BDE87040C6
:1029D00005F01CBDFAFFFF0000100140416800290E
:1029E00001D080680847704770B58AB00E4605462A
:1029F0002022464902A8FDF72FFD454CE86B00B1A7
:102A0000044600252069C0F800553168B1F5165F0D
:102A100042D040480890307910F0C00F3ED00E20D0
:102A20008DF81D0007208DF824008DF81C500495AA
:102A30000595A0690390E06902900090684603F054
:102A4000A3FB009A01219140C0F80815029803F0F9
:102A500052FB029803F063FB0022039800952B467B
:102A60001146019503F002FB20690899C0F824156E
:102A70009DF81D009DF81C2021691043C1F86C05CC
:102A8000DDE902122069C0F81425C0F80C159DF884
:102A90001C00012805D00BE01F48BBE78DF81D5036
:102AA000C0E7DDE904122069C0F80825C0F8101558
:102AB0004FF48E71206903F046FF4FF48471206952
:102AC00003F041FF4FF4A271206903F03CFF4FF483
:102AD0009271206903F037FF20691049C0F8041390
:102AE000206903F07BFF9DF82410FEF743FD206969
:102AF00003F074FFFEF731FD20690421C0F80015D2
:102B00000348001F04600AB0002070BDE0B500005B
:102B10003C02002000E0D701005027000402020020
:102B200070B5404BC06B1B681C4600B104462129A0
:102B300057D009DC3C4E4FF0010510291CD011295B
:102B400008D0202904D137E0222952D023294AD0A5
:102B5000012070BD206945602069C0F808632069C4
:102B600003F03CFF00F01F018D404009800000F1A0
:102B7000E020C0F8805153E04FF48471206903F0E5
:102B8000E2FE4FF4A271206903F0DDFE4FF4927172
:102B9000206903F0D8FE2069C0F80463206903F0BF
:102BA0001DFF0721FEF7E6FC206903F017FFFEF783
:102BB000D4FC2069056033E0012A02D0022A07D044
:102BC0002EE021684FF4165048641849206905E04A
:102BD00021684FF4E130486415492069C0F8241594
:102BE0001EE0A3421CD0206800F14401FFF7FCFE68
:102BF00016E020690021C0F8001521694FF0FF3070
:102C0000C1F81405C1F80C05A06903F088FAA069A1
:102C100003F071FAE06903F082FAE06903F06BFAFD
:102C2000002070BD3802002004020200005027007E
:102C300000E0D70170B50C49C06B4FF0FF350C6850
:102C400000B104464FF484763146206903F076FEE5
:102C500038B13146206903F076FE2069D0F81805B6
:102C6000C5B2284670BD00003802002070B50D4680
:102C70000C49C06B0C6800B104464FF48E763146A7
:102C8000206903F060FE2069012181602069C0F89D
:102C90001C553146206903F051FE0028F9D001206F
:102CA00070BD00003802002072B603F047FD00BF7F
:102CB00003F08AFB0028FBD1104C0121208801EB96
:102CC00000400FA103F08CFC10480068C00700D042
:102CD00000BE2088022101EB00400DA103F080FC22
:102CE000BFF34F8F0948E43801680D4A01F4E061F1
:102CF00011430160BFF34F8F00BFFDE72C0500209B
:102D0000466174616C206572726F7200F0ED00E0D4
:102D100053797374656D20726573657400000000EB
:102D20000400FA050EB500210091CDE901106A46B4
:102D300044F20100FFF7B8FF0EBD00007FB500248C
:102D40009020CDE900043B4A0C233BA1A2F13400C2
:102D500005F0F3FF08B1FFF7E5FF6FF07F40CDE925
:102D6000000434480023364A36A1B43007F019FA7B
:102D700037A006F0E1FF10B1374806F08DFF34A010
:102D800006F0DAFF14244FF4806598B93249032025
:102D90007831CDE90015CDE9020400232F4A2CA19A
:102DA0002D4807F079F810B1FFF7BCFF02E02A4880
:102DB00007F0DEF823A006F0BFFF10B1264806F0AA
:102DC0006BFF20A006F0B8FFA0B90420CDE90204F3
:102DD0002349CDE9001522480023224A19A1783859
:102DE00007F05AF810B1FFF79DFF03E01C48783850
:102DF00007F0BEF8184800231A461BA1203806F039
:102E0000D9FA08B1FFF78EFF13487038006A68B925
:102E100011484C38C0690028FDD00F48002214A189
:102E2000703806F08BF808B1FFF77CFF04B0002083
:102E300070BD000070C701206576746D717400006C
:102E4000CD36000065767474696D6572000000000F
:102E50006576747461736B0070C80120792E000070
:102E600060CD0120F130000065767473656D00005F
:102E70006D757465780000000EB50B4C4FF0FF3691
:102E8000002533460C226946084805F087FF0028D4
:102E9000F7D10298A0600198606002990098884775
:102EA000A5606560EDE70000080000203CC7012038
:102EB0003EB505460C4607A006F03EFF002807D0A9
:102EC0000C22694605480295009405F0EFFFC0B258
:102ED0003EBD00006576747461736B003CC70120D1
:102EE0002DE9F84307460E4603EB4300C0EBC31041
:102EF0004FF4FA7101EBC0004900B0FBF1F500247A
:102F00009046012D05D831463846FFF7D1FFBDE880
:102F1000F8831E4806F072F808B1FFF703FF1C485B
:102F200050F8241019B1641C402CF9DB12E0402C3D
:102F300010DA40F8247000EB8407C7F80061C7F886
:102F4000008307F095F813490968401A0090284457
:102F5000C7F800020D4806F005F808B1FFF7E2FED9
:102F6000402C03DB0120FFF7DDFED0E707482430CB
:102F700007F09EF905486A460021243007F0D2F890
:102F80000248503006F028FAC1E7000000C80120CE
:102F900060D101200800002038B5054600244FF418
:102FA0007A71184806F02AF808B1FFF7BBFE002135
:102FB00015480A4650F82130AB4202D140F8212092
:102FC0000124491C4029F5DB0E4805F0CBFF08B170
:102FD000FFF7A8FE9CB107F04BF80C490968401AAE
:102FE00000900848243007F063F906486A4600213B
:102FF000243007F097F80348503006F0EDF92046EA
:1030000038BD000000C8012060D101200800002068
:1030100010B5124B124A1349002000F05DFB114914
:1030200004460E4B104A1031012000F055FB0D49AB
:1030300004440A4B0D4A2031022000F04DFB09499F
:103040000444064B0A4A3031032000F045FBE042BD
:1030500001D0002010BD012010BD0000054C000073
:10306000C0C10000C0FB012020B60000EC1D010023
:10307000281B01000148C06870470000B004002010
:10308000062803D2024951F82000704700207047FB
:10309000B00400200146064A002000BF52F820304C
:1030A0008B4204D0401CC0B20628F7D306207047DC
:1030B000B00400200148806870470000B004002080
:1030C000302801D306A07047084A131F1B7852F816
:1030D0002320526810580278002AF4D1084670471D
:1030E0006E6F206B65796E616D650000F8040020DD
:1030F0001CB53A4C4FF0FF394FF47A7A4FF0000884
:103100006FF000474946364806F088F93448CDE963
:103110000078464601AA01212C3807F003F8304810
:103120005146503805F06AFF08B1FFF7FBFD002556
:1031300054F82500D8B104EB8501D1F8002201989C
:10314000824205D9D1F80022101AC1F8000201E02C
:10315000C1F80062D1F8000248B954F8250044F8DB
:103160002560D1F80023D1F80011FFF7A1FE6D1CF6
:10317000402DDDDB5FF0000554F8250078B104EB4D
:103180008506D6F8000210B90020FFF7CBFDD6F86F
:1031900000020099884202D2D6F8000200906D1C0D
:1031A000402DE9DB0E48503805F0DCFE08B1FFF792
:1031B000B9FD0098B842A5D00028A3DD08486A46AA
:1031C00000212C3806F0AEFF05482C3807F00CF82B
:1031D00006F04EFF0349086094E7000060D101202B
:1031E00050C8012008000020401A20F07F4070479E
:1031F00038B504467AB1626059B1062000900023C8
:103200002246064906A006F0A5FF206018B100205E
:1032100038BD0420F2E7072038BD0000DD2900009A
:1032200061707074696D65720000000038B5044605
:1032300001EB4100C0EBC1104FF4FA7101EBC0008B
:103240004900B0FBF1F00090012811DB206878B153
:10325000407AC00701D0002038BDA2606A46002134
:10326000206806F05FFF206806F0BEFF0028F3D05C
:10327000072038BD10B528B1006818B107F018F85C
:10328000002010BD072010BD00F002B800F008B803
:1032900072B602480168491C016070479C0000201A
:1032A00003490868401E086000D162B670470000FC
:1032B0009C00002070B503F037FC08B1FFF732FD29
:1032C0004FF4FA750A4C02E0052006F0C3FC2078A2
:1032D00010B96D1EADB2F7D2002020700548032151
:1032E0000088BDE8704001EB004003A103F078B90D
:1032F000300000202C05002065726173696E670044
:1033000000B585B014220D496846FDF7A5F80022E6
:103310000B49684603F012FC08B1FFF703FD0948AA
:103320000321008801EB004007A103F059F900F0E8
:1033300093F90B490020087005B000BD60B1000092
:10334000C17C00002C050020515350492065786154
:103350006D706C6520737461727465642E0000007A
:10336000300000202DE9F04792460C460646DFF873
:10337000548022E0FF2C01D8204601E04FF48070F9
:1033800085B252462946304603F046FCB0F10009AA
:1033900001D0FFF7C7FC4FF4FA7702E0052006F0F2
:1033A00059FC98F8000010B97F1EBFB2F6D2002178
:1033B00088F80010AA442E44641B002CDAD1484639
:1033C000BDE8F087300000202DE9F04790460C461C
:1033D0000546DFF868902BE008F0FF00C0F580702C
:1033E000844200D2204686B242462146284603F057
:1033F0002BFCB0F1000A01D0FFF794FC4FF4FA77F0
:1034000002E0052006F026FC99F8000010B97F1EA6
:10341000BFB2F6D2002189F8001009480321B04458
:103420000088354401EB0040A41B06A103F0D8F846
:10343000002CD1D15046BDE8F087000030000020BC
:103440002C050020646174612077726974696E676D
:10345000202E2E2E0A0000002DE9F0470546861C7E
:1034600090460F464FF001090020FFF70DFF1B4C5F
:1034700020683860D4E90001401AA16804F5077794
:10348000081A0EE00121384602F0FAFB02F0EAF8D1
:103490000146384602F0F4FBD4E90001401AA16865
:1034A000081A401C8642EDD8B8F1000F03D0052061
:1034B00065F3891002E0062065F39F50A268216839
:1034C000114004EB8101C860206830442060002076
:1034D000FFF7DCFE4846BDE8F087000054EC012011
:1034E00030B482680468531C8360A154D0E901128F
:1034F0008A4202D330BC02F08EBC30BC7047000060
:10350000034803C8814201D1012070470020704761
:1035100054EC012010B51BA005F0CCFA1C4C21780E
:103520001CA005F0C7FA2078C00702D01FA005F044
:10353000C1FA2078800702D51FA005F0BBFA2078D9
:10354000400702D51FA005F0B5FA2078000702D584
:1035500020A005F0AFFA2078C00602D520A005F023
:10356000A9FA2078000607D509480F300168BDE8A0
:1035700010401DA005F09EBABDE810401EA005F049
:1035800099BA0000627573206661756C743A0A001E
:1035900029ED00E05343425F434653525F42465396
:1035A000523A3078253032582000000049425553B5
:1035B00045525220000000005052454349534552A5
:1035C00052200000494D5052454349534552522024
:1035D00000000000554E53544B455252200000004D
:1035E00053544B45525220005343422D3E424641D4
:1035F000523A253038580A000A00000070B5084CCD
:10360000050009D010342168002907D0086820601F
:10361000496828468847F6E70834F4E770BD00009B
:1036200078EE0120054A012120B1012805D19170D1
:10363000FFF7E4BF51700020FAE7704778EE0120F1
:1036400010B501F0B9FE002010BD10B501F0F1FF7A
:10365000002010BD002070470EB5164940F2022030
:10366000ADF80800D1E90001CDE9000100221146C2
:10367000684603F0C7F908B1FFF754FB99208DF8AD
:10368000000000221146684603F0BCF908B1FFF7BC
:1036900049FB01208DF8000003208DF80100002275
:1036A00002A9684603F0AEF9002801D0FFF73AFB03
:1036B0000EBD000058B1000010B50021024802F014
:1036C000EAFA80F3100010BD70EE0120014805F009
:1036D00083BE000050C801202DE9F0410C46184976
:1036E00000EB800001EB80051F461646142128469A
:1036F000FCF7CBFEA7B13B46002212491248FEF769
:1037000061F8A8B1C5E900677089608130892081BE
:103710000E4860600E48E56020600020BDE8F08142
:103720000C480321008801EB00400BA102F058FF78
:10373000104A0FCA84E80F004FF0FF30EEE7000098
:103740000C040220D73BA56DCC040020911B000087
:10375000151D00002C050020705F6765745F6461B3
:1037600074615F66756E6320696E76616C69646111
:1037700074650A00D4040020026812B18A4204D998
:103780004A600160704728B1024650688842FAD901
:1037900000B148605160704730B500684A6801F177
:1037A0000803884221D003E044688C4203D02046BD
:1037B0000028F9D119E0C0B1046800F108052544DA
:1037C0008D4212D152B10D682B44934206D111683B
:1037D0006319103119440160516804E00A682244F9
:1037E000083202604968416030BD002AFCD0086898
:1037F00003449342F8D113681844083008605068B5
:10380000486030BD02688A420BD14A6802600020DD
:10381000486070475068884202D1486850607047DD
:103820000246002AF6D170472DE9F05F04006FD000
:10383000206908B1FFF7F8FF217800200122252335
:10384000262627272825DFF8F4864FF0220A4FF096
:103850002D0B4FF029094FF02E0E1C2970D2DFE8F6
:1038600001F06F0EA1A7A7A7A7B9CDDBF9F1F0EF83
:10387000EEEDECEBEAE96FE8E7E6E5E4A0E3A1783A
:10388000480718D5D8F80400242100F8011BA168C6
:10389000097A00F8011BA1680989090A00F8011BCF
:1038A000A1688968090C00F8021BA1688968090EE3
:1038B00000F8011CCFE28807A0683AD5002870D034
:1038C000027AD21E0C2A6CD2DFE802F00606231B15
:1038D0001B2323232323232309071CD4D8F80410F4
:1038E00001F8013BC8F80410027B01F8012B828922
:1038F000120A01F8012BC268120C01F8022BC068F1
:1039000034E0090707D4D8F8041001F8016BE9E79F
:1039100001E3090705D5D8F80410242201F8012B8A
:10392000E0E7D8F8041001F8017BDBE701F8010CAF
:10393000F6E10028C3D0427CD21E0C2AC3D200E09C
:10394000FAE2DFE802F006061C15151C1C1C1C1C04
:103950001C1C090705D5D8F80410242201F8012BF6
:1039600013E0D8F8041001F8013B0EE0000EDDE78B
:103970000907F0D4D8F8041001F8016B05E0090735
:10398000E9D4D8F8041001F8017B1430C8F8041009
:1039900001F8010B020A01F8012B020C01F8022BBD
:1039A000E4E7BFE1D8F8040000F801AB217920E09A
:1039B000D8F80400242100F8011B217900F8011B2C
:1039C000A188090A00F8011B6168090C00F8021BB4
:1039D00061686CE76078012804D0022807D00328CA
:1039E0000AD094E2D8F8040000F8012B33E2022157
:1039F0009FE200F8011B2EE203219AE26078012881
:103A000004D0022804D0032804D080E2042190E2EC
:103A100005218EE206218CE26078012814D002286C
:103A200014D0032814D072E25EE266E2E2E17AE1A9
:103A300011E1BBE08EE07DE06EE05FE050E041E050
:103A400032E023E014E005E00D2172E20E2170E285
:103A50000F216EE26078012804D0022804D00328E8
:103A600004D054E2072164E2082162E2092160E205
:103A70006078012804D0022804D0032804D046E24C
:103A80000A2156E20B2154E20C2152E2607801280F
:103A900004D0022804D0032804D038E2102148E2E0
:103AA000112146E2122144E26078012804D0022864
:103AB00004D0032804D02AE213213AE2142138E288
:103AC000152136E26078012804D0022804D00328AA
:103AD00004D01CE216212CE217212AE2182128E248
:103AE0006078012804D0022804D0032804D00EE214
:103AF00019211EE21A211CE21B211AE2607801281A
:103B000004D0022804D0032804D000E21C2110E2D3
:103B10001D210EE21E210CE26078012804D002284B
:103B200004D0032804D0F2E11F2102E2202100E2A8
:103B30002121FEE120690021002892D0C06801E027
:103B4000C068491C0028FBD1D8F804002C2200F8DA
:103B5000012B4EE7206910B10178012903D00178CB
:103B6000192914D0D3E1407814E0032817D003209A
:103B700000F01AFACBE100BFD8F8040000F8015BAE
:103B8000CEE100BFD8F8040000F8019BCDE14078F9
:103B900000F00F000128EFD00228F3D0E5E7D8F8B5
:103BA00004002A2100F8011B2F2122E721690029A6
:103BB0008FD091F800C0BCF1010F8AD1D1F808C0B4
:103BC0006178012904D0022917D003298FD12AE076
:103BD000D8F804000CF1140C4FEA1C21037080F893
:103BE00001C081704FEA1C41C1704FEA1C61017134
:103BF00080F805A08271C27154E0D8F804100CF16D
:103C0000140C4FEA1C230E7081F801C08B704FEA30
:103C10001C43CB704FEA1C630B7123234B718A71D9
:103C2000C871022058E0D8F804100CF1140C4FEAC7
:103C30001C230F7081F801C08B704FEA1C43CB70BE
:103C40004FEA1C630B7124234B718A71C87108728F
:103C5000487203205EE02169002963D091F800C01A
:103C6000BCF1010F5ED1D1F808C06178012904D000
:103C700002291CD0032955D135E0D8F804000CF1F5
:103C8000140C4FEA1C21037080F801C081704FEAC8
:103C90001C41C1704FEA1C61017180F805A082715E
:103CA0000421C17105722F2141720A30D3E0D8F886
:103CB00004100CF1140C4FEA1C230E7081F801C0A3
:103CC0008B704FEA1C43CB704FEA1C630B712323AC
:103CD0004B718A71C8710520087281F809902F20F4
:103CE00088720B311CE0D8F804100CF1140C4FEA68
:103CF0001C230F7081F801C08B704FEA1C43CB70FE
:103D00004FEA1C630B7124234B718A71C8710872CE
:103D10004872062088722A20C8722F2008730D313D
:103D2000C8F80410F3E02169E9B391F800C0BCF1D0
:103D3000010F38D194F801C08968BCF1010F06D099
:103D4000BCF1020F1CD0BCF1030F2CD134E0D8F829
:103D500004001431242606700F0A417087700E0C7F
:103D6000C6704FEA116C80F804C043718171C7714D
:103D7000067280F809C080F80AA0C272027366E079
:103D8000D8F80430143124251D700F0A59709F7023
:103D90000D0CDD704FEA116C83F804C05E719971EF
:103DA000DF711D7200E058E083F809C02321997289
:103DB000DA72187302206AE0D8F8043014314FF038
:103DC000240983F800900E0A59709E700D0CDD7066
:103DD0004FEA116C83F804C05F719971DE711D7236
:103DE00083F809C083F80A90DA72187358739873CD
:103DF000032070E0216981B391F800C0BCF1010F8C
:103E00002BD194F801C08968BCF1010F06D0BCF138
:103E1000020F23D0BCF1030F79D13FE0D8F80400A2
:103E20001431242606700F0A417087700E0CC6707C
:103E30004FEA116C80F804C043718171C77106723A
:103E400080F809C080F80AA0C2720421017345738A
:103E50002B2181730F30C8F8040058E0D8F80430E3
:103E6000143124251D700F0A59709F700D0CDD70E0
:103E70004FEA116C83F804C05E719971DF711D7295
:103E800083F809C023219972DA72187305205873D8
:103E900083F80E902B20D873103322E0D8F804302A
:103EA00014314FF0240983F800900E0A59709E7067
:103EB0000D0CDD704FEA116C83F804C05F719971CD
:103EC000DE711D7283F809C083F80A90DA721873E4
:103ED000587398730620D8732A2018742B205874AE
:103EE0001233C8F8043012E0D8F8041001F8010BBE
:103EF00001F8010B01F8020B18E5A078000706D4C1
:103F0000607801280AD002280DD0032810D0E0687C
:103F100008B1FFF789FC0020BDE8F09FD8F8040045
:103F200000F801BB97E7D8F8040000F801EB92E72E
:103F30002F21D8F804005CE5082019E6BC01002018
:103F40002DE9F0410446002100F07BFD80210D4861
:103F5000FCF79BFA0C480D4D0026066028600948C6
:103F600068605CB12B272046E468C660FFF75CFC04
:103F700024B1686800F8017B6860F4E70020BDE8C0
:103F8000F081000068FA012068F90120BC010020DE
:103F90000148007870470000C4010020014900205A
:103FA00008707047C4010020014908700020704764
:103FB000C4010020014951F820007047C8010020C9
:103FC00010B500F073F900F0E1F8FFF7E7FF00200B
:103FD00010BD0000104810B5416891F82110890704
:103FE00003D40E490020087013E0016821B180223B
:103FF0000A48FCF761FA0CE001F0CEFD08B108A117
:1040000000E009A10548FCF785FA09A10348FCF77F
:1040100047FA024810BD000020020020E8FA012003
:104020006D7368200000000066696E7368200000F0
:104030003E0000002DE9F0412A4FC01C20F003058E
:1040400005F108063C6800E064681CB12068B042D5
:10405000FAD926E0DFF890807C6819E00021434619
:1040600004F1080201EB410003EBC00090F811C01D
:10407000BCF1000F02D04069904202D0491C0829CF
:10408000F0DB20466468082902D1083000F02EF8E1
:10409000002CE3D13C6800E0646804B32068B042BF
:1040A000FAD321686019491B083940F8081F2560B8
:1040B00061684160606021460A48FFF7A3FB002069
:1040C000606008482146001DFFF756FB04F1080018
:1040D00029460446FCF7D9F92046BDE8F0810020C6
:1040E000FBE7000004020020A8F8012010B5083802
:1040F000044601460748FFF785FB06482146001F96
:10410000FFF73AFB21460348BDE81040001FFFF7C8
:1041100043BB00000802002010B580210648FCF7D0
:10412000B4F906490448782208600260002242601F
:1041300010464A6010BD0000E8F60120040200208D
:1041400010B500F0B3F800F021F800F0E9FCFFF73B
:1041500025FFFFF7E1FF002010BD00000A4A002103
:1041600001EB810312F8233013B1491C1029F7DB4E
:10417000102906D001EB810102F8210002EB810039
:10418000704700207047000068F7012010B54FF419
:10419000A0710248FCF779F9002010BD68F70120F2
:1041A00010B504460220FFF7D9FF08B1047110BD15
:1041B0000620FFF7F9FE002010BD70B50646002569
:1041C00000F0E8FC040001D001260CE0304600F0CD
:1041D00021FA040001D0022605E0304600F08AF9F9
:1041E00004000CD004260120FFF7B8FF05000AD018
:1041F000012E0DD0022E0BD0042E0AD108E00D2086
:10420000FFF7D2FE06E00620FFF7CEFE002070BDCD
:10421000AC60AE70284670BD10B504460320FFF7B1
:104220009DFF08B1446010BD0620FFF7BDFE0020D1
:1042300010BD10B504460420FFF790FF08B144609C
:1042400010BD0620FFF7B0FE002010BD10B50446DB
:104250000620FFF783FF08B1446010BD0620FFF77A
:10426000A3FE002010BD70B505460520FFF776FFC0
:10427000040016D02846FCF72BF9401CFFF7DAFEA5
:1042800060602846FCF724F9024629466068FCF77E
:1042900013F92846FCF71CF9616800220A542046ED
:1042A00070BD0620FFF780FE002070BD10B59C2178
:1042B000FCF7EBF8002010BD70B5054602C00024E5
:1042C00000F0AAFB281D00F0B0FB01263CE01F28EF
:1042D00016D0142820D015281ED016281CD0172838
:1042E0001AD0182818D0192816D06E71D5F8980051
:1042F00070B1284603F069F9E06050B304461CE051
:104300006E71D5F8980018B1284603F05EF90BE0FD
:10431000284603F05AF90DE06E71D5F89800002890
:10432000284605D003F01FFBE0600028E6D104E03A
:1043300003F019FB0446C5F89800D5F8980000284A
:1043400006D0281D00F071FB212801D02028BED105
:1043500070BD281D00F069FBEFE7000070B5064650
:1043600024480C46406890F82100C00702D022A0E3
:1043700004F0A0FB21463046FFF79EFFFFF708FE42
:1043800060B1FFF705FEFFF715FE01461BA004F024
:1043900091FB00BFFFF7FCFD28B125E0D6F898009F
:1043A000FFF7CEFDF6E700F011FC00F09DF8C0B27B
:1043B00021385D280ED200F097F8054600F094F8F9
:1043C000044600F091F8C1B22B4622460CA004F03E
:1043D00071FB09E000F088F8044600F085F801461A
:1043E00022460CA004F066FB3046BDE87040FFF7A3
:1043F000E7BD0000200200200A00000025730A002B
:1044000009272563272C2025642C20307825303877
:10441000780A00000925642C203078253038780A85
:1044200000000000034810B5406804F0D5FF0020EC
:1044300010BD00002002002070B5044603F0A8FE65
:1044400005002CD0194C6068D0F8A802A8422CD0E6
:1044500040F24311284603F0C5FE002825D16068CC
:10446000D0F8A80238B103F07BFE60680021D0F8D4
:10447000A80203F058FF6068502100F51570FCF7A2
:1044800004F86068002180F8A41280F8A512C0F832
:10449000A8522846BDE87040054903F044BF2146B4
:1044A000BDE8704003A004F005BB70BD20020020F1
:1044B0002544000066696E73683A2063616E206E61
:1044C0006F742066696E64206465766963653A205E
:1044D00025730A000349496811F8212F60F341024E
:1044E0000A707047200200200148006870470000F1
:1044F00068F9012070B505461048114E046805E0C2
:1045000029462068FBF7EBFF30B10C343068844259
:10451000F6D30C4804680BE0204670BD2846FBF734
:10452000D7FF024629466068FBF7FDFF20B12468EB
:10453000002CF3D1002070BD201D70BD280200208A
:104540002C02002010020020024A10600248016084
:1045500070470000280200202C0200207CB518497A
:104560001848FFF7F1FF1849184800F049F84FF4D0
:104570002B71012003F018FC154C6060D0B10A21AA
:104580000620CDE900014FF400630022114912A07A
:1045900005F03CFB054600231A4611A1606804F0B3
:1045A00009FF0120FFF796FF15B1284605F0E0FC52
:1045B00000207CBD0CA004F07DFA4FF0FF307CBDE4
:1045C000FC7A01001C7901003C7B01001C7B01008E
:1045D0002002002069460000747368656C6C00005E
:1045E00073687278000000006E6F206D656D6F72E9
:1045F0007920666F72207368656C6C0A0000000099
:10460000024A10600248016070470000300200203A
:104610003402002070B505461048114E046805E0CC
:1046200029462068FBF75BFF30B1103430688442C4
:10463000F6D30C4804680BE0204670BD2846FBF713
:1046400047FF024629466068FBF76DFF20B12468EA
:10465000002CF3D1002070BD201D70BD3002002061
:10466000340200200C020020E14C08B5606890F88C
:10467000211041F0010180F8211000F5DC70FFF7F6
:104680005FFD6068D0F8A80220B903F01DFC08B1F6
:10469000FFF7D2FEFFF79EFC04F00CFA4FF0FF3656
:1046A000002703E03146606804F0B8FE606801232B
:1046B0006A46D0F8A802314603F00AFE0128F1D17B
:1046C0009DF800501B2D07D0606890F8201001293C
:1046D00007D002290ED017E06168012081F8200080
:1046E000E4E75B2D02D080F820700DE0022180F815
:1046F0002010DBE780F82070412D3FD0422D59D0AB
:10470000442D7CD0432D7BD0002DCFD0FF2DCDD09C
:10471000092D76D07F2D75D0082D73D00D2D72D038
:104720000A2DFCD090F8A412502901D380F8A4726D
:1047300090F8A53290F8A4128B4271D2CA1A00F5F3
:10474000157100F255201944184404F0B9FA606854
:1047500090F8A51200F515700D54606890F82110BE
:10476000C90707D090F8A51200F515700144A1A063
:1047700004F0A0F9616891F8A55214E1418C002978
:1047800094D0491E89B2418401EB810100EB0111F3
:10479000502200F515702631FBF75EFE606800F5CB
:1047A0001570FBF795FE616881F8A40281F8A502F7
:1047B000084621E0818C428C0B46491E8A4202DA6F
:1047C000521C428402E0002B8AD04184418C50224A
:1047D00001EB810100EB011100F515702631FBF7AB
:1047E0003BFE606800F51570FBF772FE01466068DD
:1047F00080F8A41280F8A51205F008FF56E703E040
:104800000FE021E04DE08DE090F8A5020028F5D002
:1048100079A004F04FF9606890F8A512491E10E0E5
:10482000C7E090F8A51290F8A4229142E6D200F5D4
:104830001570095C71A004F03DF9606890F8A5124C
:10484000491C80F8A51231E7002503E06AA004F0B6
:1048500031F96D1C606890F8A502A842F6DC656825
:1048600067A005F5157504F025F901F095F9012803
:10487000284613D000F0E8FDFFF7ACFB01462A46BE
:1048800060A004F017F9606800F51570FBF720FED2
:10489000616881F8A40281F8A50207E701F0AAF88F
:1048A000EAE790F8A5120029A8D090F8A422491EA2
:1048B000521ED2B2C9B280F8A42280F8A5128A4250
:1048C00026D900F2552300F51570521A0B440844FE
:1048D000194604F0F5F9606890F8A41200F5157017
:1048E0000F54606890F8A51200F51570014447A0B8
:1048F00004F0E0F8606890F8A55203E03EA004F0F0
:10490000D9F86D1C606890F8A402A8429BDBF5E71B
:1049100040A004F0CFF8606890F8A41200F515707C
:104920000F54C3E605F088FE01F036F9012811D0D6
:1049300061683B2291F8A43201F515715A54606800
:1049400090F8A412B9B100F5157100F5DC70FFF70D
:1049500005FD17E06068254690F82100C00702D0E9
:1049600027A004F0A7F8686890F8A41200F5157065
:1049700001F09EF806E090F82100C00702D020A0C8
:1049800004F098F8FFF726FB04F094F860685021D3
:10499000254600F51570FBF778FD686823E016A042
:1049A00004F088F86D1C606890F8A402A842F6DC58
:1049B0000BE000F515700D54606890F82100C007F9
:1049C00003D029460DA004F075F8606890F8A41291
:1049D000491CC9B280F8A41290F8A522521C80F894
:1049E000A52250299DD380F8A47280F8A5725DE6B7
:1049F000200200202573000008000000256300004D
:104A00000A000000257325730000000008257320AC
:104A1000200800000820080070B50D4604469421C7
:104A2000FBF733FDC4F8905070BD10B504464078D4
:104A300010B10020607002E0204606F0BFF8207A36
:104A400010BD70B504000D4632D02078132808D070
:104A5000152806D0162804D01A2802D0192803D009
:104A600006E00821206904E015B10021206900E07A
:104A70002069FFF7E6FF0021E068FFF7E2FFA0787A
:104A8000042801D02843A070206910B140786070DC
:104A90000EE020780122032101280BD0022834D017
:104AA000032836D0042834D0052832D0062830D048
:104AB000002070BDA0784FF00003C6074FF002053C
:104AC0000FD0A0680028F3D0407C0F2823D2DFE865
:104AD00000F0221A201C1C201E1E20202020202036
:104AE00020008007E4D5A0680028E1D0007A0F28D4
:104AF00011D2DFE800F010080E0A0A0E0C0C0E0EA0
:104B00000E0E0E0E0E006370D2E76270D0E7657075
:104B1000CEE76170CCE70320FFF746FAC8E7000054
:104B200010B5C0210248FBF7B0FC002010BD00000A
:104B3000A8F801202DE9F0474FF0FF38144E8946C0
:104B400082464446002500BF05EB450006EBC00049
:104B5000074610225146FBF7E6FCB8B1787C10B945
:104B6000601C00D12C466D1C082DEDDB601C0DD0A7
:104B700004EB440006EBC000054610225146FBF74B
:104B80009BFC85F811902046BDE8F0874046FBE786
:104B9000A8F8012070B50C4D0646002404EB440033
:104BA00005EBC00010223146FBF7BDFC10B1641CC0
:104BB000082CF3DB082C04D004EB440005EBC00008
:104BC00070BD002070BD0000A8F8012070B50A4833
:104BD0000A4C00F580750A4EC4E9010506E000BFE5
:104BE00010F8011BA06056F821008047A068411B07
:104BF0008029F5D370BD000068F901201002002063
:104C0000D4B4000010B514460B460246E11C184609
:104C1000FEF7A8FB204610BD38B504468DF800000D
:104C200069460320ABBE204638BD000010B5124CCB
:104C30002068800702D511A003F03CFF20684000E7
:104C400011D50D48C01E007808B1FEF763FC0A4874
:104C5000001F007808B100F00DFE0748801E008894
:104C600008B106F01BF92068002804DABDE81040FE
:104C700008A003F01FBF10BD2CED00E06661696C59
:104C8000656420766563746F722066657463680A74
:104C9000000000006465627567206576656E740AC1
:104CA0000000000070B50446B2FBF1F001FB1020DB
:104CB00083B218464FF0FF3609E095420ED0401CF3
:104CC000B0FBF1F501FB150080B2984205D000EB76
:104CD000400554F82550002DEFD1304670BD00003E
:104CE00010B502A003F0E6FE002010BD48656C6C14
:104CF0006F2052542D546872656164210A000000CF
:104D00002DE9FC5F0E008346DDE90C47C6F100008B
:104D100098469246814600D40846012503E000BF2C
:104D200090FBFAF06D1C5045FADAA84500D94546CB
:104D300024B1002E01DB780700D5641EB80702D528
:104D4000B8F1000F0AD0F80708D13CB1A54205D24E
:104D500020215846641EFEF7C3FBF6E7002E02DA58
:104D60004E462D2102E0780703D52B215846FEF749
:104D7000B7FB07F0030002280BD1B8F1000F08D1F0
:104D80003CB1A54205D230215846641EFEF7A8FB6F
:104D9000F6E7CDE90047434652463146584606F00D
:104DA00023F8BDE8FC9F024600201268930702D05A
:104DB000530702D47047500714D502F003000128AE
:104DC00002D002280CD105E0C2F383100B68801CCE
:104DD000184404E00223086803EB92521044086070
:104DE00001207047086800EB9253C2F38910401C01
:104DF000EEE70268134602E08A4204D01268002AF5
:104E0000FAD10B6001607047C0F3871110B500F054
:104E10003F000B280AD1022908D1054C0E20217829
:104E200004F024FA207880F00100207010BD00000A
:104E30001800002070B588B01422314902A8FBF791
:104E40000BFB4FF0A050049026208DF80B00FF20A4
:104E50008DF80A0028208DF80900272003258DF8F9
:104E600008008DF8145025208DF816000126002426
:104E70008DF8186008208DF819008DF80C40234635
:104E8000224602A91F4801F0F7FE08B1FDF74AFFCC
:104E9000CDE90054012200231146272001F0B4F887
:104EA000CDE90054012200231146282001F0ACF87E
:104EB000292001F090F901222920009400231146B5
:104EC000019401F0A1F80F2004F0FEFF29200090CA
:104ED000684601F03DF900998E40C0F80C65052048
:104EE00004F0F2FF292001F076F9782004F0ECFFBD
:104EF0000448083000F008F808B0002070BD000039
:104F0000ACB2000074B100001FB5044611480FC8D0
:104F10008DE80F0007E0012809D0022806D160685B
:104F200004F0D2FF0C3420780028F4D11FBDD4E95E
:104F300001210948FBF790FA6068019001230022E3
:104F40006946064801F0BEFF0028EBD0FDF7EAFEF7
:104F5000E8E700009CB2000084E9012074B1000081
:104F60002DE9F04186B01D461446DDF8308000F092
:104F700035F8184A01AE012307CA86E8070004A8DD
:104F800000902C208DF8100000226946124801F094
:104F900099FF08B1FDF7C6FE6C43670000254FF688
:104FA000FE7611E07C1BB44200D3344608EB0500CA
:104FB000CDE9000400231A466946074801F082FF44
:104FC00008B1FDF7AFFE2544BD42EBD306B0BDE806
:104FD000F0810000D4B2000074B1000070B51F4E23
:104FE0001D460C4686B04ACE0DF10C0C8CE84A00EA
:104FF0002A218DF80010010A8DF801108DF80200A9
:105000001044401E010A8DF803108DF80400CDF8FD
:1050100008D00123002202A9114801F053FF08B172
:10502000FDF780FE2B208DF80000200A8DF801008E
:105030006019401E010A8DF802408DF803108DF8AA
:1050400004000123002202A9054801F03BFF0028CB
:1050500001D0FDF767FE06B070BD0000C4B20000CD
:1050600074B1000010B51F2806D01E2806D02928CC
:1050700007D0282807D00AE0002100E001210F20F6
:1050800003E0002100E00121102004F0EFF80020EF
:1050900010BD000070B504F0EBFF0C4C054610206D
:1050A000217904F0E3F8207980F001002071AFF25B
:1050B0001B00FDF771FF95224FF4FA730021AFF248
:1050C0002B00FDF70DFF256170BD000018000020CA
:1050D00010B50121102004F0C9F8BDE810400148C6
:1050E000FDF75ABF9550000010B500210D2004F0C7
:1050F000ABF800210E2004F0A7F800210F2004F0E7
:10510000A3F80021102004F09FF801210D2004F0E5
:10511000ADF801210E2004F0A9F801210F2004F0C0
:10512000A5F80121102004F0A1F80B210023054A65
:10513000084604F06DF801210B2004F079F80020F6
:1051400010BD0000094E000010B504F091FF054CA1
:10515000A06061780F2004F089F8607880F0010089
:10516000607010BD1800002010B504F081FF054CE0
:10517000E060A178102004F079F8A07880F00100B8
:10518000A07010BD1800002070B510A003F092FCB4
:105190001AA003F08FFC25A003F08CFC2D4CE078C6
:1051A000002812D12D4D2C4A00212868FEF720F846
:1051B00008B1FDF7B7FD2A4A01216868FEF718F823
:1051C00008B1FDF7AFFD0120E07070BD5A4A2D53C4
:1051D000444B3A52542D546872656164B6A8CAB102
:1051E000C6F7D4DA5A4AB2DCC3CFB5C2BFAAB7A257
:1051F000B0E5C9CFB5C4D3A6D3C30A006C65645F5C
:1052000074696D656F7574315F68616E646C657229
:10521000203473BAF3D6BBBBE1D6B4D0D0D2BBB482
:10522000CEBECDD7A2CFFA0A000000006C65645F45
:1052300074696D656F7574325F68616E646C6572F8
:1052400020BBE1C3BFB8F43273D1ADBBB7D6B4D085
:10525000D00A0000180000204951000050B10000A1
:105260006951000010B5FFF78FFF0C4C00224FF47E
:105270007A612068FDF7DAFF08B1FDF753FD0022DF
:105280004FF4FA616068FDF7D1FF08B1FDF74AFD00
:1052900004F0EEFE02498860C86010BD50B1000005
:1052A0001800002010B5084C2068FDF7E3FF08B196
:1052B000FDF738FD6068FDF7DDFF002803D0BDE88D
:1052C0001040FDF72FBD10BD50B1000070B51EA0FD
:1052D00003F0F0FB2148224D04680BE0022221A1DB
:1052E0002068FBF720F920B1D4E900121EA003F0DA
:1052F000E1FB0C3428688442F0D31F48046804E0C2
:105300001EA0616803F0D6FB2468002CF8D11DA014
:1053100003F0D0FB2048214D046805E0D4E90012D9
:1053200011A003F0C7FB103428688442F6D31C4850
:10533000046804E011A0616803F0BCFB2468002C41
:10534000F8D1002070BD00002D2D46756E63746984
:105350006F6E204C6973743A0A0000002802002026
:105360002C0200205F5F0000252D313673202D2D8B
:105370002025730A00000000100200205B6C5D20F5
:1053800025730A002D2D5661726961626C65204C8F
:105390006973743A0A0000003002002034020020D1
:1053A0000C02002010B5092003F0F2FEBDE8104009
:1053B000001DFCF7C5BD000010B5074C07A06169D2
:1053C00003F078FB0AA0A16903F074FBE169BDE872
:1053D00010400CA003F06EBBE4000020746F7461F9
:1053E0006C206D656D6F72793A2025640A000000AB
:1053F00075736564206D656D6F7279203A20256440
:105400000A0000006D6178696D756D20616C6C6FCC
:105410006361746564206D656D6F72793A202564EF
:105420000A00000010B5062003F0B2FEBDE81040EF
:10543000001DFCF7EFBD10B5032003F0A9FEBDE889
:105440001040001DFCF75EBE2DE9F04780460027A6
:105450005C483E46B9463C46DFF86CA1056827E04B
:105460005AA0296805F021FA08B34046296805F0DA
:105470001CFAE0B957B956A003F01CFB98F80000DD
:1054800020B12C682046FBF723F881467F1C98F852
:105490000000BFB230B12046296805F0F9F948454F
:1054A00000DA8146D5E900124DA003F003FB0C356C
:1054B000DAF800008542D3D34D48056822E0404623
:1054C000696805F0F2F9E0B95FB941A003F0F2FABA
:1054D00098F8000028B124B96C682046FAF7F8FF64
:1054E00081467F1C98F80000BFB230B12046696841
:1054F00005F0CEF9484500DA81463EA0696803F020
:10550000D9FA2D68002DDAD13C483D4F056823E0DB
:105510004046296805F0C9F9E8B95EB939A003F039
:10552000C9FA98F8000028B124B92C682046FAF787
:10553000CFFF8146761C98F80000B6B230B1204605
:10554000296805F0A5F9484500DA8146D5E9001239
:1055500023A003F0AFFA103538688542D8D32D4820
:10556000056822E04046696805F09FF9E0B95EB938
:1055700024A003F09FFA98F8000028B124B96C68C1
:105580002046FAF7A5FF8146761C98F80000B6B2CF
:1055900030B12046696805F07BF9484500DA81465C
:1055A0001DA0696803F086FA2D68002DDAD1002C61
:1055B00006D04A4621464046BDE8F04704F039BAD5
:1055C000BDE8F087280200202C0200205F5F000069
:1055D0002D2D66756E6374696F6E3A0A00000000C7
:1055E000252D313673202D2D2025730A0000000053
:1055F000100200205B6C5D2025730A003002002041
:10560000340200202D2D7661726961626C653A0A60
:10561000000000000C0200205B765D2025730A006C
:1056200010B5022003F0B4FDBDE81040001DFCF7EA
:10563000CDBD70B5FAF772FE0446012003F0A8FD57
:10564000001DFCF735FE05462046FAF76BFE28469E
:1056500070BD10B50A2003F09BFDBDE81040001D91
:10566000FCF7D4BE2DE9FF410026234800F005FBDE
:105670002148001F074600F000FB204C60680090A6
:10568000A56800E000986946284004EB80000C30D3
:10569000FFF789FB0028F5D101AA009901EA05036B
:1056A00004EB8303491CDB6842F82030401C009166
:1056B0000228F2D3019800F0030001280BD0022841
:1056C00010D10198032101EB90500099BDF80A60B8
:1056D00001EB900005E00198BDF80A60C0F383106B
:1056E00008440090384600F0C5FA08B100986060A0
:1056F00004B03046BDE8F0816CEE012054EC01208E
:1057000010B5FDF785FC4FF4FA7340F21F1200212B
:105710002948FDF7E5FB2948032129A2008801EB70
:1057200000402DA100F060FFFF224FF4E1312F482F
:10573000FAF7A4FE0520FDF7A3FC2D4C2DA20A21AB
:1057400060601E2001F0ECFB0020FDF799FC60601A
:105750002BA11820FDF7B4FC024628211E2001F0E1
:10576000DFFB0220FDF78CFC606027A250211E2089
:1057700001F0D6FB0320FDF783FC606025A27821B1
:105780001E2001F0CDFB0120FDF77AFC606026A110
:105790000820FDF795FC0246A0211E2001F0C0FB69
:1057A0000120FDF76DFC606021A2C8211E2001F0E0
:1057B000B7FB012010BD0000955000002C05002013
:1057C00076323032332E30392E31325F36646135E5
:1057D0003362643700000000466F6E742076657295
:1057E00073696F6E203D2025730000003C0500208A
:1057F00000000020496E6E6572666F6E74000000D6
:1058000073657474696E670033EE9AA3EE99B5EE12
:10581000A0AC000034F09F9884F09F9885F09F988A
:1058200086F09F9887000000616C616D00000000A9
:105830005274746872656164EE99ABE2808DF09F7A
:105840009881000010B502F031FBBDE81040FFF771
:1058500057BF70B516460D46FEF780FC04461DB1D5
:1058600014B12561EE6002E00E20FEF79DFB20469C
:1058700070BD000010B518A003F01CF91B4C217876
:105880001BA003F017F92078C00702D01EA003F078
:1058900011F92078800702D51EA003F00BF92078BB
:1058A000000702D51EA003F005F92078C00602D536
:1058B0001EA003F0FFF82078000607D50B480C3037
:1058C0000168BDE810401CA003F0F4B8BDE810402A
:1058D0001D4803F0EFB800006D656D206D616E61CD
:1058E0006765206661756C743A0A000028ED00E077
:1058F0005343425F434653525F4D4653523A3078CA
:1059000025303258200000004941434356494F4C4E
:10591000200000004441434356494F4C2000000002
:105920004D554E53544B4552522000004D53544B4D
:1059300045525220000000005343422D3E4D4D4140
:10594000523A253038580A000CAF00002DE9F047D4
:10595000C7880446181D16468946B0FBF7F1B0FB10
:10596000F7F207FB12009A193A44D21CB2FBF7F285
:10597000DDF820A001E02468491E0029FBD13D1A72
:105980008846B54216D818E0BAF1000F05D02118A4
:1059900009EB08002A46091D04E0204409EB080130
:1059A0002A46001DFAF758FD00202468761BA844FB
:1059B000B74201D9354600E03D46002EE4D1BDE8AE
:1059C000F087000030B5024659B100F09FFE00217B
:1059D000074C09E004EB810315685B88AB4202D1F8
:1059E0001160002030BD491C8142F3D3052030BD39
:1059F000280500202DE9F0478046002500782C4638
:105A000018B12248224F066831E0BDE8F047002176
:105A1000084600F085B806221EA13068FAF783FD1B
:105A200020BB306800F106094046FAF751FD0246F6
:105A300049464046FAF777FDC0B925B94C46484675
:105A4000FAF746FD05464946204601E0401C491C40
:105A500002781AB10B780BB19A42F7D0001BA8421A
:105A600000DA054649460DA003F024F80C363868E4
:105A70008642D0D3002C06D02A4621464046BDE8B7
:105A8000F04703F0D6BFBDE8F087000028020020F1
:105A90002C0200205F5F636D645F000025730A00C5
:105AA0000249012008600020704700001C0200200D
:105AB00038B5044601E0491E641C20782028FAD03D
:105AC0000928F8D031B16A462046FCF725FD18B107
:105AD000204604E0002038BD009838BD401C017805
:105AE000202901D00029F9D100210170214603A00D
:105AF00002F0E0FF4FF0FF3038BD000025733A2080
:105B0000636F6D6D616E64206E6F7420666F756E6D
:105B1000642E0A0001490020086070471C02002022
:105B200070B50EA002F0C6FF1348144D04680CE0D7
:105B3000062213A12068FAF7F6FC28B9D4E900126E
:105B400011A0891D02F0B6FF0C3428688442EFD3FF
:105B500010A002F0AFFF002070BD000052542D5481
:105B60006872656164207368656C6C20636F6D6D2D
:105B7000616E64733A0A0000280200202C020020A3
:105B80005F5F636D645F0000252D313673202D202B
:105B900025730A000A0000000148006870470000F1
:105BA0001C02002070B5002315461C461A464BE027
:105BB00000F8012B5B1C0678202E01D0092E01D1A4
:105BC0008B42F5D3082C11D321A002F073FF0026DD
:105BD00006E000BF55F8261025A002F06BFF761CEA
:105BE000A642F7D321A002F065FF2FE08B422DD211
:105BF000F6B2222E03D045F82400641C1BE0401CA2
:105C000045F824005B1C641C08E05C2E04D1467837
:105C1000222E01D1401C5B1C401C5B1C0678222EEE
:105C200001D08B42F1D38B4210D200F8012B5B1CC8
:105C30000AE0401C5B1C0678202E03D0092E01D000
:105C40008B42F6D38B4201D28B42B4D3204670BD37
:105C5000546F6F206D616E7920617267732021200F
:105C60005765206F6E6C79205573653A0A00000005
:105C700025732000002100F009B8012100F010B8C0
:105C800008B56A46FAF7F9FA009808BD08B56A46F9
:105C9000FAF7D9FA08BD08B56A46FAF7BBFA08BDA3
:105CA00008B56A46FAF7C2FA009808BD08B56A4610
:105CB000FAF7F0FA009808BD70B5044600252846AA
:105CC000FDF7E2FA21686268086890420ED9401E2A
:105CD00008600178A38AE26801FB0325227A216823
:105CE000101AC0B20A79824200D208710020FDF772
:105CF000CDFA284670BD70B505460C460020FDF76C
:105D0000C3FAE868A98A201AB0FBF1F12A68106882
:105D1000431C13600170BDE870400020FDF7B6BA67
:105D200010B530B1017A42680368891AC9B21A60A5
:105D300006E00E2010BD03681A68541C1C60117028
:105D4000491EC9B2F7D2006800210171084610BD92
:105D5000C20800F007030120895C984008407047A2
:105D600000F180400068002800D00120704708B58D
:105D700000F18040002101600068009008BD000033
:105D800070B50A4C207808B185250CE00020A06091
:105D900060602061E060064800F0F8FD054600F014
:105DA000DFFD01202070284670BD000078EE012044
:105DB0002536000070B5104D0446A87838B114B1EE
:105DC0006168012088470020FDF75EFA0CE00020A2
:105DD000FDF75AFA24B1084821461030FFF709F8B8
:105DE000E86808B900F0E2FDE868401CE860BDE83A
:105DF00070400020FDF74ABA78EE01200FB408B5D4
:105E00000399002904D004AA00926A4600F00FF812
:105E100001B05DF814FB10B582680446002A05D075
:105E2000D4E90403216898470020A06010BD2DE943
:105E3000FC4791460C00804676D014F8011B39B11E
:105E400025290ED04046FDF74BFB20780028F4D1E1
:105E500098F80C00002867D04046BDE8FC47FFF7E3
:105E6000DABF0020012221782B291BD02D2902D056
:105E7000302908D102E040F0010001E040F00200CA
:105E8000641C002AEFD100252A290ED02178A1F127
:105E900030020A2A11D205EB850201EB4205641C8F
:105EA000303DF1E740F00400EAE7D9F800100B1D9F
:105EB000C9F800300968641C0D44217800232E299C
:105EC0000BD114F8011FA1F130020A2A05D203EB0D
:105ED000830201EB4203303BF3E76C290DD06829C4
:105EE0000BD0692921D00BDC252918D0582931D0B5
:105EF00063290ED0642915D117E014F8011FECE7CF
:105F0000702969D0732932D075291BD0782909D11D
:105F100020E0D9F80000011DC9F8001001784046C2
:105F2000FDF7DEFA641C90E76CE0D9F800100A1D5A
:105F3000C9F800200968CDE900500A224046FEF762
:105F4000DFFEEFE7D9F800100A1DC9F80020096844
:105F50000A2206E0D9F800100A1DC9F800200968D5
:105F60001022CDE90050404604F03EFFDAE7D9F8B0
:105F7000001000270A1DC9F800200E68C00705D1CF
:105F800012E04046761C7F1CFDF7AAFA3178002902
:105F9000F7D104E0202140466D1EFDF7A1FABD4275
:105FA000C0D9002DF6D1BDE74EB13046FAF790FAD0
:105FB000074604E0202140466D1EFDF791FABD42E0
:105FC00006D9002DF6D103E04046761CFDF788FA8D
:105FD00031780029F8D1A5E7D9F80000011DC9F8EA
:105FE0000010056830214046FDF77AFA78214046D6
:105FF000FDF776FA08200021CDE9000103461022C2
:106000002946B0E7BDE8FC872DE9FF411C46DDE9E4
:106010000A7815460E46684600F09AF846EA4501A9
:1060200041EA840141EA072242EA0841009A00EB72
:106030008200C0F80017BDE8FF812DE9FF411C4632
:10604000DDE90A7815460E46684600F08FF846EA04
:10605000450141EA840141EA072242EA0841009AE7
:1060600000EB8200C0F80017BDE8FF812DE9FF4179
:106070001C46DDE90A7815460E46684600F084F8AD
:1060800046EA450141EA840141EA072242EA084121
:10609000009A00EB8200C0F80017BDE8FF812DE9EF
:1060A000FF411C46DDE90A7815460E46684600F0B9
:1060B00079F846EA450141EA840141EA072242EAC9
:1060C0000841009A00EB8200C0F80017BDE8FF818C
:1060D0001CB500220B46009211460192FFF7DFFF2C
:1060E0001CBD1CB5002100910B46012201911146F7
:1060F000FFF7A3FF1CBD1CB5002100910B46012238
:1061000001911146FFF7B2FF1CBD01B5684600F0D2
:106110002DF8009A01219140C0F80C1508BD01B579
:10612000684600F031F8009A01219140C0F80C1542
:1061300008BD00000168202902D24FF0A04070473E
:1061400001F01F010160014870470000000300508A
:106150000168202902D24FF0A040704701F01F01D2
:1061600001600148704700000003005001682029C9
:1061700002D24FF0A040704701F01F0101600148BA
:1061800070470000000300500168202902D24FF040
:10619000A040704701F01F010160014870470000F6
:1061A000000300500168202902D24FF0A040704740
:1061B00001F01F010160014870470000000300501A
:1061C00001B56846FFF7EEFFD0F810050099C8400A
:1061D00000F0010008BD01B56846FFF7B9FF009A5D
:1061E00001219140C0F8081508BD01B56846FFF7C8
:1061F000BDFF009A01219140C0F8081508BD0000BC
:106200001CB5094C0144D4E90034CDE900346C4696
:1062100006E000BF54F82030D3F81035401C08C207
:106220008142F7D81CBD000000B60000034908B544
:106230000844002101600068009008BD0060004033
:1062400030B5124B01460020D3F81042224609E037
:10625000157A854205D1401C0A28F7DB4FF0FF3044
:1062600030BD5268002AF3D1421CF9D00872D3F82D
:1062700010222AB152684A60D3F81022516030BD12
:106280000022C3F810124A6030BD000054EC012017
:106290007047FAF7FDBE704708B5044A00924FF404
:1062A0000073034A00F006F808BD0000A9A500002D
:1062B00094E90120F0B595B01C4615460F460846F6
:1062C0001A9E00F00AFB182109A8FAF7DEF80E96CC
:1062D000CDE909540023082203A9384600F012FB37
:1062E00005980690BDF81000ADF81C00BDF812002E
:1062F000ADF81E0000208DF821000398082600F05C
:106300000300012802D0022818D032E00398334657
:10631000850AC0F3C2008DF8200003980FA9C0F3CE
:106320008314A200384600F0EDFA09A8009006ABED
:1063300022460FA9284600F015FA1AE00398840DAA
:10634000C0F3C2008DF82000082C01D2254600E0E1
:10635000082533462A460FA9384600F0D3FA2E44C2
:10636000641B09AB06AA29460FA800F04DF9002CC2
:10637000EAD1384600F0B7FA15B0F0BD0A4A012953
:1063800002EBC00007D0022907D0032907D0042957
:1063900007D0002070470220704704207047007922
:1063A00070474079704700003C7B010010B5FFF753
:1063B00070FF04210348FFF743FF024901204872A0
:1063C00010BD0000400000202DE9F0478CB0FDF723
:1063D00097F818B100200CB0BDE8F087784C002089
:1063E000C4F81802BFF34F8F60680290A5684FF0A1
:1063F0000008284004EB800008E0216802988142F0
:1064000001D86160E6E7284004EB80000C3002A967
:10641000FEF7C9FC0028F0D103AB029901EA05029E
:1064200004EB8202491CD26843F82020401C0291F0
:106430000228F2D3039800F00300022802D00128BA
:106440004ED0A5E003985022810D8946B2EB905FB3
:1064500000D850210E4666F39F50039008315948EA
:1064600000F0F2F9070078D000F037FA434608222E
:1064700003A9384600F04CFA029908F1080A2940AD
:10648000681A8000001D864223D94D4D0C3530B16D
:10649000C2B204EB8101301A90460C3104E0294667
:1064A000F2B2002590462846C6B25346384600F060
:1064B0002FFA0AEB08032DB1324629464FEA0700AE
:1064C00000F026FA029909F1030001EB9000029016
:1064D0003AE004EB81015346324638460C31EFE78F
:1064E0000398C0F38311062900D3062161F38910B4
:1064F0000390C0F38310801C8100324800F0A4F99F
:10650000070045D000F0E9F94346082203A93846C0
:1065100000F0FEF908F1080800260FE00298434653
:1065200000EA0501401C04EB810102900422384678
:106530000C3100F0EDF908F10408761C0398C0F363
:106540008310B042EAD847B1D4F81052D4F81802F8
:1065500068B1384600F0C7F92CE019E0687A0128E4
:1065600004D12A6828463946126890476D68002D84
:10657000F4D1384600F0B7F90020FCF785FED4F8D6
:10658000180208B9029860600020FCF77FFE11E055
:10659000D4F8104204E0216820468968884764687E
:1065A000002CF8D108480221008801EB004007A127
:1065B00000F016F8FCF7A4FF80F001000BE70000E4
:1065C00054EC0120647B01002C0500204261636BC8
:1065D000656E647320666C75736865640000000006
:1065E00000231A4604F00EB908B5012300926A464A
:1065F00004F008F908BD1CB5CDE9002302236A4662
:1066000004F000F91CBD00002DE9F0470E4680465D
:106610001C46924608293ED894F80C90002020731E
:106620001946104600F042FE0025B54206D218F881
:1066300005201AA12046FFF7E1FB03E019A120463F
:10664000FFF7DCFB6D1C082DEFD317A12046FFF7E9
:10665000D5FB0025B54210D218F80570F9F7F8FE01
:106660000068C05D10F03E0F01D03A4600E02E22D7
:106670000EA12046FFF7C2FB03E00DA12046FFF765
:10668000BDFB6D1C082DE5D301222146504600F0CC
:10669000EFFD84F80C90BDE8F08700002025303233
:1066A00078000000202020007C000000256300000E
:1066B00020000000104810B57F218160002101609A
:1066C0004160C0F81812C0F8141280F820120B486C
:1066D00000F007F900280DD109480A490A4B401A71
:1066E000C108002003E000BF23F82000401C8842BE
:1066F000FAD3002010BD000054EC0120647B01009F
:10670000647B01003C7B010028050020024803490E
:10671000401AC00870470000647B01003C7B010008
:1067200013B56846FFF74EF908B100201CBD0248BA
:10673000009950F831001CBD3C7B010070B5084841
:106740000125D0F8104280F8205205E065722168DA
:106750002046496888476468002CF7D170BD000066
:1067600054EC01202DE9FF4781460C9D00200C468A
:106770002F7B2873984616462946184600F096FD4A
:10678000072E42D2DFE806F004090F161F2A360052
:1067900049462846FFF732FB37E04946284622683B
:1067A000FFF72CFB31E0D4E9002349462846FFF7E8
:1067B00025FB2AE0A0680090D4E90023494628463A
:1067C000FFF71CFB21E0D4E90201CDE90001D4E987
:1067D000002349462846FFF711FB16E004F10800A4
:1067E00007C88DE80700D4E9002349462846FFF78B
:1067F00005FB0AE004F108000FC88DE80F00D4E99A
:10680000002349462846FFF7F9FA00222946404668
:1068100000F02EFD2F73BDE8FF8700001CB514218A
:106820000620CDE900014FF480630022034904A053
:1068300003F0ECF903F09CFB00201CBDC5A8000090
:106840006E72665F6C6F67002DE9F041858A804645
:106850002D1F4819C01CB0FBF5F0C6B24046FFF72B
:106860002BFA041E19D00020207101206071E580F0
:1068700000272546761EC4F800800BE04046FFF74F
:106880001BFA60B16179491C6171286005467F1C63
:10689000C0F80080B742F1D32046BDE8F081204621
:1068A00000F002F80020F8E72DE9F04145790146B3
:1068B0006B1E002201E00968521C9A42FBD30F684C
:1068C0000146002605E038460C68FFF714FA214619
:1068D000761CAE42F7D3BDE8F0810121001DFFF721
:1068E000CFB9FFF71DBA10B504460121001DFFF70F
:1068F000DDF910F0FF0F04D12046BDE81040FFF78E
:10690000D3BF10BD38B501240094FFF71FF838BD80
:1069100038B500240094FFF719F838BD4058002816
:1069200000D00120704708B5002242504058009026
:1069300008BD4058002800D001207047405800286A
:1069400000D00120704708B5002242504058009006
:1069500008BDD0F80403084000D0012070470000B3
:1069600008480068012110F0010F08D14FF0E02025
:10697000E02280F80024C0F88012C0F8001102481C
:106980000160704700E100E018050040064902463A
:1069900000200B790BB1852070470A6001220A7133
:1069A00000224A7170470000A000002010B54FF48B
:1069B0008270FFF7DCF902204107C1F804030249A5
:1069C0000120086010BD000008000040002802D02F
:1069D000014980010847704751B30000000B40B2E5
:1069E00070470121B1EB507F01D101207047002099
:1069F00070470121B1EB507F01D101207047002089
:106A0000704700002DE9F047054645481446407997
:106A100010B11120BDE8F087424882150026C0F869
:106A2000006129B36F7800230A2F21D2DFE807F035
:106A300020201C1916130E0B0805CF7943EA0763B3
:106A40008F7943EA07434F7943EA07230F791F43BE
:106A5000C0F83C760023CF7843EA07638F7843EA97
:106A600007434F7843EA072309781943C0F83816DB
:106A70000121C0F808132988AB782F7941EA033146
:106A8000EB785B0343EA873319436B7941EAC331FF
:106A9000C0F83416D0F83416AB7913B141F4803114
:106AA00000E00021C0F8341664279146804649462C
:106AB0004046FFF733FF90B14046C8F8006101211E
:106AC000C8F804134CB36A78D0F83C16062A13D0E1
:106AD000072A0FD0082A0BD0092A0ED106E00A2077
:106AE000FFF774FF7F1EE2D10D2093E70B0EE371D9
:106AF0000B0CA3710B0A63712171D0F83806062ABA
:106B00000BD2DFE802F00A0A09070503010EE17063
:106B1000010CA170010A6170207000207AE700006A
:106B20008CEE012000900240034AC2F81C15C2F806
:106B300020050C2001F002B9009002402DE9F0413F
:106B4000314E0446154630790F4610B10820BDE895
:106B5000F081201D01F0BAF8E8B32C482168C0F894
:106B60004015A17AE27A41EAC201227B41EA821110
:106B7000627B02B1012241EAC211C0F84415D0F88B
:106B80000016234A1140A27B0A43E17B01B1012197
:106B900042EA0161227C41EA4261627C41EA02717F
:106BA000C0F800160023737137600121B560C0F88A
:106BB00008130A4667B1A17C164C490184F80014F9
:106BC000144C4FF40071253CC4F88012C4F8001135
:106BD0003271054600E00EE0C0F800254FF48074E5
:106BE000C0F800310260642621462846FFF796FE71
:106BF00018B10020ABE70720A9E70A20FFF7E6FE5F
:106C0000761EF1D10D20A2E78CEE0120009002400B
:106C100000FFFF0029E000E070B514460D4606466F
:106C2000FFF7DFFE58B10748C0F80445C0F8086513
:106C3000C0F80C55BDE87040042001F07FB810206A
:106C400070BD00000090024070B514460D46064627
:106C5000FFF7C7FE58B10748C0F81045C0F81465E3
:106C6000C0F81855BDE87040082001F067B8102042
:106C700070BD0000009002402DE9FC5F06460079DF
:106C8000DFF8D4B100EBC0050BEB85070C46397F6C
:106C900011B10820BDE8FC9F78B1A07BFF280AD184
:106CA000A068B0F1206F06D0B0F1A05F03D0E07B08
:106CB00008B9207C08B10620ECE73568C7E9002355
:106CC000207B0128207802D8FFF71FFA01E0FFF7A8
:106CD0008CFA4FF0000ACDF800A0CDF804A020787F
:106CE000534652460121FFF7A8F960784FF0FF386C
:106CF000FF2806D08146FFF708FA4846FFF7F1F96A
:106D000000E0C146A078FF2809D000228046012378
:106D1000CDF800A01146CDF804A0FFF78EF9307928
:106D2000A17800EBC0020BEB820080F82110E07824
:106D3000FF282CD0217911B1FFF7E7F901E0FFF727
:106D400054FAE078FFF7CDF9207C88B1317901EB76
:106D5000C1020BEB820188772079E278012839D0D3
:106D60000021607CC5F81425C5F86815C5F86405D0
:106D70003079E17800EBC0020BEB820282F8201040
:106D80003279217902EBC2020BEB8200C177A07B42
:106D9000FF2807D0FFF729FAA07BFFF7A2F9A07B15
:106DA000C5F86C05E07BC5F860052278C5F80825B4
:106DB000C5F80C95C5F81085A068C5F82405217B99
:106DC000607B00B10120012906D0022907D00329E8
:106DD0000AD107E00121C4E740F0020004E040F0DE
:106DE000040001E040F00600C5F85405A079C5F89C
:106DF000C005386810B14020C5F804030720C5F865
:106E000000053868012108B330686279000B40B290
:106E100000284FEA421206DA00F00F0000F1E020ED
:106E200080F8142D03E000F1E02080F800243068A1
:106E3000000B40B200F01F0301FA03F2400980008A
:106E400000F1E020C0F88022C0F80021504687F809
:106E50001DA039771EE7000098EE01202DE9F041D2
:106E600005460F460079164900EBC00001EB80048F
:106E70001646607F10B11120BDE8F081206820B176
:106E800016F0140F01D10120607797E80F0004F18C
:106E90000C0888E80F0094F82000FF2808D0A17F94
:106EA00031B9E17F11B1FFF7A0F901E0FFF72DF94A
:106EB00033463A4621462868BDE8F04103F040BC1D
:106EC00098EE01200268C2F870350022FFF7C6BFB5
:106ED00070B50E4602F095FD054601F089FA34685A
:106EE00008E000BFA4F10C0002F08BFDA84200DD19
:106EF00005462468B442F5D101F088FA082D00DC7B
:106F000005B90825284670BD10B5044602E003A067
:106F100001F0D0FD641EFAD210BD00002D0000006B
:106F20002DE9F74F9CB0042000906846FFF702F966
:106F3000009A032100EB8200C0F8001704200290A1
:106F400002A8FFF7F7F8029A01219140C0F808154E
:106F500000208DF8040000BF9DF804101E9808441E
:106F600001A904F003F8A84C0546002360682A46EE
:106F700010A90668B0476068294642689047BDF886
:106F800042109DF84A308A465943C91DC1F3C701D2
:106F900015910821B1FBF3F79CA24FF00309D2E948
:106FA0000012CDE90412012B06D0022B1ED0042BB7
:106FB00029D0082B30D034E007218DF8101006219D
:106FC0008DF8111005218DF8121004218DF8131081
:106FD00003218DF8141002218DF815104FF00109CE
:106FE0008DF8169000218DF817101AE006218DF803
:106FF000101004218DF8111002218DF812100021BB
:107000008DF813100DE004218DF8101000214FF0C1
:107010000F098DF8111004E000214FF0FF098DF8E1
:10702000101021884FF0010BCA0A0792C1F34512D4
:1070300001F01F0106920F916188CA0A1892C1F3EC
:10704000451201F01F01CDE90D120026344600BFA4
:1070500010F801EB00258DE0A24579D904A94A5D1D
:107060002EFA02F1002201EA0901022B07D0042BBB
:1070700011D0082B0FD071B301292BD02BE051B3C5
:10708000012904D0022904D0032923D023E021229E
:1070900021E042221FE0F1B101297DD002297CD0FC
:1070A00003297BD004297AD0052979D0062978D004
:1070B000072977D0082976D0092975D00A2974D0F4
:1070C0000B2973D00C2972D00D2971D00E2970D0E4
:1070D0000F2900D36422079911FB02F8C2F1640161
:1070E000DDF860C008911CFB018C64219CFBF1F170
:1070F0001A91069911FB02F8DDF838C008991CFBBB
:10710000018C64219CFBF1F101F03F0C0F9911FB04
:1071100002F80D9A089912FB0182642192FBF1F1A9
:1071200001F01F021A99BDF94880C90241EA4C11C9
:1071300011431C9ABDF946C022446244C2EB021CB2
:10714000344A02EB4C1C1D9A324442442CF8121073
:107150001599641CC900B1FBF3F1A4B2A14207D197
:10716000761CBDF844100024B6B2B14200D1A3464B
:107170006D1CEDB2BD42FFF46FAFBBF1000F7FF4A9
:1071800067AFBDF840101C9808441C909DF804009F
:107190001E99095C81420DE019E01AE01BE01CE039
:1071A0001DE01EE01FE020E021E022E023E024E0DB
:1071B00025E026E03FF6D0AE1648F02300210090EF
:1071C0001A460846FDF7CCFE1FB0BDE8F08F072237
:1071D00081E70E227FE715227DE71C227BE7232231
:1071E00079E72A2277E7312275E7382273E73F22D1
:1071F00071E746226FE74D226DE754226BE75B2271
:1072000069E7622267E70000000000200604020030
:10721000000000003C05002030B5144943688A682E
:10722000134498420FD05C886CB9CC68A3420AD052
:107230000C699C4200D108615C6844605D6802F1A1
:107240000803841AEC508368134483420CD05C8892
:10725000002C09D10C69844200D10B61416859604E
:10726000991A40680832815030BD0000E4000020C7
:1072700010B50C46017A052908D0407A38B1084883
:1072800008A102682046FEF7B9FD00E01AB106A188
:107290002046FEF7B3FD2046BDE81040FEF7BBBD1B
:1072A00078000020257300000D0A000038B5C3885F
:1072B0000D46044633B114A0009015A216A128462D
:1072C000FEF79CFD217A05291CD0607A48B1A08880
:1072D000FFF754F8164951F8202016A12846FEF76A
:1072E0008DFDA0880021FFF71BFA03461049207A84
:1072F000143951F8202001B02846BDE830400EA1D5
:10730000FEF77CBD38BD00001B5B306D0000000047
:107310001B5B313B33316D0025734C6F6773206409
:10732000726F70706564202825642925730D0A002A
:1073300078000020257300003C25733E2025733A19
:10734000200000002DE9F04F85B09946DDE90EA53B
:10735000109C630602D5DFF814C103E0DFF80CC10E
:10736000ACF1110CE30601D524F00104E30701D0D0
:10737000302300E0202300260493A3070BD5002A26
:1073800002DA2D26524206E0630701D52B2602E0E1
:10739000230700D5202600234FF0300EEB461AB904
:1073A0008DF800E001230CE0B9F10A0F14D002F0CF
:1073B0000F0812091CF808800BF803805B1C002AD8
:1073C000F2D1AB4200DD1D46AAEB050214F0110F0D
:1073D0004FF0200708D015E00A27B2FBF7F807FBAB
:1073E0001828B2FBF7F2E5E73EB1002A05DD521E90
:1073F00003E0884200D80770401CB2F1000CA2F1F3
:107400000102F6DC26B1884201D80670521E401CEB
:10741000E40605D508E0884201D8049C0470401CAD
:10742000141EA2F10102F6DC74462E466D1E9E4229
:107430000ADD884200D80470401CF6E7884201D873
:10744000E55C0570401C00E05C461D1EA3F10103D5
:10745000F4DC03E0884200D80770401C131EA2F140
:107460000102F7DC05B0BDE8F08F000070B4000049
:1074700070B5054600F0D7F81EE0284600F0D3F8B6
:10748000020003D0062C13D0082C0ED00520FCF7E8
:107490008BFD281DFDF7C9FA04460828EDD0062CFF
:1074A000EBD001206871304670BD3146082001E004
:1074B00031460720FEF7CDF90646EAE770B50446E7
:1074C00000F081F908E0204600F07DF902000DD0BF
:1074D00029460C20FEF7BDF90546201DFDF7A5FA4B
:1074E0000D28F0D001206071284670BD0520FCF702
:1074F0005BFDF2E770B5054600F049F808E0284664
:1075000000F045F8020013D021460D20FEF7A1F946
:107510000446281DFDF789FA0E28F0D001266E7169
:10752000281DFDF782FA0C2806D06E71204670BD2A
:107530000520FCF739FDECE72846FFF7DBFF214685
:10754000BDE8704002461320FEF783B970B50446CB
:10755000001DFDF76AFA0126012812D1204600F02D
:1075600058F90546201DFDF760FA022803D00120D6
:10757000FCF71AFD66712046FFF7E8FF08B1457079
:1075800070BD66712046BDE8704000F09FB970B5CF
:107590000446FFF793FF08E02046FFF78FFF020045
:1075A0000DD029460E20FEF754F90546201DFDF7A3
:1075B0003CFA0F28F0D001206071284670BD0520EC
:1075C000FCF7F2FCF2E7FFF795BF70B50446002523
:1075D000001DFDF72AFA04280ED001266671204608
:1075E000FFF7F1FF0546201DFDF71FFA042803D021
:1075F0000120FCF7D9FC6671284670BD70B50446C1
:107600000D46001DFDF711FA1F2804D00120FCF7DC
:10761000CBFC01206071102204F114012846F8F718
:107620004BFF002070BD70B50546FFF78FFF25E0CA
:107630002846FFF78BFF020005D0052C14D00A2C3A
:1076400015D00B2C16D00520FCF7AEFC281DFDF73D
:10765000ECF904460528EBD00A2CE9D00B2CE7D036
:1076600001206871304670BD3146092004E0314682
:107670000A2001E031460B20FEF7EBF80646E5E76D
:107680002DE9F041054600F04AF88046281DFDF737
:10769000CCF9012608E0002241461820FEF7D9F86F
:1076A0008046281DFDF7C1F9072815D00928F2D01A
:1076B000012803D06E714046BDE8F0810027281DE7
:1076C000FDF7B3F9022826D06E712846FFF712FFA6
:1076D000040005D007460FE0002241461720DDE7F1
:1076E00000270FE02846FFF705FFE06008B10446D9
:1076F00002E00520FCF758FC281DFDF796F9032849
:10770000F0D06E71281DFDF790F9022803D00120FA
:10771000FCF74AFC6E713A4641461220BEE770B54E
:10772000044686B0001DFDF780F901251C2831D0E4
:1077300006DC012819D01A2832D01B2806D123E0F4
:107740001D2833D01E2838D01F2805D00120FCF773
:107750002BFC002006B070BD657169462046FFF71E
:107760004DFF6846FCF729FDF4E72046FFF72BFFA5
:107770000646201DFDF759F9022803D00120FCF729
:1077800013FC65713046E5E7206906B0BDE870403E
:10779000FCF742BD206906B0BDE87040FCF749BD6A
:1077A000207C06B0BDE87040FCF7FABC06B004F1DE
:1077B0001400BDE87040FCF756BD06B00020BDE8DF
:1077C0007040FCF743BD70B50546FFF751FE1EE063
:1077D0002846FFF74DFE020003D0112C10D0122CCA
:1077E00011D00520FCF7E0FB281DFDF71EF904462B
:1077F0001128EDD0122CEBD001206871304670BDFD
:107800003146102001E031461120FEF722F80646ED
:10781000EAE770B505460024001DFDF706F90126CC
:10782000142812D015280ED016280AD0172806D0F2
:10783000182802D019280AD02AE00C2418E00924BC
:1078400016E0062414E0032412E0012410E0281DB1
:10785000FDF7EBF8142817D0152813D016280FD0F1
:10786000172811D018281AD06E710220FCF79CFB43
:10787000281DFDF7DAF8052813D06E71204670BD7B
:107880000724F5E70424F3E7172806D0182806D0C4
:107890006E710320FCF788FBF0E70A24E8E70D246B
:1078A000E6E70E2C10D2DFE804F00F0F0F07070FEA
:1078B00009090F0B0B0F0D0D0524DFE70824DDE789
:1078C0000B24DBE70E24D9E70224D7E710B50446E2
:1078D000001DFDF7AAF8401F0C283DD2DFE800F09C
:1078E0002B060B121D3C3C3C323C3C242046BDE8A0
:1078F0001040FFF72BBE2046FFF728FE014600226E
:10790000152025E02046FFF721FE04460020FCF765
:1079100090FC0146224608201AE02046FFF716FE9A
:1079200001460022162013E02046FFF70FFE014615
:1079300000220F200CE02046FFF708FE014600223F
:10794000192005E02046FFF701FE014600221A201B
:10795000BDE81040FDF77DBF012060712046BDE805
:107960001040FFF78DBE2DE9F043002485B0054699
:107970002646FFF74EFF814669462846FFF73EFE42
:1079800040B949466846FDF7D5F8002802DA0420D8
:10799000FCF70AFB281DFDF748F84FF00108032803
:1079A0000AD0042860D00C2860D00220FCF7FCFA32
:1079B000002005B0BDE8F08369462846FFF71EFEAB
:1079C00040B949466846FDF7B5F8002802DA0420B8
:1079D000FCF7EAFA281DFDF728F80C283BD12846C9
:1079E000FFF788FD06003AD06846FCF7E6FB014643
:1079F00032461320FDF72DFF0646044628E069466F
:107A00002846FFF7FBFD40B949466846FDF792F866
:107A1000002802DA0420FCF7C7FA281DFDF705F854
:107A20000C2818D12846FFF765FD070017D06846D7
:107A3000FCF7C3FB01463A464FF0130024B1FDF7B3
:107A400008FFF060064603E0FDF703FF06463446F4
:107A5000281DFCF7EAFF0328D1D0042804D0012018
:107A6000FCF7A2FA85F805802046A2E72846FFF732
:107A700041FD0600F3D06846FCF79FFB0146324605
:107A80001320FDF7E6FE0646044628E06946284630
:107A9000FFF7B4FD40B949466846FDF74BF80028AA
:107AA00002DA0420FCF780FA281DFCF7BEFF0C2840
:107AB00018D12846FFF71EFD0700D0D06846FCF716
:107AC0007CFB01463A464FF0130024B1FDF7C1FE9E
:107AD000F060064603E0FDF7BCFE06463446281D6E
:107AE000FCF7A3FF0328D1D0B7E700002DE9F0474A
:107AF000524900204FF400760854401CB042FBD39A
:107B00004F4C0020A06002F0B3FA002160600846EC
:107B1000FBF7D0FB02F0ACFA6168FBF765FB474D61
:107B20000C3D2860A06002F0A3FA60600022B2461B
:107B300031464248FBF748FC02F09AFA6168FBF7CD
:107B400053FB6860A1680844A06002F091FA60608D
:107B50000022514605F50370FBF704FC02F088FA99
:107B60006168FBF741FBA860A1684FF4FA7608440E
:107B7000A0602868770000EB4001C1EBC01006EB65
:107B8000C000B0FBF7F2DFF8BC904FF00308B9F883
:107B9000001008EB01402CA1FEF726FD686800EB01
:107BA0004001C1EBC01006EBC000B0FBF7F2B9F822
:107BB000001008EB014029A1FEF716FDA86800EBB4
:107BC0004001C1EBC01006EBC000B0FBF7F2B9F802
:107BD000001008EB014026A1FEF706FDA06800EBAF
:107BE0004001C1EBC01006EBC000B0FBF7F3D5E9D4
:107BF00000010844A968084400EB4001C1EBC01033
:107C000006EBC000B0FBF7F2B9F8001008EB01403A
:107C10001CA1FEF7F0FC524605F503710748F8F782
:107C20006CFCB9F80010002808EB014004D01BA13F
:107C3000BDE8F047FEF7D4BC1DA1F9E784E50120BB
:107C4000300000202C05002065726173652E2E2EF9
:107C5000203D2025646D730D0A0000007772697461
:107C6000652E2E2E203D2025646D730D0A00000028
:107C700072656164202E2E2E203D2025646D730DCB
:107C80000A000000746F74616C2E2E2E203D20259A
:107C9000646D732025646D730D0A00004461746186
:107CA00020696E636F6E73697374656E7400000093
:107CB0004461746120636F6E73697374656E7400E0
:107CC00001490120087070473000002010B502788B
:107CD000FF2A11D04178FF290ED08178FF290BD0DF
:107CE000C178FF2908D01449C1F8242542784FF003
:107CF000FF34FF2A02D002E0002010BD2246C1F866
:107D000028258278FF2A00D12246C1F83025C27882
:107D1000FF2A00D12246C1F834250279FF2A00D17A
:107D20002246C1F838254379FF2B00D01C46C1F804
:107D30003C45012010BD00000090024070B50D4987
:107D40004A790AB1112070BD0B4CA5150022C4F868
:107D500000210B680122002B02D04A71C4F80423D1
:107D6000225005D129462046FEF7D8FD0028F9D03B
:107D7000002070BD8CEE0120009002401CB5022056
:107D80001421CDE9000143020022044904A001F0BE
:107D90003DFFBDE81C4002F0EBB800004558000074
:107DA0006D61696E0000000070B54843044600F044
:107DB000E3FE050003D02246002100F09BFF284689
:107DC00070BD70B504460068012816D0F8F7A6FA11
:107DD0000546012001C42068A04209D0143802F0F1
:107DE0007BF82846F8F79EFABDE8704001F048BAE3
:107DF0002846BDE87040F8F795BA70BD10B5044646
:107E0000F8F78CFA002102C464602460BDE81040D9
:107E1000F8F788BA2DE9F3410446002702F082F80A
:107E20000546F8F77BFA804620680026012824D012
:107E3000019848B328462E6302F0B0F8A26805F115
:107E40001400211D1060A268AA61A06069610198F8
:107E5000002809DD05F1440001AA0021074602F0CF
:107E600061F9384602F0C0F94046F8F75BFA01F0D4
:107E700007FA2F6BF8F752FA804626604046F8F76B
:107E800051FA3846BDE8FC816FF00107F6E70000C3
:107E900070B5044C044D02E020688047241DAC42BC
:107EA000FAD370BDF0780100FC78010070B5044C85
:107EB000044D02E020688047241DAC42FAD370BD17
:107EC000FC78010018790100014800687047000043
:107ED000DC00002070B5084C266800F059F9050058
:107EE00008D0206808B100F03BF94321284600F093
:107EF00079F92560304670BDDC00002010B50362C2
:107F000001800446428000202081608104F110003D
:107F1000606120610830E061A061C80000F02CFEC3
:107F2000E06008B1002010BD6FF0040010BD70B516
:107F300015460E460446F8F7F1F921896289914207
:107F400004D1F8F7EFF96FF0030070BD2288B1FBA0
:107F5000F2F302FB1311E26852F83110316021890B
:107F60002288B1FBF2F302FB1311042202EBC101E0
:107F7000E26851582960F8F7D5F9002070BD2DE965
:107F8000FF5F0446002601F0CDFF0546F8F7C6F96D
:107F90000746B04605F1140A04F1180B05F144092F
:107FA00026E00398F0B12846C5F8308001F0F6FFCE
:107FB0005146584600F0BEFD0398002807DD03AA8D
:107FC0000021484602F0AEF8484602F00DF9384666
:107FD000F8F7A8F901F054F92E6BF8F79FF9074666
:107FE00036B102E06FF001063846F8F79BF941E040
:107FF000208961898842D4D0218880B2B0FBF1F217
:1080000001FB1200E16851F83010019801602089ED
:108010002188B0FBF1F201FB1201042000EBC1004A
:10802000E1680958029801602089401C80B22081D3
:108030006189081A6188884214DC206904F1100102
:10804000884208D0143801F047FF3846F8F76AF93B
:1080500001F016F902E03846F8F764F9226A4AB1ED
:10806000032105E03846F8F75DF9226A12B10121D3
:108070002046904704B03046BDE8F09F2DE9FF5FF1
:108080000446002601F04EFF0546F8F747F907467B
:10809000B04605F1140A04F1100B05F1440926E07D
:1080A0000398F0B12846C5F8308001F077FF5146BB
:1080B000584600F03FFD0398002807DD03AA002181
:1080C000484602F02FF8484602F08EF83846F8F796
:1080D00029F901F0D5F82E6BF8F720F9074636B1EB
:1080E00002E06FF001063846F8F71CF934E06089C9
:1080F0002189411A20888142D2D060892188B0FB31
:10810000F1F201FB1201E268019842F83100608946
:108110002188B0FBF1F201FB12000421E26801EBBF
:10812000C00102985050608904F11801401C608120
:10813000A069884208D0143801F0CEFE3846F8F71E
:10814000F1F801F09DF807E03846F8F7EBF8226AFD
:1081500012B102212046904704B03046BDE8F09F9E
:1081600010B504460020A17E29B1491E11F0FF017F
:10817000A17603D010BD4FF0FF3010BDE16A21B1F0
:108180002046884708B1811DF7D10021218310BD09
:108190002DE9F041064601F0C5FE08B100F028F9CE
:1081A000092000F0F5FF50F8044F074609E000BF32
:1081B000A4F10C0508223146284601F02AFC50B1F2
:1081C0002468BC42F4D101F0ADFE08B100F01EF904
:1081D0000020BDE8F08101F0A5FE08B100F016F91D
:1081E0002846F6E770B50446807D00250E46C00699
:1081F0000FD4616A49B120468847050005D0024680
:10820000214614A000F056FC21E0E08A40F0100066
:10821000E082A07D000705D5207E000702D56FF023
:10822000060070BDA26A3AB131462046904705006B
:1082300006D0A81D04D00AE040F60F700640268341
:10824000208B40F008002083A07E401CA0762846AA
:1082500070BD0000546F20696E697469616C697A41
:1082600065206465766963653A2573206661696C8B
:1082700065642E20546865206572726F7220636F8A
:1082800064652069732025640A00000010B50C465F
:108290000B4912230B750023CB610B624B628B627F
:1082A000CB62084B0B63084B4B63084B0C64C1E972
:1082B0000E3201460322024800F01CF8002010BDD7
:1082C000A4F601208B270000A927000071270000D9
:1082D00010B5847E2CB1046B34B1A446BDE81040C7
:1082E00060474FF0FF3001E06FF0050001F0D6FA73
:1082F000002010BD2DE9F041154604000F464FF057
:10830000FF3603D00846FFF743FF10B13046BDE803
:10831000F0813A460921204600F04CFFE58200201A
:10832000A0762083F3E7C1610020704710B5847EFA
:108330002CB1446B34B1A446BDE8104060474FF007
:10834000FF3001E06FF0050001F0A8FA002010BD39
:10835000C16C8A88CB889A4208D1896819B1806C2F
:10836000C0F38F2070474FF00000704702D9A2EB96
:1083700003007047806CA3EB0201C0F38F20A0EBD9
:108380000100704730B5C26C01239488D588214420
:1083900089B2A54291800ED8846CC4F38F24A14287
:1083A00017D3B1FBF4F504FB15119180D488A142D9
:1083B0000FD3936010E0D488A1420AD3846CC4F335
:1083C0008F24A142F5D3B1FBF4F504FB1511918084
:1083D000EFE79168012901D19188D180806CD18823
:1083E000C0F38F20814201D30020D08030BD000037
:1083F00010B5F7F793FF044A5188491C5180BDE836
:108400001040F7F78FBF00007801002010B5F7F794
:1084100085FF09494A88521E12B24A80002A07DCA9
:1084200000224A80F7F77EFFBDE8104000F028BF29
:10843000BDE81040F7F776BF7801002070B5040062
:1084400035D01B4D696801B18847A86884422ED396
:10845000E86884422BD24FF0FF3116480C3C00F004
:10846000DDFF60884FF4F55610B12088B04208D087
:1084700011A000F01FFB23886288214615A000F0A0
:1084800019FB0020608026802869844200D22C617C
:10849000A9686068611A401AA969081AA86120468B
:1084A000FEF7BAFEBDE87040024800F095BF70BD0F
:1084B000E4000020CCF30120746F20667265652013
:1084C0006120626164206461746120626C6F636B1F
:1084D0003A0A00006D656D3A203078253038782CE6
:1084E000207573656420666C61673A2025642C20D2
:1084F0006D6167696320636F64653A203078253069
:1085000034780A0010B5184C206840F00400206050
:10851000FDF736FCF8F782FE4FF400410020FEF72D
:10852000C9F808B1FAF7FEFBFDF740FF0F4801F06C
:1085300097FC0F49A1F5A03001F08EFAFFF7A8FCD7
:108540000CA0FFF7C7FC08487830016841F47001BF
:1085500001600A48016841F040410160206840F034
:108560001000206010BD000010ED00E085890000C3
:10857000686C0320756172743000000034EF00E015
:10858000024604480321008801EB004002A1FEF7E7
:108590002BB800002C0500202573000070B5314970
:1085A0000546283009682C1D11B18847002857D08E
:1085B0002DA0216C00F07EFA2FA0616A00F07AFAFB
:1085C00031A0A16A00F076FA33A0E16A00F072FAF5
:1085D00035A0216B00F06EFA37A0616800F06AFAEE
:1085E00039A0A16800F066FA3BA0E16800F062FAE9
:1085F0003DA0216900F05EFA3FA0616900F05AFADF
:1086000041A0A16900F056FA43A0E16900F052FAD6
:1086100045A0216A00F04EFA47A0616B00F04AFACB
:1086200049A0A16B00F046FA4BA0E16B00F042FAC2
:108630002878400708D501F075FC01464AA000F0F3
:1086400039FAFCF7F6FF02E04FA000F033FA287881
:10865000C00602D453A000F02DFAFCF7E7FAFEE7BB
:1086600070BD0000BC0000207073723A2030782585
:108670003038780A000000007230303A2030782517
:108680003038780A000000007230313A2030782506
:108690003038780A000000007230323A20307825F5
:1086A0003038780A000000007230333A20307825E4
:1086B0003038780A000000007230343A20307825D3
:1086C0003038780A000000007230353A20307825C2
:1086D0003038780A000000007230363A20307825B1
:1086E0003038780A000000007230373A20307825A0
:1086F0003038780A000000007230383A203078258F
:108700003038780A000000007230393A203078257D
:108710003038780A000000007231303A2030782575
:108720003038780A000000007231313A2030782564
:108730003038780A000000007231323A2030782553
:108740003038780A00000000206C723A203078251A
:108750003038780A000000002070633A2030782515
:108760003038780A00000000686172642066617524
:108770006C74206F6E207468726561643A20257392
:108780000D0A0D0A000000006861726420666175C0
:108790006C74206F6E2068616E646C65720D0A0DDA
:1087A0000A00000046505520616374697665210D0A
:1087B0000A0000000022024902A0FFF767BD000086
:1087C00008B600006E726670696E00002DE9FE4307
:1087D0000446C8B200274FF0010801281BD0022828
:1087E0005BD0032868D0042813D1256D00236A4686
:1087F00002A9281DFFF7C3FB6A4601A9281DFFF740
:1088000096FB88B32F60226A002A02D02046029984
:108810009047BDE8FE83E56C206CC1682046884720
:108820000646401C21D0F7F779FDAA8829688E54A6
:10883000A988491C89B2A980A26CC2F38F229142F7
:1088400000D3AF80AA88E9888A420AD1491C89B23C
:10885000E980C5F80880A26CC2F38F22914200D350
:10886000EF80F7F75FFDD7E71CE0E0690028D0D084
:10887000F7F754FD0246A888E988884201D3451AD3
:1088800004E0081AA16CC1F38F210D1A1046F7F706
:1088900049FD002DBDD0E2692BE0206DBDE8FE430F
:1088A000FFF78FBAC5F80080206CDDE9002105696B
:1088B00002232046A847A6E70D121149A06C0842E2
:1088C00006D1E26929462046E66C90473760A0E76A
:1088D000F7F724FD064629462046FFF753FD2046BC
:1088E000FFF736FD05463046F7F71CFDE269002A22
:1088F0008FD003B029462046BDE8F0431047000062
:1089000000FCFF0330B400240475C4610462084C09
:108910004462084C8462084CC462084C0463084CEE
:108920004463084CC0E90E4330BC92B2FFF7E2BC8E
:10893000A1950000BD950000AD9400003D9700009A
:10894000E79700004195000070B50446121D22F023
:10895000070000220A4D443840F82250521C112AC8
:10896000FAD3416200218162C16200F134020163E5
:1089700082E81A004FF080730364016070BD00004C
:10898000EFBEADDE10B509A001F0D6F901F0A4FAF2
:1089900001F024FC044601F06BFB201A052803D9E2
:1089A000BDE81040F9F7E2BF10BD00006E72665FCF
:1089B0006C6F6700094810B5D0E900120848C0E99B
:1089C00011120849016420390B46086040F2031275
:1089D00005A1FFF797FF002010BD0000D8B50000EB
:1089E0006CFB01205C020020756172743000000095
:1089F00010B5F7F793FC064904460878401C087048
:108A0000486800B180472046BDE81040F7F78ABCAF
:108A1000D000002010B5F7F781FC03490C78F7F778
:108A200081FC204610BD0000D000002010B5F7F7F3
:108A300075FC064904460878401E0870886800B135
:108A400080472046BDE81040F7F76CBCD0000020FE
:108A500010B50068143801F03FFA002010BD000086
:108A60002DE9F041064614460D46084601F096FAF7
:108A700005F11407B4B1012C18D134680EE000BF21
:108A800095F8351094F82120A4F11400914204D2F5
:108A90003946143000F047F802E02468B442EFD1C0
:108AA000B44203D13946304600F03DF80020BDE81D
:108AB000F08100000FB47F2170B505AB0D48049A1A
:108AC00001F014FC03467F2800D97F230A4D286853
:108AD00060B1048B074A44F0400101830021FFF795
:108AE00025FC2868048370BC5DF814FB0148FFF77F
:108AF00047FDF8E74CF30120DC00002002685160DC
:108B000002680A600160486070470268516002684C
:108B10000A600160486070470268516002680A603C
:108B20000160486070474268116042684A60416075
:108B3000086070474268116042684A60416008609E
:108B400070470246002100E0491C00689042FBD1BA
:108B500008467047D0E900124A60D0E9001211605F
:108B6000406000607047D0E900124A60D0E900120E
:108B700011604060006070472DE9F047002807D081
:108B80003A4CC01C20F003066069864202D90020DE
:108B9000BDE8F0870C2E00D20C264FF0FF31344890
:108BA00000F03CFCD4F810C0A1686769ACEB010090
:108BB000BA1B55E00D186B88E3BB6B681B1A0C3BA6
:108BC000B3424CD36A6806F11803121A0C3A4FF0FC
:108BD00001094FF4F55A9A422DD383190C33CA1860
:108BE0004FF00008A2F800A0A2F80280D5F8048097
:108BF000C2E901806B60A5F8029050680C37B8425A
:108C000002D001F108028350A06930440C30A06109
:108C1000E269824200D2E061A5F800A0654512D168
:108C2000206942887AB1E26890420CD040680844DA
:108C30002061F6E713E0A5F8029068686A1A801AC6
:108C4000A2691044E3E70A4800F0C6FB22681AB1A3
:108C5000314605F10C00904705F10C0098E7686873
:108C60008242A7D8024800F0B7FB90E7E40000205A
:108C7000CCF3012010B50346102A1DD341EA0304AA
:108C8000A40719D110C9103A10C310C9102A10C373
:108C900051F8084B43F8084B51F8044C43F8044C86
:108CA000F0D202E010C9121F10C3042AFAD203E066
:108CB00011F8014B03F8014B521EF9D210BD000010
:108CC00010B50346994211D28C189C420ED98118D6
:108CD00004E000BF14F8013D01F8013D521EF9D235
:108CE00010BD00BF11F8014B03F8014B521EF9D221
:108CF00010BD000010B50346CCB2042A1AD3810778
:108D000018D1194644EA042343EA034306E008C1A4
:108D1000103A08C141F8083B41F8043C102AF6D249
:108D200001E008C1121F042AFBD20B4602E000BF7B
:108D300003F8014B521EFBD210BD2DE9F04116463F
:108D4000DDE906780A461D460446062100F032FA9F
:108D500084F8098004F11400A061E66160614FF6B7
:108D6000FC70ED1C054025842D1DB7FBF5F06084DB
:108D70000021A162E1620846216308E0228CE369D8
:108D8000121D00FB0232236B1360401C2263628CB5
:108D90008242F3DCA1840020BDE8F0812DE9FF5F71
:108DA000164604464FF0000A01F0BCF805463D485F
:108DB000016809B120468847F7F7B0FA0746A08C4A
:108DC00003996FF0010908434FF000083AD1384683
:108DD000F7F7A8FA484604B0BDE8F09FC5F8308020
:108DE0000398002856D0627A294604F11400FFF750
:108DF00037FE039800280CDD01F03AF9824605F1B0
:108E0000440003AA0021834601F08CF9584601F082
:108E1000EBF93846F7F786FA00F032FA286B0028AB
:108E2000D9D1F7F77BFA0746039800280ADD01F04D
:108E30001FF90399A0EB0A0AB1EB0A00039001D5D0
:108E4000CDF80C80A08C0028C8D0A56A2868A06244
:108E5000E06AA84201D1C4F82C80A08C401EA084F6
:108E60003846F7F75FFA208CB04200D20646324609
:108E7000291D0198FFF7FEFEF7F750FA216B2960D4
:108E80002563F7F74FFA0848016809B1204688477B
:108E90000020A0E73846F7F745FA4846C5F8309075
:108EA00099E700000C010020100100202DE9F0419D
:108EB0000446008C16460F46B04203D24FF0FF30F6
:108EC000BDE8F0811C48016809B120468847F7F7E2
:108ED00025FA256BA5B129682163F7F723FA00204D
:108EE000286032463946281DFFF7C4FEF7F716FA08
:108EF0000646E06A00B10560E562A06A28B105E0B7
:108F0000F7F710FA6FF00200DAE7A562A08C401CB8
:108F1000A084616904F11400814207D0FFF798FD35
:108F20003046F7F7FFF900F0ABF902E03046F7F70B
:108F3000F9F90020C4E700001401002070B51546BF
:108F40000A460446032100F035F904F11400A0613B
:108F500060610120A0830020FF212062A177E077DB
:108F6000657270BD70B5044600F0DCFF0546F7F78A
:108F7000D5F906462048016809B120468847206A8D
:108F8000A84207D04FF0FF3430462C63F7F7CAF9F8
:108F9000204670BDE17F491E11F0FF01E17726D127
:108FA000A17F90F83520914204D004F11E020221E5
:108FB00000F0FAFD606904F11401884210D0143801
:108FC000206290F83500A077E07F401CE0770846EB
:108FD000FFF73EFD3046F7F7A5F900F051F909E03B
:108FE000A08B401CA08300202062FF20A077304689
:108FF000F7F798F9002070BD140100202DE9F34126
:10900000044600F08FFF0546F7F788F906462D481D
:10901000016809B12046884700202863206AA842D9
:1090200003D1E07F401CE07741E0A08B38B180B2F3
:10903000401EA083256295F83500A077F1E70198DE
:1090400050B3206A95F8351090F83520914204D23B
:1090500005F13502022100F0A7FD627A294604F1EC
:109060001400FFF7FDFC0198002809DD05F144001C
:1090700001AA0021074601F055F8384601F0B4F87E
:109080003046F7F74FF900F0FBF8286B60B1093074
:10909000CBD0286BBDE8FC816FF0010430462C6317
:1090A000F7F740F92046F5E7F7F738F90646304676
:1090B000F7F738F90448016809B1204688470020CD
:1090C000E8E700000C010020100100202DE9F0412C
:1090D0000F46064600F05CF80546C068FFF74CFDF9
:1090E00004001ED00021EA68FFF704FE267200206B
:1090F000607208223946204600F09BFC0A4801684D
:1091000009B120468847F7F709F9064604F10C0132
:10911000281DFFF7F3FC3046F7F704F92046BDE8B9
:10912000F0810020FBE700000401002070B5044638
:109130000A48416809B12046884700202072F7F7A5
:10914000EDF8054604F10C00FFF704FD2846F7F79B
:10915000E9F82046BDE87040FFF770B9040100202F
:1091600070B504460948416809B120468847002087
:109170002072F7F7D3F8054604F10C00FFF7EAFC7C
:109180002846BDE87040F7F7CDB800000401002084
:10919000074A002102EB01131B78834202D102EB44
:1091A00001107047491C0629F4DB002070470000BD
:1091B000180100202DE9F041044617460E460846E6
:1091C000FFF7E6FF054646F0800020720822394688
:1091D000204600F02EFC0948016809B12046884766
:1091E000F7F79CF8064604F10C01281DFFF786FCF2
:1091F0003046BDE8F041F7F795B8000004010020C3
:10920000007A000601D50120704700207047000059
:1092100038B5064C246CE46834B1009313460A4612
:1092200001460248A04738BD062038BDA4F60120FB
:10923000044A126C53691BB10A460146014818479B
:1092400006207047A4F60120034A126C13680A46F0
:109250000146014818470000A4F601200249096CA4
:109260008A68014600481047A4F60120034A126CA0
:1092700053680A460146014818470000A4F6012039
:10928000F8B5F7F74BF8224D0746688888BB686841
:1092900078B300266846F8F737FE0446A86890F8C9
:1092A000341001F00F01012907D190F83510009A10
:1092B000914201D2044600E00126844220D0294692
:1092C000009A2A708C60CA6805460AB12146904708
:1092D00016B1284600F020F8204600F047F80D4867
:1092E000007804F11C01002805F11C0002D0F7F7FA
:1092F0001CF807E0F7F719F83846F7F713F8F8BD48
:1093000000F034F83846BDE8F840F7F70BB8000035
:1093100078010020D000002070B50446F6F7FEFF6B
:10932000034694F834000F4A20F00F00401C84F8E4
:1093300034009068844210D094F835000A4901EB5B
:10934000C00104F114004D6828604D68A5614860B3
:109350006161A06B516808435060BDE870401846D9
:10936000F6F7E0BF78010020ECF3012010B50446C9
:10937000F6F7D4FF04F11401D1E900235360D1E9D9
:1093800000231A60A161616194F83520074951F802
:10939000323001EBC2018B4204D10549A36B4A680C
:1093A0009A434A60BDE81040F6F7BCBFECF30120D9
:1093B000780100202DE9F04116460A461F46054671
:1093C0000221FFF7F7FE05F11404AC616C61AE8376
:1093D0006F720020BDE8F08170B504460E48016848
:1093E00009B120468847F6F799FF0546616904F1FF
:1093F0001400814207D0FFF72BFB2846F6F792FFB7
:10940000FFF73EFF05E0A08B401CA0832846F6F73F
:1094100089FF002070BD0000140100202DE9F341F8
:1094200005462048016809B128468847F6F776FFC7
:109430000646A88B28B1401EA8833046F6F772FF77
:1094400021E0019838B300F06DFD04460020206350
:109450006A7A214605F11400FFF702FB0198002803
:1094600009DD04F1440001AA0021074600F05AFE7C
:10947000384600F0B9FE3046F6F754FFFFF700FF1C
:10948000206B002805D10848016809B128468847A3
:109490000020BDE8FC813046F6F744FF6FF0010084
:1094A000F7E700000C0100201001002070B5044611
:1094B000807E012842D8208B4FF00005C1050FD5D2
:1094C000E06CFEF7BBFFE564208B4FF4807220F464
:1094D00080712183206C112143682046984710E059
:1094E00080050ED5E06CFEF7A9FF206C4FF40072EA
:1094F0001121436820469847E564208B20F40071D1
:109500002183208B41050FD5206DFEF797FF256540
:10951000208B4FF4806220F480612183206C112124
:1095200043682046984709E0000507D5206DFEF7FF
:1095300085FF2565208B20F400602083002070BD0E
:1095400070B5002401290DD0022907D003290ED0BF
:10955000036C5B6898470446204670BDC18A41F0A1
:10956000200102E0C18A21F02001C182F4E7002A33
:10957000F2D05168856CC1F38F23C5F38F25AB42C0
:1095800003D0837E0BB1072070BD1368C0E9113191
:10959000817E0029E0D0016C0B6811469847DBE71B
:1095A00010B50021C1640165026C12681AB100F1A6
:1095B000440190470146084610BD00002DE9F041E6
:1095C0000D460446002789056FF0070002D5E18AA1
:1095D00089056FD5290502D5E18A09056AD5E9050E
:1095E00002D5E18AC90565D5690502D5E18A490533
:1095F00060D5680602D4207E400600D54027E8B238
:109600002083E16C4FF0000829B1A90553D500BFB4
:1096100040F4007153E0A80528D54749A06C0842E2
:1096200006D10420FFF7A8FAC0F80080E0641BE030
:10963000C0F38F200C30FFF79FFA06460C303060E5
:10964000A16CC1F38F220021FFF754FBA6F8048020
:10965000A6F80680C6F80880E664206C4FF4007215
:109660000321436820469847208BD1E7E80527D59A
:10967000A06CC0F38F200C30FFF77EFA06460C304A
:109680003060A16CC1F38F220021FFF733FBA6F8F5
:109690000480A6F80680C6F80880E664208B4FF4A4
:1096A000807240F480712183206C10214368204631
:1096B000984705E03DE0E90502D540F4807121833B
:1096C000206D00284FEA055005D0002827DA208BAE
:1096D00040F4006028E000280CDA2820FFF74CFA5C
:1096E000054640F8048B002304220821FEF706FCFF
:1096F0002565ECE7680518D50C20FFF73DFA05460F
:10970000FEF77CFB2565208B4FF4806240F480617E
:109710002183206C102143682046984705E06805A6
:1097200003D5208B40F480602083208B3843208336
:109730000020BDE8F081000000FCFF032DE9F047A8
:1097400011461BB30546008BC20532D50C461F4699
:1097500099464FF0000AEE6CF6F7E0FD0146F088FE
:10976000B288904201D1B2689AB1326812F8008092
:10977000401C80B2F080AA6CC2F38F22904201D3C9
:10978000A6F806A0B068012807D008E00020BDE8D0
:10979000F0870846F6F7C6FD08E0C6F808A00846B8
:1097A000F6F7C0FD04F8018B7F1ED5D1A9EB0700A9
:1097B000EDE7800505D52846BDE8F0471A46F9F7DC
:1097C00071B80C461E461F46286CC168284688475B
:1097D000411C06D0761E04F8010B0A2801D0002E89
:1097E000F2D1B81BD3E72DE9F0471C0018D006468C
:1097F000008B4FF0FF33410519D5D6F8508017463E
:1098000025469946306C3978826830469047401C2E
:1098100008D0641E7F1C002CF4D12846BDE8F087D8
:109820000020FBE749464046FEF7F4FAF3E700055F
:1098300015461ED5376D22462946381DFEF71EFCFB
:1098400010B100F02BF8EBE7F6F768FD3968012955
:109850000BD001213960F6F765FD306C02232246FA
:10986000076929463046B84701E0F6F75BFD204618
:10987000D4E7274628780A2807D1307E400604D549
:10988000306C0D21826830469047306C29788268B0
:10989000304690476D1C7F1EECD1E8E770B504465A
:1098A000FFF7B8F8044D20B900F03CFB08B10463A1
:1098B00070BD6C6070BD0000DC00002008B509A020
:1098C000FFF7F8F80AA0FFF7F5F812A000230090C0
:1098D0001A46042112A0FFF7EDF8BDE8084018A0D1
:1098E000FFF7E8B80A205C207C202F0A0000000067
:1098F0002D205254202D2020202020546872656194
:1099000064204F7065726174696E67205379737457
:10991000656D0A00536570203137203230323300D4
:10992000202F207C205C202020202025642E2564F0
:109930002E2564206275696C642025730A0000007E
:109940002032303036202D203230313820436F70B5
:109950007972696768742062792072742D746872F4
:10996000656164207465616D0A0000002DE9F041B5
:1099700000F07EFB8046FEF73BFD1C4FA7F114066E
:109980003D682DE06969A5F11404A8EB01006FF0B2
:109990000041884226D2716809B1204688472D6867
:1099A0002046F8F775FFFEF731FDD4E90710884728
:1099B00000F05EFBB168804609B120468847FEF79B
:1099C00017FD607A810708D5C10706D020F0010095
:1099D0006072204600F008FC02E020F00100607296
:1099E000BD42CFD1BDE8F041FEF710BDB00100206F
:1099F0000FB410B504AA039900F0B2FD10BC5DF8D5
:109A000014FB014600E0491C0A78002AFBD1081A21
:109A1000704710B5002308E0047811F8013BE31A01
:109A20005BB223B9401C14B1521E002AF4D118466F
:109A300010BD10B5002A07D0034611F8014B03F8FA
:109A4000014B2CB1521EF8D110BD03F8011B00E0F0
:109A50000021521EF9D110BD0A46C11C10B522F0DA
:109A6000030321F00301182B20D9A3F118048C4221
:109A70001CD3114C581A1838A16060614FF4F5528C
:109A80000A8000230C30C1E901034B804B68194464
:109A9000E1600A8001224A8048608860002307A1B3
:109AA0000848FFF787FCA068206110BD0146BDE8AB
:109AB000104005A0FEF7FEBFE4000020686561705D
:109AC00000000000CCF301206D656D20696E6974A3
:109AD0002C206572726F7220626567696E20616406
:109AE000647265737320307825782C20616E642051
:109AF000656E6420616464726573732030782578C4
:109B00000A00000010B5094B0022094C5A8010468B
:109B100004EBC001401C496009600828F8DB0348D9
:109B20005A6010304060006010BD000078010020D5
:109B3000ECF3012038B56846F8F7E6F90446054825
:109B400084602046FFF712FC04F11C00F6F733FC9A
:109B500038BD000078010020014840600060704777
:109B6000A80100201FB50B480A23052240600060B1
:109B700009484FF400718DE80F000023074A08A13F
:109B8000783800F089F904B00348BDE8104078380F
:109B900000F0EEB9B0010020A4F401200DA00000F7
:109BA00074696D65720000002DE9F04116460446A7
:109BB00021B3012926D0022911D1F6F7AFFB0746C0
:109BC00094F83400012500F00F0001280AD0307805
:109BD00084F835008540A5633846F6F7A3FB0020DE
:109BE000BDE8F0812046FFF7C1FB307884F83500EE
:109BF00085402046A563FFF78FFBEDE7BDE8F04108
:109C000000F0B6B9BDE8F04100F026B82DE9FF47F5
:109C10008946DDE90C76824601461D4690460120C4
:109C2000FFF754FA041E0DD02846FEF7A5FF60B1D9
:109C300003968DE8A10043464A4651462046F8F770
:109C4000D3FD204604B0BDE8F0872046FFF76EFA4A
:109C50000020F7E700F06CB970B5044690F83400C6
:109C6000000702D02046FFF781FB04F1440000F01A
:109C700088FA042084F83400F6F750FB054604F116
:109C800014010448FEF741FF2846F6F74BFB00207D
:109C900070BD00008801002070B5044690F83400C3
:109CA000000702D02046FFF761FB04F1440000F0FA
:109CB00068FA042084F834002046FFF751FA206F38
:109CC00050B1F6F72BFB054604F114010348FEF7EB
:109CD0001CFF2846F6F726FB002070BD88010020F7
:109CE00070B513480468F6F719FB05462046FFF7E0
:109CF0003DFB042084F8340004F1440000F041FAF4
:109D00002046FFF77DFA012801D1206F58B104F1F8
:109D100014010848FEF7F9FE2846F6F703FBBDE8F4
:109D20007040FFF7ADBA2046FFF71AFAF4E70000DB
:109D300080010020880100202DE9F041124D80466D
:109D4000286808B1FEF754FB0120FFF721FA50F80C
:109D5000044F064609E000BFA4F10C0007460822A4
:109D60004146FFF756FE48B12468B442F4D1286852
:109D700008B1FEF74BFB0020BDE8F081286808B170
:109D8000FEF744FB3846F7E780010020054D00242C
:109D900055F8240000B18047641C042CF8D300F06F
:109DA00003F8F4E73CF3012070B527E0F6F7B6FAC4
:109DB0000546F8F7BBF840B316480168A1F1140452
:109DC000D1E900024260D1E90002106049600960F7
:109DD000FEF70EFB216F09B1204688472046FFF7AA
:109DE0000FFA01280FD0FEF711FB2846F6F79AFA72
:109DF000A06AFEF723FB2046FFF798F9F8F796F8DC
:109E00000028D3D170BDFEF701FB2846BDE87040A5
:109E1000F6F788BA8801002010B586B000220CA1A0
:109E200004A8FFF7E5FD0C48202307224FF4C0717A
:109E30008DE80F00A0F1780420460023074A04A90A
:109E400000F02AF8204600F093F806B010BD00009C
:109E50007469646C65256400BCF101208D9D00006F
:109E600070B505466FF00204F6F758FA0246094845
:109E7000002100BF50F821303BB1491C0429F9D31F
:109E80001046F6F74FFA204670BD40F821500024E6
:109E9000F6E700003CF301202DE9FF5F92460EAA91
:109EA0000C4692E8E0010A46994683460121FFF7F5
:109EB00081F98DE8E0014B46524621465846F8F7B5
:109EC00093FC04B0BDE8F09F10B500F0C0F8BDE809
:109ED000104000F02DB8000070B5044690F8340032
:109EE00000F00F00022802D04FF0FF3070BDF6F7EF
:109EF00015FA054604F11400FEF735FE04F144009E
:109F000000F0D6F92846F6F70DFA2046FFF704FAD6
:109F10000348416809B120468847002070BD000011
:109F20009001002001480068704700008001002077
:109F3000F1B50E480468F6F7F1F90546204600F041
:109F40002DF804F144006A460021064600F0EAF8C4
:109F5000304600F049F92846F6F7E4F9FFF790F9A2
:109F6000206B801C00D120630020F8BD8001002000
:109F700010B590F83610012280F835108A40022181
:109F8000826380F83410FFF7A7FF0348006808B128
:109F9000FFF776F9002010BD8001002070B504465F
:109FA00090F8340000F00F00012802D04FF0FF308D
:109FB00070BDF6F7B3F9054694F8340020F00F00B1
:109FC000801C84F834002046FFF7D0F904F14400E7
:109FD00000F06EF92846F6F7A5F90348016809B1C3
:109FE00020468847002070BD9001002010B504462F
:109FF0006FF00100206304F11400FEF7B4FD204669
:10A00000FFF78AF9BDE81040FFF73AB96FF0004555
:10A010000B4800F0DAF80446401C09D000F028F89C
:10A02000201AA84201D2FFF715FEFFF79FFCEFE7C9
:10A03000FFF778FFFFF7B2FFFFF722F9F5E700001F
:10A04000B001002010B5FFF71BF9002010BD00285B
:10A0500002DA4FF0FF30704700EB4001C1EBC01057
:10A0600040F2E73101EBC000491C90FBF1F0704772
:10A070000148006870470000CC000020094810B576
:10A080000168491C0160FFF74DFF016C491E016426
:10A0900003D1C16B0164FFF7D5FFBDE8104000F0AC
:10A0A00003B80000CC0000202DE9F041FFF7E0FFED
:10A0B0000746F6F733F91A4E804606F10C0526E0FE
:10A0C0006069143C391A6FF00040814222D27168F5
:10A0D00009B1204688472046F8F7DAFBD4E9071093
:10A0E0008847FFF7C5FFB168074609B12046884792
:10A0F000607A810708D5C10706D020F001006072A0
:10A10000204600F071F802E020F0010060722C6837
:10A11000AC42D5D14046BDE8F041F6F703B90000A6
:10A120009C01002049B1012904D0022908D003294B
:10A130000ED109E0406A10600AE01168416207E050
:10A14000417A21F0020102E0417A41F002014172BC
:10A15000002070472DE9F843884601461E46174601
:10A160000A20089DFEF7B2FF040008D033463A46A5
:10A1700041460095F8F77EFB2046BDE8F8830020B5
:10A18000FBE770B50546F6F7C9F804462846F8F728
:10A190007FFB2046F6F7C6F82846FEF7E1FF0020D1
:10A1A00070BD2DE9F8439046DDE908450A461F4693
:10A1B00006460A21FEF7FEFF23463A464146304650
:10A1C0000095F8F757FBBDE8F8830168814202D19A
:10A1D0004FF0FF3070474869704700000148FFF7B3
:10A1E000F4BF0000A8010020F8B50446F6F796F881
:10A1F00005462046F8F74CFB607A20F001006072BB
:10A200002846F6F78FF82748016809B120468847A5
:10A21000FFF72EFF616A0844A062F6F77FF8054653
:10A22000607A400701D5204A01E01F4A083A002021
:10A23000009202EBC002694653686FF0004C5DF873
:10A2400020200BE01268A2EBC0067769A66AB7422D
:10A2500002D0BE1B664503D341F820209A42F1D1BB
:10A26000114814380168491C016004F11401009878
:10A27000FEF752FC607A40F0010060722846F6F763
:10A2800051F8607A40070BD5084890F8340000F088
:10A290000F00012804D00548FFF71EFEFEF7F0FF6F
:10A2A0000020F8BD10010020B00100202CF4012096
:10A2B00070B50446407AC00713D00B48016809B155
:10A2C00020468847F6F72AF805462046F8F7E0FAD0
:10A2D0002846F6F727F8607A20F001006072002027
:10A2E00070BD4FF0FF3070BD140100202DE9FF4F0D
:10A2F000471804467F1E83B080464FF0FF394FF069
:10A30000200A4FF0250BA74200D24F4608E125282E
:10A3100003D0BC4200D8207081E000260599491C7A
:10A32000059108782D2811D02B2812D0202813D081
:10A33000232814D0302815D00A784D46303A0A2AFE
:10A3400013D205A800F0E8F905461AE046F0100619
:10A35000E4E746F00406E1E746F00806DEE746F0EB
:10A360002006DBE746F00106D8E72A2809D106983F
:10A37000491C059120C80690002D02DA6D4246F076
:10A380001006CDF80090059801782E2918D1401CB0
:10A3900005900178A1F130020A2A04D205A800F044
:10A3A000BBF9009008E02A2908D1401C05900698C6
:10A3B00002C8069000910846002801DA00200090AB
:10A3C000059A00201178682901D06C2902D1521C0D
:10A3D0000846059211780A236F296ED00CDC632998
:10A3E0001FD004DC252979D058290DD17FE06429BC
:10A3F00001D0692908D17EE0702960D073292CD062
:10A4000075297AD0782974D0BC4201D884F800B07C
:10A410000598641C0178D1B3BC4200D82170641C3B
:10A420007BE0F00608D450466D1E002D04DDBC42D2
:10A4300000D82070641CF7E70698BC4210F8041B93
:10A44000069000D82170504602E0BC4200D820702F
:10A45000641C6D1E002DF8DC5FE0069808C80690AD
:10A4600003B93DA31846FFF7CCFA0099002902DD95
:10A47000884200DD0846F1060AD451462A466D1E80
:10A48000824205DDBC4200D82170641CF6E750E032
:10A49000002106E0BC4201D81A782270491C5B1CDE
:10A4A000641C8142F6DB524629466D1E814234DD32
:10A4B000BC4200D82270641CF6E716E00EE0681C6F
:10A4C00002D1082546F0010600980296CDE9005019
:10A4D00006981023394604C806901AE0BC429ED85C
:10A4E00084F800B09BE708E003E0082305E046F0AD
:10A4F0004006102301E046F002066C2801D06828CF
:10A500001AD0069804C8069000983946CDE9005044
:10A5100002962046FCF716FF04460598401C05905D
:10A520000598007800287FF4F2AEBC420DD8207068
:10A530000CE0401E0590F0E7069830F8041B0690EA
:10A540008AB2B007E0D512B2DEE7387007B0A4EBEC
:10A550000800BDE8F08F0000284E554C4C29000043
:10A5600013460A464FF0FF31FFF7C0BE0020704788
:10A5700000207047002070470020704710B5F5F7A5
:10A58000CDFEFDF7BFFFFFF799F9FFF7E5FAFFF7FB
:10A59000B9FAFDF7F3FBFFF7E5FAFFF73DFCFFF72C
:10A5A000C9FA002010BD00002DE9F04714008846CC
:10A5B00020D00025124F03264FF001090120F6F7A5
:10A5C00069FD10A10020F6F7EDFD08EB050122461C
:10A5D0000020F6F7B9FD0544241A38B93878002868
:10A5E00008D00120FFF770FC761E05D087F8009098
:10A5F000002CE3D1BDE8F08700203870FAE70000B6
:10A600003C0000201B5B313B33376D0010B5044626
:10A6100006A0FEF74FFAF9F7DDFC014604F51572C6
:10A620000448FEF747FA002010BD00001B5B324BC8
:10A630000D000000044A000070B5044690F8A40222
:10A64000F0B3A08C04F51576052825D350223146A9
:10A6500004F5B370F5F751FF90B3002505EB8500C5
:10A6600004EB001000F1760150222630F5F7F4FEDD
:10A670006D1C042DF2DB05EB850004EB001526357F
:10A6800050212846F5F701FF94F8A42228463146C8
:10A69000F5F7E2FE052023E048B100EB800004EB73
:10A6A0000010502231462A38F5F727FF40B1A08C20
:10A6B000608400EB800004EB00105021263000E0A5
:10A6C0000FE0F5F7E2FEA08C94F8A42200EB8000E6
:10A6D00004EB001031462630F5F7BEFEA08C401C7E
:10A6E000A084A08C608470BD70B5054604680BE042
:10A6F000A4F1140106A0FEF7DDF92068A84202D0FB
:10A7000004A0FEF7D7F92468AC42F1D170BD000077
:10A71000257300002F00000010B5014600206FF0E7
:10A720002F0307E0541C0C60127800EB800003EB51
:10A73000400010440A681478303C0A2CF2D310BD53
:10A740002DE9F843044610681E4615460F464FF0A3
:10A75000000810B1FCF74DF9F8B1A86810B1FCF78A
:10A7600048F9D0B1D5E90001C4F84405C4F848154A
:10A77000D5E90201C4F83405C4F838154FF48C75D6
:10A780004046C4F81881D4F818110091F2074FF030
:10A79000010107D0C4F8501506E087F81D8010208D
:10A7A000BDE8F883C4F85005B20702D5C4F84015D7
:10A7B00001E0C4F84005300700D42161386848B191
:10A7C00046F38000401C4FF0400018D0C4F804034A
:10A7D0000020E5E729462046FCF7ABF80028F9D031
:10A7E00097F82000FF28F3D0B97F0029F0D1F97F36
:10A7F00011B1FBF78AFCEBE7FBF7F7FCE8E7C4F8DD
:10A800000803E5E72DE9F84F204D924689460646B4
:10A810009846012269461846AF68F8F71DFE58B3FE
:10A82000009800210446801C09E000BF00EA0703ED
:10A830005AF8212005EB8303401C491CDA6041458E
:10A84000F4D34FEA164AF8F737FF4AEA0041601C92
:10A85000384005EB80003C4005EB8402C160D068C5
:10A8600066F3C50068F3891069F39F2020F00300A8
:10A87000401C20F00400D06095F8200202E000BFE8
:10A88000FBF7A2FD0028FBD1BDE8F88F54EC0120B6
:10A8900010B5024601E0491C521C13781BB10C781C
:10A8A0000CB1A342F7D0101A10BD01E0401C491CA6
:10A8B00002782AB10B789A42F8D04FF0FF307047F7
:10A8C00000207047FBF780FD0028FBD1FFF72AFB33
:10A8D000FFF764FBF6E700002DE9F0410C46054662
:10A8E00000F02DF829784FF0FF3711B13846BDE858
:10A8F000F0810026A0F130012670092909D82846E8
:10A9000000F039F8F2E700BF04F8010B284600F028
:10A9100016F8A0F16101192907D92031192904D9A4
:10A920001131092901D95F2802D129780029EBD0FA
:10A930002E70284600F01FF826700020D7E710B5CB
:10A940000446007808B1002010BDD4F89000F5F757
:10A95000BFFD01466068814208D0D4F890100A5CBF
:10A960000A2A03D0421C6260085C10BD01202070DE
:10A9700000206060E7E70178002904D141680029E0
:10A9800001D0491E41607047F8B506466D46FFF795
:10A99000D6FF04465C2831D13046FFF7D0FF6E2841
:10A9A0000ED006DC272817D05C2813D0622819D1D6
:10A9B0000CE072280CD0742804D0762812D103E061
:10A9C0000A241BE0092419E00B2417E0082415E0F1
:10A9D0000D2413E05C2411E027240FE0FFF7AFFF04
:10A9E00005F8010B303809283046F7D9FFF7C3FFC7
:10A9F000002028702846F5F7A5FDC4B23046FFF7C1
:10AA00009EFF272805D03046FFF7B5FF0920F9F74C
:10AA1000CBFA2046F8BD000070B505460024FFF7CC
:10AA20008EFF6E2829D00CDC612832D004DC22286D
:10AA300031D058280DD130E0622824D0662808D1C2
:10AA400025E0722821D0742819D0762819D07828CA
:10AA500023D0A0F1300108290DD200BF00EBC404BF
:10AA60002846303CFFF76BFFA0F130010829F5D3F1
:10AA70002846FFF780FF204670BD0A24FBE7092423
:10AA8000F9E70B24F7E70824F5E70D24F3E70C2496
:10AA9000F1E70724EFE72224EDE72846FFF74FFF11
:10AAA000A0F13001092904D940F02002613A062AB8
:10AAB000DED2412802D340F02001573901EB0414C3
:10AAC000EBE700002DE9F043A1B0064600276D46F4
:10AAD000FFF735FF04464FF01B0930285BD13046A5
:10AAE000FFF72DFF0446B846782821D0582C1FD0F8
:10AAF000622C2ED0422C2CD0A4F13000072836D85E
:10AB00005FF0080705F8014B3046FFF718FF0446D1
:10AB100030380728F6D900BF85F800806846F5F779
:10AB2000D7FC01463A46684600F024F9F06037E069
:10AB3000102701E005F8014B3046FFF700FF0446FF
:10AB400030380928F6D944F0200061381A28F1D3AA
:10AB5000E2E7022702E000BF05F8010B3046FFF7ED
:10AB6000EEFE04463028F7D0312CF5D0D4E730463D
:10AB7000FFF701FFC6F80C8086F8089021B0BDE809
:10AB8000F08300BF07EB870004EB40073046303FFF
:10AB9000FFF7D5FE0446A4F130000928F2D9F7608A
:10ABA00086F808904C2C05D06C2C03D03046FFF76B
:10ABB000E2FEE3E71C203072E0E700002DE9F047F9
:10ABC00004462046FFF7BBFE2028FAD00928F8D01B
:10ABD0000D28F6D02046FFF7CEFE04F110010D46F9
:10ABE0002046FFF779FE20782127002878D1207CA5
:10ABF0004FF000094FF0010888B12E465C4F002548
:10AC0000314657F83500F5F76AFC20B16D1C082D68
:10AC1000F6D31F2077E007EBC500007973E02046EC
:10AC2000FFF78DFE20262D2843D00BDCA0F122015A
:10AC30000B2919D2DFE801F08D18186B2D7323272B
:10AC40002F3129003E2854D008DC2F283DD03B2846
:10AC50001DD03C2846D03D2806D15EE05E285AD063
:10AC60007C2852D07E2854D0303809287BD8204602
:10AC7000FFF781FE2046BDE8F047FFF723BF84F8C9
:10AC80000880BDE8F08702203DE003203BE004207F
:10AC900039E00D2037E0052035E02046FFF74FFE74
:10ACA0002B2804D02046FFF766FE06202BE0072065
:10ACB00029E02046FFF743FE2D2804D02046FFF769
:10ACC0005AFE08201FE009201DE02046FFF737FE4E
:10ACD0002F2805D02046FFF74EFE0A2013E0FFE79D
:10ACE0002772CEE72046FFF72AFE3C2806D1112026
:10ACF00009E02046FFF723FE3E2803D02046FFF759
:10AD00003AFE33E012202072BBE70E20FBE70B2057
:10AD1000F9E71020F7E70F20F5E70C20F3E72046CE
:10AD2000FFF732FE20731A20EDE72046FFF707FEFB
:10AD3000217819B10A20F9F737F90EE05C2802D022
:10AD400022280DD003E02046FFF766FEC0B205F8CA
:10AD5000010B281B10388028E7DB1D20D3E702E019
:10AD600085F80090F9E70B20F9F71EF9267288E7BD
:10AD700098B50000FCB501274FF0000C022A06D060
:10AD8000082A03D0102A02D1042700E0032700225A
:10AD900013466E4646F82230521C022AFADB1FE0A8
:10ADA00010F8012BA2F16103052B01D8573A06E0F8
:10ADB000A2F14103052B01D8373A00E0303A0024D4
:10ADC000C7F1200E56F8245005FA07F3134346F84E
:10ADD000243025FA0EF2641C022CF3DB0CF1010C7A
:10ADE0008C45DDDB0098FCBD2DE9F05F8346DDE995
:10ADF0000A4A994690460D460846012703E000BFDF
:10AE0000B0FBF8F07F1C4045FAD2B94500D94F4657
:10AE10005FEACA7012D18CB15FEA8A7002D5B9F1CB
:10AE2000000F01D0202607E0302605E031465846C5
:10AE3000641EF8F755FB0CB1A742F7D35FF001068B
:10AE4000B9F1010F02D9A9F1010903E0B5FBF6F050
:10AE5000404502D306FB08F6F2E7DFF83C9000BF5E
:10AE6000B5FBF6F000FB165519F800105846F8F738
:10AE700037FBB6FBF8F6002EF2D15FEACA7009D0B4
:10AE8000002C07D0A74205D220215846641EF8F7AF
:10AE900027FBF5E7BDE8F09F3CB3000010B518A014
:10AEA000FDF708FE1A4C21881AA0FDF703FE208842
:10AEB000C00702D01DA0FDF7FDFD2088800702D548
:10AEC0001DA0FDF7F7FD2088400702D51DA0FDF766
:10AED000F1FD2088000702D51CA0FDF7EBFD2088BE
:10AEE000C00502D51BA0FDF7E5FD2088800502D531
:10AEF0001BA0FDF7DFFDBDE8104004A0FDF7DABDA3
:10AF00007573616765206661756C743A0A000000AC
:10AF10002AED00E05343425F434653525F55465388
:10AF2000523A30782530325820000000554E4445C2
:10AF300046494E5354522000494E565354415445AD
:10AF400020000000494E5650432000004E4F435011
:10AF500020000000554E414C49474E45442000001A
:10AF600044495642595A45524F20000010B50246F6
:10AF700000780C46010602D42178491C0BE006211A
:10AF8000B1EB501F09D15178C00601F03F0141EAF1
:10AF900050502178891C217010BD0E21B1EB101F7B
:10AFA0000DD151780007000C01F03F0140EA8110FB
:10AFB000917801F03F0108432178C91CEBE71E217D
:10AFC000B1EBD00F12D151784007C00A01F03F0118
:10AFD00040EA0130917801F03F0140EA8110D178D8
:10AFE00001F03F0108432178091DD4E702A0F6F7DC
:10AFF0001FFB01200021CEE7496C6C6567616C2066
:10B0000063686172616374657220647572696E67EA
:10B01000205554462D38206465636F64696E67213E
:10B020000000000010B5FEF749FC002010BD000034
:10B0300010B5FAF7B1FD08B103A000E00EA0FDF7CE
:10B0400039FD002010BD000057656C636F6D6520F1
:10B05000746F20757365205A4A2D53444B21207418
:10B060006869732069732066696E7368206D736800
:10B0700020746573740A000057656C636F6D6520FA
:10B08000746F20757365205A4A2D53444B212074E8
:10B090006869732069732066696E736820632D7414
:10B0A000796C6520746573740A00000070B50446FD
:10B0B000FAF772FD064E04F101052146326808B127
:10B0C000044800E00448FDF7F5FC2846356070BDF3
:10B0D0001400002014680100C467010070B5054623
:10B0E0000E4608A0FDF7E6FC002407E056F82420F1
:10B0F000214613A0FDF7DEFC641CE4B2AC42F5DB94
:10B10000002070BD57656C636F6D6520746F20758E
:10B110007365205A4A2D53444B212074686973206B
:10B1200069732066696E7368206D73682074657337
:10B1300074207769746820617267730A00000000E8
:10B14000617267765B25645D3A2025730A00000012
:10B1500060D501206CD501206601010101010000CC
:10B16000000000001311141516170402000001005E
:10B170000000070000F00240000000000100000095
:10B1800001000000E0B200000200000078000000B2
:10B19000000000000100000002000000E1B2000019
:10B1A0000100000002000000E3B200000100000006
:10B1B00003000000E8B200000100000001000000F0
:10B1C000E5B200000100000002000000E6B200004D
:10B1D0000100000005000000EBB2000001000000CB
:10B1E00005000000F0B200000100000006000000B1
:10B1F000F5B200000100000002000000FBB20000F8
:10B200000100000002000000FDB20000010000008B
:10B2100002000000FFB20000010000000200000078
:10B2200001B30000010000000200000003B30000B1
:10B23000010000000200000005B300000100000052
:10B240000200000007B3000001000000030000003E
:10B2500009B3000001000000040000000CB300006E
:10B26000010000000F00000010B30000010000000A
:10B270000F0000001FB30000020000007800000073
:10B280000000000001000000010000002EB30000DB
:10B2900000000000000000000000000084E9012020
:10B2A000010000000000000000000000FFFFFFFFA1
:10B2B0000007FF00000000400000FF000000000049
:10B2C0000000000005000000000000000000000079
:10B2D000000000000100000000000000000000006D
:10B2E0001136203A0521E700B000F72A000000EFF0
:10B2F0002B000000EFB20C0C003333B735BB2AC073
:10B300002CC201C30BC420C60FD0A4A1E9111103A4
:10B31000E0F009130A0B0638334F040D192E2FE104
:10B32000F009130A0B0638334F040D192E2F29008C
:10B330009962000097620000916200003031323360
:10B340003435363738394142434445460000000021
:10B350000338FDD87047000005020000000000001F
:10B3600000010002000100030001000200010004CE
:10B3700000010002000100030001000200010005BD
:10B3800000010002000100030001000200010004AE
:10B39000000100020001000300010002000100069C
:10B3A000000100020001000300010002000100048E
:10B3B000000100020001000300010002000100057D
:10B3C000000100020001000300010002000100046E
:10B3D000000100020001000300010002000100075B
:10B3E000000100020001000300010002000100044E
:10B3F000000100020001000300010002000100053D
:10B40000000100020001000300010002000100042D
:10B41000000100020001000300010002000100061B
:10B42000000100020001000300010002000100040D
:10B4300000010002000100030001000200010005FC
:10B4400000010002000100030001000200010004ED
:10B4500000010002000100030001000200010030B1
:10B4600031323334353637383961626364656600AA
:10B47000303132333435363738394142434445462A
:10B4800000000000C4690100806901001469010026
:10B490002869010040690100106901005C69010030
:10B4A0004C690100006A01006C6901001C6A01001E
:10B4B000086A010034690100106A0100A0690100F6
:10B4C000F069010090690100B4690100D8690100C8
:10B4D000F8690100750D000095080000C50800001E
:10B4E000B1080000CD0E0000FD0E0000E90E0000C6
:10B4F0005D0B0000910B0000790B0000C50C0000F3
:10B50000050D0000E90C0000290D0000590D000098
:10B51000450D0000E108000011090000FD080000D1
:10B52000790D0000A90D0000950D0000190F000015
:10B53000490F0000350F00002D09000055090000DB
:10B5400041090000D50D00000D0E0000F10D0000B6
:10B55000290E0000610E0000450E0000AD0B00003A
:10B56000A50C0000CD0B0000F10B0000690C0000E1
:10B570002D0C00007D0E0000B10E0000990E0000A1
:10B58000C50D000069090000190C0000910C0000B5
:10B59000550C000000000000346B01001400000096
:10B5A0004C6B010015000000586B010016000000F4
:10B5B000546B0100170000003C6B010018000000F4
:10B5C000286B010019000000206B01001E00000024
:10B5D000446B01001E00000000C2010008000100D1
:10B5E000FFFFFFFFFFFFFFFFFFFFFFFFFFFFFFFF6B
:10B5F00000000000000000000000D601070100006C
:10B600000000005000030050112700004B270000ED
:10B6100045270000B52500001D2600005526000026
:10B62000606B01000201200020001B0000000000F0
:10B6300000000000FFFF0000C44D0000FFFF0000FD
:10B640000000000070650000703F00005E00000018
:10B65000F6000000D42800002D000000D0300000CB
:10B660008E34000056000000DC950000024B000004
:10B6700049000000F900000001290000230000003B
:10B68000FA0000002429000023000000D53000004B
:10B69000E434000040000000BE8B0000D7480000EA
:10B6A0005C000000D7300000243500005700000087
:10B6B0000900000000000000000000000A00000077
:10B6C0000000000000000000807B00000C4700002C
:10B6D0005D000000F99500004B4B00005D0000008C
:10B6E00064960000A84B00005C000000FB96000080
:10B6F000044C00005A000000C35F0000473D0000FA
:10B700005B00000005010000472900003100000037
:10B71000DF3000007B35000040000000E03000001A
:10B72000BB3500004E000000F39700005E4C0000A7
:10B73000550000008E4E0000993700004F000000B9
:10B7400087650000CE3F00005D000000E53000008E
:10B75000093600003300000079980000B34C000067
:10B7600059000000D49A00000C4D00005C0000005D
:10B77000279B0000684D00005C000000E9300000DD
:10B780003C3600003F0000007351000049380000C3
:10B790005D000000E55D0000373C00005600000041
:10B7A000C5600000A23D00005E000000775100006F
:10B7B000A63800005B00000092910000EB490000F9
:10B7C0005900000020000000A8170000060000003B
:10B7D00021000000AE1700000D0000002200000054
:10B7E000BB1700001100000023000000CC17000070
:10B7F0003100000024000000FD17000040000000A0
:10B80000250000003D1800003F0000002600000059
:10B810007C1800004300000027000000BF18000053
:10B820000800000028000000C71800002B000000DE
:10B8300029000000F21800002B0000002A00000080
:10B840001D190000150000002B0000003219000037
:10B85000220000002C000000541900000D00000020
:10B860002D000000611900000B0000002E000000F8
:10B870006C1900000A0000002F000000761900007B
:10B880002300000030000000991900003100000082
:10B8900031000000CA19000023000000320000003F
:10B8A000ED19000031000000330000001E1A0000F6
:10B8B00031000000340000004F1A00003100000089
:10B8C00035000000801A0000310000003600000042
:10B8D000B11A00003100000037000000E21A000039
:10B8E0003200000038000000141B0000310000008E
:10B8F00039000000451B0000310000003A00000044
:10B90000761B00000E0000003B000000841B0000BE
:10B91000110000003C000000951B00002300000007
:10B920003D000000B81B0000160000003E000000B3
:10B93000CE1B0000250000003F000000F31B0000AC
:10B940002400000040000000171C00005C00000004
:10B9500041000000731C00003F0000004200000096
:10B96000B21C00003100000043000000E31C000096
:10B970003100000044000000141D000031000000F0
:10B9800045000000451D0000310000004600000099
:10B99000761D00003200000047000000A81D0000D6
:10B9A0003100000048000000D91D000031000000F7
:10B9B000490000000A1E0000080000004A000000C4
:10B9C000121E0000230000004B000000351E000086
:10B9D000310000004C000000661E00003100000035
:10B9E0004D000000971E00003F0000004E000000C8
:10B9F000D61E0000310000004F000000071F0000AD
:10BA00003F00000050000000461F00003200000010
:10BA100051000000781F00004B00000052000000A1
:10BA2000C31F00003100000053000000F41F00009D
:10BA3000310000005400000025200000310000000B
:10BA400055000000562000003100000056000000A4
:10BA5000872000004000000057000000C7200000C1
:10BA60004D00000058000000142100003F000000BD
:10BA70005900000053210000310000005A0000006E
:10BA800084210000310000005B000000B5210000AF
:10BA90002B0000005C000000E021000023000000FB
:10BAA0005D000000032200002B0000005E0000008B
:10BAB0002E2200001C0000005F0000004A2200004F
:10BAC0000C00000060000000562200000A00000088
:10BAD00061000000602200001B0000006200000006
:10BAE0007B2200003100000063000000AC22000057
:10BAF0002500000064000000D12200003100000099
:10BB00006500000002230000250000006600000020
:10BB10002723000025000000670000004C230000E0
:10BB200031000000680000007D23000023000000B9
:10BB300069000000A02300000D0000006A00000062
:10BB4000AD230000290000006B000000D623000098
:10BB5000310000006C000000072400000800000015
:10BB60006D0000000F2400002F0000006E00000098
:10BB70003E2400001B0000006F000000592400005C
:10BB800025000000700000007E240000320000004C
:10BB900071000000B02400003100000072000000BD
:10BBA000E12400001B00000073000000FC240000E2
:10BBB0001B00000074000000172500002100000099
:10BBC00075000000382500001B0000007600000012
:10BBD00053250000250000007700000078250000B4
:10BBE0002F00000078000000A725000025000000BD
:10BBF00079000000CC250000320000007A0000002F
:10BC0000FE2500001B0000007B000000192600003C
:10BC10002B0000007C000000442600000A00000009
:10BC20007D0000004E2600002B0000007E0000007A
:10BC30007926000013000000190100007829000097
:10BC40003100000042010000A9290000230000008B
:10BC500044010000CC290000230000001104000072
:10BC6000122A00003100000012040000432A0000E4
:10BC70003100000015040000742A000031000000AB
:10BC80007A010000EF290000230000001C040000DE
:10BC9000A52A00003F0000001D040000E42A000067
:10BCA000310000001E040000152B00003F000000C2
:10BCB00021040000542B0000310000002304000088
:10BCC000852B00003100000024040000B62B00008A
:10BCD0004000000030040000F62B00001B000000B4
:10BCE00032040000112C00001B000000330400008F
:10BCF0002C2C00001B00000034040000472C000026
:10BD00003100000035040000782C00002500000000
:10BD1000360400009D2C00002F00000037040000B6
:10BD2000CC2C00001B00000038040000E72C0000B1
:10BD30001B00000039040000022D00002300000059
:10BD40003A040000252D0000250000003B040000FF
:10BD50004A2D0000250000003C0400006F2D00006B
:10BD6000250000003D040000942D00001B00000091
:10BD70003E040000AF2D0000250000003F0400003D
:10BD8000D42D00001B00000040040000EF2D000037
:10BD90003200000041040000212E000025000000B8
:10BDA00042040000462E00001B0000004304000077
:10BDB000612E00003200000047040000932E0000B6
:10BDC0001B000000A00000008C2600000600000000
:10BDD00048040000AE2E00002F00000049040000BF
:10BDE000DD2E00003F0000004B0400001C2F00006F
:10BDF000250000004C040000412F00001B00000043
:10BE00004E0400005C2F00002F0000000321000002
:10BE10008B2F00004F00000009210000DA2F0000E6
:10BE200047000000593000002130000047000000AA
:10BE30006E3000006830000043000000FC3000005D
:10BE40007B3600000A000000004E0000853600002E
:10BE5000110000000B4E0000963600005700000055
:10BE60002D4E0000ED36000050000000D6530000BB
:10BE70001B3A00005700000031580000CD3A000086
:10BE80005D000000B00000009226000013000000DA
:10BE90008A300000AB3000003A0000002959000051
:10BEA0002A3B000055000000575B00007F3B00006C
:10BEB0005A0000009A5B0000D93B00005E000000C1
:10BEC0004B620000003E000053000000CD62000005
:10BED000533E000063000000CF630000B63E000048
:10BEE0005C000000D0630000123F00005E00000014
:10BEF000BC6500002B4000005E000000E56500000E
:10BF000089400000490000005F6A0000EF41000026
:10BF100061000000026A0000934100005C00000024
:10BF2000656B0000B04200005F000000CE6B0000B7
:10BF30000F4300005C000000CF6B00006B4300006B
:10BF40005C000000C0000000A52600004B000000BF
:10BF5000886D0000C74300005E000000906E000086
:10BF6000254400005D0000005B7200008244000078
:10BF70005D00000087730000DF4400005B000000EC
:10BF80002C670000D24000005E0000003575000004
:10BF90003A4500005C00000020520000013900001A
:10BFA0005C000000A2300000E5300000410000000D
:10BFB000C9000000F02600003C000000A430000092
:10BFC0002631000046000000504E00003D370000C2
:10BFD0005C0000000E540000723A00005B0000009C
:10BFE000935E00008D3C00005B0000008C5F000051
:10BFF000E83C00005F0000008476000096450000E9
:10C000005F000000AA3000006C3100005500000005
:10C010002A5200005D3900005D0000000D7A00002A
:10C02000F54500005D0000003A6700003041000067
:10C0300063000000267B0000524600005E00000006
:10C04000AF300000C131000048000000527B00000A
:10C05000B04600005C0000006E7F0000C747000093
:10C06000580000002D8A00001F4800005E000000FC
:10C07000534F0000E8370000610000009E8A000076
:10C080007D4800005A000000F08F00003349000096
:10C090005E000000DC0000002C27000039000000DA
:10C0A000B73000000932000042000000B830000044
:10C0B0004B32000051000000B93000009C320000FB
:10C0C00050000000BA300000EC3200005D000000BB
:10C0D000E10000006527000023000000417E000011
:10C0E000694700005E000000E300000088270000B0
:10C0F00023000000E4000000AB2700002200000045
:10C100003C900000914900005A000000216B0000A3
:10C110005042000060000000E7000000CD27000052
:10C120003100000018940000444A00005D00000047
:10C13000E9000000FE27000030000000EA000000D7
:10C140002E28000030000000C330000049330000FA
:10C1500038000000C63000008133000043000000BA
:10C16000ED0000005E28000023000000C730000042
:10C17000C43300004E000000C8300000123400003C
:10C180003A0000009F940000A14A000061000000F6
:10C19000F10000008128000023000000CC300000E6
:10C1A0004C34000042000000F3000000A42800000E
:10C1B000300000004A520000BA390000610000005F
:10C1C000886B01000200200020001B00000000001E
:10C1D00009000000279B000000100000F50000008F
:10C1E00044B60000640000004D0C00003400000064
:10C1F00065000000810C00002800000066000000BF
:10C20000A90C00003800000067000000E10C0000ED
:10C210003700000068000000180D00003400000026
:10C22000690000004C0D00000D0000006A000000D5
:10C23000590D00002F0000006B000000880D000069
:10C24000340000006C000000BC0D0000080000007D
:10C250006D000000C40D0000330000006E000000FF
:10C26000F70D0000280000006F0000001F0E000006
:10C270002800000070000000470E00003800000099
:10C28000710000007F0E0000370000007200000007
:10C29000B60E00001D00000073000000D30E000069
:10C2A0002800000074000000FB0E000023000000C6
:10C2B000750000001E0F000028000000760000003E
:10C2C000460F000028000000770000006E0F0000FD
:10C2D0003300000078000000A10F000028000000DB
:10C2E00079000000C90F0000380000007A0000004B
:10C2F00001100000190000007B0000001A1000006F
:10C300002D0000007C000000471000000800000025
:10C310007D0000004F1000002D0000007E00000096
:10C320007C10000013000000B00000008F1000001F
:10C330001500000022200000A410000011000000E1
:10C3400003210000B51000005C000000092100007E
:10C350001111000054000000E353000065110000BB
:10C360004A0000002000000000000000060000005D
:10C3700021000000060000000D0000002200000067
:10C380001300000011000000230000002400000042
:10C390004400000024000000680000004600000087
:10C3A00025000000AE000000430000002600000051
:10C3B000F1000000470000002700000038010000E5
:10C3C0000800000028000000400100002D000000CF
:10C3D000290000006D0100002D0000002A0000006F
:10C3E0009A0100001F0000002B000000B9010000AE
:10C3F000250000002C000000DE0100000E000000FF
:10C400002D000000EC0100000B0000002E000000D9
:10C41000F70100000A0000002F00000001020000E8
:10C42000250000003000000026020000340000005B
:10C43000310000005A020000250000003200000018
:10C440007F0200003400000033000000B30200004F
:10C450003400000034000000E70200003400000057
:10C46000350000001B03000034000000360000000F
:10C470004F03000034000000370000008303000079
:10C480003500000038000000B80300003400000050
:10C4900039000000EC030000340000003A00000006
:10C4A00020040000100000003B00000030040000E9
:10C4B000140000003C0000004404000025000000BF
:10C4C0003D00000069040000160000003E0000006E
:10C4D0007F040000290000003F000000A8040000C5
:10C4E0003200000040000000DA0400006700000095
:10C4F0004100000041050000430000004200000030
:10C50000840500003400000043000000B80500006E
:10C510003400000044000000EC050000340000007E
:10C520004500000020060000340000004600000026
:10C530005406000035000000470000008906000096
:10C540004300000048000000CC060000310000005D
:10C5500049000000FD060000080000004A0000003D
:10C5600005070000340000004B0000003907000000
:10C57000430000004C0000007C0700003400000075
:10C580004D000000B0070000430000004E00000016
:10C59000F3070000340000004F00000027080000EF
:10C5A00043000000500000006A0800003500000051
:10C5B000510000009F0800004F00000052000000E2
:10C5C000EE080000340000005300000022090000C3
:10C5D0003400000054000000560900003400000040
:10C5E000550000008A0900003400000056000000D9
:10C5F000BE0900004400000057000000020A0000CD
:10C600005200000058000000540A000043000000DF
:10C6100059000000970A0000440000005A00000082
:10C62000DB0A0000340000005B0000000F0B00007C
:10C630002D0000005C0000003C0B00002500000005
:10C640005D000000610B00002D0000005E00000096
:10C650008E0B00001F0000005F000000AD0B00000B
:10C660000D00000060000000BA0B00000F00000089
:10C6700061000000C90B00002800000062000000FB
:10C68000F10B00003400000063000000250C0000E6
:10C690002800000005000000140004040F0105013B
:10C6A0008BF00400A0F0B00708050104020AF7C0EF
:10C6B000F7C0F7C0F7C0F7C00F100F0105043A002C
:10C6C000382C0000743C0000B038000FFFFFC00F92
:10C6D000FFFFC000D0F00001C0E00002C0D00003A6
:10C6E000C1D000FFFFFC00FFFFFC00074380000BF0
:10C6F0000340000F0740000E0B0200000C0C150059
:10C7000002033F003C00003C00007C0007FFC01F0C
:10C71000FFF03E3CF83C3C303D3C002F7C000FFCE1
:10C720000002FF80003FF0003CF8103C7C783C3C6D
:10C730003E3CB81FFFF003FFC0003C00003C00007F
:10C740003C0011100F0105043C1FD00B407FF41F6B
:10C7500000F8BC3D00F03C7800F8BCF0007FF5E04C
:10C76000001FD3C000000B8000000F0A80002D7F47
:10C77000F4003CF47C00B4F03C00E0F47C02C0BF68
:10C78000F807801FD00F10100104044001BF4000C3
:10C7900007FFD0000F82F0000F00F0000F01F00043
:10C7A0000BCBD00003FF400007FC07802FBE0B40DF
:10C7B0007C1F4F00F407EE00F001FD00F400BC0008
:10C7C000BD02FF003FFFCBC007FD03E004040501ED
:10C7D000040185F00708130103022603C00B400F74
:10C7E000002D003C007800B400F400F000F000F0F0
:10C7F00000F400B40078003C002D000F000B400353
:10C80000C0070813000302263C001F000B4007C0AE
:10C8100003D002E001F000F000F000F000F000F0C2
:10C8200001F002E003D003C00B401F003C00090CE4
:10C83000080005031801C00011C1003EEF000BF80D
:10C84000000BF8003EEF0011C10001C0000C0C0A03
:10C850000107031E00F00000F00000F00000F000EF
:10C86000FFFFF0FFFFF000F00000F00000F000001C
:10C87000F0000504070111010774FCBC2834D00046
:10C88000090802010D0204FFFCFFFC04040301116E
:10C890000103A0F0B008080F0005021E001E003CB6
:10C8A000003C00B800F000F002D003C007800B404D
:10C8B0000F001E003C003C00B4000C0C0F010503EF
:10C8C0002D06F9001FFF403E0BC07C03D0B401E0F1
:10C8D000F401F0F000F0F000F0F000F0F401F0B43A
:10C8E00001E07C03D03E0BC01FFF4007F9000C089D
:10C8F0000F0205021E01F01FF0BFF0F4F040F0003F
:10C90000F000F000F000F000F000F000F000F000A7
:10C91000F000F00C0C0F0105032D07F8002FFF00AD
:10C92000BC0F80B007C01003C00007C0000F40005C
:10C930002F0000BC0001F40007D0000F80003E0073
:10C9400000FFFFF0FFFFF00C0C0F0105032D07F9AE
:10C95000002FFF407D0BC03403C00003C0000F80D8
:10C9600002FF0001FF800007D00001F00000F0741A
:10C9700001F07D07E02FFFC007FD000D0C0F010542
:10C98000032D003C0000B80000F00002E00003C0EE
:10C99000000B80000F0F002E0F003C0F00B80F009F
:10C9A000FFFFFCFFFFFC000F00000F00000F000B5B
:10C9B0000C0F0105032D2FFF803FFF403C00003C82
:10C9C00000003C00007EF8007FFF007C1F80100705
:10C9D000C00003C00003C03007C0BC0F803FFF0091
:10C9E0000BF4000C0C0F0105032D003E0000BC00F1
:10C9F00001F00003D0000B80000FFD003FFF807DA1
:10CA000007D0B802F0F000F0F000F0F402E07D078B
:10CA1000D02FFF8007FD000B0C0F0105032BFFFF3C
:10CA2000C0FFFFC0000B80000F00001F00002D00A2
:10CA3000003C0000780000F40001F00002E0000378
:10CA4000C00007C0000F40000F0200000C0C0F01D7
:10CA500005032D02FD001FFF403E0BC03C03C03C00
:10CA600003C03E0BC00FFF001FFF407D07D0F40145
:10CA7000F0F000F0F401F0BD07E03FFFC007FD005B
:10CA80000C0C0F0105032D07FD002FFF807D07D043
:10CA9000F401F0F000F0F401F0BD07E03FFFD00B2F
:10CAA000FF80001F00003E0000BC0001F40003E016
:10CAB000000BC00005040B01090103B0F0A08500C4
:10CAC00003A0F0B006040F02090103B0F0A0850036
:10CAD00007A0F0B03060C0000B0C0B01070384000E
:10CAE0001A02E0007FD007FD00BF9000FD0000BFEC
:10CAF00090000BFD00007FD00006E083000C0C06C8
:10CB000001090306FFFFF0FFFFF0860006FFFFF0BC
:10CB1000FFFFF00B0C0B0107031F400000F40000A7
:10CB2000BF80000BF900007FD0000BE0007FD00B2E
:10CB3000F900BF8000F40000400200000A0C0FFE64
:10CB400005032002FE000FFFD03E02F01800F000A7
:10CB500001E00007C0002F0000BC0000F40000F05E
:10CB6000000050850008A00000F00000B000141480
:10CB7000130104052C000AFE400000BFFFF400036F
:10CB8000F801FE000FC0001F402F00000BC03C0B3F
:10CB9000E2C3D0B83FFFC1F0F47C0FC0F0F4F4075B
:10CBA000C083F01E03C0F0F4F003C0F0F4F407C13A
:10CBB000F0B87D1FE2E07C3FFDFFC03F0BE07E0050
:10CBC0000F8083000D07F401900000FFFFE00000DC
:10CBD0001BFE0200000E100F00050402001F830060
:10CBE000013F8300333F800000BBC00000F2D00053
:10CBF00001E1F00002D0F00003C0B80007803C0063
:10CC00000FFFFD000FFFFF002E000F003C000B8008
:10CC10007C0007C0B40003D00E0C0F0205032DFFEB
:10CC2000FE00FFFFC0F007E0F001F0F001F0F007B8
:10CC3000E0FFFFC0FFFFE0F001F4F0007CF0003CFB
:10CC4000F0007CF001F8FFFFF0FFFF400D0C0F013A
:10CC500005032D00BF9007FFF81F807D3D001C7C61
:10CC60000000F40000F00000F00000F00000F4000C
:10CC7000007C00003D001C1F807D07FFF800BF9076
:10CC80000F0C0F0205032DFFF900FFFFD0F007F492
:10CC9000F000BCF0003DF0001FF0000FF0000FF0BE
:10CCA000000FF0001FF0003DF000BCF007F4FFFFA4
:10CCB000D0FFF9000C0C0F0205032DFFFFE0FFFF72
:10CCC000D0F00000F00000F00000F00000FFFF4096
:10CCD000FFFF80F00000F00000F00000F00000F026
:10CCE0000000FFFFD0FFFFE00C0C0F0205032BFF3D
:10CCF000FFC0FFFFC0F00000F00000F00000F000F7
:10CD000000FFFF40FFFF80F00000F00000F0000097
:10CD1000F00000F00000F00000F00200000E100F24
:10CD20000105041100BFD00007FFFC001F807F0039
:10CD30003D0008007C830001F4830001F0830020A3
:10CD4000F003FF00F403FF00F4000F007C000F006D
:10CD50003E000F001F802F0007FFFD0000BFE00016
:10CD6000100C0F02050312F0000FF0000FF0000F7F
:10CD7000F0000FF0000FF0000F86FF15F0000FF02D
:10CD8000000FF0000FF0000FF0000FF0000FF000A8
:10CD90000F06040F0205018FF00A0C0F0005032D8A
:10CDA000000F00000F00000F00000F00000F000038
:10CDB0000F00000F00000F00000F00000F00000F19
:10CDC00000100F00B82F007FFC001FE0000E100FB6
:10CDD0000205043CF0007D00F001F400F007D000F3
:10CDE000F00F4000F03E0000F0F80000F3F000000B
:10CDF000FFF80000FF7D0000FC2F0000F00FC000D6
:10CE0000F003E000F001F400F000BC00F0003F008F
:10CE10000C0C0F0205032DF00000F00000F00000E4
:10CE2000F00000F00000F00000F00000F00000F062
:10CE30000000F00000F00000F00000F00000FFFF34
:10CE4000C0FFFFC012100F0205041EF00000F0FC2E
:10CE50000002F0FD0007F0FF000FF0FF801FF0F36D
:10CE6000C03CF0F1F0B4F0F0F583F01B3FC0F0F0FF
:10CE70002F80F0F00F00F0F00000F0F00000F0F074
:10CE80000000F0F00000F0100C0F0205032DF4007C
:10CE90000FFC000FFE000FFF400FFBC00FF2F00F62
:10CEA000F0F80FF07D0FF02F0FF00F8FF003EFF081
:10CEB00001FFF000BFF0003FF0001F0F100F010551
:10CEC000043C00BF900007FFF8001F807E003D007B
:10CED0000F007C000B80F40007C0F00003C0F000DE
:10CEE00003C0F00003C0F40007C07C000B803D00CD
:10CEF0000F001F407E000BFFF80000BF90000D0CDC
:10CF00000F0205032BFFF900FFFF80F007D0F001AF
:10CF1000F0F000F0F001F0F007D0FFFF80FFF90023
:10CF2000F00000F00000F00000F00000F00000F061
:10CF30000200000F10120105043B00BF900007FF24
:10CF4000F8001F807E003D000F007C000B80F40085
:10CF500007C0F00003C0F00003C0F00003C0F400FD
:10CF600007C07C000B803D000F401F407E0007FF84
:10CF7000F80000BFF4830001BD8300061F8000009D
:10CF800007F00D0C0F0205032DFFF900FFFF80F0E5
:10CF900007D0F001F0F000F0F001F0F007E0FFFF43
:10CFA00080FFFE00F03E00F00F40F007C0F003F0FD
:10CFB000F000F4F0007C0C0C0F0005032D01FF4085
:10CFC0000FFFF02F00F83D00343D00002F40000F10
:10CFD000F90001FFD00007F40000BC10003C78000D
:10CFE0003C3E00B81FFFF001FF800D0C0F01050350
:10CFF0002DFFFFFCFFFFFC003C00003C00003C005C
:10D00000003C00003C00003C00003C00003C0000F4
:10D010003C00003C00003C00003C00003C00100CC8
:10D020000F0205032DF0000FF0000FF0000FF000CD
:10D030000FF0000FF0000FF0000FF0000FF0000FE6
:10D04000F0000FF4001F7C003D3F00FC0FFFF002DA
:10D05000FF800E100F0005043AB80003C07C0007E3
:10D06000C03D000B401F000F000F001E000B803D55
:10D070000007C03C0003D0780002E0F00000F0F0B0
:10D080000000F6D000007FC000003F8000002F406D
:10D0900000000F02000014140F0005054BB8003CFF
:10D0A000003D7C007C003C3C00BE00782D00FF0071
:10D0B000B41F01EF00F00F02DB40F00F43C781D037
:10D0C0000783C3C2C003C743D3C003DB01E78002A9
:10D0D000EF00FB4000FE00FF0000FD00BE0000BCB2
:10D0E000003D000078003C000E100F0005041E7D7E
:10D0F000000BC02F001F000F803D0003D0B80002BE
:10D10000F1F00000FFD000003F8000002F83001BE3
:10D110007FC00000FBD00002F1F00007C0BC000F90
:10D12000403E002E001F407C000BC00C100FFE057F
:10D1300004263E0007C01F000F400F802F0003D0C1
:10D140003C0002F0B80000F4F000007FD000003F87
:10D15000C000000F4000000F8300010F8300010F8B
:10D160008300010F8300010F8300010F0200000DF7
:10D170000C0F0105032D3FFFFC3FFFF80001F000FD
:10D1800003D0000BC0001F00003E0000BC0001F4F3
:10D190000003E0000BC0001F40003F0000BFFFFC89
:10D1A000FFFFFC08081302030226FFC0FFC0F000C7
:10D1B000F000F000F000F000F000F000F000F000EF
:10D1C000F000F000F000F000F000F000FFC0FFC041
:10D1D00008080F0005021EB4003C003C001E000FB2
:10D1E000000B40078003C002D000F000F000B80040
:10D1F0003C003C001E08081301030226FFC0FFC0CC
:10D2000003C003C003C003C003C003C003C003C006
:10D2100003C003C003C003C003C003C003C0FFC0FA
:10D22000FFC00A0C080005031800F00002F4000318
:10D23000FC000BAD000F0F001E0F003C07803C03ED
:10D24000C0090C0200150306FFFFC0FFFFC006085F
:10D25000040104020864003C002D000F000B0C0BBD
:10D260000109032107F8003FFF00780F800007C085
:10D270000BFBC03FFFC0F807C0F007C0F80FC07F2E
:10D28000FFC01FE3C00C0C0F0105032DF00000F0E0
:10D290000000F00000F00000F1FD00FFFF80FD073E
:10D2A000D0F802E0F401F0F000F0F401F0F802E050
:10D2B000FD07D0FBFF80F1FD000A0C0B01090321E3
:10D2C00006FD001FFF403D0740B80000F40000F0DD
:10D2D0000000F40000B800003D07401FFF4006FDBD
:10D2E000000C0C0F0105032D0000F00000F0000001
:10D2F000F00000F007F4F02FFFF07D07F0B802F027
:10D30000F401F0F000F0F401F0B802F07D07F02F26
:10D31000FEF007F4F00B0C0B0009032102FE000FD6
:10D32000FFC03E02E03C00F07FFFF07FFFF07C009A
:10D33000003C00002F01D00FFFC002FE00090C10BE
:10D340000104032E01FE0007FE000F80000F000005
:10D350000F0000FFFC00FFFC000F00000F00000F9B
:10D3600000000F00000F00000F00000F00000F0072
:10D37000000F0200000C0C100109033007F4F02F1D
:10D38000FEF07D07F0B802F0F401F0F000F0F401D7
:10D39000F0B802F07D07F02FFEF007F4F00001F086
:10D3A0001002E07C07D03FFF8007FD000B0C0F014F
:10D3B00005032DF00000F00000F00000F00000F187
:10D3C000FD00FFFF00FD0F80F407C0F003C0F00375
:10D3D000C0F003C0F003C0F003C0F003C0F003C00E
:10D3E00004040F01050104B0F0A0008BF004081440
:10D3F000FC05020600B000F000A083001FF000F062
:10D4000000F000F000F000F000F000F000F000F09C
:10D4100000F000F000F002F07FD03F400A0C0F0156
:10D4200005032DF00000F00000F00000F00000F017
:10D430000B80F02F00F07C00F0F000F7D000FFF040
:10D4400000FEF800F87C00F02F00F00F80F007C01D
:10D4500005040F0105018FF010100B0109042CF2D7
:10D46000F82F80FFFDFFD0FC2FC2F0F40F40F0F04A
:10D470000F00F0F00F00F0F00F00F0F00F00F0F0F0
:10D480000F00F0F00F00F0F00F00F00B0C0B010993
:10D490000321F2FD00FBFF00FD0F80F407C0F00345
:10D4A000C0F003C0F003C0F003C0F003C0F003C03D
:10D4B000F003C00C0C0B0109032102FD001FFF80CB
:10D4C0003D07D0B801F0F400F0F000F0F400F0B83F
:10D4D00001F03D07D01FFF8002FD000C0C10010978
:10D4E000032EF1FD00FBFF80FD07D0F802E0F40100
:10D4F000F0F000F0F401F0F802E0FD07D0FBFF804F
:10D50000F1FD00F00000F00000F00000F00000F07D
:10D510000200000C0C100109033007F4F02FFEF09C
:10D520007D07F0B802F0F401F0F000F0F401F0B87B
:10D5300002F07D07F02FFEF007F4F00000F000008D
:10D54000F00000F00000F00000F007080B010902F5
:10D5500016F2F4FBF0FD00F800F400F000F000F02B
:10D5600000F000F000F0000A0C0B0009032107FD99
:10D57000001FFF403D07803D00002F900007FE0088
:10D58000001F800003C03C0BC02FFF4007FD0009B7
:10D59000080E0106021C0F000F000F00FFFCFFFC2D
:10D5A0000F000F000F000F000F000F000F400BFCCB
:10D5B00002FC0B0C0B01090321F003C0F003C0F0C7
:10D5C00003C0F003C0F003C0F003C0F003C0F40BCD
:10D5D000C0BC1FC07FFBC01FE3C00B0C0B000903C6
:10D5E00021B800F43C00F03D02E01F03C00F0380AF
:10D5F0000B8B4003CF0003EE0001FC0000FC000099
:10D60000B40010100B0009042CB403C01E7C07D01A
:10D610002C3C0BE03C2D0FF0781F0EB4B00F1D78A2
:10D62000F00B7C3DE003F82FC003F41FC002F00FA5
:10D630008000E00B000A0C0B000903217C02E03E95
:10D6400007C00F4F4007EE0002FC0000F40002FC90
:10D650000007EE000F0F403E07C07C02E00B0C10ED
:10D660000009032EB800F47C00F03D01E02E03C059
:10D670000F03C00B474007CF0003DE0002FD000090
:10D68000FC0000B80000B00000F00002D000BFC0F5
:10D6900000BE0200000A080B01090284FF0E003CD4
:10D6A00000F402E003C00F402E003C0084FF080895
:10D6B000130103022602F80BF40F800F000F000F76
:10D6C000000F002F00FC00FC002F000F000F000FC8
:10D6D000000F000F000F8007F401F804041301038A
:10D6E0000193F008081301030226F800FF001F0051
:10D6F0000F000F000F000F000B8002F803F40B80E7
:10D700000F400F000F000F000F001F00FE00F80079
:10D710000C0C04010B030C2F41D07FD2D0F0FFC0C2
:10D72000A02F00080807010202051F407FD0F483E4
:10D73000F006F4F07FD02F80130805070A020A3F95
:10D7400000FFC0FFC0FFC03F00131411000305021B
:10D750002F80830002BAE0830017E0B007F900E0F1
:10D76000B07FFF80B5E1FD0BE02FC3E001D00007E3
:10D77000C08300020B808300020F408300020F4031
:10D780008300020F408300020B8083000207C083E6
:10D79000001303E000D00001F807E000007FFF80E5
:10D7A00000000BFD00121411000305022F808300FE
:10D7B00002BAE0830012E0B0AAAA80E0B0FFFFC086
:10D7C000B5E0F400002FC0F0840001F0840001F007
:10D7D000840001F084000BFFFF400000FFFF4000C9
:10D7E00000F0840001F0840001F0840001F0840066
:10D7F00001F0840001F002000014101203040484FC
:10D800000083FF01FC83FF29FCF000003CF00000D6
:10D810003CF000003CF000003CF000003CF0000058
:10D820003CF000003CF000003CF000003CF0000048
:10D830003C83FF01FC83FF09FCF000003CF000008A
:10D840003C840000052700005AFA2F001602000051
:10D8500051F50100EDDD34004502000052F50100F4
:10D8600032E034003C0200000827000070FC2F006A
:10D870004F02000009270000BFFE2F0079010000C1
:10D880000A27000038003000560200000B27000075
:10D890008E023000C80100000C2700005604300042
:10D8A000E40100000D2700003A0630008C01000062
:10D8B00053F501006EE23400470200000F2700001C
:10D8C000C60730009501000054F50100B5E43400AE
:10D8D0004E02000055F5010003E734004A02000043
:10D8E000122700005B093000AD01000056F5010071
:10D8F0004DE934004D02000014270000080B3000F1
:10D900001D01000057F501009AEB340047020000AA
:10D9100016270000250C3000B701000058F5010063
:10D92000E1ED34003A02000059F501001BF034002B
:10D93000430200005AF501005EF234004402000088
:10D940005BF50100A2F434003B0200005CF501002D
:10D95000DDF634004A0200005DF5010027F93400CD
:10D96000430200001D270000DC0D3000BE01000056
:10D970005EF501006AFB34003E0200005FF5010025
:10D98000A8FD34004402000060F50100ECFF340003
:10D990003D020000212700009A0F300046020000DF
:10D9A00061F50100290235003D02000062F5010029
:10D9B000660435004102000063F50100A70635004A
:10D9C0004302000064F50100EA0835003E02000051
:10D9D00065F50100280B35004A0200009421000083
:10D9E00051232F00E201000023000000C7FD2E009C
:10D9F0000E0200009521000033252F00E0010000F9
:10DA00009621000013272F00B3010000972100008A
:10DA1000C6282F00AE01000098210000742A2F00B4
:10DA2000B001000099210000242C2F00A701000064
:10DA300028270000E01130006D0100002A000000DE
:10DA4000D5FF2E000402000066F50100720D3500BE
:10DA50004C02000067F50100BE0F35004C020000CB
:10DA60006FF501000A1235006D0100003327000038
:10DA70004D133000F700000034270000441430003C
:10DA80003901000030000000D9012F00050200001C
:10DA900031000000DE032F00BA0100003200000058
:10DAA00098052F00E00100003300000078072F00E8
:10DAB000EF0100003400000067092F00E3010000BF
:10DAC000350000004A0B2F00E50100003600000081
:10DAD0002F0D2F00FF010000370000002E0F2F0038
:10DAE000B901000038000000E7102F000B02000011
:10DAF00039000000F2122F00FB010000A9210000F4
:10DB0000CB2D2F00CB010000AA210000962F2F0063
:10DB1000C501000070F50100771335000102000017
:10DB200073F50100781535000001000074F501005F
:10DB3000781635002C010000442700007D153000C8
:10DB40007402000075F50100A4173500BC02000046
:10DB500076F50100601A3500FC0000004727000040
:10DB6000F11730007001000077F501005C1B3500F3
:10DB70009C01000078F50100F81C350059010000F7
:10DB800079F50100511E3500440100007AF50100CD
:10DB9000951F35007C0100004C2700006119300002
:10DBA0003002000087F5010011213500C402000099
:10DBB0004E270000911B3000490200008AF5010049
:10DBC000D5233500710100008BF501004625350095
:10DBD000730100008CF50100B92635000E0100002C
:10DBE0008DF50100C72735003501000053270000DF
:10DBF000DA1D30002A01000054270000041F300005
:10DC00002A010000552700002E203000FF000000F0
:10DC100090F50100FC283500E601000057270000C0
:10DC20002D213000FF00000095F50100E22A3500AB
:10DC30004B01000096F501002D2C3500C7010000B6
:10DC4000A4F50100F42D350086010000A5F50100C2
:10DC50007A2F350021020000A8F501009B31350024
:10DC60008D010000B1F5010028333500CA01000024
:10DC7000B2F50100F23435000B020000BCF50100E2
:10DC8000FD363500A6020000C2F50100A3393500BB
:10DC9000C7000000C3F501006A3A35001F0100000B
:10DCA000C4F50100893B3500240200006327000011
:10DCB0002C22300064010000642700009023300013
:10DCC000BE010000D1F50100AD3D3500F0010000BE
:10DCD000D2F501009D3F350081010000D3F5010020
:10DCE0001E413500FE020000DCF501001C44350039
:10DCF000C5010000DDF50100E145350067010000C8
:10DD0000DEF50100484735004D020000E1F5010055
:10DD10009549350043010000E3F50100D84A35007C
:10DD2000A3000000E8F501007B4B3500E90000008E
:10DD3000EFF50100644C3500C1010000F3F501006E
:10DD4000254E3500A7010000FAF50100CC4F350043
:10DD500069020000973200005A3C3000A502000022
:10DD6000FBF5010035523500270100009932000013
:10DD7000FF3E3000D2020000FCF501005C5335008C
:10DD8000FA000000FDF50100565435003102000094
:10DD9000FEF50100875635003D010000FFF501004A
:10DDA000C45735001902000000F60100DD593500A6
:10DDB000C502000001F60100A25C3500E00200008F
:10DDC00002F60100825F3500BB02000003F601008D
:10DDD0003D623500CD02000004F601000A65350001
:10DDE000BF02000005F60100C9673500C902000046
:10DDF00006F60100926A3500C602000007F601002F
:10DE0000586D3500C002000008F60100187035009A
:10DE10009A02000009F60100B2723500C702000044
:10DE20000AF6010079753500D10200000BF60100F9
:10DE30004A783500AB0200000CF60100F57A350097
:10DE4000BD0200000DF60100B27D3500B6020000F3
:10DE50000EF6010068803500740200000FF6010024
:10DE6000DC823500B002000010F601008C85350020
:10DE7000BE02000011F601004A883500A50200002C
:10DE800012F60100EF8A3500BB02000013F6010014
:10DE9000AA8D3500B502000014F601005F90350030
:10DEA000B302000015F6010012933500D002000005
:10DEB00016F60100E2953500CB02000017F60100CE
:10DEC000AD983500DB02000018F60100889B350094
:10DED000D602000019F601005E9E3500DB0200004C
:10DEE0001AF6010039A13500EA0200001BF6010014
:10DEF00023A43500C20200001CF60100E5A635008F
:10DF0000CF020000952700004E253000D50000000C
:10DF100096270000232630005400000097270000B9
:10DF200077263000FF0000001DF60100B4A935007F
:10DF3000C10200001EF6010075AC3500BB020000F6
:10DF40001FF6010030AF3500CC02000020F60100C2
:10DF5000FCB13500D902000021F60100D5B435002E
:10DF60000603000022F60100DBB73500D6020000F0
:10DF700023F60100B1BA3500CD02000024F60100FD
:10DF80007EBD3500D602000025F6010054C03500E4
:10DF9000DA020000A127000076273000800100008F
:10DFA00026F601002EC33500BB02000027F6010053
:10DFB000E9C53500C002000028F60100A9C83500F7
:10DFC0009A02000029F6010043CB3500D10200007F
:10DFD0002AF6010014CE3500AF0200002BF6010036
:10DFE000C3D03500D10200002CF6010094D33500D7
:10DFF000CE0200002DF6010062D6350013030000AA
:10E000002EF6010075D93500DE0200002FF6010062
:10E0100053DC3500C802000030F601001BDF35007C
:10E020009E02000031F60100B9E13500F80200005F
:10E03000A9000000ED142F003902000032F60100A3
:10E04000B1E43500D6020000B0270000F628300009
:10E050007101000033F6010087E73500DF020000A0
:10E0600034F6010066EA3500DA020000AE00000076
:10E0700026172F002502000035F6010040ED35007F
:10E08000E802000036F6010028F035001302000017
:10E0900037F601003BF235007A02000038F6010045
:10E0A000B5F435003902000039F60100EEF635000E
:10E0B00059020000CFF00100654330000902000062
:10E0C0003AF6010047F93500FD0100003BF601007A
:10E0D00044FB35004E0200003CF6010092FD350085
:10E0E000090200003DF601009BFF350051020000CF
:10E0F0003EF60100EC01360016020000BF270000CA
:10E10000672A3000BB0100003FF601000204360020
:10E110002302000040F6010025063600C002000080
:10E1200041F60100E5083600CA02000042F601008F
:10E13000AF0B3600C502000043F60100740E360036
:10E14000CE02000044F6010042113600D102000068
:10E1500045F60100131436002E02000046F60100B9
:10E16000411636000302000047F60100441836004D
:10E170002502000048F60100691A360088010000F7
:10E1800049F60100F11B3600B00100004AF601001B
:10E19000A11D3600C20100004BF60100631F3600CE
:10E1A000E70100004CF601004A213600540200004D
:10E1B0004DF601009E233600AE0100004EF6010030
:10E1C0004C253600D20100004FF601001E27360014
:10E1D0005201000011F90100B3073700E40200000A
:10E1E00012F90100970A3700E502000013F9010057
:10E1F0007C0D3700E802000014F9010064103700BC
:10E20000F302000015F901005713370099020000CE
:10E2100016F90100F0153700CA01000080F6010070
:10E22000702836008A02000081F60100FA2A3600C2
:10E230007001000082F601006A2C360073020000B3
:10E2400083F60100DD2E36005C01000084F601003B
:10E25000393036005101000085F601008A31360060
:10E260008801000086F60100123336000F0200001C
:10E2700087F6010021353600C102000088F6010052
:10E28000E23736006501000089F6010047393600A3
:10E29000A20200008AF60100E93B360009020000F4
:10E2A0008BF60100F23D3600D80100008CF601002B
:10E2B000CA3F3600AB0100008DF601007541360003
:10E2C000F50100008EF601006A433600F3010000FC
:10E2D0008FF601005D453600F701000090F6010061
:10E2E000544736005901000091F60100AD48360050
:10E2F000A401000092F60100514A3600AD02000070
:10E3000093F60100FE4C3600B101000094F60100C6
:10E31000AF4E3600AD01000095F601005C503600AE
:10E320009E01000096F60100FA513600B601000089
:10E3300097F60100B05336004101000098F6010045
:10E34000F1543600B001000099F60100A1563600E4
:10E35000A40100009AF60100455836004A02000068
:10E360009BF601008F5A3600560200009CF6010011
:10E37000E55C3600640200009DF60100495F36004E
:10E38000BC0100009EF6010005613600210200007C
:10E390009FF601002663360065020000A0F601002A
:10E3A0008B653600CB010000A1F6010056673600F0
:10E3B00086010000A2F60100DC683600A60100001C
:10E3C000A3F60100826A3600AB010000A4F601004A
:10E3D0002D6C3600F6000000A5F60100236D360016
:10E3E0003D010000A6F60100606E360097010000B6
:10E3F000A7F60100F76F36002B020000A8F6010017
:10E40000227236000F020000A9F6010031743600B6
:10E41000A4010000AAF60100D57536007D010000B8
:10E42000ABF601005277360016020000ACF6010090
:10E4300068793600DC000000ADF60100447A360051
:10E4400085020000AEF60100C97C360077020000AC
:10E45000AFF60100407F3600EF020000B0F6010089
:10E460002F82360016020000B1F601004584360006
:10E47000D4020000B2F6010019873600BA0100008C
:10E48000B3F60100D3883600E9020000B4F60100BB
:10E49000BC8B360069020000B5F60100258E3600FF
:10E4A000C2020000B6F60100E79036001501000038
:10E4B000B7F60100FC913600D0020000B8F601006A
:10E4C000CC9436000C020000B9F60100D896360054
:10E4D000D5010000BAF60100AD983600DA0100005F
:10E4E000BBF60100879A3600CB020000BCF60100A3
:10E4F000529D360035020000BDF60100879F3600B0
:10E5000099010000BEF6010020A1360011020000B2
:10E51000BFF6010031A3360003020000C0F601007F
:10E5200034A5360036020000C1F601006AA73600A5
:10E53000CA010000C2F6010034A936004F020000F3
:10E54000C3F6010083AB360039020000C4F60100B7
:10E55000BCAD360093020000C5F601004FB0360096
:10E560008E02000017F90100BA17370009030000F6
:10E5700018F90100C31A3700EB01000019F9010076
:10E58000AE1C3700350100001AF90100E31D370009
:10E59000B40100001BF90100971F37002A01000099
:10E5A000CBF60100DDB2360033010000CCF60100ED
:10E5B00010B436001C010000CDF601002CB5360069
:10E5C0002C020000CEF6010058B7360043010000CF
:10E5D000CFF601009BB83600DB000000D0F601004A
:10E5E00076B936001C020000D1F6010092BB36005D
:10E5F000F6000000D2F6010088BC36007E01000063
:10E600001CF90100C1203700290100001DF901009B
:10E61000EA2137007E020000D5F6010006BE360072
:10E62000DB010000D6F60100E1BF36009E010000CC
:10E63000D7F601007FC13600C10200001EF90100BB
:10E6400068243700B30100001FF901001B263700C2
:10E65000E601000020F90100012837005502000002
:10E6600021F90100562A3700D9020000DCF601002A
:10E6700040C4360025020000DDF6010065C6360004
:10E68000FB010000DEF6010060C8360092020000C7
:10E69000DFF60100F2CA36001D020000E0F60100BC
:10E6A0000FCD3600F3010000E1F6010002CF360085
:10E6B000ED010000E2F60100EFD03600AB010000F2
:10E6C000E3F601009AD23600A8020000E4F6010049
:10E6D00042D53600E1010000E5F6010023D73600FF
:10E6E0001501000022F901002F2D3700F70200006C
:10E6F00023F90100263037000403000024F901004B
:10E700002A333700C5020000E9F6010038D8360088
:10E710002B02000025F90100EF353700C50200008B
:10E72000EBF6010063DA36004F010000ECF6010061
:10E73000B2DB36007201000026F90100B438370060
:10E740002F02000027F90100E33A3700010300001F
:10E7500028F90100E43D3700C6020000F0F6010090
:10E7600024DD3600E401000029F90100AA40370049
:10E77000A30200002AF901004D433700E402000023
:10E78000F3F6010008DF3600DA010000F4F60100BC
:10E79000E2E036003B010000F5F601001DE2360024
:10E7A000EE010000F6F601000BE436000D0100005A
:10E7B000F7F6010018E536004D010000F8F60100FB
:10E7C00065E6360002020000F9F6010067E836004F
:10E7D00030010000FAF6010097E93600DB01000085
:10E7E000FBF6010072EB360071010000FCF601003F
:10E7F000E3EC36002D0200002BF901003146370012
:10E80000D90200002CF901000A493700E602000095
:10E810002DF90100F04B3700F90200002EF901003C
:10E82000E94E3700E40200002FF90100CD51370016
:10E83000C202000030F901008F543700C10100000E
:10E8400070F101006E4530002002000071F10100FE
:10E850008E4730002E02000031F90100505637007B
:10E860001402000032F90100645837002D02000044
:10E8700033F90100915A37002901000034F90100F1
:10E88000BA5B37004102000035F90100FB5D37003B
:10E89000F801000036F90100F35F370021020000A3
:10E8A00037F90100146237000C02000038F901004A
:10E8B000206437002001000039F90100406537006D
:10E8C000190200003AF9010059673700DD01000024
:10E8D0003CF9010036693700170200003DF90100DC
:10E8E0004D6B3700000200007EF10100BC49300092
:10E8F000700200007FF101002C4C3000FF0100008D
:10E900003EF901004D6D3700BA0100003FF90100EA
:10E91000076F3700C701000040F90100CE703700D3
:10E920009101000041F901005F7237005C020000B4
:10E9300042F90100BB7437002902000043F90100CD
:10E94000E47637004702000044F901002B793700D4
:10E950005D01000045F90100887A3700C30100001D
:10E9600047F901004B7C3700AF01000048F9010076
:10E97000FA7D3700B401000049F90100AE7F37008D
:10E98000B10100004AF901005F813700FE0000007C
:10E990004BF901005D823700F20200004CF90100E2
:10E9A0004F853700090200008EF101002B4E300028
:10E9B000280200004DF9010058873700C20100000D
:10E9C0004EF901001A893700F401000091F10100AD
:10E9D00053503000FE01000092F10100515230000E
:10E9E000F501000093F1010046543000D901000008
:10E9F00094F101001F5630000102000095F1010062
:10EA000020583000E501000096F10100055A300061
:10EA10002102000097F10100265C30004602000050
:10EA200098F101006C5E30005D02000099F1010078
:10EA3000C9603000430200009AF101000C6330000D
:10EA40003A0200004FF901000E8B3700DB01000095
:10EA500050F90100E98C37008A02000051F90100E9
:10EA6000738F37000D02000052F9010080913700CA
:10EA7000C801000053F90100489337007B010000F2
:10EA800054F90100C3943700C601000055F9010094
:10EA9000899637003801000056F90100C197370008
:10EAA000E301000057F90100A499370017020000A4
:10EAB00058F90100BB9B37003303000059F90100EE
:10EAC000EE9E3700DA0200005AF90100C8A13700B3
:10EAD000380100005BF9010000A33700B501000018
:10EAE0005CF90100B5A43700940100005DF9010054
:10EAF00049A637009B0200005EF90100E4A8370038
:10EB0000D90200005FF90100BDAB37007C010000B5
:10EB100060F9010039AD37002602000061F90100FB
:10EB20005FAF37004E02000062F90100ADB137005F
:10EB3000E700000063F9010094B237003C010000D7
:10EB400064F90100D0B337001F01000065F901002E
:10EB5000EFB437005702000066F9010046B73700EE
:10EB60002C02000067F9010072B93700F1010000C2
:10EB700068F9010063BB37006702000069F9010012
:10EB8000CABD37001A0200006AF90100E4BF37006D
:10EB9000EF0100006BF90100D3C13700F90100005B
:10EBA0006CF90100CCC33700500200006DF9010080
:10EBB0001CC637002B0200006EF9010047C8370061
:10EBC000340300006FF901007BCB37009602000090
:10EBD00070F9010011CE37000003000071F9010047
:10EBE00011D13700FA02000072F901000BD437008E
:10EBF000CA02000073F90100D5D63700D90200001F
:10EC000074F90100AED93700DB02000075F901008C
:10EC100089DC37000703000076F9010090DF370038
:10EC2000FF0200001A2300005B312F0043020000A6
:10EC30001B2300009E332F007701000077F90100AD
:10EC40008FE237007202000078F9010001E5370019
:10EC50002B03000079F901002CE83700EB020000DB
:10EC60007AF9010017EB3700EC0200007BF9010094
:10EC700003EE3700540200007CF9010057F0370022
:10EC8000AE0200007DF9010005F337009801000095
:10EC90007EF901009DF43700CB0100007FF90100EF
:10ECA00068F63700F300000080F901005BF73700D9
:10ECB000DD01000081F9010038F93700BB010000D7
:10ECC00082F90100F3FA3700BF0100002823000099
:10ECD00015352F008201000083F90100B2FC3700D6
:10ECE0004702000084F90100F9FE3700E501000049
:10ECF00085F90100DE0038004201000086F90100BC
:10ED0000200238005D01000087F901007D03380012
:10ED1000C101000088F901003E05380069010000CA
:10ED200089F90100A7063800170200008AF90100DE
:10ED3000BE083800D00100008BF901008E0A3800AF
:10ED4000420200008CF90100D00C3800490100009B
:10ED50008DF90100190E38003A0200008EF9010009
:10ED6000531038008D0100008FF90100E0113800C8
:10ED70008F01000090F901006F1338006B01000053
:10ED800091F90100DA143800F601000092F901004F
:10ED9000D01638009601000093F90100661838007B
:10EDA000B902000094F901001F1B38002502000081
:10EDB00095F90100441D38008601000096F9010014
:10EDC000CA1E3800A7010000E6F1010046653000C8
:10EDD0009D000000E7F10100E3653000A0000000A5
:10EDE000E8F101008366300089000000E9F10100CC
:10EDF0000C673000AD000000EAF10100B967300097
:10EE000078000000EBF1010031683000780000006C
:10EE1000ECF10100A9683000A9000000EDF101004B
:10EE200052693000C6000000EEF10100186A30009F
:10EE300076000000EFF101008E6A300083000000D0
:10EE4000F0F10100116B3000CB000000F1F1010086
:10EE5000DC6B300078000000F2F10100546C3000EF
:10EE6000EE000000F3F10100426D3000F2000000FE
:10EE7000F4F10100346E3000AD000000F5F1010046
:10EE8000E16E300090000000F6F10100716F30007B
:10EE9000B9000000F7F101002A703000B500000051
:10EEA000F8F10100DF7030008D000000F9F1010081
:10EEB0006C71300078000000FAF10100E47130005C
:10EEC000C2000000FBF10100A6723000AC0000009F
:10EED000FCF1010052733000E7000000FDF1010079
:10EEE00039743000A0000000FEF10100D974300038
:10EEF00099000000FFF101007275300076000000FB
:10EF000097F9010071203800A501000001F201000D
:10EF1000E8753000BE01000002F20100A677300063
:10EF20000E02000098F9010016223800510100007D
:10EF300099F9010067233800B00100009AF9010037
:10EF400017253800700200009BF901008727380060
:10EF5000A80100009CF901002F2938006C01000075
:10EF60009DF901009B2A3800E60100009EF901008E
:10EF7000812C3800C30100009FF90100442E3800A5
:10EF80008D010000A0F90100D12F38002C020000F3
:10EF9000A1F90100FD3138003B010000A2F9010098
:10EFA0003833380048010000A3F9010080343800EC
:10EFB00033020000A4F90100B33638006D010000EF
:10EFC000A5F901002038380043020000A6F901002D
:10EFD000633A380004020000A7F90100673C3800DA
:10EFE00026020000A8F901008D3E38006A010000E9
:10EFF000A9F90100F73F380028010000AAF9010033
:10F000001F41380058020000ABF901007743380077
:10F010009A010000ACF90100114538001A02000005
:10F02000ADF901002B47380020020000AEF90100C5
:10F030004B493800FB0100001AF20100B47930009E
:10F0400040020000AFF90100464B380052010000B9
:10F05000B0F90100984C3800F0010000B1F901004E
:10F06000884E3800CF010000B2F901005750380037
:10F0700024010000B3F901007B513800EA010000CF
:10F08000B4F901006553380025010000B5F901000D
:10F090008A54380025010000B6F90100AF55380048
:10F0A0002A010000B7F90100D95638001801000004
:10F0B000B8F90100F1573800CA010000B9F90100A0
:10F0C000BB59380011020000BAF90100CC5B3800CE
:10F0D000A9020000BBF90100755E38002D02000096
:10F0E000BCF90100A2603800AD010000BDF90100CB
:10F0F0004F623800A7010000BEF90100F663380036
:10F1000038020000BFF901002E66380081010000BE
:10F11000C0F90100AF6738008E010000C1F901009D
:10F120003D6938005D020000C2F901009A6B3800A9
:10F13000EF0100002FF20100F47B300057020000C5
:10F14000C3F90100896D380092010000C4F9010083
:10F150001B6F38002002000032F201004B7E3000AD
:10F160005F02000033F20100AA8030000E020000AE
:10F1700034F20100B88230000202000035F20100D2
:10F18000BA8430008E02000036F201004887300059
:10F190000102000037F2010049893000F50100004A
:10F1A00038F201003E8B30000E02000039F20100FF
:10F1B0004C8D30007E0200003AF20100CA8F300010
:10F1C0000D020000C5F901003B7138009C020000EF
:10F1D000C6F90100D773380056020000C7F90100D4
:10F1E0002D76380018020000C8F901004578380073
:10F1F00053010000C9F9010098793800430100006B
:10F20000CAF90100DB7A380037030000CBF90100AE
:10F21000127E3800DA010000CCF90100EC7F3800E2
:10F220004C020000CDF90100388238002F010000A7
:10F23000CEF901006783380031010000CFF90100E9
:10F240009884380035020000D0F90100CD863800DE
:10F25000F6020000D1F90100C38938009D020000C8
:10F26000D2F90100608C38003A020000D3F90100A5
:10F270009A8E3800BD02000034290000222C300094
:10F28000FE01000035290000202E3000F0010000B2
:10F29000D4F90100579138004D020000E0F7010059
:10F2A00010EF36007B010000E1F701008BF0360023
:10F2B0007B010000E2F7010006F236007B0100004E
:10F2C00050F20100D79130009302000051F201008A
:10F2D0006A94300050020000E3F7010081F3360029
:10F2E0007B010000E4F70100FCF436007B01000024
:10F2F000E5F7010077F6360007010000E6F70100A8
:10F300007EF7360007010000E7F7010085F83600B8
:10F3100007010000E8F701008CF936000701000042
:10F32000E9F7010093FA36000B010000EAF701004B
:10F330009EFB36000B010000EBF70100A9FC360034
:10F340000B010000D5F90100A49338006D02000004
:10F35000D6F901001196380002030000F0F7010011
:10F36000B4FD360092000000D7F90100139938006F
:10F370006F020000D8F90100829B3800A80100004C
:10F38000D9F901002A9D380048020000DAF901008D
:10F39000729F380001020000DBF9010073A1380000
:10F3A0007D020000DCF90100F0A33800EA01000052
:10F3B000DDF90100DAA538008C020000DEF9010059
:10F3C00066A838005F020000DFF90100C5AA380016
:10F3D00096020000E0F901005BAD38006202000017
:10F3E000E1F90100BDAF380085010000E2F901003C
:10F3F00042B138003A010000E3F901007CB2380064
:10F400006F010000E4F90100EBB33800680100006F
:10F41000E5F9010053B53800DE010000E6F901000E
:10F4200031B7380073010000E7F90100A4B83800D3
:10F43000A8010000E8F901004CBA38007A01000088
:10F44000E9F90100C6BB380033020000EAF9010007
:10F45000F9BD38006F010000EBF9010068BF38000A
:10F4600068010000ECF90100D0C03800C9010000BB
:10F47000EDF9010099C23800D9020000EEF901004F
:10F4800072C5380047020000EFF90100B9C7380023
:10F4900076010000F0F901002FC938001A010000C0
:10F4A000CF23000097362F00A1010000F1F90100E1
:10F4B00049CA38000D020000F2F9010056CC3800AC
:10F4C00036010000F3F901008CCD3800C8010000BE
:10F4D000F4F9010054CF380014010000F5F90100DF
:10F4E00068D03800CF010000F6F9010037D23800AB
:10F4F000D1020000F7F9010008D5380064010000CE
:10F50000F8F901006CD63800E7010000F9F90100B4
:10F5100053D8380002010000FAF9010055D938002B
:10F52000B6020000FBF901000BDC3800E40100002A
:10F53000FCF90100EFDD38001B020000FDF90100BD
:10F540000AE038002B020000FEF9010035E2380025
:10F550003F020000FFF9010074E43800540200008B
:10F5600070FA0100C8E63800A002000071FA01003C
:10F5700068E938003E01000072FA0100A6EA38008E
:10F580003E01000073FA0100E4EB3800CD010000F9
:10F5900074FA0100B1ED38005401000075FA010061
:10F5A00005EF38008101000076FA010086F038008E
:10F5B0008101000077FA010007F2380081010000A4
:10F5C00078FA010088F33800D200000079FA0100CF
:10F5D0005AF43800BE010000E923000038382F003B
:10F5E000BF010000EA230000F7392F00D10100001D
:10F5F000EB230000C83B2F00CE010000EC230000ED
:10F60000963D2F00CD010000ED230000633F2F0049
:10F6100004020000EE23000067412F0004020000F6
:10F62000EF2300006B432F0033020000F0230000A3
:10F630009E452F0069020000F123000007482F00BB
:10F640001A020000F2230000214A2F00A602000047
:10F65000F3230000C74C2F00AA0100007AFA010032
:10F6600018F638009F0100007BFA0100B7F7380058
:10F67000410300007CFA0100F8FA38001201000092
:10F6800080FA01000AFC380021020000F823000083
:10F69000714E2F00CD010000F92300003E502F00D5
:10F6A00077010000FA230000B5512F008F01000000
:10F6B00081FA01002BFE3800BF01000082FA010030
:10F6C000EAFF38001D02000083FA0100070239003A
:10F6D0007201000084FA010079033900D9010000A9
:10F6E00085FA010052053900C802000086FA0100BF
:10F6F0001A0839003202000087FA01004C0A39006A
:10F700002202000088FA01006E0C39003A01000064
:10F7100090FA0100A80D39009C01000091FA010047
:10F72000440F39006601000092FA0100AA10390066
:10F730004601000093FA0100F01139003401000085
:10F7400094FA0100241339001E02000095FA01000A
:10F75000421539009B01000096FA0100DD163900C0
:10F760006701000097FA0100441839006F02000099
:10F7700098FA0100B31A3900C601000099FA010095
:10F78000791C3900C60200009AFA01003F1F3900B7
:10F79000860100009BFA0100C52039005E010000CF
:10F7A0009CFA010023223900C40100009DFA0100E7
:10F7B000E7233900570100009EFA01003E25390079
:10F7C000950200009FFA0100D32739000F030000C3
:10F7D000A0FA0100E22A39000E010000A1FA01009E
:10F7E000F02B390093010000A2FA0100832D3900AB
:10F7F000D7010000A3FA01005A2F3900CA01000006
:10F80000A4FA010024313900D0010000A5FA01005A
:10F81000F432390024010000A6FA0100183439003E
:10F820001B020000A7FA0100333639002D01000049
:10F83000A8FA010060373900D5020000A9FA0100DA
:10F84000353A3900C7020000AAFA0100FC3C390031
:10F850001A010000ABFA0100163E39008E010000CB
:10F86000ACFA0100A43F390020020000ADFA01000B
:10F87000C4413900B6010000AEFA01007A433900F4
:10F88000F8000000AFFA010072443900D80200000D
:10F89000B0FA01004A47390042020000B1FA010003
:10F8A0008C4939003B010000B2FA0100C74A390017
:10F8B000FB010000B3FA0100C24C39002302000032
:10F8C000B4FA0100E54E3900FF010000B5FA01006D
:10F8D000E45039001D020000B6FA0100015339005E
:10F8E000DE010000B7FA0100DF5439002F020000EA
:10F8F000B8FA01000E5739004A020000B9FA0100B7
:10F9000058593900FD010000BAFA0100555B390071
:10F9100030020000BBFA0100855D3900C50100001E
:10F92000BCFA01004A5F390077020000BDFA01000D
:10F93000C161390048020000BFFA010009643900C2
:10F940006D010000C0FA010076653900E001000099
:10F95000C1FA0100566739006B020000C2FA0100CB
:10F96000C169390098020000C3FA0100596C3900DE
:10F97000A0010000C4FA0100F96D3900C3010000C4
:10F98000C5FA0100BC6F3900A8020000CEFA0100E0
:10F990006472390061010000CFFA0100C5733900BB
:10F9A00026010000D0FA0100EB743900EC010000E0
:10F9B000D1FA0100D776390078010000D2FA0100AF
:10F9C0004F783900B5010000D3FA0100047A3900FC
:10F9D00045030000D4FA0100497D39009902000076
:10F9E000D5FA0100E27F39002A020000D6FA0100B0
:10F9F0000C8239001F010000D7FA01002B83390067
:10FA0000B4010000D8FA0100DF84390009020000C7
:10FA1000D9FA0100E886390072010000DAFA010023
:10FA20005A88390085020000DBFA0100DF8A3900BC
:10FA3000DC010000E0FA0100BB8C3900A1020000EB
:10FA4000E1FA01005C8F3900EB020000E2FA0100EC
:10FA500047923900FC020000E3FA010043953900A7
:10FA6000FF020000E4FA010042983900CD020000D4
:10FA7000E5FA01000F9B39004C010000E6FA010095
:10FA80005B9C3900E7000000E7FA0100429D390065
:10FA9000FF010000E8FA0100419F3900A2020000C6
:10FAA000F0FA0100E3A13900A4010000F1FA01001D
:10FAB00087A3390083010000F2FA01000AA539008A
:10FAC0002C010000F3FA010036A63900F100000015
:10FAD000F4FA010027A73900EF000000F5FA010051
:10FAE00016A839000B020000F6FA010021AA39001D
:10FAF000CC010000F7FA0100EDAB39002301000052
:10FB000000F30100BA9630004D01000001F301003E
:10FB1000079830000803000002F301000F9B30003B
:10FB2000A501000003F30100B49C300014030000A1
:10FB300004F30100C89F3000C803000005F3010072
:10FB400090A330008803000006F3010018A73000DE
:10FB50000603000007F301001EAA30005F03000047
:10FB600008F301007DAD3000EA02000009F3010056
:10FB700067B030000D0300000AF3010074B33000D9
:10FB8000080200000BF301007CB5300068020000A1
:10FB90000CF30100E4B73000C60200000DF30100D1
:10FBA000AABA3000C60200000EF3010070BD30009A
:10FBB000E60200000FF3010056C03000040300000D
:10FBC00010F301005AC330002402000011F30100B9
:10FBD0007EC530000E02000012F301008CC7300019
:10FBE0005902000013F30100E5C93000640200006F
:10FBF00014F3010049CC30004502000015F3010068
:10FC00008ECE30001602000016F30100A4D03000A2
:10FC10005D02000017F3010001D330006302000011
:10FC200018F3010064D530003F02000019F3010011
:10FC3000A3D730000E0100001AF30100B1D8300044
:10FC40004A0300001BF30100FBDB3000B901000098
:10FC50001CF30100B4DD3000B20100001DF301000F
:10FC600066DF30003E0300001EF30100A4E2300016
:10FC7000B50200001FF3010059E5300055010000F6
:10FC800020F30100AEE630007E02000021F3010007
:10FC90002CE9300052010000F8FA010010AD3900E3
:10FCA000230100002BE80F0033AE3900F3020000FF
:10FCB00024F301007EEA30003601000025F3010044
:10FCC000B4EB3000E400000026F3010098EC3000B3
:10FCD0004101000027F30100D9ED30003701000099
:10FCE00028F3010010EF30000701000029F30100A4
:10FCF00017F03000350100002AF301004CF130000C
:10FD0000EE0100002BF301003AF330001302000073
:10FD10002CF301004DF530000E0200002DF3010020
:10FD20005BF730006B0100002EF30100C6F83000D5
:10FD3000250200002FF30100EBFA300063020000FF
:10FD400030F301004EFD3000F901000031F30100F5
:10FD500047FF30000B01000032F301005200310078
:10FD6000E601000033F30100380231008E0100008B
:10FD700034F30100C60331007B01000035F30100BC
:10FD8000410531001E02000036F301005F0731001B
:10FD90003A01000037F30100990831005D010000CD
:10FDA00038F30100F60931006701000039F3010062
:10FDB0005D0B31007E0100003AF30100DB0C3100E5
:10FDC000E80100003BF30100C30E31007A0100009E
:10FDD0003CF301003D1031003C0200003DF3010006
:10FDE000791231008D0200003EF30100061531004A
:10FDF000A50200003FF30100AB173100A001000095
:10FE000040F301004B193100E901000041F301000A
:10FE1000341B31002402000042F30100581D310060
:10FE20002102000043F30100791F3100230100008B
:10FE300044F301009C203100CC01000045F3010097
:10FE4000682231009B01000046F3010003243100C9
:10FE50000C01000047F301000F25310020020000D3
:10FE600048F301002F273100C302000049F30100CD
:10FE7000F2293100CB0100004AF30100BD2B310013
:10FE8000760100004BF30100332D31005D010000CD
:10FE90004CF30100902E3100BC0100004DF3010035
:10FEA0004C3031009E0100004EF30100EA31310078
:10FEB000930100004FF301007D3331008901000000
:10FEC00050F30100063531002001000051F301001C
:10FED00026363100BA02000052F30100E03831004A
:10FEE0008F01000053F301006F3A3100D30100008D
:10FEF00054F30100423C3100EA02000055F30100D6
:10FF00002C3F31001002000056F301003C4131004B
:10FF1000D401000057F30100104331003501000007
:10FF200058F30100454431005A02000059F3010022
:10FF30009F4631001D0200005AF30100BC48310009
:10FF4000A00100005BF301005C4A310031020000B7
:10FF50005CF301008D4C3100150200005DF30100DF
:10FF6000A24E31005F0200005EF30100015131003A
:10FF70007C0100005FF301007D5231004902000066
:10FF800060F30100C65431009D01000061F30100DF
:10FF9000635631001C01000062F301007F573100FD
:10FFA0002302000063F30100A2593100490200005E
:10FFB00064F30100EB5B31006601000065F30100B2
:10FFC000515D3100D002000066F301002160310074
:10FFD0007E01000067F301009F6131002B020000E9
:10FFE00068F30100CA633100EB01000069F301000E
:10FFF000B5653100ED0100006AF30100A267310030
:020000040001F9
:10000000C5020000C224000044532F008D020000EE
:100010006BF30100676A3100FE0100006CF3010020
:10002000656C3100CE0100006DF30100336E3100CC
:100030007C0200006EF30100AF703100E8010000A7
:100040006FF3010097723100C901000070F30100E5
:10005000607431000D02000071F301006D76310013
:100060002E02000072F301009B7831006501000050
:1000700073F30100007A3100FD02000074F3010007
:10008000FD7C31009101000075F301008E7E31008E
:100090005701000076F30100E57F3100B001000058
:1000A00077F30100958131009401000078F301009D
:1000B00029833100B801000079F30100E1843100A7
:1000C000C20100007AF30100A3863100560200004D
:1000D0007BF30100F9883100740200007CF3010019
:1000E0006D8B3100320200007DF301009F8D3100E5
:1000F000350200007EF30100D48F3100680100005A
:100100007FF301003C913100AF02000080F3010059
:10011000EB933100CC01000081F30100B795310071
:10012000A702000082F301005E98310090020000F7
:1001300083F30100EE9A31006102000084F30100B4
:100140004F9D31004302000085F30100929F310072
:100150001A02000086F30100ACA131000604000081
:1001600087F30100B2A53100BB03000088F3010052
:100170006DA93100D200000089F301003FAA3100CF
:10018000460200008AF3010085AC31009F020000A6
:100190008BF3010024AF3100C90100008CF3010092
:1001A000EDB03100260200008DF3010013B33100E1
:1001B000B30100008EF30100C6B43100C20200009A
:1001C0008FF3010088B731005502000090F3010061
:1001D000DDB93100A901000091F3010086BB3100B7
:1001E0006003000092F30100E6BE31007A020000D5
:1001F00093F3010060C131008E0200000CF9010090
:1002000046FE3600AA01000096F30100EEC331005D
:100210009901000097F3010087C53100200100001B
:100220000DF90100F0FF36008201000099F3010092
:10023000A7C63100F00100009AF3010097C8310011
:10024000540200009BF30100EBCA3100B802000029
:100250000EF9010072013700820100000FF9010060
:10026000F4023700EF0100009EF30100A3CD31003E
:10027000BE0200009FF3010061D03100690100005F
:10028000A0F30100CAD131006F020000A1F3010008
:1002900039D43100C5020000A2F30100FED63100BE
:1002A0005A020000A3F3010058D93100A101000057
:1002B000A4F30100F9DA3100B9020000A5F301004E
:1002C000B2DD310054020000A6F3010006E0310067
:1002D00007020000A7F301000DE231006B020000ED
:1002E000A8F3010078E43100C0020000A9F3010086
:1002F00038E73100DC010000AAF3010014E9310005
:100300003D020000ABF3010051EB3100250100007C
:10031000ACF3010076EC3100EB010000ADF301001D
:1003200061EE3100BE010000AEF301001FF03100AC
:1003300087010000AFF30100A6F131004B0200007D
:10034000B0F30100F1F3310060020000B1F30100ED
:1003500051F63100A0010000B2F30100F1F73100C5
:100360005302000030300000E3393000E6000000A6
:10037000B3F3010044FA31006D020000B4F3010050
:10038000B1FC310073010000B5F3010024FE31001F
:10039000C4000000B6F30100E8FE31001B010000BC
:1003A000B7F301000300320056010000B8F301006A
:1003B00059013200C2010000B9F301001B033200F1
:1003C0003F020000BAF301005A0532002F0100007D
:1003D000BBF301008906320016020000BCF30100E5
:1003E0009F083200C4000000BDF301006309320021
:1003F000B1010000BEF30100140B3200D001000077
:100400003D300000C93A300091010000BFF3010007
:10041000E40C3200A3010000C0F30100870E32009B
:1004200068020000C1F30100EF1032006C0200000E
:10043000C2F301005B133200BB020000C3F30100F2
:100440001616320034010000C4F301004A173200CE
:100450000A030000C5F30100541A32009C01000099
:10046000C6F30100F01B320031020000C7F30100A7
:10047000211E320005020000C8F3010026203200D0
:1004800061020000C9F3010087223200FD01000073
:10049000CAF3010084243200A3010000CBF3010061
:1004A0002726320095010000CCF30100BC27320062
:1004B00059010000CDF3010015293200AA01000006
:1004C000CEF30100BF2A320047010000CFF3010044
:1004D000062C320066010000D0F301006C2D3200C2
:1004E000D1020000D1F301003D303200760100005E
:1004F000D2F30100B3313200E0000000D3F3010079
:10050000933232004D010000D4F30100E033320099
:10051000C3010000D5F30100A3353200C301000080
:10052000D6F3010066373200E6010000D7F3010080
:100530004C3932006A010000D8F30100B63A3200AB
:100540002B020000D9F30100E13C32008D030000D2
:10055000DAF301006E4032006E020000DBF30100AE
:10056000DC42320047020000DCF301002345320088
:1005700000030000DDF30100234832009201000077
:10058000DEF30100B549320057030000DFF301003C
:100590000C4D320020030000E0F301002C5032002B
:1005A00047020000E1F30100735232000F02000025
:1005B000E2F30100825432009E020000E3F30100E6
:1005C00020573200CE010000E4F30100EE58320063
:1005D00032020000E5F30100205B32009B020000C4
:1005E000E6F30100BB5D320057020000E7F30100B3
:1005F00012603200F5010000E8F3010007623200EA
:10060000CB020000E9F30100D2643200C90200000D
:10061000EAF301009B673200B9010000EBF301002F
:100620005469320005030000ECF30100596C3200FC
:10063000B2020000EDF301000B6F3200CF020000A8
:10064000EEF30100DA71320044020000EFF3010022
:100650001E7432007B020000F0F301009976320034
:100660005A020000F3F30100F37832009F0100000A
:10067000F4F30100927A3200DC020000F5F301008D
:100680006E7D32003902000010F90100E3043700EA
:10069000D0020000F7F30100A77F3200DA0100006A
:1006A000F8F3010081813200A1010000F9F301009B
:1006B0002283320096010000FAF30100B884320070
:1006C000A7010000FBF301005F8632008C010000EF
:1006D000FCF30100EB8732008C010000FDF3010008
:1006E000778932008C010000FEF30100038B320099
:1006F0008C010000FFF301008F8C32008C010000A0
:1007000000F401001B8E32005501000001F40100CD
:10071000708F32004701000002F40100B7903200F0
:100720008101000003F401003892320099010000B9
:1007300004F40100D1933200C901000005F4010066
:100740009A9532000F02000006F40100A9973200CA
:10075000FA01000007F40100A39932008E010000A5
:1007600008F40100319B32009801000009F40100F7
:10077000C99C32002A0200000AF40100F39E3200F4
:10078000150200000BF4010008A1320089010000ED
:100790000CF4010091A23200F30100000DF40100FD
:1007A00084A43200B70100000EF401003BA6320021
:1007B000C20100000FF40100FDA73200DC010000BF
:1007C00010F40100D9A932004801000011F4010021
:1007D00021AB3200E601000012F4010007AD320047
:1007E0000202000013F4010009AF3200950100007D
:1007F00014F401009EB03200A801000015F40100BD
:1008000046B232001802000016F401005EB4320055
:100810006401000017F40100C2B53200D3010000EA
:1008200018F4010095B732008301000019F40100AB
:1008300018B932001E0200001AF4010036BB320063
:10084000E7010000052B0000103030007E010000A1
:10085000062B00008E31300093010000072B0000B2
:1008600021333000910100001BF401001DBD320056
:100870008D0100001CF40100AABE3200E00100005E
:100880001DF401008AC032000C0200001EF40100B9
:1008900096C23200240200001FF40100BAC43200E4
:1008A0004901000020F4010003C632001C020000D0
:1008B00021F401001FC832005202000022F401009E
:1008C00071CA32009401000023F4010005CC32000B
:1008D0004D01000024F4010052CD32000E01000051
:1008E00025F4010060CE32001E01000026F4010054
:1008F0007ECF3200D800000027F4010056D032002D
:100900009201000028F40100E8D13200B601000095
:1009100029F401009ED33200EC0100002AF401000A
:100920008AD53200550100002BF40100DFD63200D9
:10093000980100002CF4010077D832005601000025
:100940002DF40100CDD93200950100001B2B0000D1
:10095000B23430000B0100001C2B0000BD3530000C
:100960000B0100002EF4010062DB3200990100004F
:100970002FF40100FBDC3200C202000030F4010061
:10098000BDDF32001502000031F40100D2E1320077
:10099000E301000032F40100B5E33200FC01000085
:1009A00033F40100B1E532006C01000034F40100C1
:1009B0001DE732009A01000035F40100B7E832006B
:1009C0009701000036F401004EEA3200AC0100004D
:1009D00037F40100FAEB32009A01000038F401000C
:1009E00094ED32005901000039F40100EDEE3200BF
:1009F000DB0100003AF40100C8F03200BA01000047
:100A00003BF4010082F23200D90100003CF4010005
:100A10005BF432004B0200003DF40100A6F6320008
:100A20005B0100003EF4010001F83200B500000057
:100A30003FF40100B6F83200E101000040F401008B
:100A400097FA32000402000041F401009BFC3200DE
:100A5000A001000042F401003BFE320091010000C1
:100A600043F40100CCFF32001E0100000D20000005
:100A70004B192F00BE01000044F40100EA003300CE
:100A8000F000000045F40100DA0133002D020000FF
:100A900046F40100070433003401000047F401006C
:100AA0003B0533003501000048F4010070063300B7
:100AB0000101000049F40100710733000101000049
:100AC0004AF4010072083300C40100004BF4010035
:100AD000360A3300250200004CF401005B0C3300A1
:100AE0008C010000AA250000D1552F0058000000FD
:100AF000AB25000029562F00580000004DF40100DE
:100B0000E70D3300870100004EF401006E0F330043
:100B1000B30100004FF40100211133003102000045
:100B200050F40100521333009601000051F401000B
:100B3000E81433009C02000052F4010084173300D3
:100B4000D501000053F4010059193300F7000000EB
:100B500054F40100501A33002D02000055F4010036
:100B60007D1C3300EF00000056F401006C1D3300C3
:100B7000D9010000B625000081562F009301000026
:100B800057F40100451F33004A01000058F40100EA
:100B90008F203300F702000059F401008623330050
:100BA000B20100005AF4010038253300FB000000B8
:100BB0005BF4010033263300520200005CF40100B4
:100BC0008528330005020000502B0000C836300095
:100BD000F10000005DF401008A2A33001F010000CB
:100BE0005EF40100A92B33001F010000C0250000A6
:100BF00014582F007C0100005FF40100C82C330062
:100C000089010000552B0000B93730002A0200008E
:100C100060F40100512E3300D701000061F401009F
:100C2000283033000D01000062F40100353133003B
:100C30005701000063F401008C323300DD00000036
:100C400064F40100693333008400000065F401009E
:100C5000ED333300D500000066F40100C2343300E8
:100C60007703000067F40100393833007F03000088
:100C700068F40100B83B3300A802000069F40100E9
:100C8000603E3300C80200006AF4010028413300CE
:100C90001A0300006BF40100424433005B020000C1
:100CA0003C200000091B2F00F60100006CF401003D
:100CB0009D463300410200006DF40100DE48330020
:100CC000690200006EF40100474B33002B02000064
:100CD0006FF40100724D3300A802000070F40100AF
:100CE0001A503300A002000071F40100BA52330020
:100CF000BA01000072F401007454330034020000A1
:100D000073F40100A8563300ED01000074F40100F3
:100D100095583300DF01000075F40100745A330068
:100D20005A02000076F40100CE5C33005C01000042
:100D300077F401002A5E33003E02000049200000E3
:100D4000FF1C2F002802000078F4010068603300C7
:100D5000BB02000079F40100236333001303000099
:100D60007AF4010036663300AC0200007BF4010027
:100D7000E2683300E70100007CF40100C96A330037
:100D8000430200007DF401000C6D330055010000AA
:100D90007EF40100616E3300C20100007FF40100A7
:100DA000237033009802000080F40100BB7233000E
:100DB0006902000081F4010024753300F001000095
:100DC00082F40100147733000702000083F401006D
:100DD0001B793300F701000084F40100127B33001B
:100DE0004F01000085F40100617C33001302000014
:100DF00086F40100747E3300E101000087F40100F5
:100E000055803300F501000088F401004A82330068
:100E10008701000089F40100D183330050010000F4
:100E20008AF40100218533004E0100008BF401009B
:100E30006F863300860200008CF40100F5883300D1
:100E4000A70100008DF401009C8A33008A01000094
:100E50008EF40100268C3300920100008FF4010013
:100E6000B88D33008902000090F4010041903300F6
:100E70005002000091F4010091923300AD02000095
:100E800092F401003E9533005902000093F40100F2
:100E9000979733000202000094F4010099993300FF
:100EA000DB01000095F40100749B3300B6010000E3
:100EB000FB25000090592F00CE000000FC2500000B
:100EC0005E5A2F00CE000000FD2500002C5B2F0095
:100ED00087000000FE250000B35B2F0087000000A4
:100EE00096F401002A9D330039020000002600001C
:100EF0003A5C2F0022010000012600005C5D2F00FB
:100F00009300000002260000EF5D2F004201000068
:100F100003260000315F2F005C0100000426000062
:100F20008D602F006A02000097F40100639F330078
:100F30007D01000098F40100E0A03300C001000032
:100F400099F40100A0A23300810100009AF401008D
:100F500021A43300850100009BF40100A6A5330005
:100F6000850100009CF401002BA7330085010000DF
:100F70009DF40100B0A833001F0200009EF40100A0
:100F8000CFAA3300E70100009FF40100B6AC3300A4
:100F90005A0200000E260000F7622F00D401000064
:100FA000A0F4010010AF3300CF010000A1F4010054
:100FB000DFB033008D01000011260000CB642F004C
:100FC00011020000A2F401006CB233003A010000EB
:100FD000A3F40100A6B3330067010000142600004B
:100FE000DC662F00D701000015260000B3682F0033
:100FF00000020000A4F401000DB53300B2000000AF
:10100000A5F40100BFB53300C2020000182600009D
:10101000B36A2F00CD010000A6F4010081B83300AF
:1010200045010000A7F40100C6B93300CD0000005F
:10103000A8F4010093BA3300DE020000A9F4010015
:1010400071BD33003C0100001D260000806C2F00A4
:10105000C0010000AAF40100ADBE3300630100002E
:10106000ABF4010010C03300E802000020260000AD
:10107000406E2F00D3010000ACF40100F8C2330031
:10108000520100002226000013702F004E020000C3
:101090002326000061722F009B020000ADF40100C6
:1010A0004AC4330010010000AEF401005AC53300F9
:1010B0005402000026260000FC742F00F2010000FC
:1010C000AFF40100AEC7330070010000B0F40100BE
:1010D0001EC9330089010000B1F40100A7CA330022
:1010E000AD0100002A260000EE762F003D02000030
:1010F000B2F4010054CC330064010000B3F40100E9
:10110000B8CD3300A8000000B4F4010060CE330075
:10111000950100002E2600002B792F00C902000047
:101120002F260000F47B2F0067020000B5F40100B9
:10113000F5CF33009E010000B6F4010093D13300D7
:1011400094010000B7F4010027D33300920100009E
:10115000B8F40100B9D4330061020000B9F4010011
:101160001AD7330043020000BAF401005DD93300FE
:101170009B010000BBF40100F8DA33009C02000080
:10118000BCF4010094DD3300170200003826000093
:101190005B7E2F00C70200003926000022812F004D
:1011A000D50200003A260000F7832F00CF0200008E
:1011B000BDF40100ABDF3300EF020000BEF401001C
:1011C0009AE233004F010000BFF40100E9E333006D
:1011D000AE020000C0F4010097E63300AD0200004B
:1011E000C1F4010044E93300D800000040260000AB
:1011F000C6862F00C6010000C2F401001CEA3300BD
:10120000DA000000422600008C882F00A9010000AF
:10121000C3F40100F6EA330060010000C4F40100E9
:1012200056EC330075010000C5F40100CBED33002E
:10123000CB010000C6F4010096EF33007C020000F1
:10124000C7F4010012F23300DA0100004826000062
:10125000358A2F003E02000049260000738C2F00C3
:10126000700200004A260000E38E2F003A020000C0
:101270004B2600001D912F00A20200004C2600000A
:10128000BF932F009B0200004D2600005A962F00AE
:10129000D00200004E2600002A992F003B020000D9
:1012A0004F260000659B2F009E0200005026000084
:1012B000039E2F0038020000512600003BA02F00A3
:1012C0007B02000052260000B6A22F00930200000D
:1012D0005326000049A52F0044020000C8F4010075
:1012E000ECF3330059030000C9F4010045F7330063
:1012F00058030000CAF401009DFA33003A020000CE
:10130000CBF40100D7FC3300A3010000CCF40100B2
:101310007AFE330069010000CDF40100E3FF3300E1
:10132000C7000000CEF40100AA0034002002000033
:10133000CFF40100CA02340080010000D0F40100A3
:101340004A0434008C010000D1F40100D6053400B9
:10135000B2010000D2F4010088073400C40100008B
:101360005F2600008DA72F005D01000060260000B1
:10137000EAA82F00E1000000D3F401004C0934007A
:1013800016030000D4F40100620C340033020000A4
:1013900063260000CBA92F00CF000000D5F4010088
:1013A000950E3400F2010000652600009AAA2F0075
:1013B0001401000066260000AEAB2F00F400000010
:1013C000D6F40100871034008A020000682600006D
:1013D000A2AC2F0073020000D7F4010011133400F7
:1013E000F2010000D8F4010003153400EF01000001
:1013F000D9F40100F2163400F2010000DAF4010021
:10140000E41834008F020000DBF40100731B340089
:10141000E0010000DCF40100531D3400A6010000CF
:10142000DDF40100F91E34005D020000DEF401006D
:101430005621340064010000DFF40100BA223400B8
:10144000B7010000E0F401007124340051020000F3
:10145000E1F40100C226340030020000E2F4010091
:10146000F228340027020000E3F40100192B3400B5
:10147000C7010000E3200000271F2F003F010000EC
:10148000E4F40100E02C34002F010000E5F4010039
:101490000F2E34002D010000E6F401003C2F340033
:1014A00085010000E7F40100C1303400B401000000
:1014B0007B26000015AF2F009A010000E8F4010020
:1014C0007532340047010000E9F40100BC333400F8
:1014D000A30100007E260000AFB02F00FC01000039
:1014E0007F260000ABB22F007E020000EAF401006C
:1014F0005F3534005A010000EBF40100B9363400C6
:1015000069010000ECF4010022383400AD01000054
:10151000EDF40100CF3934006B010000EEF401005E
:101520003A3B340099010000EFF40100D33C340051
:1015300067010000F0F401003A3E34000F020000A1
:10154000F1F4010049403400BB010000F2F4010055
:10155000044234000A020000F3F401000E44340097
:101560008E020000F4F401009C4634002C020000BE
:10157000F5F40100C8483400D8020000F6F4010078
:10158000A04B340033020000F7F40100D34D3400C7
:1015900063020000F8F4010036503400B602000087
:1015A000F9F40100EC5234005A010000FAF4010091
:1015B00046543400A1010000FBF40100E75534005B
:1015C000810100009226000029B52F00D201000001
:1015D00093260000FBB62F00620100009426000055
:1015E0005DB82F00180200009526000075BA2F0084
:1015F0007301000096260000E8BB2F001C020000CB
:101600009726000004BE2F00EC010000FCF401004E
:10161000685734005E01000099260000F0BF2F00DB
:1016200091010000FDF40100C6583400430200009F
:101630009B26000081C12F00CF0200009C260000E5
:1016400050C42F0004020000FFF40100095B3400C5
:10165000FA01000000F50100035D34004B020000B8
:1016600001F501004E5F340020020000A0260000BA
:1016700054C62F00BD010000A126000011C82F0094
:101680005501000002F501006E6134006A0200009D
:1016900003F50100D86334007302000004F5010073
:1016A0004B6634000F02000005F501005A68340053
:1016B0009E01000006F50100F8693400E701000012
:1016C000A726000066C92F00B101000007F5010040
:1016D000DF6B3400CE02000008F50100AD6E34006F
:1016E0008C010000AA26000017CB2F007B01000010
:1016F000AB26000092CC2F007B01000009F5010011
:1017000039703400AC0100000AF50100E5713400C5
:101710003C0200000BF5010021743400520100006E
:101720000CF5010073753400A5010000B02600001F
:101730000DCE2F0010020000B12600001DD02F009A
:10174000840100000DF5010018773400A4010000A9
:101750000EF50100BC783400A60100000FF5010071
:10176000627A3400F90100002221000066202F0077
:101770001801000010F501005B7C3400020200003B
:1017800011F501005D7E3400A501000012F5010095
:10179000028034002E01000013F501003081340076
:1017A0003901000014F5010069823400F6010000DF
:1017B00015F501005F843400EC02000016F501000D
:1017C0004B873400F3000000BD260000A1D12F009C
:1017D0002C020000BE260000CDD32F00F401000033
:1017E00017F501003E8834007901000018F501006A
:1017F000B78934001202000019F50100C98B3400CA
:101800003B0200001AF50100048E340022020000A1
:101810001BF50100269034005F020000C426000082
:10182000C1D52F000A010000C5260000CBD62F002D
:10183000050100001CF501008592340052020000F1
:101840001DF50100D794340023020000C8260000D3
:10185000D0D72F008A0100001EF50100FA9634004F
:101860000B0300001FF50100059A3400430200003D
:1018700020F50100489C34005A0200003921000084
:101880007E212F00D301000021F50100A29E34002B
:101890005B020000CE2600005AD92F00790200001A
:1018A000CF260000D3DB2F000F01000022F501003E
:1018B000FDA0340042020000D1260000E2DC2F002F
:1018C000BA01000023F501003FA334004F020000DD
:1018D000D32600009CDE2F001D020000D42600004D
:1018E000B9E02F009401000024F501008EA534001A
:1018F000F201000025F5010080A73400A0020000DD
:1019000026F5010020AA34006301000027F501003C
:1019100083AB34009602000028F5010019AE3400B4
:10192000EE00000029F5010007AF3400BC01000003
:101930002AF50100C3B03400040100002BF50100BA
:10194000C7B13400FA0000002CF50100C1B2340028
:10195000F20200002DF50100B3B534009C01000037
:101960002EF501004FB73400BF0200002FF5010033
:101970000EBA34004B02000030F5010059BC3400AF
:101980003101000031F501008ABD3400640200001D
:1019900032F50100EEBF3400A701000033F501006D
:1019A00095C13400A701000034F501003CC33400A8
:1019B0007B01000035F50100B7C434007B01000055
:1019C00036F5010032C634003A01000037F5010057
:1019D0006CC7340035010000E92600004DE22F00FD
:1019E0002E010000EA2600007BE32F00D201000058
:1019F00038F50100A1C834007700000039F5010076
:101A000018C93400760000003AF501008EC9340090
:101A1000A900000004F00100D14130009401000051
:101A20003BF5010037CA3400AC000000F02600008E
:101A30004DE52F00C0010000F12600000DE72F004A
:101A400097010000F2260000A4E82F0038020000F1
:101A5000F3260000DCEA2F003A010000F426000023
:101A600016EC2F009C010000F5260000B2ED2F00BF
:101A7000810100003CF50100E3CA34007B01000055
:101A8000F726000033EF2F00B7020000F826000011
:101A9000EAF12F00A6010000F926000090F32F00C4
:101AA000A9010000FA26000039F52F004A010000C4
:101AB0003DF501005ECC34008701000049F50100CE
:101AC000E5CD340089020000FD26000083F62F00DA
:101AD0002F0200004AF501006ED034005B010000C7
:101AE0004BF50100C9D134009C0100004CF5010008
:101AF00065D33400DA0200004DF501003FD6340012
:101B0000D002000002270000B2F82F00A801000058
:101B10004EF501000FD934009C02000050F5010081
:101B2000ABDB340042020000AC6B01000800200077
:101B300020001C0000000000230000002BE80F0024
:101B400009C62E009305000044D8000058E60000A6
:101B5000CA942E000001000021E60000EC892E004E
:101B60003901000022E60000258B2E003A0100001A
:101B700000E70000EEA82E00AC010000E1E7000045
:101B800051B12E00250100005DE60000CA952E002F
:101B900086010000FEE80000F8C02E00B900000039
:101BA00057E800001DB82E00700000006CEB00002C
:101BB0006EC42E008100000014F30000EFC42E005C
:101BC0001A0100002AE600005F8C2E00660000006B
:101BD000EBE7000076B22E00D00000005CE80000C9
:101BE0008DB82E005E01000065E6000050972E00C3
:101BF000C6010000CCE80000B3BB2E003A01000093
