:020000040000FA
:10000000403B0220F902000001030000FF03000052
:1000100005030000070300000903000000000000C2
:100020000000000000000000000000000B030000C2
:100030000D030000000000004B030000110300004E
:1000400021100000130300001115000075120000BC
:100050001303000013030000D10700001303000086
:100060001303000013030000130300001303000038
:100070001303000013030000130300001303000028
:100080001303000005110000130300001303000018
:100090001303000013030000130300001303000008
:1000A00013030000130300001303000013030000F8
:1000B0001303000013030000000000000000000014
:1000C00013030000130300001303000013030000D8
:1000D00013030000130300001303000013030000C8
:1000E000130300007910000013030000000000005B
:1000F0000000000013030000000000008512000053
:1001000000000000000000000000000000000000EF
:1001100000000000000000000000000000000000DF
:1001200000000000000000000000000000000000CF
:1001300000000000000000000000000000000000BF
:1001400000000000000000000000000000000000AF
:10015000000000000000000000000000000000009F
:10016000000000000000000000000000000000008F
:10017000000000000000000000000000000000007F
:10018000000000000000000000000000000000006F
:10019000000000000000000000000000000000005F
:1001A000000000000000000000000000000000004F
:1001B000000000000000000000000000000000003F
:1001C000000000000000000000000000000000002F
:1001D000000000000000000000000000000000001F
:1001E000000000000000000000000000000000000F
:1001F00000000000000000000000000000000000FF
:10020000DFF80CD000F042FA00480047C1070000B8
:10021000403B022030B4044654E8000F0D4644E849
:100220000053002BF8D1156030BC704730B4044641
:1002300054E8000F40EA010544E80053002BF7D1D1
:10024000156030BC704730B4044654E8000F00EA33
:10025000010544E80053002BF7D1156030BC70470E
:1002600030B4044654E8000F80EA010544E8005326
:10027000002BF7D1156030BC704730B4044654E809
:10028000000F00EB010544E80053002BF7D1156087
:1002900030BC704730B4044654E8000FA0EB0105B1
:1002A00044E80053002BF7D1156030BC704770B4A0
:1002B00004464FF0000054E8006F0D68AE4207BFDF
:1002C00044E80023012044E800630E60002B1CBFBB
:1002D0000020F0E770BC704730B4044654E8000FCB
:1002E00088422CBF451A054644E80053002BF5D13F
:1002F000156030BC7047000006488047064800473C
:10030000FEE7FEE7FEE7FEE7FEE7FEE7FEE7FEE7C5
:10031000FEE7FEE73513000001020000EFF3108056
:1003200072B6704780F310887047434A1368012BF8
:1003300004D04FF001031360404A1060404A11603E
:1003400040484FF0805101607047EFF3108272B661
:100350003948016851B34FF0000101603748016826
:1003600091B1EFF309811EF0100F08BF21ED108B42
:1003700021E9F00F4FF000041EF0100F08BF012418
:1003800041F8044D006801602D490968096808C9F1
:10039000B1E8F00F002B18BFB1EC108B81F3098886
:1003A0004EF0100E002B18BF2EF0100E82F31088A6
:1003B0004EF0040E704722490860EFF3148222F0D9
:1003C000040282F314881D494FF0000008601A49A6
:1003D0004FF0010008601C484FF47F01D0F8002066
:1003E00041EA0201016017484FF08051016017484F
:1003F0000068006880F3088861B662B670471EF036
:10040000040F0CBFEFF30880EFF3098020E9F00F31
:1004100040F804ED40F804ED1EF0040F0CBF80F32B
:10042000088880F3098800B527F0E4FA5DF804EB4A
:100430004EF0040E70470000D0000020C8000020DD
:10044000CC00002004ED00E020ED00E008ED00E02D
:100450002DE9F05F0546002092469B4688460646F9
:10046000814640241BE0284641464746224600F08C
:10047000C5F853465A46C01A914110D31146184642
:10048000224600F0ACF82D1A67EB01084F462246D1
:100490000120002100F0A3F817EB00094E41201EB7
:1004A000A4F10104DFDC484631462A464346BDE854
:1004B000F09F00000048704720BE030010B5431AAB
:1004C000934209D28318881803E010F8011D03F83D
:1004D000011D521EF9D210BD40EA01039B0703D053
:1004E00009E008C9121F08C0042AFAD203E011F873
:1004F000013B00F8013B521EF9D210BDD2B201E01F
:1005000000F8012B491EFBD270470022F6E710B518
:1005100013460A4604461946FFF7F0FF204610BD71
:10052000421E12F8013F002BFBD111F8013B02F8EB
:10053000013B002BF9D1704710B5044604E00B785D
:1005400000F8013B03B1491C521EF8D2204610BDF1
:10055000421C10F8011B0029FBD1801A704710B50E
:10056000002200E0521C835C8C5CA34201D1002B72
:10057000F8D1D8B2E1B2401A10BD30B5044600201F
:10058000034600E05B1C934203D2E05CCD5C401B61
:10059000F8D030BD034611F8012B00F8012B002ADA
:1005A000F9D11846704730B505460020034600E0F3
:1005B0005B1C934205D2EC5CC85C201A01D1002C74
:1005C000F6D130BD70B5064601F094F804680546D2
:1005D0000A220021304600F021F82C6070BD202A4C
:1005E00004DB203A00FA02F1002070479140C2F18A
:1005F000200320FA03F3194390407047202A04DBBC
:10060000203A21FA02F00021704721FA02F3D0408B
:10061000C2F1200291400843194670472DE9F04786
:1006200091460F4680460446002614F8015B2DB122
:10063000FFF740FF0068405DC007F6D12B2D02D0C8
:100640002D2D18D0641E4A463946204600F030F859
:1006500027B13968A14201D1C7F8008071054FF078
:1006600002040BD54042002803DD01F043F804608A
:10067000A007BDE8F08746F48066E4E70028F8DAD2
:1006800001F038F804606FF00040F2E7064C074DC7
:1006900006E0E06840F0010394E807009847103452
:1006A000AC42F6D3FFF7B0FD30D9030050D90300B8
:1006B0002DE9F05F82460078002715468B460AF147
:1006C0000104B946302801D09DB113E014F8010BA4
:1006D0000127782803D0582801D045B10AE00DB190
:1006E000102D07D10027102514F8010B02E0082572
:1006F00000E00A250026B0460EE005FB080005FBD9
:1007000006F1012701EB10461FFA80F8B6F5803F8D
:1007100000D3B94614F8010B294600F018F8002858
:10072000EBDABBF1000F05D00FB1641E00E05446B8
:10073000CBF80040B9F1000F06D000F0DBFF02213A
:100740000160C81EBDE8F09F48EA0640FAE73A2873
:1007500000D2303820F02002412A01D3A2F1370024
:10076000884201D34FF0FF30704770B58C1810F8F5
:10077000015B15F0070301D110F8013B2A1106D1E6
:1007800010F8012B03E010F8016B01F8016B5B1E00
:10079000F9D12B0705D40023521E0DD401F8013BDB
:1007A000FAE710F8013BCB1A921C03E013F8015B47
:1007B00001F8015B521EF9D5A142D8D3002070BDCB
:1007C00010B5FFF7ABFD2AF041FC002010BD000082
:1007D0002DE9F04F8FB000245B4900940194096823
:1007E0004FF4BE7001297DD123F0BAFB6A46022185
:1007F000002023F09FFB0020544B0A94421EEB463E
:1008000008A90B9441F82020401C8A460228F9D3FD
:10081000994600254FEA050606EB460109EB8108DB
:1008200039F9214098F80270601C5AD008A9204676
:1008300023F0DAF860B3D8F80400C7F381075FEA61
:10084000000802D0032F02D00DE0032F49D10DF193
:10085000280CE00804F007011CF8003001228A404F
:1008600013430CF8003005A8059423F02BFB0599E1
:1008700000EB8100D0F800076946C0F30140059005
:10088000204623F0B1F80028059802D0022802D0B3
:1008900027E0032825D1032F1CD102284DD00220A8
:1008A0000D90059405A823F00DFB059900EB81013F
:1008B000D1F8002722F44032C1F80027059900EB57
:1008C0008101D1F800270D9842EA0040C1F80007E5
:1008D0006D1CEDB2B8F1000F03D044EA8710414619
:1008E000884700E026E0761CF6B2302E94D3002D27
:1008F00020D003AA0221002023F01CFB00205A462E
:100900000DF10C0152F8204051F82030A34216D0CE
:1009100000200AAC4FEA0A0351F8206042F8206038
:1009200054F8206043F82060401C0228F4D3002DC6
:100930007FF46FAF0FB0BDE8F08F0320B0E7401C2D
:100940000228DFD3F6E700007C6100407C02002033
:100950000549086810F8082D10F8043F1A4400F8FB
:10096000042C08607047000020020020034908683A
:1009700070E902231A4404C0086070472002002076
:100980000549086830F8082D30F8043F1A4420F86B
:10099000042C086070470000200200200549086808
:1009A00010F8082D10F8043F1A4000F8042C0860D5
:1009B00070470000200200200349086870E9022304
:1009C0001A4004C0086070472002002005490868EA
:1009D00030F8082D30F8043F1A4020F8042C086045
:1009E00070470000200200200348006810F8041D32
:1009F000C9430170704700002002002003480068CE
:100A000050F8041DC9430160704700002002002017
:100A10000348006830F8041DC94301807047000096
:100A20002002002070B57A4A9CB07A4D11680CAB58
:100A300011F8010B11602A680021121F2A6008E0DA
:100A4000461A03EB860652F8044946F8044C491C42
:100A50002A608142F4D3146811287DD2DFE800F0C7
:100A6000090B0E12171C232C36404D5C6C7D90A593
:100A7000BB00002000E00C98A047C3E0DDE90C01BA
:100A8000A047BFE00CAB93E80700A047BAE00CAE6C
:100A900096E80F00A047B5E010980CAE009096E8DD
:100AA0000F00A047AEE0DDE910010CAECDE900017A
:100AB00096E80F00A047A5E010AB0CAE93E8070046
:100AC0008DE8070096E80F00A0479BE010AE96E87F
:100AD0000F008DE80F000CAE96E80F00A04791E0E4
:100AE00011AE96E80F0001AE86E80F0010980CAE2C
:100AF000009096E80F00A04784E012AE96E80F0041
:100B000002AE86E80F00DDE910010CAECDE9000170
:100B100096E80F00A04775E013AE96E80F0003AE0D
:100B200086E80F0010AB0CAE93E807008DE80700D5
:100B300096E80F00A04765E014AE96E80F0004AEFB
:100B400086E80F0010AE96E80F008DE80F000CAE9F
:100B500096E80F00A04755E053E015AE96E80F0069
:100B600005AE86E80F0011AE96E80F0001AE86E8EC
:100B70000F0010980CAE009096E80F00A04741E0DF
:100B800016AE96E80F0006AE86E80F0012AE96E8A5
:100B90000F0002AE86E80F00DDE910010CAECDE9D2
:100BA000000196E80F00A0472CE017AE96E80F0072
:100BB00007AE86E80F0013AE96E80F0003AE86E896
:100BC0000F0010AB0CAE93E807008DE8070096E825
:100BD0000F00A04716E018AE96E80F0008AE86E8B2
:100BE0000F0014AE96E80F0004AE86E80F0010AEBA
:100BF00096E80F008DE80F000CAE96E80F00A047B6
:100C000000E00020296801C129601CB070BD00000F
:100C100024020020200200200549086810F8082D51
:100C200010F8043FB2FBF3F200F8042C08607047A0
:100C3000200200200449086870E9022392FBF3F2C5
:100C400004C00860704700002002002005490868C1
:100C500030F9082D30F9043F92FBF3F220F8042C10
:100C600008607047200200200548064A01680B789A
:100C7000116801F8043B11600168491C016070476C
:100C8000240200202002002006480168CA780B6870
:100C900062F31F63044A116808C111600168091DED
:100CA00001607047240200202002002007480168EC
:100CB000CA78096862F31F61054A0B78116801F868
:100CC000043B11600168091D016070472402002087
:100CD000200200200348006850F8041D09780170C4
:100CE000704700002002002007480168CA780968A0
:100CF00062F31F61054A0B68116808C11160016841
:100D0000091D01607047000024020020200200201D
:100D10000348006850F8041D09680160704700002E
:100D20002002002007480168CA78096862F31F6141
:100D3000054A0B88116821F8043B11600168091D00
:100D40000160704724020020200200200348006850
:100D500050F8041D0988018070470000200200201F
:100D60000548064A01680B88116821F8043B1160A8
:100D70000168891C016070472402002020020020C5
:100D8000074910B5086810F8082D10F8043FB2FBA9
:100D9000F3F403FB142200F8042C086010BD0000DB
:100DA00020020020054910B5086870E9022392FB73
:100DB000F3F403FB142204C0086010BD20020020DD
:100DC000074910B5086830F9082D30F9043F92FB47
:100DD000F3F403FB142220F8042C086010BD00007B
:100DE000200200200549086810F8082D10F8043F7B
:100DF00012FB03F200F8042C086070472002002068
:100E00000349086870E902235A4304C00860704728
:100E1000200200200549086830F8082D30F8043F0A
:100E200012FB03F220F8042C086070472002002017
:100E3000704700000549086810F8082D10F8043FB5
:100E40001A4300F8042C08607047000020020020BC
:100E50000349086870E902231A4304C00860704718
:100E6000200200200549086830F8082D30F8043FBA
:100E70001A4320F8042C086070470000200200206C
:100E800002480168091F016070470000200200202D
:100E90000549086810F8082D10F8043F9A4000F83A
:100EA000042C0860704700002002002005490868F3
:100EB00050F8082D10F8043F9A4040F8042C0860C0
:100EC00070470000200200200549086830F8082D0E
:100ED00010F8043F9A4020F8042C08607047000086
:100EE000200200200549086810F8082D10F8043F7A
:100EF000DA4000F8042C086070470000200200204F
:100F00000549086850F8082D10F8043F1A4140F8C8
:100F1000042C086070470000200200200549086882
:100F200030F9082D10F8043F1A4120F8042C08600D
:100F300070470000200200200548016811F8042CC9
:100F400051F8081C0A700168091F01607047000011
:100F50002002002004480168083906C90A600168B7
:100F6000091F016070470000200200200548016849
:100F700031F8042C51F8081C0A800168091F01602F
:100F800070470000200200200549086810F8082D6D
:100F900010F8043FD21A00F8042C086070470000D3
:100FA000200200200349086870E90223D21A04C015
:100FB00008607047200200200549086830F8082DB5
:100FC00030F8043FD21A20F8042C08607047000063
:100FD000200200200549086810F8082D10F8043F89
:100FE0005A4000F8042C08607047000020020020DE
:100FF0000349086870E902235A4004C0086070473A
:10100000200200200549086830F8082D30F8043F18
:101010005A4020F8042C086070470000200200208D
:1010200070B54FF48076304622F0E6FC114CB505E1
:1010300060B1304622F0E7FC0120C5F80803607972
:1010400020B9012060712168002088474FF4827622
:10105000304622F0D1FC00280AD0304622F0D3FCE2
:101060000220C5F808032168BDE870400120084748
:1010700070BD00009800002010B50A4C4FF480713C
:10108000204623F0EFFA00280AD0074800214171DA
:10109000C4F8001102688168BDE8104000201047C4
:1010A00010BD000000900240E8F60120F0B50024D9
:1010B000461822E010F8011B01F07F0567199F42D6
:1010C00002D94FF0FF30F0BD09064FF0000106D401
:1010D00011E007781755641C491CA4B289B2A942D3
:1010E000F7D3401C09E000BF10F8017B1755641CC2
:1010F000491CA4B289B2A942F6D38642DAD8204666
:10110000F0BD000038B526F0EBFF0D48D0F80445DF
:101110000021C0F80011D0F80001009029F0D4FBA4
:10112000201A20F07F4404E029F03CFA08B129F0AD
:10113000D1FB641EF8D2BDE8384026F0EFBF0000B6
:101140000010014000F02CBA2DE9F84304461C4879
:10115000007808B900F024FAFF2000258DF800007F
:101160004FF0FF38102C27D21648154E005D8DF831
:1011700001001836002003F099FF307D114F00F078
:1011800003007F1E02280BD0304600F03DFA0228F3
:101190000DD33C7002226946304600F08AFA07E01F
:1011A0003C7002226946304600F056FA00E045469F
:1011B000002003F07DFF00E045462846BDE8F883A7
:1011C0004CF70120B100002070B50B4B06461446C9
:1011D00018780D4608B900F0E3F9002003F066FF27
:1011E00022462946304600F009F80446002003F064
:1011F0005FFF204670BD00004CF7012070B50E4621
:10120000144900EB400001EBC0051446E86A1835AC
:1012100020B101280FD0022805D113E0284600F0A4
:10122000F3F9A04201D2002411E0224631462846BB
:1012300000F03FFA0BE0284600F0E6F9A042F4D2B5
:101240000446F2E73146284600F006FA04462046F6
:1012500070BD00004CF7012070B505460C460846ED
:10126000FFF776F9024621462846BDE87040FFF7B1
:10127000ABBF0000014902482DF006BB18F7012062
:1012800000300040F8B51448144E04464FF48C71F9
:1012900023F0EDF900281DD00025C4F81851D4F82A
:1012A0001801009096F820003446FF2808D0A17F4E
:1012B00031B9E17F11B122F0AEFD01E022F025FE4F
:1012C00065772572D4E9002101B004F10800BDE87A
:1012D000F0401047F8BD000000F00240F4F6012095
:1012E00008B5002022F0B2FB10482021C0F80815F4
:1012F0000021C0F80011D0F8002100920122C0F8AE
:101300000423C0F80411D0F8041100910221C0F8A0
:101310000413826002600649E02081F800044FF067
:10132000E0215004C1F8000108BD00000010014098
:1013300011E000E030B54FF0805000228300D0F87B
:101340003011C3F80C21C3F81021624B1A60624BB4
:101350001B68624C2360604B1B1D1B68241D2360AF
:101360005D4B08331B68241D23605B4B0C331B68EB
:10137000241D2360584B10331B68241D2360564BDB
:1013800014331B68241D2360534B18331B68534CC4
:1013900020342360504B1C331B68241D23604E4BAC
:1013A00020331B68241D23604B4B24331B68241DF2
:1013B0002360494B28331B68241D2360464B2C3384
:1013C0001B68241D2360444B30331B68434C40345E
:1013D0002360414B34331B68241D23603E4B38335C
:1013E0001B68241D23603C4B3C331B68241D236079
:1013F000394B40331B68241D23600124082902D186
:10140000D0F8343113B1082904D006E0354B344903
:10141000196005E0D0F8343113B1082904D006E092
:10142000314BFB21196005E0D0F8343113B10829A4
:1014300008D00EE090F858322C48016863F303019D
:10144000016002E0D0F834311BB929494FF4007033
:10145000086028480168C90702D06FF001010160E7
:101460002548016841F470010160BFF34F8FBFF35D
:101470006F8F4FF01021D1F80002002803DBD1F864
:101480000402002822DA1D4B1C601D480468002C51
:10149000FCD01224C1F800420568002DFCD0C1F830
:1014A000044201680029FCD01A6001680029FCD0C0
:1014B000BFF34F8F10487C380168124A01F4E06195
:1014C00011430160BFF34F8F00BFFDE70F490E4886
:1014D000086030BD380500400404001020C50040FD
:1014E000488103008C56004018F50040E40E00408F
:1014F000409602400004004088ED00E004E5014011
:1015000000E401400400FA050090D003240000200C
:1015100070B5214D4FF40071284623F0C3F850B147
:101520004FF492742146284623F0B1F818B12146B1
:10153000284623F0B1F80421284623F0B3F8174CCD
:1015400050B14FF48471284623F0A1F820B12068EF
:101550000121006826F0AAFB8021284623F0A2F88A
:1015600050B14FF48E71284623F091F820B12068D5
:101570000221006826F09AFB4FF4A271284623F05E
:1015800086F8002806D0206805210068BDE8704074
:1015900026F08CBB70BD00000020004044020020FB
:1015A00010B5124C02202061606111A0A06104F10D
:1015B0007800E0614FF4007020620020A062606259
:1015C0000BA1A164E06204F51E71E1641021A06525
:1015D000C4E91410E06509A1E01DFEF7DBFF08A1D6
:1015E0002046FEF7D7FF2020A07110BD4CF7012048
:1015F0005465726D696E616C0000000052545400B5
:1016000053454747455200000269C1688A4203D8E2
:101610008068401A104400E0501A401E704700F0E5
:101620001F02012191404009800000F1E020C0F834
:101630008012C0F8001170474907090E002806DA29
:1016400000F00F0000F1E02080F8141D704700F159
:10165000E02080F8001470472DE9F047C468174671
:10166000894606464FF000083069A04201D9051BA3
:1016700002E0B168201A0D1AB0686D1E001BA84266
:1016800000D80546BD4200D33D4670682A46204436
:101690004946FEF713FFB0687F1B2C44A844A944B9
:1016A000A04200D10024F460002FDDD14046BDE807
:1016B000F0872DE9F04104468846D4E90207C51BAE
:1016C000E168606816460844B54206D94146FEF70F
:1016D000F5FEB819E060BDE8F0812A464146FEF704
:1016E000EDFE761B08EB050132466068FEF7E6FE6C
:1016F000E660F0E7004870474C0700202DE9F0470E
:101700000D4620293FD3A5F10A0045F2DA31244CD9
:10171000A5F560464FF4C85845F2E33788420FD329
:1017200003F0DAFB426861688A422ED046452CD22B
:10173000294602E01A4862683946BDE8F04710477A
:101740002A46642117480EF0F5FF00B2411CE7D08D
:1017500000EB4001134841F2AF1300EB81014868F0
:10176000098942189A420ED8104ADFF83C9010447A
:101770004FF480634A46801DFFF798FC401CCFD091
:101780004846BDE8F0870020FBE703F07FFB426896
:1017900061688A42CED029469047BD42CAD0F0E760
:1017A000E4040020A445030090090220544A0300E9
:1017B0002DE9F05F9B4616460D46202A02D20020F6
:1017C000BDE8F09FA6F10A0045F2DA312A4CA6F5F1
:1017D00060474FF4C85845F2E3394FF0FF3A88426A
:1017E0002ED2642125480EF0A5FF00B2411C27D05F
:1017F000224900EB400001EB800001F59661406852
:1018000008440178A9804178E9808178298190F99C
:101810000310698190F90400A881A87B20F00F00D3
:10182000801CA8731BE000BF03F030FB0768216831
:101830008F4216D0534632462946B84778B910E051
:1018400003F04AFBD0F800C021688C45ECD0474536
:10185000EAD2534632462946E0470028E4D0012028
:10186000AEE724685B464A462946A446BDE8F04FE9
:1018700001485DF804EB6047E4040020A445030040
:101880002DE9F04194468846040059D020792D4D29
:10189000032630B128882CA106EB004022F03AFD47
:1018A00041E0206808B934482060002753B1014660
:1018B000142260469847142809D028882FA106EBE7
:1018C000004021E0288832A106EB00401CE020689F
:1018D00001784A2914D141786F2911D1817868297A
:1018E0000ED1C1786E290BD101795F2908D14179D8
:1018F0004C2905D18179492902D1C179422906D0E3
:1019000028882AA106EB004022F004FD15E081683A
:1019100041450BD10127677128882AA106EB0040B9
:1019200022F0F8FC27710120BDE8F08128882BA166
:1019300006EB004022F0EEFC6771206800B12760E2
:101940000020F1E784C90120466F6E74206C696243
:1019500020696E697469616C65642C204E4F206E3D
:1019600065656420746F20696E697420616E796D9D
:101970006F72650A00000000080E02205265616463
:101980002064617461206572726F720A0000000049
:10199000705F6765745F646174615F66756E632014
:1019A000696E76616C69646174650A00496E76617E
:1019B0006C696461746520666F6E742066696C651D
:1019C0000A000000466F6E74206C696220696E69BF
:1019D0007420737563636573730A000021212146C7
:1019E0006F6E74206C69622076657273696F6E2009
:1019F0006572726F720A00007CB50E4601002948BC
:101A00004FF003028C69008802EB004005D024B13E
:101A1000A168B14203D1E0687CBD23A11FE0256825
:101A2000E5B16969B14219D32A69B24216D863682F
:101A3000A3B1A98B91B1286AA0B16B79012B2AD0EF
:101A400032460EF077FE00B2411C28D0A660296A0B
:101A500000EB400001EB8000E0607CBD1BA122F0A8
:101A600059FC1CE06879012819D1B01A80B2A96923
:101A700000EB400001EB400006226946984706282B
:101A80000DD11848066000994160BDF8041001812D
:101A9000C4E902607CBDB01A80B28142D6D8002071
:101AA0007CBD000084C9012070466F6E7420726F87
:101AB00020705F666F6E745F757365725F646174CA
:101AC00061206973204E554C4C00000070617261BA
:101AD0006D65746572206572726F72206F72204E30
:101AE000554C4C008405022070B5202929D3A1F162
:101AF000090049F61F32174C45F2E335904222D2D5
:101B00000A46F32114480EF015FE00B2411C1AD00B
:101B100000EB4001104843F6963300EB8101486822
:101B2000098942189A420CD80D4A0C4E10444FF4C1
:101B300080633246801DFFF7B9FA401C03D030465F
:101B400070BD002070BD29466268BDE87040014844
:101B500010470000E4040020C86703009009022039
:101B60002C7303002DE9F0411F460C46202A02D2B7
:101B70000020BDE8F081A2F1090049F61F31194D9E
:101B800045F2E336884201D32D6824E0F32116485C
:101B90000EF0D0FD00B2411C1BD0134900EB4000F9
:101BA00001EB800001F66431406808440178A180AF
:101BB0004178E1808178218190F90310618190F969
:101BC0000400A081A07B20F00F00801CA0730120E6
:101BD000CFE72D683B4632462146AC46BDE8F04192
:101BE00000486047E4040020C8670300002807D0CD
:101BF0000E4910F0FF0F04D051FA80F00078401C1D
:101C0000704710F47F4F04D0C0F30720085C093000
:101C1000704710F47F0F04D0C0F30740085C113008
:101C2000704701EB1060007819307047F8F6020039
:101C300002E008C8121F08C1002AFAD17047704795
:101C4000002001E001C1121F002AFBD170470000F3
:101C50002DE9F047314E02004FF0030730889569B7
:101C6000884607EB004006D02DB1B8F1200F04D212
:101C70000020BDE8F0872AA14DE0DFF8C890546845
:101C8000D9F804309C4209D0296861B16C6864B10C
:101C90004869404502D30869404508D94146BDE836
:101CA000F0472848184728A135E02CA133E04146E9
:101CB0001046FFF7A1FE60B1048943684CB14FF4B0
:101CC0008068A41F44450BD930882FA107EB004042
:101CD00021E04146D9F80420BDE8F04719481047F3
:101CE0006D6822462E49981DA847A04204D030882E
:101CF0002CA107EB00400EE0304AA1B24346144647
:101D00002748FFF7D3F9401C01D02046B1E73088BF
:101D10002BA107EB004022F0FDFAA9E784C90120BE
:101D200070466F6E74206F7220705F666F6E745FA6
:101D3000757365725F64617461206973204E554CE0
:101D40004C000000E4040020705F666F6E745F69F1
:101D50006E666F206973204E554C4C00705F666F45
:101D60006E745F757365725F646174612D3E705F40
:101D70006765745F646174615F66756E6320697323
:101D8000204E554C4C000000676C7970685F6461B0
:101D900074615F73697A6520746F6F206269670090
:101DA00090050220676C7970682064617461206717
:101DB0006574206661696C6564000000900902200A
:101DC000524C45206465636F6465206661696C658B
:101DD000640000002DE9FC5F06004FF00000DFF812
:101DE00088A10C4699461546009001900AD0202DF6
:101DF0006FD35E4831680768B9420AD12146B847B7
:101E0000BDE8FC9FBAF80010032000EB014058A188
:101E100040E0304603F050F80246DFF864B100209D
:101E200000EB40035BF83370AF420DD10BEBC30105
:101E30000979914208D100EB40010BEBC100083059
:101E40000FC884E80F008CE0401C6428E8DBD6F85B
:101E500018805FEA080017D0D8F80070EFB1D8F802
:101E6000040008B3B9F1FF3F05D07869A84232D326
:101E70003869A8422FD829463046FFF7BDFDB9F191
:101E8000FF3F18D038B318E0BAF80010032000EB79
:101E900001403CA122F03EFA1BE0BAF800100320FA
:101EA00000EB01403EA1F5E7BAF80010032000EB7B
:101EB000014040A1EEE70028A2D04068B9F1FF3F01
:101EC00000D040B1D8F80430062269469847062869
:101ED00008D0002094E725484B462A46066821464C
:101EE000B0478DE7002020606060A060E060397935
:101EF000A07B61F30300A0739DF80010A1809DF802
:101F0000051000F00F00C900B1FBF0F0E0809DF873
:101F1000020020819DF90300608130899DF9041041
:101F2000401A9DF80210401A7189401A401CA08185
:101F3000304602F0C1FF062813D0294B196801EB87
:101F400041060BEBC60738714BF8365035CC0837D5
:101F500087E835006420491CB1FBF0F200FB121049
:101F6000186001204CE7000084C90120E40400202F
:101F700070466F6E74206973204E554C4C00000003
:101F80001C0E0220705F666F6E745F757365725F02
:101F900064617461206973204E554C4C0000000050
:101FA000705F666F6E745F696E666F206973204E36
:101FB000554C4C00705F666F6E745F757365725F31
:101FC000646174612D3E705F6765745F6461746104
:101FD0005F66756E63206973204E554C4C0000009F
:101FE000D804002070B5044600256FF02F0608E0E5
:101FF0002068411C2160007805EB850106EB41015A
:1020000045182068007800F021F80028F0D1284613
:1020100070BD000010B5044605484068FFF7E6FDB6
:102020000449401E51F830102060A1F1140010BD89
:10203000840100207CFC012003480168814201D01A
:102040000120704700207047940100203038092893
:1020500001D801207047002070470000F0B597B00C
:1020600005465022174902A8FEF728FA16A4294669
:10207000204622F037FF07460146224614A026F0EC
:1020800091F8384622F04AFF1BA026F08BF802AEEA
:102090002C6811E0207AA17BA4F10C03132802D84C
:1020A00056F8200000E01598CDE9000108223946D5
:1020B0001AA026F077F82468AC42EBD117B00020C4
:1020C000F0BD0000E8FC020064657669636500000D
:1020D000252D2A2E732020202020202020207479D6
:1020E000706520202020202020202072656620633B
:1020F0006F756E740A000000202D2D2D2D2D2D2DB5
:102100002D2D2D2D2D2D2D2D2D2D2D2D2D202D2D0C
:102110002D2D2D2D2D2D2D2D0A000000252D2A2EA3
:102120002A7320252D32307320252D38640A0000B3
:102130002DE9FC4106461FA40146204622F0D2FEAE
:102140008046014622461EA026F02CF8404622F08A
:10215000E5FE22A026F026F8356825E0A96805F1FD
:102160000800A5F10C04814212D0074626F061F860
:10217000A18CCDE900102346082241461DA026F07F
:1021800011F8384629F08CFB1F4826F00BF80AE0BE
:1021900026F04FF8A18CCDE90010234608224146D5
:1021A0001AA025F0FFFF2D68B542D7D10020BDE869
:1021B000FC8100006D736771756575650000000036
:1021C000252D2A2E7320656E7472792073757370B5
:1021D000656E64207468726561640A00202D2D2D7F
:1021E0002D20202D2D2D2D2D2D2D2D2D2D2D2D2D39
:1021F0002D0A0000252D2A2E2A7320253034642034
:102200002025643A0000000090230000252D2A2E8E
:102210002A732025303464202025640A0000000041
:102220002DE9FF41054617A40146204622F05AFE3B
:1022300080460146224615A025F0B4FF404622F014
:102240006DFE1BA025F0AEFF08262C6813E000BF32
:10225000A4F10C0704F1080025F0EBFFF97F3A6ABE
:1022600003900096CDE901213B460822414618A083
:1022700025F098FF2468AC42EAD104B00020BDE804
:10228000F08100006D75746578000000252D2A2E00
:10229000732020206F776E65722020686F6C642039
:1022A00073757370656E64207468726561640A008A
:1022B000202D2D2D2D2D2D2D2D202D2D2D2D202D75
:1022C0002D2D2D2D2D2D2D2D2D2D2D2D2D0A0000BB
:1022D000252D2A2E2A7320252D382E2A73202530CD
:1022E00034642025640A00002DE9FC4106461FA441
:1022F0000146204622F0F6FD8046014622461EA0F9
:1023000025F050FF404622F009FE22A025F04AFFAA
:10231000356825E0A96805F10800A5F10C048142A3
:1023200012D0074625F085FFA18BCDE9001023468A
:10233000082241461DA025F035FF384629F0B0FAA5
:1023400013A025F02FFF0AE025F073FFA18BCDE944
:10235000001023460822414618A025F023FF2D68CF
:10236000B542D7D10020BDE8FC81000073656D61E6
:1023700070686F7265000000252D2A2E732076206C
:10238000202073757370656E642074687265616473
:102390000A000000202D2D2D202D2D2D2D2D2D2D31
:1023A0002D2D2D2D2D2D2D0A00000000252D2A2E3E
:1023B0002A7320253033642025643A00252D2A2EE7
:1023C0002A7320253033642025640A002DE9FC415E
:1023D000064629A40146204622F084FD0746014610
:1023E0002246274825F0DEFE384622F097FD25A03C
:1023F00025F0D8FE356839E095F82900A5F10C04E0
:1024000000902346082239462EA025F0CBFE94F8F2
:10241000340000F00F00012805D0022805D030B1AB
:10242000042806D008E02AA004E02CA002E02EA098
:1024300000E030A025F0B6FEA06A014600E0401C96
:102440000278232AFBD0E26A401A101A6423584308
:10245000B0FBF2F3D4F830C0206CCDE9000CE06999
:10246000081A811826A025F09DFE2D68B542C3D11B
:102470000020BDE8FC8100007468726561640000A2
:1024800030C10300202D2D2D20202D2D2D2D2D2D63
:102490002D202D2D2D2D2D2D2D2D2D2D202D2D2D86
:1024A0002D2D2D2D2D2D2D20202D2D2D2D2D2D2083
:1024B000202D2D2D2D2D2D2D2D2D2D202D2D2D0A89
:1024C00000000000252D2A2E2A73202533642000C9
:1024D000207265616479202000000000207375730C
:1024E00070656E640000000020696E697420202011
:1024F0000000000020636C6F736520200000000066
:1025000020307825303878203078253038782020F1
:1025100020202530326425252020203078253038B1
:102520007820253033640A002DE9FC41054619A4C2
:102530000146204622F0D6FC06460146224617A058
:1025400025F030FE304622F0E9FC1EA025F02AFEE0
:102550002C6814E0A4F10C031F460822D7E90901F6
:10256000CDE90001314620A025F01CFE787AC00795
:1025700001D023A000E025A025F014FE2468AC4281
:10258000E8D128F0A1F9014624A025F00BFE002097
:10259000BDE8FC8174696D6572000000252D2A2E4E
:1025A000732020706572696F6469632020207469EC
:1025B0006D656F757420202020202020666C616777
:1025C0000A000000202D2D2D2D2D2D2D2D2D2D20FF
:1025D0002D2D2D2D2D2D2D2D2D2D202D2D2D2D2D38
:1025E0002D2D2D2D2D2D0A00252D2A2E2A7320303C
:1025F0007825303878203078253038782000000071
:102600006163746976617465640A0000646561637E
:10261000746976617465640A000000006375727203
:10262000656E74207469636B3A3078253038780AA7
:102630000000000010B54421074800F0D3FB002241
:102640001E2106481FF06AFE054CA06002F078F9D2
:102650000020207010BD0000AC170220F5490000DA
:102660006805002070B5B1F90030B2F90040A3420E
:1026700000DC23460380B1F90250B2F90240A542C2
:1026800000DD2C464480B1F90460B2F90450AE423A
:1026900000DA35468580B1F90610B2F9062091427C
:1026A00000DB1146C1800120AB4201DC8C4200DD21
:1026B000002070BDF8B50D460446B0F90000B1F930
:1026C00000101646884247DBB4F90210B5F9022023
:1026D000914241DBB4F90410B5F9042091423BDC8E
:1026E000B4F90610B5F90620914235DC96B3ADF881
:1026F00000006088ADF8020032466946284600F0C6
:1027000099F8002827D0A088ADF800006088ADF8BF
:10271000020032466946284600F08CF800281AD09C
:102720002088ADF80000E088ADF802003246694626
:10273000284600F07FF800280DD0A088ADF80000F2
:10274000E088ADF8020032466946284600F072F88B
:10275000002800D00120F8BD0020F8BDB0F900200D
:10276000B1F904309A4213DCB0F90420B1F9003019
:102770009A420DDBB0F90220B1F906309A4207DC2B
:10278000B0F90600B1F90210884201DB0120704760
:1027900000207047F8B50D460446B0F90400B1F9C1
:1027A00000101646884243DBB4F90600B5F9021062
:1027B00088423DDBB4F90000B5F90410884237DCEB
:1027C000B4F90210B5F90620914231DC76B3ADF8C8
:1027D00000006088ADF8020032466946284600F0E5
:1027E00029F818BBA088ADF800006088ADF8020099
:1027F00032466946284600F01DF8B8B92088ADF881
:102800000000E088ADF8020032466946284600F034
:1028100011F858B9A088ADF80000E088ADF80200C2
:1028200032466946284600F005F808B10020F8BD98
:102830000120F8BD2DE9FC4114460E46B1F90020F7
:10284000B0F9001005468A423ADBB5F9040082422D
:1028500036DCB6F90270B5F90220974230DBB5F9E3
:1028600006309F422CDC002C75DD401A9A1A401C61
:10287000521C00B212B200EBD07002EBD2724010C8
:102880005210904200DB1046844200DD0446ADF851
:102890000010288800222044ADF804006888ADF8B4
:1028A0000200688831462044ADF806006846FFF70C
:1028B000C1FF40B1BDF804002044ADF804003FE082
:1028C0000020BDE8FC81E8880022001BADF8020072
:1028D000E888ADF8060031466846FFF7ABFF28B13F
:1028E000BDF804002044ADF8040011E0A8880022DF
:1028F000001BADF80000A888ADF80400314668461A
:10290000FFF798FF50B1BDF80000001BADF80000C4
:10291000BDF80200001BADF8020016E06888ADF8B3
:102920000200688800222044ADF80600314668465F
:10293000FFF780FF70B1BDF80000001BADF800008C
:10294000BDF806002044ADF80600314668461DF08B
:10295000FBF9B6E7FFE70120B3E710B5B1F9004096
:10296000B2F900309C4200DA23460380B1F90240FC
:10297000B2F902309C4200DA23464380B1F90440A8
:10298000B2F904309C4200DD23468380B1F9061081
:10299000B2F90620914200DC1146C18010BD000052
:1029A000F8B507461FF056FC0025264C0646009554
:1029B00037B1F868606038461FF07EFD606802E05D
:1029C00012F05CFC606000691DF0BAF86068406954
:1029D00008B11DF0B5F86068C0691DF0B1F8606815
:1029E000006A1DF0ADF86068016941B31DF01EFA80
:1029F00023F05CFB6068B0F85011C1B14FF48071F6
:102A0000303018F017FE6068202100F5987018F03B
:102A100011FE6068A0F8505130461FF015FC009080
:102A200060680068436A13B122680099984718F0FB
:102A30009BFC00F035F8BDE8F84000F005B8A0F8C0
:102A40005051F8BD4805002070B50A4D002400BF64
:102A5000C4EBC40655F8260008B118F0F9FC05EBE4
:102A600086001C2118F0E6FD641CE4B2042CEFD3B0
:102A700070BD000088180220084949680AE04A68C9
:102A8000824202D00A68824203D10A7E42F00102E9
:102A90000A7649690029F2D1704700001C05002020
:102AA000704700000421014800F09CB9A0170220E3
:102AB0002021014800F096B9B81702202DE9FF4106
:102AC0000446DDE90A671D004FF0000002D1B6F5AB
:102AD000807F2BD0039001900290ADF80C100090F5
:102AE000ADF80410ADF80A20ADF80E203B46324692
:102AF000294668461DF088F83B463246294601A81B
:102B00001DF082F83B463246294602A81DF07CF8AB
:102B10003B463246294603A81DF076F8BDF9000071
:102B2000BDF90430984209DA054608E02080491EC4
:102B30006080A180521EE280BDE8FF811D46BDF984
:102B40000820BDF90C108A4201DA164600E00E4654
:102B5000B54203DA984206DB184604E08A4201DAFD
:102B6000104600E00846801E2080BDF90030BDF907
:102B70000420934201DD1D4600E01546BDF9080022
:102B8000BDF90C10884201DD064600E00E46B54254
:102B900005DD934201DD194604E0114602E088425A
:102BA00000DD0146891CA180BDF90230BDF9062077
:102BB000934201DA1D4600E01546BDF90A00BDF951
:102BC0000E10884201DA064600E00E46B54205DAEC
:102BD000934201DA194604E0114602E0884200DA25
:102BE0000146891E6180BDF90230BDF9062093427D
:102BF00001DD1D4600E01546BDF90A00BDF90E10C5
:102C0000884201DD064600E00E46B54205DD9342EE
:102C100001DD194604E0114602E0884200DD01466C
:102C2000891CE18088E700002DE9F04115460E4639
:102C30000746114C1FF00EFB80462B4632463946A4
:102C4000204616F061FD20B10020A062E06950B17D
:102C500010E02C21204618F0EDFC4FF00040A0625F
:102C60000020BDE8F08140461FF0EEFAE06108B9AF
:102C70000120E0612046F4E7DC17022010B51421A2
:102C8000074800F0AFF816F005FD40B105490160B6
:102C900005494160054981600549C16010BDFEE7F5
:102CA000C4170220BD90010039940100B5950100C0
:102CB000899001007FB50E46040003D112F0DEFAC0
:102CC00004002CD012F04EFB002828D094F82800E5
:102CD000400724D4002506B3ADF80050ADF80250EB
:102CE000204612F0E3FA401EADF80400204612F030
:102CF00023FB401EADF806006A46314602A8FFF7E6
:102D0000B1FC00280BD02068017C890708D5DDE9DB
:102D10000001C4E90C01012029E0A4F850517FBD55
:102D200082690AB102A9904700260AE004EBC601B5
:102D3000002202A83031FFF7BDFC0028EFD1761C3D
:102D4000B6B2B4F85001B042F0D880B2202804D214
:102D500004EBC00002A9303004E0A4F8505104F1A3
:102D6000300069460FF022FFB4F85001401CA4F86F
:102D7000500160680028D2D01FF0AAFB7FBD70B55B
:102D8000054600F012F804460CE02146284600F003
:102D90001EF806462146284600F071F8204618F035
:102DA00057FB3446002CF0D170BD002800D040689D
:102DB000704700B503460022FFF7F7FF03E018460F
:102DC000521C00F004F80100F9D1104600BD006863
:102DD000091D40587047006840587047002800D0CF
:102DE0008068704700224260C91C21F003018260A4
:102DF0000160704770B504460068083018F0ACFAFE
:102E0000050013D001460022204620F02DFD294662
:102E10002046626820F022FD616819B12A462046EA
:102E200020F022FD6560A06800B9A560284670BD4D
:102E300070B504460068083018F08EFA050013D00B
:102E400001460022204620F009FD29462046A268BE
:102E500020F00AFDA16819B12A46204620F0FEFCA8
:102E6000A560606800B96560284670BD28B14168FA
:102E700009B9806808B1002070470120704770B51B
:102E800004000DD0FFF791FF00228842204608D1B0
:102E9000FFF79DFF6060011E01D000221EE0A260CE
:102EA00070BDFFF79BFF8842206808440AD1016883
:102EB000A16029B12046BDE87040002220F0CEBCC0
:102EC000626070BD05682046FFF781FF0646024636
:102ED0002946204620F0C2FC2A4631462046BDE85D
:102EE000704020F0C1BC10B50446006882680AB189
:102EF0002146904720680068002801D02060F5E74F
:102F000010BD8068002801D0B0F9160070478068B5
:102F1000002801D0807E8009704770B516460546AE
:102F20000C4651EA06001AD0284619F0D3F8A868D2
:102F300001233246018A21440182A868418A314432
:102F40004182214628461BF0FBFB00220B2128462C
:102F500015F04EFA012803D128461BF04AFB012048
:102F600070BD77B581B00E46050017D061221AF00A
:102F70009DFE040012D0206880B1284631466222AE
:102F80001AF094FE10F0FF0208D02368204603993F
:102F900098470090BDF80000ADF80C00039804B00D
:102FA00070BD00002DE9F047074692B0408C1A9E94
:102FB00040F00400788490463A8499468A463289E3
:102FC00038461AF073FE0546A7F82090328951461C
:102FD00038461AF06BFE0446788CA54220F00400B7
:102FE000788403D12904B1EB044F68D0A7F820807E
:102FF0003289514638461AF059FE05468046A7F8F0
:103000002090514638460DF0FBF9318900682A4678
:103010001EF07AF830890B2823D147F6FF794D4509
:1030200001D04C451DD138461AF0FBFF00EBD070A3
:103030004510384619F0FDFE00EBD0704010C84531
:1030400006D1691C431C994200DA00E01946884603
:103050004C4506D1691C421C914201DA6C1C00E00F
:1030600014461948FFF7C6FE05002BD02F60C5E9AE
:1030700003843089A8806846C5F808A00FF0AEF830
:103080001248FF21CDE900501148029011480390E9
:1030900000200890CDE9090130880B9070889DF8D8
:1030A000421040420C90F0680790002060F300014D
:1030B0008DF842103069069068460FF003F912B09F
:1030C000BDE8F087FEE70000D0170220E5E302002C
:1030D000A1E50200FDE4020014210148FFF782BED1
:1030E000D01702202DE9F84F002590468946064664
:1030F0002C460427E5E000BFF16807EBC400085840
:1031000082017AD480B230EA090211D05FF0000265
:1031100030EA08000ED0002082426ED051F834A070
:103120006A46102150461DF055FD002871D103E07C
:103130000122EDE70120EFE76A46112150461DF01C
:1031400049FD002865D16A46122150461DF042FD16
:1031500000285ED16A46132150461DF03BFD002831
:1031600057D16A46152150461DF034FD002850D134
:103170006A46142150461DF02DFDE8BB6A460A211F
:1031800050461DF027FDB8BB6A466A2150461DF027
:1031900021FD88BB6A466B2150461DF01BFD58BBC4
:1031A0006A46012150461DF015FD28BB6A460421E0
:1031B00050461DF00FFDF8B96A46022150461DF039
:1031C00009FDC8B96A46032150461DF003FD98B9B0
:1031D0006A46052150461DF0FDFC68B96A46062185
:1031E00050461DF0F7FC38B96A46322150461DF0B2
:1031F000F1FC08B96A4601E00BE061E06D21504640
:103200001DF0E8FC28B96A466C2150461DF0E2FC2E
:1032100010B10320BDE8F88F6A46682150461DF0C2
:10322000D9FCE8BB6A46692150461DF0D3FCB8BB07
:103230006A466D2150461DF0CDFC88BB6A466C2164
:1032400050461DF0C7FC58BB6A46372150461DF05A
:10325000C1FC28BB6A46382150461DF0BBFCF8B9BA
:103260006A46352150461DF0B5FCC8B96A46402172
:1032700050461DF0AFFC98B96A46452150461DF0F6
:10328000A9FC68B96A46412150461DF0A3FC38B933
:103290006A46422150461DF09DFC08B96A4600E08E
:1032A0000AE0432150461DF095FC28B96A464921A1
:1032B00050461DF08FFC08B1022501E005B901253B
:1032C000641C708CC0F3C500A0423FF615AF2846C1
:1032D000A0E7000001484068704700004805002052
:1032E0007047C0F30410072800D90720704700007A
:1032F000A0F57F41FF3905D0002804D0702803D203
:1033000008490AE01F2070470749703880B20968F1
:1033100029B1064A5268904201D2085C70470020E9
:103320007047000020B10300940500209C05002098
:1033300010B518210348FFF755FD03490120087017
:1033400010BD00007C170220A40500202DE9F041EB
:1033500090460C46050015D0FDF7FAF80A4F0646D0
:103360002146BA68284690470446BA68281941465B
:1033700090470146701A03E06218AA5C2A55641C43
:10338000A042F9D2BDE8F081B80500202DE9F04156
:10339000094D90460E466A681C46074619469047F6
:1033A000306020B120686A68384400219047C8F82E
:1033B0000000BDE8F0810000B80500202DE9F04FC5
:1033C00087B08A46DDE910581F469346044600211F
:1033D00005B129805CB12078002809D0BAF1000F2E
:1033E00005D0002618F0060F15D0002004E00020BC
:1033F00007B0BDE8F08F401C215C0A2904D00D29DC
:1034000002D00029F7D100E0401C002DF0D04FF091
:10341000FF312980ECE75FEA887001D541F6FF773C
:10342000894608468DF81410049127E00498CDF8D9
:10343000189068B34FF0000C05AA06ABCDF80CC08D
:10344000CDF80080CDE9013220443B465A46514632
:103450001FF080F806997A1A314417B20EB288B17B
:1034600004990144049120780A280BD00D2809D032
:10347000605C0A280FD00D280DD00846205C08B1EA
:10348000002FD3DC049848B105B12E800498AFE733
:103490004FF0010CD0E7481C0490F3E7064A04A95A
:1034A000204652689047002DF0D001460022504639
:1034B00015F043F806B2E8E7B80500202DE9F04121
:1034C0001746884606001ED0002F1CD0FDF740F896
:1034D00004463846FDF73CF8050014D00B4A2C444E
:1034E0004146926830469047411903E0621BB25C46
:1034F0003255641EA142F9D930442A463946BDE806
:10350000F04118F059B8BDE8F0810000B80500207E
:1035100000230278232902D0012A0DD00FE02AB11E
:103520000021012A04D0022A04D008E0012101E090
:10353000017004E0017001E0202902D00123184647
:1035400070470221F6E72DE9F0410E46804602461B
:103550000021334608461FF03BFA04460027401C72
:1035600017F0FAFE050008D02F5533464246611C7D
:103570001FF02EFA2846BDE8F081FEE72DE9F04F56
:1035800089B017468B4606004FF0000405D140F283
:103590001712254925A023F07FF93FB94FF48C720B
:1035A000214923A023F078F900E0641C305D202835
:1035B00003D0092801D05C45F7D34FF0FF3984B31D
:1035C0001D4804F1060ADFF87480056811E0062240
:1035D0001BA12868FCF7E7FF50B92868224631464E
:1035E000801DFCF7E0FF18B9296811F80A0028B11E
:1035F0000C35D8F800008542E9D313E0AC6884B1FB
:1036000020216846FCF781FF6A46594630461FF084
:10361000EFFF30B16946A0473860002009B0BDE82F
:10362000F08FFFE74846F9E73CFE0200636D640057
:10363000726574700000000034020020380200201F
:103640005F5F636D645F00002DE9F0411E46154623
:103650000C46069FFCF762FEDFF850E004EB4402E4
:1036600071463EF9223001EB8201A34211D1D1F81B
:1036700004C0B4450DD1B1F802C0AC4509D1D1F8B0
:1036800008C0BC4505D100BFFCF74CFE0020BDE8DA
:10369000F0815B1C03D0FCF745FE0720F7E72EF80E
:1036A00022404E604D808F60EEE700007C020020DB
:1036B00010B50C46FCF732FE0A4904EB440331F91D
:1036C0002320521C09D04FF0FF3221F8232001EBB8
:1036D000830100224A604A808A60FCF723FE0020B2
:1036E00010BD00007C0200202DE9FC5FDFF8A8B0CF
:1036F0000C464FF040094FF0E02A4FF00048012AF5
:1037000001D0EAB318E0FCF709FE0746234904EBB1
:10371000440031F92020521C0BD001EB800080784E
:10372000C0F38100012811D002280CD003280FD14A
:1037300005E03846FCF7F6FD0620BDE8FC9F204674
:1037400020F0CEFB10B103252E4601E00225012614
:103750000021CDE90015204633460A4620F025FB1E
:103760000F49A02081F80004CAF800914FF4BE7000
:1037700020F0F6FBCBF804833846FCF7D3FD08E0D5
:10378000FFE74FF4BE7020F0EBFBCBF80883CAF8DC
:1037900080910020D1E70000006000407C02002002
:1037A00006E000E01CB50846042A0BD2DFE802F070
:1037B000020B0D0F002100910B46012201911146D1
:1037C00020F0F3FA1CBD002102E0032100E00121FA
:1037D000BDE81C4020F002BB084620F081BB38B594
:1037E00001246846009132B120F06CFB00998C40B6
:1037F000C0F8084538BD20F065FB00998C40C0F842
:103800000C4538BD2DE9FC5F9B460CAB8A468146D2
:10381000DDE9116093E81210DDE90F575FEA807867
:103820004FF030031AD45EB15FEAC07808D000F0E0
:103830000C0858EA0C0803D0761E01E00B55641CF6
:10384000BC4204D2202CF9D301E00B55641C5FEA82
:10385000C07803D0B44201D2202CF6D35FEAC0680E
:1038600025D55FEA40580AD44CB1BC4201D0B442DD
:1038700005D1641E03D0102D03D1641E04E0102D69
:1038800002D0022D0AD00EE0850603D4202C1ED2D1
:10389000782506E0202C1AD2582502E0202C16D2DA
:1038A00062250D55641C202C11D20B55641C202C54
:1038B0000DD2BCF1000F01D02D2306E0430701D546
:1038C0002B2302E0030702D520230B55641CCDE90E
:1038D00000BAC846154681468B46AA46800714D1D1
:1038E000274607E02A46DDE900316D1C2020C4464A
:1038F000E0477F1CB742F5D307E02A466D1C641EE3
:10390000DDE900311BF80400C047002CF5D15FEA67
:10391000897006D409E02A46DDE900316D1C2020BB
:10392000C047A5EB0A00B042F5D32846BDE8FC9F8E
:103930002DE9F04F8FB099468B46DDE91818DDE987
:103940001C63DDE91A4792468646002209B923F036
:103950001003580507AD00D5C9B1B1FBF4F004FB65
:103960001010C0B20A2801D2303009E05FEA836C3F
:1039700002D54FF0410C01E04FF0610C60440A3871
:10398000B1FBF4F1A854521C09B1202AE5D3CDF8BB
:103990000880CDE90563CDE90052CDE903474B46E8
:1039A000524659467046FFF72DFF0FB0BDE8F08F25
:1039B0002DE9FF4F8FB01CACDDE9239594E8030897
:1039C00020AC94E8C004002450EA010201D125F0A3
:1039D00010056A050DF11C0802D550EA010217D046
:1039E00032463B46FCF734FDD2B20A2A01D23032CD
:1039F00006E0AB0601D5412300E061231A440A3AF0
:103A000008F80420641C50EA010201D0202CE7D3FE
:103A1000CDE90084CDF808B0CDE90595CDE9036A7C
:103A20000FAF97E80F00FFF7EDFE13B0BDE8F08F82
:103A30009A4200D2885470477047000070B514460F
:103A4000050004D13722084908A022F025FF3CB127
:103A5000286C62882188036828469847002070BD3A
:103A60004FF0FF3070BD0000FCFB020070696E205B
:103A7000213D2052545F4E554C4C000070B51E46FF
:103A80001546040004D11822084909A022F004FFB9
:103A90000DB1042E01D0002070BD206C29888268F1
:103AA000204690476880304670BD0000E7FB02006A
:103AB00070696E20213D2052545F4E554C4C0000E1
:103AC00070B51E461546040004D12722084909A0F6
:103AD00022F0E2FE0DB1042E01D0002070BD206C5A
:103AE0006A882988436820469847304670BD0000A0
:103AF000F1FB020070696E20213D2052545F4E554B
:103B00004C4C000010B5040004D15322114912A0FE
:103B100022F0C2FEA06A0178232906D1E169814220
:103B200003D9E26A02448A420AD221460FA024F055
:103B300039FB0EF0A3FAFCF7F1FB0028FDD110BD14
:103B400020308142FBD82146BDE810400EA024F071
:103B500029BB0000D6F802007468726561642021F8
:103B60003D2052545F4E554C4C0000007468726505
:103B700061643A257320737461636B206F7665729C
:103B8000666C6F770A0000007761726E696E673A43
:103B900020257320737461636B20697320636C6FDD
:103BA000736520746F20656E64206F662073746186
:103BB000636B20616464726573732E0A00000000F9
:103BC0002DE9FC411F460446DDE90831DDE90A65BF
:103BD000143040600060C4E90827C4E90A310A468D
:103BE0002321184624F0A4FCD4E90A014218D4E9A0
:103BF0000801154B121F24F077F9E061082E04D359
:103C00009522124912A022F047FE84F8366084F80B
:103C100035600020C4E90E052564206384F8340073
:103C200020676067009023460190124A194604F10C
:103C3000440026F07DFF1048816809B1204688477E
:103C40000020BDE8FC81000055A2020024F902001A
:103C50007072696F72697479203C2052545F5448C5
:103C6000524541445F5052494F524954595F4D416A
:103C700058000000B1A702009C01002010B5029C72
:103C800024F001044472C0E907120021C0E909319F
:103C900014304060006010BDF0E905124A60D0E9C0
:103CA0000012116040600060704700002DE9F0478D
:103CB00017468846050002D0B8F1000F05D140F242
:103CC000BD12374937A022F0E7FDFCF727FB8146FC
:103CD0003F49A86C084202D1EC6C3CB10CE028468C
:103CE000EE6C23F085FC04465EB330E040F2C71270
:103CF0002B4938A022F0D0FD2068012817D00120E0
:103D00002060286C006928B94FF4E672244936A077
:103D100022F0C2FD286C01233A4604694146284638
:103D2000A0474846FCF7FEFA3846BDE8F0876FF03A
:103D300006044846FCF7F6FA204625F08DFF0020E1
:103D4000F3E74FF4EE72164931A022F0A5FDA74229
:103D500000D23C46F088A96C0219C1F38F218A4237
:103D600004D231682246014440460EE00A1A316806
:103D70000144404624F09CFBF088A96C0219C1F371
:103D80008F21521A4144081A316824F091FB2146D0
:103D9000284623F057FC4846FCF7C4FA2046C4E7FF
:103DA00052FB02002873657269616C20213D20522C
:103DB000545F4E554C4C292026262028646174619E
:103DC00020213D2052545F4E554C4C2900000000EC
:103DD00000FCFF0372785F646D6120213D20525426
:103DE0005F4E554C4C00000073657269616C2D3E4E
:103DF0006F70732D3E646D615F7472616E736D6977
:103E00007420213D2052545F4E554C4C0000000060
:103E100072785F6669666F20213D2052545F4E556F
:103E20004C4C00002DE9F04715460F46060005D121
:103E30004FF484721D491E4822F02EFDF46CA846F2
:103E40004FF0000A64BB4FF486721849194822F0FB
:103E500023FD25E0FCF762FA0146E088A288904243
:103E600001D1A26882B1226812F80090401C80B291
:103E7000E080B26CC2F38F22904201D3A4F806A076
:103E8000A068012804D005E00846FCF74BFA09E0D9
:103E9000C4F808A00846FCF745FA07F8019B6D1E18
:103EA000002DD7D1A8EB0500BDE8F087DDFA0200B0
:103EB000249B0200307602004168002901D080680E
:103EC0000847704770B58AB00E46054620224D4916
:103ED00002A8FCF7F3FA4C4C2DB94A494E220C3992
:103EE0004AA022F0D9FC2EB946494F220C394CA0E9
:103EF00022F0D2FCE86B00B1044600252069C0F82E
:103F000000553168B1F5165F42D0494808903079C4
:103F100010F0C00F3ED00E208DF81D0007208DF848
:103F200024008DF81C5004950595A0690390E06964
:103F30000290009068461FF0B7FF009A012191405F
:103F4000C0F8081502981FF05CFF02981FF077FF79
:103F50000022039800952B46114601951FF00CFF97
:103F600020690899C0F824159DF81D009DF81C10C3
:103F700022690843C2F86C05DDE902122069C0F825
:103F80001425C0F80C159DF81C00012805D00BE085
:103F90002848BBE78DF81D50C0E7DDE90412206911
:103FA000C0F80825C0F810154FF48E71206920F074
:103FB00073FB4FF48471206920F06EFB4FF4A27103
:103FC000206920F069FB4FF49271206920F064FBB6
:103FD00020691949C0F80413206920F0A7FB9DF857
:103FE0002410FDF729FB206920F0A0FBFDF717FB4B
:103FF00020690421C0F800150348001F04600AB0BE
:10400000002070BD08FF020048020020736572693D
:10401000616C20213D2052545F4E554C4C000000F5
:1040200063666720213D2052545F4E554C4C000082
:1040300000E0D70100502700040202002DE9F04102
:10404000474D174688462C68060004D198224549FA
:1040500045A022F021FCF06B00B104464046B8F1C7
:10406000210F5AD00ADC454E4FF0010510281FD011
:1040700011280BD0B8F1200F05D139E0222855D0F6
:10408000B8F1230F4CD00120BDE8F08120694560D4
:104090002069C0F80863206920F048FB00F01F0188
:1040A0008D404009800000F1E020C0F8805154E0CC
:1040B0004FF48471206920F0EFFA4FF4A271206967
:1040C00020F0EAFA4FF49271206920F0E5FA2069B5
:1040D000C0F80463206920F029FB0721FDF7ACFA42
:1040E000206920F023FBFDF79AFA2069056034E08F
:1040F000012F02D0022F07D02FE021684FF4165075
:1041000048641F49206905E021684FF4E1304864A4
:104110001C492069C0F824151FE02868A0421CD063
:10412000206800F14401FFF7CDFE16E02069002170
:10413000C0F8001521694FF0FF30C1F81405C1F82F
:104140000C05A0691FF07BFEA0691FF05AFEE06914
:104150001FF075FEE0691FF054FE002094E7000098
:104160004402002028FF020073657269616C2021FF
:104170003D2052545F4E554C4C000000040202009A
:104180000050270000E0D70170B506000E484FF040
:10419000FF35046804D1FF220C490DA022F07CFBFE
:1041A000F06B00B104464FF484763146206920F06C
:1041B0006EFA38B13146206920F06EFA2069D0F8E5
:1041C0001805C5B2284670BD440200203EFF02001B
:1041D00073657269616C20213D2052545F4E554CCD
:1041E0004C00000070B506000F480D46046804D16D
:1041F000E9220E490EA022F04FFBF06B00B10446FD
:104200004FF48E763146206920F046FA206901216C
:1042100081602069C0F81C553146206920F037FACA
:104220000028F9D0012070BD4402002033FF0200B5
:1042300073657269616C20213D2052545F4E554C6C
:104240004C0000002DE9FF4F89B005460A98002474
:104250009246002800D1FE4D8FE1252804D0224649
:10426000641C53460A990BE2491C4FF000080846AB
:104270000C9101782B2919D004DC202919D023298D
:1042800004D119E02D290ED0302909D00026C8B25A
:10429000FDF7DCFEB0B10CA8FDF7A4FE06461FE05A
:1042A00048F001010AE048F0020107E048F004018B
:1042B00004E048F0080101E048F01001401C884685
:1042C0000C90D6E70C9908782A2809D1169840C88E
:1042D0001690002E02DA48F002087642491C0C9132
:1042E0000C984FF0000B01782E2919D1401C0C902E
:1042F00048F480680078FDF7A9FE20B10CA8FDF70E
:1043000071FE83460CE00C9A10782A2808D1169882
:1043100002C81690002900DC0021521C8B460C922A
:104320000C9801786C290AD004DC68290FD06A291E
:1043300019D128E0742929D07A2914D126E0401C0B
:104340000C90017848F480786C291CD00BE0401C5C
:104350000C90017848F08008682904D148F04001A9
:10436000401C88460C9002460078692822D015DC53
:1043700062281FD00DDC252871D050281AD058286B
:104380007FF46DAF16E048F40071E9E748F48071FE
:10439000E6E7632878D06428F2D10BE0732874D064
:1043A00004DC6F2806D07028EAD103E0752801D01C
:1043B0007828E5D178280DD058280BD070280BD05C
:1043C000502809D06F2816D0622816D00A2128F06C
:1043D000100016E0102107E05078102148F488788A
:1043E000562804D1521C0C921078582807D0107807
:1043F000502804D006E0082109E0022107E048F037
:10440000200080461078692803D0642801D028F065
:104410000C085FEA485001D528F001081078692897
:104420001ED064281CD0562864D05FEA885072D50C
:10443000169804ABC01D002283E806080292CDE95D
:10444000076820F007005346F0E80212CDE9001299
:104450001690224628460A99FFF7AAFA89E00AE14F
:104460005FEA885024D5169804AFC01D20F00703DA
:10447000F3E802021693002387E80A08CDE90768EB
:10448000002A03DA012102E080E0A6E000210023F7
:10449000029119461B1A914101DA114603E00021ED
:1044A000404261EB020153462246CDE90001D1E7CB
:1044B0005FEAC85004D5169804C80FE0524215E0D0
:1044C0005FEA486003D5169810F8042B06E05FEA0F
:1044D0000860F0D5169830F8042B12B21690CDE98A
:1044E000021BCDE90468D00F002AE7DDCDE90020EA
:1044F00053461EE01698AAEB040202C816904868BC
:10450000006800900A980B6801192846FFF79AFE88
:1045100004442FE0FFE75FEAC8500CD5CDE9021B49
:10452000CDE9046816980021534604C8CDE900215E
:104530001690224619E05FEA486003D5169810F8F5
:10454000042B08E05FEA0860169803D530F8042BC6
:1045500092B200E004C816900020CDE90020CDE919
:10456000021BCDE904685346224628460A99FFF704
:10457000DFF904460C98401C0C900C990878002830
:104580007FF46BAE54457DD222467DE001275FEA81
:10459000887006D509E02246641C534620200A99FB
:1045A000A84738467F1CB042F5D316992246641CB2
:1045B00011F8040B169153460A99A8475FEA8870D0
:1045C00006D4D7E72246641C534620200A99A84700
:1045D00038467F1CB042F5D3CCE7169850F8049BC0
:1045E00016904B46BBF1000001D0014601E04FF0B0
:1045F000FF31484600E0401C02780AB1491EFAD259
:10460000C71A5FEA485003D558465F4500D30746AE
:104610005FEA887006D512E02246641C53462020CB
:104620000A99A84738467F1CB042F5D307E000BF7F
:10463000224609F10109641C53460A99A84799F8D2
:10464000000040B15FEA4851F2D5BBF1010B01E037
:10465000393A0000ECD25FEA887006D48AE7224635
:10466000641C534620200A99A84738467F1CB04254
:10467000F5D37FE706E02246641C534625200A99BD
:10468000A84777E7AAF10102534600200A99A847F4
:104690000DB02046BDE8F08F2DE9F0410F46012115
:1046A0000025044641862E460BE01B49FBF757FFC9
:1046B00010B16D1CADB202E0608E401C6086761CAD
:1046C000B6B257F8260010B101780029EDD1208E3E
:1046D000A8421ED0A06A002610B116F0B9FEA6624C
:1046E000E06A10B116F0B4FEE662E80016F034FE9F
:1046F000A06238B1680016F02FFEE06218B1A16A1E
:1047000011B102E0FEE7FEE70025690016F092FF16
:104710002586BDE8F08100007C3501002DE9F84FC9
:104720008146407A0F4600F00700022819D0104653
:104730008046974200DD3A46164603202A4C2B4A13
:1047400000EB460020F00305A06811681035411AFF
:10475000636805EB010C9C4505D2416821F00041DE
:1047600024E00846E4E79D4219D892464FF0FF3B0B
:1047700048196168884210D9002269461C48CDF862
:1047800000B00CF0F7FC002269461A480CF0F2FC6D
:10479000A168DAF80000091AEAE7A068DDE7284610
:1047A00016F0DAFDC0B1416841F0004188EA6702C5
:1047B000416089EA02010160416801F04041491C01
:1047C00031F0804141608681A0F80E8005D500F16E
:1047D00010018160BDE8F88FFEE7A16801F11002C9
:1047E00029448260A160F5E7F806002090050020CA
:1047F000BDDD0000E511010070B586B000224F4C10
:104800008DF808208DF80C208DF81020E2888A425F
:1048100001D0FF22A270E18090F83C20142302F026
:1048200003024FF4B475012A24D0022A68D0A57877
:10483000AA4211D010F8265F05EB051505EB4505DA
:10484000B5FBF3F52570407800EB001000EB40005D
:10485000B0FBF3F06070A27004AA03A8CDE90002D7
:1048600001EB41004FF6FF7101EA400002AB6278B4
:1048700021781BE0A678B24210D0868C06EB460663
:104880007602B6FBF5F5A58090F8270000EB001046
:1048900000EB4000B0FBF3F06070A27004AA03A824
:1048A000CDE90002C9B202AB627844E008F086FFAD
:1048B0009DF80C00BDF8003044099DF8082064F311
:1048C0000203ADF80030D308BDF800209DF81010A9
:1048D00063F3C702ADF80020CA08BDF8001062F308
:1048E0000C21ADF800108108BDF8000061F34F30D5
:1048F000ADF8000080B20090BDF8000006B070BDB9
:10490000A678B24210D0868C06EB46067602B6FB3D
:10491000F5F5A58090F8260000EB001000EB4000B4
:10492000B0FBF3F02070A27004AA03A8CDE9000246
:10493000CAB2217802ABA088B8E700008C0600203C
:1049400010B5084C012020700748FEF72EFA002809
:10495000A06803D0BDE810401DF0BABDBDE810400E
:104960001DF0AABD68050020AC17022010B5044652
:1049700090F84200A16B820709D4B4F840204AB1F4
:10498000A2F57F43FF3B1BD0521EA4F84020B4F891
:104990004020AAB909B1820712D521461448FEF772
:1049A0006EFAFFF7CDFFE16809B12046884721691B
:1049B00009B1204688472046BDE8104016F048BDA2
:1049C000E26B52422263002911D0820702D4626B4B
:1049D000524222634210521C62F3410084F84200AA
:1049E000A26A206A2262A062E06AE162A06310BD4E
:1049F000AC17022070B5304D68681DF025FC0646E6
:104A0000687880F00100687047E00020287094F812
:104A100042006978C0F380028A4242D061F382008A
:104A200084F84200216B8A19030719D4002917DC86
:104A3000002A15DBC00709D1616939B120468847D2
:104A4000216A01442162A16A0844A062A16809B1F7
:104A50002046884794F8420040F0080084F842005D
:104A6000206B8019206316D4E16A884200DD21633F
:104A7000E169204688470146606A884204D0616245
:104A800062680AB120689047D4E90B01814202DBD9
:104A90002046FFF76BFF287818B10848FEF785F924
:104AA00003E021460548FEF792F90400ADD11DF060
:104AB000D1FB686070BD000068050020AC170220C3
:104AC00072B61FF0CDFC00BF1FF018FB0028FBD111
:104AD000104C0121208801EB00400FA11FF01AFCAF
:104AE00010480068C00700D000BE2088022101EBFA
:104AF00000400DA11FF00EFCBFF34F8F0948E438B2
:104B000001680D4A01F4E06111430160BFF34F8F6A
:104B100000BFFDE784C90120466174616C206572A5
:104B2000726F7200F0ED00E053797374656D20725E
:104B300065736574000000000400FA050EB50021DD
:104B40000091CDE901106A4644F20100FFF7B8FF79
:104B50000EBD00007FB500249020CDE900043B4A43
:104B60000C233BA1A2F1340023F006FD08B1FFF7AE
:104B7000E5FF6FF07F40CDE9000434480023364A5A
:104B800036A1B43025F0D4FF37A025F08FFB10B14B
:104B9000374825F0F9FA34A025F088FB14244FF4A7
:104BA000806598B9324904207831CDE90015CDE906
:104BB000020400232F4A2CA12D4825F065FC10B1DA
:104BC000FFF7BCFF02E02A4825F032FD23A025F0C4
:104BD0006DFB10B1264825F0D7FA20A025F066FB22
:104BE000A0B90320CDE902042349CDE900152248EC
:104BF0000023224A19A1783825F046FC10B1FFF7AE
:104C00009DFF03E01C48783825F012FD184800236A
:104C10001A461BA1203824F0DDFB08B1FFF78EFFF8
:104C200013487038006A68B911484C38C0690028C8
:104C3000FDD00F48002214A1703823F083FE08B184
:104C4000FFF77CFF04B0002070BD0000CCC901203C
:104C50006576746D71740000E9D500006576747432
:104C6000696D6572000000006576747461736B0095
:104C7000CCCA0120914C0000BCCF0120154F000090
:104C800065767473656D00006D757465780000005D
:104C90000EB50B4C4FF0FF36002533460C2269460B
:104CA000084823F0ADFC0028F7D10298A0600198D5
:104CB0006060029900988847A5606560EDE7000094
:104CC0000000002098C901203EB505460C4607A00B
:104CD00025F0ECFA002807D00C2269460548029519
:104CE000009423F0ABFDC0B23EBD00006576747445
:104CF00061736B0098C901202DE9F84307460E4601
:104D000003EB4300C0EBC3104FF4FA7101EBC0009A
:104D10004900B0FBF1F500249046012D05D831463D
:104D20003846FFF7D1FFBDE8F8831E4823F0FAFEAE
:104D300008B1FFF703FF1C4850F8241019B1641C98
:104D4000402CF9DB12E0402C10DA40F8247000EB24
:104D50008407C7F80061C7F8008325F0B5FD134943
:104D60000968401A00902844C7F800020D4823F053
:104D700013FE08B1FFF7E2FE402C03DB0120FFF732
:104D8000DDFED0E70748243025F0BEFF05486A461F
:104D90000021243025F0F2FD0248503024F03EFB83
:104DA000C1E700005CCA0120BCD301200000002044
:104DB00038B5054600244FF47A71184823F0B2FE46
:104DC00008B1FFF7BBFE002115480A4650F8213014
:104DD000AB4202D140F821200124491C4029F5DBD7
:104DE0000E4823F0D9FD08B1FFF7A8FE9CB125F0CD
:104DF0006BFD0C490968401A00900848243025F0E2
:104E000083FF06486A460021243025F0B7FD034899
:104E1000503024F003FB204638BD00005CCA01205E
:104E2000BCD301200000002010B5124B124A1349D8
:104E3000002008F06FFC114904460E4B104A1C314B
:104E4000012008F067FC0D4904440A4B0D4A383133
:104E5000022008F05FFC09490444064B0A4A543119
:104E6000032008F057FCE04201D0002010BD0120D3
:104E700010BD0000D7F80000A4670300140502204D
:104E8000045C030080450300BC4203000148C06885
:104E900070470000C004002001480069704700000E
:104EA000C0040020062803D2024951F820007047B0
:104EB00000207047C00400200146064A002000BFC1
:104EC00052F820308B4204D0401CC0B20628F7D3E1
:104ED00006207047C0040020014880687047000029
:104EE000C0040020302801D306A07047084A131FD1
:104EF0001B7852F82320526810580278002AF4D107
:104F0000084670476E6F206B65796E616D650000B5
:104F1000240700201CB53A4C4FF0FF394FF47A7A41
:104F20004FF000086FF000474946364824F0B6FAC3
:104F30003448CDE90078464601AA01212C3825F0F5
:104F40001DFD30485146503823F0ECFD08B1FFF705
:104F5000F5FD002554F82500D8B104EB8501D1F802
:104F600000220198824205D9D1F80022101AC1F816
:104F7000000201E0C1F80062D1F8000248B954F81B
:104F8000250044F82560D1F80023D1F80011FFF77F
:104F90009BFE6D1C402DDDDB5FF0000554F8250005
:104FA00078B104EB8506D6F8000210B90020FFF7AF
:104FB000C5FDD6F800020099884202D2D6F8000258
:104FC00000906D1C402DE9DB0E48503823F0E4FCC6
:104FD00008B1FFF7B3FD0098B842A5D00028A3DDC3
:104FE00008486A4600212C3825F0C8FC05482C38B2
:104FF00025F0CEFD25F068FC0349086094E7000029
:10500000BCD30120ACCA012000000020401A20F0CF
:105010007F40704738B504467AB1626059B10620C6
:10502000009000232246064906A025F0FFFC2060E0
:1050300018B1002038BD0420F2E7072038BD000079
:10504000B93E000061707074696D65720000000007
:1050500038B5044601EB4100C0EBC1104FF4FA71C2
:1050600001EBC0004900B0FBF1F00090012811DB1A
:10507000206878B1407AC00701D0002038BDA26016
:105080006A460021206825F079FC206825F080FD23
:105090000028F3D0072038BD10B528B1006818B13A
:1050A00025F032FE002010BD072010BD00F002B830
:1050B00000F008B872B602480168491C01607047E8
:1050C0009400002003490868401E086000D162B6C1
:1050D000704700009400002070B5044640680D46FB
:1050E00008B1FFF7F9FF2268002A04D029462046BC
:1050F000BDE87040104770BD89B20DF0BCBC89B2EC
:105100000DF0F5BC2DE9FF4F99B09846DDE926B1C9
:105110002D9816468A464FF00009042811D005281C
:1051200011D0062812D0142870D10127022500249E
:1051300018FB06F00E901A98401E0D90701E0690F7
:1051400051E10027F2E701270325F0E701270225B7
:10515000FEF7C0F80068D0F83890E8E72898604378
:105160000BEB2022299860430AEB202110124FEA12
:10517000212E7DD41A9B98427ADABEF1000F77DB9C
:10518000B64575DAD2B2CBB2802A05DAC2F17F0217
:105190004FF0FF31520003E001215200A2F580726E
:1051A0000992802B05DAC3F17F034FF0FF325B00D9
:1051B00003E001225B00A3F580730A930EFB080C49
:1051C000199B0CFB053307934318119372D4DDF838
:1051D00034C063456EDC1EEB02036BD4DDF818C0EF
:1051E000634567DCDDF81CC011FB05C1CDE915C1C5
:1051F00012FB08F101FB05C10C91D7B32D990529CC
:1052000005D014290BD0062955D066E0EFE015989B
:10521000807807900C9881781698807810E0199A19
:105220000E990EFB08FC02EB41010A180EFB081157
:105230001CF802000790119803FB08F3085C995CC6
:10524000079A91420AD00A9A11FB02F20A99C1F513
:105250008073079911FB0321C1F30721079A90423C
:105260000DD0099A10FB02F20998C0F5807301E095
:105270002FE035E0079810FB0320C0F30720084417
:105280002C994008085527D015980178407801EBF3
:105290000020ADF80C000C980178407801EB00205C
:1052A000ADF8100016980178407801EB0020ADF8B9
:1052B000080023E04CE0159801881FFA89F081422C
:1052C00007D00C990988814203D016990988814238
:1052D00003D12C990020085583E0FF210846CEE732
:1052E00015980088ADF80C0016980088ADF80800F5
:1052F0000888ADF810002C98FF210155BDF80C006E
:10530000BDF81010884209D1BDF80810884205D1B7
:105310002B98BDF80C1000EB440017E00A98C2B2BD
:10532000DDE903100FF0A3FB04900998C2B2DDE998
:1053300002010FF09CFB7F22029004990FF097FB73
:1053400000902B98BDF8001000EB4400018048E06D
:10535000079B93F800C05B780CEB0323DDF8ACC02F
:105360009BB22CF81430DDF8B4C0BCF1050F06D0A8
:10537000BCF1060F06D0BCF1140F09D10AE0079B5F
:105380009B780FE01FFA89FC634501D1002309E0F7
:10539000FF2307E0199B0EFB083C0E9B00EB430329
:1053A0001CF8033008B9002905DBDDF834C060457E
:1053B00003D1002901DD09980AE0BEF1000F01D1F7
:1053C000002A04DB06998E4508D1002A06DD0A98DA
:1053D000C0F1FF0010FB03F0010A00E000212C984F
:1053E0000155641C24B22A988442FFF6B7AE1DB062
:1053F000BDE8F08F10B5818F92B00446A9B1684620
:105400000CF0ECFE0B480121CDE90040A08F0B9081
:1054100000200890CDE9090107480790074803904C
:1054200068460CF04FFF12B010BD12B0BDE810403E
:1054300020F0E6BA795A02009B2201007B5A020052
:1054400070B51FF021FA08B1FFF778FB4FF4FA7539
:10545000064C02E0052024F02DFE207810B96D1EC8
:10546000ADB2F7D20020207070BD000028000020EF
:1054700000B585B0142209496846FBF71FF80022E1
:10548000074968461FF00AFA08B1FFF757FB01F019
:105490001FF904490020087005B000BD28F2020081
:1054A000195B0200280000202DE9F04792460C46C7
:1054B0000646DFF8548022E0FF2C01D8204601E0A8
:1054C0004FF4807085B25246294630461FF054FA98
:1054D000B0F1000901D0FFF731FB4FF4FA7702E099
:1054E000052024F0E7FD98F8000010B97F1EBFB238
:1054F000F6D2002188F80010AA442E44641B002C28
:10550000DAD14846BDE8F087280000202DE9F047B1
:1055100090460C460546DFF8589023E008F0FF005F
:10552000C0F58070844200D2204686B242462146B1
:1055300028461FF039FAB0F1000A01D0FFF7FEFA51
:105540004FF4FA7702E0052024F0B4FD99F800004A
:1055500010B97F1EBFB2F6D2002189F80010B04406
:105560003544A41B002CD9D15046BDE8F08700007B
:105570002800002038B5044614F020FB054614F03E
:1055800052FB0028204605D0218FE18619F031F822
:10559000012038BD12F0F4FC002820461ED012F085
:1055A000C4FB218FE08E81420CD02087E08E0090DA
:1055B0006A461C21204612F01BFF0128E9D1204633
:1055C00019F017F8284614F03AFB0428E0D12046D9
:1055D00017F02AFC002113F0C7FCD9E712F02CFDCC
:1055E000D6E770B512F000FF054617F063FC0446DD
:1055F00028460EF07DF801462046BDE870400122A5
:105600001CF054B92DE9F0470546861C90460F461C
:105610004FF001090020FFF749FD1B4C206838605E
:10562000D4E90001401AA16804F50777081A0EE0D2
:10563000012138461EF070F90CF03AFD014638465B
:105640001EF06AF9D4E90001401AA168081A401C4A
:105650008642EDD8B8F1000F03D0052065F389101C
:1056600002E0062065F39F50A2682168114004EB18
:105670008101C8602068304420600020FFF718FDD9
:105680004846BDE8F0870000B0F4012030B48268DD
:105690000468531C8360A154D0E901128A4202D3EA
:1056A00030BC1EF024BA30BC70470000034803C869
:1056B000814201D10120704700207047B0F40120E1
:1056C00010B51BA022F06EFD1C4C21781CA022F00E
:1056D00069FD2078C00702D01FA022F063FD20786A
:1056E000800702D51FA022F05DFD2078400702D57B
:1056F0001FA022F057FD2078000702D520A022F03D
:1057000051FD2078C00602D520A022F04BFD207864
:10571000000607D509480F300168BDE810401DA0FC
:1057200022F040BDBDE810401EA022F03BBD0000AD
:10573000627573206661756C743A0A0029ED00E0A9
:105740005343425F434653525F424653523A307886
:10575000253032582000000049425553455252200E
:10576000000000005052454349534552522000006A
:10577000494D5052454349534552522000000000C4
:10578000554E53544B4552522000000053544B4544
:10579000525220005343422D3E424641523A253058
:1057A00038580A000A0000002DE9F04F0D4687B076
:1057B0000446002117F06CFA60B32946204600F039
:1057C00061FA2946204600F06FF80021204618F0C3
:1057D00077F905900021204618F014FA0490002172
:1057E000204618F05CF8012800D0002080460021F7
:1057F000204618F04BFB07460021204618F0BEF863
:1058000042F2D17906464F450BD1608C400508D451
:10581000012707E007B02846BDE8F04F1C2115F02E
:1058200009BF0027204617F0B1FADFF878A08346B9
:1058300020460021BAF8042018F038FAD5F810C034
:10584000AB682968CDF800C0CDF80C80CDE90131F6
:10585000C2B239465846059B0AF044FE28834E459D
:1058600004D1608C800501D4012600E0002620468A
:1058700017F072FA074620460021BAF8082018F0FF
:1058800015FAC2B2686900246B68E9688DE81B00EC
:1058900031463846049B0AF025FE688307B0BDE810
:1058A000F08F0000000600202DE9F34F81B00C4678
:1058B00001980AF071F90646019817F067FA8246D6
:1058C000304601F063F82061400015F063FD206070
:1058D0002069400015F05EFD002541F69A79A06030
:1058E0003AE036F91510DFF82081494533D1002719
:1058F000DFF818B11FE03946019817F0C9F9594689
:10590000009018F0DEFBA8B900980AF057F90128BA
:1059100010D100980AF048F9A8420BD1009818F06D
:1059200080FB4146404501DA084602E0009818F045
:1059300078FB80467F1C019817F0BCF9B842DAD892
:10594000B8F1000F03DBA16821F8158003E0A1681E
:10595000002021F815006D1C2069A842C1D800253F
:105960002F46284641F69B784B4615E036F9101035
:10597000414504DB0D44A5F5F8559B3D0BE09942EC
:1059800004D1A16831F81010394403E0A26822F86C
:10599000101039440FB2401C21698142E6D8002121
:1059A000019818F08DF82169C1F1010200FB02A0F5
:1059B000C01B00B2002800DA002000224FF0FF33A5
:1059C0001146C44611E000BF36F9117067450BDB84
:1059D000A7F5F8579B3F3AB210FB02F3B3FBF5F380
:1059E000A76827F811300B46491C27698F42EBD86E
:1059F000002B07DBA91A4143B1FBF5F1401AA1685E
:105A000021F81300BDE8FE8F01E0FFFF0100060052
:105A10002DE9F14F00221146009819F079FD00217F
:105A2000009817F069FF04460021009818F0F0F87C
:105A300020440FFA80F90021009817F0EDFF204470
:105A40000FFA80F8009817F0CBFE00EB090101EB8C
:105A50000800DFF898A006B25446009817F02AF91B
:105A6000074600252AE0009821498068006850F820
:105A70002500834618F025FBF8B9584618F012FEA9
:105A800040BB0021584617F0CFFE18B3012821D0A3
:105A900002281FD003281DD00021584618F008FA0C
:105AA00058B9BBF81A10BBF81600081A401C00B20F
:105AB0004844A04200DB044624B26D1CBD42D2D350
:105AC000544504D004EB080000B2B04200DC30467C
:105AD000BDE8F88F0098BBF91A10B0F91600081A43
:105AE000411CA142E8DB0C46E6E7000001E0FFFFB5
:105AF000010004002DE9F84F00228046114619F0FC
:105B0000F1FC0021404617F0F7FE04460021404614
:105B100018F02AF820440FFA80FA0021404617F0C6
:105B2000DBFF20440FFA80F9404617F067FE00EBD8
:105B3000090101EB0A00DFF844B105B25C464046BA
:105B400017F0B8F807460021404617F08AFE0128F2
:105B50004FF0000644D078E0D8F8080048490068C3
:105B600050F82600009018F0ACFAC0BB009818F06E
:105B700099FD50B10098B8F91810B0F91400091A3D
:105B8000481CA0422ADB4C1C28E00021009817F09A
:105B90004BFE58B1032809D0062807D0082805D0A5
:105BA0000021009818F07EF958B118E00098B8F973
:105BB0001810B0F91400081A411CA1420EDB0C4663
:105BC0000CE00098143000900DF06AF85044A042A8
:105BD00004DB00980DF064F800EB0A0424B2761C94
:105BE000BE42B9D35C453BD004EB090033E000BFB3
:105BF000D8F808002249006850F82600009018F0F4
:105C000060FA08BB009818F04DFD60BB00210098B9
:105C100017F00AFE38B3012825D0042823D007281E
:105C200021D00021009818F043F968B90098143089
:105C300000900DF035F84844A04204DB00980DF0C8
:105C40002FF800EB090424B2761CBE42D0D35C4589
:105C500006D004EB0A0000B2584501D0A84200DC8F
:105C60002846BDE8F88F0098B0F91810B8F914006C
:105C7000091A481CA042E6DB4C1CE4E701E0FFFFE8
:105C8000010004002DE9F84F0C4683460AF0B0FAF3
:105C9000064600F07BFE6061400015F07BFB606013
:105CA0006069400015F076FB002541F69A79E060C6
:105CB0003AE036F91500DFF82881484533D100274E
:105CC000DFF820A11FE03946584616F0E1FF5146A3
:105CD000009018F0F6F9A8B900980AF015FB012811
:105CE00010D100980AF006FBA8420BD1009817F0DB
:105CF000A0F84146404501DA084602E0009817F056
:105D000098F880467F1C584616F0D4FFB842DAD87F
:105D1000B8F1000F03DBE16821F8158003E0E168CA
:105D2000002021F815006D1C6069A842C1D800252B
:105D30002F46284641F69B784B4615E036F9101061
:105D4000414504DB0D44A5F5F8559B3D0BE0994218
:105D500004D1E16831F81010394403E0E26822F818
:105D6000101039440FB2401C61698142E6D800210D
:105D7000584617F047FF8146584616F0EDFF01469A
:105D80006069C0F1010209FB0210C01B00B20028CB
:105D900000DA002000224FF0FF331146C44610E025
:105DA00036F9117067450BDBA7F5F8579B3F3AB200
:105DB00010FB02F3B3FBF5F3E76827F811300B464D
:105DC000491C67698F42EBD8002B07DBA91A4143B6
:105DD000B1FBF5F1401AE16821F81300BDE8F88F36
:105DE00001E0FFFF010006001CB50B880489234475
:105DF000ADF800304B8844892344ADF802308B88DD
:105E000004892344ADF80430C98843891944ADF8A6
:105E100006104369694698471CBD00002DE9FF4FF5
:105E200089B0C8781A9CC0070D46002801D0F748F1
:105E300000E0F748069001D0F64800E0F6480490EC
:105E400001D1F44800E0F4484FF010034FF00C0E7D
:105E50004FF0080BCDF814006288A1884FF0000ABB
:105E6000A2EB0101504609B25246D4F810C00FE02F
:105E700002EB8207E66803EB870816F808805FEA02
:105E8000C87809D00BEB8707F65B891B09B2521C57
:105E90009445EDD8002255E00EEB8707F65B3044C1
:105EA00000B2F4E7E66802EB820703EB870CB14629
:105EB000CDF820C016F80C60F60742D1002873D048
:105EC00091FBF0F80EEB8706079639F8066006FBA3
:105ED00008F60FFA86FCCDF800C04FF0060C0CEB6C
:105EE000870C042639F90C8006EB8706DDF800C024
:105EF00039F90660E04500DCC446664505DCDDF89E
:105F000000C04646E04500DD6646DDF800C001966B
:105F1000664506D0DDF820C04FF00108C24649F8BA
:105F20000C80D4F80C80019E0BEB870728F80760E3
:105F3000D4F80CC0079F3CF80770C01B891B00B247
:105F400009B2521C26699642ACD8BAF1000F83D12F
:105F50000021099817F09DFC012826D00027002079
:105F6000ADF80800ADF80C0003A902A8CDE90001C6
:105F70002089B4F9022003B2287818991EF0DAFFBC
:105F8000E878384207D0099816F000FFBDF80810ED
:105F90000844ADF808000B99099816F079FE0646FA
:105FA0004FF4FA6827E1FFE7FEE70127D7E79B49AF
:105FB000304618F086F800287ED10021304617F0D0
:105FC000C7FCE8B34FF000094846216910E000BF64
:105FD000E26800EB800352F82320B24207D1E16867
:105FE00000EB80020BEB820031F9009002E0401CD4
:105FF0008142EDD8E878C007708C02D040F4806010
:1060000001E040F40070708406F1140004998246A7
:106010008847484528D0304618F0EBFAB08AADF8EA
:106020000000F08AADF80200308BADF80400708BF0
:10603000ADF80600069A4946504690476A4600E089
:106040000EE02921304612F0D3F9304616F032FF27
:106050003246222112F0CCF9304618F0CAFA03E099
:10606000708C20F4C0607084002000906878012853
:1060700010D0022816D1059906F114008847B4F90A
:106080000010491C21F00101081A00EBD07040F308
:106090004F0006E0059906F1140088472188081A88
:1060A00000B20090E87838420AD0049906F1140052
:1060B0008847BDF8081000E095E0081AADF8080020
:1060C000304600216A2217F0F1FD0FFA80F93046C0
:1060D00000216B2217F0EAFD0FFA80FA304617F024
:1060E000A0FF0190304616F0A4FEC9F3413101290A
:1060F0000FD129F4C04141450BDCB1F57A7F01DDB8
:10610000C1F57A71019A5143642291FBF2F10FFAC1
:1061100081F9CAF3413101290ED12AF4C041414528
:106120000ADCB1F57A7F01DDC1F57A714143642063
:1061300091FBF0F00FFA80FAB18A1698179A411A7B
:1061400001EB0900F18A00B2521A02EB0A01EA7867
:1061500009B2D207002A02D0BDF9082000E0009A57
:1061600010440FFA80FA01D0009801E0BDF9080050
:1061700008440FFA80F95AEA09001BD0304618F09B
:1061800038FAB18A01EB0A00B082318B01EB0A00C8
:106190003083F18A01EB0900F082718B01EB090079
:1061A0007083304618F025FA00234A46514630469F
:1061B00018F0C6FAE87838420CD1049906F11400B8
:1061C000884719990844BDF80C100844BDF8081018
:1061D000084406E0BDF80C1019980844BDF80810F2
:1061E000081AADF80800E8780BAAC0F380010998F6
:1061F00009F0C4FE0646002E04D0DDE90B018842FA
:106200007FF4D5AE0DB0BDE8F08F0000292D010060
:106210001F2D0100C52C01006D2C0100010006009E
:106220002DE9F04F91B00E0005463FD02E8328682F
:1062300008B115F00DF906EB4600062101EB400010
:1062400015F08AF8286040B3022101EB46010144B1
:10625000E960042101EB86010144C5E90101012146
:106260000024012E1AD0F000083015F093F8814672
:1062700000EB860000F10408B00000B2A346ADF8C0
:106280001000C0F101028010ADF812B00FFA82FACE
:106290005C46CDF828B00690ABE0FEE7B422027071
:1062A000E8680480E8684180A868048011B0BDE80F
:1062B000F08F0027BDF81220BAF1000F07DC032190
:1062C00001EB42010AEB01000FFA80FA0CE0BDF885
:1062D00010100523521A03EB420202EB0A00491E7A
:1062E0000FFA80FAADF81010BDF81200401CADF89E
:1062F000120004A800F0E9F868B1BDF9100006A981
:10630000821041F827200AA900F0030041F8270075
:106310007F1C042FCEDB042F71D109990698884287
:1063200012D129F8140028F814B0DDE90A0101445B
:10633000DDE90C20104408446968085569680001CB
:106340000855641C24B252E00799884219D029F8F4
:10635000140028F814B06A680A9810556A68000199
:106360001055641C069A20B2521E29F8102028F8F5
:1063700010B0DDE90B120A440D99091D11446A6839
:106380002FE0089929F81400884228F814B0DDE9B4
:106390000A025946104412D06A6810556A68000112
:1063A0001055641C069A20B2521E29F8102028F8B5
:1063B0001010DDE90C12114408316A6811E00C9AE2
:1063C00010446A6810556A6800011055641C069AEA
:1063D00020B2521E29F8102028F810100D996A6872
:1063E0000C3111546A6809011154401C04B20BF1BC
:1063F000010B04A800F069F800287FF45AAF40F2BE
:10640000D32016FB00F109EB4402881232F9022C6A
:10641000824205D108EB440232F9022C82421AD0A2
:10642000A1EB8021B1F5007F03DC494341F3CF317B
:1064300006E0C1F58061494341F3CF31C1F10F015D
:1064400029F8140028F814006868015568680901E3
:106450000155641C24B2A01E0EE000BF38F81020C5
:1064600029F8142039F8102028F8142069680A5CEB
:106470000A55641C24B2401E0028EFDAEA680021A5
:10648000084611801BE0EA6822F81100AB6839F871
:10649000102023F811200AE0AE6839F9102036F8F0
:1064A0001130934200DA1A4626F81120401C38F9C0
:1064B00010208A4201D1A042EEDB491C09B2A04261
:1064C000E1DB484614F0B2FFF0E6B0F90210B0F993
:1064D0000000814201DC012070470020704700006D
:1064E00070B5084C050009D010342168002907D088
:1064F00008682060496828468847F6E70834F4E7CA
:1065000070BD0000D4F60120054A012120B1012808
:1065100005D19170FFF7E4BF51700020FAE7704792
:10652000D4F6012010B50BF031FC002010BD10B5E1
:106530000BF0A4FD002010BD0020704717B581B0FE
:10654000022A03D8BDF8080004B010BDBDF8083019
:10655000BDF80400C3F3C401C0F3C40421441F29DF
:1065600000D31F2161F3C7005907890E01EB533196
:1065700000F0070401EBC40101EB5031ADF8040059
:106580003F2900D33F21CC0864F3020061F34F3070
:10659000C3F30421C0F304231944ADF804001F29F8
:1065A00000D31F2161F30C20ADF80400FF2A07D0AF
:1065B000DDE901010EF015FA0090BDF80000C3E717
:1065C00080B2C1E717B581B0022A03D8BDF8080030
:1065D00004B010BDBDF80400BDF80810C0F3C4033A
:1065E000C1F3C40413FB04F35B0963F3C700C0F3F6
:1065F0000423C1F3042413FB04F35B0963F30C20AD
:1066000043079B0E4C07A40E03EB503304EB5131B0
:1066100013FB01F35B0A63F3020043079B0E03EBDA
:10662000503313FB01F1890961F34F30ADF80400D9
:10663000FF2A07D0DDE901010EF0D3F90090BDF883
:106640000000C5E780B2C3E717B581B0022A03D8BE
:10665000BDF8080004B010BDBDF80830BDF8040056
:10666000C3F3C401C0F3C404091B002900DC0021EA
:1066700061F3C7005907890E01EB533100F007049D
:1066800001EBC40101EB5031ADF80400002900DC3E
:106690000021CC0864F3020061F34F30C3F30421FE
:1066A000C0F30423C91AADF80400002900DC00215E
:1066B00061F30C20ADF80400FF2A07D0DDE90101E9
:1066C0000EF08FF90090BDF80000C3E780B2C1E77B
:1066D0000EB5164940F20220ADF80800D1E90001DC
:1066E000CDE900010022114668461EF03BF808B1D2
:1066F000FEF724FA99208DF8000000221146684622
:106700001EF030F808B1FEF719FA01208DF80000EC
:1067100003208DF80100002202A968461EF022F82D
:10672000002801D0FEF70AFA0EBD000020F2020098
:10673000F8B5044611F058FE0646204611F016FE44
:106740000546304616F0B6FB04462B2D34D00A2DF4
:1067500031D113F033FA10B1007901282BD06946FA
:10676000304616F00DFC94F82C0010F00C0F30465B
:106770002BD016F00BFB05460021204617F095F8AC
:106780000128BDF9000005EBD5711BD000EB6100BD
:1067900090FBF5F001B2002900DA0021608D4FF086
:1067A0000102884220461BD01BF080F800221C21E9
:1067B000204611F01DFEF8BD618DBDE8F8400022B5
:1067C0001BF074B8C0EB6100E2E716F0C5FABDF942
:1067D000021000EBD07201EB620191FBF0F0D9E7FF
:1067E0001BF064F8F8BD2DE9FF4F89B00446169EF2
:1067F000DDE919577000DDF86090DDF828A00FFA88
:1068000080FBB9F1040F22D0B9F1060F1FD0B9F106
:10681000050F5CD0B9F1140F56D1B4F90000B4F9EA
:106820000210CDF80CB006FB01030AEB4302009204
:10683000E2884FF00008511A491C0FFA81F9A1882B
:10684000081A401C0FFA80FA4FEA4A0B81E02046F2
:106850000CF018FA01460390384614F019FFB4F909
:106860000000B4F90280A18806FB0802081A401C47
:1068700000B2069040000AEB420A2E4602900CE05D
:1068800051463046029A14F003FE069808F10108BA
:10689000DA4406EB40060FFA88F8B4F906004045E2
:1068A000EEDAB9F1060F0FD100224EF20700ADF873
:1068B0000000114605E035F81130834200D17A54CA
:1068C000491C039B9942F6D30DB0BDE8F08FB4F993
:1068D0000010B4F9023006FB031000EB400202EB9B
:1068E0000A00A288511A491C0AB2B11A01EB4101EF
:1068F0000EB2E188C91A491C0CB2002317E000212E
:106900000DE090F802C007F801C010F801CB10F8B4
:10691000028B0CEB082C25F811C0491C09B29142DE
:10692000EFDB5B1C05EB4205174430441BB2A3426E
:10693000E5DBC9E75A462846009914F0A9FD0099FD
:10694000039805EB4A050844009008F101000FFA8E
:1069500080F8C845EEDBDDE90A014A000C9902FB2C
:106960000100B4F90010B4F9022006FB02110D1861
:10697000002408E052462946384614F089FD641C7C
:106980005744354424B24C45F4DB9DE701460020D2
:1069900041F6FF7200E0401C31F910309342FAD109
:1069A00070471CB5044690F8540000F0010088427E
:1069B0002DD094F8540011B140F0010001E020F016
:1069C000010084F8540004F1480168460CF02DF9E8
:1069D000606ABDF80010828A1144ADF80010BDF85D
:1069E0000210C08A0844ADF80200606ABDF80410C5
:1069F000808A0844ADF80400606ABDF80610C08AB9
:106A00000844ADF806006946204617F015FE1CBD87
:106A100008B5084611460DF03EFD0090BDF8000097
:106A200008BD2DE9F04F0746C87A89B015460E46D5
:106A3000022803D8012009B0BDE8F08F184632695A
:106A4000B168FCF7F1F8041EF5D0207D00F01F00BE
:106A500012F0D6FA4FF4807808B1062011E0207DBC
:106A600000F01F000E2806D014280AD012F0B8FA41
:106A700030B1052005E030884FF00E0930B902E052
:106A80000420814606E07088404503D000204FF086
:106A90000509A061226A22B12946384624F0D8FEB1
:106AA000B7E0A069E0B3294602A80CF088F8B6F96F
:106AB000003013B97088404529D0A88829886A8891
:106AC000401A401C01B2E88806F1040C801A401CF0
:106AD00002B27088CDE9000C02A8FBF7EFFFBDF809
:106AE000080029880844ADF80800BDF80A10688835
:106AF0000844ADF80A00BDF80C0029880844ADF838
:106B00000C00BDF80E1068880844ADF80E0002AA0B
:106B100004A8B968FBF7A6FD00287AD004A800E015
:106B20000DE0D7F80880B860CDF800902A463146CD
:106B30003846A3690EF04EFEC7F8088069E02A4681
:106B400004A8B968FBF78EFDE0B3BDF81400BDF8EA
:106B50001010401A401C0FFA80FB0BEB4B0014F096
:106B600019FC039004A901A8D7F808A00CF027F895
:106B7000012101A80CF0D3F8BDF91000B5F90010FF
:106B8000BDF91280401A0690B5F90200A8EB000585
:106B900036E001AA514607A8FBF764FD70B30398DD
:106BA000009006985B4601B22AB2204612F00AFE17
:106BB00001280ED0204612F05AFD039814F036FC3E
:106BC000204600E025E012F052FD0020C7F808A0A2
:106BD00031E707A8B860CDF8009001AA31463846E1
:106BE000039B0EF0F7FDBDF80600401CADF8060053
:106BF000BDF80A00401CADF80A006D1C08F1010840
:106C0000BDF916004045C4DAC7F808A0039814F08F
:106C10000DFC204612F02BFD0CE770B5054612F076
:106C2000CDFF0646286B1BF00FFB3168898B88422D
:106C300023D295F83C006C6A10F0030105D0642063
:106C4000012906D0022909D106E0002060F30F04D3
:106C500004E060F3174401E060F31F64304613F072
:106C600072F8214628460EF0C9F930B100221C21E5
:106C7000284611F0BDFB012803D11BF0EBFA286375
:106C8000012070BD2DE9F04FA1B0074614468A4699
:106C900004A80EF085FB4FF4A021384616F0CDFD78
:106CA0009DF81D1060F382018DF81D10A1882088C9
:106CB000091A491C09B201EBD1714E103044ADF8EC
:106CC0007000608800213044ADF87200384616F03C
:106CD0008BFE8146514608A815F020FE04A81090AE
:106CE0004FF4003015902D48099000200A9007F1CC
:106CF00030008346FCF772F84AE02079032843D13C
:106D0000208BADF81000208AADF812006079FD28C4
:106D100001D9484602E010FB09F0000A8DF81C007A
:106D20002568B5F92030E88B18440090D5E90512A4
:106D3000A06814F0F3FA8046B5F92030E88B1844C7
:106D40000090D5E90512E06814F0E8FA0546608B7A
:106D500008AA3044ADF85C001CA811901A211994BF
:106D6000384611F045FBA9B21FFA88F0CDE90001C1
:106D7000BDF85C301CAA04A950460EF001FB08AA1D
:106D80001B21384611F034FB21465846FCF723F806
:106D90000400B2D121B0BDE8F08F0000F4B80300C8
:106DA0002DE9F74FC878A0B00C4602287DD91146CE
:106DB00001A80BF04CFFB4F92000012829DD94F85C
:106DC0002200FD2825D3208818B394F82300BDF8AD
:106DD00004104008C0F380021144ADF80410BDF85F
:106DE0000610C0F340000844ADF8060094F82310E4
:106DF000BDF808004908C1F3C001401AADF8080009
:106E000094F82310BDF80A00C1F34001401AADF810
:106E10000A00209801A9826805A8FBF723FC002836
:106E200043D0E07B10F0070619D0E088ADF80000F1
:106E3000BDF800006189884200D1002601A80FF04A
:106E40001DFA07461C210EA8F9F75FFBA0788DF804
:106E50005100BDF80000ADF840001FB105E06068CA
:106E60000090E5E7208800B9EEB3E078FD2800D374
:106E7000FF208346BDF80800BDF80410401A401CEE
:106E80000FFA80FABDF80A00BDF80610401A401C3F
:106E900001B289465046CA4500DB0846B4F90050A5
:106EA000B5EB600F00DB451000E043E0BDF81810C3
:106EB000BDF81400081A401C0FFA80F84FF0FF309C
:106EC0001D9000200790002D00DC87B1404614F093
:106ED00061FA079000232A4601A916A80FF03AFC90
:106EE000002116A800E01CE00EF0E8FF1D90BDF8A0
:106EF0001400ADF80C00BDF81800ADF810000798AC
:106F0000119003A80E901390FF208DF850004A4670
:106F10005146A01D11F0B2FE040018D0022E0CD074
:106F200015E001A80E90E0788DF850000EA9209889
:106F30000FF0D5FE23B0BDE8F08FBDF91410A068A6
:106F400000EB4100BDF90410A0EB41000F90002FB1
:106F50007DD0BDF9165027E02FB2ADF80E70ADF818
:106F6000127042465946079814F032FBBDF91410CE
:106F700043463A4607980FF043F98DF84800012838
:106F800002D102208DF84800012E08D1BDF906106B
:106F9000A068691A00EB41000088ADF840000EA916
:106FA00020980FF09CFE6D1CBDF91A00A842D3DAA0
:106FB000B7E000BFBDF80600BDF9161038440FFA5F
:106FC00080F9BDF80A00C01B0FFA80FA494503DDBD
:106FD000BDF91A10514544DB42465946079814F052
:106FE000F7FABDF90C1043464A4607980FF008F926
:106FF0008DF84800012802D102208DF84800BDF923
:107000001610494513DCADF80E90ADF81290012E24
:1070100009D1BDF90620A168A9EB020001EB4000EF
:107020000088ADF840000EA920980FF058FEBDF979
:107030001A10514515DBADF80EA0ADF812A0012EC7
:107040000BD1BDF90600A268AAEB000000E009E040
:1070500002EB40000088ADF840000EA920980FF028
:107060003EFE7F1CAF42A5DBBDF80400ADF8780002
:10707000BDF80800ADF87C00BDF806002844ADF866
:107080007A00BDF80A00401BADF87E001EA80FF084
:10709000F5F8074630430CD001208DF84800BDF9C3
:1070A0000A008DF850B0A0EB0509BDF906000544B3
:1070B00035E0BDF806008DF850B02844ADF80E005C
:1070C000BDF80A000EA9401BADF812000020119077
:1070D00020980FF004FE24E06FB14246594607980D
:1070E00014F076FABDF9141043462AB207980FF04F
:1070F00087F88DF84800ADF80E50ADF81250012E0B
:1071000008D1BDF90600A168281A01EB40000088EB
:10711000ADF840000EA920980FF0E1FD6D1C4D4523
:10712000DADD079808B114F081F91D98401C05D0EC
:107130001D980FF0BBFB16A80FF084F8002C3FF44D
:10714000F9AE204611F094FDF4E62DE9F041064633
:10715000086992B015460C4600287DD0A07E022812
:107160007AD929460EA8B268FBF77CFA002873D0BA
:107170000EA8D6F80880B060206912F00DFD022834
:1071800006D06946206912F093FA012849D0C9E077
:10719000002741F6FF70CDE900700297D4E9041290
:1071A0003B4610A81BF070FA28460BF091FD0146F3
:1071B0002A88BDF9400001EBD17102EB610100EBBF
:1071C000D072A1EB62010844401EADF81000ADF88A
:1071D0000C1028460BF050FD01466A88BDF94200AC
:1071E00001EBD17102EB610100EBD072A1EB620106
:1071F0000844401EADF81200ADF80E1005A80EF0C0
:10720000ABFD60690590208BADF82000A07E8DF865
:107210002E00009703AA05A9304623690EF0FCFA58
:1072200080E005A80EF0DEFAA0788DF82000208B13
:10723000ADF81C00E07E8DF81E00A07E8DF81F00CA
:10724000207F4FF0FF3740B100996888ADF8060005
:1072500007EB515108445DE066E028460BF038FD2D
:10726000298800EBD07001EB60000099C1F38A21FE
:10727000A0EB5100ADF8040028460BF0FDFC698836
:1072800000EBD07001EB60010098A1EB9051C0F3CE
:107290008A22ADF80610BDF80430521E1A4407EBDE
:1072A0005050ADF808200844ADF80A0001AA05A91D
:1072B000304623690EF06EFA34E000992888C1F355
:1072C0008A21ADF80400491E084410E001AA05A96E
:1072D000304623690EF05EFA0098BDF80410C0F342
:1072E0008A200144ADF80410BDF808100844ADF838
:1072F0000800BDF90400B5F904108842E6DDBDF8C8
:107300000610009801EB5051ADF80610BDF80A10B8
:1073100001EB5050ADF80A00BDF90600B5F90610B2
:107320008842CADDC6F8088012B0BDE8F081F0B529
:10733000074691F8220087B016460C4602286BD902
:10734000208C002868D094F8230010F03E0F63D002
:10735000C00761D1B08831887288401A401C01B2E0
:10736000F088B4F90050801A401C00B2814200DA63
:107370000846B5EB600F00DD4510314604A80BF060
:1073800066FC94F82300BDF91020C0F344014807BF
:10739000B4F9200001D4284440421044ADF8100054
:1073A0000807BDF91420B4F9200001D42844404254
:1073B000101AADF8140094F82300BDF9121040081B
:1073C0008007B4F9200001D4284440420844ADF8B5
:1073D000120094F82300BDF916104008C007B4F954
:1073E000200001D128444042081AADF81600208C34
:1073F000281A00B2002800DA0020A27894F822109F
:10740000CDE90212E18BADF8041000902B4604AADE
:107410003146384600F002F807B0F0BD2DE9FF4FC5
:10742000A9B01D46DDE93879DDF8D88016460C464E
:10743000FF2F00D3FF2708460EF020FF2690284399
:1074400050EA080074D029982146826808A8FBF702
:1074500009F9002873D0BDF82400BDF82010401AA7
:10746000401C00B204901C210AA814F0E3F8049810
:1074700013F090FF0D904FF0FF302490002D0ADDA7
:1074800000232A46214615A80FF064F9002115A80B
:107490000EF014FD24900123424631461BA80FF044
:1074A00059F900211BA80EF009FD259001A80A90AA
:1074B0000F90BDF8DC008DF84070ADF830008DF80D
:1074C0004190B4F900002290B6F900304119994278
:1074D00000DC1946B4F904000FFA81F92190B6F9DD
:1074E0000410421B8A4200DB0A460FFA82F8B4F904
:1074F00002E0B6F902200EEB05009246504500DC92
:107500001046B4F906B007B2B6F90620ABEB050099
:10751000904200DB104600B20590A8EB0900401C29
:1075200000B22790D6450DDC01200CE000E006E01B
:10753000009732462146379B299800F0B8F92DB0C4
:10754000BDE8F08F00208246934501DB012000E07A
:10755000002083462698D8B3BDF82000ADF804007B
:10756000BDF82400ADF80800BDF9224022E000BFBC
:10757000BAF1000F01D1A7421BDCBBF1000F02D111
:107580000598A0421ADB25B2ADF80650ADF80A50B6
:1075900004990D9814F07CF8BDF920102A46049B3C
:1075A0000D980EF02DFE8DF838000AA929980FF0DD
:1075B00096FB641CBDF92600A042D9DA1BA80EF088
:1075C00041FE25980FF072F92498401C07D000E086
:1075D00009E015A80EF036FE24980FF067F90D9813
:1075E00013F024FFABE72298984201DC012000E071
:1075F000002013902198884201DB012100E0002146
:107600000120009013981291084000EA0A0010EA45
:107610000B0F04D02798322801DA002000900120B7
:1076200000998DF838001AEA010F0ED0ADF80490D9
:10763000ADF808806088ADF8060070880AA9401E81
:10764000ADF80A0029980FF04AFB00991BEA010FD8
:107650000ED0ADF80490ADF80880F0880AA9401C5F
:10766000ADF80600E088ADF80A0029980FF037FB66
:10767000139878B12088ADF804003088ADF8067012
:10768000401EADF808000598ADF80A000AA929982F
:107690000FF025FB129878B1B0880AA9401CADF80C
:1076A0000400A088ADF808000598ADF80670ADF8A4
:1076B0000A0029980FF013FB0098C0B1BDF924000F
:1076C000BDF92010A9F10102ADF80410904200DBD1
:1076D0001046ADF80800401A401C05B2002D70DDC0
:1076E000139850EA0A0066D0BDF9224061E0BDF867
:1076F0002000ADF80400BDF82400ADF80800B6F98C
:107700000200B4F90210401AA84200DB05460FFA45
:1077100085F8002533E06088284406B2E088401BE5
:1077200007B2BDF92200B04203DDBDF92600B84220
:1077300024DB04990D9813F0ABFFBDF90410324619
:10774000049B0D980EF05CFD8DF83800BDF9220009
:10775000B04207DCADF80660ADF80A600AA92998C6
:107760000FF0BDFABDF92600B84207DBADF8067090
:10777000ADF80A700AA929980FF0B1FA6D1C4545B9
:10778000C9DB8DE026B2ADF80660ADF80A60294687
:107790000D9813F07DFFBDF904102B4632460D986D
:1077A0000EF02EFD8DF838000AA929980FF097FAEF
:1077B000641CA742E6DC139850EA0B001DD0059C20
:1077C00016E01AE026B2ADF80660ADF80A60294668
:1077D0000D9813F05DFFBDF904102B4632460D984D
:1077E0000EF00EFD8DF838000AA929980FF077FAEF
:1077F000BDF92600641CA042E4DABDF9200008F1BE
:107800000101884200DC0846BDF82410ADF80400F0
:10781000081A401C05B2ADF80810002D40DD129882
:1078200050EA0A001BD0BDF9224016E026B2ADF89E
:107830000660ADF80A6029460D9813F029FFBDF9DE
:1078400004102B4632460D980EF0DAFC8DF8380005
:107850000AA929980FF043FA641CA742E6DC1298A3
:1078600050EA0B001CD0059C15E026B2ADF806606E
:10787000ADF80A6029460D9813F00AFFBDF904100F
:107880002B4632460D980EF0BBFC8DF838000AA945
:1078900029980FF024FABDF92600641CA042E4DA0E
:1078A0001BA80EF0CFFC25980FF000F88FE62DE90D
:1078B000FF478EB00C46824615461C2102A81A9E30
:1078C00013F0B8FECDF808D0BDF84400ADF81000B4
:1078D0008DF82060B4F90200B5F90210884201DC8D
:1078E000012700E00027B4F90600B5F90610884228
:1078F00001DB012600E00026B4F90000B5F9001014
:10790000884201DC012100E000218946B4F904101D
:10791000B5F90420914201DB012100E00021ADF81E
:107920000000A088ADF804006088ADF80200688807
:107930008846401EADF806001FB102A950460FF060
:10794000CEF9E888401CADF80200E088ADF80600EA
:107950001EB102A950460FF0C2F92088ADF8000010
:107960002888401EADF8040017B1B5F9020001E007
:10797000B4F90200ADF8020016B1B5F9060001E055
:10798000B4F90600ADF80600B9F1000F03D002A962
:1079900050460FF0A4F9A888401CADF80000A0885C
:1079A000ADF80400B8F1000F03D002A950460FF063
:1079B00096F912B0BDE8F0872DE9F04F8B46A2F59D
:1079C0007F4195B091460646FF3944D0746A208CB9
:1079D0008046984204D02384608C40F00400608488
:1079E0004FF4802A5146204616F0E1F907465146E9
:1079F000204616F003FA0546B7F90870304608F03D
:107A0000E6F9B0F916107A1909FB021105EBD570E9
:107A1000A1EB6000ADF8060038446D1E2844ADF8B7
:107A20000A00706A818AADF80410008BADF8080076
:107A300006A80EF05FFF06AA5146204616F090FCFD
:107A400001AA06A958460EF041FFA4F82080608CD8
:107A500020F00400608415B0BDE8F08F2DE9F043FC
:107A60000E46A2F57F4191B090460546FF3956D0AB
:107A70006C6A278C9F4204D02384608C40F0040001
:107A8000608406A80EF068F94FF4802906AA4946DA
:107A9000204616F0BBFB4946204616F0AFF9ADF87C
:107AA0002A00284608F093F9050038D00698B5F961
:107AB0001620B0F90810BDF92A0000EB010C08FBF4
:107AC0000C2200EBD073A2EB63021044491EADF808
:107AD0000A200844ADF80E00A08AADF80800208BFB
:107AE000ADF80C0002AA0EA8B168FAF7BBFD88B188
:107AF0000EA8D6F80880B060284612F093FD034621
:107B00000020009005F1140206A930460DF084FE15
:107B1000C6F808802784608C20F00400608411B0CF
:107B2000BDE8F0832DE9F0412E4D074668680DF061
:107B3000B9FB04463868C66B316B09B130468847DB
:107B4000686800680188408811FB00F0E16888429D
:107B500001D1012000E00020216859B1616849B1DC
:107B600028B107E068680068816A01B18847206928
:107B70000028F7D10120206169680968C9688A690D
:107B8000D20702D08969890700D40020606160694A
:107B900008B1012500E000253868416971B101692B
:107BA00011F0300F06D0490704D5D6E9001000F0D7
:107BB0001BF803E0D6E90021FEF716F9206800283B
:107BC0000BD06168002908D03A68127CAA43D2071A
:107BD00003D1A268824202D1A160BDE8F081A06019
:107BE000FBE70000480500202DE9F34F05468A48D1
:107BF00093B041680E683069820701D542076ED4A0
:107C0000C0F3011002281ED0012801D0032866D13C
:107C100000200F9008460DF045FB8346A988B5F972
:107C20000000EA88091A491C0CB2B5F90210521A70
:107C3000521C17B24FF4A052B2FBF4F3BB420FDA5E
:107C4000B2FBF4F20DE029463046149A00F0F0F849
:107C5000149A15B029463046BDE8F04FFEF7C4B877
:107C60003A460C920791317CC1F30111012905D0EC
:107C70006880611E0844E8800020BDE07188081A11
:107C8000401EE880001B401C6880F5E70C99A7EBBC
:107C90000A00884200DD084600B201900120CBF8BE
:107CA0001000BAF1000F20D1A7421EDB0194307CF6
:107CB000C0F30110032810D000202146149A00F0D0
:107CC000EAF8307CC0F30110012809D03188079808
:107CD000081A401EA880001B56E00120EDE797E03F
:107CE000079828800798204466E00F9820B94FF441
:107CF000205013F04FFB0F90307CC0F3011003288D
:107D00001BD000208646DDF850C001990F980A90DC
:107D100014FB01F0401E0D90601E48430E900020A1
:107D20008146884222DA0E9ABEF1000F02EB09006A
:107D300001D00D9A101A002212E00120E2E70A9BFE
:107D4000BEF1000F03EB400863460CF1020C1B88E8
:107D5000A8F8003001D0084400E0401A521C12B2CA
:107D6000A242ECDB09F1010000B2D9E7307CC0F39C
:107D7000011001281BD031880798091AA1EB0A00CD
:107D8000401EA8800199401A401C288001990AEBE6
:107D90000108B84513DBDBF81800C0070FD0DBF88B
:107DA000180080070BD50120CBF814000AE00798D3
:107DB0005044288001990844401EA880E6E700212D
:107DC000CBF814100F9828B1024629463046FEF72A
:107DD0000BF805E0149AF8E7B16A09B13046884714
:107DE000DBF810000028F7D101981499604301EBEB
:107DF000400014900FFA88F08246B842FFF646AF72
:107E00000F98002804D015B0BDE8F04F13F00EBB5A
:107E100015B0BDE8F08F00004805002030B504889B
:107E20000D88058010880880188810801C8030BD5F
:107E3000F8B58B880C884D881B1BCC885B1C641B99
:107E4000641C13FB04F300245B1E0DE002EB4306ED
:107E500002EB44073588ADF80050B7F800C0A6F82B
:107E600000C05B1E3D80641CA342EFD843884C8851
:107E7000CA881B1B5B1ECB8043889A1A521E4A80FD
:107E800003880C888A881B1B5B1E8B800088801AE5
:107E9000401E0880F8BD2DE9F0470C461746824683
:107EA000002601EBD47931E00025601C00EBD0788E
:107EB00027E0A01B401E01B2601B401E00B2BAF1B9
:107EC000000F0AD015FB041207EB420311FB04015B
:107ED00007EB410210FB046009E010FB046207EBB2
:107EE000420311FB040007EB400215FB041007EBF3
:107EF000400116FB045007EB4000FFF78FFF6D1C9D
:107F00002DB2B5EB680FD4DB761C36B2B6EB690F39
:107F1000CADBBDE8F08700002DE9F047A2B00546B6
:107F200010F062FA0446284610F026FA8246606A8B
:107F300012F078FB054694F85400C00777D004A8E7
:107F40000EF0D8FC4FF4E02904AA4946204616F06A
:107F500007FA04F1480101A80AF067FE606ABDF85B
:107F60000410828A1144ADF80410BDF80610C08ACE
:107F700001AA0844ADF80600606ABDF80810808ABE
:107F80000844ADF80800606ABDF80A10C08A0844C9
:107F9000ADF80A0004A950460EF098FC4946204668
:107FA00015F0C2FC06464946204615F0CBFD871960
:107FB0004946204615F068FE4FF000081D4906446A
:107FC000CDF87480CDF87880206D09682844884702
:107FD0000246206D41191DA813F05AFABDF804009D
:107FE00055223844ADF80400BDF80600414630443F
:107FF000ADF80600606A15F059FE054612A80DF0AE
:10800000ABFE12AA4946204616F000F99DF813006F
:10801000022804D8BDF85400A9B2884207D01DAB8D
:1080200001AA12A95046CDF800800DF0F5FB22B050
:10803000BDE8F087B80500202DE9F04FC3B0054634
:1080400030300E462690FAF711FF00287DD105F159
:10805000140241A8B168FAF705FB002875D041A8C1
:10806000D6F808A0B0603CA80DF005FF4FF4E0245E
:108070003CAA2146284616F017F92CA80EF03AFC27
:108080009DF8F8008DF8B30047F6FF70ADF8B0002A
:108090002146284615F000FF00EBD070471021461E
:1080A000284615F0F9FE00EBD0704FEA600B314620
:1080B000684614F033FC29A8069018A80490644878
:1080C000019005200D9402902698FAF787FEB6E0FD
:1080D0000A223CA929A813F0DBF938222CA918A8F8
:1080E00013F0D6F9E088ADF8A400E088ADF864009C
:1080F00012A809903FA80A90607BC00704D0B4F989
:108100000000B4F902100FE0B4F90410A1F5FE402C
:10811000FF3875D0A2883AAB2846A1680BF0A8FEBC
:10812000BDF9E800BDF9EA10AA8A10440FFA80F8F8
:10813000E88A08440FFA80F9C7B1BBF1000F15D0E7
:1081400001204090A8EB070000E07DE0ADF89C0026
:1081500008EB0700ADF8A000A9EB0B00ADF89E00FE
:1081600009EB0B00ADF8A20027A801E00020409029
:108170000390207B81072CD0C00702D0B5F91400F2
:1081800000E04046ADF84800ADF84A90217B4846F3
:10819000890702D5B5F9181000E04146ADF8FC108A
:1081A000ADF8FE006A461A21284610F021F93FABCF
:1081B00012AA29A930460DF051FE409820B127AAF5
:1081C00018A930460EF082FB6A461B21284610F0A3
:1081D0000FF9217B11F00C0F2DD04046ADF84880EF
:1081E000490702D5B5F9161000E04946ADF84A1026
:1081F000ADF8FC00207B000703D5B5F91A0001E0BB
:1082000019E04846ADF8FE006A461A21284610F0EB
:10821000EFF83FAB12AA29A930460DF01FFE409897
:1082200020B127AA18A930460EF050FB6A461B2140
:10823000284610F0DDF821462698FAF7CCFD040018
:108240007FF446AFC6F808A043B0BDE8F08F000049
:10825000BCB303002DE9F04F9FB0054610F0C4F801
:108260000446284610F088F81C90204615F0D9FEE8
:108270000546204614F0DDFD0146A08A05EBD572C7
:1082800000EB62000FFA80FBE08A01EBD17100EB9A
:1082900061000FFA80FA4FEA620806A80DF0EBFDC4
:1082A00006AA0021204615F0FFFF4FF41D7018FBB1
:1082B00000F042F2341190FBF1F0801CADF81A008E
:1082C00000263146204615F0C6FA054647F6FF79E6
:1082D00000234A4604F114010AA80EF03BFA0021DB
:1082E0000AA80DF0EBFD1B90A78AE28AADF80E20DC
:1082F000218BADF81010638B7819ADF80C00481B7A
:10830000ADF810005019ADF80E00581BADF8120072
:1083100001234A4603A910A80EF01CFA002110A858
:108320000DF0CCFD1D90BDF91A20A8EB050000272B
:10833000A0EB0209904439462046FCF75DFA09900B
:10834000BDF82400ADF81800300A00B205461AF056
:10835000D7F800FB08F00BEBE030ADF858002846EA
:108360001AF0C5F800FB08F00AEBE030ADF85A004F
:1083700028461AF0C5F800FB09F00BEBE030ADF829
:108380005C0028461AF0B3F800FB09F00AEBE03075
:10839000ADF85E0017AB16AA06A91C980DF05EFD9D
:1083A000FF1CBFB206F58766B7F5807FC3D90AA860
:1083B0000DF048FF10A80DF045FF1B980EF076FA5F
:1083C0001D980EF073FA1FB0BDE8F08F2DE9F04F45
:1083D00088468A68A7B0044600F1140124A8FAF779
:1083E00041F900287ED0D8F808001F9024A9C8F8C9
:1083F00008100021204615F09DFA05460021204670
:1084000015F0A6FB284400B220900021204615F06C
:1084100041FC284405B2204614F0B8FCB4F884109E
:10842000484340F30F201B90204614F095FCB4F80D
:108430008610484340F30F201D9018A80DF01BFD37
:1084400018AA0021204615F02FFF4146684614F077
:1084500065FA002618A80690701E0E90DFF8CCA1D1
:108460000D96CDE901A609966A461A2120460A967C
:108470000FF0BEFF20463122314615F017FC00F008
:10848000FF090021204615F055FA83462046332285
:10849000314615F00BFCC6B2204614F091FD239036
:1084A000204614F059FEB4F87E10E9B3E18A29445D
:1084B000081A00B21E90A08AADF84C00208BADF8CF
:1084C0005C000025B4F97E70B9F1020F40D9BBF110
:1084D000000F3DDDB00707D50021204615F0DAFB7F
:1084E00010B900E09FE00125F00731D000212046BF
:1084F00015F0C8FA60BB7F1E3FB229E01D9810FB43
:1085000005F1B4F87E006A46401E91FBF0F01E991A
:108510000844ADF84E00ADF85E000120CDE901A0A1
:1085200013A8099017A800E014E00A901A210E95EC
:1085300020460FF05DFF17AB13AA18A940460DF0B7
:108540008DFC6A461B2120460FF052FF6D1C2DB298
:10855000BD42D3DBB4F88000F0B3A18A2098002795
:1085600001442398081A00B21C90E08AADF84E002E
:10857000608BADF85E00B4F98050B9F1020F13D9E9
:10858000BBF1000F10DD700705D50021204615F066
:10859000DFFA00B90127300706D50021204615F083
:1085A00019FB08B96D1E2DB256460DF14C0B0DF19D
:1085B0005C094FF0020A26E01B9810FB07F1B4F8A3
:1085C00080006A46401E91FBF0F01C990844ADF80B
:1085D0004C00ADF85C0000E017E00E97CDE9016AB1
:1085E000CDE909B91A2120460FF002FF17AB13AAF3
:1085F00018A940460DF032FC6A461B2120460FF0B8
:10860000F7FE7F1C3FB2AF42D6DB4FF0FF300E903B
:10861000002009900A906A461B2120460FF0E8FED0
:108620001F98C8F8080027B0BDE8F08FBCB303005E
:108630002DE9F04F9DB083460FF098FE0646584650
:108640000FF0D2FE0446122E7ED0152E01D0182E29
:108650007BD115F0E6FC0390204614F0EAFB049071
:1086600020460021322215F021FB0546204600213C
:10867000122215F01BFB28440FFA80F82046002137
:10868000132215F013FB28440FFA80FA204600212C
:10869000102215F00BFB284407B2204600211122BE
:1086A00015F004FB2844618E0FFA80F901EB0800F5
:1086B000ADF86400A08E3844ADF8660094F8390037
:1086C00000F0030001287DD019A9E08ECDE900015A
:1086D000DDE90312B4F9303005A8FAF7EFF9BDF877
:1086E0001410A08A0844ADF81400BDF81610E08AF2
:1086F0000844ADF81600BDF81810A08A0844ADF87B
:108700001800BDF81A10E08A0844ADF81A0000BF3E
:1087100004F114010D461AA812910AF074FA05A981
:1087200028460AF070FA5946CB4814F09BFA012803
:1087300061D11AA912980AF066FA152E5BD1E08D64
:10874000002858D0A08D01E058E054E0002852D015
:10875000E08E00284FD058460FF00EFE064603A8C4
:1087600012990AF050FA204611F04CF9054694F897
:10877000390000F0030001287DD0BDF81800BDF8D5
:108780001410401ABDF80C100844ADF81000BDF8E4
:108790001A00BDF81610401ABDF80E1000EB0100CB
:1087A000BDF80C10ADF8120001EB0800ADF80C009C
:1087B000BDF80E00BDF810103844ADF80E00A1EB66
:1087C0000A0000E07FE0ADF81000BDF81210A1EB48
:1087D0000900ADF8120094F8381001F003000128E8
:1087E0006FD089076DD002286CD00023194630461F
:1087F000129A0CF0CFFF1DB0BDE8F08F58460FF075
:10880000F1FD054600780228F5D094F838004FF0C5
:108810000106C14389074ED000F0030102294AD066
:10882000C0F38400042801D0012844D1204600214F
:10883000462215F03BFAC0B2FF283CD1208ED0BBB7
:1088400058460FF0CFFD0746E08EB0F5807F34D05C
:10885000204614F0EEFA8046204615F0E2FB014671
:1088600004F13202E08ECDE900020023424603A863
:10887000FAF724F900E02BE0BDF80C00A18A0022F1
:108880000844ADF80C00BDF80E00E18A0844ADF8CC
:108890000E00BDF81000A18A0844ADF81000BDF824
:1088A0001200E18A0844ADF8120003A93846F9F72E
:1088B00001FF00289FD12E709DE7002204F11401D2
:1088C000F4E730E0B7E005A9204614F079FA1FE795
:1088D000B4F92C0029B2401ABDF80C10401C00EB72
:1088E000D070A1EB6001ADF80C10BDF81010BDF810
:1088F0000E20A1EB6000ADF81000B4F92E00291491
:10890000401A401C00EBD070A2EB6000ADF80E00E6
:10891000B4F92E00401ABDF81210401C00EBD070C4
:10892000A1EB60003CE711A80CF05CFF11AA00214C
:10893000204615F01AFCE08EADF84600208EADF80A
:108940004400608EADF84800A08EADF84A0094F85F
:108950003800BDF81410C0098DF8580001EB08006C
:10896000ADF85C00BDF81600BDF818103844ADF83D
:108970005E00A1EB0A00BDF81A10ADF86000A1EB93
:108980000900ADF86200B16817AA0F461046F9F762
:1089900069FE002890D017A8B060BDF90E10608D58
:1089A000084400B2ADF80200884203DDE18D401AB0
:1089B000ADF80200E18D80B20844401E31E000BFF6
:1089C000BDF90C10208D084400B2ADF800008842BB
:1089D00003DDA18D401AADF80000A18D80B20844DE
:1089E000401E0DE06A4611A93046636A0CF0D2FEC3
:1089F000BDF800002844ADF80000BDF8040028448C
:108A0000ADF80400BDF90010BDF910008142E9DBAA
:108A1000BDF8021028140144ADF80210BDF806108C
:108A20000844ADF80600BDF90210BDF912008142FC
:108A3000C6DBB760DFE60AA80DF08EF90AAA0021AE
:108A4000204615F0E3FB00200090636A0AA9304637
:108A5000129A0CF0E1FECEE654B203002DE9F04F7D
:108A6000D3B005460FF0C0FC044628460FF084FC46
:108A70004F9010A9204614F0A3F900216822204647
:108A800015F014F9054600216922204615F00EF96B
:108A9000BDF84010BDF84420491BADF840102A44F1
:108AA000BDF84230ADF844201B1ABDF84650511AAB
:108AB0002844ADF84600C01A401C0FFA80FAADF801
:108AC0004230D4E90A02491C0FFA81FBA2EB0008EC
:108AD000D34501DB012100E00021894600213E91C0
:108AE00094F85C1001F00301012908D1002806DA8E
:108AF000002A04DD216B814201D101203E9000213A
:108B0000204614F0FBFF21900021204615F03EF88E
:108B100036900021204615F08DF820900021204647
:108B200014F08CFF359004F1340010A913900AF072
:108B300058F8A18E21980844A086218F3698081AEB
:108B40002087E18E20980144E186618F3598081ACC
:108B500000B26087B9F1000F11D0E18E401A401CBD
:108B600000B204281DDAE18A0AEBDA726FF0010024
:108B700000EB62000844E086001D608711E0218F51
:108B8000A08E081A401C00B204280ADAA18A0BEB56
:108B9000DB726FF0010000EB62000844A086001D4C
:108BA0002087218FA08E081A401C00B21890618F78
:108BB000E08E081A401C00B22290B9F1000F05D0D7
:108BC00004F13805DC48189F139E04E004F13606D2
:108BD000DA48229F351D3A90A36D581C14D0216DA0
:108BE000A06A626D091A101A7943784391FBF8F173
:108BF00090FBF8F009B200B2401A5843C21700EBDC
:108C0000126001EB202005E0216BA06A081A78436E
:108C100090FBF8F000B21690A26C501C14D0216C9E
:108C2000A06A636C091A181A7943784391FBF8F12A
:108C300090FBF8F009B200B2401A5043C21700EBA3
:108C4000126001EB202005E0D4E90910081A7843EE
:108C500090FBF8F000B23F9020460021162215F05C
:108C600025F8C0B2B9F1000F28D001280AD130464A
:108C70002E4605463F98404200B23F90169840422B
:108C800000B2169031883F980844288031881698A1
:108C9000084430803E9888B3A06A4042784390FBF5
:108CA000F8F000B2B9F1000F15D031880844B5F9D9
:108CB000001000B281420BDD308039E029883F98F6
:108CC000081A401C308029881698081A2880E1E785
:108CD000318028802CE02988081A401CB6F9001041
:108CE00000B2814201DD288001E029803080B5F9A1
:108CF0000010B6F900008142EADB19E0FFE73A997B
:108D000013988847012813DC35A84F9913F006FE05
:108D10004FF4003042908A483690002037901398E4
:108D2000389035AA1A2120460FF062FB35AAFBE0E5
:108D300050A8139909F055FF68460DF0DBFD4FF47C
:108D400000356A462946204615F00AFB23A84F99AC
:108D500013F0E4FD4FF000087948CDE92408309580
:108D6000CDF89CD013982690454623AA1A21204678
:108D70000FF03EFB20460B22294614F097FF05B268
:108D800058465146D34500DB0846B5EB600F00DD81
:108D90004510229A1899BDF90000914200DB114656
:108DA000B0EB610F00DD4810B9F1000F02D0228F47
:108DB000A18E01E0628FE18E511A491C09B2B1EB1C
:108DC000400F18DD9DF8220012909DF803709DF869
:108DD0001A608DF803808DF81A808DF8228069461C
:108DE000139A4F980DF072FD12988DF803708DF85C
:108DF0001A608DF82200A18A219800230844ADF85A
:108E00003401218B36982A46081AADF83801E18AD8
:108E100020980844ADF83601618B3598081AADF8F2
:108E20003A014DA947A80DF095FC002147A80DF087
:108E300045F817909DF822608DF8228045468DF800
:108E4000368010A90EA809F0CCFEBDF83810219884
:108E5000084400B2ADF83800BDF83A20209911441A
:108E60000BB2ADF83A30BDF83C203699511A0AB22F
:108E7000ADF83C20BDF83E703599791A09B2ADF8CD
:108E80003E10B9F1000F12D0C81A401C00B20428DD
:108E90001FDAE18A0AEBDA726FF0010000EB620080
:108EA0000844ADF83A00001DADF83E0011E0101A7C
:108EB000401C00B204280CDAA18A0BEBDB726FF0C5
:108EC000010000EB62000844ADF83800001DADF869
:108ED0003C00BDF90020002319A813990DF03AFCBD
:108EE000002119A80CF0EAFF07460EAA69464F9820
:108EF0000DF0ECFC8DF822608DF803508DF81A50BF
:108F00008DF836506946139A4F980DF0DFFC19A87A
:108F10000DF098F947A80DF095F938460DF0C6FC0C
:108F200017980DF0C3FC23AA1B2120460FF060FA0E
:108F300053B0BDE8F08F0000B92C0100612C010096
:108F4000ACB103002DE9F047B8B005460FF04CFA7C
:108F5000044628460FF010FA82460021204614F0FD
:108F60008CFC01280CD00027204607F076FF054630
:108F700094F85C00002600F00300012802D008E00D
:108F80000127F1E7A06A002803DAE06A002800DD83
:108F9000012620468DB113F04CFF804626B1606A51
:108FA000002801DAA08E05E017B1B4F9340001E021
:108FB000B4F93800ADF894000BE015F032F88046B3
:108FC00026B1606A002801DA608F00E0E08EADF81B
:108FD000960012A80DF08EFC4FF4403612AA3146CE
:108FE000204615F0BDF92B46424625A920461CF027
:108FF00053F804F1680025A9814609F00DFE514699
:10900000684613F08BFC2F48019000200290CDE9B8
:109010000D6012AECDE90396204617F0C2FB022880
:1090200006D06A461A2120460FF0E2F94A463CE093
:10903000382212A927A812F02BFA6A461A212046D4
:109040000FF0D6F94A4612A950460DF03FFC6A4689
:109050001B2120460FF0CCF945B127B1B4F93800F7
:10906000ADF8940005E0B4F93400F9E7608FADF88D
:1090700096002B46424625A920461CF00DF804F127
:10908000600025A9054609F0C7FD382227A912A8C6
:1090900012F0FEF902A9012081E861000E906A46F3
:1090A0001A2120460FF0A4F92A4612A950460DF0C5
:1090B0000DFC6A461B2120460FF09AF938B0BDE836
:1090C000F0870000E0B203002DE9F0438FB00446C2
:1090D0000FF08AF9054613F0EDFE074603A80CF0E1
:1090E0003BFE03AA0021384615F090F820460FF009
:1090F00043F9816804460E4607F114020DA8F9F7FA
:10910000B1FA002850D00DA8A0600BA9384607F08E
:1091100005F9A88AADF80400E88AADF80600288BA6
:10912000ADF80800BDF82E00ADF80A0001AA1046FF
:10913000A168F9F797FA4FF000090DF1040878B12A
:10914000A7682846C4F8088011F06CFA034605F1B8
:10915000140203A92046CDF800900CF05DFBA76037
:10916000A88AADF80400BDF83200ADF80600288BDF
:10917000ADF80800688BADF80A0001AA1046A16896
:10918000F9F770FA78B1A7682846C4F8088011F09A
:1091900049FA034605F1140203A92046CDF80090D0
:1091A0000CF03AFBA760A6600FB0BDE8F0830000AA
:1091B0002DE9FF4F9FB0987B8A7E00F00F04DDF809
:1091C000B0E00E46032C18D0012C1DD0022C21D06B
:1091D000042C13D0082C7DD1A24D4FF0FF0A610161
:1091E000FD2A2FD2A04F3878904202D17868A04251
:1091F00025D00020DFF874821FE00424994D4FF041
:10920000F00A103D1021EBE7964D4FF0800A163D15
:109210000221E5E7934D4FF0C00A143D0421DFE73A
:1092200015F800C0BCF1FF0F1DD01CFB02FC4FEA7B
:109230001C2C00BF08F800C0401C8842F0D38B4DA6
:109240003A707C601F9AB3F80680188907902199BC
:10925000926808FB04F0B1F90010B2F900309942AD
:1092600003DB002302E09446E4E75B1A9B46B2F975
:10927000043001EB08079F4201DC414601E0591A26
:10928000491C89462199B2F90230B1F9021099427C
:1092900001DB002300E05B1A1193079BB2F9062063
:1092A0000B44934201DC079901E0511A491C0A91D1
:1092B000119941430BFB04100EEBD00100F007079E
:1092C0002C911C2115A812F0B5F9B089ADF85C00FD
:1092D000B07E00E0C2E08DF86C00B07FC0F3C20049
:1092E0008DF86D00F9F7F6FF0BF0E0FF079A08FB29
:1092F00002F1814200DC08461C9012F04BF8079006
:10930000189021980026018801EB0B02ADF80C2083
:109310000188A9F1010001442198ADF8101043889B
:10932000119818448B1AADF81200ADF80E00ADF884
:109330003810ADF834200A99ADF836005B1C0844AB
:109340001BB2ADF83A000B930DA80CF097FF1D90DF
:1093500003A815901A90C4F1080008EB0B010F90B8
:10936000A1EB090060431290119860E033462AFA9D
:1093700007F059464FF0000C1FE02C9ADDF83C80B6
:109380001278A8EB0708024032FA08F205D015F867
:109390000280079A02F8068002E0079A02F806C0E7
:1093A0000F9A974202D22744E04004E02C9A00270B
:1093B000521C50462C92491C761C4945DDDB1D98F9
:1093C00080B10798BDF912201844BDF90C108046F1
:1093D0000B9B0CF015FF8DF8640018B940460B99F3
:1093E00012F028F9A9EB0B0081191C98814205D2D3
:1093F000BDF81200401CADF812000EE002208DF8FE
:10940000640015A91F980DF06AFCBDF81200401CFD
:10941000ADF80E00ADF81200002612982C993844D1
:1094200001EBD00100F0070701982C91401C0A992C
:10943000019088429ADBBDF90E10BDF912008142FD
:1094400009D0401EADF8120002208DF8640015A965
:109450001F980DF044FC079811F0E8FF23B0BDE819
:10946000F08F000022BA030004070020C419022074
:109470002DE9F04F8346B1F902000C46401E411021
:1094800000F001004618B2F90050B3F9000089B0AD
:10949000854200DA2846ADF80000B2F90000B3F9C1
:1094A0000030984200DC1846401EADF80400508899
:1094B000801BADF8020050880844ADF806006946EC
:1094C0000846DBF80820F9F7CDF800281FD0E0881F
:1094D00018B1A08808B1012700E0002701256846DF
:1094E0000CF0CCFE00B907B100251C2102A812F037
:1094F000A1F8CDF808D02088ADF81000207A6E468B
:109500008DF8200035B102A958460DF0E8FB09B0EE
:10951000BDE8F08FBDF80410BDF90000BDF906806C
:10952000091A491C0DB2BDF80210ADF806104FF033
:10953000000A47B1B4F90610B4F90420114490FBB5
:10954000F1F201FB120A284611F024FF079605905C
:109550008146BDF902603EE02946484612F098F87F
:10956000BDF900102B4632B248460CF049FE8DF88A
:1095700018000FB300B3002150460B4617E000BFA0
:10958000B4F90420824205DB121A1144104409B2D6
:1095900000B208E0B4F906C06244824201DC002057
:1095A00001E009F80130491C401C09B200B2A9428F
:1095B000E6DB02208DF8180002A958460DF08FFB5B
:1095C000BDF80200401CADF80200BDF80600401CCA
:1095D000ADF80600761C4645BEDD484611F026FF74
:1095E00095E700002DE9FF4FB2F90240B3F90250B0
:1095F000C5B0AC4208DA128864F31F4062F30F0072
:1096000065F31F411A8807E01B8865F31F40128825
:1096100064F31F4163F30F0062F30F010FFA81F946
:1096200004B20514A9EB04064FEA214AAAEB050788
:109630000391002E01DD314600E07142002F01DD73
:10964000384600E07842814201DD012000E0002040
:1096500015904698B0F90210159858B1002F01DD09
:10966000384600E078424201002E01DD30460CE031
:1096700070420AE0002E01DD304600E070424201F7
:10968000002F01DD384600E0784292FBF0F0AB4A53
:10969000105C10FB01F03F30C0114FEA600800F091
:1096A000010202EB080B49464C4500DA2146A1EBCA
:1096B0000001ADF8581001DD214600E049460144A3
:1096C000ADF85C105146554500DA2946A1EB000182
:1096D000ADF85A1001DD294600E051460844ADF8C6
:1096E0005E00459816A982680846F8F7BBFF002877
:1096F0007ED01598002100287BD0002E16DDAAEB25
:10970000080000B2CDE90001A5EB080002B24B460B
:10971000214620A80CF056FE0AEB0B00012100B2F6
:10972000CDE900014B4605EB0B0015E00AEB0B0001
:1097300000B2CDE9000105EB0B0002B24B46214619
:1097400020A80CF03FFEAAEB0800012100B2CDE9F1
:1097500000014B46A5EB080002B221460AA80CF016
:1097600031FE002120A80CF0A9FB189000210AA8C6
:109770000CF0A4FB159046984FF0FF39C846407A8C
:10978000C00623D4A819032100B2CDE90001E01BD3
:1097900003B22A4621462BA80CF014FE039902209E
:1097A0000A14911909B2CDE90010039801B2C81B3F
:1097B00003B236A80CF006FE00212BA80CF07EFBAD
:1097C0008146002136A80CF079FB8046BDF85C008C
:1097D000BDF85810401A401C04B2F9F77BFD0BF09D
:1097E00065FD054616A809F04DFAA84206D201E02B
:1097F000A1E027E016A809F045FA0546AA46284642
:1098000011F0C8FD8346BDF95E70BDF85A00ADF891
:109810005E0000255146584611F03AFF1C2119A858
:1098200011F008FF16A9199146980088ADF86C0050
:109830004698BDF95A60007A8DF87C00CDF870B07A
:109840001E9145E009EB0B00CDE900A103B204EB4A
:109850000B0001B22A4620A80CF0B4FD0121A9EBAF
:109860000800CDE900A103B2A4EB080001B22A462A
:1098700074E700BFBDF958100BEB0500234632B268
:1098800007900CF0BDFC8DF8740018B921460798BC
:1098900011F0D0FE25442919514505D2BDF85E00CE
:1098A000401CADF85E0012E002208DF8740019A98A
:1098B00045980DF014FABDF85E000025401CADF887
:1098C0005A00ADF85E005146584611F0E1FE761C94
:1098D000BE42CFDDBDF95A10BDF95E00814209D00C
:1098E000401EADF85E0002208DF8740019A945985D
:1098F0000DF0F5F9584611F099FD20A80CF0A2FCE6
:109900000AA80CF09FFCB9F1FF3F02D02BA80CF085
:1099100099FCB8F1FF3F02D036A80CF093FC1898E0
:109920000CF0C4FF15980CF0C1FF48460CF0BEFFC8
:1099300040460CF0BBFF49B0BDE8F08F22BB0300EE
:109940002DE9F04F8346B1F902000C46401E41104C
:1099500000F00100158889B00844281AADF800000D
:1099600010880844ADF80400B2F90210B3F90200FF
:10997000814200DA0846ADF80200B2F90200B3F9FC
:109980000210884200DC0846401EADF80600694619
:109990000846DBF80820F8F765FE00281FD0E088AD
:1099A00018B1A08808B1012600E00026012768460A
:1099B0000CF064FC00B906B100271C2102A811F0CC
:1099C00039FECDF808D02088ADF81000207A6D4619
:1099D0008DF8200037B102A958460DF080F909B082
:1099E000BDE8F08FBDF80400BDF80010BDF90670A9
:1099F000401A401C0FFA80F9BDF80200ADF80600CD
:109A0000484611F0C7FC824605900795002056B1E4
:109A1000B4F90600B4F904100844BDF9021091FB32
:109A2000F0F200FB12108046BDF9025031E04946C9
:109A3000504611F02DFEBDF900104B462AB250469B
:109A40000CF0DEFB8DF81800A6B178B1B4F9041063
:109A5000414502DA00208DF81800B4F90600B4F987
:109A600004100144414501DC4FF0000808F10100F9
:109A70000FFA80F802A958460DF031F9BDF802003E
:109A8000401CADF80200BDF80600401CADF8060011
:109A90006D1CBD42CBDD504611F0C8FC9FE77CB584
:109AA00005460EF0A1FC446A28460EF065FC626A89
:109AB0000546816868461432F8F7D4FD002835D091
:109AC000AE68C5F808D094F83C00800621D5628FB6
:109AD000E08E824208D1212329462046FDF76CFF03
:109AE0002046628F21231DE0202329462046FDF7D2
:109AF00063FF2046628F20232946FDF7AFFF2046F3
:109B0000E28E01232946FDF757FF2046E28E01230E
:109B100008E02046628F20232946FDF74DFF628F23
:109B2000204620232946FDF799FFAE607CBD00004A
:109B30002DE9F04FD5B005460EF056FC0446008ED8
:109B400000287DD028460EF017FC4F90608C49A964
:109B500040F004006084204613F032F90025278C81
:109B60002584608CA94640F004012E46C8466184D5
:109B700033A80CF0BFFE41A80CF0EEF84FF4A02A79
:109B800033AA5146204614F0EBFB41AA5146204629
:109B900014F03CFB608C002120F00400608420461F
:109BA000278414F04DF853900021204613F04CFF09
:109BB00052900021204613F0A7FF5190002120462B
:109BC00013F0EAFF509020A84F9912F0A7FEB54875
:109BD000CDF8B4A0CDE9210812A824900AA82590B8
:109BE00054E1761CB6B2606AAFA150F82600F6F7D1
:109BF000B6FC0028F5D0E06A30F81500C0F3C001CB
:109C0000002974D18846C0F3C01109B14FF0010892
:109C1000C0F3401010B148F0800014E0A08EA842BC
:109C200012D1B80601D548F02008B80701D548F090
:109C30000208780701D548F00408380704D500E089
:109C40002CE148F008008046A06A00EBC50103A89B
:109C500008F0D0FFBDF80C10BDF82401B8F1000FDA
:109C60000144ADF80C10BDF80E20BDF826110A44D1
:109C7000ADF80E20BDF810201044ADF81000BDF86E
:109C800012000844ADF8120026D0A4F82080608CA1
:109C900040F00401618412A80CF02CFE0AA80CF01C
:109CA0005BF812AA5146204614F05AFB0AAA514604
:109CB000204614F0ABFA2784608C20F00401618404
:109CC000E06A30F81500C0F3003000289DF8450028
:109CD0000ED040F001000DE0382233A912A811F097
:109CE000D7FB202241A90AA811F0D2FBE8E7C9E07E
:109CF00020F001008DF8450003A8239020AA1A2126
:109D00002E9520460EF074FB9DF86B004108C906A5
:109D10003CD520F03E001E308DF86B00B4F91430B5
:109D20005199BDF90C2019448A4203D120F0080052
:109D30008DF86B00B4F918205098BDF91010101A66
:109D4000814205D19DF86B0020F010008DF86B006A
:109D5000B4F916205398BDF90E101044814205D174
:109D60009DF86B0020F004008DF86B00B4F91A2008
:109D70005298BDF91210101A814207D19DF86B005C
:109D80008108490061F345008DF86B00BDF81210A1
:109D9000BDF90E00091A491C0FFA81FB5FEA8861C0
:109DA00008D5E16A31F81510890503D5A0EB0B0041
:109DB000ADF80E0003AA12A94F980CF087FD606A57
:109DC000BDF93C30BDF93A1050F826000890BDF8B6
:109DD0002801BDF824C10A9AA0EB0C00401C00B277
:109DE000CDE900109DF845C0CDF808C054A80899E9
:109DF00018F04AFCBDF81010BDF80C00BDF9503148
:109E0000091A491C09B2C91A01EBD17100EB6100B2
:109E1000ADF80C00BDF81210BDF80EC0BDF952210E
:109E2000A1EB0C01491C09B2891A01EBD1710CEBB1
:109E3000610109B21844ADF81000881802B2ADF8FB
:109E40000E10ADF812205FEA88600ED5E06A30F897
:109E50001500800509D50BEBDB70A1EB6001A2EBCF
:109E60006000ADF80E10ADF81200CDF8009003AA16
:109E70000AA9089B4F980BF0CFFC20AA1B21204673
:109E80000EF0B6FA6D1C761CADB2B6B2208EA842AA
:109E90003FF6A9AE608C20F00400608455B0BDE8A8
:109EA000F08F0000E4B103000A0000002DE9F04F3C
:109EB000A7B005460EF098FA044628460EF05CFA64
:109EC00022900021204613F023FD05460021122296
:109ED000204613F0EBFE28440FFA80FB00211322EA
:109EE000204613F0E3FE28440FFA80FA00212046B2
:109EF00013F0B2FE28440FFA80F918A80BF02CFFDB
:109F000018AA4FF40031204614F080F9A06A08B175
:109F1000179009E0802011F03DFA054601468022A5
:109F200020460DF0FDFF179594F83C00002700F047
:109F30000F00012800D1012720460021162213F02E
:109F4000B5FEC0B2012800D10127E06A002868D020
:109F50000FF022FE804602280DD002A9E06A0FF021
:109F6000A7FB01281BD04FF0FF363546E7B1A18A89
:109F700001EB0B001CE0BDF972009DF87D2041F65D
:109F8000FF718DE80700BDF97430189A15A8E16AD1
:109F900018F07AFBBDF95460BDF95650E6E7029817
:109FA000C0F38A26450DE1E7218BA1EB0A00801B57
:109FB000711EADF814000844ADF81800B8F1020F96
:109FC0005DD0204612F035FF401BE18A00EBD070D7
:109FD00001EB6000ADF81600691E0844ADF81A00E8
:109FE00011A80BF0FFFB4FF4003811AA41462046A0
:109FF00014F0BBF806EBD6704010ADF8480005EB46
:10A00000D5704010ADF84A0020466D22414613F04D
:10A010004DFEADF8440005AA11A9E36A22980BF0A1
:10A02000B9FB09A80BF098FE09AA0021204614F0FC
:10A03000EDF8BDF936009DF8412041F6FF718DE83D
:10A040000700BDF9383007A8099A179918F01CFBCA
:10A05000E18A01EB0900BDF81E10ADF80E000844BE
:10A06000ADF81200E06AE0B13FB3218BA1EB0A002A
:10A07000BDF81C10B0EB0100ADF80C0024E0E18A43
:10A080006D1E01EB0900ADF816002844ADF81A006A
:10A090000020009005AA18A9E36A22980BF0BCFBE7
:10A0A000BFE7204613F0BDFFBDF91C10A28A401A7D
:10A0B00000EBD07002EB6000DEE7A18A01EB0B0041
:10A0C000BDF81C10ADF80C000844ADF810000020DD
:10A0D000009003AA09A9179B22980BF09DFBA06A88
:10A0E000002802D1179811F0A1F927B0BDE8F08F30
:10A0F0002DE9F04798B005460EF076F9044628465B
:10A100000EF03AF9064609A9204612F0F7FD94F838
:10A1100048000025C10600D50125800601D545F07F
:10A1200002050021204613F0A5FEA0F51C51D139EF
:10A1300004D1608C400501D445F004050BA80BF058
:10A140000BFEB4F84400ADF84200B4F84600ADF898
:10A1500044008DF849500BAA0021204614F056F80F
:10A160009DF848004FF0010808B98DF84880E06B71
:10A170000C90206C0D900C994FF6FF7081421ED010
:10A180000D9981421BD04FF480292746552249461C
:10A19000204613F08BFD024649463846F8F7E1FEAB
:10A1A0000090BDF80000ADF83A0020462022494654
:10A1B00013F07CFD0090BDF80000ADF83C0094F871
:10A1C000480041F6FF7A00F00700022801D003287A
:10A1D0001ED19DF84800022801D0032818D1BDF9EE
:10A1E0003E10CDE9001A0295BDF940300B9A16A831
:10A1F000616A18F049FABDF82800BDF82410401A29
:10A20000401CBDF9581000B2884201DA8DF8488030
:10A2100094F8480004F1300700F00700032809D043
:10A22000BDF82A00BDF82610401A401C00B2B0F557
:10A23000806F00DA002709A914A8B268F8F712FAAB
:10A2400000287DD094F8480040070BD1204612F03A
:10A2500083FF404202B2002109A808F04CFD608B48
:10A26000ADF82A0094F848000DF1500900F00700FD
:10A27000022813D0032811D0009709AA0BA9304651
:10A28000636A0BF0C9FAB068C6F80890804694F883
:10A29000480000F0070003280FD05FE0D6F80880E0
:10A2A000C6F80890009709AA0BA93046636A0BF01C
:10A2B000B3FA4046C6F80880E6E7BDF93E10CDE99E
:10A2C000001A0295BDF940300B9A06A8616A18F091
:10A2D000DBF9BDF82800BDF82410401A401CBDF978
:10A2E000181000B2884219DA202211460B980EF09D
:10A2F00024F9B4F84410BDF8182000EB40001144D4
:10A300000844ADF84200B4F84600ADF844000097A8
:10A3100009AA0BA93046636A0BF07EFABDF82A0041
:10A32000BDF82610401A401C01B2BDF91A00814246
:10A3300014DAB4F84410ADF842100B99098900E022
:10A340000EE0B4F84620009710440844ADF84400ED
:10A3500009AA0BA93046636A0BF05EFAC6F80880BA
:10A3600018B0BDE8F0872DE9F04397B007460DF02F
:10A37000FDFF054638460EF037F804464FF48026B8
:10A38000152D7ED0182D7DD138460DF0F5FF0546F0
:10A3900007A80BF0E1FC07AA3146204613F036FF70
:10A3A00013A9204605F0BAFF13AA15A8A968F8F763
:10A3B00059F900287ED0204605F010FD8146204640
:10A3C00013F02FFE0646484610F02CF9BDF92E106A
:10A3D000CDE90016022202920146BDF9303005A8EF
:10A3E000079A18F051F9204612F023FDB4F916101F
:10A3F00000EBD076B9F9160001EB6601471A484622
:10A4000012F017FDB90391FBF0F70021204613F07D
:10A41000D4FC0799B0F90800B1F90810081A00EB4C
:10A42000D070BDF816104010091A09B2ADF8161018
:10A43000E28A794302EB660202EBA1310F1A002196
:10A44000204613F06BFA804620460021122213F0BA
:10A450002DFC064620460021132213F027FCA28A79
:10A4600006EB08011144ADF84010ADF84270218BA5
:10A47000081AA0EB0800ADF84400BDF816003844F7
:10A4800001E01AE016E0ADF846009DF8390040F012
:10A4900002008DF8390015A8AC68A860484610F095
:10A4A000C1F803460020009010AA07A928460BF027
:10A4B000B3F9AC6017B0BDE8F08338460DF05CFF2F
:10A4C000054610A9204605F029FF68460CF012FA4F
:10A4D0006A463146204613F043FF10AA69462846D3
:10A4E0000CF0F4F9E6E72DE9F043ABB005460DF0CA
:10A4F0007BFF044628460DF03FFF814600212046A1
:10A5000013F014FB07460021204613F057FB0646C4
:10A510000021204613F0ACFB05460021204613F035
:10A52000A5FAA18AE28AADF88A20238BADF88C3097
:10A53000B4F81AC03944ADF88810991BADF88C10E6
:10A54000ACEB00005119ADF88E00ADF88A1006A8EA
:10A550000CF0D0F906AA4FF40031204613F000FFAA
:10A5600022AA06A948460CF0B1F9204612F061FC77
:10A570000546208BA18A411A491C481B06B2606A15
:10A58000411C06D07043C11700EB116040F30F2748
:10A5900008E0204613F040F910F0010F01D03746D3
:10A5A00000E0002720460021162213F07FFBC0B2F6
:10A5B000012801D1F01B07B2A08A3844ADF8000091
:10A5C0002844ADF80400E08AADF80200608BADF8D5
:10A5D00006004FF440373946204613F0A7FA0646E6
:10A5E0003946204613F0EAFA80463946204613F0F1
:10A5F0003FFB05463946204613F038FABDF80010F7
:10A60000BDF80420891BADF8001002EB0801ADF87D
:10A610000410BDF80210491BADF80210BDF8061079
:10A620000844ADF8060014A80CF064F914AA3946E1
:10A63000204613F095FE6A4614A948460CF046F9E8
:10A640002BB0BDE8F08300002DE9F04FE1B00546E6
:10A650000DF0CAFE044628460DF08EFE8246826842
:10A6600004F1140130A8F7F7FDFF00287ED0DAF8D6
:10A6700008000F9030A8CAF80800204600213222B6
:10A6800013F014FB00B257900021204613F0F6FAA5
:10A690005B900021204613F0EFF95D9000212046E9
:10A6A00013F04AFA5A900021204613F08DFA59907F
:10A6B000208C002609902684608C40F00400608481
:10A6C00022A80CF017F94FF4A02522AA294620460B
:10A6D00013F046FE32A80BF03FFB32AA2946204673
:10A6E00013F094FD09982084608C002720F004006A
:10A6F0006084204612F03EFD0146E28A5B981044D9
:10A70000411A57980844401EADF81600204612F032
:10A710002AFD58900021204613F0B5F8012800D0FA
:10A7200000208346514642A812F0F8F84FF4A020CA
:10A730004F90EB4843900020449014A846903AA8CC
:10A740004790002089E0E06A30F91910BDF8160042
:10A750005491401C00B2491E0144ADF81200ADF8FE
:10A760001610BDF9C61088427CDC00E07DE0BBF12C
:10A77000000F0AD0218B5998091A5898091A57982E
:10A78000081A401EADF8100009E0A18A5A98014449
:10A790005898091A57980844401EADF8140000252F
:10A7A00055E000205590A06A50F8270008B10078C5
:10A7B0005590BBF1000F0CD0BDF81000401EADF855
:10A7C0001400216B31F81510401A401CADF8100030
:10A7D0000BE0BDF81400401CADF81000216B31F8FF
:10A7E00015100844401EADF8140000261DE0A06AB4
:10A7F000B91950F82100E8B10078C0071AD0206BD1
:10A80000A919022202EB4101405EBBF1000F05D005
:10A81000BDF81010081AADF8100004E0BDF81410CF
:10A820000844ADF81400761CB6B2A08C7119401E15
:10A830008142DCDBBDF91600BDF9C210884217DA8F
:10A84000B819401C87B2A81980B2401C85B2A08CF0
:10A85000A842A6D809F1010080B2E18C81464945A1
:10A860003FF671AF0F99CAF8081061B0BDE8F08FDC
:10A87000BDF91020ADF82820BDF91280ADF82A806E
:10A88000BDF91410ADF82C10ADF82E0086469DF8D9
:10A89000AB00C0F3440043070DD5B4F914C05A9B74
:10A8A00063449A4207DDBDF9A83003EBD373A2EBF2
:10A8B0006302ADF8282082070DD5B4F916305B9AF3
:10A8C0001A44904507DDBDF9A82002EBD272A8EB2F
:10A8D0006202ADF82A20020711D5B4F91830599A4E
:10A8E0009A1A521E91420ADABDF9A82002F0010319
:10A8F00002EBD27203EB62021144ADF82C10C007D8
:10A9000012D0B4F91A205D98101A401E86450BDA51
:10A91000BDF9A80000F0010100EBD07001EB60016F
:10A9200001EB0E00ADF82E00E28E00214A457DD1EC
:10A93000A08EA8427AD1208C420602D4820600D58D
:10A940002021820701D541F00201420701D541F0E3
:10A950000401000701D541F00801002966D02184D7
:10A96000608C40F00401618414A80BF0C3FF3AA886
:10A970000BF0F2F94FF4A02814AA4146204613F038
:10A98000EFFC3AAA4146204613F040FC0998208487
:10A99000608C20F0040161840AA84590A18C42AA31
:10A9A00009FB015050901A2120460DF021FD0AAA02
:10A9B00014A950460BF08AFFA06A50F8270000281F
:10A9C0007ED04FF4A0284146204613F0B5F80C90F5
:10A9D0004146204613F0F8F812904146204613F005
:10A9E0004DF902904146204613F046F8BDF810306C
:10A9F0000C9ABDF812C01A440FFA82F8BDF8143050
:10AA0000129AADF840809A1A13B2ADF84430029A07
:10AA100001466244ADF84220BDF816200020511ACC
:10AA2000ADF846105599C1F3400100E018E05E9181
:10AA300001B10220A3EB0801491CBDF9FA2009B2BB
:10AA40000092CDE90110A06ABDF9FC30329A50F8AD
:10AA500027105CA8491C17F017FE5E9858B11FE03C
:10AA6000382222A914A810F013FD202232A93AA8F6
:10AA700010F00EFD90E75498BDF81210BDF9722148
:10AA800000EBD07001EB600302EBD272401000EBE0
:10AA90006200A3EB62030844ADF84230ADF8460013
:10AAA00004AA30A95FA8F7F7DDFD48B15FA900202F
:10AAB000CAF808100090A06A10AA50F8273000E0E9
:10AAC00007E03AA950465B1C0AF0A6FE30A9CAF876
:10AAD000081042AA1B2120460DF08AFCB0E60000B7
:10AAE00018B303002DE9F04F8B4607469088118874
:10AAF000A9B0401A401C00B200EBD0704610881973
:10AB0000ADF8780050883044ADF87A0020A80BF0FA
:10AB1000B2F94FF4A02420AA2146384613F0C4FB12
:10AB200018A80AF05FFE18AA2146384613F01DFB4C
:10AB30000021384612F058FF8246594602A811F00B
:10AB4000EDFE604803901EA80B9007F130002490A2
:10AB5000F8F744F9AFE0256813942079012801D073
:10AB6000A0B3A4E0B5F92030E88B18440090D5E9F3
:10AB70000512E06810F0D2FBA98B628A00B2114482
:10AB80008D19804617F0BCFC10FB05F147F6FF79E4
:10AB900091FBF9F0BDF87A100844ADF89A004046F0
:10ABA00017F0A9FC10FB05F191FBF9F0BDF8781046
:10ABB0000844ADF89800A08AADF88000208AADF86E
:10ABC00082006079FD2802D9504603E016E010FBB0
:10ABD0000AF0000A8DF888000120109020A8089043
:10ABE00026A80C9002AA1A2138460DF001FC26ABCB
:10ABF0001EAA20A958460BF031F953E02069E0B3B2
:10AC0000B5F92030E88B18440090D5E90512E068CA
:10AC100010F084FB054625A920690EF049FDBDF81A
:10AC20007800A18A411AADF85810BDF87A00E28A7E
:10AC3000801AADF85A00259AC2F38A235B1E194484
:10AC4000ADF85C104FF0FF3101EB52510844ADF804
:10AC50005E006079FD2801D9504602E010FB0AF041
:10AC6000000A8DF86B00A08AADF86400E08AADF8A8
:10AC7000660005EB8500400000E018E0B0F5616F6C
:10AC800001DDA0F56160ADF8600018A8099002AA86
:10AC90001A2138460DF0ACFB16AA18A958462369AC
:10ACA0000AF078FD02AA1B2138460DF0A1FB2146CF
:10ACB0002498F8F790F804007FF44DAF29B0BDE870
:10ACC000F08F0000F4B8030030B5054691F82A0073
:10ACD00089B00C4602285FD9E08C00285CD0114670
:10ACE00004A807F0B4FF208DBDF81010401E091A0B
:10ACF000ADF81010BDF81210091AADF81210BDF819
:10AD000014100144ADF81410BDF816100844ADF845
:10AD1000160004A906A807F09AFFBDF81810E08CE9
:10AD2000BDF81220091AADF81810BDF81C1008441F
:10AD3000ADF81C00BDF81A00E18C401AADF81A00FD
:10AD4000BDF81E00E18C0844ADF81E00BDF81400EB
:10AD5000BDF81010401ABDF81610401C891A491C85
:10AD600000B209B2B4F90020884200DA0146B2EB21
:10AD7000610F00DD4A10E08CA178104403B294F812
:10AD80002A00CDE90201A08CADF80400009204AACB
:10AD900006A92846FCF742FB09B030BDF8B50446C9
:10ADA0000DF022FB064620460DF01CFB0446406BCE
:10ADB000B0F5A02F51D1A06B0025072805D220693E
:10ADC000C570206980F8225012E081B220223046FE
:10ADD00008F090FC60B12069C570206980F82250AD
:10ADE000122014F0F9FE00906069BDF80010818116
:10ADF000208F4FF4004281B2304608F07BFC98B1BE
:10AE000021696620C870304617F006FA0090206964
:10AE1000BDF800108180304608F06AFCA16B8842C2
:10AE200002D12169B220C870208F4FF4804281B2D4
:10AE3000304608F05FFC00280FD02169FF2081F820
:10AE40002200304617F0E8F900902069BDF80010A4
:10AE5000C1832169088C401C0884F8BD2DE9F041AC
:10AE60008CB005460DF0C0FA044628460DF084FA71
:10AE70008046606A0FF0D6FB007800283BD1A06ABC
:10AE8000002838D00078002835D001A80AF064FFE7
:10AE900001AA4FF40021204613F0B8F994F860009D
:10AEA000000705D59DF8210040F002008DF8210033
:10AEB0000021204612F046FE07460021204612F0EF
:10AEC000E3FE06460021204612F02EFD054604F161
:10AED000140109A807F0A9FE701902B2781901B28D
:10AEE00009A807F008FF0020009009AA01A9404620
:10AEF000A36A0AF091FC0CB0BDE8F0817CB5044671
:10AF0000806961896D468668A08961B1002865D035
:10AF1000814203D12289E3889A427CD302297BD0E3
:10AF200003297AD0AFE010BBE088218988421ED285
:10AF3000B4F9060017F0E4FAB4F90410B4F90E20DD
:10AF4000891A48432168498801EBE030ADF80200D6
:10AF5000E0885A3000B217F0D3FAA18810FB01F054
:10AF60002168098801EBE030ADF8040040E020687A
:10AF70000088ADF800002068A18840880844ADF83A
:10AF80000600B4F9060017F0BBFAB4F90410B4F9DE
:10AF90000E20891A48432168498801EBE030ADF85A
:10AFA0000200E0885A3000B217F0AAFAA18810FB1C
:10AFB00001F021683246098801EBE030ADF8040069
:10AFC00069460846F7F74EFB30B1A0698560D4E9C1
:10AFD000052021690BF07AFCA08970BB2068A1884C
:10AFE00000880844ADF8040020684088ADF80200ED
:10AFF000B4F9080017F084FAA18810FB01F0216869
:10B00000498801EBE030ADF8060020895A3000B2E3
:10B0100017F076FA02E015E012E00FE0B4F9041040
:10B02000B4F90E20891A484321683246098801EB99
:10B03000E030ADF8000069461AE024E0022801D0B3
:10B04000012820D1206832460088ADF80000206831
:10B050004088ADF802002068A18800880844ADF857
:10B0600004002068A18840880844ADF806002946FD
:10B070000846F7F7F7FA30B1A0698560D4E90520F2
:10B0800021690BF023FCA06986607CBD7CB5044679
:10B09000806961896D468668A08901290CD00128E4
:10B0A00067D0814203D12289E3889A427ED3002966
:10B0B0007DD003297CD0B5E0012822D1E088218908
:10B0C00088421ED2B4F9060017F01AFAA18810FBC4
:10B0D00001F02168498801EBE030ADF80600E08816
:10B0E0005A3000B217F00CFAB4F90410B4F90E207B
:10B0F000891A48432168098801EBE030ADF8040063
:10B1000042E02068A1880088401AADF8000020685D
:10B110004088ADF80200B4F9060017F0F1F9A188F3
:10B1200010FB01F02168498801EBE030ADF8060022
:10B13000E0885A3000B217F0E3F9B4F90410B4F91A
:10B140000E20891A484321683246098801EBE03015
:10B15000ADF8040069460846F7F784FA30B1A069F3
:10B160008560D4E9052021690BF0B0FBA089012896
:10B1700058D120680088401EADF804002068A188DE
:10B1800040880844ADF80600B4F9080017F0B8F993
:10B19000B4F90410B4F90E20891A4843216849888B
:10B1A00001EBE030ADF80200208902E018E010E089
:10B1B00014E05A3000B217F0A3F9A18810FB01F097
:10B1C00021683246098801EBE030ADF8000069469D
:10B1D0001DE0022804D0032802D023E0022821D158
:10B1E0002068A18832460088401AADF80000206827
:10B1F0004088ADF8020020680088401EADF80400C9
:10B200002068A18840880844ADF806002946084611
:10B21000F7F728FA30B1A0698560D4E905202169E3
:10B220000BF054FBA06986607CBD7CB50446806948
:10B2300061896D468668A08902290CD002287ED0DB
:10B24000814203D12289E3889A4279D3002978D0B8
:10B25000012977D0D4E002283FD1E08821898842B3
:10B260003BD25A3000B217F04BF9A18810FB01F025
:10B270002168098801EBE030ADF80000B4F9060060
:10B2800017F03EF9B4F90410B4F90E20891A4843B6
:10B290002168498801EBE030ADF80600B4F90800F8
:10B2A00017F02EF9A18810FB01F02168498801EB05
:10B2B000E030ADF8020020895A3000B217F020F9D2
:10B2C000B4F90410B4F90E20891A4843216809889A
:10B2D00001EBE030ADF8040066E020680088401E15
:10B2E000ADF804002068A1884088401AADF802003B
:10B2F000E0885A3000B217F003F9A18810FB01F082
:10B300002168098801EBE030ADF80000B4F90600CF
:10B3100017F0F6F8B4F90410B4F90E20891A48436E
:10B3200021683246498801EBE030ADF806006946F5
:10B330000846F7F797F958B1A069856003E00AE07D
:10B340003BE034E036E0D4E9052021690BF0BEFA99
:10B35000A089022854D12068A1880088401AADF83D
:10B36000000020684088401EADF8060020895A3051
:10B3700000B217F0C5F8B4F90410B4F90E20891A18
:10B3800048432168098801EBE030ADF80400B4F9C6
:10B39000080017F0B5F8A18810FB01F02168498872
:10B3A00001EBE030ADF80200324669461DE00328AB
:10B3B00003D025E0032800D010BB2068A1883246C6
:10B3C0000088401AADF800002068A1884088401A23
:10B3D000ADF80200206829460088401EADF8040040
:10B3E00020684088401EADF806000846F7F73AF995
:10B3F00030B1A0698560D4E9052021690BF066FAB7
:10B40000A06986607CBD7CB50446806961896D4613
:10B410008668A08903290ED0032867D0814203D112
:10B420002289E3889A427ED302297DD001297CD0EB
:10B4300002297BD0B1E003281FD1E088218988420E
:10B440001BD25A3000B217F05BF8B4F90410B4F90B
:10B450000E20891A48432168098801EBE030ADF8D5
:10B460000000B4F9060017F04BF8A18810FB01F0BA
:10B470002168498801EBE03040E02068A18800881D
:10B480000844ADF8040020684088401EADF806006E
:10B49000E0885A3000B217F033F8B4F90410B4F968
:10B4A0000E20891A48432168098801EBE030ADF885
:10B4B0000000B4F9060017F023F8A18810FB01F092
:10B4C00021683246498801EBE030ADF80200694658
:10B4D0000846F7F7C7F830B1A0698560D4E90520C0
:10B4E00021690BF0F3F9A089032856D12068008860
:10B4F000ADF800002068A1884088401AADF802002D
:10B5000020895A3000B216F0FBFFA18810FB01F031
:10B510002168098801EBE030ADF80400B4F90800B7
:10B5200016F0EEFF03E016E010E013E00FE0B4F9D0
:10B530000410B4F90E20891A48432168324649881C
:10B5400001EBE030ADF8060069461BE018B10128B8
:10B5500001D022E008BB206832460088ADF8000028
:10B560002068A1884088401AADF802002068A188B0
:10B5700000880844ADF80400206829464088401E31
:10B58000ADF806000846F7F76DF830B1A0698560A0
:10B59000D4E9052021690BF099F9A06986607CBD8A
:10B5A00070B5A4B00C46054620AA22A911F0E9FD09
:10B5B00022A807F067FB20B920A807F063FB00284A
:10B5C0003ED012A928461FF0BFFE012838D12146DF
:10B5D000684611F0A3F91B4801900220029012A8BE
:10B5E00004904FF480300D9022A807F04BFB80B1FF
:10B5F00022A803906A461A2128460CF0F9FE22AAD6
:10B6000012A920460BF062F96A461B2128460CF06D
:10B61000EFFE20A807F036FB002811D020AE6A46C6
:10B620001A21284603960CF0E3FE20AA12A9204610
:10B6300003960BF04BF96A461B2128460CF0D8FE06
:10B6400024B070BDC4AE03002DE9F04F0F468A68E8
:10B65000B5B0044600F1140125A8F7F703F8002857
:10B660007ED0B868309025A8B8600021204612F03E
:10B670006FFA80460021204612F00CFB2B902046EA
:10B6800011F084FBB4F88410484340F30F2A20469D
:10B6900011F062FBB4F88610484340F30F20289065
:10B6A00004F124002790F7F784FB0546002120468B
:10B6B00012F00CFAB4F884104FF4A026484301129B
:10B6C000B4F88200C0F1010303FB01A191FBF0F08B
:10B6D0000FFA80F93146204612F0F8F9B4F88410D8
:10B6E000C5F1010248434FEA202B02FB0B90B0FB4F
:10B6F000F5F000B220900021204612F01BF905461B
:10B70000204611F05DFCA8EB0000284400B2319007
:10B71000204611F021FD01462B98401A284400B222
:10B72000329012A80BF0E6F812AA3146204612F029
:10B7300017FE9DF8570020F007008DF85700FF20F6
:10B740008DF84B00608BBDF848100844ADF8AA0096
:10B750003946684611F0E2F849480D96019000E03C
:10B760008BE004200026029080E000BFAAEB0901D4
:10B770007143401E91FBF0F131980144A08A0E966E
:10B7800008440FFA80F82798F7F728FB6AE0287B2F
:10B79000C00763D194F88800000701D4688900E0ED
:10B7A0000020209A01B2521E424412B2ADF8A820E5
:10B7B000209B40465B44ADF8A48003440FFA83F815
:10B7C000BDF994309A4249DBBDF9982090424BDC98
:10B7D0002889ADF84C008819B4F88210DDF8A0C0B3
:10B7E00090FBF1F201FB1200696800B231F9102000
:10B7F000297BC1F3001104EB410131F96C3FB1F930
:10B800000410D21A02FB0CF2C91A92FBF1F1ACEB54
:10B8100001023299E38A11441944ADF8A61069680F
:10B8200031F91010A1F5FE42FF3A17D029A9039172
:10B8300012A91195049169686A4631F910001090B7
:10B840001A2120460CF0D4FD29AA12A938460BF083
:10B850003DF86A461B2120460CF0CAFD2946279870
:10B86000F7F7B9FA050092D1761CB6B2B4F88200A7
:10B87000B0423FF67BAF3098B86035B0BDE8F08F8E
:10B88000BCB303002DE9F04F89468A6800F114012A
:10B89000C1B005460F463CA8F6F7E4FE00287CD070
:10B8A0003CA9D9F808A0C9F80810B5F88200022808
:10B8B00073D30021284612F03DF8044600212846A3
:10B8C00012F046F906190021284612F0E3F9044463
:10B8D000284611F05BFAB5F88410484340F30F2076
:10B8E0000F90284611F038FAB5F88610484340F317
:10B8F0000F200990284611F063FBA98A3144081AE9
:10B9000000B23990284611F027FCE98A2144081A30
:10B9100000B23A9039463EA8D9F80820F6F7A2FEC0
:10B9200000283AD027A80AF0A6FA27AA4FF4A021A7
:10B93000284612F0B9FC2AA80AF0DCFF4FF40034C4
:10B940002AAA2146284612F00BFD2146284612F06D
:10B95000A3FA00EBD07047102146284612F014F8E5
:10B9600000EBD07041108B46BDF99E005F4500DAB8
:10B97000394600EBD072B1EB620F05DD9DF8A510E2
:10B9800041F010018DF8A510012805D19DF8A50002
:10B9900040F010008DF8A50000E087E1B5F88210B6
:10B9A0000F98814201DB012000E000203B9005F16F
:10B9B00024003890F7F712FA73E1207BC0077CD19E
:10B9C0002089ADF89C002089ADF8AC0095F888007E
:10B9D000000701D4608900E0002000B20C90399883
:10B9E000ADF81800ADF808000C9805901390616848
:10B9F000099B31F91000217BC1F3001205EB4201D4
:10BA000031F96C2FB1F90410801A5843891A90FB50
:10BA1000F1F0191A3A980844ADF80A00494614A8FA
:10BA200010F07CFFA3481590032016904FF4A0203F
:10BA3000219027A81A902AA825941890BDF90A00E9
:10BA4000039000260790E9E0BDF90810ADF8181042
:10BA5000BDF80A00ADF81A00BAF90420781C1044A9
:10BA600081427BDC0F98B5F882207043531E90FB17
:10BA7000F3F33998184400B2ADF808000C9B334436
:10BA800093FBF2FC02FB1C3212B205926368DDF8F4
:10BA900024C033F91220237BC3F3001305EB4303C7
:10BAA000B3F96C80B3F97030A2EB080202FB0CF220
:10BAB000A3EB080392FBF3F200E0EEE0ACEB020331
:10BAC0003A9A1A4412B2ADF80A209046BAF9002008
:10BAD000D21B521E90423FDB002E3DD03B9AE2B378
:10BAE0006368139A33F912C047F6FF72944533D056
:10BAF000DDF814C033F91C3093422DD0079B9845D4
:10BB000001DA1A4600E04246039B0792984501DDA0
:10BB10001A4600E04246039281427BD0401EADF8B7
:10BB20001800ADF808000798ADF81A20ADF80A0023
:10BB3000824202D1401CADF80A0002AB06AA27A936
:10BB400048460AF08BF9BDF80800CDF80C80401C7F
:10BB5000ADF80800CDF81C805CE000E063E0BDF8C3
:10BB60001800C11B3844ADF83800BDF81A00ADF814
:10BB70003410A0EB0B015844ADF83A00701E22902F
:10BB8000ADF836106168139831F9101047F6FF7060
:10BB9000814201D006A900E000211D91626805994B
:10BBA000804632F91110414501D002A800E0002082
:10BBB0001E900DA817906168139814AA31F910000F
:10BBC00024901A2128460CF013FC6068139930F970
:10BBD000112042450AD0059930F91110414505D090
:10BBE00002AB06AA27A948460AF038F96FB1BBF1A3
:10BBF000000F0AD06168139831F91010414504D044
:10BC00000DAA2AA948460AF061FE14AA1B2128465B
:10BC10000CF0EEFB0598761CB6B21390B5F88200D6
:10BC2000B0423FF611AF3B98B8BBB5F88200B042C6
:10BC300033D16168059831F91010A1F5FE40FF3845
:10BC40002BD0BDF80800761EC11B3844ADF830106B
:10BC5000ADF83400BDF80A0014AAA0EB0B0158445B
:10BC6000ADF8360000201D901E900CA81790ADF87E
:10BC7000321022966168059831F9100024901A213B
:10BC800028460CF0B5FB0CAA2AA948460AF01EFE6D
:10BC900014AA1B2128460CF0ABFB21463898F7F775
:10BCA0009AF804007FF489AEC9F808A041B0BDE855
:10BCB000F08F0000BCB303002DE9F04F8A468A687C
:10BCC000B9B0054600F1140137A8F6F7CBFC0028FF
:10BCD0007DD0DAF80800349037A9CAF8081000219E
:10BCE000284611F027FE04460021284611F030FFB7
:10BCF00006460021284611F0CDFF0746284611F0E0
:10BD000045F8B5F88410484340F30F203390284697
:10BD100011F022F80146B5F88600414341F30F20A7
:10BD20002490284611F04CF90146AA8A3019104493
:10BD3000401A00B22590284611F00EFA0146EA8A10
:10BD400038191044401A00B228902CA80AF093F831
:10BD50002CAA4FF4A021284612F0A6FA16A80AF041
:10BD6000C9FD4FF4003416AA2146284612F0F8FA0D
:10BD70002146284612F090F800EBD0704FEA600997
:10BD80002146284611F000FE00EBD070421090468C
:10BD9000BDF9B2004946C14500DB114600EBD07247
:10BDA000B1EB620F05DD9DF8B91041F010018DF87F
:10BDB000B910012805D19DF8B90040F010008DF8A8
:10BDC000B90005F124002A90F7F708F841E146E1AF
:10BDD000207BC0077ED12089ADF8B0002089ADF866
:10BDE0005C0095F88800000701D4608900E000201D
:10BDF00006B22598ADF8D8002996ADF89C00606889
:10BE0000B34630F816000A282CD0339800902068EA
:10BE1000002330F91670207BC0F3C00105EB410010
:10BE2000B0F97820B0F9741038460FF077FA2599F8
:10BE300000230844ADF89C0024980090606830F915
:10BE40001670207BC0F3001105EB4100B0F97020A3
:10BE5000B0F96C1038460FF061FA2499081A289945
:10BE6000084402E07F48ADF89C00ADF89E005146C2
:10BE700002A810F053FD4FF4A0200F907A480390D1
:10BE8000032004902CA8089016A80027139406906D
:10BE90009FE000BFBDF89C00ADF8D800BDF89E0043
:10BEA000ADF8DA002998B5F88220C11991FBF2F0BB
:10BEB00002FB101006B2606830F91600A0F5FE41D2
:10BEC000FF3968D024990091217BC1F3001105EB63
:10BED000410100E0B9E0B1F97020B1F96C10002324
:10BEE0000FF01CFA24990023081A28990844ADF889
:10BEF0009E0033980090217B2068C1F3C00105EBC0
:10BF0000410130F91600B1F97820B1F974100FF041
:10BF100005FA25990844ADF89C00E7B3BDF8D800B0
:10BF2000A0EB09014844ADF8C000BDF8DA00ADF857
:10BF3000BC10A0EB08014044ADF8C200781EADF87B
:10BF4000BE101090616831F91B10A1F5FE40FF385A
:10BF500001D036A900E000210B91616831F916107B
:10BF6000A1F5FE40FF3801D027A800E000200C908A
:10BF70002FA80590616802AA31F91B0012901A21BE
:10BF800028460CF035FA616847F6FF7031F91B203E
:10BF9000824216D000E019E031F91610814210D02B
:10BFA00027AB36AA2CA9504609F058FFB9F1000F6B
:10BFB00007D0B8F1000F04D02FAA16A950460AF0F6
:10BFC00085FC02AA1B2128460CF012FA7F1CB346FE
:10BFD000BFB2B5F88200B8423FF65CAFB5F8820058
:10BFE000B84232D1606830F91610A1F5FE40FF3832
:10BFF0002BD0BDF89C007F1EA0EB09014844ADF892
:10C00000C000BDF89E00ADF8BC10A0EB0801404494
:10C01000ADF8C2000020ADF8BE100B900C902FA818
:10C0200010970590606802AA1A2130F91600129044
:10C0300028460CF0DDF92FAA16A950460AF046FC56
:10C0400002AA1B2128460CF0D3F921462A98F6F7BC
:10C05000C2FE04007FF4BCAE3499CAF8081039B0AF
:10C06000BDE8F08F01E0FFFFBCB303002DE9F74FFF
:10C07000B1F92E00AAB014460E46002872D096F8E8
:10C08000361002296ED9012808D1B6F934000028EB
:10C0900004DC308E10B9708E0028EFD02088318EED
:10C0A0004218B08E151AADF82850A28811440B180A
:10C0B000ADF82C306088718E0844B18E421AADF80C
:10C0C0002A20E088718E0844B18E0144ADF82E100C
:10C0D000B6F92E0000EBD070A5EB60056D1EADF833
:10C0E0004C50012505EB60001844ADF85000B6F93E
:10C0F0002E0000EBD070A2EB6000401EADF84E00A9
:10C10000B6F92E0000EBD07005EB60000844ADF8E6
:10C11000520096F836002990FD2801D9FF20299079
:10C120002A9813A9826827A8F6F79CFA0028A5D0B8
:10C1300021461DA806F08BFD4FF0FF3841464246D0
:10C140001DA806F0CBFDB6F900901DA806F0C0FDB5
:10C1500004461DA806F090FD84421DA803DA06F0EF
:10C16000B7FD02E0FEE306F087FDB9EB600F01DDED
:10C170004FEA6009B6F900400AA806F0A9FD054695
:10C180000AA806F079FD85420AA802DA06F0A0FDA9
:10C1900001E006F071FDB4EB600F00DD4410B6F96C
:10C1A0002E00051905FB05F040000FF0F3F8109084
:10C1B0000146B6F92E2023460AA81FF01BFA13A841
:10C1C0000AF05CF8012720B9F078FF2801D3B07895
:10C1D00060B1002701234A461DA920A80AF0BAFA37
:10C1E000002120A809F06AFE269001E0CDF8988091
:10C1F00013A806F06DFD0FF0CDF883461C2115A89D
:10C200000FF018FACDF854D0CDF860B0CDF868D062
:10C21000B08DADF85C0096F836008DF86C00B07803
:10C220008DF86D00BDF85000BDF84C20ADF804004D
:10C23000811A491C09B201EBD17102EB61010FFABD
:10C2400081FABDF85220BDF84E10401B521A521C04
:10C2500012B202EBD27201EB6202401C14B200B2C5
:10C260006A1EADF80000ADF80210114409B209923F
:10C27000ADF806105246504500DC1046ADF80000FF
:10C28000A14200DB21462A98ADF806106946826873
:10C2900006A8F6F7E7F9D0B34A461DA906A8F6F7AF
:10C2A00009FAA0BBBDF81C00BDF91810BDF91A2091
:10C2B000401A401C00B20890BDF94E301098D21AB6
:10C2C00002FB0500BDF95020521B891A0844401E8C
:10C2D000059047B14A461DA906A8F6F75BFA10B1CA
:10C2E00001200F9000E00F970898002827DDBDF887
:10C2F0001800ADF80000BDF81C00ADF804000220E5
:10C30000CDF860B08DF86400BDF91A8013E016E036
:10C31000ADF802800F98ADF8068070B305981890BC
:10C3200015A92A980AF0DBFC05982844059008F125
:10C3300001000FFA80F8BDF91E104145E8DABDF89A
:10C340005000ADF80400401B401C00B2ADF80000E6
:10C35000BDF85220ADF80620511B491C09B2ADF8BA
:10C3600002105246504500DC1046ADF80000601C3B
:10C370001190814216DD084615E0FFE72A4658462F
:10C3800005990FF085F8BDF9181042465846089BEC
:10C3900009F036FF8DF864000128C1D102208DF824
:10C3A0006400BDE7601CADF802002A986946826807
:10C3B00006A8F6F757F9D0B34A461DA906A8F6F71E
:10C3C00079F9A0BBBDF81C00BDF91810BDF9062015
:10C3D000401A401C00B20890BDF91E301098D21AC5
:10C3E00002FB0500BDF95020521B891A0844401E6B
:10C3F000059047B14A461DA906A8F6F7CBF910B13A
:10C4000001200F9000E00F970898002827DDBDF865
:10C410001800ADF80000BDF81C00ADF804000220C3
:10C42000CDF860B08DF86400BDF91E8013E016E011
:10C43000ADF802800F98ADF80680B0B3059818905B
:10C4400015A92A980AF04BFC059828440590A8F1F4
:10C4500001000FFA80F8BDF91A104145E8DDBDF87A
:10C460004C0009992844ADF80000BDF85000401B6D
:10C47000ADF80400BDF84E00ADF80200084400B26B
:10C48000ADF80600A04200DB2046ADF806002A9871
:10C490006946826806A8F6F7E5F8B0B34A461DA9D2
:10C4A00006A8F6F707F9A8B17CE0FFE72A46584648
:10C4B00005990EF0EDFFBDF9181042465846089B4D
:10C4C00009F09EFE8DF864000128B9D102208DF894
:10C4D0006400B5E7BDF81C00BDF81810BDF90220D6
:10C4E000401A401C00B20890BDF91A101098891A21
:10C4F00001FB050005904FB14A461DA906A8F6F7B5
:10C5000049F918B101200F9001E04BE00F9708980E
:10C51000002847DD0F9860B100201890BDF8180082
:10C52000ADF80000BDF81C00ADF80400BDF91A001C
:10C5300033E0CDF860B0F1E7ADF802800F98ADF8C8
:10C54000068060B12998FF280598007804D096F8F5
:10C55000361010FB01F0000A8DF86C0013E005980E
:10C56000089A017858460FF033F8BDF91810424682
:10C570005846089B09F044FE8DF86400012802D15A
:10C5800002208DF8640015A92A980AF0A8FB0598E6
:10C590002844059008F1010000B2BDF91E10804644
:10C5A0004145C9DA96F836008DF86C00BDF84C00AC
:10C5B0002844ADF80000BDF85000BDF85210401BF3
:10C5C000ADF80400481B401CADF8061000B21199EC
:10C5D000ADF80200884200DC601CADF802002A9829
:10C5E0006946826806A8F6F73DF878B34A461DA961
:10C5F00006A8F6F75FF848BBBDF81C00BDF8181098
:10C60000BDF91E20401A401C00B20890BDF906106A
:10C610001098891A01FB050005900898002851DD43
:10C620003FB14A461DA906A8F6F7B4F800201890B5
:10C6300001E0CDF860B0BDF81800ADF80000BDF81D
:10C640001C00ADF80400BDF91E0036E03AE000BF62
:10C65000ADF80280ADF806808FB14A461DA906A844
:10C66000F6F798F82998FF280598007804D096F8EE
:10C67000361010FB01F0000A8DF86C0013E00598ED
:10C68000089A017858460EF0A3FFBDF918104246EB
:10C690005846089B09F0B4FD8DF86400012802D1CA
:10C6A00002208DF8640015A92A980AF018FB059855
:10C6B00028440590A8F1010000B2BDF91A10804687
:10C6C0004145C5DD96F836008DF86C00BDF8500088
:10C6D000ADF80400411BBDF84E00491C0AB22844C5
:10C6E000ADF8002000B2ADF80200BDF85210119B69
:10C6F000491B09B2ADF80610984200DB601CADF88A
:10C700000200A14200DC2146ADF806105046524519
:10C7100000DC02462A98ADF800206946826806A827
:10C72000F5F7A0FFB8B34A464E461DA906A8F5F78F
:10C73000C1FF80BBBDF81C00BDF91810099A401A52
:10C74000401C00B20890109802FB0500BDF9502073
:10C75000521B891A0844401E0590EFB132461DA9AC
:10C7600006A8F6F717F810B14FF0010800E0B84638
:10C77000059818900898002836DDBDF81800ADF827
:10C780000000BDF81C00ADF8040002208DF8640024
:10C79000BDF91A6024E027E0B8465846E9E700BF33
:10C7A000ADF80260ADF80660B8F1000F12D158463E
:10C7B000089A05990EF06CFEBDF9181032465846DD
:10C7C000089B09F01DFD8DF86400012802D10220AC
:10C7D0008DF8640015A92A980AF081FA761C36B201
:10C7E000BDF91E00B042DBDA0022109817E000BF4E
:10C7F00000EB050EAEF10101002305EBD57608E054
:10C8000090F800C091F8008000F8018B01F801C990
:10C810005B1CB3EB660FF3DB521C704612B2AA42EC
:10C82000E6DBBDF84C000999ADF80000084401B200
:10C83000BDF84E00119B284400B2ADF80200BDF8CF
:10C840005220ADF80410521B12B2ADF806209842E7
:10C8500000DB601CADF80200A24200DC2246AAF117
:10C860000100ADF806200C90814200DB01462A98B9
:10C87000ADF804106946826806A8F5F7F3FEA8B380
:10C880004A464E461DA906A8F5F714FF70BBBDF831
:10C890001C00BDF91810099A401A401C00B20890FB
:10C8A000109802FB0500BDF90020891A0844059084
:10C8B000EFB132461DA906A8F5F76CFF10B14FF095
:10C8C000010800E0B846059818900898002835DD62
:10C8D000BDF81800ADF80000BDF81C00ADF804006C
:10C8E00002208DF86400BDF91A6023E026E0B84606
:10C8F0005846E9E7ADF80260ADF80660B8F1000F00
:10C9000012D15846089A05990EF0C2FDBDF91810CB
:10C9100032465846089B09F073FC8DF864000128E4
:10C9200002D102208DF8640015A92A980AF0D7F9DF
:10C93000761C36B2BDF91E00B042DBDABDF84C0001
:10C940000999ADF800000844BDF84E10099AADF8F9
:10C950000210114400B2ADF8040009B2ADF806109F
:10C960000C9A00E05AE1904201DBAAF10100ADF817
:10C970000400A14200DB21462A98ADF80610694662
:10C98000826806A8F5F76EFEC0B34A461DA906A840
:10C99000F5F790FE90BBBDF81C00BDF91810BDF96D
:10C9A0001A20401A401C00B20890BDF902301098BD
:10C9B000D21A02FB0500BDF90020891A01EB00081C
:10C9C00047B14A461DA906A8F5F7E4FE10B10120BB
:10C9D0000F9000E00F970898CDF860B0002822DD96
:10C9E000BDF81800ADF80000BDF81C00ADF804005B
:10C9F00002208DF86400BDF91A6010E013E000BF5A
:10CA0000ADF802600F98ADF80660C8B3CDF860804D
:10CA100015A92A980AF063F9761CA84436B2BDF924
:10CA20001E00B042ECDABDF84C00ADF800000999E8
:10CA3000BDF85220084401B2501BADF80410401C50
:10CA4000ADF8062000B2119AADF80200904200DC69
:10CA5000601CADF802000C98814201DBAAF10101D3
:10CA60002A98ADF804106946826806A8F5F7FAFD21
:10CA7000C8B34A461DA906A8F5F71CFEA8B15AE09E
:10CA8000FFE72A46414658460EF002FDBDF9181050
:10CA900032465846089B09F0B3FB8DF86400012824
:10CAA000B6D102208DF86400B2E7BDF81C00BDF9D4
:10CAB0001810BDF90620401A401C0FFA80FABDF983
:10CAC0001E301098D21A02FB0500BDF90020891A09
:10CAD0000E184FB14A461DA906A8F5F75BFE18B11E
:10CAE0004FF0010801E026E0B846CDF860B0BAF199
:10CAF000000F20DDBDF81800ADF80000BDF81C00E7
:10CB0000ADF8040002208DF86400BDF91E400EE06F
:10CB1000ADF80240ADF80640B8F1000F2FD01896DE
:10CB200015A92A980AF0DBF8641E2E4424B2BDF938
:10CB30001A00A042ECDDBDF84C0069462844ADF86F
:10CB40000000BDF85000401BADF80400BDF84E00D9
:10CB5000CDF860B02844ADF80200BDF85200401B8B
:10CB6000ADF806002A98826806A8F5F77BFDE8B3C1
:10CB70004A461DA906A8F5F79DFDA0B141E02A4649
:10CB8000314658460EF084FCBDF918105346224633
:10CB9000584609F035FB8DF864000128C0D1022009
:10CBA0008DF86400BCE7BDF91C10BDF918000A1A25
:10CBB000521C15B2002D24DDADF80410ADF80000B4
:10CBC000BDF91A4019E000BFADF80240ADF80640CB
:10CBD000294658460EF05CFDBDF918102B4622463A
:10CBE000584609F00DFB8DF8640000E009E015A936
:10CBF0002A980AF074F8641C24B2BDF91E00A04201
:10CC0000E2DA2FB920A809F01DFB269809F04EFEA4
:10CC100010980EF00BFC58460EF008FC2DB0BDE845
:10CC2000F08F00002DE9F74FD8B0589849909088C0
:10CC3000B2F90030D488C01A401C01B2508801EB10
:10CC4000D171201A401C00B24D1000EBD070B5EB32
:10CC5000600F00DB45105819ADF80C0050882844CF
:10CC6000ADF80E0024A809F006F94FF4C02424AA58
:10CC70002146589811F018FB9DF8990040F01000DB
:10CC80008DF8990009A809F067F809AA2146589873
:10CC900011F0BCFA11A859990FF040FECF4812903C
:10CCA0000320139024A8179049981E9424300690CE
:10CCB000F6F794F88BE12294A189A088691A0FFAFB
:10CCC00081FBBDF80C10281A0A1AADF83021BDF806
:10CCD0000E200144131AADF834111044ADF832316E
:10CCE000ADF8360147F6FF76012332464CA92DA850
:10CCF00009F030FDBDF80C200123A2EB0B00ADF8CC
:10CD00002801BDF80E00A0EB0B01ADF82A11ABF124
:10CD100001010A44ADF82C210844ADF82E01324639
:10CD20004AA943A809F016FDBDF80C100023481BC2
:10CD3000ADF83801BDF80E20501BADF83A01681E61
:10CD40000144ADF83C111044ADF83E0132464EA905
:10CD500027A809F0FFFC002127A809F0AFF83B90B5
:10CD6000608908B1401E01E04FF6FF708046002741
:10CD700019E100BF608908F101084FF0000A404541
:10CD800002D1D0464FF0010AA069009062880021CC
:10CD90003846521E63690EF0C1FA81462190BAF1FD
:10CDA000000F04D0A06835904290E08903E020682D
:10CDB00035904290E08800B25090349049983030DD
:10CDC0002390F6F70BF82FE03079022828D1B168CC
:10CDD000494525DCF2684A4522DB338A34981844F9
:10CDE00000B23490708AB38A984203D1708AADF849
:10CDF000D40015E0B07D4FF00003C0074FF0FF00F6
:10CE00000090484601D1D4E905120EF087FAC2B26B
:10CE1000708AADF820000899706907F09CFD359084
:10CE200031462398F5F7D7FF0600CDD1E08B07EB0D
:10CE30008701490048436188BDF90C20491E90FBD9
:10CE4000F1F0B4F9201001EB810100EB4106BDF8CF
:10CE5000D400ADF890003498ADF892004FF48C7087
:10CE60002946854200DB084628441044ADF84401B9
:10CE7000BDF80E00ADF8460103AB4FF480723146A9
:10CE800051A812F0C1FE03A81A9051A81B9009A83E
:10CE90001F971690BAF1000F61D03B9809F006FD7C
:10CEA000218A03ABABEB0100BDF80C104FF480728C
:10CEB0000844ADF88C00BDF80E00ADF88E00314688
:10CEC00023A812F0A1FE202209A933A80EF0E0FA4F
:10CED00033A816904B4642A2102153A813F06AFCC7
:10CEE00053A81C9011AA1A2158980BF081FABDF989
:10CEF00036004FF0000941F6FF728DE80502BDF9DA
:10CF0000383052A8099A1C9915F0BEFBBDF94801AA
:10CF1000BDF88C1000EBD072A1EB6201ADF81C10D3
:10CF2000BDF94A21BDF88E3002EBD276A3EB660341
:10CF30000844ADF820009818ADF81E30ADF8220076
:10CF4000CDF8009007AA1C9B1699599808F064FC2C
:10CF5000002127A808F0B2FF3B9043A808E000207A
:10CF600016901C9011AA1A2158980BF041FA2DA87E
:10CF7000002108F0A3FF064603AB51AA24A9599843
:10CF800008F06CFF304609F091FC11AA1621589860
:10CF90000BF02EFABDF80801ADF8900050987F1CF8
:10CFA000ADF89200BFB26088B8423FF6E3AE2DA85C
:10CFB00009F048F943A809F045F927A809F042F912
:10CFC0003B9809F073FC21460698F5F704FF04002E
:10CFD0007FF471AE5BB0BDE8F08F0000F4B80300E1
:10CFE000256400002DE9F74FB4B090460546114680
:10CFF00003F0F4F904468068C0F30E01012976D9E4
:10D00000000404D4208810B9608800286FD0002163
:10D01000284610F09DFD06460021284610F08AFCA7
:10D02000064428460FF0B2FEB5F88410484340F39A
:10D030000F2723A808F090FE4FF4C02A23AA5146D8
:10D04000284611F0E3F828460FF0BAFFA98A3144C8
:10D05000081A0FFA80F92089B8F1020F4FEA004050
:10D0600006D0002844DA5146284610F013FE40E06E
:10D07000002804DA5146284610F004FD00E00020A4
:10D0800083463598B5F91A608068B0F90610B14248
:10D090002DDB2399B4F90020B0F90200B1F9081092
:10D0A0000A4406EB0B011144814220DB1DA808F065
:10D0B000E2FE1DAA5146284611F0F6F80020ADF810
:10D0C0007A00ADF8780003A835990FF027FC8F4857
:10D0D0000490062005900220CDE910A023A8089016
:10D0E0001DA80990B8F1020F07D0012006E00AE15F
:10D0F00000208346B5F91660D8E70020219095F806
:10D10000880000F00700022816D10021284610F000
:10D11000DDFCB5F8841048430012B5F882103A18C7
:10D1200092FBF1F109B2081A00EBD07209EB62012F
:10D13000381A0FFA81F907B2ADF85A602089616890
:10D14000C0F30E00401EC1F30E4100FB01F80026A3
:10D15000D6E000BF60684FF0000AC0F30E40B6FB97
:10D16000F0F100FB116008B94FF0010ABDF976003B
:10D17000381A7043B0FBF8F101EB0900ADF8580024
:10D18000ADF85400BDF95A10219848B1BAF1000F1A
:10D1900002D0B4F9000001E0B4F90200081A08E076
:10D1A000BAF1000F02D0B4F9000001E0B4F90200B6
:10D1B0000844ADF8560016A80C9015A80D9095F8E7
:10D1C000880000F00700032848D06068C0F30E40D4
:10D1D000B6FBF0F31393BAF1000F68D02089000476
:10D1E00065D54BA2102130A813F0E4FA23A80890CB
:10D1F00030A80E9010200F9003AA1A2128460BF099
:10D20000F7F8BDF99E004FF0000A41F6FF728DE875
:10D210000504BDF9A0301CA8239A0E9915F034FA24
:10D22000BDF97010BDF8540001EBD171A0EB6102A3
:10D2300000EB610000B2ADF8680012B2BDF85630E4
:10D240002199ADF86420C1B1A3EB0B01BDF8723098
:10D25000ADF86A10C91AADF8661017E02198424679
:10D2600005EB4001B1F978000090B1F9743000216C
:10D2700030460EF053F80346ACE703EB0B01BDF864
:10D280007230ADF866101944ADF86A10B5F9141093
:10D29000884215DBB5F91800824211DCCDF800A0F8
:10D2A00019AA23A90E9B359808F0B6FA08E00020C9
:10D2B00008900E900F9003AA1A2128460BF098F8B8
:10D2C000BDF97600BDF9581000EBD07001EB60029B
:10D2D000B5F914108A420DDBBDF95410A1EB6001C1
:10D2E000B5F91800814205DC15AB16AA1DA93598C1
:10D2F00008F0B4FD03AA1B2128460BF079F8761C30
:10D3000046457FF627AF37B0BDE8F08FBCB30300CA
:10D31000256400002DE9F74FB8B090460446114649
:10D3200003F05CF805468068C0F30E01012973D94B
:10D33000000404D4288810B9688800286CD05FEAFB
:10D34000080000D0012029900021204610F0F2FAB8
:10D3500007460021204610F09DFC064620460FF0AF
:10D36000FBFCB4F88610484340F30F202B90204676
:10D370000FF0F2FE0146E28AF0191044401A00B2A2
:10D380004FF4C0263290B8F1000F314620460DD040
:10D3900010F020FC2690B4F91800B5F900A0B5F9FA
:10D3A00002908346B8F1010F06D00DE010F0D0FBDB
:10D3B0002690B4F91400F0E7CAF100000FFA80FAE1
:10D3C000C9F100000FFA80F921A808F054FD21AA44
:10D3D0003146204610F068FF18A808F0BDFC18AAD6
:10D3E0003146204610F012FF03A839990FF096FA43
:10D3F000764804900620059021A80990CDE9106890
:10D4000018A808902889C0F30E0768687F1EC0F32B
:10D410000E4047430026D3E0D5E000BFBDF986109B
:10D420002B98401A7043B0FBF7F13298B8F1000F17
:10D430000844ADF85600ADF85E005846ADF854B05B
:10D4400069D0401CADF85400002002906868C0F319
:10D450000E40B6FBF0F100FB1160002874D0BDF85F
:10D460005410A1EB090000BFADF85C0015A80C90AA
:10D4700017A80D9029983A4604EB4000B0F97010B7
:10D480000091B0F96C30B81B00210DF047FF034646
:10D4900013900298F0B32889000468D54CA210219B
:10D4A00033A813F087F918A8089033A80E9010201D
:10D4B0000F9003AA1A2120460AF09AFFBDF97200C4
:10D4C000002241F6FF718DE80700BDF974302CA8E9
:10D4D000189A0E9915F0D8F8BDF9B200BDF85E1093
:10D4E00000EBD070A1EB600212B201EB6000ADF86E
:10D4F000922001B22998ADF896100028BDF85C0082
:10D5000029D0269B0344ADF89030BDF8B0300344D9
:10D51000269801E02BE015E000EB0300ADF8940045
:10D52000B4F9160081422BDBB4F91A00824227DCE1
:10D530000020009024AA18A90E9B399808F06CF9D5
:10D540001EE001E0401E7DE70120BDF8541002906E
:10D55000A1EB0A0088E7BDF8B030A0EB030C269BD6
:10D56000ACEB0303ADF89030269BC01AD6E7002041
:10D5700008900E900F9003AA1A2120460AF038FF57
:10D58000BDF98600BDF9561000EBD070B4F9162035
:10D5900001EB600191420DDBBDF95E10A1EB600172
:10D5A000B4F91A00814205DC17AB15AA21A93998F4
:10D5B00008F054FC03AA1B2120460AF019FF761C30
:10D5C000BE427FF62BAF3BB0BDE8F08FBCB303008B
:10D5D0002564000010B50021024816F0A8F980F378
:10D5E000100010BDCCF6012001481BF017BF000051
:10D5F000ACCA012070B504460CF0E0FA48B10068EE
:10D6000082680AB1217A9047207E810742D4C00700
:10D610007BD1002160680FF0F7FB002518E0017A4C
:10D62000CA0910D0802904D0227A21F080019142C9
:10D6300009D14168E160016820468847207E810762
:10D6400028D4C00761D16D1C294660680FF0DCFB4F
:10D6500018B101680029F6D0E1E7214600200FF05B
:10D6600001FB050053D0002160680FF0CDFB0026C0
:10D6700019E0016891B1017A0A060FD411B1227A3A
:10D6800091420BD14168E160016820468847207EC5
:10D69000810701D5012070BDC00736D1761C314607
:10D6A00060680FF0B1FB10B1012DE2D02FE0012D29
:10D6B0002DD16068416851B3217E490727D4217A72
:10D6C000232919D0242917D0A90310F0F3FCF0B1B5
:10D6D000207A11381C280FD2DFE800F01919191927
:10D6E000191919191919190E0E190E0E19191919D6
:10D6F0000E0E0E0E19190E19606840686060204603
:10D70000FFF778FF0546012801D0002070BD2846AC
:10D7100070BD00002DE9F0410C461A4900EB800075
:10D7200001EB80051F46164614212846F2F7EDFE50
:10D73000BFB13B46002214491448F4F7A1F8C0B128
:10D74000C5E9006730897189401A401C60813089C1
:10D7500020810F4860600F48A56120600020BDE86F
:10D76000F0810D480321008801EB00400BA116F069
:10D77000D1FD1C2210492046F2F7A0FE4FF0FF30E9
:10D78000EDE70000900D0220D73BA56DDC040020E2
:10D79000511C0000D51D000084C90120705F676521
:10D7A000745F646174615F66756E6320696E766133
:10D7B0006C69646174650A00E4040020F0B5DDE979
:10D7C000054539B3060AB70702D51F462B463D4625
:10D7D000770702D527462C463D4616F0060F4FEA3E
:10D7E000C6771BD017B11F4623463C462270CC4358
:10D7F000E4B212FB04F4240A2C70C0B2F40710D077
:10D8000011FB00F06FEA1020C0B212FB00F0000A1A
:10D810001870F0BD2A7022701A70F0BD002FE2D08F
:10D82000E4E720B14042C0B210FB01F0EAE7080291
:10D83000E8E700002DE9FF4F8A880B8889B0D21AEB
:10D84000521C17B2CA8849880446511ADDE916B835
:10D85000491C19980FFA81F9012813D0022813D016
:10D86000032843D1434E00BF5FEA08000ED00020DA
:10D8700006902088ADF8140098F80000FD2838D3F1
:10D880005A4639E03C4EEFE73C4EEDE72088ADF8D4
:10D890000000ADF808005A4600990C98B047059072
:10D8A000002020E0002517E0BDF8080034F815102E
:10D8B00088420BD004EB45005A460088ADF81400AE
:10D8C000ADF8080005990C98B047059004EB4500A9
:10D8D000BDF8141001806D1CBD42E5DB0B9804EB14
:10D8E000400408F1010080464845DBDB0DB0BDE88F
:10D8F000F08F00FB0BF0020A05990C98B0470890D6
:10D90000002033E0002528E018F8050020B3069930
:10D91000884205D1BDF8141034F81520914216D074
:10D92000FD2801D35A4602E000FB0BF0020A04EB8B
:10D9300045000088ADF8180006990C98B04708908B
:10D9400018F80500069034F81500ADF8140004EB43
:10D950004500BDF8201001806D1CBD42D4DB0B9842
:10D96000189904EB400488440AF1010082464845B6
:10D97000C8DBBBE7C56500003D65000049660000E7
:10D980002DE9FF4F044688880A8883B0801A401C1E
:10D9900005B2C8884988DDE910A6401A401C0FFA74
:10D9A00080F976B1BDF81800BAF1FD0F00EB004028
:10D9B00000907CD3A5F104084FF0000BBDF818A02F
:10D9C00049E1BAF1FD0F0FD3002608E02A462046B0
:10D9D000069906F06DFD0598761C04EB40044E4553
:10D9E000F4DB07B0BDE8F08FBDF80010002060F355
:10D9F000020189B260F3C70189B260F30C2189B2D8
:10DA000060F34F31ADF8001088B20090BDF800000F
:10DA1000009001465246069806F0E3FF01900AF195
:10DA200004000699C008C00689B2000EC1F3C40202
:10DA300012FB00F262F30F064A07920E02EB51321C
:10DA400012FB00F262F31F46C1F3042111FB00F147
:10DA500061F30F07BA46C0F1FF0200235AE000202D
:10DA600052E000BFBDF8007034F810108F4245D06E
:10DA700004EB40010988ADF80810BDF80870ADF856
:10DA80000010B1B2C7F3C40C1CFB021101EBC11CA6
:10DA90000CEBC131C1F3C45CBDF804106CF3C701D9
:10DAA0004FEA477C4FEA9C6C0CEB573C00E0D9E016
:10DAB0004FEA16481CFB028C0CEBCC1808EBCC3858
:10DAC0004FEA986868F302010CEBCC1808EBCC3CE9
:10DAD000CCF3C25C6CF34F311FFA8AFCC7F3042706
:10DAE00017FB02C707EBC71C0CEBC737C7F3C457BC
:10DAF00067F30C21ADF8041089B2019104EB4007E3
:10DB0000BDF804103980401CA842ABDB05985B1CB3
:10DB100004EB40044B45A2DB63E7002710E03278BA
:10DB2000FF2A12D02088ADF804000199069806F06B
:10DB300058FF0190BDF804002080A41C761C7F1CB7
:10DB4000AF425DDAB007EAD15AE0A4F800A0F4E7EA
:10DB50003068411C43D0E8B33278FF2A53D0208884
:10DB6000ADF804000199069806F03BFF0190BDF85E
:10DB70000400208016F8012FA41CFF2A46D020881C
:10DB8000ADF804000199069806F02BFF0190BDF84E
:10DB90000400208016F8012FA41CFF2A39D0208809
:10DBA000ADF804000199069806F01BFF0190BDF83E
:10DBB0000400208016F8012FA41CFF2A2CD02088F6
:10DBC000ADF804000199069806F00BFF0190BDF82E
:10DBD000040000E011E02080A41C761C0FE0A007E8
:10DBE00007D0A4F800A0022000990151A4F806A0D3
:10DBF00003E000982060009860600834361D3F1DE7
:10DC00004745A5DD1CE0A4F800A0B3E7A4F800A0F8
:10DC1000C0E7A4F800A0CDE7A4F800A0DCE73278C4
:10DC2000FF2A1CD02088ADF804000199069806F060
:10DC3000D8FE0190BDF804002080A41C761C7F1C37
:10DC4000AF42ECDB05980BF1010B401B04EB4004E9
:10DC50001298401B0644CB45FFF65FAFC1E6A4F81F
:10DC600000A0EAE700222188ADF800109346104694
:10DC700033E0002727E0307818B3904205D0FF2822
:10DC80002FD000FB0AF31B0A9B46904203D134F8C5
:10DC90001700814210D0BBF1FF0F24D004EB4700E6
:10DCA0005A460088ADF800000099069806F099FEE3
:10DCB0000090327834F8171004EB4700BDF80030BC
:10DCC0000380761C7F1CAF42D5DB059804EB400433
:10DCD0001298401B064408F1010080464845C8DB05
:10DCE0007FE65346D0E70698E2E700002DE9FF4FB4
:10DCF00083B00C46DDF84480F5F7ECFABDF818A0C7
:10DD00008146B8F1000F0CD0A0882188401A401C31
:10DD100007B2E0886188401A401C0FFA80FB002699
:10DD200041E0B4F9026017E0B4F900500FFA86F848
:10DD30000DE010980290ADF804A0CDF80080D9F85D
:10DD400000002BB2059AC7690399B8476D1CB4F956
:10DD50000400A842EDDA761CB4F90600B042E3DA1A
:10DD600007B0BDE8F08F002518E000BF18F80500E7
:10DD700098B11099ADF804A04843000A0290608859
:10DD80000399304400B200902088059A284403B2D9
:10DD9000D9F80000D0F81CC0E0476D1CBD42E5DB9F
:10DDA0001298761C80445E45DDDBD9E7006809687F
:10DDB000884201D1012070470020704740680A68FE
:10DDC00020F04040904200D20860002070470000E0
:10DDD0002DE9FF4F83B00E46DDE910B41746002150
:10DDE000039810F04DF80546002103980FF0C0FD90
:10DDF0000146F07882070BD5C30742F2D17202D0F8
:10DE0000954202D006E0914206D120F00200F07067
:10DE1000C00701D07B4800E07B488146F078C0070E
:10DE200012D079484FF0000AA4F802A0A4F804A088
:10DE3000C4F810A0A4F800A0C4F808A0C4F80CA06E
:10DE4000804639460197A9E06E48EBE70198B84251
:10DE500006D04FF40001284610F02CF900286FD1AD
:10DE60006A49284610F02DF900286AD10021284679
:10DE70000FF06EFD029070B32069401C2061A288F3
:10DE800002EB0B01A180217DC9076DD000EB800062
:10DE900080000DF07FFA0090E0B1E16851B1206997
:10DEA000401E00EB8000820000980DF0F1FAE0685F
:10DEB0000DF0BCFA206900EB8001009800EB8100B6
:10DEC0004FF0000140F8145CF078C007284603D0FA
:10DED000022202E0FEE735E005220FF0E7FE2169AD
:10DEE00000B201EB8102009901EB820121F8100CD4
:10DEF000F0784FF00001C007284601D0032200E06F
:10DF000006220FF0D3FE216900B201EB81020099D5
:10DF100001EB820121F80E0C2069029900EB8002CE
:10DF2000009800EB820040F8081C206900EB80029A
:10DF3000009800EB820040F804AC0098E06013E029
:10DF400032E020E02846494688470146F0788007BD
:10DF500005D5B4F9040042180698824224DCA28850
:10DF600001EB0B001044A08028464146884701463B
:10DF7000B4F90000814202DD2846414688472080EE
:10DF8000A068401CA060F078400702D54FF0FF3039
:10DF900000E0012001994118019105D403980EF089
:10DFA00077FE051E7FF452AFB4F90400002802DDAD
:10DFB000A0EB0B00A080206908B1069801E0B4F93D
:10DFC00004006080CDB10198B84216D1039901AA2E
:10DFD0008968096851F82050F078C0F380010398EF
:10DFE00001F0CCFF4DB128464146884720802846A5
:10DFF0004946884760800120A060019807B0BDE8CD
:10E00000F08F000023E0010033CE01000100060084
:10E01000026812B18A4204D94A600160704728B18F
:10E02000024650688842FAD900B148605160704792
:10E0300030B500684A6801F10803884221D003E046
:10E0400044688C4203D020460028F9D119E0C0B1C1
:10E05000046800F1080525448D4212D152B10D68C3
:10E060002B44934206D111686319103119440160A1
:10E07000516804E00A68224408320260496841603D
:10E0800030BD002AFCD0086803449342F8D11368DD
:10E090001844083008605068486030BD02688A4201
:10E0A0000BD14A680260002048607047506888427F
:10E0B00002D14868506070470246002AF6D1704786
:10E0C0002DE9F05F04006FD0206908B1FFF7F8FF79
:10E0D0002178002001222523262627272825DFF85E
:10E0E000F4864FF0220A4FF02D0B4FF029094FF024
:10E0F0002E0E1C2970D2DFE801F06F0EA1A7A7A792
:10E10000A7B9CDDBF9F1F0EFEEEDECEBEAE96FE862
:10E11000E7E6E5E4A0E3A178480718D5D8F80400BD
:10E12000242100F8011BA168097A00F8011BA168ED
:10E130000989090A00F8011BA1688968090C00F81F
:10E14000021BA1688968090E00F8011CCFE288074C
:10E15000A0683AD5002870D0027AD21E0C2A6CD260
:10E16000DFE802F00606231B1B232323232323239C
:10E1700009071CD4D8F8041001F8013BC8F80410B2
:10E18000027B01F8012B8289120A01F8012BC26877
:10E19000120C01F8022BC06834E0090707D4D8F844
:10E1A000041001F8016BE9E701E3090705D5D8F888
:10E1B0000410242201F8012BE0E7D8F8041001F83C
:10E1C000017BDBE701F8010CF6E10028C3D0427CBB
:10E1D000D21E0C2AC3D200E0FAE2DFE802F0060603
:10E1E0001C15151C1C1C1C1C1C1C090705D5D8F86B
:10E1F0000410242201F8012B13E0D8F8041001F8D0
:10E20000013B0EE0000EDDE70907F0D4D8F804105A
:10E2100001F8016B05E00907E9D4D8F8041001F80A
:10E22000017B1430C8F8041001F8010B020A01F850
:10E23000012B020C01F8022BE4E7BFE1D8F804003F
:10E2400000F801AB217920E0D8F80400242100F87F
:10E25000011B217900F8011BA188090A00F8011BA4
:10E260006168090C00F8021B61686CE7607801289E
:10E2700004D0022807D003280AD094E2D8F804007A
:10E2800000F8012B33E202219FE200F8011B2EE28D
:10E2900003219AE26078012804D0022804D00328E0
:10E2A00004D080E2042190E205218EE206218CE276
:10E2B0006078012814D0022814D0032814D072E208
:10E2C0005EE266E2E2E17AE111E1BBE08EE07DE050
:10E2D0006EE05FE050E041E032E023E014E005E072
:10E2E0000D2172E20E2170E20F216EE260780128AA
:10E2F00004D0022804D0032804D054E2072164E2A9
:10E30000082162E2092160E26078012804D0022835
:10E3100004D0032804D046E20A2156E20B2154E23D
:10E320000C2152E26078012804D0022804D003288E
:10E3300004D038E2102148E2112146E2122144E2E1
:10E340006078012804D0022804D0032804D02AE2EF
:10E3500013213AE2142138E2152136E260780128CF
:10E3600004D0022804D0032804D01CE216212CE299
:10E3700017212AE2182128E26078012804D0022817
:10E3800004D0032804D00EE219211EE21A211CE257
:10E390001B211AE26078012804D0022804D0032847
:10E3A00004D000E21C2110E21D210EE21E210CE22D
:10E3B0006078012804D0022804D0032804D0F2E1B8
:10E3C0001F2102E2202100E22121FEE1206900213B
:10E3D000002892D0C06801E0C068491C0028FBD129
:10E3E000D8F804002C2200F8012B4EE7206910B168
:10E3F0000178012903D00178192914D0D3E140789C
:10E4000014E0032817D0032000F01AFACBE100BF74
:10E41000D8F8040000F8015BCEE100BFD8F8040092
:10E4200000F8019BCDE1407800F00F000128EFD00B
:10E430000228F3D0E5E7D8F804002A2100F8011BF0
:10E440002F2122E7216900298FD091F800C0BCF16B
:10E45000010F8AD1D1F808C06178012904D00229BE
:10E4600017D003298FD12AE0D8F804000CF1140C3E
:10E470004FEA1C21037080F801C081704FEA1C41F3
:10E48000C1704FEA1C61017180F805A08271C271F0
:10E4900054E0D8F804100CF1140C4FEA1C230E7051
:10E4A00081F801C08B704FEA1C43CB704FEA1C63AC
:10E4B0000B7123234B718A71C871022058E0D8F880
:10E4C00004100CF1140C4FEA1C230F7081F801C0EA
:10E4D0008B704FEA1C43CB704FEA1C630B712423F3
:10E4E0004B718A71C8710872487203205EE021691D
:10E4F000002963D091F800C0BCF1010F5ED1D1F8C2
:10E5000008C06178012904D002291CD0032955D103
:10E5100035E0D8F804000CF1140C4FEA1C2103700C
:10E5200080F801C081704FEA1C41C1704FEA1C6144
:10E53000017180F805A082710421C17105722F213B
:10E5400041720A30D3E0D8F804100CF1140C4FEAF1
:10E550001C230E7081F801C08B704FEA1C43CB70F6
:10E560004FEA1C630B7123234B718A71C87105201C
:10E57000087281F809902F2088720B311CE0D8F8BE
:10E5800004100CF1140C4FEA1C230F7081F801C029
:10E590008B704FEA1C43CB704FEA1C630B71242332
:10E5A0004B718A71C87108724872062088722A20DD
:10E5B000C8722F2008730D31C8F80410F3E02169E8
:10E5C000E9B391F800C0BCF1010F38D194F801C053
:10E5D0008968BCF1010F06D0BCF1020F1CD0BCF160
:10E5E000030F2CD134E0D8F804001431242606702F
:10E5F0000F0A417087700E0CC6704FEA116C80F8DC
:10E6000004C043718171C771067280F809C080F837
:10E610000AA0C272027366E0D8F8043014312425CF
:10E620001D700F0A59709F700D0CDD704FEA116C50
:10E6300083F804C05E719971DF711D7200E058E0CB
:10E6400083F809C023219972DA72187302206AE0F4
:10E65000D8F8043014314FF0240983F800900E0AE2
:10E6600059709E700D0CDD704FEA116C83F804C078
:10E670005F719971DE711D7283F809C083F80A9089
:10E68000DA72187358739873032070E0216981B3AC
:10E6900091F800C0BCF1010F2BD194F801C089683A
:10E6A000BCF1010F06D0BCF1020F23D0BCF1030F67
:10E6B00079D13FE0D8F804001431242606700F0AFF
:10E6C000417087700E0CC6704FEA116C80F804C060
:10E6D00043718171C771067280F809C080F80AA081
:10E6E000C2720421017345732B2181730F30C8F866
:10E6F000040058E0D8F80430143124251D700F0AA6
:10E7000059709F700D0CDD704FEA116C83F804C0D6
:10E710005E719971DF711D7283F809C023219972AE
:10E72000DA7218730520587383F80E902B20D87373
:10E73000103322E0D8F8043014314FF0240983F864
:10E7400000900E0A59709E700D0CDD704FEA116C2E
:10E7500083F804C05F719971DE711D7283F809C07E
:10E7600083F80A90DA721873587398730620D87376
:10E770002A2018742B2058741233C8F8043012E081
:10E78000D8F8041001F8010B01F8010B01F8020B95
:10E7900018E5A078000706D4607801280AD002287E
:10E7A0000DD0032810D0E06808B1FFF789FC0020E5
:10E7B000BDE8F09FD8F8040000F801BB97E7D8F84F
:10E7C000040000F801EB92E72F21D8F804005CE583
:10E7D000082019E6C80100202DE9F0410446002177
:10E7E00000F0B9FD80210D48F1F78FFE0C480D4D6A
:10E7F000002606602860094868605CB12B27204627
:10E80000E468C660FFF75CFC24B1686800F8017B2F
:10E810006860F4E70020BDE8F0810000F802022003
:10E82000F8010220C801002001480078704700006C
:10E83000D00100200149002008707047D00100205D
:10E840000149087000207047D0010020014951F8AB
:10E8500020007047D401002010B500F073F900F0DB
:10E86000E1F8FFF7E7FF002010BD0000104810B5E9
:10E87000416891F82110890703D40E4900200870DF
:10E8800013E0016821B180220A48F1F755FE0CE03F
:10E8900014F0A8FE08B108A100E009A10548F1F7AD
:10E8A00079FE09A10348F1F73BFE024810BD0000C4
:10E8B0002C020020780302206D7368200000000005
:10E8C00066696E73682000003E0000002DE9F0418B
:10E8D0002A4FC01C20F0030505F108063C6800E043
:10E8E00064681CB12068B042FAD926E0DFF8908055
:10E8F0007C6819E00021434604F1080201EB410065
:10E9000003EBC00090F811C0BCF1000F02D04069C9
:10E91000904202D0491C0829F0DB2046646808298F
:10E9200002D1083000F02EF8002CE3D13C6800E062
:10E93000646804B32068B042FAD321686019491BA7
:10E94000083940F8081F2560616841606060214611
:10E950000A48FFF7A3FB0020606008482146001D1D
:10E96000FFF756FB04F1080029460446F1F7CDFDF8
:10E970002046BDE8F0810020FBE7000010020020E7
:10E980003801022010B50838044601460748FFF751
:10E9900085FB06482146001FFFF73AFB2146034846
:10E9A000BDE81040001FFFF743BB00001402002029
:10E9B00010B580210648F1F7A8FD064904487822E1
:10E9C000086002600022426010464A6010BD0000EC
:10E9D00078FF01201002002010B500F0B3F800F01D
:10E9E00021F800F027FDFFF725FFFFF7E1FF0020EA
:10E9F00010BD00000A4A002101EB810312F8233008
:10EA000013B1491C1029F7DB102906D001EB810155
:10EA100002F8210002EB81007047002070470000DF
:10EA2000F8FF012010B54FF4A0710248F1F76DFD19
:10EA3000002010BDF8FF012010B504460220FFF7AA
:10EA4000D9FF08B1047110BD0620FFF7F9FE0020C0
:10EA500010BD70B50646002500F026FD040001D06B
:10EA600001260CE0304600F05DFA040001D00226D9
:10EA700005E0304600F0C6F904000CD00426012061
:10EA8000FFF7B8FF05000AD0012E0DD0022E0BD0E3
:10EA9000042E0AD108E00D20FFF7D2FE06E0062082
:10EAA000FFF7CEFE002070BDAC60AE70284670BD92
:10EAB00010B504460320FFF79DFF08B1446010BD68
:10EAC0000620FFF7BDFE002010BD10B5044604204F
:10EAD000FFF790FF08B1446010BD0620FFF7B0FEBD
:10EAE000002010BD10B504460620FFF783FF08B1D3
:10EAF000446010BD0620FFF7A3FE002010BD70B5D6
:10EB000005460520FFF776FF040016D02846F1F7EA
:10EB10001FFD401CFFF7DAFE60602846F1F718FD84
:10EB2000024629466068F1F707FD2846F1F710FD17
:10EB3000616800220A54204670BD0620FFF780FE5F
:10EB4000002070BD10B59C21F1F7DFFC002010BD46
:10EB500070B5054602C0002400F0E8FB281D00F057
:10EB6000EEFB01263CE01F2816D0142820D01528E3
:10EB70001ED016281CD017281AD0182818D01928EB
:10EB800016D06E71D5F8980070B1284616F0A7FC23
:10EB9000E06050B304461CE06E71D5F8980018B1DF
:10EBA000284616F09CFC0BE0284616F098FC0DE079
:10EBB0006E71D5F898000028284605D016F05DFE45
:10EBC000E0600028E6D104E016F057FE0446C5F8E0
:10EBD0009800D5F89800002806D0281D00F0AFFB5B
:10EBE000212801D02028BED170BD281D00F0A7FB30
:10EBF000EFE7000070B5064624480C46406890F8E0
:10EC00002100C00702D022A019F0CCFA21463046DC
:10EC1000FFF79EFFFFF708FE60B1FFF705FEFFF765
:10EC200015FE01461BA019F0BDFA00BFFFF7FCFD61
:10EC300028B125E0D6F89800FFF7CEFDF6E700F002
:10EC40004FFC00F0D9F8C0B221385D280ED200F098
:10EC5000D3F8054600F0D0F8044600F0CDF8C1B274
:10EC60002B4622460CA019F09DFA09E000F0C4F8EA
:10EC7000044600F0C1F8014622460CA019F092FAB1
:10EC80003046BDE87040FFF7E7BD00002C020020D1
:10EC90000A00000025730A0009272563272C202578
:10ECA000642C203078253038780A00000925642C3F
:10ECB000203078253038780A0000000010B5064C66
:10ECC000606820B99B22054905A017F0E5FD606842
:10ECD0001AF0A4FB002010BD2C02002096FE0200BA
:10ECE0007368656C6C20213D2052545F4E554C4C2E
:10ECF0000000000070B5204C0646606820B9AE22C6
:10ED00001E491FA017F0C8FD304618F067FA05002D
:10ED10002BD06068D0F8A802A8422CD040F2431152
:10ED2000284618F099FA002825D16068D0F8A80282
:10ED300038B118F0B3F960680021D0F8A80218F0D3
:10ED4000BFFB6068502100F51570F1F7DEFB6068CD
:10ED5000002180F8A41280F8A512C0F8A852284615
:10ED6000BDE870400B4918F0ABBB3146BDE87040C0
:10ED700009A019F017BA70BD2C020020A3FE0200F2
:10ED80007368656C6C20213D2052545F4E554C4C8D
:10ED900000000000BDEC000066696E73683A2063F5
:10EDA000616E206E6F742066696E6420646576699A
:10EDB00063653A2025730A0070B5084C0546606803
:10EDC00020B98522064907A017F066FD606810F893
:10EDD000211F65F34101017070BD00002C0200206D
:10EDE00072FE02007368656C6C20213D2052545FF6
:10EDF0004E554C4C00000000014800687047000070
:10EE0000F801022070B505461048114E046805E06F
:10EE100029462068F1F7A3FB30B10C3430688442F6
:10EE2000F6D30C4804680BE0204670BD2846F1F785
:10EE30008FFB024629466068F1F7B5FB20B12468D4
:10EE4000002CF3D1002070BD201D70BD34020020C5
:10EE5000380200201C020020024A106002480160B3
:10EE60007047000034020020380200207CB51849A9
:10EE70001848FFF7F1FF1849184800F049F84FF417
:10EE80002B71012017F0A8FD154C6060D0B10A214C
:10EE90000620CDE900014FF400630022114912A0C1
:10EEA0001BF0E4F8054600231A4611A160681AF029
:10EEB00091FA0120FFF780FF15B128461BF0B8FB3F
:10EEC00000207CBD0CA019F06DF94FF0FF307CBD27
:10EED00030D9030050D7030070D9030050D9030084
:10EEE0002C02002079EF0000747368656C6C0000E0
:10EEF00073687278000000006E6F206D656D6F7230
:10EF00007920666F72207368656C6C0A00000000DF
:10EF1000024A106002480160704700003C02002075
:10EF20004002002070B505461048114E046805E007
:10EF300029462068F1F713FB30B110343068844261
:10EF4000F6D30C4804680BE0204670BD2846F1F764
:10EF5000FFFA024629466068F1F725FB20B12468D4
:10EF6000002CF3D1002070BD201D70BD3C0200209C
:10EF70004002002018020020DC4C08B5606890F8C0
:10EF8000211041F0010180F8211000F5DC70FFF73D
:10EF900023FD6068D0F8A80220B917F075FE08B10B
:10EFA000FFF7A8FEFFF762FC19F0FCF84FF0FF3600
:10EFB0000027606848B99022CD49CEA017F06CFCBC
:10EFC00003E0314660681AF069FA606801236A4616
:10EFD000D0F8A802314618F001FA0128F1D19DF8C5
:10EFE00000501B2D07D0606890F82010012907D031
:10EFF00002290ED017E06168012081F82000D8E7CF
:10F000005B2D02D080F820700DE0022180F82010E6
:10F01000CFE780F82070412D3FD0422D44D0442DC1
:10F0200067D0432D76D0002DC3D0FF2DC1D0092D40
:10F030006DD07F2D6CD0082D6AD00D2D69D00A2D92
:10F04000FCD090F8A412502901D380F8A47290F853
:10F05000A53290F8A4128B426FD2CA1A00F515712E
:10F0600000F255201944184419F048FA606890F8E5
:10F07000A51200F515700D54606890F82110C907AD
:10F0800007D090F8A51200F5157001449EA019F064
:10F0900089F8616891F8A55202E1418C002988D075
:10F0A000491E89B241840CE0818C438C0A46491E7A
:10F0B0008B4202DA5B1C438402E0002A9FD0418429
:10F0C000418C502201EB810100EB011100F515701C
:10F0D0002631F1F7F3F9606800F51570F1F738FAA9
:10F0E0000146606880F8A41280F8A5121CF042FB6B
:10F0F0005FE790F8A5022546002889D083A019F083
:10F1000051F8686890F8A512491E13E002E015E076
:10F1100041E080E090F8A51290F8A4229142E7D255
:10F1200000F51570095C7AA019F03CF8606890F859
:10F13000A512491C80F8A5123BE7B7E0002503E0C3
:10F1400072A019F02FF86D1C606890F8A502A84213
:10F15000F6DC65686FA005F5157519F023F814F055
:10F1600041FA0128284613D002F058FEFFF77EFB33
:10F1700001462A4668A019F015F8606800F5157078
:10F18000F1F7E6F9616881F8A40281F8A50210E7B9
:10F1900014F056F9EAE790F8A522002AA8D090F8D2
:10F1A000A412521E491EC9B2D3B280F8A41280F82C
:10F1B000A532994225D9CA1A00F2552100F51570D9
:10F1C0001944184419F09AF9606890F8A41200F5EF
:10F1D00015700F54606890F8A51200F51570014481
:10F1E0004FA018F0DFFF606890F8A55203E047A039
:10F1F00018F0D8FF6D1C606890F8A402A8429BDB51
:10F20000F5E749A018F0CEFF606890F8A41200F569
:10F2100015700F54CDE61CF0C3FA14F0E3F9012881
:10F2200011D061683B2291F8A43201F515715A544E
:10F23000606890F8A412B9B100F5157100F5DC70A2
:10F24000FFF7D8FC17E06068254690F82100C0075A
:10F2500002D030A018F0A6FF686890F8A41200F55C
:10F26000157014F04BF906E090F82100C00702D0A9
:10F2700028A018F097FFFFF7F9FA18F093FF6068DD
:10F280005021254600F51570F1F73FF9686880F8C0
:10F29000A47280F8A5728CE61CA018F083FF6D1C88
:10F2A000606890F8A402A842F6DC0BE000F5157047
:10F2B0000D54606890F82100C00703D0294614A0BF
:10F2C00018F070FF616891F8A402401CC0B281F888
:10F2D000A40291F8A522521C81F8A522502899D3A6
:10F2E00081F8A47281F8A57263E600002C02002068
:10F2F00088FE02007368656C6C20213D2052545FCB
:10F300004E554C4C00000000257300000800000022
:10F31000256300000A00000025732573000000002B
:10F3200008257320200800000820080070B50D464D
:10F3300004469421F1F7E9F8C4F8905070BD10B577
:10F340000446407810B10020607002E020461EF0B4
:10F3500033FF207A10BD70B504000D4632D02078FE
:10F36000132808D0152806D0162804D01A2802D051
:10F37000192803D006E00821206904E015B1002116
:10F38000206900E02069FFF7E6FF0021E068FFF751
:10F39000E2FFA078042801D02843A070206910B1B2
:10F3A000407860700EE020780122032101280BD004
:10F3B000022834D0032836D0042834D0052832D08F
:10F3C000062830D0002070BDA0784FF00003C6079B
:10F3D0004FF002050FD0A0680028F3D0407C0F2822
:10F3E00023D2DFE800F0221A201C1C201E1E202041
:10F3F0002020202020008007E4D5A0680028E1D04C
:10F40000007A0F2811D2DFE800F010080E0A0A0E69
:10F410000C0C0E0E0E0E0E0E0E006370D2E7627014
:10F42000D0E76570CEE76170CCE70320FFF708FAFC
:10F43000C8E7000010B5C0210248F1F766F80020C7
:10F4400010BD0000380102202DE9F0474FF0FF38D1
:10F45000144E894682464446002500BF05EB450010
:10F4600006EBC000074610225146F1F79CF8B8B1F0
:10F47000787C10B9601C00D12C466D1C082DEDDB8A
:10F48000601C0DD004EB440006EBC00005461022C2
:10F490005146F1F751F885F811902046BDE8F08704
:10F4A0004046FBE73801022070B50C4D06460024AB
:10F4B00004EB440005EBC00010223146F1F773F86D
:10F4C00010B1641C082CF3DB082C04D004EB4400BE
:10F4D00005EBC00070BD002070BD000038010220A7
:10F4E00070B50A480A4C00F580750A4EC4E901055A
:10F4F00006E000BF10F8011BA06056F8210080470D
:10F50000A068411B8029F5D370BD0000F8010220DE
:10F510001C02002038FD02002DE9F04FB14D93B0E0
:10F52000044600216A880EF0C1FB9DF81710421CAA
:10F5300062F30001820862F34101C00860F38201B6
:10F540008DF8171020460021AA880EF0AFFB8DF829
:10F55000140020460021EA880EF0A8FB8DF8150063
:10F56000204600212A890EF0A1FB8DF8160000210B
:10F5700020460EF08EF9012800D0002081469DF82B
:10F5800017004FF00001C00720460CD00EF034FBEE
:10F5900082469DF817004FF00001C007204605D0B5
:10F5A0000EF088FA04E00EF085FAF1E70EF024FB85
:10F5B00007909DF81700C007204602D00DF0E6FB2B
:10F5C00001E00DF0C9FB06902046002132220EF02A
:10F5D0006DFB05462046002110220EF067FBE18AF4
:10F5E0002844461820460DF0C5FD301AADF820001D
:10F5F0002046002112220EF059FBA18A284445180A
:10F6000020460DF0B0FD281AADF840009DF8170017
:10F610009DF81660C00701D008AD00E010AD0021D4
:10F6200020460EF02DFC1190002120460EF0A0F98E
:10F6300083469DF81700C10708D0ABF51C52D13A9C
:10F6400002D1618C890509D5C10708D1119AA2F5AB
:10F650001C51D13903D1618C490500D40026B9F180
:10F66000000F08D0C00706D116B1012E02D002E06B
:10F67000012600E000260027ADF83C70B8468EB3A6
:10F680009DF81700400703D5A0684268521E15E098
:10F69000002213E000200E9009A90798CDE900018F
:10F6A00005A92046069BFEF793FB0246BDF82410F1
:10F6B00007EB0A00084407B208F10108A068406897
:10F6C000904201DD002AE5DAB8F1000F02D0A7EB85
:10F6D0000A0007B29DF81700C007204603D00DF0BE
:10F6E0003BFB02E00BE00DF051FB0FA9CDE900510F
:10F6F00001460FFA88F33A46304615F01BFC9DF898
:10F700001700410703D5A1684E68761E00E0002669
:10F71000B9F1000F04D0C00702D1288838442880EE
:10F7200009AFA0684068B04249DD002E47DB0120E8
:10F730000E900798CDE90007324605A92046069BA2
:10F74000FEF746FB8046B9F1000F08D09DF8170080
:10F75000C00704D12888BDF82410401A2880DDE9AC
:10F760000601BDF9202002AB019283E88300BDF9B8
:10F77000400000904346324605A92046F6F74EFB6E
:10F7800046460C980BF052FE00200C90B9F1000F89
:10F7900003D09DF81700C0070AD02888BDF82410B0
:10F7A000BDF83C20014402EB0A0008442880B8E779
:10F7B000BDF83C20298802EB0A00081AF6E71199E7
:10F7C00042F2D170814201D0834502D120460FF030
:10F7D00053FA00222B21204608F00AFE13B0BDE8A0
:10F7E000F08F0000F40500202DE9F74F0546007F5B
:10F7F00093464FF0000AC00760D14FF00108EC6853
:10F800000026C1467CB9287FC0F3C000401E3042AC
:10F8100054D1B9F1000F51D00199284688474FF0D3
:10F8200000080446C1460EB9261E47D0B8F1000FA5
:10F8300006D0214628465A4690470446B0423DD05D
:10F840004FF00108002CDED020680DF0E5FF000627
:10F85000D8D427681FE0012138460EF02BFCB0B148
:10F860002FB1012138460EF025FC0028CAD1E868E6
:10F87000A04223D0B0B1284600F0F2F90246E86871
:10F880000F21006808F0B4FD012817D106E03846C2
:10F890000DF010FB0746002FDDD1E8E7E8680068AF
:10F8A0000EF0A7FE2846EC6000F0DAF90246E868A0
:10F8B0000E21006808F09CFD012802D05046BDE8EA
:10F8C000FE8FE86800680EF094FE296909B12846A9
:10F8D00088470120F3E710B514460B460246E11CA9
:10F8E0001846F5F7E1FD204610BD70B5828E818C7B
:10F8F00012F0060F06D0C2F34102022A04D0012AF8
:10F9000005D022E0008D00E0C08C08441CE0B0F976
:10F910002C50468DAAB2B24202D202F5B47215B290
:10F92000B0F92830C48C9AB2A24202D202F5B47067
:10F9300003B2701900EBD0704010844201DA6018F5
:10F9400002E0834203DD501881B208B270BD084462
:10F95000FAE700002DE9F34F8FB0054669460DF038
:10F960002FFA28460EF05DFB0B9028460DF061FA49
:10F970000A90002128460EF0C7F80790002128467B
:10F980000EF00AF90746002128460EF059F9044600
:10F99000002128460EF058F88346002128460EF034
:10F9A00025F90646002128460EF078F806F00101F8
:10F9B00006EBD67201EB620100F0010200EBD070A1
:10F9C00002EB6000491C401C09B200B21C2900DB9C
:10F9D0001C218A461C2800DB1C2081461C2F00DBD2
:10F9E0001C27B8461C2C00DB1C2426465846BBF1BD
:10F9F0001C0F01DA074600E01C2700246BE0A86A10
:10FA000000EBC40108A803F0F5F8BDF92000079940
:10FA1000884213DCBDF900201C2900DB1C21511A8F
:10FA200000EB0100ADF82000BDF92200B04233DC4C
:10FA3000BDF902101C2E07DA324606E0BDF80020A0
:10FA4000A2EB09010844EDE71C22891A00EB010032
:10FA50000B99ADF82200BDF92400A1EB0801891E25
:10FA6000424688421EDBBDF90010B8F11C0F01446C
:10FA7000104600DB1C2008440A99ADF82400BDF9AB
:10FA80002600C91B891E88421DDBBDF902101C2FF0
:10FA900008440DDA39460CE0BDF80220A2EB0A0159
:10FAA0000844D5E7BDF80010014401EB0900E3E785
:10FAB0001C210844ADF82600002208A81099F2F78E
:10FAC000B9FE58B905E0BDF80210014401EB0A0087
:10FAD000F0E7641CA4B2288EA04290D8288EA042E1
:10FAE00001D14FF6FF7411B02046BDE8F08F10F041
:10FAF000070000D101207047B0F90C00032101EB91
:10FB0000400020F00300103070472DE9F05F894677
:10FB10009346824600210DF0EBFF0546002150463A
:10FB20000EF02EF88046002150460EF07DF8044677
:10FB3000002150460DF07CFF064650460EF071FA4B
:10FB4000411BA1EB080750460DF073F9001B801B09
:10FB50008742504605DA0EF064FA411BA1EB08001B
:10FB600003E00DF066F9001B801B00EBD07040F342
:10FB70004F00BAF8141042191144A9F80010BAF84D
:10FB8000161002191144A9F80210BBF1000F01D0A0
:10FB9000ABF80000BDE8F09F024A002152880EF049
:10FBA00085B8000000060020034A10B500215289E4
:10FBB0000EF07CF8C0B210BD00060020034A10B55C
:10FBC000002192890EF072F8C0B210BD000600202C
:10FBD000032901D2012300E00023C01A03EB4303F1
:10FBE00001EB8301891EC1EB41110C23B1FBF3F141
:10FBF00011446422B0FBF2F2014401EB9001891A36
:10FC00004FF4C872B0FBF2F008440721B0FBF1F2E8
:10FC100001FB1200C0B270472DE9F0410D460446C9
:10FC200000F0D5F8071E19D0F88A00212D1A3846A1
:10FC30000EF0BDF80689002138460EF0DFF800EB23
:10FC4000D07105EB6101304409B200B291FBF0F0D4
:10FC5000A18E80B2814201D8491E88B2BDE8F081F0
:10FC60002DE9F041002607463546304610E000BF3A
:10FC700009F0E5FF216DB94209D1022802D004281C
:10FC800003D003E02046BDE8F08126462546204605
:10FC900009F09AFF0400EBD10EB13046F3E70DB145
:10FCA0002846F0E7BDE8F041002009F08DBF2DE9BE
:10FCB000FF4F81B00E461D4617464FF400310198A4
:10FCC0000DF0C3FD00EBD07044103F1B0198FFF70F
:10FCD0000CFE81465A3000B212F012FC10FB07F005
:10FCE0004FEAE038484612F00BFC10FB07F0C71350
:10FCF0004FF44039494601980DF0FAFE83464946D3
:10FD000001980DF03DFF0090494601980DF08CFFE1
:10FD10008246494601980DF08BFE328820444244C9
:10FD2000A2EB0B01091B298032880099424421442F
:10FD30001144A9807188CA19A2EB0A01091B6980C4
:10FD4000718839440844E88005B0BDE8F08F2DE99A
:10FD5000F84F0C460646002120460DF07CFD00EBD6
:10FD6000D07045084FF44037394620460DF0F6FE76
:10FD70008246394620460DF033FF00903946204632
:10FD80000DF08EFF8346394620460DF081FE014678
:10FD9000A08A228D0244531BA3EB0A0060F30F08D4
:10FDA000E08A638D034400985C1B201A60F31F48AF
:10FDB00005EB0B00104460F30F096818184460F35A
:10FDC0001F49C6F80080C6F80490BDE8F88F406A65
:10FDD000002802D000210CF05BBF704700210CF01E
:10FDE00057BF00002DE9F04105460F46698C002001
:10FDF0000426C1F3C503EA680FE000BF06EBC004A8
:10FE000014595FEAC41C07D524F07F44BC4203D1D7
:10FE100052F83000BDE8F081401C8342EED84FF02C
:10FE2000806000EB71204FEAF0506884C0F3C50099
:10FE3000C10010460BF018FBE860C0B3688CC0F33B
:10FE4000C504641E16D06FF003025300E86802EB8D
:10FE5000C40141585FEAC11C0CD489010AD403EBE8
:10FE6000C40C00EBC4018444641EDCE9000CC1E94D
:10FE7000000CEBD1E868082100EBC4000BF0DAFBC2
:10FE800008200BF069FAE96841F8340010F047FFE8
:10FE9000EA6806EBC400115841F080711150EA681D
:10FEA00067F317011150E86850F83400B2E7FFE734
:10FEB000FEE700002DE9FC410068C068C068B0FBA7
:10FEC000F1F4944200DD1446154F786800688069AB
:10FED00020B30020ADF80000ADF80400ADF802003A
:10FEE00025B2681E06B2ADF80660786869460068FB
:10FEF00082699047BDF80600BDF80210401A401C08
:10FF000000B2A04202DD351EEBDC01E0002D02DC78
:10FF10000020BDE8FC81BDF90640641C2046F8E7DE
:10FF200048050020491E01D5401E0C310C2901DB7B
:10FF3000401C0C3901290DD0072091FBF0F200FB89
:10FF4000121000EBD07121F00101401AC0F11F0026
:10FF5000C0B2704781070CD16421B0FBF1F201FB04
:10FF6000120149B94FF4C871B0FBF1F201FB120064
:10FF700010B100201C30EBE70120FBE7136821B132
:10FF80005B1E13600BD4806805E05B1C1360806807
:10FF900041688B4203DA006850F823007047002064
:10FFA00070472DE9F84315460E46044609F006FE53
:10FFB00009F045FE01280AD0032808D04FF6FF704B
:10FFC00005B1288006B130800020BDE8F88309F033
:10FFD000F5FD694609F008FE4FF0000875B32046AC
:10FFE0000DF0C1F8BDF80010084407B2002120460A
:10FFF0000DF049FC01280CD0A08A00213F1A2046B0
:020000040001F9
:100000000DF09AFD381A02B24046A5F80080002192
:1000100010E0002120460DF0D7FD218B081AC01BEF
:10002000F1E7236B33F81030194409B28A4205DB3B
:10003000401C2880A38C80B29842F2D3FEB12046A7
:100040000DF098F8BDF802100844E18A451A002125
:1000500020460DF013FE281A02B24046A6F8008092
:10006000002108E0E36A33F81030194409B28A42EB
:1000700005DB401C3080E38C80B29842F2D3012033
:10008000A3E72DE9FF4F83B005461F460598F3F718
:1000900028F9014601208840B5F8209000F0FF08BB
:1000A0006FEA090080B2019095F822004FF0FF3608
:1000B000C0F3800A00244FF0040B1FE0E96801EB55
:1000C000C4004268920140D5BAF1000F15D10BEB84
:1000D000C4028958049AC1F30741090491420CD122
:1000E0000068817911EA080F07D06A46059910F077
:1000F00071FD012830D0022831D0641C688CC0F317
:10010000C500A042DAD820E0E96851F834008279CD
:1001100012EA080F18D00BEBC4028A58C2F3074149
:100120001FFA82FA049A090491420DD1019A1AEA3F
:10013000020F09D1B24507DD6A46059910F04AFD64
:1001400001280FD002280AD0641C688CC0F3C500B7
:10015000A042D9D8002E0EDB00983860012007B0ED
:10016000BDE8F08F5046CA45F6D05645ECDA064653
:1001700000983860E8E70020F1E72DE9F047814674
:1001800042F30006C0F15A001D460F46540800B263
:10019000761C12F0B5F9A7EB040800FB08F0C711B4
:1001A000484612F0ADF900FB08F0C011002F06DD43
:1001B0007F3F39120A1B32442A80214405E07F37F1
:1001C00039120A1B21442A80891BA980002806DDD8
:1001D0007F380012011B31446980204405E07F30E4
:1001E0000012011B20446980801BE880BDE8F08775
:1001F000024A0021D2880DF059BD000000060020FF
:100200002DE9FF4F85B007460798DDE915320089D3
:100210001A4410440FFA80FA0492B88C484384B20E
:10022000A14600255CE0BA6A52F82410A1B33B6BEA
:1002300000264FF0020E33F915B0401E18E000BF43
:1002400004EB060C52F82CC0BCF1000F14D09CF843
:1002500000C05FEACC7C0FD005EB06080EEB480C23
:1002600033F80C80761C08EB0B0C0FFA8CFBB6B243
:1002700006EB050C8445E3DB087880070DD507986D
:100280001599B0F9080001441698084451465045A4
:1002900000DC08460FFA80FA1EE0DDE91302024492
:1002A000ABEB020000B2129ACDE9002000230293CA
:1002B000DDE9072303A8491C12F0E6F9BDF90E1089
:1002C000049808445146504500DC08460FFA80FA6D
:1002D000A01984B2A81985B2641C6D1CA4B2ADB279
:1002E000B88C00EB0901A1429DD809B05046BDE889
:1002F000F08F0000034A10B50021128A0DF0D6FCE1
:10030000C0B210BD00060020034A10B50021528A79
:100310000DF0CCFCC0B210BD000600202DE9FC4160
:100320000C46064600210DF048FD05464FF480219D
:1003300030460DF042FDB5F90870B0F908500021C3
:1003400030460DF067FDE91901EBD17100EB61005A
:1003500005B230460CF06DFDF18A00EBD07001EB78
:10036000600005EBD571A0EB610060802844E0805F
:10037000694630460CF024FDBDF800002080BDF831
:100380000400A080BDE8FC812DE9FF410646FFF78F
:1003900025FD040020D04FF48027394630460DF06B
:1003A0000CFD05463046582239460DF07FFC06B25A
:1003B00020460AF037F90146002041F6FF72CDE9E8
:1003C0000002029033462A4603A812F05DF9BDF9F7
:1003D0000C0004B0BDE8F0810020FAE739B1012932
:1003E00009D0022905D0042907D0002070473C30ED
:1003F0007047483070475430704760307047000095
:100400002DE9F04104460D46668C00200423C6F316
:10041000C501E2680BE000BF03EBC007D7595FEAF4
:10042000871C03D527F07F47AF4202D0401C814292
:10043000F2D8814203D002EBC000BDE8F0814FF05A
:10044000806000EB76204FEAF0506084C0F3C50076
:10045000C10010460BF008F8E060608CC0F3C500E6
:10046000401E0DD06FF00702E16802EBC00601EB01
:10047000C0030E44401ED6E90016C3E90016F3D1AE
:100480000821E0680BF0D6F808200AF065FFE16863
:10049000086010F044FCE168486840F00070486073
:1004A000E16865F317004860E068C6E738B50C48B6
:1004B0000D46144690F820004FF00201C0074FF09F
:1004C000120002D00FF056FB01E00FF06BFB22464A
:1004D000294604F0B4F90090BDF8000038BD0000D2
:1004E000A01902202DE9F0474FF0000CDDE9096466
:1004F000089DDDF82CA0E1466F1E09BB052A03D03C
:10050000062A01D0042A02D10023012D01D00021A6
:1005100009E001225FF000019C4436F81180491C7B
:10052000C4440FFA8CFCA942F6D3ACEB030109B228
:10053000072A2AD2DFE802F004070B2921160D0052
:10054000A4F8009021E0411A01EBD17112E0411AA8
:1005500011E0411A09B23AB291FBF2F1A4F800900D
:100560000BB212E0411A09B22AB291FBF2F10BB2BE
:1005700003EBD3714910218007E0411A0AB2691CCC
:1005800009B292FBF1F10BB2238000210BE000BF16
:1005900034F8112036F811C0624404EB410C1A44BF
:1005A000ACF80220491CB942F2D304EB450106EB3A
:1005B000450231F8021C32F8022C11442288891AB3
:1005C0000AB2BAF1000F0CD0002108E034F8113063
:1005D00036F81170C31ADB1B24F81130491CA942EC
:1005E000F4D31046BDE8F08770B58AB00446FFF733
:1005F000D3FA05462046FFF7FBFD002D5CD000280E
:100600005AD069462046F5F7CFF80C2107A80BF021
:1006100011F82046002132220DF048FB0546204605
:10062000002112220DF042FB461920460021102223
:100630000DF03CFB054420460CF095FDA18A3144A9
:10064000081AADF8240020460CF094FDE18A2944F4
:10065000081AADF82600002507E0006807AA6946D9
:1006600050F8250000F01CFC6D1CA0684168A942F0
:10067000F3D800980AF0DAFE01980AF0D7FE029843
:100680000AF0D4FE03980AF0D1FE002120460DF0B6
:10069000FDFB0546002120460DF070F942F2D171B4
:1006A0008D4201D0884202D120460EF0E5FA0022A8
:1006B0002B21204607F09CFE0AB070BD10B5124CED
:1006C0002068800702D511A017F06CFD206840005B
:1006D00011D50D48C01E007808B1F4F7F1FF0A48A3
:1006E000001F007808B112F087FD0748801E0088BF
:1006F00008B11EF0A5FB2068002804DABDE8104010
:1007000008A017F04FBD10BD2CED00E06661696CCC
:10071000656420766563746F722066657463680A29
:10072000000000006465627567206576656E740A76
:100730000000000070B50446B2FBF1F001FB102090
:1007400083B218464FF0FF3609E095420ED0401CA8
:10075000B0FBF1F501FB150080B2984205D000EB2B
:10076000400554F82550002DEFD1304670BD0000F3
:1007700010B502A017F016FD002010BD48656C6C86
:100780006F2052542D546872656164210A00000084
:100790000021A0F13002092A01D8D1B216E0612867
:1007A00001D32038C0B2413806280FD2DFE800F06C
:1007B000030507090B0D0A2108E00B2106E00C21B7
:1007C00004E00D2102E00E2100E00F2108467047F1
:1007D0002DE9F0470446406A4FF4404102F09FFC87
:1007E00094F92E10A08D0122FFF7F2F90546206B37
:1007F00018B300264FF002084FF00309AF1D4FF465
:10080000004A17E0206BA28D30F8261091420FD1DC
:1008100008EB8601415694F92E20914208D109EB4C
:10082000860140565246384481B2606A02F06EFF3B
:10083000761CB6B2A08EB042E4D8A08D218D88423D
:1008400011D194F92E1094F92A0081420BD194F918
:100850002B00AD1D284481B2606ABDE8F0474FF41B
:10086000804202F053BFBDE8F087000070B5C46B52
:1008700015460E4624B93E22124913A016F00CF874
:10088000202E06D0212E0AD0222E0CD0232E17D1B6
:100890000CE034F8440F40F00400208010E0288879
:1008A000A4F846000CE02868E06609E0D5E90012EB
:1008B000204617F0E2FB002802DA6FF0070070BD57
:1008C000002070BD8DFC020062757320213D205216
:1008D000545F4E554C4C0000F8B5C46B1F4616468D
:1008E0000D4624B91722094909A015F0D5FF26B9EC
:1008F000182206490AA015F0CFFFA9B22A0C3346E8
:100900002046009717F07AFBF8BD000064FC020057
:1009100062757320213D2052545F4E554C4C0000AF
:1009200062756666657220213D2052545F4E554CBB
:100930004C000000F8B5C46B1F4616460D4624B99E
:100940002B22094909A015F0A7FF26B92C22064938
:100950000AA015F0A1FFA9B22A0C33462046009741
:1009600017F078FBF8BD000078FC02006275732078
:10097000213D2052545F4E554C4C00006275666616
:10098000657220213D2052545F4E554C4C000000B2
:100990002DE9F041044690F82A00C00738D0A08C19
:1009A0000721B0FBF1F0E18CB1FBF0F200FB121279
:1009B00000EB40010A4492B2B2FBF0F300FB1320BB
:1009C0000844E2842085002120460DF0F6F9054612
:1009D000002120460DF01EFA0746B5F908502046C2
:1009E0000CF0BAF906462046FFF7F8F90246E18C0A
:1009F000E819414306EBD67005EBD573BDE8F0412D
:100A00004010A0EB6300401A01B210460FF04EB840
:100A1000BDE8F08170B50D4C064600200D460A4633
:100A200020601D21304607F0E3FC206858B10178B2
:100A300039B12946EFF793FD28B13046216811F00E
:100A400005F8002070BD012070BD0000F0050020F9
:100A50002DE9FC5F0E008346DDE90C47C6F100007E
:100A600098469246814600D40846012503E000BF1F
:100A700090FBFAF06D1C5045FADAA84500D94546BE
:100A800024B1002E01DB780700D5641EB80702D51B
:100A9000B8F1000F0AD0F80708D13CB1A54205D241
:100AA00020215846641EF4F7F1FDF6E7002E02DA25
:100AB0004E462D2102E0780703D52B215846F4F746
:100AC000E5FD07F0030002280BD1B8F1000F08D1B3
:100AD0003CB1A54205D230215846641EF4F7D6FD3C
:100AE000F6E7CDE9004743465246314658461EF0E8
:100AF0008DF8BDE8FC9F2DE9F04188B01F461446F3
:100B00000D4606460DF0E4FD002842D0A54240D037
:100B10004FF4B470854202D9A5F5B475ADB28442E4
:100B200002D9A4F5B474A4B2B18C4A1995B2214487
:100B30008CB2854202D9A5F5B475ADB2844202D912
:100B4000A4F5B474A4B207AA06A93046FEF7DDFFE7
:100B5000394630460CF079FE8046304639465122FF
:100B60000DF0A4F804A908B1012200E00022CDE9AB
:100B70000221CDE90048BDF81C00BDF91A1082B26F
:100B8000BDF918002B4604F02DFC04A930460DF0E9
:100B900053FD08B0BDE8F0811FB5044603AA02A9C1
:100BA000FEF7B3FF6B46BDF90C2002A92046FFF704
:100BB0007EF8694620460DF03FFD1FBD024600202D
:100BC0001268930702D0530702D47047500714D518
:100BD00002F00300012802D002280CD105E0C2F384
:100BE00083100B68801C184404E00223086803EBA0
:100BF00092521044086001207047086800EB92533D
:100C0000C2F38910401CEEE7F0B50546A1F57F4020
:100C10008BB00E46FF3858D0288EB04255D9A86AFE
:100C200000EBC601684601F0E5FF03A928460CF079
:100C3000C7F8002128460CF0D9FF074600212846B6
:100C40000CF02CFF044628460CF0C0F804F01CFB06
:100C50000A2190FBF1F2BA4201DB90FBF1F790FB25
:100C6000F1F33AB2A34201DB90FBF1F4BDF80C3092
:100C7000BDF80000991A0844ADF80000BDF80E1048
:100C8000BDF802000F1B3844BDF8047000B23B44AD
:100C90001A44ADF80420BDF80620ADF80200114456
:100CA000214409B2ADF80610AA8EB24209D1EA6A0F
:100CB00032F81620920504D5091A491C401AADF8DD
:100CC0000200694628460DF0B7FC0BB0F0BD1CB51C
:100CD000044601466846FFF73AF8694620460DF09B
:100CE000ABFC1CBD2DE9FC470446B0F882000D4664
:100CF000A8427DD920460CF049F8B4F88410484346
:100D000040F30F2620460CF05BF9074694F8880064
:100D1000010705D500F00700012806D002286DD094
:100D20002046BDE8FC470DF064BC002120460CF0D5
:100D300001FE8046002120460CF00AFFA28A4044B2
:100D40001044C01B0FFA80F920464FF4A02149221D
:100D50000CF0ACFF0FFA80F84FF4003120460DF094
:100D60009BF80746A08AADF80000E28AADF80220A1
:100D7000208BADF8040008EB0700618B121A0844C1
:100D8000ADF80220ADF80600B4F88200401EA8427B
:100D900017DD06FB05F191FBF0F24A44A2EB0801D6
:100DA000C91BADF80010691C714391FBF0F1494477
:100DB00001EB08003844ADF80400694620460DF008
:100DC0003BFC002D47D0681E06FB00F1B4F8820002
:100DD000401E91FBF0F24A44A2EB0801C91BADF89A
:100DE00000106E4396FBF0F1494401EB080001E06E
:100DF00031E003E03844ADF8040028E0002120464B
:100E00000CF064FEB4F8841048434FEA2028B4F88C
:100E1000820006EB080191FBF0F6002120460CF061
:100E200089FD81467543002120460CF091FEA18A80
:100E3000484429444518694620460BF0C1FFE81B89
:100E40008119A0EB0800ADF80410ADF80000694668
:100E500020460DF0F1FBBDE8FC8770B505460DF0AE
:100E6000E0F8044628460BF0E4FF844201DB012051
:100E700070BD002070BD28B10A2803D00D2801D014
:100E800000207047012070470268134602E08A4242
:100E900004D01268002AFAD10B600160704700008C
:100EA0002DE9F74F0D4682B00446B0490DF009F91F
:100EB00000287DD12046FEF781FE82462046FFF7BE
:100EC00023FA5FEA000973D0BAF1000F70D0204610
:100ED000FEF76AFE07462046FFF70CFADFF890B2ED
:100EE000064620460021BBF80E200CF0DFFE00F085
:100EF000FF0820460021BBF814200CF0D7FEC0B23A
:100F000001902B6807EB0A006FF00102D5F808C0CA
:100F100033F8171002EB40001B5A3CF8000018444D
:100F2000401A00B200906B6806EB090002EB40002B
:100F300033F816101A5AEB68185A1044401A0FFA70
:100F400080FB002120460CF0AAFC01280AD1B8F150
:100F5000000F03D0B8F1020F02D003E0022000E03E
:100F600000208046208BA18A401A401C0FFA80FA8C
:100F7000608BE18A401A401C0FFA80F94046B8F1B4
:100F8000010F1BD0022824D02868B8F1030F30F9D4
:100F9000170028D18046608CDDF800A040F4806006
:100FA0006084019801287BD0022877D0032800E0D4
:100FB000D8E0686830F9167071D119E02968009896
:100FC000A0EB0A0031F8171000EBD07001EB6000C5
:100FD00008E020460DF025F8296831F8172000991F
:100FE0001144081A00B28046608C20F48060D7E774
:100FF000608CD94640F40070608420460DF011F8F2
:10100000504504D120460BF014FF484527D0A08A54
:10101000ADF80000E08AADF80200208BADF80400C6
:10102000608BADF8060020460DF0E3FA04F11400E1
:101030005146054601F078FE4946284601F06FFE0C
:1010400020460DF0D6FA6A462921204607F0D0F94D
:1010500020460BF02FFF2246222107F0C9F9204637
:1010600000216A220CF022FE06B2204600216B22EB
:101070000CF01CFE05B220460CF0D3FF8146204642
:101080000BF0D7FE0146C6F3413064224FF4FA63F9
:101090004FF47A7C01281BD027E001E00AE013E03E
:1010A0006968ABEB090000EBD07031F8161001EB6A
:1010B000600008E020460BF0BCFE696831F816209D
:1010C00002EB0B01081A07B2608C20F4007093E762
:1010D00026F4C040984208DC604501DDC0F57A7016
:1010E00000FB09F090FBF2F006B2C5F34130012895
:1010F0000BD125F4C040984207DC604501DDC0F506
:101100007A70484390FBF2F005B2049A08EB0600AF
:10111000791912891044A28A801A05B2049840896C
:101120000844E18A401A06B255EA06001AD0204661
:101130000DF05FFAA08A2844A082208B28442083E7
:10114000E08A3044E082608B3044608320460DF0BA
:1011500050FA05B0324629462046BDE8F04F00233C
:101160000DF0EEBA05B0BDE8F08F000001000600FA
:10117000000600202DE9F041064615460F460020E6
:1011800005E039462046B04701280AD0204612F033
:101190004DFB040002D060688000F2D10020BDE861
:1011A000F08105B12C600120F9E70000C0F3871140
:1011B00010B500F03F000B2810D00C280ED01828D6
:1011C0000CD019280AD1022908D1054C1020217809
:1011D00017F086FF207880F00100207010BD00001D
:1011E000100000202DE9F0414268096822F04042D9
:1011F0008A4227D10446FEF77FFCDFF84C80054683
:10120000D8F80820131BA2EB05005E1BC8F80800E5
:1012100015D027466119324638460AF039F906E0FA
:10122000A068401BA0602046FEF766FC0444D8F886
:1012300008008442F4D1B81929460AF0FBF90120CC
:10124000BDE8F0810020FBE7F806002070B50546F8
:1012500007F08CF80446284607F0C6F806460BF05F
:1012600029FE05462A2C01D0292C0BD1002130461D
:1012700009F0C2FD284614F01BFE2846BDE8704068
:101280001AF09CBB70BD2DE9FC4106461446884609
:10129000D80729D004F108000125002206F1140125
:1012A0000746F1F707FA58B100208DF800006A46AA
:1012B00012213046019707F09BF89DF8000098B185
:1012C0006089218A0844401EE081B4F90E10B4F907
:1012D0000600814200DDE08102B02A4621464046F8
:1012E000BDE8F04104F05CBD0025EEE72DE9F041DA
:1012F000074688B01D46164688460846F1F701FEA7
:10130000044602A940460BF05BFD2246114602A8A6
:1013100001F0E4FC022E05D0012E29D0002008B0F7
:10132000BDE8F081DDE90201CDE9040100231A46A0
:1013300004A940460CF0C2FD04AA6846B968F1F75A
:1013400091F90028EBD0DDE90001CDE90601012388
:10135000002206A940460CF0B1FD06A902AA0846E3
:10136000F1F780F90028DAD006982860079809E09C
:1013700002AA6846B968F1F775F90028CFD000983D
:101380002860019868600120C9E7000070B5054633
:101390000BF090FC0646002406E0A868006850F8B0
:1013A0002400FFF7F3FF641CB442F6D3688CC10736
:1013B0001ED020F00100688428460DF05DFC284610
:1013C0000DF07CFB002E13D0002128460CF0E8FA2B
:1013D00000280DD007494968884209D8064909689C
:1013E00001EBC00050E902212846BDE870401047DB
:1013F00070BD00003C0500208005002070B588B05D
:101400001422334902A8EFF759F84FF0A050049086
:1014100026208DF80B00FF208DF80A0028208DF87B
:101420000900272003258DF808008DF81450252089
:101430008DF81600012600248DF8186008208DF81C
:1014400019008DF80C402346224602A9214813F0CA
:10145000C3FA28B11E497C2214391FA015F01CFACA
:10146000CDE90054012200231146272012F038FC58
:10147000CDE90054012200231146282012F030FC4F
:10148000292012F038FD0122292000940023114662
:10149000019412F025FC0F2019F036F82920009055
:1014A000684612F0D7FC00998E40C0F80C65052004
:1014B00019F02AF8292012F01EFD782019F024F8DE
:1014C0000448083000F016F808B0002070BD000095
:1014D00098F302003CF202006572725F636F64650C
:1014E000203D3D204E5246585F535543434553538C
:1014F000000000001FB5044613480FC88DE80F0018
:1015000007E0012809D0022806D1606818F0FCFF26
:101510000C3420780028F4D11FBDD4E901210B48F8
:1015200016F0C6FF60680190012300226946084852
:1015300013F078FB0028EBD003495B221C3905A08F
:1015400015F0AAF9E4E7000074F30200E0EB0120D3
:101550003CF202006572725F636F6465203D3D205E
:101560004E5246585F5355434345535300000000C5
:101570002DE9F04186B01D461446DDF8308000F0BC
:101580004BF81C4A01AE012307CA86E8070004A8ED
:1015900000902C208DF8100000226946164813F0A8
:1015A00041FB28B11349C022183914A015F074F971
:1015B0006C43670000254FF6FE7615E07C1BB442B5
:1015C00000D3344608EB0500CDE9000400231A4699
:1015D0006946094813F026FB28B10649CC22183980
:1015E00006A015F059F92544BD42E7D306B0BDE881
:1015F000F0810000ECF302003CF202006572725FC1
:10160000636F6465203D3D204E5246585F535543FD
:10161000434553530000000070B5234E1D460C4651
:1016200086B04ACE0DF10C0C8CE84A002A218DF8C8
:101630000010010A8DF801108DF802001044401EC0
:10164000010A8DF803108DF80400CDF808D00123AD
:10165000002202A9154813F0E5FA28B11249AA227E
:101660001C3913A015F018F92B208DF80000200A62
:101670008DF801006019401E010A8DF802408DF8B6
:1016800003108DF804000123002202A9074813F07B
:10169000C9FA002805D00449B2221C3904A015F06B
:1016A000FBF806B070BD0000C8F302003CF2020077
:1016B0006572725F636F6465203D3D204E524658EF
:1016C0005F535543434553530000000010B51F2896
:1016D00006D01E2806D0292807D0282807D00AE0DF
:1016E000002100E001210F2003E0002100E00121A2
:1016F000102017F0F5FC002010BD000070B519F0A7
:10170000E3F80C4C05461020217917F0E9FC20790C
:1017100080F001002071AFF21B00F3F749FBA92212
:101720004FF4FA730021AFF22B00F3F7E5FA2561CD
:1017300070BD00001000002010B50121102017F02E
:10174000CFFCBDE810400148F3F732BBFD160100A5
:1017500010B500210D2017F07DFC00210E2017F0A0
:1017600079FC00210F2017F075FC0021102017F0E4
:1017700071FC01210D2017F0B3FC01210E2017F0A0
:10178000AFFC01210F2017F0ABFC0121102017F056
:10179000A7FC0B210023144A084617F009FC01217D
:1017A0000B2017F031FC00230F4A0B210C2017F0FF
:1017B000FFFB01210C2017F027FC00230A4A0B2114
:1017C000182017F0F5FB0121182017F01DFC00234D
:1017D000054A0B21192017F0EBFB0121192017F006
:1017E00013FC002010BD0000AD11010010B519F070
:1017F0006BF8054CA06061780F2017F071FC6078E1
:1018000080F00100607010BD1000002010B519F0CC
:101810005BF8054CE060A178102017F061FCA0781F
:1018200080F00100A07010BD1000002070B510A065
:1018300016F0B8FC1AA016F0B5FC25A016F0B2FC04
:101840002D4CE078002812D12D4D2C4A002128681B
:10185000F3F7E0FB08B1F3F771F92A4A0121686850
:10186000F3F7D8FB08B1F3F769F90120E07070BD18
:101870005A4A2D53444B3A52542D54687265616450
:10188000D6A8CAB1C7B7D59A5A4AD39CC48FD682B4
:10189000DFAAD7A2D1A5CA8FD684D3A6D4830A0043
:1018A0006C65645F74696D656F7574315F68616ED6
:1018B000646C6572203473DBB3D6BBDCA1D6B4D1C3
:1018C00090D2BBD58EDF8DD7A2D0BA0A000000001F
:1018D0006C65645F74696D656F7574325F68616EA5
:1018E000646C657220DCA1C3BFD9B43273D1ADDBA7
:1018F000B7D6B4D1900A000010000020ED17010007
:10190000DCF102000D18010010B5FFF78FFF0C4C41
:1019100000224FF47A612068F3F79AFB08B1F3F7DD
:101920000DF900224FF4FA616068F3F791FB08B1FA
:10193000F3F704F918F0C8FF02498860C86010BDC9
:10194000DCF102001000002010B5084C2068F3F70D
:10195000A3FB08B1F3F7F2F86068F3F79DFB0028EA
:1019600003D0BDE81040F3F7E9B810BDDCF1020088
:101970002DE9F0478046089D1F46E86900FB01F30A
:101980009B12002807DD934207DD00BF95F8280071
:1019900080070DD48BE09342F8DBCB1943439B12B5
:1019A000002808DD934239DA95F8280080077ED4B4
:1019B0000120BDE8F0879342F6DCA869521C504331
:1019C00040F395000312C0B2FF22002828D000BFC8
:1019D0006E6AC0F1FF0404FB06F4A2EB242600BFEC
:1019E000A3EB0104A14636D0002C15DBBC4213DA70
:1019F000C0F1FF00C6F1FF014843A2EB6020C1B275
:101A000095F82800800701D5C1F1FF0118F80400FE
:101A100011F0E2FB08F80400641C1CE0A869CEE7A2
:101A20004FF0FF06DCE7002C10DBBC420EDAA6EB21
:101A30006000C1B295F82800800701D5C1F1FF010F
:101A400018F8040011F0C8FB08F80400686A641C68
:101A5000361ABC4202DA686AB042E4DBBC4218DAE9
:101A6000002C16DBA869704380127043C0F3472135
:101A7000E869002801DAC1F1FF0195F82800800724
:101A800001D5C1F1FF0118F8040011F0A5FB08F819
:101A9000040095F82800800707D54946B94506DCBB
:101AA00000290DDB404609E001E0641C01D500205F
:101AB0007FE7BC4204DC391B08EB040009F0BAFDE7
:101AC000022076E72DE9F05F06460A9F8A461D460A
:101AD000B86900FB02F18C12002800DD641C97F845
:101AE0002830544502DA980707D4D5E08C120AEB67
:101AF000050CA44502DA98077ED483E0521C4243C9
:101B000041F3950142F395044FEA2129221204F092
:101B1000FF08C9B2A9EB0A04914505D0002803DAF1
:101B200011B9FF219146641E914528D1002C0CDB90
:101B3000AC420ADA01EB08004108980701D5C1F16F
:101B4000FF01305D11F048FB305597F82800641C08
:101B5000800706D5A9EB0A01A9424DDA8EE030468E
:101B60000AE0AC4200DD2C46002C45D006DD00BF6B
:101B7000A5EB040106EB040009F05CFD89E04FF0E1
:101B8000FF0B002844DAF869404248434FEAA02896
:101B9000002C0DDBAC420BDA08FB01F0C0F347214F
:101BA000980701D5C1F1FF01305D11F015FB3055EB
:101BB000B969A8F1FF0041438812641E11D4AC42F8
:101BC0000FDAC8F1FF014143ABEB6120C1B297F8D6
:101BD0002800800701D5C1F1FF01305D11F0FCFA4A
:101BE000305597F82800A41C800709D5A9EB0A01F5
:101BF000491EA9424DDC00E04EE00029AFDC48E080
